:40000000021415008F828E83E0540100000070F82278FFE4F6D8FD02147A900000EFF0E4F53FF540F541F54275430AC200121F87EF60057F00121FB7122067D2AF9044F4FC
:4000400074FDF0E4F53B754900754A00754B37900000E0FF70067EFF7FFF80008F4C7B017A0079017D2C7C011212FA8F3E900000E060021543E5436004E53E70C9E53E6046
:400080000302059FC3E5389407E53794004008900001E064016005753B04807E900004E0FE900003E0FDEEF53FEDF54074062540F5827400353FF583E0FE74052540F58228
:4000C0007400353FF583E0FDEEF53CEDF53DE5402407FFE4353FFED3EF9538EE95374005753B03803574072540F5827400353FF583E064176005753B04801F7B017A0079B1
:4001000001E5402404FDE4353FFC121C66EF653D7003EE653C6003753B08E4F539F53AE53B600302058E900005E0F536753B04900002E012088801553101823202083403A0
:400140007A3503883703D438020839040F3A05783B0000058B20000302058EE540453F600302058EFF120D84EF70047F0180027F00900005EFF0753900753A01E4F53B0260
:40018000058E20000302058EE5406401453F600302058EE536C39401400302058E900357E0FEA3E0F5828E83120842E4FBFA7901F81207188F24E536B5241E900357E0FE6B
:4001C000A3E0F5828E83120842E4FB7A01F9F81207187522008F238014E536D395244007E4F522F5238006752201752300E523900005F0E522A3F0A374FFF0E4A3F0F539B6
:40020000753A04F53B02058E900002E06434703C20000302058EE5406403453F600302058EE536C39440400FE536D3947F50087541007542108006754101754220AE41AF47
:40024000427D007B017A01792D1208FF20000302058EC3E5409403E53F9400500302058EE54024FDFFE53F34FFFE742D2542F974013541A801FC7D017B017A0079081209F7
:40028000E7E54024FDFFE53F34FFFEEF2542F542EE3541F541E536C394404012E536D3947F500B121DA8753F007540108006753F01754020E54265407004E541653F600369
:4002C00002036F900007E0FE900006E0FDEEF541EDF542E536D3943F506FE5367F00FEEF2542FFE5413E900259F0A3EFF0900357E0FEA3E0F5828E83120842E4FB7A01F9AA
:40030000F812071890025BEEF0A3EFF0900357E0FEA3E0F5828E83120842EFE4EF600A90025BE475F0011205DA90025BE0FEA3E0FFC390025AE09F900259E09E500B753BD5
:400340000AE4F541F54202058E7B017A01792D900263E53FF0A3E540F0AD42AC41AF36120F0BEF60047F0A80027F008F3B8003753B03E4F541F54202058E20000302058EC7
:40038000E4F541F54202059F20000302058EE5422540FFE541353FFED3EF942CEE9401502DE4F53BAE3FAF40742D2542F974013541A801FC7D017B017A0079051209E7E58F
:4003C000402542F542E53F3541F54102058E753B0302058EE540453F600302058E78257C00FD7BFF7A25791FFE7F081209E7D200753900753A08AE39AF3A78057C007D0105
:400400007B007A0079251209E7E4F53B02058E20000302058EE5406403453F600302058E900007E0FE900006E0FDEEF52FEDF530E536C394404038E536D3947F5031AE2F29
:40044000AF307C007D101208D28F348E338D328C318F4B8E4A8D498C48E4754F10F54EF54DF54CFF7E80FDFC12192C8F358050AE2FAF307C017D001208D2C004C005C006FC
:40048000C007AF36E4FCFDFEFBFA7901F812068DD003D002D001D0001206728F348E338D328C318F4B8E4A8D498C48E4F54F754E01F54DF54CFFFE7D10FC12192C8F35E588
:4004C00036D3943F5072AF367E007C207D001208D2E42FFFE43EFEED3408FDE43CFCC004A905AA06AB07AE2FAF307C007D201208D2D0001206728F348E338D328C31E4F5BA
:400500002DF52EC3E52E9420E52D9400502AE4E52E2534FFE52D3533FEE43532FDE43531A907AA06AB05121CF3EF2535F535052EE52E7002052D80CBE536702AAE2FAF301E
:40054000FCFD7BFFFAF9F8C31207C57019FD7F05120A3DC3E5359FF535E4FD7F06120A3DC3E5359FF535E535F404900005F0E4F53BF539753A018016E4FF120D84EF700604
:400580009046FA7480F01220718003753B057B017A007901853948853A49AF3B1215ED900000E0700302004330000302004322BB010689828A83E0225002E722BBFE02E399
:4005C0002289828A83E49322BB010689828A83F0225002F722BBFE01F322C5F0F8A3E028F0C5F0F8E582158270021583E038F022BB010A89828A83E0F5F0A3E022500687B6
:40060000F009E71922BBFE07E3F5F009E3192289828A83E493F5F074019322BB010789828A830205DA500B09C5F027F7C5F01937F722BBFE0D09F8E325F0F3C5F019E338A6
:40064000F322F889828A8374019325F0C5F0F8E4933822BB010A89828A83F0E5F0A3F0225006F709A7F01922BBFE06F3E5F009F31922EF2BFFEE3AFEED39FDEC38FC22C315
:40068000EF9BFFEE9AFEED99FDEC98FC22E88FF0A4CC8BF0A42CFCE98EF0A42CFC8AF0EDA42CFCEA8EF0A4CDA8F08BF0A42DCC3825F0FDE98FF0A42CCD35F0FCEB8EF0A47C
:4006C000FEA9F0EB8FF0A4CFC5F02ECD39FEE43CFCEAA42DCE35F0FDE43CFC2275F008758200EF2FFFEE33FECD33CDCC33CCC58233C5829BED9AEC99E58298400CF582EE4A
:400700009BFEED9AFDEC99FC0FD5F0D6E4CEFBE4CDFAE4CCF9A88222B800C1B90059BA002DEC8BF084CFCECDFCE5F0CBF97818EF2FFFEE33FEED33FDEC33FCEB33FB10D7C4
:4007400003994004EB99FB0FD8E5E4F9FA227818EF2FFFEE33FEED33FDEC33FCC933C910D7059BE99A4007EC9BFCE99AF90FD8E0E4C9FAE4CCFB2275F010EF2FFFEE33FE50
:40078000ED33FDCC33CCC833C810D7079BEC9AE899400AED9BFDEC9AFCE899F80FD5F0DAE4CDFBE4CCFAE4C8F922EF4BFFEE4AFEED49FDEC48FC22C3E49FFFE49EFEE49D2F
:4007C000FDE49CFC22EB9FF5F0EA9E42F0E99D42F0E89C45F022E8600FECC313FCED13FDEE13FEEF13FFD8F122E8600FEFC333FFEE33FEED33FDEC33FCD8F122BB010789DC
:40080000828A830208365005E9F8020A0DBBFE05E9F8020A1989828A83020842BB010789828A8302085E5005E9F8020A25BBFE05E9F8020A3122E0FCA3E0FDA3E0FEA3E06A
:40084000FF22E493FC740193FD740293FE740393FF22E0F8A3E0F9A3E0FAA3E0FB22ECF0A3EDF0A3EEF0A3EFF022E0FBA3E0FAA3E0F922EBF0A3EAF0A3E9F022E493FB74E9
:400880000193FA740293F922D083D082F8E4937012740193700DA3A393F8740193F5828883E4737402936860EFA3A3A380DFE5092582F582E5083583F583B50804858209B7
:4008C0002210AF06858209F50822858209F508D2AF22EC8EF0A4CCC5F0CCCDF8EFA4CEC5F02DFDE43CFCE8A42EC8C5F03DFDE43CFCEFA4FFE5F028FEE43DFDE43CFC22EF51
:400900004E6012EF60010EEDBB010B89828A83F0A3DFFCDEFA2289F05007F709DFFCA9F022BBFEFCF309DFFCA9F022E709F608DFFA8046E709F208DFFA803E88828C83E7AA
:4009400009F0A3DFFA8032E309F608DFFA806EE309F208DFFA806688828C83E309F0A3DFFA805A89828A83E0A3F608DFFA804E89828A83E0A3F208DFFA804280D280FA80F3
:40098000C680D4805580F28029801080A680EA809A80A880DA80E280CA802988848C8589828A83E493A30586F0A30586DFF5DEF3800B89828A83E493A3F608DFF9ECFAA95D
:4009C000F0EDFB2288848C8589828A83E0A30586F0A30586DFF6DEF480E389828A83E493A3F208DFF980D688F0EF60010E4E60CD88F0ED2402B4040050C3F582EB2402B455
:400A0000040050B9232345822390097B73E6FC08E6FD08E6FE08E6FF22E2FC08E2FD08E2FE08E2FF22ECF608EDF608EEF608EFF622ECF208EDF208EEF208EFF22290025D03
:400A4000EDF0AB079002627402F0E4FFFEFDFCA312085EEB1208880A79010AA6020ACB030AF0040B15050B40060B8F070B6B080BB3090BD70A00000C0190025DE0FF7E005E
:400A80007C017D001208D21207B7EF24C0FFEE34FFFEED3410FDE43CFCA312085E9002627401F0020C0C90025DE0FF7E007C017D001208D2C374C39FFF74FF9EFE74109DBD
:400AC000FDE49CFCA312085E020C0C90025DE0FF7E007C017D001208D2C374C79FFF74FF9EFE74109DFDE49CFCA312085E020C0C90025DE0FF7E007C017D001208D2C37433
:400B0000CB9FFF74FF9EFE74109DFDE49CFCA312085E020C0C90025DE0FF7E007C017D001208D2C374D09FFF74FF9EFE74109DFDE49CFCA312085E9002627401F0020C0C60
:400B400090025DE0FF7E007C017D001208D2C374D19FFF74FF9EFE74109DFDE49CFCA312085E9002627401F0020C0C90025DE0FF7E007C017D001208D2C374D69FFF74FF16
:400B80009EFE74109DFDE49CFCA312085E807D90025DE0FF7E007C017D001208D2C374D29FFF74FF9EFE74109DFDE49CFCA312085E805990025DE0FF7E007C017D00120811
:400BC000D2C374D49FFF74FF9EFE74109DFDE49CFCA312085E803590025DE0FF7E007C017D001208D2C374D89FFF74FF9EFE74109DFDE49CFCA312085E9002627404F08082
:400C00000BE4FFFEFDFC90025E12085E900262E0B4011990025E120836A907AA06AB05121CF3E4FCFDFE90026312085E900262E06402705C90025E120836EF2401FFE43E91
:400C4000FEE43DFDE43CA907AA06AB05121CF3E4FCFDFE90026312085E900263120852C000C001C002C00390025E120836A907AA06AB05121CF3E4FCFDFE78081207E9D0BA
:400C800003D002D001D0001207AA90026312085E900262E064046003020D7D90025E120836EF2403FFE43EFEE43DFDE43CA907AA06AB05121CF3E4FCFDFE90026312085E37
:400CC000900263120852C000C001C002C00390025E120836EF2402FFE43EFEE43DFDE43CA907AA06AB05121CF3E4FCFDFE78081207E9D003D002D001D0001207AA9002634F
:400D000012085E900263120852C000C001C002C00390025E120836EF2401FFE43EFEE43DFDE43CA907AA06AB05121CF3E4FCFDFE78101207E9D003D002D001D0001207AA84
:400D400090026312085E900263120852C000C001C002C00390025E120836A907AA06AB05121CF3E4FCFDFE78181207E9D003D002D001D0001207AA90026312085E90026356
:400D8000120836228F44AD447F03120A3DEF2401FFE43EFEE43DFDE43CFCE4FB7A01F9F812068DC004C005C006C007AD447F04120A3DD003D002D001D0001206728F4C8EA9
:400DC0004B8D4A8C49C201E4F54DAD447F03120A3DEF2401FFE43EFEE43DFDE43CFCE4FB7A01F9F812068D8F488E478D468C45AF4CAE4BAD4AAC49AB48AA47A946A845C337
:400E00001207C55032854882854783E493F54E6005F46002D201E54E254DF54DAF48AE47AD46AC45E47B01FAF9F81206728F488E478D468C4580B8AD447F03120A3DEF2479
:400E400001FFE43EFEE43DFDE43CFCE4FB7A01F9F812068D78031207D68F488E478D468C45E47FC07EFFFDFCAB4CAA4BA94AA849C31207C57007FF7E20FDFC800DAF4CAE21
:400E80004BAD4AAC4978031207D68F4C8E4B8D4A8C49AF4CAE4BAD4AAC49AB48AA47A946A845C31207C55039E42548FFE43547FEE5463408FDE43545A907AA06AB05121CB9
:400EC000F3EF254DF54DAF48AE47AD46AC45E47B01FAF9F81206728F488E478D468C4580B1E54DF404F54DAD447F01120A3DA804A905AA06AB07AF4DE4FCFDFEC31207C5CC
:400F000070032001037F06227F002290025EECF0A3EDF0A312087390025DEFF0E4900265F0EFD3943F500E90025DE0940140069002657401F090025DE0FFD3947F4006903A
:400F400002657401F0EFC39440400CEFD3944140069002657401F0EFD3943F501E90025EE0FEA3E0FFE4FCFDFB7A01F9F8C31207C5502F9002657401F08027D390025FE03C
:400F8000948090025EE0940040069002657401F0900263E07004A3E0641060069002657401F090026012086AE94A4B700590026504F0900265E0600302108A121EFEEF606E
:400FC0000302108490025EE0FCA3E0FDA312086A900263E0FFA3E090026CCFF0A3EFF090025DE0FF1211DE900265EFF06407600302107F904722E0540270087F01FE121EF6
:401000006480F0904722E054026009E0FF1313543FFF80027FFFEF7006900265F0800690026574FFF0900265E0705490025DE0FFA3E0FCA3E0FD900353E0FBA3E090026AD9
:40104000F0121A90900265EFF064077032904722E0540270087F01FE121E6480F0904722E054026009E0FF1313543FFF80027FFFEF7006900265F0800690026574FFF0124B
:40108000205180069002657404F0900265E0FF227B007A4679E8121CF3EF4401FD7B007A4679E8122045E4F52CE52CC3940A502CE52C75F005A42461F582E43424AF82F571
:4010C000218F22F58312087C8F82852183740393FC740493FD121F6E052C80CDE4F52CE52CC394015046E52C75F007A42413F582E43425AF82F5238F24F58312087C8B25E1
:401100008A2689278F82852383740393FE7404938E28F529740593F52A740693F52BAD29AC28FFAE2A121EB8052C80B37E207F92121DD97B017A507903121CF3EF4402FD3B
:401140007B017A5079031220457B017A507913121CF3EF4402FD7B017A5079131220459043A0E04440F09043C2E04410F07C207D827B007A5179127F087E00121EB87C2053
:401180007D8A7B007A5179227F087E00121EB89044F47401F0904322E04408F09046ECE0C394055006904689743AF090480074F1F012150690480074B1F0121F1D7B007A41
:4011C0004379A0C00179B0900005120873D0017F0E7E00121D749043B0E054FDF022900266EFF0A3ECF0A3EDF0A312087390026E7407F0904722E0540270030212EE904756
:401200002074B6F074D5F07402F0904722E0540260030212E6900266E0904720F0E490026FF0A3F090026CE0FEA3E0FF90026FE0FCA3E0FDC39FEC9E501F90026912086A8D
:40124000E92DF9EA3CFA1205AF904720F090026FE475F0011205DA80CB90026CE064017002A3E060030212F4900266E0FFD3943F40030212F47E007C207D001208D2E42F0A
:40128000FFE43EFEED3408FDE43CFCC004A905AA06AB07A3E0FEA3E0FF7C007D201208D2D00012067290027112085EE490026FF0A3F090026FE0FEA3E0FFC39420EE94005A
:4012C0005032E4FCFDA3120852120672A907AA06AB05121CF3904720EFF090026FE475F0011205DA80CC90026E7409F0800690026E7404F090026EE0FF228B448A4589469E
:401300008C478D48755505E4F54DF54EE54C75F00AA4FFC3E54E9FE54D95F0503B121B34EF6022121B347553008F54E47F19FEFDFC1218C7121B34D3EF9554E4955350E366
:40134000E4F5558013E47F01FEFDFC1218C7054EE54E7002054D80B4AB49AA4AA94BE4F5F0120653E4F54FF550121B34EFD394005003021412121B347551008F52AB49AA8D
:401380004AA94BE5518552F012061BAB49AA4AA94B1205F0C39548E5F09547505FE4F54DF54EC3E54E9552E54D95515025121C1CAB44E5462550F9E545354FFAEF1205C8C1
:4013C0000550E5507002054F054EE54E7002054D80D0AB44E55024FFFFE54F34FFFEE5462FF9E5453EFA1205AF64177003021369E47F05FEFDFC1218C7021369AB49AA4ABB
:40140000A94B1205F0C39552FFE5F095518FF0120653AF552275930078007583467582E8E04401F0009046ECE0F99046FAE0FA90034BF0B903225420B40012B8001AEA9014
:401440001FFFF07401901FFEF09046F6F0901FFEE06005901FFFE0FA90480074C0F0758156121EDE90000078007920E4F0A3D8FCD9FAEA90034BF002001175081F7509FD1F
:401480001210900214C1022079E493A3F8E493A34003F68001F208DFF48029E493A3F85407240CC8C333C4540F4420C8834004F456800146F6DFE4800B0102040810204063
:4014C00080901B83E47E019360BCA3FF543F30E509541FFEE493A360010ECF54C025E060A840B8E493A3FAE493A3F8E493A3C8C582C8CAC583CAF0A3C8C582C8CAC583CABE
:40150000DFE9DEE780BE7B007A4079807D337C001220279040827418F09043007402F09040007408F09042007403F07B0C7A017908121CF39046A1EFF07B007A4279227D68
:40154000087C001220277B007A4279207D517C12122027E4900004F07F19FEFDFC90000012085E900000120836D3EF9400EE9400403B900004E0FF64036032904225E05440
:4015800001FEEF25E04E5403900004F0E47FE07E01FDFC121D0090000012083674FFFBFAF9F812067290000012085E80B6900000120836EF4E70057F0312207F7B007A402A
:4015C00079047D007C011220279040047407F0904006E4F09040087448F0904004E4F09040017402F09043A2E04401F0228B458A46894774011205C8AB452547F9E43546AB
:40160000FAEF1205C8E549AB45E5472402F9E43546FAE5491205C8E548FFAB45E5472403F9E43546FAEF1205C8AB45AA46A947E5492404FDE43548FC121C668E4A8F4BEFCF
:40164000AB45E5492404FDE43548FCE5472DF9E5463CFAEF1205C8E54AFFAB45E5492405FDE43548FCE5472DF9E5463CFAEF1205C8AB45E5492406FFE43548FEE5472FF9FF
:40168000E5463EFA74171205C8E5492407FDE43548FC755100755200755348755496AB45AA46A947121BD122C0E0C083C082C085C084C086758600C093759300C0D075D09F
:4016C00000C001C002C003C006C007E4FBA2AF33FAD2AF9044F474FDF090646CE0FFFE541EF960069002FDE049F0EF30E54590644AE0FE9002F9E02478F582E43402F583E5
:40170000EEF07B01EB602C900276E060069002FC7401F09002F9E004F0E0C394404002E4F0900277E0FE9002F9E0B506069002767401F0EF20E5A2AF02EA24FF92AFD007BF
:40174000D006D003D002D001D0D0D093D086D084D085D082D083D0E032752106E4FF120D84EF7002F521E4F54BF54AF549F548900357E0FEA3E0F5828E831208428F4F8E82
:401780004E8D4D8C4CE4FFFE7D10FC12192C900355E0FCA3E0F5828C83E493FEC3EF9EFFF404FFB50612900357E0FEA3E0F5828E83120842EF4E70057F00121FB79046FAFB
:4017C000E054C064406004E52160099046FAE4F0FF12001A12205D22C0E0C083C082C085C084C086758600C093759300C0D075D000C006C007A2AFE433FFD2AF9044F4742E
:40180000FDF09002FAE0FE9002B8E06E602C90646EE020E2259002B8E0C394404002E4F09002B8E024B9F582E43402F583E090644DF09002B8E004F080C8EF24FF92AFD043
:4018400007D006D0D0D093D086D084D085D082D083D0E032A9079002FAE0FF9002B8E0FEEFC39E501AEE24FFFDE434FFFCEF7A00B50508EAB504047D0180027D00800CC346
:40188000EF9EB43F047D0180027D00ED70C8EEB5070D90646EE020E20690644DE9F022EFC394404002E4FF74B92FF582E43402F583E9F00F9002FAEFF090646EE030E10609
:4018C0009044D07402F02290FFFC1208AE12085E850883850982120836D3EF9400EE9480402E90034C120836121D00850883850982C083C082120836E42FFFEE3480FEEDC9
:4019000034FFFDEC34FFFCD082D08312085E80C090034212083685088385098212085212068D121D009000041208AE228F478E468D458C44E4F550D3E54F9400E54E940025
:40194000404BAF4FAE4EAD4DAC4C74FFFBFAF9F81206728F4F8E4E8D4D8C4CE547254BFFE546354AFEE5453549FDE5443548FCEF254FFFEE354EFEED354DFDEC354CA907BD
:40198000AA06AB051205AF2550F55080AAAF5022121FE190025E74FFF0121EFEEF703B7F01121E35EF6407702C7B017A0379537D021219E6EFB40215E490025EF090472228
:4019C000E0540270107F01FE121E6480F0904722E0540260D4122051800690025E7404F090025EE0FF2290025F120873900262EDF0E4A3F0900262E0FFA3E0C39F50379065
:401A00004722E054016003D38001C340097F017E00121E6480E9904720E0FF90025F12086A900263E029F9E43AFAEF1205C8900263E004F080BE900263E0FF2290025EEC49
:401A4000F0A3EDF090025DEFF0541F25E0FFE433FEE42FFFEE3444FAA9077B0112201A900260EEF0A3EFF090025DE075F002A42400FFE5F03444FAA9077B01A3E0FEA3E0EC
:401A8000FFFDAC06122029900260E0FEA3E0FF22900267ECF0A3EDF0AC077D07904722E05402603B90472074B6F074D8F07405F0904722E054027023904720ECF09002670F
:401AC000E0904720F0900267E0A3E0904720F0EBF090026AE0904720F080067D0980027D04AF0522121FE1121EFEEF703B121F3A90025EEFF06407702A904722E0540270A1
:401B0000087F01FE121E6480F0904722E054026009E0FF1313543FFF80027FFFEF700490025EF0122051800690025E7404F090025EE0FF229044C87401F09002F9E0FE905D
:401B40000277E0B5060E900276E060047F40802CE4FF80289002F9E0FE900277E0C39E500BE0FE9002F9E0C39EFF8010900277E0FEC374409EFE9002F9E02EFF9044C07420
:401B800001F022420355251A420357251B430350000000440347016E360044034200005DC04103461844034C2EE000004102FB004102B8004102FA004102FD00410277003B
:401BC0004102F900410276004102FC0041035B00008B4C8A4D894E8C4F8D50E4F555F556121E07C3E5569550E555954F501DAB4CE54E2556F9E54D3555FA1205AFFF121874
:401C0000540556E5567002055580D8AB51AA52A953E54F8550F01206537F00229044C87401F0900277E0FE9002F9E0FD900276E07004EE6D602474782EF582E43402F583EF
:401C4000E0FF0EEEC394404002E4FE900277EEF0900276E06009E4F0800590644AE0FF9044C07401F0228B4C8A4D894EE4F54FF550D3ED9400EC94004025AB4CED24FFFFD4
:401C8000EC34FFFEE54E2FF9E54D3EFA1205AF2550F550E4354FF54FED1D70011C80D2E550F4FFE54FF4FEEF2401FFE43EFE227C167DA8E4FF121A3C7D07E4FF121F55E4B7
:401CC0009002FDF090648A7469F090648C7420F07C177DD87F01121A3C7D077F01121F5590642E7406F090643E7447F090648E7402F0228B938A838982E0759300FF22000A
:401D0000EC4D4E700D78FCEF24E950032840FD2200007BF178DA0000EF28FF78FFEE38FEED38FDEC38FC50E7EF2BFFEE38FEED38FDEC38FC40F22205020304121FCC9002FD
:401D40005DEFF090649AE04420F090649CE04410F09044C07401F090649EE04410F09044D87402F09044C0F012203690025DE0FF121F9F22758600EF4E6027EF60010E75B2
:401D80009300900005E0F595A3E0F585A3E0F5848B938A838982E0A30586F0A31586DFF6DEF4E4F593F59522121FCC9043A0E04408F09043B0E04408F090470174C8F090A8
:401DC00043ACE04410F09043BCE04410F0904700E0542060F8121F9F22ACEAADA08E838F82E493F9601CA3E493F5EAA3E493F5A0A3E49360F1FAA3E493F8A3E493F2DAF6BC
:401E0000D9E48DA08CEA22121FCC90649AE04401F0E054FEF0121F9F9044C87401F0E4900277F09002F9F0900276F09002FCF09044C004F0227E07904722E05402601F9052
:401E4000472074B6F074E1F0740EF0904722E054027007904720EFF080067E0980027E04AF062200EEFA900346E0F88FF0A4FFAEF0E88AF0A42EFEE5F03400FDEF24C9FF5A
:401E800078FFEE38FEED38FDE438FC5003021D0022121FCC90649DE04401F0E054FEF0121F9F9044C87402F0E49002B8F09002FAF09044C07402F022758600EF4E601BEFCA
:401EC00060010E8C838D828B958A858984E493A30586F0A31586DFF5DEF3E4F595229046FAE054C064807015F0FD7F02120A3DEF4E600AE4FD7F02120A3D122009229002CC
:401F0000667404F0121FCC90035BE0700704F0E4900266F0121F9F900266E0FF227B0C7A0179CF121CF3EF540790586EF0EFC4540FA3F09058767444F0227F07904722E0DD
:401F40005402600E90472074B6F074E0F0740DF080027F0422AC07ED540775F020A4FFEC541F2480F582E43444F583EFF022EC4D6011ED60010C8B938A838982E4F0A3DDB0
:401F8000FCDCFA75930022121AE490025DEFF0700812199090025DEFF090025DE0FF22EF54016004D2AF8002C2AFEF5402FF9044F4E054FD4FF02290FFFF1208AEEFF090D7
:401FC00046EA7401F09000011208AE229044F4E0F84402F0E85402FF10AF012274014FFF22121FCC9043A0E04408F09043B0E04408F0121F9F229002FBE07009121CAF9087
:4020000002FB7401F0121D3B2290034BE0FA8E838F827400758101738B938A838982E0FFA3E0FE759300228B938A838982EDF0A3ECF0759300229043A2E04401F09043B26F
:40204000E04401F0228B938A838982EDF075930022121FCCE490035BF0121F9F229046FA7480F012207122121FF6121E07121E91229046F6E04401F02212175980FE2280DC
:40208000FE22007F7B007B00000030D8C800D800000016005205082309121098118814200064047E3F8A698C3A8E0F010101E204010301E6020105028702E008010604B82E
:4020C00002BE01D804DF010107021B02A702010A088501890195019901B101BF01D904DF01010B4F00400106038808010A040B111028130219641A041B0A202021082230E9
:40210000274028282A022B022E033080310232103304340836203708382239803A083C283E084028410843824A024B0152045B4068286A016B027090712072108D408E104D
:402140008F809042910493109621980199029B0C9D649E049F80A004A102A202A490A520A702AB01B021B405B602B744C00FC20FC40ECA0FCC6FCE6FD00FD208D608E0083A
:40218000E801010C4C0001021608E70A180E3F101E120114C6163918481C88208824DD262228232ADC2CC8301F320834E03A22541A560458045B045F018008824284F88698
:4021C000018704880F89028AF08D068EC792849308943996C698109C20A020A101A43FA6C0A906AA08AC30B031B106B308B501B6FFB702B982BE40BF11C062C101C5E0C6DA
:40220000CBC80EC9FFCAFFCBFFCEF0CF44D00CD804D904DA04DF01E6C0EA40EB02010D46002901100210030B04010709080209260A310D220E11108012481388151016502C
:402240001780180219021C081D021E201F20200421012208230128402920320238C839A43A083B10414042084921502053405E205F026540674887409088912093089502C2
:40228000978098409B4A9C029D259E049F04A420A504A72AB001B301C0DFC2FFC4FFCA05CC01CE0ED00CD204D6A0D8B0010E4E040906D007230B080C0C0D210E710F0E1048
:4022C00014141016AC170C18DC1A221B201E0321102410264029212A202B062D0C2F2330E03310350F361F37203A023B203F444004464049FF4A074BFF4C404D204EF04F8A
:4023000005500854015604580459045A045B045F01604061A862406320871F89198B0691019304950997029A01A506A719A919AA01AB06AF0FB201B310B507B708B908BB65
:4023400020BE04D804D904DB04DF01010F3C004404040504084809200A010B800E0810081210160418C01A011F042130224425102604270A280829212A802F2A303031047A
:402380003402370438883A103D284101500C5210581059015A886380680169046A206B406F0171407304821083408550868089048B04C005C24FC446CA7DCCC6CE6ED00101
:4023C000D60FD801E40C014005322035808180CC30E2200141038620A620E6400144058301870188C0E004E40401450F0C0857025B046401660193029889A040A301B009C2
:40240000C204D607D801E801EC0401460D8702900893029888A040A301A702AB04B40CB601E808EC02EE08014705900893029888A040A301014C0E5004544057015808607D
:40244000806702900893029888A040A301D406D607D80201500300010C010E01015101000F005100001000513000400051C000100051F000100100000A00010A800580018E
:40248000140008000140000A00014C000200015000002000008080207D050000040800130C0400030204200A031410130C0C7300088000400800004043003C404F003000DE
:4024C0000000734000303F0FC0800008002028000040003402010005C0000E12FFFFFF62A0F0410C00000000000210040404040000000100000000000040020010301000CE
:4025000010101200000000000000000000000000000000010A002493008061000026006930091E031E010100000000000000000000000000000000000000000000000000BD
:40254000000000000000000000000000000000000000000000000000000000000000000000000000000000000000000000000000000000000000000000000000000000005B
:40258000000000000000000000000000000000000000000000000000000000000000000000000000000000000000000000000000000000000000000000000000000000001B
:4025C00000000000000000000000000000000000000000000000000000000000000000000000000000000000000000000000000000000000000000000000000000000000DB
:4026000002C8CB008F828E83E0540100000070F82278FFE4F6D8FD02C959900002EEF0A3EFF078047C007D017BFF7A4C79DE7E077F6D12895C9007717407F0A3746DF07814
:40264000787C077D017BFF7A54794B7E007F0F12895C78877C077D017BFF7A54795A7E007F1C12895C78A37C077D017BFF7A5479767E007F1B12895C78BE7C077D017BFF94
:402680007A5479917E007F1C12895C78DA7C077D017BFF7A5479AD7E007F2212895C78FC7C077D017BFF7A5479CF7E007F2712895C78237C087D017BFF7A5479F67E007FEA
:4026C0001112895C78347C087D017BFF7A5579077E007F1912895C784D7C087D017BFF7A5579207E007F1112895C785E7C087D017BFF7A5579317E007F1C12895C787A7C57
:40270000087D017BFF7A55794D7E007F1D12895C78977C087D017BFF7A55796A7E007F1B12895C78B27C087D017BFF7A5579857E007F1412895C78C67C087D017BFF7A55A3
:4027400079997E007F2512895C78EB7C087D017BFF7A5579BE7E007F1512895C78007C097D017BFF7A5579D37E007F1512895C78157C097D017BFF7A5579E87E007F1412CA
:40278000895C78297C097D017BFF7A5579FC7E007F2412895C784D7C097D017BFF7A5679207E007F1912895C78667C097D017BFF7A5679397E007F1812895C787E7C097D21
:4027C000017BFF7A5679517E007F1412895C78927C097D017BFF7A5679657E007F2412895C78B67C097D017BFF7A5679897E007F2312895C78D97C097D017BFF7A5679AC18
:402800007E007F1512895C78EE7C097D017BFF7A5679C17E007F1D12895C780B7C0A7D017BFF7A5679DE7E007F1812895C78237C0A7D017BFF7A5679F67E007F1912895CF8
:40284000783C7C0A7D017BFF7A57790F7E007F2512895C78617C0A7D017BFF7A5779347E007F6312895C78C47C0A7D017BFF7A5779977E007F4012895C78047C0B7D017BBD
:40288000FF7A5779D77E007F2A12895C7B017A07797812EE788F2C7B017A07798712EE788F2D7B017A0779A312EE788F2E7B017A08792312EE788F2F7B017A08793412EEBF
:4028C000788F307B017A08794D12EE788F317B017A08797A12EE788F327B017A08799712EE788F337B017A0879B212EE788F347B017A0879EB12EE788F357B017A097900B9
:4029000012EE788F367B017A09791512EE788F377B017A09794D12EE788F387B017A0979D912EE788F397B017A0A796112EE788F3A7B017A0A79C412EE788F3B7B017A0B5F
:40294000790412EE788F3C7B017A09797E12EE788F3D7B017A09799212EE788F3E7B017A0979B612EE788F3F7B017A0A793C12EE788F40900004740CF0A3741CF0900002E5
:40298000E0FEA3E0FFEE6003023FC8EFB41D004003023FC890299BF82828730229F20239FC023A05023B01023BCE023BE1023BEA023BF3023C1E023C9C023CD9023CE20280
:4029C0003DB8023E3E023E4E023E57023E76023E9F023EA8023EBF023EC8023ED1023F03023F41023F56023F90023F99023FA2023FB09000067402F0A314F0900B38E090E8
:402A00000008F0852C2AE52A6032FFC3E52C9FFFE49400FE74782FF58274073EF583E0FFE52AFDE52CC39DFDE49400FC74092DF58274003CF583EFF0152A80CA90003874BE
:402A400007F0A37403F0900B6BE064036068900B39E0FCA3E0FDA3E0FEA3E0FFEC1282E4E4FBFA798078471281CE90003A1287FD900B3DE0FCA3E0FDA3E0FEA3E0FFEC1222
:402A800082E4E4FBFA798078471281CE90003E1287FD900B41E0FCA3E0FDA3E0FEA3E0FFEC1282E4E4FBFA798078471281CE9000421287FD8063900B51E0FCA3E0FDA3E0B3
:402AC000FEA3E0FFEC1282E4E4FBFAF978461281CE90003A1287FD900B55E0FCA3E0FDA3E0FEA3E0FFEC1282E4E4FBFAF978461281CE90003E1287FD900B59E0FCA3E0FD49
:402B0000A3E0FEA3E0FFEC1282E4E4FBFAF978461281CE9000421287FD852D2AE52A6032FFC3E52D9FFFE49400FE74872FF58274073EF583E0FFE52AFDE52DC39DFDE494CC
:402B400000FC74462DF58274003CF583EFF0152A80CA90006A7407F0A37403F0900B6BE064036068900B45E0FCA3E0FDA3E0FEA3E0FFEC1282E4E4FBFA798078471281CE52
:402B800090006C1287FD900B49E0FCA3E0FDA3E0FEA3E0FFEC1282E4E4FBFA798078471281CE9000701287FD900B4DE0FCA3E0FDA3E0FEA3E0FFEC1282E4E4FBFA7980785F
:402BC000471281CE9000741287FD8063900B5DE0FCA3E0FDA3E0FEA3E0FFEC1282E4E4FBFAF978461281CE90006C1287FD900B61E0FCA3E0FDA3E0FEA3E0FFEC1282E4E4CF
:402C0000FBFAF978461281CE9000701287FD900B65E0FCA3E0FDA3E0FEA3E0FFEC1282E4E4FBFAF978461281CE9000741287FD852E2AE52A6032FFC3E52E9FFFE49400FE3C
:402C400074A32FF58274073EF583E0FFE52AFDE52EC39DFDE49400FC74782DF58274003CF583EFF0152A80CAE490009CF0A304F0900B69E090009EF0900B69601C900B3192
:402C800074FFF0A3743FF0A374C9F07B017A0779BE12E053752B1C801A900B3174FFF0A3743FF0A374CFF07B017A0779BE12E053752B1B852B2AE52A6032FFC3E52B9FFF62
:402CC000E49400FE74BE2FF58274073EF583E0FFE52AFDE52BC39DFDE49400FC749F2DF58274003CF583EFF0152A80CA749F252BF582E43400F5837403F0E49000CEF0A39C
:402D000004F0900B6AE09000D0F0900B6A14603314604C14606514607E147003022DB324056003022DCD900B3174FFF0A3743FF0A374D4F07B017A0779DA12E053752B14A9
:402D4000022DCD900B3174FFF0A3743FF0A374DAF07B017A0779DA12E053752B17806E900B3174FFF0A3743FF0A374E3F07B017A0779DA12E053752B218052900B3174FF01
:402D8000F0A3743FF0A374F6F07B017A0779DA12E053752B1D8036900B3174FFF0A37440F0A37405F07B017A0779DA12E053752B19801A900B3174FFF0A37440F0A37410D1
:402DC000F07B017A0779DA12E053752B22852B2AE52A6032FFC3E52B9FFFE49400FE74DA2FF58274073EF583E0FFE52AFDE52BC39DFDE49400FC74D12DF58274003CF58329
:402E0000EFF0152A80CA74D1252BF582E43400F5837401F0E4900100F0A304F0900B6BE0900102F0900B6B14602614603F1460582403706E900B3174FFF0A37440F0A37413
:402E400024F07B017A0779FC12E053752B1B8052900B3174FFF0A37440F0A3742FF07B017A0779FC12E053752B168036900B3174FFF0A37440F0A37435F07B017A0779FC07
:402E800012E053752B1A801A900B3174FFF0A37440F0A3743FF07B017A0779FC12E053752B27852B2AE52A6032FFC3E52B9FFFE49400FE74FC2FF58274073EF583E0FFE5D3
:402EC0002AFDE52BC39DFDE49400FC74032DF58274013CF583EFF0152A80CA7403252BF582E43401F5837402F0900132F0A304F0E4F52AE52AC39403501E746C252AF5821F
:402F0000E4340BF583E0FF7434252AF582E43401F583EFF0052A80DB852F2AE52A6032FFC3E52F9FFFE49400FE74232FF58274083EF583E0FFE52AFDE52FC39DFDE4940003
:402F4000FC74372DF58274013CF583EFF0152A80CA9001647403F0A3F0E4F52AE52AC394035044E52A25E025E0246FF582E4340BF583E0FCA3E0FDA3E0FEA3E0FF746C2564
:402F80002AF582E4340BF583E0F9F812879C75F002E52AA42466F582E5F03401F583EEF0A3EFF0052A80B585302AE52A6032FFC3E5309FFFE49400FE74342FF58274083EFB
:402FC000F583E0FFE52AFDE530C39DFDE49400FC746C2DF58274013CF583EFF0152A80CA9001967407F0A37403F0E4F52AE52AC394035031E52A25E025E0247BF582E434A3
:403000000BF583E0FCA3E0FDA3E0FEA3E0FF75F004E52AA42498F582E5F03401F5831287FD052A80C885312AE52A6032FFC3E5319FFFE49400FE744D2FF58274083EF583CA
:40304000E0FFE52AFDE531C39DFDE49400FC74A42DF58274013CF583EFF0152A80CAE49001C8F0A304F0900B87E09001CAF0900B87601C900B3174FFF0A3743FF0A374C92D
:40308000F07B017A08795E12E053752B1C801A900B3174FFF0A3743FF0A374CFF07B017A08795E12E053752B1B852B2AE52A6032FFC3E52B9FFFE49400FE745E2FF5827443
:4030C000083EF583E0FFE52AFDE52BC39DFDE49400FC74CB2DF58274013CF583EFF0152A80CA74CB252BF582E43401F5837403F09001FA7405F0A37402F0E4F52AE52AC302
:4031000094014003023188E52A25E025E02488F582E4340BF583E0FCA3E0FDA3E0FEA3E0FF746C252AF582E4340BF583E0F9F812879C75F008E52AA424FCF582E5F03401BE
:40314000F5831287FDE52A25E025E02490F582E4340BF583E0FCA3E0FDA3E0FEA3E0FF746C252AF582E4340BF583E0F9F812879C75F008E52AA42400F582E5F03402F5837E
:403180001287FD052A0230FD85322AE52A6032FFC3E5329FFFE49400FE747A2FF58274083EF583E0FFE52AFDE532C39DFDE49400FC74042DF58274023CF583EFF0152A802F
:4031C000CA90022C7405F0A37402F0900B9CE0FCA3E0FDA3E0FEA3E0FF90022E1287FD900B98E0FCA3E0FDA3E0FEA3E0FF9002321287FD85332AE52A6032FFC3E5339FFF02
:40320000E49400FE74972FF58274083EF583E0FFE52AFDE533C39DFDE49400FC74362DF58274023CF583EFF0152A80CA90025E7403F0A37401F0900BA0E0FFA3E090026093
:40324000CFF0A3EFF085342AE52A6032FFC3E5349FFFE49400FE74B22FF58274083EF583E0FFE52AFDE534C39DFDE49400FC74622DF58274023CF583EFF0152A80CAE49047
:403280000290F0A304F0900BA6E0900292F0900BA6601C900B3174FFF0A3743FF0A374C9F07B017A0879C612E053752B25801A900B3174FFF0A3743FF0A374CFF07B017A9C
:4032C0000879C612E053752B24852B2AE52A6032FFC3E52B9FFFE49400FE74C62FF58274083EF583E0FFE52AFDE52BC39DFDE49400FC74932DF58274023CF583EFF0152A4C
:4033000080CA7493252BF582E43402F5837403F09002C204F0A37402F0900BA2E0FFA3E09002C4CFF0A3EFF0900BA4E0FFA3E09002C6CFF0A3EFF085352AE52A6032FFC374
:40334000E5359FFFE49400FE74EB2FF58274083EF583E0FFE52AFDE535C39DFDE49400FC74C82DF58274023CF583EFF0152A80CA9002F47406F0A37402F0900BA7E0FCA3E6
:40338000E0FDA3E0FEA3E0FF9002F61287FD900BABE0FCA3E0FDA3E0FEA3E0FF9002FA1287FD85362AE52A6032FFC3E5369FFFE49400FE74002FF58274093EF583E0FFE5C0
:4033C0002AFDE536C39DFDE49400FC74FE2DF58274023CF583EFF0152A80CA9003267402F0A314F0900BAFE0900328F085372AE52A6032FFC3E5379FFFE49400FE74152F46
:40340000F58274093EF583E0FFE52AFDE537C39DFDE49400FC74292DF58274033CF583EFF0152A80CAE4900358F0A304F0900BB0E090035AF0900BB0601C900B3174FFF0E2
:40344000A3743FF0A374C9F07B017A09792912E053752B24801A900B3174FFF0A3743FF0A374CFF07B017A09792912E053752B23852B2AE52A6032FFC3E52B9FFFE494009B
:40348000FE74292FF58274093EF583E0FFE52AFDE52BC39DFDE49400FC745B2DF58274033CF583EFF0152A80CA745B252BF582E43403F5837403F090038A7401F0A3F09091
:4034C0000BB1E090038CF085382AE52A6032FFC3E5389FFFE49400FE744D2FF58274093EF583E0FFE52AFDE538C39DFDE49400FC748D2DF58274033CF583EFF0152A80CAFB
:40350000E49003BCF0A304F0900BB2E09003BEF0900BB2601C900B3174FFF0A3743FF0A374C9F07B017A09796612E053752B18801A900B3174FFF0A3743FF0A374CFF07B1A
:40354000017A09796612E053752B17852B2AE52A6032FFC3E52B9FFFE49400FE74662FF58274093EF583E0FFE52AFDE52BC39DFDE49400FC74BF2DF58274033CF583EFF02B
:40358000152A80CA74BF252BF582E43403F5837403F09003EE7405F0A37401F0900BCDE0FCA3E0FDA3E0FEA3E0FF900B6CE0F9F812879C9003F01287FD853D2AE52A603222
:4035C000FFC3E53D9FFFE49400FE747E2FF58274093EF583E0FFE52AFDE53DC39DFDE49400FC74F42DF58274033CF583EFF0152A80CA9004207405F0A37401F0900BD1E01A
:40360000FCA3E0FDA3E0FEA3E0FF9004221287FD853E2AE52A6032FFC3E53E9FFFE49400FE74922FF58274093EF583E0FFE52AFDE53EC39DFDE49400FC74262DF5827404C4
:403640003CF583EFF0152A80CA9004527405F0A37401F0900BD5E0FCA3E0FDA3E0FEA3E0FF9004541287FD853F2AE52A6032FFC3E53F9FFFE49400FE74B62FF58274093E76
:40368000F583E0FFE52AFDE53FC39DFDE49400FC74582DF58274043CF583EFF0152A80CA9004847407F0A314F0E4F52AE52AC394065031E52A25E025E024B3F582E4340B0A
:4036C000F583E0FCA3E0FDA3E0FEA3E0FF75F004E52AA42486F582E5F03404F5831287FD052A80C885392AE52A6032FFC3E5399FFFE49400FE74D92FF58274093EF583E0A1
:40370000FFE52AFDE539C39DFDE49400FC749E2DF58274043CF583EFF0152A80CAE49004B6F0A304F0900BDDE09004B8F0900BDD601C900B3174FFF0A3743FF0A374C9F0C3
:403740007B017A0979EE12E053752B1D801A900B3174FFF0A3743FF0A374CFF07B017A0979EE12E053752B1C852B2AE52A6032FFC3E52B9FFFE49400FE74EE2FF5827409AF
:403780003EF583E0FFE52AFDE52BC39DFDE49400FC74B92DF58274043CF583EFF0152A80CA74B9252BF582E43404F5837403F0E49004E8F0A304F0900BDCE09004EAF090F7
:4037C0000BDC601C900B3174FFF0A3743FF0A374C9F07B017A0A790B12E053752B18801A900B3174FFF0A3743FF0A374CFF07B017A0A790B12E053752B17852B2AE52A60F2
:4038000032FFC3E52B9FFFE49400FE740B2FF582740A3EF583E0FFE52AFDE52BC39DFDE49400FC74EB2DF58274043CF583EFF0152A80CA74EB252BF582E43404F583740383
:40384000F0E490051AF0A304F0A3F0900B3174FFF0A3743FF0A374CFF07B017A0A792312E053752B18852B2AE52A6032FFC3E52B9FFFE49400FE74232FF582740A3EF583F5
:40388000E0FFE52AFDE52BC39DFDE49400FC741D2DF58274053CF583EFF0152A80CA741D252BF582E43405F5837403F090054C14F0A304F0900BD9E0FF744E252AF582E4E3
:4038C0003405F583EFF0900BDAE0FF744F252AF582E43405F583EFF0900BDBE0FF7450252AF582E43405F583EFF085402AE52A6032FFC3E5409FFFE49400FE743C2FF582B3
:40390000740A3EF583E0FFE52AFDE540C39DFDE49400FC74512DF58274053CF583EFF0152A80CA853A2AE52A6032FFC3E53A9FFFE49400FE74612FF582740A3EF583E0FF67
:40394000E52AFDE53AC39DFDE49400FC747E2DF58274053CF583EFF0152A80CA853B2AE52A6032FFC3E53B9FFFE49400FE74C42FF582740A3EF583E0FFE52AFDE53BC39D22
:40398000FDE49400FC74142DF58274063CF583EFF0152A80CA853C2AE52A6032FFC3E53C9FFFE49400FE74042FF582740B3EF583E0FFE52AFDE53CC39DFDE49400FC74AA03
:4039C0002DF58274063CF583EFF0152A80CA7B017A007904900771E0A3E014FD12E9AC900771E0FCA3E0FD2403F58274003CF583EFF07B017A00790412D4A822900DB9E095
:403A0000900C55F022900B6BE064036064E4FFFE7D807C47900DB9E0F8A3E0F9A3E0FAA3E0FB1280C5128322900C561287FDE4FFFE7D807C47900DBDE0F8A3E0F9A3E0FACA
:403A4000A3E0FB1280C5128322900C5A1287FDE4FFFE7D807C47900DC1E0F8A3E0F9A3E0FAA3E0FB1280C5128322900C5E1287FD22E4FFFEFD7C46900DB9E0F8A3E0F9A333
:403A8000E0FAA3E0FB1280C5128322900C6E1287FDE4FFFEFD7C46900DBDE0F8A3E0F9A3E0FAA3E0FB1280C5128322900C721287FDE4FFFEFD7C46900DC1E0F8A3E0F9A310
:403AC000E0FAA3E0FB1280C5128322900C761287FD900C6EE0FCA3E0FDA3E0FEA3E0FFEC1282E47B9A7A997999784512826B4003023FC8E47F337E13FDFC900C6E1287FDE9
:403B000022900B6BE064036064E4FFFE7D807C47900DB9E0F8A3E0F9A3E0FAA3E0FB1280C5128322900C621287FDE4FFFE7D807C47900DBDE0F8A3E0F9A3E0FAA3E0FB120E
:403B400080C5128322900C661287FDE4FFFE7D807C47900DC1E0F8A3E0F9A3E0FAA3E0FB1280C5128322900C6A1287FD22E4FFFEFD7C46900DB9E0F8A3E0F9A3E0FAA3E04D
:403B8000FB1280C5128322900C7A1287FDE4FFFEFD7C46900DBDE0F8A3E0F9A3E0FAA3E0FB1280C5128322900C7E1287FDE4FFFEFD7C46900DC1E0F8A3E0F9A3E0FAA3E0F7
:403BC000FB1280C5128322900C821287FD22900DB9E06007900C867403F022E4900C86F022900DB9E0900C87F022900DB9E0900C88F022E4F52AE52AC394034003023FC8F7
:403C000074B9252AF582E4340DF583E0FF7489252AF582E4340CF583EFF0052A80D8E4F52AE52AC394035071E52A25E024B9F582E4340DF583E0FEA3E0FFEE3395E0FDFC2F
:403C4000E52A25E025E0248CF582E4340CF5831287FDE52A25E025E0248CF582E4340CF583C083C082E0FCA3E0FDA3E0FEA3E0FF7489252AF582E4340CF583E0F9F8128749
:403C8000B0D082D0831287FD7489252AF582E4340EF583E4F0052A8088D20B22E4F52AE52AC394034003023FC8E52A25E025E024B9F582E4340DF583E0FCA3E0FDA3E0FE0F
:403CC000A3E0FFE52A25E025E02498F582E4340CF5831287FD052A80C6900DB9E0900CA4F022E4F52AE52AC394024003023FC8E52A75F008A424B9F582E4340DF583E0FC23
:403D0000A3E0FDA3E0FEA3E0FFE52A25E025E024A5F582E4340CF5831287FDE52A75F008A424BDF582E4340DF583E0FCA3E0FDA3E0FEA3E0FFE52A25E025E024ADF582E4BC
:403D4000340CF5831287FDE52A25E025E024A5F582E4340CF583C083C082E0FCA3E0FDA3E0FEA3E0FF7489252AF582E4340CF583E0F9F81287B0D082D0831287FDE52A2534
:403D8000E025E024ADF582E4340CF583C083C082E0FCA3E0FDA3E0FEA3E0FF7489252AF582E4340CF583E0F9F81287B0D082D0831287FD052A023CE5900DB9E0FCA3E0FD9E
:403DC000A3E0FEA3E0FF9007731287FDE4FFFEFDFC900773E0F8A3E0F9A3E0FAA3E0FBD31287625014900773E0FCA3E0FDA3E0FEA3E0FF900CB91287FD900DBDE0FCA3E0AE
:403E0000FDA3E0FEA3E0FF9007731287FDE4FFFEFDFC900773E0F8A3E0F9A3E0FAA3E0FBC31287625003023FC8900773E0FCA3E0FDA3E0FEA3E0FF900CB51287FD22900D86
:403E4000B9E0FFA3E0900CBDCFF0A3EFF022900DB9E0900CC3F022900DB9E0FFA3E0900CBFCFF0A3EFF0900DBBE0FFA3E0900CC1CFF0A3EFF022900DB9E0FCA3E0FDA3E0C1
:403E8000FEA3E0FF900CC41287FD900DBDE0FCA3E0FDA3E0FEA3E0FF900CC81287FD22900DB9E0900CCCF022900DB9E0900777F06007900CCD7401F022E4900CCDF022908D
:403EC0000DB9E0900CCEF022900DB9E0900CCFF022900DB9E0FCA3E0FDA3E0FEA3E0FF900CEA1287FD900CEAE0FCA3E0FDA3E0FEA3E0FF900C89E0F9F81287B0900CEA1260
:403F000087FD22900DB9E0FCA3E0FDA3E0FEA3E0FF900CEE1287FDE47F0AFEFDFC900CEEE0F8A3E0F9A3E0FAA3E0FBC31287624003023FC8E47F0AFEFDFC900CEE1287FD3B
:403F400022900DB9E0FCA3E0FDA3E0FEA3E0FF900CF21287FD22E4F52AE52AC394065068E52A25E025E024B9F582E4340DF583E0FCA3E0FDA3E0FEA3E0FFE52A25E025E07B
:403F800024D0F582E4340CF5831287FD052A80C9900DB9E0900CFAF022900DB9E0900CF9F022900DB9E0900777F0601C12D75622900DB9E0900CF6F0900DBAE0900CF7F0AE
:403FC000900DBBE0900CF8F022205945530000204E4F00002055736200002048616E646C65000020454D472070726F706F7274696F6E616C000020454D4720696E746567ED
:4040000072616C000020454D472046434653000020454D47204643465320416476616E636564000020506F736974696F6E00002050574D00002043757272656E74000020E9
:40404000506F736974696F6E20616E642043757272656E740000000D0A004669726D776172652076657273696F6E3A200053482D50524F2076362E312E372043656E74725C
:404080006F205069616767696F2032372E30322E32303139002E0D0A0D0A0044455649434520494E464F0D0A0049443A2025640D0A0050574D2072657363616C696E6720BC
:4040C00061637469766174696F6E3A20005945530A004E4F0A0050574D204C696D69743A2025640D0A004D4F544F5220494E464F0D0A004D6F746F72207265666572656E79
:40410000636500202D2043757272656E74733A2000202D2050776D3A2000202D20506F736974696F6E3A2000256420004D6F746F7220656E61626C65643A20005945530D86
:404140000A004E4F0D0A000D0A4D4541535552454D454E545320494E464F0D0A0053656E736F722076616C75653A0D0A002564202D3E202564004261747465727920566FE9
:404180006C7461676520286D56293A20256C640046756C6C2063686172676520706F7765722074656E73696F6E20286D56293A20256C640043757272656E7420286D412960
:4041C0003A20256C64000D0A44455649434520504152414D45544552530D0A0050494420436F6E74726F6C6C65723A0D0A0050202D3E20256620200049202D3E20256620A7
:40420000200044202D3E2025660D0A0043757272656E742050494420436F6E74726F6C6C65723A0D0A00537461727475702061637469766174696F6E3A205945530D0A00B1
:40424000537461727475702061637469766174696F6E3A204E4F0D0A00496E707574206D6F64653A205553420D0A00496E707574206D6F64653A2048616E646C650D0A0029
:40428000496E707574206D6F64653A20454D472070726F706F7274696F6E616C0D0A00496E707574206D6F64653A20454D4720696E74656772616C0D0A00496E70757420D1
:4042C0006D6F64653A20454D4720464346530D0A00496E707574206D6F64653A20454D472046434653204144560D0A00436F6E74726F6C206D6F64653A20506F73697469B9
:404300006F6E0D0A00436F6E74726F6C206D6F64653A2050574D0D0A00436F6E74726F6C206D6F64653A2043757272656E740D0A00436F6E74726F6C206D6F64653A205034
:404340006F736974696F6E20616E642043757272656E740D0A004162736F6C75746520656E636F64657220706F736974696F6E3A205945530D0A004162736F6C7574652036
:40438000656E636F64657220706F736974696F6E3A204E4F0D0A004D6F746F722D48616E646C6520526174696F3A2025640D0A0053656E736F72207265736F6C7574696F57
:4043C0006E3A0D0A004D6561737572656D656E74204F66667365743A0D0A002564202D3E20256C64004D6561737572656D656E74204D756C7469706C6965723A0D0A002534
:4044000064202D3E2025660043757272656E74206C6F6F6B7570207461626C653A0D0A00705B305D202D20705B325D3A2025662C2025662C2025660A00705B335D202D2048
:40444000705B355D3A2025662C2025662C2025660A00506F736974696F6E206C696D6974206163746976653A20256400506F736974696F6E206C696D6974206D6F746F724A
:404480002025643A20696E66202D3E20256C64202000737570202D3E20256C640D0A004D6178207374657020706F7320616E64206E65673A2025642025640043757272651F
:4044C0006E74206C696D69743A20256400454D47207468726573686F6C6473205B30202D20313032345D3A2025752C20257500454D47206D61782076616C756573205B30CF
:40450000202D20343039365D3A20256C752C20256C750043616C6962726174696F6E20656E61626C65643A205945530D0A0043616C6962726174696F6E20656E61626C6588
:40454000643A204E4F0D0A00454D47206D61782073706565643A20256400526573742074696D652064656C617920286D73293A20256400526573742076656C6F6369747979
:4045800020636C6F7375726520287469636B732F736563293A202564005265737420706F736974696F6E3A2025640064656275673A20256C64000D0A555341474520535443
:4045C00041544953544943530D0A0044617465206F66206D61696E74656E616E63653A2025642F25642F323025640D0A00506F736974696F6E7320686973746F6772616DA8
:4046000020287469636B73293A0D0A0042696E202564205B25642D25645D3A20256C750D0A0043757272656E7420686973746F6772616D20286D41293A0D0A005468726576
:4046400073686F6C64202564205B25642D25645D3A20256C750D0A00454D472061637469766174696F6E7320636F756E7465723A20256C752C20256C75005265737420704B
:404680006F736974696F6E206F6363757272656E6365733A20256C7500416E676C6520746F74616C20646973706C6163656D656E7420287469636B73293A20256C75005452
:4046C0006F74616C20706F776572206F6E2074696D652028736563293A20256C7500546F74616C207265737420706F736974696F6E2074696D652028736563293A20256C08
:404700007500000000000000000000000000000000000000000000000000000000000000000000000000000000000000000000000000000000000000000000000000000004
:404740000000000000000000000000000000000000000000000000000000000000000000000000000000000000000000000000000000000000000000000000000000000039
:4047800000000000000000000000000000000000000000000000000000000000000000000000000000000000000000000000000000000000000000000000000000000000F9
:4047C00000000000000000000000000000000000000000000000000000000000000000000000000000000000000000000000000000000000000000000000000000000000B9
:404800000000000000000000000000000000000000000000000000000000000000000000000000000000000000000000000000000000000000000000000000000000000078
:40544000000000000000000000000031202D204465766963652049443A0032202D20506F736974696F6E20504944205B502C20492C20445D3A0033202D2043757272656ED0
:405480007420504944205B502C20492C20445D3A0034202D20537461727475702041637469766174696F6E3A000000000035202D20496E707574206D6F64653A0000000043
:4054C00000000000000000000000000000000036202D20436F6E74726F6C206D6F64653A0000000000000000000000000000000000000000000037202D205265736F6C750B
:4055000074696F6E733A0038202D204D6561737572656D656E74204F6666736574733A0039202D204D756C7469706C696572733A003130202D20506F732E206C696D6974BE
:40554000206163746976653A00000000003131202D20506F732E206C696D697473205B696E662C207375705D3A003132202D204D6178207374657073205B6E65672C2070CB
:405580006F735D3A003133202D2043757272656E74206C696D69743A003134202D20454D472063616C6962726174696F6E206F6E20737461727475703A0000000000313522
:4055C000202D20454D47207468726573686F6C64733A003136202D20454D47206D61782076616C7565733A003137202D20454D47206D61782073706565643A003138202D99
:40560000204162736F6C75746520656E636F64657220706F736974696F6E3A00000000003139202D204D6F746F722068616E646C6520726174696F3A003230202D205057D9
:405640004D2072657363616C696E673A00000000003231202D205265737420706F736974696F6E3A003232202D205265737420706F736974696F6E2074696D652064656C66
:40568000617920286D73293A003233202D20526573742076656C20636C6F7375726520287469636B732F736563293A003234202D2043757272656E74206C6F6F6B75703AB4
:4056C000003235202D205265737420706F736974696F6E20666C61673A00000000003236202D20454D4720696E76657273696F6E3A00000000003237202D205265736574F1
:4057000020636F756E746572733A00000000003238202D2044617465206F66206D61696E74656E616E6365205B44442F4D4D2F59595D3A0030202D3E205573620A31202DDE
:405740003E2048616E646C650A32202D3E20454D472070726F706F7274696F6E616C0A33202D3E20454D4720496E74656772616C0A34202D3E20454D4720464346530A351C
:40578000202D3E20454D47204643465320416476616E6365640A0030202D3E20506F736974696F6E0A31202D3E2050574D0A32202D3E2043757272656E740A33202D3E2027
:4057C000506F736974696F6E20616E642043757272656E740A000030202D3E2044656163746976617465205B4E4F5D0A31202D3E204163746976617465205B5945535D0AC0
:40580000009005E0EBF0A3EAF0A3E9F0900B38E064FA7003026E419005E0E0FBA3E0FAA3E0F8AC02AD037BFF7A407956128A3A900B3174FFF0A37440F0A37457F09005E022
:40584000E0FBA3E0FAA3E0F912E053900B3174FFF0A37440F0A3745AF09005E0E0FBA3E0FAA3E0F912E053900B3174FFF0A37440F0A3746DF09005E0E0FBA3E0FAA3E0F977
:4058800012E053900B3174FFF0A37440F0A37495F09005E0E0FBA3E0FAA3E0F912E053900B3174FFF0A37440F0A3749BF09005E0E0FBA3E0FAA3E0F912E05390064E74FF06
:4058C000F0A37440F0A374A9F0900B38E0FF900651E4F0A3EFF07B017A0579E512A4EC900B317401F0A37405F0A374E5F09005E0E0FBA3E0FAA3E0F912E053900B3174FFE1
:40590000F0A37440F0A374B2F09005E0E0FBA3E0FAA3E0F912E053900BB2E0B4011E900B3174FFF0A37440F0A374CDF09005E0E0FBA3E0FAA3E0F912E053801C900B317435
:40594000FFF0A37440F0A374D2F09005E0E0FBA3E0FAA3E0F912E05390064E74FFF0A37440F0A374D6F0900EADE0FF900651E4F0A3EFF07B017A0579E512A4EC900B31747D
:4059800001F0A37405F0A374E5F09005E0E0FBA3E0FAA3E0F912E053900B3174FFF0A37440F0A37457F09005E0E0FBA3E0FAA3E0F912E053900B3174FFF0A37440F0A37481
:4059C000E6F09005E0E0FBA3E0FAA3E0F912E053900B3174FFF0A37440F0A374F3F09005E0E0FBA3E0FAA3E0F912E053900C88E0B4021E900B3174FFF0A37441F0A37403DC
:405A0000F09005E0E0FBA3E0FAA3E0F912E0538041900C88E0B4011E900B3174FFF0A37441F0A37411F09005E0E0FBA3E0FAA3E0F912E053801C900B3174FFF0A37441F020
:405A4000A3741AF09005E0E0FBA3E0FAA3E0F912E053E49005E3F0A3F0C39005E4E094029005E3E0648094804003025BBD900C88E06402705F90064E74FFF0A37441F0A3CE
:405A80007428F09005E3E0FEA3E07802C333CE33CED8F9243FF582740C3EF583E0A3E0A3E0FFA3E0900651CFF0A3EFF07B017A0579E512A4EC900B317401F0A37405F0A3F6
:405AC00074E5F09005E0E0FBA3E0FAA3E0F912E053025BAC900C88E06401705E90064E74FFF0A37441F0A37428F09005E3E0FEA3E07802C333CE33CED8F92447F582740C86
:405B00003EF583E0A3E0A3E0FFA3E0900651CFF0A3EFF07B017A0579E512A4EC900B317401F0A37405F0A374E5F09005E0E0FBA3E0FAA3E0F912E053807290064E74FFF034
:405B4000A37441F0A37428F09005E3E0FAA3E0FBAE027802C333CE33CED8F92437F582740C3EF583E0FCA3E0FDA3E0FEA3E0FF746C2BF582740B3AF583E0F9F812879C906E
:405B80000651EEF0A3EFF07B017A0579E512A4EC900B317401F0A37405F0A374E5F09005E0E0FBA3E0FAA3E0F912E0539005E4E004F070069005E3E004F0025A59900B31EC
:405BC00074FFF0A37440F0A37457F09005E0E0FBA3E0FAA3E0F912E053900B3174FFF0A37440F0A37457F09005E0E0FBA3E0FAA3E0F912E05390064E74FFF0A37441F0A37B
:405C0000742CF07B017A0579E512A4EC900C4FE054036019900B3174FFF0A37441F0A3743CF07B017A0579E512E0538017900B3174FFF0A37441F0A37442F07B017A05791B
:405C4000E512E053900B317401F0A37405F0A374E5F09005E0E0FBA3E0FAA3E0F912E053900B3174FFF0A37441F0A37447F09005E0E0FBA3E0FAA3E0F912E053900B3174B0
:405C8000FFF0A37441F0A3745DF09005E0E0FBA3E0FAA3E0F912E053E49005E3F0A3F0C39005E4E094039005E3E0648094804003025D6590064E74FFF0A37441F0A3746DBF
:405CC000F09005E3E0FCA3E0FD2401FEE43C900651F0A3CEF0EDAE047802C333CE33CED8F92475F582740E3EF583E0FCA3E0FDA3E0FEA3E0FF9005E3E0FAA3E0246CF58233
:405D0000740B3AF583E0F9F812879C900653EEF0A3EFF07B017A0579E512A4EC900B317401F0A37405F0A374E5F09005E0E0FBA3E0FAA3E0F912E053900B3174FFF0A374EB
:405D400040F0A37457F09005E0E0FBA3E0FAA3E0F912E0539005E4E004F070069005E3E004F0025C9F90064E74FFF0A37441F0A37476F0900D95E0FCA3E0FDA3E0FEA3E05D
:405D8000FF9006511287FD7B017A0579E512A4EC900B317401F0A37405F0A374E5F09005E0E0FBA3E0FAA3E0F912E053900B3174FFF0A37440F0A37457F09005E0E0FBA3EE
:405DC000E0FAA3E0F912E05390064E74FFF0A37441F0A37490F0900E5CE0FCA3E0FDA3E0FEA3E0FF9006511287FD7B017A0579E512A4EC900B317401F0A37405F0A374E5D8
:405E0000F09005E0E0FBA3E0FAA3E0F912E053900B3174FFF0A37440F0A37457F09005E0E0FBA3E0FAA3E0F912E05390064E74FFF0A37441F0A374B4F0900E81E0FCA3E0BA
:405E4000FDA3E0FEA3E0FF9006511287FD7B017A0579E512A4EC900B317401F0A37405F0A374E5F09005E0E0FBA3E0FAA3E0F912E053900B3174FFF0A37440F0A37457F01F
:405E80009005E0E0FBA3E0FAA3E0F912E053900B3174FFF0A37441F0A374C6F09005E0E0FBA3E0FAA3E0F912E053900B3174FFF0A37441F0A374DCF09005E0E0FBA3E0FA5B
:405EC000A3E0F912E053900B6BE064037003025FD390064E74FFF0A37441F0A374EEF0900B39E0FCA3E0FDA3E0FEA3E0FFEC1282E4E4FBFA798078471281CE900651128760
:405F0000FD7B017A0579E512A4EC900B317401F0A37405F0A374E5F09005E0E0FBA3E0FAA3E0F912E05390064E74FFF0A37441F0A374F8F0900B3DE0FCA3E0FDA3E0FEA3CC
:405F4000E0FFEC1282E4E4FBFA798078471281CE9006511287FD7B017A0579E512A4EC900B317401F0A37405F0A374E5F09005E0E0FBA3E0FAA3E0F912E05390064E74FF66
:405F8000F0A37442F0A37402F0900B41E0FCA3E0FDA3E0FEA3E0FFEC1282E4E4FBFA798078471281CE9006511287FD7B017A0579E512A4EC900B317401F0A37405F0A37442
:405FC000E5F09005E0E0FBA3E0FAA3E0F912E0530260CF90064E74FFF0A37441F0A374EEF0900B51E0FCA3E0FDA3E0FEA3E0FFEC1282E4E4FBFAF978461281CE90065112F0
:4060000087FD7B017A0579E512A4EC900B317401F0A37405F0A374E5F09005E0E0FBA3E0FAA3E0F912E05390064E74FFF0A37441F0A374F8F0900B55E0FCA3E0FDA3E0FECF
:40604000A3E0FFEC1282E4E4FBFAF978461281CE9006511287FD7B017A0579E512A4EC900B317401F0A37405F0A374E5F09005E0E0FBA3E0FAA3E0F912E05390064E74FFC3
:40608000F0A37442F0A37402F0900B59E0FCA3E0FDA3E0FEA3E0FFEC1282E4E4FBFAF978461281CE9006511287FD7B017A0579E512A4EC900B317401F0A37405F0A374E545
:4060C000F09005E0E0FBA3E0FAA3E0F912E053900B3174FFF0A37442F0A3740CF09005E0E0FBA3E0FAA3E0F912E053900B6BE0640370030261F890064E74FFF0A37441F05F
:40610000A374EEF0900B45E0FCA3E0FDA3E0FEA3E0FFEC1282E4E4FBFA798078471281CE9006511287FD7B017A0579E512A4EC900B317401F0A37405F0A374E5F09005E0BF
:40614000E0FBA3E0FAA3E0F912E05390064E74FFF0A37441F0A374F8F0900B49E0FCA3E0FDA3E0FEA3E0FFEC1282E4E4FBFA798078471281CE9006511287FD7B017A0579EE
:40618000E512A4EC900B317401F0A37405F0A374E5F09005E0E0FBA3E0FAA3E0F912E05390064E74FFF0A37442F0A37402F0900B4DE0FCA3E0FDA3E0FEA3E0FFEC1282E45D
:4061C000E4FBFA798078471281CE9006511287FD7B017A0579E512A4EC900B317401F0A37405F0A374E5F09005E0E0FBA3E0FAA3E0F912E0530262F490064E74FFF0A374C8
:4062000041F0A374EEF0900B5DE0FCA3E0FDA3E0FEA3E0FFEC1282E4E4FBFAF978461281CE9006511287FD7B017A0579E512A4EC900B317401F0A37405F0A374E5F0900556
:40624000E0E0FBA3E0FAA3E0F912E05390064E74FFF0A37441F0A374F8F0900B61E0FCA3E0FDA3E0FEA3E0FFEC1282E4E4FBFAF978461281CE9006511287FD7B017A0579F6
:40628000E512A4EC900B317401F0A37405F0A374E5F09005E0E0FBA3E0FAA3E0F912E05390064E74FFF0A37442F0A37402F0900B65E0FCA3E0FDA3E0FEA3E0FFEC1282E444
:4062C000E4FBFAF978461281CE9006511287FD7B017A0579E512A4EC900B317401F0A37405F0A374E5F09005E0E0FBA3E0FAA3E0F912E053900B3174FFF0A37440F0A374F1
:4063000057F09005E0E0FBA3E0FAA3E0F912E053900B69E0B4031E900B3174FFF0A37442F0A37426F09005E0E0FBA3E0FAA3E0F912E053801C900B3174FFF0A37442F0A3E5
:406340007440F09005E0E0FBA3E0FAA3E0F912E053900B6AE014603814605314606E1470030263EA14700302640824056003026424900B3174FFF0A37442F0A37459F09068
:4063800005E0E0FBA3E0FAA3E0F912E053026424900B3174FFF0A37442F0A3746BF09005E0E0FBA3E0FAA3E0F912E0538076900B3174FFF0A37442F0A37480F09005E0E093
:4063C000FBA3E0FAA3E0F912E0538058900B3174FFF0A37442F0A3749FF09005E0E0FBA3E0FAA3E0F912E053803A900B3174FFF0A37442F0A374BAF09005E0E0FBA3E0FA20
:40640000A3E0F912E053801C900B3174FFF0A37442F0A374D1F09005E0E0FBA3E0FAA3E0F912E053900B6BE014602814604314605E24037076900B3174FFF0A37442F0A3EE
:4064400074ECF09005E0E0FBA3E0FAA3E0F912E0538058900B3174FFF0A37443F0A37405F09005E0E0FBA3E0FAA3E0F912E053803A900B3174FFF0A37443F0A37419F09070
:4064800005E0E0FBA3E0FAA3E0F912E053801C900B3174FFF0A37443F0A37431F09005E0E0FBA3E0FAA3E0F912E053900BB0E0601E900B3174FFF0A37443F0A37456F090F4
:4064C00005E0E0FBA3E0FAA3E0F912E053801C900B3174FFF0A37443F0A37477F09005E0E0FBA3E0FAA3E0F912E05390064E74FFF0A37443F0A37497F0900BB1E0FE33955C
:40650000E0900651F0A3CEF07B017A0579E512A4EC900B317401F0A37405F0A374E5F09005E0E0FBA3E0FAA3E0F912E053900B3174FFF0A37443F0A374B0F09005E0E0FB11
:40654000A3E0FAA3E0F912E053E49005E3F0A3F0C39005E4E094039005E3E06480948040030265EC90064E74FFF0A37441F0A3746DF09005E3E0FCA3E0FD2401FEE43C90BB
:406580000651F0A3CEF0746C2DF582740B3CF583E0FF900653E4F0A3EFF07B017A0579E512A4EC900B317401F0A37405F0A374E5F09005E0E0FBA3E0FAA3E0F912E053901C
:4065C0000B3174FFF0A37440F0A37457F09005E0E0FBA3E0FAA3E0F912E0539005E4E004F070069005E3E004F0026550900B3174FFF0A37443F0A374C5F09005E0E0FBA3CB
:40660000E0FAA3E0F912E053E49005E3F0A3F0C39005E4E094039005E3E06480948040030266D390064E74FFF0A37443F0A374DBF09005E3E0FCA3E0FD2401FEE43C90063F
:4066400051F0A3CEF0EDAE047802C333CE33CED8F9246FF582740B3EF583E0FCA3E0FDA3E0FEA3E0FF9005E3E0FAA3E0246CF582740B3AF583E0F9F812879C900653128796
:40668000FD7B017A0579E512A4EC900B317401F0A37405F0A374E5F09005E0E0FBA3E0FAA3E0F912E053900B3174FFF0A37440F0A37457F09005E0E0FBA3E0FAA3E0F912FC
:4066C000E0539005E4E004F070069005E3E004F002660F900B3174FFF0A37443F0A374E5F09005E0E0FBA3E0FAA3E0F912E053E49005E3F0A3F0C39005E4E094039005E3E4
:40670000E06480948040030267A490064E74FFF0A37443F0A374FFF09005E3E0FCA3E0FD2401FEE43C900651F0A3CEF0EDAE047802C333CE33CED8F9247BF582740B3EF5D4
:4067400083E0FCA3E0FDA3E0FEA3E0FF9006531287FD7B017A0579E512A4EC900B317401F0A37405F0A374E5F09005E0E0FBA3E0FAA3E0F912E053900B3174FFF0A3744080
:40678000F0A37457F09005E0E0FBA3E0FAA3E0F912E0539005E4E004F070069005E3E004F00266F6900B3174FFF0A37444F0A37408F09005E0E0FBA3E0FAA3E0F912E05379
:4067C00090064E74FFF0A37444F0A37420F0900BB3E0FCA3E0FDA3E0FEA3E0FF9006511287FD900BB7E0FCA3E0FDA3E0FEA3E0FF9006551287FD900BBBE0FCA3E0FDA3E04F
:40680000FEA3E0FF9006591287FD7B017A0579E512A4EC900B317401F0A37405F0A374E5F09005E0E0FBA3E0FAA3E0F912E05390064E74FFF0A37444F0A37439F0900BBF75
:40684000E0FCA3E0FDA3E0FEA3E0FF9006511287FD900BC3E0FCA3E0FDA3E0FEA3E0FF9006551287FD900BC7E0FCA3E0FDA3E0FEA3E0FF9006591287FD7B017A0579E5124D
:40688000A4EC900B317401F0A37405F0A374E5F09005E0E0FBA3E0FAA3E0F912E053900B3174FFF0A37440F0A37457F09005E0E0FBA3E0FAA3E0F912E05390064E74FFF0E8
:4068C000A37444F0A37452F0900CA4E0FF900651E4F0A3EFF07B017A0579E512A4EC900B317401F0A37405F0A374E5F09005E0E0FBA3E0FAA3E0F912E053900B3174FFF0B7
:40690000A37440F0A37457F09005E0E0FBA3E0FAA3E0F912E053E49005E3F0A3F0C39005E4E094019005E3E0648094804003026A3590064E74FFF0A37444F0A3746CF090CB
:4069400005E3E0FCA3E0FD2401FEE43C900651F0A3CEF0EDAE047802C333CE33CED8F924A5F582740C3EF583E0FCA3E0FDA3E0FEA3E0FF9005E3E0FAA3E02489F582740C5B
:406980003AF583E0F9F812879C9006531287FD7B017A0579E512A4EC900B317401F0A37405F0A374E5F09005E0E0FBA3E0FAA3E0F912E05390064E74FFF0A37444F0A37445
:4069C00092F09005E3E0FAA3E0FBAE027802C333CE33CED8F924ADF582740C3EF583E0FCA3E0FDA3E0FEA3E0FF74892BF582740C3AF583E0F9F812879C9006511287FD7BD9
:406A0000017A0579E512A4EC900B317401F0A37405F0A374E5F09005E0E0FBA3E0FAA3E0F912E0539005E4E004F070069005E3E004F002691D90064E74FFF0A37444F0A353
:406A4000749FF0900CB5E0A3E0A3E0FFA3E0900651CFF0A3EFF0900CB9E0A3E0A3E0FFA3E0900653CFF0A3EFF07B017A0579E512A4EC900B317401F0A37405F0A374E5F027
:406A80009005E0E0FBA3E0FAA3E0F912E053900B3174FFF0A37440F0A37457F09005E0E0FBA3E0FAA3E0F912E05390064E74FFF0A37444F0A374BBF0900CBDE0FFA3E09047
:406AC0000651CFF0A3EFF07B017A0579E512A4EC900B317401F0A37405F0A374E5F09005E0E0FBA3E0FAA3E0F912E053900B3174FFF0A37440F0A37457F09005E0E0FBA385
:406B0000E0FAA3E0F912E05390064E74FFF0A37444F0A374CDF0900CBFE0FFA3E0900651CFF0A3EFF0900CC1E0FFA3E0900653CFF0A3EFF07B017A0579E512A4EC900B31BF
:406B40007401F0A37405F0A374E5F09005E0E0FBA3E0FAA3E0F912E053900B3174FFF0A37440F0A37457F09005E0E0FBA3E0FAA3E0F912E05390064E74FFF0A37444F0A393
:406B800074EFF0900CC4E0FCA3E0FDA3E0FEA3E0FF9006511287FD900CC8E0FCA3E0FDA3E0FEA3E0FF9006551287FD7B017A0579E512A4EC900B317401F0A37405F0A374B3
:406BC000E5F09005E0E0FBA3E0FAA3E0F912E053900B3174FFF0A37440F0A37457F09005E0E0FBA3E0FAA3E0F912E053900CC3E0601E900B3174FFF0A37445F0A37413F07E
:406C00009005E0E0FBA3E0FAA3E0F912E053801C900B3174FFF0A37445F0A3742EF09005E0E0FBA3E0FAA3E0F912E05390064E74FFF0A37445F0A37448F0900CCCE0FF9033
:406C40000651E4F0A3EFF07B017A0579E512A4EC900B317401F0A37405F0A374E5F09005E0E0FBA3E0FAA3E0F912E053900B3174FFF0A37440F0A37457F09005E0E0FBA3EE
:406C8000E0FAA3E0F912E053900CFAE064016003026DC590064E74FFF0A37445F0A3745AF0900CEEE0A3E0A3E0FFA3E0900651CFF0A3EFF07B017A0579E512A4EC900B31F2
:406CC0007401F0A37405F0A374E5F09005E0E0FBA3E0FAA3E0F912E053900B3174FFF0A37440F0A37457F09005E0E0FBA3E0FAA3E0F912E05390064E74FFF0A37445F0A311
:406D00007473F0900CF2E0A3E0A3E0FFA3E0900651CFF0A3EFF07B017A0579E512A4EC900B317401F0A37405F0A374E5F09005E0E0FBA3E0FAA3E0F912E053900B3174FF6D
:406D4000F0A37440F0A37457F09005E0E0FBA3E0FAA3E0F912E05390064E74FFF0A37445F0A37499F0900CEAE0FCA3E0FDA3E0FEA3E0FF900B6CE0F9F812879C900651EEF6
:406D8000F0A3EFF07B017A0579E512A4EC900B317401F0A37405F0A374E5F09005E0E0FBA3E0FAA3E0F912E053900B3174FFF0A37440F0A37457F09005E0E0FBA3E0FAA36B
:406DC000E0F912E05390064E74FFF0A37445F0A374ABF0900D91E0F8A3E0F9A3E0FAA3E0FB900E60E0FCA3E0FDA3E0FEA3E0C39BFFEE9AFEED99FDEC98FC9006511287FDF2
:406E00007B017A0579E512A4EC900B317401F0A37405F0A374E5F09005E0E0FBA3E0FAA3E0F912E053900B3174FFF0A37440F0A37457F09005E0E0FBA3E0FAA3E0F912E091
:406E40005322E4F526F525F524F523900B39E0FCA3E0FDA3E0FEA3E0F5428E418D408C3FA3E0FCA3E0FDA3E0FEA3E0F5468E458D448C43A3E0FCA3E0FDA3E0FEA3E0F54A8E
:406E80008E498D488C47A3E0FCA3E0FDA3E0FEA3E0F54E8E4D8D4C8C4BA3E0FCA3E0FDA3E0FEA3E0F5528E518D508C4FA3E0FCA3E0FDA3E0FEA3E0F5568E558D548C53A30D
:406EC000E0FCA3E0FDA3E0FEA3E0F55A8E598D588C57A3E0FCA3E0FDA3E0FEA3E0F55E8E5D8D5C8C5BA3E0FCA3E0FDA3E0FEA3E0F5628E618D608C5F900BA0E0FEA3E0FF67
:406F0000EE3395E0FDFC780D1287B0AB5AAA59A958A85712E5868F668E658D648C63900B5DE0FCA3E0FDA3E0FEA3E0F56A8E698D688C67A3E0FCA3E0FDA3E0FEA3E0F56EAB
:406F40008E6D8D6C8C6BA3E0FCA3E0FDA3E0FEA3E0F5728E718D708C6F900BA2E0FEA3E0FFFBAA06E4900E8CE0FCA3E0FDA3E0FEA3E0C39BF53AEE9AF539ED9400F538EC32
:406F80009400F537900BA4E0FEA3E0FFFBAA06E4900E90E0FCA3E0FDA3E0FEA3E0C39BF53EEE9AF53DED9400F53CEC9400F53B900B6AE024FE700302711F14700302717D25
:406FC0001470030272721470030273D52404600302756C900BB0E06024A3E0FF3395E0FEFDFC900E7DE0F8A3E0F9A3E0FAA3E0FB12862A8F368E358D348C338024900BB1F1
:40700000E0FF3395E0FEFDFC900E79E0F8A3E0F9A3E0FAA3E0FB12862A8F368E358D348C33900C37E0F8A3E0F9A3E0FAA3E0FBC3E5369BFFE5359AFEE53499FDE53398FCFB
:40704000900B98E0F8A3E0F9A3E0FAA3E0FBC31287625044E4FFFEFDFC900B98E0F8A3E0A3E0A3E0C3128762602E900C37E0FCA3E0FDA3E0FEA3E0FF900B98E0F8A3E0A31F
:40708000E0A3E0EF2BFFEE3AFEED39FDEC38FC900C371287FD02756C900C37E0F8A3E0F9A3E0FAA3E0FBC3E5369BFFE5359AFEE53499FDE53398FC900B9CE0F8A3E0F9A3CA
:4070C000E0FAA3E0FBD31287624043E4FFFEFDFC900B9CE0F8A3E0A3E0A3E0128762602E900C37E0FCA3E0FDA3E0FEA3E0FF900B9CE0F8A3E0A3E0A3E0EF2BFFEE3AFEEDF6
:4071000039FDEC38FC900C371287FD02756CAF36AE35AD34AC33900C371287FD02756CE4FFFEFDFCAB3AAA39A938A837D3128762403D900CADE0FCA3E0FDA3E0FEA3E0FF84
:40714000A83712862AC006C007900BA2E0FEA3E0FFC3E49FFF74049EFEAB07FAE4F9F8D007D00612E586900C371287FD02756CE4FFFEFDFC900C371287FD02756C900D9998
:40718000E0FCA3E0FDA3E0FEA3E0FF900C371287FDE4FFFEFDFCAB3AAA39A938A837D31287624056900CCCE0FFE4FCFDFEA83712862AE47B02FAF9F812862AC006C0079053
:4071C0000BA2E0FEA3E0FFC3E49FFF74049EFEAB07FAE4F9F8D007D00612E586900D99E0F8A3E0F9A3E0FAA3E02FFFEA3EFEE93DFDE83CFC900C371287FDE4FFFEFDFCAB6F
:407200003EAA3DA93CA83BD3128762500302756C900CCCE0FFE4FCFDFEA83B12862AE47B02FAF9F812862AC006C007900BA4E0FEA3E0FFC3E49FFF74049EFEAB07FAE4F97A
:40724000F8D007D00612E586A804A905AA06AB07900D99E0FCA3E0FDA3E0FEA3E0C39BFFEE9AFEED99FDEC98FC900C371287FD02756C900D99E0FCA3E0FDA3E0FEA3E0FFD3
:40728000900C371287FD900F46E014604814700302734F2402600302756CE4FFFEFDFCAB3AAA39A938A837D31287624009900F467401F002756CE4FFFEFDFCAB3EAA3DA934
:4072C0003CA83BD3128762500302756C900F467402F002756CE4FFFEFDFCAB3AAA39A938A837C31287625008E4900F46F002756C900CCCE0FFE4FCFDFEAB3AAA39A938A8B6
:407300003712862AE47B02FAF9F812862AC006C007900BA2E0FEA3E0FFC3E49FFF74049EFEAB07FAE4F9F8D007D00612E586900D99E0F8A3E0F9A3E0FAA3E02FFFEA3EFE3A
:40734000E93DFDE83CFC900C371287FD02756CE4FFFEFDFCAB3EAA3DA93CA83BC31287625008E4900F46F002756C900CCCE0FFE4FCFDFEAB3EAA3DA93CA83B12862AE47B7F
:4073800002FAF9F812862AC006C007900BA4E0FEA3E0FFC3E49FFF74049EFEAB07FAE4F9F8D007D00612E586A804A905AA06AB07900D99E0FCA3E0FDA3E0FEA3E0C39BFF3F
:4073C000EE9AFEED99FDEC98FC900C371287FD02756C02756C900D99E0FCA3E0FDA3E0FEA3E0FF900C371287FD900F46E01460481470030274D12402600302756CE4FFFE3B
:40740000FDFCAB3AAA39A938A837D31287624009900F467401F002756CE4FFFEFDFCAB3EAA3DA93CA83BD3128762500302756C900F467402F002756CE4FFFEFDFCAB3AAA7A
:4074400039A938A837C3128762501BE4FFFEFDFCAB3EAA3DA93CA83BC31287625008E4900F46F002756CE4FFFEFDFCAB3AAA39A938A837D3128762500302756C900CCCE018
:40748000FFE4FCFDFEA83712862A78021287B0C006C007900BA2E0FEA3E0FFC3E49FFF74049EFEAB07FAE4F9F8D007D00612E586900D99E0F8A3E0F9A3E0FAA3E02FFFEABE
:4074C0003EFEE93DFDE83CFC900C371287FD02756CE4FFFEFDFCAB3AAA39A938A837C3128762501AE4FFFEFDFCAB3EAA3DA93CA83BC31287625007E4900F46F0806EE4FF26
:40750000FEFDFCAB3EAA3DA93CA83BD3128762405B900BAFE0FFE4FCFDFEA83B12862A78021287B0C006C007900BA4E0FEA3E0FFC3E49FFF74049EFEAB07FAE4F9F8D0070A
:40754000D00612E586A804A905AA06AB07900D99E0FCA3E0FDA3E0FEA3E0C39BFFEE9AFEED99FDEC98FC900C371287FD900B87E0606AA3E0FCA3E0FDA3E0FEA3E0FF900CAD
:4075800037E0F8A3E0F9A3E0FAA3E0FBC31287625014900B88E0FCA3E0FDA3E0FEA3E0FF900C371287FD900B90E0FCA3E0FDA3E0FEA3E0FF900C37E0F8A3E0F9A3E0FAA367
:4075C000E0FBD31287624014900B90E0FCA3E0FDA3E0FEA3E0FF900C371287FD900BDDE064016003027695900EACE0B40114900E58E0FCA3E0FDA3E0FEA3E0FF900C371241
:4076000087FD900D54E064016003027695FFFEFDFCAB3EAA3DA93CA83BD3128762405D900CEAE0FCA3E0FDA3E0FEA3E0FFA83B12862AC006C007900BA4E0FEA3E0FFC3E4CA
:407640009FFF74049EFEAB07FAE4F9F8D007D00612E586A804A905AA06AB07900CEAE0FCA3E0FDA3E0FEA3E0C39BFFEE9AFEED99FDEC98FC900C371287FD8019900CEAE0BD
:40768000FCA3E0FDA3E0FEA3E0FF900C371287FDE4900D54F0900B6BE07003027AF0147003027EAA147003027C7E146003027F18900E75E0F8A3E0F9A3E0FAA3E0FB900C16
:4076C00037E0FCA3E0FDA3E0FEA3E0C39BF52AEE9AF529ED99F528EC98F527900F36E0FCA3E0FDA3E0FEA3E0252AFFEE3529FEED3528FDEC3527FC900F361287FDAF66AE07
:4077000065AD64AC63AB2AAA29A928A827D3128762400E85662A856529856428856327802CAF66AE65AD64AC63128754AB2AAA29A928A827C31287625013AF66AE65AD6495
:40774000AC631287548F2A8E298D288C277F807EF07DFA7C02900F36E0F8A3E0F9A3E0FAA3E0FBD312876240107F807EF07DFA7C02900F361287FD802A7F807E0F7D057C90
:40778000FD900F36E0F8A3E0F9A3E0FAA3E0FBC3128762500E7F807E0F7D057CFD900F361287FDE4F532F531F530F52FFFFEFDFCAB5AAA59A958A857C31287626026AF2A05
:4077C000AE29AD28AC27A85712862A780D12879CE5322FF532E5313EF531E5303DF530E52F3CF52FE4FFFEFDFCAB5EAA5DA95CA85BC3128762602C900F36E0FCA3E0FDA3AD
:40780000E0FEA3E0FFA85B12862A780D12879CE5322FF532E5313EF531E5303DF530E52F3CF52FE4FFFEFDFCAB62AA61A960A85FC31287626043900F3EE0F8A3E0F9A3E080
:40784000FAA3E0FBC3E52A9BFFE5299AFEE52899FDE52798FCAB62AA61A960A85F12862A780D12879CE5322FF532E5313EF531E5303DF530E52F3CF52FAF2AAE29AD28AC94
:4078800027900F3E1287FD900C50E0FCA3E0FDA3E0FEA3E02532F532EE3531F531ED3530F530EC352FF52FE4FFFEFDFCAB32AA31A930A82FC31287624004D2118002C21183
:4078C000900BA0E0FEA3E0FFEE3395E0FDFCAB32AA31A930A82FD31287624016900BA0E0FEA3E0FFEE3395E08F328E31F530F52F803C900BA0E0FEA3E0FFC3E49FFFE49EBA
:40790000FE3395E0FDFCAB32AA31A930A82FC3128762501A900BA0E0FEA3E0FFC3E49FFFE49EFE3395E08F328E31F530F52F900E81E0F8A3E0F9A3E0FAA3E0FBC3E5329B64
:40794000F52EE5319AF52DE53099F52CE52F98F52B900F3AE0FCA3E0FDA3E0FEA3E0252EFFEE352DFEED352CFDEC352BFC900F3A1287FD7FA07E867D017C00900F3AE0F8CE
:40798000A3E0F9A3E0FAA3E0FBD312876240107FA07E867D017C00900F3A1287FD802A7F607E797DFE7CFF900F3AE0F8A3E0F9A3E0FAA3E0FBC3128762500E7F607E797D99
:4079C000FE7CFF900F3A1287FDE4F526F525F524F523FFFEFDFCAB6AAA69A968A867C31287626026AF2EAE2DAD2CAC2BA86712862A780D12879CE5262FF526E5253EF52529
:407A0000E5243DF524E5233CF523E4FFFEFDFCAB6EAA6DA96CA86BC3128762602C900F3AE0FCA3E0FDA3E0FEA3E0FFA86B12862A780D12879CE5262FF526E5253EF525E5AC
:407A4000243DF524E5233CF523E4FFFEFDFCAB72AA71A970A86FC31287626043900F42E0F8A3E0F9A3E0FAA3E0FBC3E52E9BFFE52D9AFEE52C99FDE52B98FCAB72AA71A917
:407A800070A86F12862A780D12879CE5262FF526E5253EF525E5243DF524E5233CF52374FF7F9CFEFDFCAB26AA25A924A823C3128762500D74FF75269CF525F524F5238004
:407AC0001EE47F64FEFDFCAB26AA25A924A823D3128762400AE4752664F525F524F523AF2EAE2DAD2CAC2B900F421287FD027F18900E75E0F8A3E0F9A3E0FAA3E0FB900CB6
:407B000037E0FCA3E0FDA3E0FEA3E0C39BF52AEE9AF529ED99F528EC98F527900F36E0FCA3E0FDA3E0FEA3E0252AFFEE3529FEED3528FDEC3527FC900F361287FDE47FE83A
:407B40007E03FDFC900F36E0F8A3E0F9A3E0FAA3E0FBD3128762400FE47FE87E03FDFC900F361287FD802A7F187EFC7DFF7CFF900F36E0F8A3E0F9A3E0FAA3E0FBC31287E8
:407B800062500E7F187EFC7DFF7CFF900F361287FDE4FFFEFDFCAB42AA41A940A83FC3128762601AAF2AAE29AD28AC27A83F12862A781012879C8F268E258D248C23E4FF6F
:407BC000FEFDFCAB46AA45A944A843C3128762602C900F36E0FCA3E0FDA3E0FEA3E0FFA84312862A781012879CE5262FF526E5253EF525E5243DF524E5233CF523E4FFFE9B
:407C0000FDFCAB4AAA49A948A847C31287626043900F3EE0F8A3E0F9A3E0FAA3E0FBC3E52A9BFFE5299AFEE52899FDE52798FCAB4AAA49A948A84712862A781012879CE575
:407C4000262FF526E5253EF525E5243DF524E5233CF523AF2AAE29AD28AC27900F3E1287FDE4FFFEFDFCAB26AA25A924A823D31287624005D211027F18C211027F18900C03
:407C80004FE07003027F18201003027F18900C3FE0FCA3E0FDA3E0FEA3E0F5328E318D308C2F900BA0E0FEA3E0FFEE3395E0FDFCAB32AA31A930A82FD31287624016900BD3
:407CC000A0E0FEA3E0FFEE3395E08F328E31F530F52F803C900BA0E0FEA3E0FFC3E49FFFE49EFE3395E0FDFCAB32AA31A930A82FC3128762501A900BA0E0FEA3E0FFC3E496
:407D00009FFFE49EFE3395E08F328E31F530F52F900E81E0F8A3E0F9A3E0FAA3E0FBC3E5329BF52EE5319AF52DE53099F52CE52F98F52B900F3AE0FCA3E0FDA3E0FEA3E008
:407D4000252EFFEE352DFEED352CFDEC352BFC900F3A1287FD7FA07E867D017C00900F3AE0F8A3E0F9A3E0FAA3E0FBD312876240107FA07E867D017C00900F3A1287FD80F2
:407D80002A7F607E797DFE7CFF900F3AE0F8A3E0F9A3E0FAA3E0FBC3128762500E7F607E797DFE7CFF900F3A1287FDE4F526F525F524F523FFFEFDFCAB4EAA4DA94CA84B36
:407DC000C31287626026AF2EAE2DAD2CAC2BA84B12862A781012879CE5262FF526E5253EF525E5243DF524E5233CF523E4FFFEFDFCAB52AA51A950A84FC3128762602C9057
:407E00000F3AE0FCA3E0FDA3E0FEA3E0FFA84F12862A781012879CE5262FF526E5253EF525E5243DF524E5233CF523E4FFFEFDFCAB56AA55A954A853C31287626043900FE0
