:40000000021415008F828E83E0540100000070F82278FFE4F6D8FD02147A900000EFF0E4F53FF540F541F54275430AC200121F87EF60057F00121FB7122067D2AF9044F4FC
:4000400074FDF0E4F53B754900754A00754B37900000E0FF70067EFF7FFF80008F4C7B017A0079017D2C7C011212FA8F3E900000E060021543E5436004E53E70C9E53E6046
:400080000302059FC3E5389407E53794004008900001E064016005753B04807E900004E0FE900003E0FDEEF53FEDF54074062540F5827400353FF583E0FE74052540F58228
:4000C0007400353FF583E0FDEEF53CEDF53DE5402407FFE4353FFED3EF9538EE95374005753B03803574072540F5827400353FF583E064176005753B04801F7B017A0079B1
:4001000001E5402404FDE4353FFC121C66EF653D7003EE653C6003753B08E4F539F53AE53B600302058E900005E0F536753B04900002E012088801553101823202083403A0
:400140007A3503883703D438020839040F3A05783B0000058B20000302058EE540453F600302058EFF120D84EF70047F0180027F00900005EFF0753900753A01E4F53B0260
:40018000058E20000302058EE5406401453F600302058EE536C39401400302058E900357E0FEA3E0F5828E83120842E4FBFA7901F81207188F24E536B5241E900357E0FE6B
:4001C000A3E0F5828E83120842E4FB7A01F9F81207187522008F238014E536D395244007E4F522F5238006752201752300E523900005F0E522A3F0A374FFF0E4A3F0F539B6
:40020000753A04F53B02058E900002E06434703C20000302058EE5406403453F600302058EE536C39440400FE536D3947F50087541007542108006754101754220AE41AF47
:40024000427D007B017A01792D1208FF20000302058EC3E5409403E53F9400500302058EE54024FDFFE53F34FFFE742D2542F974013541A801FC7D017B017A0079081209F7
:40028000E7E54024FDFFE53F34FFFEEF2542F542EE3541F541E536C394404012E536D3947F500B121DA8753F007540108006753F01754020E54265407004E541653F600369
:4002C00002036F900007E0FE900006E0FDEEF541EDF542E536D3943F506FE5367F00FEEF2542FFE5413E900259F0A3EFF0900357E0FEA3E0F5828E83120842E4FB7A01F9AA
:40030000F812071890025BEEF0A3EFF0900357E0FEA3E0F5828E83120842EFE4EF600A90025BE475F0011205DA90025BE0FEA3E0FFC390025AE09F900259E09E500B753BD5
:400340000AE4F541F54202058E7B017A01792D900263E53FF0A3E540F0AD42AC41AF36120F0BEF60047F0A80027F008F3B8003753B03E4F541F54202058E20000302058EC7
:40038000E4F541F54202059F20000302058EE5422540FFE541353FFED3EF942CEE9401502DE4F53BAE3FAF40742D2542F974013541A801FC7D017B017A0079051209E7E58F
:4003C000402542F542E53F3541F54102058E753B0302058EE540453F600302058E78257C00FD7BFF7A25791FFE7F081209E7D200753900753A08AE39AF3A78057C007D0105
:400400007B007A0079251209E7E4F53B02058E20000302058EE5406403453F600302058E900007E0FE900006E0FDEEF52FEDF530E536C394404038E536D3947F5031AE2F29
:40044000AF307C007D101208D28F348E338D328C318F4B8E4A8D498C48E4754F10F54EF54DF54CFF7E80FDFC12192C8F358050AE2FAF307C017D001208D2C004C005C006FC
:40048000C007AF36E4FCFDFEFBFA7901F812068DD003D002D001D0001206728F348E338D328C318F4B8E4A8D498C48E4F54F754E01F54DF54CFFFE7D10FC12192C8F35E588
:4004C00036D3943F5072AF367E007C207D001208D2E42FFFE43EFEED3408FDE43CFCC004A905AA06AB07AE2FAF307C007D201208D2D0001206728F348E338D328C31E4F5BA
:400500002DF52EC3E52E9420E52D9400502AE4E52E2534FFE52D3533FEE43532FDE43531A907AA06AB05121CF3EF2535F535052EE52E7002052D80CBE536702AAE2FAF301E
:40054000FCFD7BFFFAF9F8C31207C57019FD7F05120A3DC3E5359FF535E4FD7F06120A3DC3E5359FF535E535F404900005F0E4F53BF539753A018016E4FF120D84EF700604
:400580009046FA7480F01220718003753B057B017A007901853948853A49AF3B1215ED900000E0700302004330000302004322BB010689828A83E0225002E722BBFE02E399
:4005C0002289828A83E49322BB010689828A83F0225002F722BBFE01F322C5F0F8A3E028F0C5F0F8E582158270021583E038F022BB010A89828A83E0F5F0A3E022500687B6
:40060000F009E71922BBFE07E3F5F009E3192289828A83E493F5F074019322BB010789828A830205DA500B09C5F027F7C5F01937F722BBFE0D09F8E325F0F3C5F019E338A6
:40064000F322F889828A8374019325F0C5F0F8E4933822BB010A89828A83F0E5F0A3F0225006F709A7F01922BBFE06F3E5F009F31922EF2BFFEE3AFEED39FDEC38FC22C315
:40068000EF9BFFEE9AFEED99FDEC98FC22E88FF0A4CC8BF0A42CFCE98EF0A42CFC8AF0EDA42CFCEA8EF0A4CDA8F08BF0A42DCC3825F0FDE98FF0A42CCD35F0FCEB8EF0A47C
:4006C000FEA9F0EB8FF0A4CFC5F02ECD39FEE43CFCEAA42DCE35F0FDE43CFC2275F008758200EF2FFFEE33FECD33CDCC33CCC58233C5829BED9AEC99E58298400CF582EE4A
:400700009BFEED9AFDEC99FC0FD5F0D6E4CEFBE4CDFAE4CCF9A88222B800C1B90059BA002DEC8BF084CFCECDFCE5F0CBF97818EF2FFFEE33FEED33FDEC33FCEB33FB10D7C4
:4007400003994004EB99FB0FD8E5E4F9FA227818EF2FFFEE33FEED33FDEC33FCC933C910D7059BE99A4007EC9BFCE99AF90FD8E0E4C9FAE4CCFB2275F010EF2FFFEE33FE50
:40078000ED33FDCC33CCC833C810D7079BEC9AE899400AED9BFDEC9AFCE899F80FD5F0DAE4CDFBE4CCFAE4C8F922EF4BFFEE4AFEED49FDEC48FC22C3E49FFFE49EFEE49D2F
:4007C000FDE49CFC22EB9FF5F0EA9E42F0E99D42F0E89C45F022E8600FECC313FCED13FDEE13FEEF13FFD8F122E8600FEFC333FFEE33FEED33FDEC33FCD8F122BB010789DC
:40080000828A830208365005E9F8020A0DBBFE05E9F8020A1989828A83020842BB010789828A8302085E5005E9F8020A25BBFE05E9F8020A3122E0FCA3E0FDA3E0FEA3E06A
:40084000FF22E493FC740193FD740293FE740393FF22E0F8A3E0F9A3E0FAA3E0FB22ECF0A3EDF0A3EEF0A3EFF022E0FBA3E0FAA3E0F922EBF0A3EAF0A3E9F022E493FB74E9
:400880000193FA740293F922D083D082F8E4937012740193700DA3A393F8740193F5828883E4737402936860EFA3A3A380DFE5092582F582E5083583F583B50804858209B7
:4008C0002210AF06858209F50822858209F508D2AF22EC8EF0A4CCC5F0CCCDF8EFA4CEC5F02DFDE43CFCE8A42EC8C5F03DFDE43CFCEFA4FFE5F028FEE43DFDE43CFC22EF51
:400900004E6012EF60010EEDBB010B89828A83F0A3DFFCDEFA2289F05007F709DFFCA9F022BBFEFCF309DFFCA9F022E709F608DFFA8046E709F208DFFA803E88828C83E7AA
:4009400009F0A3DFFA8032E309F608DFFA806EE309F208DFFA806688828C83E309F0A3DFFA805A89828A83E0A3F608DFFA804E89828A83E0A3F208DFFA804280D280FA80F3
:40098000C680D4805580F28029801080A680EA809A80A880DA80E280CA802988848C8589828A83E493A30586F0A30586DFF5DEF3800B89828A83E493A3F608DFF9ECFAA95D
:4009C000F0EDFB2288848C8589828A83E0A30586F0A30586DFF6DEF480E389828A83E493A3F208DFF980D688F0EF60010E4E60CD88F0ED2402B4040050C3F582EB2402B455
:400A0000040050B9232345822390097B73E6FC08E6FD08E6FE08E6FF22E2FC08E2FD08E2FE08E2FF22ECF608EDF608EEF608EFF622ECF208EDF208EEF208EFF22290025D03
:400A4000EDF0AB079002627402F0E4FFFEFDFCA312085EEB1208880A79010AA6020ACB030AF0040B15050B40060B8F070B6B080BB3090BD70A00000C0190025DE0FF7E005E
:400A80007C017D001208D21207B7EF24C0FFEE34FFFEED3410FDE43CFCA312085E9002627401F0020C0C90025DE0FF7E007C017D001208D2C374C39FFF74FF9EFE74109DBD
:400AC000FDE49CFCA312085E020C0C90025DE0FF7E007C017D001208D2C374C79FFF74FF9EFE74109DFDE49CFCA312085E020C0C90025DE0FF7E007C017D001208D2C37433
:400B0000CB9FFF74FF9EFE74109DFDE49CFCA312085E020C0C90025DE0FF7E007C017D001208D2C374D09FFF74FF9EFE74109DFDE49CFCA312085E9002627401F0020C0C60
:400B400090025DE0FF7E007C017D001208D2C374D19FFF74FF9EFE74109DFDE49CFCA312085E9002627401F0020C0C90025DE0FF7E007C017D001208D2C374D69FFF74FF16
:400B80009EFE74109DFDE49CFCA312085E807D90025DE0FF7E007C017D001208D2C374D29FFF74FF9EFE74109DFDE49CFCA312085E805990025DE0FF7E007C017D00120811
:400BC000D2C374D49FFF74FF9EFE74109DFDE49CFCA312085E803590025DE0FF7E007C017D001208D2C374D89FFF74FF9EFE74109DFDE49CFCA312085E9002627404F08082
:400C00000BE4FFFEFDFC90025E12085E900262E0B4011990025E120836A907AA06AB05121CF3E4FCFDFE90026312085E900262E06402705C90025E120836EF2401FFE43E91
:400C4000FEE43DFDE43CA907AA06AB05121CF3E4FCFDFE90026312085E900263120852C000C001C002C00390025E120836A907AA06AB05121CF3E4FCFDFE78081207E9D0BA
:400C800003D002D001D0001207AA90026312085E900262E064046003020D7D90025E120836EF2403FFE43EFEE43DFDE43CA907AA06AB05121CF3E4FCFDFE90026312085E37
:400CC000900263120852C000C001C002C00390025E120836EF2402FFE43EFEE43DFDE43CA907AA06AB05121CF3E4FCFDFE78081207E9D003D002D001D0001207AA9002634F
:400D000012085E900263120852C000C001C002C00390025E120836EF2401FFE43EFEE43DFDE43CA907AA06AB05121CF3E4FCFDFE78101207E9D003D002D001D0001207AA84
:400D400090026312085E900263120852C000C001C002C00390025E120836A907AA06AB05121CF3E4FCFDFE78181207E9D003D002D001D0001207AA90026312085E90026356
:400D8000120836228F44AD447F03120A3DEF2401FFE43EFEE43DFDE43CFCE4FB7A01F9F812068DC004C005C006C007AD447F04120A3DD003D002D001D0001206728F4C8EA9
:400DC0004B8D4A8C49C201E4F54DAD447F03120A3DEF2401FFE43EFEE43DFDE43CFCE4FB7A01F9F812068D8F488E478D468C45AF4CAE4BAD4AAC49AB48AA47A946A845C337
:400E00001207C55032854882854783E493F54E6005F46002D201E54E254DF54DAF48AE47AD46AC45E47B01FAF9F81206728F488E478D468C4580B8AD447F03120A3DEF2479
:400E400001FFE43EFEE43DFDE43CFCE4FB7A01F9F812068D78031207D68F488E478D468C45E47FC07EFFFDFCAB4CAA4BA94AA849C31207C57007FF7E20FDFC800DAF4CAE21
:400E80004BAD4AAC4978031207D68F4C8E4B8D4A8C49AF4CAE4BAD4AAC49AB48AA47A946A845C31207C55039E42548FFE43547FEE5463408FDE43545A907AA06AB05121CB9
:400EC000F3EF254DF54DAF48AE47AD46AC45E47B01FAF9F81206728F488E478D468C4580B1E54DF404F54DAD447F01120A3DA804A905AA06AB07AF4DE4FCFDFEC31207C5CC
:400F000070032001037F06227F002290025EECF0A3EDF0A312087390025DEFF0E4900265F0EFD3943F500E90025DE0940140069002657401F090025DE0FFD3947F4006903A
:400F400002657401F0EFC39440400CEFD3944140069002657401F0EFD3943F501E90025EE0FEA3E0FFE4FCFDFB7A01F9F8C31207C5502F9002657401F08027D390025FE03C
:400F8000948090025EE0940040069002657401F0900263E07004A3E0641060069002657401F090026012086AE94A4B700590026504F0900265E0600302108A121EFEEF606E
:400FC0000302108490025EE0FCA3E0FDA312086A900263E0FFA3E090026CCFF0A3EFF090025DE0FF1211DE900265EFF06407600302107F904722E0540270087F01FE121EF6
:401000006480F0904722E054026009E0FF1313543FFF80027FFFEF7006900265F0800690026574FFF0900265E0705490025DE0FFA3E0FCA3E0FD900353E0FBA3E090026AD9
:40104000F0121A90900265EFF064077032904722E0540270087F01FE121E6480F0904722E054026009E0FF1313543FFF80027FFFEF7006900265F0800690026574FFF0124B
:40108000205180069002657404F0900265E0FF227B007A4679E8121CF3EF4401FD7B007A4679E8122045E4F52CE52CC3940A502CE52C75F005A42461F582E43424AF82F571
:4010C000218F22F58312087C8F82852183740393FC740493FD121F6E052C80CDE4F52CE52CC394015046E52C75F007A42413F582E43425AF82F5238F24F58312087C8B25E1
:401100008A2689278F82852383740393FE7404938E28F529740593F52A740693F52BAD29AC28FFAE2A121EB8052C80B37E207F92121DD97B017A507903121CF3EF4402FD3B
:401140007B017A5079031220457B017A507913121CF3EF4402FD7B017A5079131220459043A0E04440F09043C2E04410F07C207D827B007A5179127F087E00121EB87C2053
:401180007D8A7B007A5179227F087E00121EB89044F47401F0904322E04408F09046ECE0C394055006904689743AF090480074F1F012150690480074B1F0121F1D7B007A41
:4011C0004379A0C00179B0900005120873D0017F0E7E00121D749043B0E054FDF022900266EFF0A3ECF0A3EDF0A312087390026E7407F0904722E0540270030212EE904756
:401200002074B6F074D5F07402F0904722E0540260030212E6900266E0904720F0E490026FF0A3F090026CE0FEA3E0FF90026FE0FCA3E0FDC39FEC9E501F90026912086A8D
:40124000E92DF9EA3CFA1205AF904720F090026FE475F0011205DA80CB90026CE064017002A3E060030212F4900266E0FFD3943F40030212F47E007C207D001208D2E42F0A
:40128000FFE43EFEED3408FDE43CFCC004A905AA06AB07A3E0FEA3E0FF7C007D201208D2D00012067290027112085EE490026FF0A3F090026FE0FEA3E0FFC39420EE94005A
:4012C0005032E4FCFDA3120852120672A907AA06AB05121CF3904720EFF090026FE475F0011205DA80CC90026E7409F0800690026E7404F090026EE0FF228B448A4589469E
:401300008C478D48755505E4F54DF54EE54C75F00AA4FFC3E54E9FE54D95F0503B121B34EF6022121B347553008F54E47F19FEFDFC1218C7121B34D3EF9554E4955350E366
:40134000E4F5558013E47F01FEFDFC1218C7054EE54E7002054D80B4AB49AA4AA94BE4F5F0120653E4F54FF550121B34EFD394005003021412121B347551008F52AB49AA8D
:401380004AA94BE5518552F012061BAB49AA4AA94B1205F0C39548E5F09547505FE4F54DF54EC3E54E9552E54D95515025121C1CAB44E5462550F9E545354FFAEF1205C8C1
:4013C0000550E5507002054F054EE54E7002054D80D0AB44E55024FFFFE54F34FFFEE5462FF9E5453EFA1205AF64177003021369E47F05FEFDFC1218C7021369AB49AA4ABB
:40140000A94B1205F0C39552FFE5F095518FF0120653AF552275930078007583467582E8E04401F0009046ECE0F99046FAE0FA90034BF0B903225420B40012B8001AEA9014
:401440001FFFF07401901FFEF09046F6F0901FFEE06005901FFFE0FA90480074C0F0758156121EDE90000078007920E4F0A3D8FCD9FAEA90034BF002001175081F7509FD1F
:401480001210900214C1022079E493A3F8E493A34003F68001F208DFF48029E493A3F85407240CC8C333C4540F4420C8834004F456800146F6DFE4800B0102040810204063
:4014C00080901B83E47E019360BCA3FF543F30E509541FFEE493A360010ECF54C025E060A840B8E493A3FAE493A3F8E493A3C8C582C8CAC583CAF0A3C8C582C8CAC583CABE
:40150000DFE9DEE780BE7B007A4079807D337C001220279040827418F09043007402F09040007408F09042007403F07B0C7A017908121CF39046A1EFF07B007A4279227D68
:40154000087C001220277B007A4279207D517C12122027E4900004F07F19FEFDFC90000012085E900000120836D3EF9400EE9400403B900004E0FF64036032904225E05440
:4015800001FEEF25E04E5403900004F0E47FE07E01FDFC121D0090000012083674FFFBFAF9F812067290000012085E80B6900000120836EF4E70057F0312207F7B007A402A
:4015C00079047D007C011220279040047407F0904006E4F09040087448F0904004E4F09040017402F09043A2E04401F0228B458A46894774011205C8AB452547F9E43546AB
:40160000FAEF1205C8E549AB45E5472402F9E43546FAE5491205C8E548FFAB45E5472403F9E43546FAEF1205C8AB45AA46A947E5492404FDE43548FC121C668E4A8F4BEFCF
:40164000AB45E5492404FDE43548FCE5472DF9E5463CFAEF1205C8E54AFFAB45E5492405FDE43548FCE5472DF9E5463CFAEF1205C8AB45E5492406FFE43548FEE5472FF9FF
:40168000E5463EFA74171205C8E5492407FDE43548FC755100755200755348755496AB45AA46A947121BD122C0E0C083C082C085C084C086758600C093759300C0D075D09F
:4016C00000C001C002C003C006C007E4FBA2AF33FAD2AF9044F474FDF090646CE0FFFE541EF960069002FDE049F0EF30E54590644AE0FE9002F9E02478F582E43402F583E5
:40170000EEF07B01EB602C900276E060069002FC7401F09002F9E004F0E0C394404002E4F0900277E0FE9002F9E0B506069002767401F0EF20E5A2AF02EA24FF92AFD007BF
:40174000D006D003D002D001D0D0D093D086D084D085D082D083D0E032752106E4FF120D84EF7002F521E4F54BF54AF549F548900357E0FEA3E0F5828E831208428F4F8E82
:401780004E8D4D8C4CE4FFFE7D10FC12192C900355E0FCA3E0F5828C83E493FEC3EF9EFFF404FFB50612900357E0FEA3E0F5828E83120842EF4E70057F00121FB79046FAFB
:4017C000E054C064406004E52160099046FAE4F0FF12001A12205D22C0E0C083C082C085C084C086758600C093759300C0D075D000C006C007A2AFE433FFD2AF9044F4742E
:40180000FDF09002FAE0FE9002B8E06E602C90646EE020E2259002B8E0C394404002E4F09002B8E024B9F582E43402F583E090644DF09002B8E004F080C8EF24FF92AFD043
:4018400007D006D0D0D093D086D084D085D082D083D0E032A9079002FAE0FF9002B8E0FEEFC39E501AEE24FFFDE434FFFCEF7A00B50508EAB504047D0180027D00800CC346
:40188000EF9EB43F047D0180027D00ED70C8EEB5070D90646EE020E20690644DE9F022EFC394404002E4FF74B92FF582E43402F583E9F00F9002FAEFF090646EE030E10609
:4018C0009044D07402F02290FFFC1208AE12085E850883850982120836D3EF9400EE9480402E90034C120836121D00850883850982C083C082120836E42FFFEE3480FEEDC9
:4019000034FFFDEC34FFFCD082D08312085E80C090034212083685088385098212085212068D121D009000041208AE228F478E468D458C44E4F550D3E54F9400E54E940025
:40194000404BAF4FAE4EAD4DAC4C74FFFBFAF9F81206728F4F8E4E8D4D8C4CE547254BFFE546354AFEE5453549FDE5443548FCEF254FFFEE354EFEED354DFDEC354CA907BD
:40198000AA06AB051205AF2550F55080AAAF5022121FE190025E74FFF0121EFEEF703B7F01121E35EF6407702C7B017A0379537D021219E6EFB40215E490025EF090472228
:4019C000E0540270107F01FE121E6480F0904722E0540260D4122051800690025E7404F090025EE0FF2290025F120873900262EDF0E4A3F0900262E0FFA3E0C39F50379065
:401A00004722E054016003D38001C340097F017E00121E6480E9904720E0FF90025F12086A900263E029F9E43AFAEF1205C8900263E004F080BE900263E0FF2290025EEC49
:401A4000F0A3EDF090025DEFF0541F25E0FFE433FEE42FFFEE3444FAA9077B0112201A900260EEF0A3EFF090025DE075F002A42400FFE5F03444FAA9077B01A3E0FEA3E0EC
:401A8000FFFDAC06122029900260E0FEA3E0FF22900267ECF0A3EDF0AC077D07904722E05402603B90472074B6F074D8F07405F0904722E054027023904720ECF09002670F
:401AC000E0904720F0900267E0A3E0904720F0EBF090026AE0904720F080067D0980027D04AF0522121FE1121EFEEF703B121F3A90025EEFF06407702A904722E0540270A1
:401B0000087F01FE121E6480F0904722E054026009E0FF1313543FFF80027FFFEF700490025EF0122051800690025E7404F090025EE0FF229044C87401F09002F9E0FE905D
:401B40000277E0B5060E900276E060047F40802CE4FF80289002F9E0FE900277E0C39E500BE0FE9002F9E0C39EFF8010900277E0FEC374409EFE9002F9E02EFF9044C07420
:401B800001F022420355251A420357251B430350000000440347016E360044034200005DC04103461844034C2EE000004102FB004102B8004102FA004102FD00410277003B
:401BC0004102F900410276004102FC0041035B00008B4C8A4D894E8C4F8D50E4F555F556121E07C3E5569550E555954F501DAB4CE54E2556F9E54D3555FA1205AFFF121874
:401C0000540556E5567002055580D8AB51AA52A953E54F8550F01206537F00229044C87401F0900277E0FE9002F9E0FD900276E07004EE6D602474782EF582E43402F583EF
:401C4000E0FF0EEEC394404002E4FE900277EEF0900276E06009E4F0800590644AE0FF9044C07401F0228B4C8A4D894EE4F54FF550D3ED9400EC94004025AB4CED24FFFFD4
:401C8000EC34FFFEE54E2FF9E54D3EFA1205AF2550F550E4354FF54FED1D70011C80D2E550F4FFE54FF4FEEF2401FFE43EFE227C167DA8E4FF121A3C7D07E4FF121F55E4B7
:401CC0009002FDF090648A7469F090648C7420F07C177DD87F01121A3C7D077F01121F5590642E7406F090643E7447F090648E7402F0228B938A838982E0759300FF22000A
:401D0000EC4D4E700D78FCEF24E950032840FD2200007BF178DA0000EF28FF78FFEE38FEED38FDEC38FC50E7EF2BFFEE38FEED38FDEC38FC40F22205020304121FCC9002FD
:401D40005DEFF090649AE04420F090649CE04410F09044C07401F090649EE04410F09044D87402F09044C0F012203690025DE0FF121F9F22758600EF4E6027EF60010E75B2
:401D80009300900005E0F595A3E0F585A3E0F5848B938A838982E0A30586F0A31586DFF6DEF4E4F593F59522121FCC9043A0E04408F09043B0E04408F090470174C8F090A8
:401DC00043ACE04410F09043BCE04410F0904700E0542060F8121F9F22ACEAADA08E838F82E493F9601CA3E493F5EAA3E493F5A0A3E49360F1FAA3E493F8A3E493F2DAF6BC
:401E0000D9E48DA08CEA22121FCC90649AE04401F0E054FEF0121F9F9044C87401F0E4900277F09002F9F0900276F09002FCF09044C004F0227E07904722E05402601F9052
:401E4000472074B6F074E1F0740EF0904722E054027007904720EFF080067E0980027E04AF062200EEFA900346E0F88FF0A4FFAEF0E88AF0A42EFEE5F03400FDEF24C9FF5A
:401E800078FFEE38FEED38FDE438FC5003021D0022121FCC90649DE04401F0E054FEF0121F9F9044C87402F0E49002B8F09002FAF09044C07402F022758600EF4E601BEFCA
:401EC00060010E8C838D828B958A858984E493A30586F0A31586DFF5DEF3E4F595229046FAE054C064807015F0FD7F02120A3DEF4E600AE4FD7F02120A3D122009229002CC
:401F0000667404F0121FCC90035BE0700704F0E4900266F0121F9F900266E0FF227B0C7A0179CF121CF3EF540790586EF0EFC4540FA3F09058767444F0227F07904722E0DD
:401F40005402600E90472074B6F074E0F0740DF080027F0422AC07ED540775F020A4FFEC541F2480F582E43444F583EFF022EC4D6011ED60010C8B938A838982E4F0A3DDB0
:401F8000FCDCFA75930022121AE490025DEFF0700812199090025DEFF090025DE0FF22EF54016004D2AF8002C2AFEF5402FF9044F4E054FD4FF02290FFFF1208AEEFF090D7
:401FC00046EA7401F09000011208AE229044F4E0F84402F0E85402FF10AF012274014FFF22121FCC9043A0E04408F09043B0E04408F0121F9F229002FBE07009121CAF9087
:4020000002FB7401F0121D3B2290034BE0FA8E838F827400758101738B938A838982E0FFA3E0FE759300228B938A838982EDF0A3ECF0759300229043A2E04401F09043B26F
:40204000E04401F0228B938A838982EDF075930022121FCCE490035BF0121F9F229046FA7480F012207122121FF6121E07121E91229046F6E04401F02212175980FE2280DC
:40208000FE22007F7B007B00000030D8C800D800000016005205082309121098118814200064047E3F8A698C3A8E0F010101E204010301E6020105028702E008010604B82E
:4020C00002BE01D804DF010107021B02A702010A088501890195019901B101BF01D904DF01010B4F00400106038808010A040B111028130219641A041B0A202021082230E9
:40210000274028282A022B022E033080310232103304340836203708382239803A083C283E084028410843824A024B0152045B4068286A016B027090712072108D408E104D
:402140008F809042910493109621980199029B0C9D649E049F80A004A102A202A490A520A702AB01B021B405B602B744C00FC20FC40ECA0FCC6FCE6FD00FD208D608E0083A
:40218000E801010C4C0001021608E70A180E3F101E120114C6163918481C88208824DD262228232ADC2CC8301F320834E03A22541A560458045B045F018008824284F88698
:4021C000018704880F89028AF08D068EC792849308943996C698109C20A020A101A43FA6C0A906AA08AC30B031B106B308B501B6FFB702B982BE40BF11C062C101C5E0C6DA
:40220000CBC80EC9FFCAFFCBFFCEF0CF44D00CD804D904DA04DF01E6C0EA40EB02010D46002901100210030B04010709080209260A310D220E11108012481388151016502C
:402240001780180219021C081D021E201F20200421012208230128402920320238C839A43A083B10414042084921502053405E205F026540674887409088912093089502C2
:40228000978098409B4A9C029D259E049F04A420A504A72AB001B301C0DFC2FFC4FFCA05CC01CE0ED00CD204D6A0D8B0010E4E040906D007230B080C0C0D210E710F0E1048
:4022C00014141016AC170C18DC1A221B201E0321102410264029212A202B062D0C2F2330E03310350F361F37203A023B203F444004464049FF4A074BFF4C404D204EF04F8A
:4023000005500854015604580459045A045B045F01604061A862406320871F89198B0691019304950997029A01A506A719A919AA01AB06AF0FB201B310B507B708B908BB65
:4023400020BE04D804D904DB04DF01010F3C004404040504084809200A010B800E0810081210160418C01A011F042130224425102604270A280829212A802F2A303031047A
:402380003402370438883A103D284101500C5210581059015A886380680169046A206B406F0171407304821083408550868089048B04C005C24FC446CA7DCCC6CE6ED00101
:4023C000D60FD801E40C014005322035808180CC30E2200141038620A620E6400144058301870188C0E004E40401450F0C0857025B046401660193029889A040A301B009C2
:40240000C204D607D801E801EC0401460D8702900893029888A040A301A702AB04B40CB601E808EC02EE08014705900893029888A040A301014C0E5004544057015808607D
:40244000806702900893029888A040A301D406D607D80201500300010C010E01015101000F005100001000513000400051C000100051F000100100000A00010A800580018E
:40248000140008000140000A00014C000200015000002000008080207D050000040800130C0400030204200A031410130C0C7300088000400800004043003C404F003000DE
:4024C0000000734000303F0FC0800008002028000040003402010005C0000E12FFFFFF62A0F0410C00000000000210040404040000000100000000000040020010301000CE
:4025000010101200000000000000000000000000000000010A002493008061000026006930091E031E010100000000000000000000000000000000000000000000000000BD
:40254000000000000000000000000000000000000000000000000000000000000000000000000000000000000000000000000000000000000000000000000000000000005B
:40258000000000000000000000000000000000000000000000000000000000000000000000000000000000000000000000000000000000000000000000000000000000001B
:4025C00000000000000000000000000000000000000000000000000000000000000000000000000000000000000000000000000000000000000000000000000000000000DB
:4026000002C87D008F828E83E0540100000070F82278FFE4F6D8FD02C90B900002EEF0A3EFF078047C007D017BFF7A4C79D37E077F6D12892C9007717407F0A3746DF078EB
:40264000787C077D017BFF7A5479407E007F0F12892C78877C077D017BFF7A54794F7E007F1C12892C78A37C077D017BFF7A54796B7E007F1B12892C78BE7C077D017BFF45
:402680007A5479867E007F1C12892C78DA7C077D017BFF7A5479A27E007F2212892C78FC7C077D017BFF7A5479C47E007F2712892C78237C087D017BFF7A5479EB7E007FA6
:4026C0001112892C78347C087D017BFF7A5479FC7E007F1912892C784D7C087D017BFF7A5579157E007F1112892C785E7C087D017BFF7A5579267E007F1C12892C787A7C39
:40270000087D017BFF7A5579427E007F1D12892C78977C087D017BFF7A55795F7E007F1B12892C78B27C087D017BFF7A55797A7E007F1412892C78C67C087D017BFF7A5554
:40274000798E7E007F2512892C78EB7C087D017BFF7A5579B37E007F1512892C78007C097D017BFF7A5579C87E007F1512892C78157C097D017BFF7A5579DD7E007F141286
:40278000892C78297C097D017BFF7A5579F17E007F2412892C784D7C097D017BFF7A5679157E007F1912892C78667C097D017BFF7A56792E7E007F1812892C787E7C097D02
:4027C000017BFF7A5679467E007F1412892C78927C097D017BFF7A56795A7E007F2412892C78B67C097D017BFF7A56797E7E007F2312892C78D97C097D017BFF7A5679A1D4
:402800007E007F1512892C78EE7C097D017BFF7A5679B67E007F1D12892C780B7C0A7D017BFF7A5679D37E007F1812892C78237C0A7D017BFF7A5679EB7E007F1912892CD9
:40284000783C7C0A7D017BFF7A5779047E007F2512892C78617C0A7D017BFF7A5779297E007F6312892C78C47C0A7D017BFF7A57798C7E007F4012892C78047C0B7D017B6E
:40288000FF7A5779CC7E007F2A12892C7B017A07797812EDE98F2C7B017A07798712EDE98F2D7B017A0779A312EDE98F2E7B017A08792312EDE98F2F7B017A08793412ED3B
:4028C000E98F307B017A08794D12EDE98F317B017A08797A12EDE98F327B017A08799712EDE98F337B017A0879B212EDE98F347B017A0879EB12EDE98F357B017A09790018
:4029000012EDE98F367B017A09791512EDE98F377B017A09794D12EDE98F387B017A0979D912EDE98F397B017A0A796112EDE98F3A7B017A0A79C412EDE98F3B7B017A0BBF
:40294000790412EDE98F3C7B017A09797E12EDE98F3D7B017A09799212EDE98F3E7B017A0979B612EDE98F3F7B017A0A793C12EDE98F40900004740CF0A3741CF0900002B5
:40298000E0FEA3E0FFEE6003023FC8EFB41D004003023FC890299BF82828730229F20239FC023A05023B01023BCE023BE1023BEA023BF3023C1E023C9C023CD9023CE20280
:4029C0003DB8023E3E023E4E023E57023E76023E9F023EA8023EBF023EC8023ED1023F03023F41023F56023F90023F99023FA2023FB09000067402F0A314F0900B38E090E8
:402A00000008F0852C2AE52A6032FFC3E52C9FFFE49400FE74782FF58274073EF583E0FFE52AFDE52CC39DFDE49400FC74092DF58274003CF583EFF0152A80CA90003874BE
:402A400007F0A37403F0900B6BE064036068900B39E0FCA3E0FDA3E0FEA3E0FFEC1282B4E4FBFA7980784712819E90003A1287CD900B3DE0FCA3E0FDA3E0FEA3E0FFEC12B2
:402A800082B4E4FBFA7980784712819E90003E1287CD900B41E0FCA3E0FDA3E0FEA3E0FFEC1282B4E4FBFA7980784712819E9000421287CD8063900B51E0FCA3E0FDA3E0D3
:402AC000FEA3E0FFEC1282B4E4FBFAF9784612819E90003A1287CD900B55E0FCA3E0FDA3E0FEA3E0FFEC1282B4E4FBFAF9784612819E90003E1287CD900B59E0FCA3E0FD69
:402B0000A3E0FEA3E0FFEC1282B4E4FBFAF9784612819E9000421287CD852D2AE52A6032FFC3E52D9FFFE49400FE74872FF58274073EF583E0FFE52AFDE52DC39DFDE4945C
:402B400000FC74462DF58274003CF583EFF0152A80CA90006A7407F0A37403F0900B6BE064036068900B45E0FCA3E0FDA3E0FEA3E0FFEC1282B4E4FBFA7980784712819EB2
:402B800090006C1287CD900B49E0FCA3E0FDA3E0FEA3E0FFEC1282B4E4FBFA7980784712819E9000701287CD900B4DE0FCA3E0FDA3E0FEA3E0FFEC1282B4E4FBFA7980784F
:402BC0004712819E9000741287CD8063900B5DE0FCA3E0FDA3E0FEA3E0FFEC1282B4E4FBFAF9784612819E90006C1287CD900B61E0FCA3E0FDA3E0FEA3E0FFEC1282B4E4EF
:402C0000FBFAF9784612819E9000701287CD900B65E0FCA3E0FDA3E0FEA3E0FFEC1282B4E4FBFAF9784612819E9000741287CD852E2AE52A6032FFC3E52E9FFFE49400FE2C
:402C400074A32FF58274073EF583E0FFE52AFDE52EC39DFDE49400FC74782DF58274003CF583EFF0152A80CAE490009CF0A304F0900B69E090009EF0900B69601C900B3192
:402C800074FFF0A3743FF0A374C9F07B017A0779BE12E002752B1C801A900B3174FFF0A3743FF0A374CFF07B017A0779BE12E002752B1B852B2AE52A6032FFC3E52B9FFF04
:402CC000E49400FE74BE2FF58274073EF583E0FFE52AFDE52BC39DFDE49400FC749F2DF58274003CF583EFF0152A80CA749F252BF582E43400F5837403F0E49000CEF0A39C
:402D000004F0900B6AE09000D0F0900B6A14603314604C14606514607E147003022DB324056003022DCD900B3174FFF0A3743FF0A374D4F07B017A0779DA12E002752B14FA
:402D4000022DCD900B3174FFF0A3743FF0A374DAF07B017A0779DA12E002752B17806E900B3174FFF0A3743FF0A374E3F07B017A0779DA12E002752B218052900B3174FFA3
:402D8000F0A3743FF0A374F6F07B017A0779DA12E002752B1D8036900B3174FFF0A37440F0A37405F07B017A0779DA12E002752B19801A900B3174FFF0A37440F0A3741073
:402DC000F07B017A0779DA12E002752B22852B2AE52A6032FFC3E52B9FFFE49400FE74DA2FF58274073EF583E0FFE52AFDE52BC39DFDE49400FC74D12DF58274003CF5837A
:402E0000EFF0152A80CA74D1252BF582E43400F5837401F0E4900100F0A304F0900B6BE0900102F0900B6B14602614603F1460582403706E900B3174FFF0A37440F0A37413
:402E400024F07B017A0779FC12E002752B1B8052900B3174FFF0A37440F0A3742FF07B017A0779FC12E002752B168036900B3174FFF0A37440F0A37435F07B017A0779FCA9
:402E800012E002752B1A801A900B3174FFF0A37440F0A3743FF07B017A0779FC12E002752B27852B2AE52A6032FFC3E52B9FFFE49400FE74FC2FF58274073EF583E0FFE575
:402EC0002AFDE52BC39DFDE49400FC74032DF58274013CF583EFF0152A80CA7403252BF582E43401F5837402F0900132F0A304F0E4F52AE52AC39403501E746C252AF5821F
:402F0000E4340BF583E0FF7434252AF582E43401F583EFF0052A80DB852F2AE52A6032FFC3E52F9FFFE49400FE74232FF58274083EF583E0FFE52AFDE52FC39DFDE4940003
:402F4000FC74372DF58274013CF583EFF0152A80CA9001647403F0A3F0E4F52AE52AC394035044E52A25E025E0246FF582E4340BF583E0FCA3E0FDA3E0FEA3E0FF746C2564
:402F80002AF582E4340BF583E0F9F812876C75F002E52AA42466F582E5F03401F583EEF0A3EFF0052A80B585302AE52A6032FFC3E5309FFFE49400FE74342FF58274083E2B
:402FC000F583E0FFE52AFDE530C39DFDE49400FC746C2DF58274013CF583EFF0152A80CA9001967407F0A37403F0E4F52AE52AC394035031E52A25E025E0247BF582E434A3
:403000000BF583E0FCA3E0FDA3E0FEA3E0FF75F004E52AA42498F582E5F03401F5831287CD052A80C885312AE52A6032FFC3E5319FFFE49400FE744D2FF58274083EF583FA
:40304000E0FFE52AFDE531C39DFDE49400FC74A42DF58274013CF583EFF0152A80CAE49001C8F0A304F0900B87E09001CAF0900B87601C900B3174FFF0A3743FF0A374C92D
:40308000F07B017A08795E12E002752B1C801A900B3174FFF0A3743FF0A374CFF07B017A08795E12E002752B1B852B2AE52A6032FFC3E52B9FFFE49400FE745E2FF58274E5
:4030C000083EF583E0FFE52AFDE52BC39DFDE49400FC74CB2DF58274013CF583EFF0152A80CA74CB252BF582E43401F5837403F09001FA7405F0A37402F0E4F52AE52AC302
:4031000094014003023188E52A25E025E02488F582E4340BF583E0FCA3E0FDA3E0FEA3E0FF746C252AF582E4340BF583E0F9F812876C75F008E52AA424FCF582E5F03401EE
:40314000F5831287CDE52A25E025E02490F582E4340BF583E0FCA3E0FDA3E0FEA3E0FF746C252AF582E4340BF583E0F9F812876C75F008E52AA42400F582E5F03402F583DE
:403180001287CD052A0230FD85322AE52A6032FFC3E5329FFFE49400FE747A2FF58274083EF583E0FFE52AFDE532C39DFDE49400FC74042DF58274023CF583EFF0152A805F
:4031C000CA90022C7405F0A37402F0900B9CE0FCA3E0FDA3E0FEA3E0FF90022E1287CD900B98E0FCA3E0FDA3E0FEA3E0FF9002321287CD85332AE52A6032FFC3E5339FFF62
:40320000E49400FE74972FF58274083EF583E0FFE52AFDE533C39DFDE49400FC74362DF58274023CF583EFF0152A80CA90025E7403F0A37401F0900BA0E0FFA3E090026093
:40324000CFF0A3EFF085342AE52A6032FFC3E5349FFFE49400FE74B22FF58274083EF583E0FFE52AFDE534C39DFDE49400FC74622DF58274023CF583EFF0152A80CAE49047
:403280000290F0A304F0900BA6E0900292F0900BA6601C900B3174FFF0A3743FF0A374C9F07B017A0879C612E002752B25801A900B3174FFF0A3743FF0A374CFF07B017AED
:4032C0000879C612E002752B24852B2AE52A6032FFC3E52B9FFFE49400FE74C62FF58274083EF583E0FFE52AFDE52BC39DFDE49400FC74932DF58274023CF583EFF0152A9D
:4033000080CA7493252BF582E43402F5837403F09002C204F0A37402F0900BA2E0FFA3E09002C4CFF0A3EFF0900BA4E0FFA3E09002C6CFF0A3EFF085352AE52A6032FFC374
:40334000E5359FFFE49400FE74EB2FF58274083EF583E0FFE52AFDE535C39DFDE49400FC74C82DF58274023CF583EFF0152A80CA9002F47406F0A37402F0900BA7E0FCA3E6
:40338000E0FDA3E0FEA3E0FF9002F61287CD900BABE0FCA3E0FDA3E0FEA3E0FF9002FA1287CD85362AE52A6032FFC3E5369FFFE49400FE74002FF58274093EF583E0FFE520
:4033C0002AFDE536C39DFDE49400FC74FE2DF58274023CF583EFF0152A80CA9003267402F0A314F0900BAFE0900328F085372AE52A6032FFC3E5379FFFE49400FE74152F46
:40340000F58274093EF583E0FFE52AFDE537C39DFDE49400FC74292DF58274033CF583EFF0152A80CAE4900358F0A304F0900BB0E090035AF0900BB0601C900B3174FFF0E2
:40344000A3743FF0A374C9F07B017A09792912E002752B24801A900B3174FFF0A3743FF0A374CFF07B017A09792912E002752B23852B2AE52A6032FFC3E52B9FFFE494003D
:40348000FE74292FF58274093EF583E0FFE52AFDE52BC39DFDE49400FC745B2DF58274033CF583EFF0152A80CA745B252BF582E43403F5837403F090038A7401F0A3F09091
:4034C0000BB1E090038CF085382AE52A6032FFC3E5389FFFE49400FE744D2FF58274093EF583E0FFE52AFDE538C39DFDE49400FC748D2DF58274033CF583EFF0152A80CAFB
:40350000E49003BCF0A304F0900BB2E09003BEF0900BB2601C900B3174FFF0A3743FF0A374C9F07B017A09796612E002752B18801A900B3174FFF0A3743FF0A374CFF07B6B
:40354000017A09796612E002752B17852B2AE52A6032FFC3E52B9FFFE49400FE74662FF58274093EF583E0FFE52AFDE52BC39DFDE49400FC74BF2DF58274033CF583EFF07C
:40358000152A80CA74BF252BF582E43403F5837403F09003EE7405F0A37401F0900BCDE0FCA3E0FDA3E0FEA3E0FF900B6CE0F9F812876C9003F01287CD853D2AE52A603282
:4035C000FFC3E53D9FFFE49400FE747E2FF58274093EF583E0FFE52AFDE53DC39DFDE49400FC74F42DF58274033CF583EFF0152A80CA9004207405F0A37401F0900BD1E01A
:40360000FCA3E0FDA3E0FEA3E0FF9004221287CD853E2AE52A6032FFC3E53E9FFFE49400FE74922FF58274093EF583E0FFE52AFDE53EC39DFDE49400FC74262DF5827404F4
:403640003CF583EFF0152A80CA9004527405F0A37401F0900BD5E0FCA3E0FDA3E0FEA3E0FF9004541287CD853F2AE52A6032FFC3E53F9FFFE49400FE74B62FF58274093EA6
:40368000F583E0FFE52AFDE53FC39DFDE49400FC74582DF58274043CF583EFF0152A80CA9004847407F0A314F0E4F52AE52AC394065031E52A25E025E024B3F582E4340B0A
:4036C000F583E0FCA3E0FDA3E0FEA3E0FF75F004E52AA42486F582E5F03404F5831287CD052A80C885392AE52A6032FFC3E5399FFFE49400FE74D92FF58274093EF583E0D1
:40370000FFE52AFDE539C39DFDE49400FC749E2DF58274043CF583EFF0152A80CAE49004B6F0A304F0900BDDE09004B8F0900BDD601C900B3174FFF0A3743FF0A374C9F0C3
:403740007B017A0979EE12E002752B1D801A900B3174FFF0A3743FF0A374CFF07B017A0979EE12E002752B1C852B2AE52A6032FFC3E52B9FFFE49400FE74EE2FF582740951
:403780003EF583E0FFE52AFDE52BC39DFDE49400FC74B92DF58274043CF583EFF0152A80CA74B9252BF582E43404F5837403F0E49004E8F0A304F0900BDCE09004EAF090F7
:4037C0000BDC601C900B3174FFF0A3743FF0A374C9F07B017A0A790B12E002752B18801A900B3174FFF0A3743FF0A374CFF07B017A0A790B12E002752B17852B2AE52A6094
:4038000032FFC3E52B9FFFE49400FE740B2FF582740A3EF583E0FFE52AFDE52BC39DFDE49400FC74EB2DF58274043CF583EFF0152A80CA74EB252BF582E43404F583740383
:40384000F0E490051AF0A304F0A3F0900B3174FFF0A3743FF0A374CFF07B017A0A792312E002752B18852B2AE52A6032FFC3E52B9FFFE49400FE74232FF582740A3EF58346
:40388000E0FFE52AFDE52BC39DFDE49400FC741D2DF58274053CF583EFF0152A80CA741D252BF582E43405F5837403F090054C14F0A304F0900BD9E0FF744E252AF582E4E3
:4038C0003405F583EFF0900BDAE0FF744F252AF582E43405F583EFF0900BDBE0FF7450252AF582E43405F583EFF085402AE52A6032FFC3E5409FFFE49400FE743C2FF582B3
:40390000740A3EF583E0FFE52AFDE540C39DFDE49400FC74512DF58274053CF583EFF0152A80CA853A2AE52A6032FFC3E53A9FFFE49400FE74612FF582740A3EF583E0FF67
:40394000E52AFDE53AC39DFDE49400FC747E2DF58274053CF583EFF0152A80CA853B2AE52A6032FFC3E53B9FFFE49400FE74C42FF582740A3EF583E0FFE52AFDE53BC39D22
:40398000FDE49400FC74142DF58274063CF583EFF0152A80CA853C2AE52A6032FFC3E53C9FFFE49400FE74042FF582740B3EF583E0FFE52AFDE53CC39DFDE49400FC74AA03
:4039C0002DF58274063CF583EFF0152A80CA7B017A007904900771E0A3E014FD12E976900771E0FCA3E0FD2403F58274003CF583EFF07B017A00790412D45722900DB1E024
:403A0000900C51F022900B6BE064036064E4FFFE7D807C47900DB1E0F8A3E0F9A3E0FAA3E0FB1280951282F2900C521287CDE4FFFE7D807C47900DB5E0F8A3E0F9A3E0FA73
:403A4000A3E0FB1280951282F2900C561287CDE4FFFE7D807C47900DB9E0F8A3E0F9A3E0FAA3E0FB1280951282F2900C5A1287CD22E4FFFEFD7C46900DB1E0F8A3E0F9A36D
:403A8000E0FAA3E0FB1280951282F2900C6A1287CDE4FFFEFD7C46900DB5E0F8A3E0F9A3E0FAA3E0FB1280951282F2900C6E1287CDE4FFFEFD7C46900DB9E0F8A3E0F9A34A
:403AC000E0FAA3E0FB1280951282F2900C721287CD900C6AE0FCA3E0FDA3E0FEA3E0FFEC1282B47B9A7A997999784512823B4003023FC8E47F337E13FDFC900C6A1287CD16
:403B000022900B6BE064036064E4FFFE7D807C47900DB1E0F8A3E0F9A3E0FAA3E0FB1280951282F2900C5E1287CDE4FFFE7D807C47900DB5E0F8A3E0F9A3E0FAA3E0FB12B3
:403B400080951282F2900C621287CDE4FFFE7D807C47900DB9E0F8A3E0F9A3E0FAA3E0FB1280951282F2900C661287CD22E4FFFEFD7C46900DB1E0F8A3E0F9A3E0FAA3E087
:403B8000FB1280951282F2900C761287CDE4FFFEFD7C46900DB5E0F8A3E0F9A3E0FAA3E0FB1280951282F2900C7A1287CDE4FFFEFD7C46900DB9E0F8A3E0F9A3E0FAA3E031
:403BC000FB1280951282F2900C7E1287CD22900DB1E06007900C827403F022E4900C82F022900DB1E0900C83F022900DB1E0900C84F022E4F52AE52AC394034003023FC8B4
:403C000074B1252AF582E4340DF583E0FF7485252AF582E4340CF583EFF0052A80D8E4F52AE52AC394035071E52A25E024B1F582E4340DF583E0FEA3E0FFEE3395E0FDFC43
:403C4000E52A25E025E02488F582E4340CF5831287CDE52A25E025E02488F582E4340CF583C083C082E0FCA3E0FDA3E0FEA3E0FF7485252AF582E4340CF583E0F9F8128785
:403C800080D082D0831287CD747D252AF582E4340EF583E4F0052A8088D20B22E4F52AE52AC394034003023FC8E52A25E025E024B1F582E4340DF583E0FCA3E0FDA3E0FE83
:403CC000A3E0FFE52A25E025E02494F582E4340CF5831287CD052A80C6900DB1E0900CA0F022E4F52AE52AC394024003023FC8E52A75F008A424B1F582E4340DF583E0FC6B
:403D0000A3E0FDA3E0FEA3E0FFE52A25E025E024A1F582E4340CF5831287CDE52A75F008A424B5F582E4340DF583E0FCA3E0FDA3E0FEA3E0FFE52A25E025E024A9F582E4FC
:403D4000340CF5831287CDE52A25E025E024A1F582E4340CF583C083C082E0FCA3E0FDA3E0FEA3E0FF7485252AF582E4340CF583E0F9F8128780D082D0831287CDE52A25CC
:403D8000E025E024A9F582E4340CF583C083C082E0FCA3E0FDA3E0FEA3E0FF7485252AF582E4340CF583E0F9F8128780D082D0831287CD052A023CE5900DB1E0FCA3E0FD0E
:403DC000A3E0FEA3E0FF9007731287CDE4FFFEFDFC900773E0F8A3E0F9A3E0FAA3E0FBD31287325014900773E0FCA3E0FDA3E0FEA3E0FF900CB51287CD900DB5E0FCA3E04A
:403E0000FDA3E0FEA3E0FF9007731287CDE4FFFEFDFC900773E0F8A3E0F9A3E0FAA3E0FBC31287325003023FC8900773E0FCA3E0FDA3E0FEA3E0FF900CB11287CD22900D1A
:403E4000B1E0FFA3E0900CB9CFF0A3EFF022900DB1E0900CBFF022900DB1E0FFA3E0900CBBCFF0A3EFF0900DB3E0FFA3E0900CBDCFF0A3EFF022900DB1E0FCA3E0FDA3E0F9
:403E8000FEA3E0FF900CC01287CD900DB5E0FCA3E0FDA3E0FEA3E0FF900CC41287CD22900DB1E0900CC8F022900DB1E0900777F06007900CC97401F022E4900CC9F0229019
:403EC0000DB1E0900CCAF022900DB1E0900CCBF022900DB1E0FCA3E0FDA3E0FEA3E0FF900CE61287CD900CE6E0FCA3E0FDA3E0FEA3E0FF900C85E0F9F8128780900CE612F0
:403F000087CD22900DB1E0FCA3E0FDA3E0FEA3E0FF900CEA1287CDE47F0AFEFDFC900CEAE0F8A3E0F9A3E0FAA3E0FBC31287324003023FC8E47F0AFEFDFC900CEA1287CD0F
:403F400022900DB1E0FCA3E0FDA3E0FEA3E0FF900CEE1287CD22E4F52AE52AC394065068E52A25E025E024B1F582E4340DF583E0FCA3E0FDA3E0FEA3E0FFE52A25E025E0BF
:403F800024CCF582E4340CF5831287CD052A80C9900DB1E0900CF6F022900DB1E0900CF5F022900DB1E0900777F0601C12D70522900DB1E0900CF2F0900DB2E0900CF3F06B
:403FC000900DB3E0900CF4F022205945530000204E4F00002055736200002048616E646C65000020454D472070726F706F7274696F6E616C000020454D4720696E746567F9
:4040000072616C000020454D472046434653000020454D47204643465320416476616E636564000020506F736974696F6E00002050574D00002043757272656E74000020E9
:40404000506F736974696F6E20616E642043757272656E740000000D0A004669726D776172652076657273696F6E3A200053482D50524F2076362E312E372043656E74725C
:404080006F205069616767696F002E0D0A0D0A0044455649434520494E464F0D0A0049443A2025640D0A0050574D2072657363616C696E672061637469766174696F6E3A63
:4040C00020005945530A004E4F0A0050574D204C696D69743A2025640D0A004D4F544F5220494E464F0D0A004D6F746F72207265666572656E636500202D204375727265AF
:404100006E74733A2000202D2050776D3A2000202D20506F736974696F6E3A2000256420004D6F746F7220656E61626C65643A20005945530D0A004E4F0D0A000D0A4D4555
:4041400041535552454D454E545320494E464F0D0A0053656E736F722076616C75653A0D0A002564202D3E202564004261747465727920566F6C7461676520286D56293AD5
:4041800020256C640046756C6C2063686172676520706F7765722074656E73696F6E20286D56293A20256C640043757272656E7420286D41293A20256C64000D0A44455696
:4041C00049434520504152414D45544552530D0A0050494420436F6E74726F6C6C65723A0D0A0050202D3E20256620200049202D3E20256620200044202D3E2025660D0A3B
:404200000043757272656E742050494420436F6E74726F6C6C65723A0D0A00537461727475702061637469766174696F6E3A205945530D0A00537461727475702061637417
:4042400069766174696F6E3A204E4F0D0A00496E707574206D6F64653A205553420D0A00496E707574206D6F64653A2048616E646C650D0A00496E707574206D6F64653A65
:4042800020454D472070726F706F7274696F6E616C0D0A00496E707574206D6F64653A20454D4720696E74656772616C0D0A00496E707574206D6F64653A20454D472046A2
:4042C0004346530D0A00496E707574206D6F64653A20454D472046434653204144560D0A00436F6E74726F6C206D6F64653A20506F736974696F6E0D0A00436F6E74726F8E
:404300006C206D6F64653A2050574D0D0A00436F6E74726F6C206D6F64653A2043757272656E740D0A00436F6E74726F6C206D6F64653A20506F736974696F6E20616E6445
:404340002043757272656E740D0A004162736F6C75746520656E636F64657220706F736974696F6E3A205945530D0A004162736F6C75746520656E636F64657220706F733C
:404380006974696F6E3A204E4F0D0A004D6F746F722D48616E646C6520526174696F3A2025640D0A0053656E736F72207265736F6C7574696F6E3A0D0A004D65617375727D
:4043C000656D656E74204F66667365743A0D0A002564202D3E20256C64004D6561737572656D656E74204D756C7469706C6965723A0D0A002564202D3E202566004375729C
:4044000072656E74206C6F6F6B7570207461626C653A0D0A00705B305D202D20705B325D3A2025662C2025662C2025660A00705B335D202D20705B355D3A2025662C202559
:40444000662C2025660A00506F736974696F6E206C696D6974206163746976653A20256400506F736974696F6E206C696D6974206D6F746F722025643A20696E66202D3E32
:4044800020256C64202000737570202D3E20256C640D0A004D6178207374657020706F7320616E64206E65673A2025642025640043757272656E74206C696D69743A20254A
:4044C0006400454D47207468726573686F6C6473205B30202D20313032345D3A2025752C20257500454D47206D61782076616C756573205B30202D20343039365D3A202553
:404500006C752C20256C750043616C6962726174696F6E20656E61626C65643A205945530D0A0043616C6962726174696F6E20656E61626C65643A204E4F0D0A00454D4759
:40454000206D61782073706565643A20256400526573742074696D652064656C617920286D73293A20256400526573742076656C6F6369747920636C6F73757265202874EB
:4045800069636B732F736563293A202564005265737420706F736974696F6E3A2025640064656275673A20256C64000D0A555341474520535441544953544943530D0A00A1
:4045C00044617465206F66206D61696E74656E616E63653A2025642F25642F323025640D0A00506F736974696F6E7320686973746F6772616D20287469636B73293A0D0A43
:404600000042696E202564205B25642D25645D3A20256C750D0A0043757272656E7420686973746F6772616D20286D41293A0D0A005468726573686F6C64202564205B25F3
:40464000642D25645D3A20256C750D0A00454D472061637469766174696F6E7320636F756E7465723A20256C752C20256C75005265737420706F736974696F6E206F636354
:40468000757272656E6365733A20256C7500416E676C6520746F74616C20646973706C6163656D656E7420287469636B73293A20256C7500546F74616C20706F776572208F
:4046C0006F6E2074696D652028736563293A20256C7500546F74616C207265737420706F736974696F6E2074696D652028736563293A20256C7500000000000000000000B0
:404700000000000000000000000000000000000000000000000000000000000000000000000000000000000000000000000000000000000000000000000000000000000079
:404740000000000000000000000000000000000000000000000000000000000000000000000000000000000000000000000000000000000000000000000000000000000039
:4047800000000000000000000000000000000000000000000000000000000000000000000000000000000000000000000000000000000000000000000000000000000000F9
:4047C00000000000000000000000000000000000000000000000000000000000000000000000000000000000000000000000000000000000000000000000000000000000B9
:4054400031202D204465766963652049443A0032202D20506F736974696F6E20504944205B502C20492C20445D3A0033202D2043757272656E7420504944205B502C2049FF
:405480002C20445D3A0034202D20537461727475702041637469766174696F6E3A000000000035202D20496E707574206D6F64653A00000000000000000000000000000014
:4054C0000000000036202D20436F6E74726F6C206D6F64653A0000000000000000000000000000000000000000000037202D205265736F6C7574696F6E733A0038202D20FF
:405500004D6561737572656D656E74204F6666736574733A0039202D204D756C7469706C696572733A003130202D20506F732E206C696D6974206163746976653A000000F4
:4055400000003131202D20506F732E206C696D697473205B696E662C207375705D3A003132202D204D6178207374657073205B6E65672C20706F735D3A003133202D204314
:40558000757272656E74206C696D69743A003134202D20454D472063616C6962726174696F6E206F6E20737461727475703A00000000003135202D20454D47207468726596
:4055C00073686F6C64733A003136202D20454D47206D61782076616C7565733A003137202D20454D47206D61782073706565643A003138202D204162736F6C7574652065CE
:405600006E636F64657220706F736974696F6E3A00000000003139202D204D6F746F722068616E646C6520726174696F3A003230202D2050574D2072657363616C696E6798
:405640003A00000000003231202D205265737420706F736974696F6E3A003232202D205265737420706F736974696F6E2074696D652064656C617920286D73293A003233C1
:40568000202D20526573742076656C20636C6F7375726520287469636B732F736563293A003234202D2043757272656E74206C6F6F6B75703A003235202D205265737420EC
:4056C000706F736974696F6E20666C61673A00000000003236202D20454D4720696E76657273696F6E3A00000000003237202D20526573657420636F756E746572733A00B6
:40570000000000003238202D2044617465206F66206D61696E74656E616E6365205B44442F4D4D2F59595D3A0030202D3E205573620A31202D3E2048616E646C650A3220A5
:405740002D3E20454D472070726F706F7274696F6E616C0A33202D3E20454D4720496E74656772616C0A34202D3E20454D4720464346530A35202D3E20454D4720464346AF
:405780005320416476616E6365640A0030202D3E20506F736974696F6E0A31202D3E2050574D0A32202D3E2043757272656E740A33202D3E20506F736974696F6E20616E56
:4057C000642043757272656E740A000030202D3E2044656163746976617465205B4E4F5D0A31202D3E204163746976617465205B5945535D0A009005E0EBF0A3EAF0A3E9AB
:40580000F0900B38E064FA7003026E319005E0E0FBA3E0FAA3E0F8AC02AD037BFF7A407956128A0A900B3174FFF0A37440F0A37457F09005E0E0FBA3E0FAA3E0F912E002F3
:40584000900B3174FFF0A37440F0A3745AF09005E0E0FBA3E0FAA3E0F912E002900B3174FFF0A37440F0A3746DF09005E0E0FBA3E0FAA3E0F912E002900B3174FFF0A374A7
:4058800040F0A3748AF09005E0E0FBA3E0FAA3E0F912E002900B3174FFF0A37440F0A37490F09005E0E0FBA3E0FAA3E0F912E00290064E74FFF0A37440F0A3749EF0900BD2
:4058C00038E0FF900651E4F0A3EFF07B017A0579E512A982900B317401F0A37405F0A374E5F09005E0E0FBA3E0FAA3E0F912E002900B3174FFF0A37440F0A374A7F090059F
:40590000E0E0FBA3E0FAA3E0F912E002900BB2E0B4011E900B3174FFF0A37440F0A374C2F09005E0E0FBA3E0FAA3E0F912E002801C900B3174FFF0A37440F0A374C7F090D3
:4059400005E0E0FBA3E0FAA3E0F912E00290064E74FFF0A37440F0A374CBF0900EA1E0FF900651E4F0A3EFF07B017A0579E512A982900B317401F0A37405F0A374E5F09070
:4059800005E0E0FBA3E0FAA3E0F912E002900B3174FFF0A37440F0A37457F09005E0E0FBA3E0FAA3E0F912E002900B3174FFF0A37440F0A374DBF09005E0E0FBA3E0FAA361
:4059C000E0F912E002900B3174FFF0A37440F0A374E8F09005E0E0FBA3E0FAA3E0F912E002900C84E0B4021E900B3174FFF0A37440F0A374F8F09005E0E0FBA3E0FAA3E09F
:405A0000F912E0028041900C84E0B4011E900B3174FFF0A37441F0A37406F09005E0E0FBA3E0FAA3E0F912E002801C900B3174FFF0A37441F0A3740FF09005E0E0FBA3E028
:405A4000FAA3E0F912E002E49005E3F0A3F0C39005E4E094029005E3E0648094804003025BB2900C84E06402705F90064E74FFF0A37441F0A3741DF09005E3E0FEA3E07850
:405A800002C333CE33CED8F9243FF582740C3EF583E0A3E0A3E0FFA3E0900651CFF0A3EFF07B017A0579E512A982900B317401F0A37405F0A374E5F09005E0E0FBA3E0FA22
:405AC000A3E0F912E002025BA1900C84E06401705E90064E74FFF0A37441F0A3741DF09005E3E0FEA3E07802C333CE33CED8F92447F582740C3EF583E0A3E0A3E0FFA3E0E9
:405B0000900651CFF0A3EFF07B017A0579E512A982900B317401F0A37405F0A374E5F09005E0E0FBA3E0FAA3E0F912E002807290064E74FFF0A37441F0A3741DF09005E324
:405B4000E0FAA3E0FBAE027802C333CE33CED8F92437F582740C3EF583E0FCA3E0FDA3E0FEA3E0FF746C2BF582740B3AF583E0F9F812876C900651EEF0A3EFF07B017A05DB
:405B800079E512A982900B317401F0A37405F0A374E5F09005E0E0FBA3E0FAA3E0F912E0029005E4E004F070069005E3E004F0025A4E900B3174FFF0A37440F0A37457F057
:405BC0009005E0E0FBA3E0FAA3E0F912E002900B3174FFF0A37440F0A37457F09005E0E0FBA3E0FAA3E0F912E00290064E74FFF0A37441F0A37421F07B017A0579E512A98C
:405C000082900C4FE054036019900B3174FFF0A37441F0A37431F07B017A0579E512E0028017900B3174FFF0A37441F0A37437F07B017A0579E512E002900B317401F0A3DE
:405C40007405F0A374E5F09005E0E0FBA3E0FAA3E0F912E002900B3174FFF0A37441F0A3743CF09005E0E0FBA3E0FAA3E0F912E002900B3174FFF0A37441F0A37452F0903B
:405C800005E0E0FBA3E0FAA3E0F912E002E49005E3F0A3F0C39005E4E094039005E3E0648094804003025D5A90064E74FFF0A37441F0A37462F09005E3E0FCA3E0FD240168
:405CC000FEE43C900651F0A3CEF0EDAE047802C333CE33CED8F92469F582740E3EF583E0FCA3E0FDA3E0FEA3E0FF9005E3E0FAA3E0246CF582740B3AF583E0F9F812876C21
:405D0000900653EEF0A3EFF07B017A0579E512A982900B317401F0A37405F0A374E5F09005E0E0FBA3E0FAA3E0F912E002900B3174FFF0A37440F0A37457F09005E0E0FBFA
:405D4000A3E0FAA3E0F912E0029005E4E004F070069005E3E004F0025C9490064E74FFF0A37441F0A3746BF0900D91E0FCA3E0FDA3E0FEA3E0FF9006511287CD7B017A055F
:405D800079E512A982900B317401F0A37405F0A374E5F09005E0E0FBA3E0FAA3E0F912E002900B3174FFF0A37440F0A37457F09005E0E0FBA3E0FAA3E0F912E00290064EED
:405DC00074FFF0A37441F0A37485F0900E50E0FCA3E0FDA3E0FEA3E0FF9006511287CD7B017A0579E512A982900B317401F0A37405F0A374E5F09005E0E0FBA3E0FAA3E0C3
:405E0000F912E002900B3174FFF0A37440F0A37457F09005E0E0FBA3E0FAA3E0F912E00290064E74FFF0A37441F0A374A9F0900E75E0FCA3E0FDA3E0FEA3E0FF90065112BA
:405E400087CD7B017A0579E512A982900B317401F0A37405F0A374E5F09005E0E0FBA3E0FAA3E0F912E002900B3174FFF0A37440F0A37457F09005E0E0FBA3E0FAA3E0F9B5
:405E800012E002900B3174FFF0A37441F0A374BBF09005E0E0FBA3E0FAA3E0F912E002900B3174FFF0A37441F0A374D1F09005E0E0FBA3E0FAA3E0F912E002900B6BE064A2
:405EC000037003025FC890064E74FFF0A37441F0A374E3F0900B39E0FCA3E0FDA3E0FEA3E0FFEC1282B4E4FBFA7980784712819E9006511287CD7B017A0579E512A98290EE
:405F00000B317401F0A37405F0A374E5F09005E0E0FBA3E0FAA3E0F912E00290064E74FFF0A37441F0A374EDF0900B3DE0FCA3E0FDA3E0FEA3E0FFEC1282B4E4FBFA7980CB
:405F4000784712819E9006511287CD7B017A0579E512A982900B317401F0A37405F0A374E5F09005E0E0FBA3E0FAA3E0F912E00290064E74FFF0A37441F0A374F7F0900BC0
:405F800041E0FCA3E0FDA3E0FEA3E0FFEC1282B4E4FBFA7980784712819E9006511287CD7B017A0579E512A982900B317401F0A37405F0A374E5F09005E0E0FBA3E0FAA3CF
:405FC000E0F912E0020260C790064E74FFF0A37441F0A374E3F0900B51E0FCA3E0FDA3E0FEA3E0FFEC1282B4E4FBFA7980784712819E9006511287CD7B017A0579E512A990
:4060000082900B317401F0A37405F0A374E5F09005E0E0FBA3E0FAA3E0F912E00290064E74FFF0A37441F0A374EDF0900B55E0FCA3E0FDA3E0FEA3E0FFEC1282B4E4FBFA99
:406040007980784712819E9006511287CD7B017A0579E512A982900B317401F0A37405F0A374E5F09005E0E0FBA3E0FAA3E0F912E00290064E74FFF0A37441F0A374F7F061
:40608000900B59E0FCA3E0FDA3E0FEA3E0FFEC1282B4E4FBFA7980784712819E9006511287CD7B017A0579E512A982900B317401F0A37405F0A374E5F09005E0E0FBA3E0B8
:4060C000FAA3E0F912E002900B3174FFF0A37442F0A37401F09005E0E0FBA3E0FAA3E0F912E002900B6BE0640370030261F090064E74FFF0A37441F0A374E3F0900B45E02D
:40610000FCA3E0FDA3E0FEA3E0FFEC1282B4E4FBFA7980784712819E9006511287CD7B017A0579E512A982900B317401F0A37405F0A374E5F09005E0E0FBA3E0FAA3E0F995
:4061400012E00290064E74FFF0A37441F0A374EDF0900B49E0FCA3E0FDA3E0FEA3E0FFEC1282B4E4FBFA7980784712819E9006511287CD7B017A0579E512A982900B31744C
:4061800001F0A37405F0A374E5F09005E0E0FBA3E0FAA3E0F912E00290064E74FFF0A37441F0A374F7F0900B4DE0FCA3E0FDA3E0FEA3E0FFEC1282B4E4FBFA79807847120E
:4061C000819E9006511287CD7B017A0579E512A982900B317401F0A37405F0A374E5F09005E0E0FBA3E0FAA3E0F912E0020262EF90064E74FFF0A37441F0A374E3F0900BD0
:406200005DE0FCA3E0FDA3E0FEA3E0FFEC1282B4E4FBFA7980784712819E9006511287CD7B017A0579E512A982900B317401F0A37405F0A374E5F09005E0E0FBA3E0FAA330
:40624000E0F912E00290064E74FFF0A37441F0A374EDF0900B61E0FCA3E0FDA3E0FEA3E0FFEC1282B4E4FBFA7980784712819E9006511287CD7B017A0579E512A982900BFF
:40628000317401F0A37405F0A374E5F09005E0E0FBA3E0FAA3E0F912E00290064E74FFF0A37441F0A374F7F0900B65E0FCA3E0FDA3E0FEA3E0FFEC1282B4E4FBFA798078A9
:4062C0004712819E9006511287CD7B017A0579E512A982900B317401F0A37405F0A374E5F09005E0E0FBA3E0FAA3E0F912E002900B3174FFF0A37440F0A37457F09005E094
:40630000E0FBA3E0FAA3E0F912E002900B69E0B4031E900B3174FFF0A37442F0A3741BF09005E0E0FBA3E0FAA3E0F912E002801C900B3174FFF0A37442F0A37435F0900520
:40634000E0E0FBA3E0FAA3E0F912E002900B6AE014603814605314606E1470030263E51470030264032405600302641F900B3174FFF0A37442F0A3744EF09005E0E0FBA3A9
:40638000E0FAA3E0F912E00202641F900B3174FFF0A37442F0A37460F09005E0E0FBA3E0FAA3E0F912E0028076900B3174FFF0A37442F0A37475F09005E0E0FBA3E0FAA398
:4063C000E0F912E0028058900B3174FFF0A37442F0A37494F09005E0E0FBA3E0FAA3E0F912E002803A900B3174FFF0A37442F0A374AFF09005E0E0FBA3E0FAA3E0F912E085
:4064000002801C900B3174FFF0A37442F0A374C6F09005E0E0FBA3E0FAA3E0F912E002900B6BE014602814604314605E24037076900B3174FFF0A37442F0A374E1F090052F
:40644000E0E0FBA3E0FAA3E0F912E0028058900B3174FFF0A37442F0A374FAF09005E0E0FBA3E0FAA3E0F912E002803A900B3174FFF0A37443F0A3740EF09005E0E0FBA3AB
:40648000E0FAA3E0F912E002801C900B3174FFF0A37443F0A37426F09005E0E0FBA3E0FAA3E0F912E002900BB0E0601E900B3174FFF0A37443F0A3744BF09005E0E0FBA3AC
:4064C000E0FAA3E0F912E002801C900B3174FFF0A37443F0A3746CF09005E0E0FBA3E0FAA3E0F912E00290064E74FFF0A37443F0A3748CF0900BB1E0FE3395E0900651F0C0
:40650000A3CEF07B017A0579E512A982900B317401F0A37405F0A374E5F09005E0E0FBA3E0FAA3E0F912E002900B3174FFF0A37443F0A374A5F09005E0E0FBA3E0FAA3E089
:40654000F912E002E49005E3F0A3F0C39005E4E094039005E3E06480948040030265E790064E74FFF0A37441F0A37462F09005E3E0FCA3E0FD2401FEE43C900651F0A3CE64
:40658000F0746C2DF582740B3CF583E0FF900653E4F0A3EFF07B017A0579E512A982900B317401F0A37405F0A374E5F09005E0E0FBA3E0FAA3E0F912E002900B3174FFF0EB
:4065C000A37440F0A37457F09005E0E0FBA3E0FAA3E0F912E0029005E4E004F070069005E3E004F002654B900B3174FFF0A37443F0A374BAF09005E0E0FBA3E0FAA3E0F975
:4066000012E002E49005E3F0A3F0C39005E4E094039005E3E06480948040030266CE90064E74FFF0A37443F0A374D0F09005E3E0FCA3E0FD2401FEE43C900651F0A3CEF054
:40664000EDAE047802C333CE33CED8F9246FF582740B3EF583E0FCA3E0FDA3E0FEA3E0FF9005E3E0FAA3E0246CF582740B3AF583E0F9F812876C9006531287CD7B017A05A0
:4066800079E512A982900B317401F0A37405F0A374E5F09005E0E0FBA3E0FAA3E0F912E002900B3174FFF0A37440F0A37457F09005E0E0FBA3E0FAA3E0F912E0029005E44F
:4066C000E004F070069005E3E004F002660A900B3174FFF0A37443F0A374DAF09005E0E0FBA3E0FAA3E0F912E002E49005E3F0A3F0C39005E4E094039005E3E06480948019
:40670000400302679F90064E74FFF0A37443F0A374F4F09005E3E0FCA3E0FD2401FEE43C900651F0A3CEF0EDAE047802C333CE33CED8F9247BF582740B3EF583E0FCA3E0DA
:40674000FDA3E0FEA3E0FF9006531287CD7B017A0579E512A982900B317401F0A37405F0A374E5F09005E0E0FBA3E0FAA3E0F912E002900B3174FFF0A37440F0A37457F0FA
:406780009005E0E0FBA3E0FAA3E0F912E0029005E4E004F070069005E3E004F00266F1900B3174FFF0A37443F0A374FDF09005E0E0FBA3E0FAA3E0F912E00290064E74FF23
:4067C000F0A37444F0A37415F0900BB3E0FCA3E0FDA3E0FEA3E0FF9006511287CD900BB7E0FCA3E0FDA3E0FEA3E0FF9006551287CD900BBBE0FCA3E0FDA3E0FEA3E0FF9001
:4068000006591287CD7B017A0579E512A982900B317401F0A37405F0A374E5F09005E0E0FBA3E0FAA3E0F912E00290064E74FFF0A37444F0A3742EF0900BBFE0FCA3E0FD1A
:40684000A3E0FEA3E0FF9006511287CD900BC3E0FCA3E0FDA3E0FEA3E0FF9006551287CD900BC7E0FCA3E0FDA3E0FEA3E0FF9006591287CD7B017A0579E512A982900B3142
:406880007401F0A37405F0A374E5F09005E0E0FBA3E0FAA3E0F912E002900B3174FFF0A37440F0A37457F09005E0E0FBA3E0FAA3E0F912E00290064E74FFF0A37444F0A3F8
:4068C0007447F0900CA0E0FF900651E4F0A3EFF07B017A0579E512A982900B317401F0A37405F0A374E5F09005E0E0FBA3E0FAA3E0F912E002900B3174FFF0A37440F0A380
:406900007457F09005E0E0FBA3E0FAA3E0F912E002E49005E3F0A3F0C39005E4E094019005E3E0648094804003026A3090064E74FFF0A37444F0A37461F09005E3E0FCA3AF
:40694000E0FD2401FEE43C900651F0A3CEF0EDAE047802C333CE33CED8F924A1F582740C3EF583E0FCA3E0FDA3E0FEA3E0FF9005E3E0FAA3E02485F582740C3AF583E0F93F
:40698000F812876C9006531287CD7B017A0579E512A982900B317401F0A37405F0A374E5F09005E0E0FBA3E0FAA3E0F912E00290064E74FFF0A37444F0A37487F09005E3F7
:4069C000E0FAA3E0FBAE027802C333CE33CED8F924A9F582740C3EF583E0FCA3E0FDA3E0FEA3E0FF74852BF582740C3AF583E0F9F812876C9006511287CD7B017A0579E55D
:406A000012A982900B317401F0A37405F0A374E5F09005E0E0FBA3E0FAA3E0F912E0029005E4E004F070069005E3E004F002691890064E74FFF0A37444F0A37494F0900C58
:406A4000B1E0A3E0A3E0FFA3E0900651CFF0A3EFF0900CB5E0A3E0A3E0FFA3E0900653CFF0A3EFF07B017A0579E512A982900B317401F0A37405F0A374E5F09005E0E0FBE3
:406A8000A3E0FAA3E0F912E002900B3174FFF0A37440F0A37457F09005E0E0FBA3E0FAA3E0F912E00290064E74FFF0A37444F0A374B0F0900CB9E0FFA3E0900651CFF0A38F
:406AC000EFF07B017A0579E512A982900B317401F0A37405F0A374E5F09005E0E0FBA3E0FAA3E0F912E002900B3174FFF0A37440F0A37457F09005E0E0FBA3E0FAA3E0F99E
:406B000012E00290064E74FFF0A37444F0A374C2F0900CBBE0FFA3E0900651CFF0A3EFF0900CBDE0FFA3E0900653CFF0A3EFF07B017A0579E512A982900B317401F0A37462
:406B400005F0A374E5F09005E0E0FBA3E0FAA3E0F912E002900B3174FFF0A37440F0A37457F09005E0E0FBA3E0FAA3E0F912E00290064E74FFF0A37444F0A374E4F0900CCD
:406B8000C0E0FCA3E0FDA3E0FEA3E0FF9006511287CD900CC4E0FCA3E0FDA3E0FEA3E0FF9006551287CD7B017A0579E512A982900B317401F0A37405F0A374E5F09005E025
:406BC000E0FBA3E0FAA3E0F912E002900B3174FFF0A37440F0A37457F09005E0E0FBA3E0FAA3E0F912E002900CBFE0601E900B3174FFF0A37445F0A37408F09005E0E0FB29
:406C0000A3E0FAA3E0F912E002801C900B3174FFF0A37445F0A37423F09005E0E0FBA3E0FAA3E0F912E00290064E74FFF0A37445F0A3743DF0900CC8E0FF900651E4F0A371
:406C4000EFF07B017A0579E512A982900B317401F0A37405F0A374E5F09005E0E0FBA3E0FAA3E0F912E002900B3174FFF0A37440F0A37457F09005E0E0FBA3E0FAA3E0F91C
:406C800012E00290064E74FFF0A37445F0A3744FF0900CEAE0A3E0A3E0FFA3E0900651CFF0A3EFF07B017A0579E512A982900B317401F0A37405F0A374E5F09005E0E0FBD2
:406CC000A3E0FAA3E0F912E002900B3174FFF0A37440F0A37457F09005E0E0FBA3E0FAA3E0F912E00290064E74FFF0A37445F0A37468F0900CEEE0A3E0A3E0FFA3E090060C
:406D000051CFF0A3EFF07B017A0579E512A982900B317401F0A37405F0A374E5F09005E0E0FBA3E0FAA3E0F912E002900B3174FFF0A37440F0A37457F09005E0E0FBA3E01E
:406D4000FAA3E0F912E00290064E74FFF0A37445F0A3748EF0900CE6E0FCA3E0FDA3E0FEA3E0FF900B6CE0F9F812876C900651EEF0A3EFF07B017A0579E512A982900B311A
:406D80007401F0A37405F0A374E5F09005E0E0FBA3E0FAA3E0F912E002900B3174FFF0A37440F0A37457F09005E0E0FBA3E0FAA3E0F912E00290064E74FFF0A37445F0A3F2
:406DC00074A0F0900D8DE0F8A3E0F9A3E0FAA3E0FB900E54E0FCA3E0FDA3E0FEA3E0C39BFFEE9AFEED99FDEC98FC9006511287CD7B017A0579E512A982900B317401F0A327
:406E00007405F0A374E5F09005E0E0FBA3E0FAA3E0F912E002900B3174FFF0A37440F0A37457F09005E0E0FBA3E0FAA3E0F912E00222E4F526F525F524F523900B39E0FC93
:406E4000A3E0FDA3E0FEA3E0F5428E418D408C3FA3E0FCA3E0FDA3E0FEA3E0F5468E458D448C43A3E0FCA3E0FDA3E0FEA3E0F54A8E498D488C47A3E0FCA3E0FDA3E0FEA35B
:406E8000E0F54E8E4D8D4C8C4BA3E0FCA3E0FDA3E0FEA3E0F5528E518D508C4FA3E0FCA3E0FDA3E0FEA3E0F5568E558D548C53A3E0FCA3E0FDA3E0FEA3E0F55A8E598D5834
:406EC0008C57A3E0FCA3E0FDA3E0FEA3E0F55E8E5D8D5C8C5BA3E0FCA3E0FDA3E0FEA3E0F5628E618D608C5F900BA0E0FEA3E0FFEE3395E0FDFC780D128780AB5AAA59A904
:406F000058A85712E5358F668E658D648C63900B5DE0FCA3E0FDA3E0FEA3E0F56A8E698D688C67A3E0FCA3E0FDA3E0FEA3E0F56E8E6D8D6C8C6BA3E0FCA3E0FDA3E0FEA3FC
:406F4000E0F5728E718D708C6F900BA2E0FEA3E0FFFBAA06E4900E80E0FCA3E0FDA3E0FEA3E0C39BF53AEE9AF539ED9400F538EC9400F537900BA4E0FEA3E0FFFBAA06E45E
:406F8000900E84E0FCA3E0FDA3E0FEA3E0C39BF53EEE9AF53DED9400F53CEC9400F53B900B6AE024FE700302710F14700302716D1470030272621470030273C52404600396
:406FC00002755C900BB0E06024A3E0FF3395E0FEFDFC900E71E0F8A3E0F9A3E0FAA3E0FB1285FA8F368E358D348C338024900BB1E0FF3395E0FEFDFC900E6DE0F8A3E0F92A
:40700000A3E0FAA3E0FB1285FA8F368E358D348C33900C37E0F8A3E0F9A3E0FAA3E0FBC3E5369BFFE5359AFEE53499FDE53398FC900B98E0F8A3E0F9A3E0FAA3E0FBC312BE
:4070400087325044E4FFFEFDFC900B98E0F8A3E0A3E0A3E0C3128732602E900C37E0FCA3E0FDA3E0FEA3E0FF900B98E0F8A3E0A3E0A3E0EF2BFFEE3AFEED39FDEC38FC9061
:407080000C371287CD02755C900C37E0F8A3E0F9A3E0FAA3E0FBC3E5369BFFE5359AFEE53499FDE53398FC900B9CE0F8A3E0F9A3E0FAA3E0FBD31287324043E4FFFEFDFC2C
:4070C000900B9CE0F8A3E0A3E0A3E0128732602E900C37E0FCA3E0FDA3E0FEA3E0FF900B9CE0F8A3E0A3E0A3E0EF2BFFEE3AFEED39FDEC38FC900C371287CD02755CAF3662
:40710000AE35AD34AC33900C371287CD02755CE4FFFEFDFCAB3AAA39A938A837D3128732403D900CA9E0FCA3E0FDA3E0FEA3E0FFA8371285FAC006C007900BA2E0FEA3E0E4
:40714000FFC3E49FFF74049EFEAB07FAE4F9F8D007D00612E535900C371287CD02755CE4FFFEFDFC900C371287CD02755C900D95E0FCA3E0FDA3E0FEA3E0FF900C3712876E
:40718000CDE4FFFEFDFCAB3AAA39A938A837D31287324056900CC8E0FFE4FCFDFEA8371285FAE47B02FAF9F81285FAC006C007900BA2E0FEA3E0FFC3E49FFF74049EFEABD3
:4071C00007FAE4F9F8D007D00612E535900D95E0F8A3E0F9A3E0FAA3E02FFFEA3EFEE93DFDE83CFC900C371287CDE4FFFEFDFCAB3EAA3DA93CA83BD3128732500302755C54
:40720000900CC8E0FFE4FCFDFEA83B1285FAE47B02FAF9F81285FAC006C007900BA4E0FEA3E0FFC3E49FFF74049EFEAB07FAE4F9F8D007D00612E535A804A905AA06AB0744
:40724000900D95E0FCA3E0FDA3E0FEA3E0C39BFFEE9AFEED99FDEC98FC900C371287CD02755C900D95E0FCA3E0FDA3E0FEA3E0FF900C371287CD900F3AE0146048147003C4
:4072800002733F2402600302755CE4FFFEFDFCAB3AAA39A938A837D31287324009900F3A7401F002755CE4FFFEFDFCAB3EAA3DA93CA83BD3128732500302755C900F3A74E1
:4072C00002F002755CE4FFFEFDFCAB3AAA39A938A837C31287325008E4900F3AF002755C900CC8E0FFE4FCFDFEAB3AAA39A938A8371285FAE47B02FAF9F81285FAC006C067
:4073000007900BA2E0FEA3E0FFC3E49FFF74049EFEAB07FAE4F9F8D007D00612E535900D95E0F8A3E0F9A3E0FAA3E02FFFEA3EFEE93DFDE83CFC900C371287CD02755CE4E9
:40734000FFFEFDFCAB3EAA3DA93CA83BC31287325008E4900F3AF002755C900CC8E0FFE4FCFDFEAB3EAA3DA93CA83B1285FAE47B02FAF9F81285FAC006C007900BA4E0FE4B
:40738000A3E0FFC3E49FFF74049EFEAB07FAE4F9F8D007D00612E535A804A905AA06AB07900D95E0FCA3E0FDA3E0FEA3E0C39BFFEE9AFEED99FDEC98FC900C371287CD0229
:4073C000755C02755C900D95E0FCA3E0FDA3E0FEA3E0FF900C371287CD900F3AE01460481470030274C12402600302755CE4FFFEFDFCAB3AAA39A938A837D3128732400947
:40740000900F3A7401F002755CE4FFFEFDFCAB3EAA3DA93CA83BD3128732500302755C900F3A7402F002755CE4FFFEFDFCAB3AAA39A938A837C3128732501BE4FFFEFDFCBE
:40744000AB3EAA3DA93CA83BC31287325008E4900F3AF002755CE4FFFEFDFCAB3AAA39A938A837D3128732500302755C900CC8E0FFE4FCFDFEA8371285FA7802128780C007
:4074800006C007900BA2E0FEA3E0FFC3E49FFF74049EFEAB07FAE4F9F8D007D00612E535900D95E0F8A3E0F9A3E0FAA3E02FFFEA3EFEE93DFDE83CFC900C371287CD0275E2
:4074C0005CE4FFFEFDFCAB3AAA39A938A837C3128732501AE4FFFEFDFCAB3EAA3DA93CA83BC31287325007E4900F3AF0806EE4FFFEFDFCAB3EAA3DA93CA83BD31287324094
:407500005B900BAFE0FFE4FCFDFEA83B1285FA7802128780C006C007900BA4E0FEA3E0FFC3E49FFF74049EFEAB07FAE4F9F8D007D00612E535A804A905AA06AB07900D9518
:40754000E0FCA3E0FDA3E0FEA3E0C39BFFEE9AFEED99FDEC98FC900C371287CD900B87E0606AA3E0FCA3E0FDA3E0FEA3E0FF900C37E0F8A3E0F9A3E0FAA3E0FBC31287320E
:407580005014900B88E0FCA3E0FDA3E0FEA3E0FF900C371287CD900B90E0FCA3E0FDA3E0FEA3E0FF900C37E0F8A3E0F9A3E0FAA3E0FBD31287324014900B90E0FCA3E0FD87
:4075C000A3E0FEA3E0FF900C371287CD900BDDE064016003027685900EA0E0B40114900E4CE0FCA3E0FDA3E0FEA3E0FF900C371287CD900D50E064016003027685FFFEFD3D
:40760000FCAB3EAA3DA93CA83BD3128732405D900CE6E0FCA3E0FDA3E0FEA3E0FFA83B1285FAC006C007900BA4E0FEA3E0FFC3E49FFF74049EFEAB07FAE4F9F8D007D00673
:4076400012E535A804A905AA06AB07900CE6E0FCA3E0FDA3E0FEA3E0C39BFFEE9AFEED99FDEC98FC900C371287CD8019900CE6E0FCA3E0FDA3E0FEA3E0FF900C371287CD6E
:40768000E4900D50F0900B6BE07003027AC0147003027E7A147003027C4E146003027EE8900E69E0F8A3E0F9A3E0FAA3E0FB900C37E0FCA3E0FDA3E0FEA3E0C39BF52AEECD
:4076C0009AF529ED99F528EC98F527900F2AE0FCA3E0FDA3E0FEA3E0252AFFEE3529FEED3528FDEC3527FC900F2A1287CDAF66AE65AD64AC63AB2AAA29A928A827D3128718
:4077000032400E85662A856529856428856327802CAF66AE65AD64AC63128724AB2AAA29A928A827C31287325013AF66AE65AD64AC631287248F2A8E298D288C277F807E3D
:40774000F07DFA7C02900F2AE0F8A3E0F9A3E0FAA3E0FBD312873240107F807EF07DFA7C02900F2A1287CD802A7F807E0F7D057CFD900F2AE0F8A3E0F9A3E0FAA3E0FBC381
:40778000128732500E7F807E0F7D057CFD900F2A1287CDE4F532F531F530F52FFFFEFDFCAB5AAA59A958A857C31287326026AF2AAE29AD28AC27A8571285FA780D12876CEC
:4077C000E5322FF532E5313EF531E5303DF530E52F3CF52FE4FFFEFDFCAB5EAA5DA95CA85BC3128732602C900F2AE0FCA3E0FDA3E0FEA3E0FFA85B1285FA780D12876CE580
:40780000322FF532E5313EF531E5303DF530E52F3CF52FE4FFFEFDFCAB62AA61A960A85FC31287326043900F32E0F8A3E0F9A3E0FAA3E0FBC3E52A9BFFE5299AFEE5289950
:40784000FDE52798FCAB62AA61A960A85F1285FA780D12876CE5322FF532E5313EF531E5303DF530E52F3CF52FAF2AAE29AD28AC27900F321287CDE4FFFEFDFCAB32AA3135
:40788000A930A82FC31287324004D2118002C211900BA0E0FEA3E0FFEE3395E0FDFCAB32AA31A930A82FD31287324016900BA0E0FEA3E0FFEE3395E08F328E31F530F52F8E
:4078C000803C900BA0E0FEA3E0FFC3E49FFFE49EFE3395E0FDFCAB32AA31A930A82FC3128732501A900BA0E0FEA3E0FFC3E49FFFE49EFE3395E08F328E31F530F52F900EFC
:4079000075E0F8A3E0F9A3E0FAA3E0FBC3E5329BF52EE5319AF52DE53099F52CE52F98F52B900F2EE0FCA3E0FDA3E0FEA3E0252EFFEE352DFEED352CFDEC352BFC900F2E51
:407940001287CD7FA07E867D017C00900F2EE0F8A3E0F9A3E0FAA3E0FBD312873240107FA07E867D017C00900F2E1287CD802A7F607E797DFE7CFF900F2EE0F8A3E0F9A3F0
:40798000E0FAA3E0FBC3128732500E7F607E797DFE7CFF900F2E1287CDE4F526F525F524F523FFFEFDFCAB6AAA69A968A867C31287326026AF2EAE2DAD2CAC2BA8671285DA
:4079C000FA780D12876CE5262FF526E5253EF525E5243DF524E5233CF523E4FFFEFDFCAB6EAA6DA96CA86BC3128732602C900F2EE0FCA3E0FDA3E0FEA3E0FFA86B1285FA75
:407A0000780D12876CE5262FF526E5253EF525E5243DF524E5233CF523E4FFFEFDFCAB72AA71A970A86FC31287326043900F36E0F8A3E0F9A3E0FAA3E0FBC3E52E9BFFE55E
:407A40002D9AFEE52C99FDE52B98FCAB72AA71A970A86F1285FA780D12876CE5262FF526E5253EF525E5243DF524E5233CF52374FF7F9CFEFDFCAB26AA25A924A823C3126F
:407A80008732500D74FF75269CF525F524F523801EE47F64FEFDFCAB26AA25A924A823D3128732400AE4752664F525F524F523AF2EAE2DAD2CAC2B900F361287CD027EE806
:407AC000900E69E0F8A3E0F9A3E0FAA3E0FB900C37E0FCA3E0FDA3E0FEA3E0C39BF52AEE9AF529ED99F528EC98F527900F2AE0FCA3E0FDA3E0FEA3E0252AFFEE3529FEEDE9
:407B00003528FDEC3527FC900F2A1287CDE47FE87E03FDFC900F2AE0F8A3E0F9A3E0FAA3E0FBD3128732400FE47FE87E03FDFC900F2A1287CD802A7F187EFC7DFF7CFF9078
:407B40000F2AE0F8A3E0F9A3E0FAA3E0FBC3128732500E7F187EFC7DFF7CFF900F2A1287CDE4FFFEFDFCAB42AA41A940A83FC3128732601AAF2AAE29AD28AC27A83F1285FA
:407B8000FA781012876C8F268E258D248C23E4FFFEFDFCAB46AA45A944A843C3128732602C900F2AE0FCA3E0FDA3E0FEA3E0FFA8431285FA781012876CE5262FF526E5253A
:407BC0003EF525E5243DF524E5233CF523E4FFFEFDFCAB4AAA49A948A847C31287326043900F32E0F8A3E0F9A3E0FAA3E0FBC3E52A9BFFE5299AFEE52899FDE52798FCAB7F
:407C00004AAA49A948A8471285FA781012876CE5262FF526E5253EF525E5243DF524E5233CF523AF2AAE29AD28AC27900F321287CDE4FFFEFDFCAB26AA25A924A823D31211
:407C400087324005D211027EE8C211027EE8900C4FE07003027EE8201003027EE8900C3FE0FCA3E0FDA3E0FEA3E0F5328E318D308C2F900BA0E0FEA3E0FFEE3395E0FDFC7C
:407C8000AB32AA31A930A82FD31287324016900BA0E0FEA3E0FFEE3395E08F328E31F530F52F803C900BA0E0FEA3E0FFC3E49FFFE49EFE3395E0FDFCAB32AA31A930A82F49
:407CC000C3128732501A900BA0E0FEA3E0FFC3E49FFFE49EFE3395E08F328E31F530F52F900E75E0F8A3E0F9A3E0FAA3E0FBC3E5329BF52EE5319AF52DE53099F52CE52F0C
:407D000098F52B900F2EE0FCA3E0FDA3E0FEA3E0252EFFEE352DFEED352CFDEC352BFC900F2E1287CD7FA07E867D017C00900F2EE0F8A3E0F9A3E0FAA3E0FBD312873240E1
:407D4000107FA07E867D017C00900F2E1287CD802A7F607E797DFE7CFF900F2EE0F8A3E0F9A3E0FAA3E0FBC3128732500E7F607E797DFE7CFF900F2E1287CDE4F526F5250D
:407D8000F524F523FFFEFDFCAB4EAA4DA94CA84BC31287326026AF2EAE2DAD2CAC2BA84B1285FA781012876CE5262FF526E5253EF525E5243DF524E5233CF523E4FFFEFDE7
:407DC000FCAB52AA51A950A84FC3128732602C900F2EE0FCA3E0FDA3E0FEA3E0FFA84F1285FA781012876CE5262FF526E5253EF525E5243DF524E5233CF523E4FFFEFDFCF8
:407E0000AB56AA55A954A853C31287326043900F36E0F8A3E0F9A3E0FAA3E0FBC3E52E9BFFE52D9AFEE52C99FDE52B98FCAB56AA55A954A8531285FA781012876CE5262F40
:407E4000F526E5253EF525E5243DF524E5233CF523AF2EAE2DAD2CAC2B900F361287CDE4FFFEFDFCAB26AA25A924A823C31287324004D2118072C211806E900C47E0FCA34B
