:40000000021415008F828E83E0540100000070F82278FFE4F6D8FD02147A900000EFF0E4F53FF540F541F54275430AC200121F87EF60057F00121FB7122067D2AF9044F4FC
:4000400074FDF0E4F53B754900754A00754B37900000E0FF70067EFF7FFF80008F4C7B017A0079017D2C7C011212FA8F3E900000E060021543E5436004E53E70C9E53E6046
:400080000302059FC3E5389407E53794004008900001E064016005753B04807E900004E0FE900003E0FDEEF53FEDF54074062540F5827400353FF583E0FE74052540F58228
:4000C0007400353FF583E0FDEEF53CEDF53DE5402407FFE4353FFED3EF9538EE95374005753B03803574072540F5827400353FF583E064176005753B04801F7B017A0079B1
:4001000001E5402404FDE4353FFC121C66EF653D7003EE653C6003753B08E4F539F53AE53B600302058E900005E0F536753B04900002E012088801553101823202083403A0
:400140007A3503883703D438020839040F3A05783B0000058B20000302058EE540453F600302058EFF120D84EF70047F0180027F00900005EFF0753900753A01E4F53B0260
:40018000058E20000302058EE5406401453F600302058EE536C39401400302058E900357E0FEA3E0F5828E83120842E4FBFA7901F81207188F24E536B5241E900357E0FE6B
:4001C000A3E0F5828E83120842E4FB7A01F9F81207187522008F238014E536D395244007E4F522F5238006752201752300E523900005F0E522A3F0A374FFF0E4A3F0F539B6
:40020000753A04F53B02058E900002E06434703C20000302058EE5406403453F600302058EE536C39440400FE536D3947F50087541007542108006754101754220AE41AF47
:40024000427D007B017A01792D1208FF20000302058EC3E5409403E53F9400500302058EE54024FDFFE53F34FFFE742D2542F974013541A801FC7D017B017A0079081209F7
:40028000E7E54024FDFFE53F34FFFEEF2542F542EE3541F541E536C394404012E536D3947F500B121DA8753F007540108006753F01754020E54265407004E541653F600369
:4002C00002036F900007E0FE900006E0FDEEF541EDF542E536D3943F506FE5367F00FEEF2542FFE5413E900259F0A3EFF0900357E0FEA3E0F5828E83120842E4FB7A01F9AA
:40030000F812071890025BEEF0A3EFF0900357E0FEA3E0F5828E83120842EFE4EF600A90025BE475F0011205DA90025BE0FEA3E0FFC390025AE09F900259E09E500B753BD5
:400340000AE4F541F54202058E7B017A01792D900263E53FF0A3E540F0AD42AC41AF36120F0BEF60047F0A80027F008F3B8003753B03E4F541F54202058E20000302058EC7
:40038000E4F541F54202059F20000302058EE5422540FFE541353FFED3EF942CEE9401502DE4F53BAE3FAF40742D2542F974013541A801FC7D017B017A0079051209E7E58F
:4003C000402542F542E53F3541F54102058E753B0302058EE540453F600302058E78257C00FD7BFF7A25791FFE7F081209E7D200753900753A08AE39AF3A78057C007D0105
:400400007B007A0079251209E7E4F53B02058E20000302058EE5406403453F600302058E900007E0FE900006E0FDEEF52FEDF530E536C394404038E536D3947F5031AE2F29
:40044000AF307C007D101208D28F348E338D328C318F4B8E4A8D498C48E4754F10F54EF54DF54CFF7E80FDFC12192C8F358050AE2FAF307C017D001208D2C004C005C006FC
:40048000C007AF36E4FCFDFEFBFA7901F812068DD003D002D001D0001206728F348E338D328C318F4B8E4A8D498C48E4F54F754E01F54DF54CFFFE7D10FC12192C8F35E588
:4004C00036D3943F5072AF367E007C207D001208D2E42FFFE43EFEED3408FDE43CFCC004A905AA06AB07AE2FAF307C007D201208D2D0001206728F348E338D328C31E4F5BA
:400500002DF52EC3E52E9420E52D9400502AE4E52E2534FFE52D3533FEE43532FDE43531A907AA06AB05121CF3EF2535F535052EE52E7002052D80CBE536702AAE2FAF301E
:40054000FCFD7BFFFAF9F8C31207C57019FD7F05120A3DC3E5359FF535E4FD7F06120A3DC3E5359FF535E535F404900005F0E4F53BF539753A018016E4FF120D84EF700604
:400580009046FA7480F01220718003753B057B017A007901853948853A49AF3B1215ED900000E0700302004330000302004322BB010689828A83E0225002E722BBFE02E399
:4005C0002289828A83E49322BB010689828A83F0225002F722BBFE01F322C5F0F8A3E028F0C5F0F8E582158270021583E038F022BB010A89828A83E0F5F0A3E022500687B6
:40060000F009E71922BBFE07E3F5F009E3192289828A83E493F5F074019322BB010789828A830205DA500B09C5F027F7C5F01937F722BBFE0D09F8E325F0F3C5F019E338A6
:40064000F322F889828A8374019325F0C5F0F8E4933822BB010A89828A83F0E5F0A3F0225006F709A7F01922BBFE06F3E5F009F31922EF2BFFEE3AFEED39FDEC38FC22C315
:40068000EF9BFFEE9AFEED99FDEC98FC22E88FF0A4CC8BF0A42CFCE98EF0A42CFC8AF0EDA42CFCEA8EF0A4CDA8F08BF0A42DCC3825F0FDE98FF0A42CCD35F0FCEB8EF0A47C
:4006C000FEA9F0EB8FF0A4CFC5F02ECD39FEE43CFCEAA42DCE35F0FDE43CFC2275F008758200EF2FFFEE33FECD33CDCC33CCC58233C5829BED9AEC99E58298400CF582EE4A
:400700009BFEED9AFDEC99FC0FD5F0D6E4CEFBE4CDFAE4CCF9A88222B800C1B90059BA002DEC8BF084CFCECDFCE5F0CBF97818EF2FFFEE33FEED33FDEC33FCEB33FB10D7C4
:4007400003994004EB99FB0FD8E5E4F9FA227818EF2FFFEE33FEED33FDEC33FCC933C910D7059BE99A4007EC9BFCE99AF90FD8E0E4C9FAE4CCFB2275F010EF2FFFEE33FE50
:40078000ED33FDCC33CCC833C810D7079BEC9AE899400AED9BFDEC9AFCE899F80FD5F0DAE4CDFBE4CCFAE4C8F922EF4BFFEE4AFEED49FDEC48FC22C3E49FFFE49EFEE49D2F
:4007C000FDE49CFC22EB9FF5F0EA9E42F0E99D42F0E89C45F022E8600FECC313FCED13FDEE13FEEF13FFD8F122E8600FEFC333FFEE33FEED33FDEC33FCD8F122BB010789DC
:40080000828A830208365005E9F8020A0DBBFE05E9F8020A1989828A83020842BB010789828A8302085E5005E9F8020A25BBFE05E9F8020A3122E0FCA3E0FDA3E0FEA3E06A
:40084000FF22E493FC740193FD740293FE740393FF22E0F8A3E0F9A3E0FAA3E0FB22ECF0A3EDF0A3EEF0A3EFF022E0FBA3E0FAA3E0F922EBF0A3EAF0A3E9F022E493FB74E9
:400880000193FA740293F922D083D082F8E4937012740193700DA3A393F8740193F5828883E4737402936860EFA3A3A380DFE5092582F582E5083583F583B50804858209B7
:4008C0002210AF06858209F50822858209F508D2AF22EC8EF0A4CCC5F0CCCDF8EFA4CEC5F02DFDE43CFCE8A42EC8C5F03DFDE43CFCEFA4FFE5F028FEE43DFDE43CFC22EF51
:400900004E6012EF60010EEDBB010B89828A83F0A3DFFCDEFA2289F05007F709DFFCA9F022BBFEFCF309DFFCA9F022E709F608DFFA8046E709F208DFFA803E88828C83E7AA
:4009400009F0A3DFFA8032E309F608DFFA806EE309F208DFFA806688828C83E309F0A3DFFA805A89828A83E0A3F608DFFA804E89828A83E0A3F208DFFA804280D280FA80F3
:40098000C680D4805580F28029801080A680EA809A80A880DA80E280CA802988848C8589828A83E493A30586F0A30586DFF5DEF3800B89828A83E493A3F608DFF9ECFAA95D
:4009C000F0EDFB2288848C8589828A83E0A30586F0A30586DFF6DEF480E389828A83E493A3F208DFF980D688F0EF60010E4E60CD88F0ED2402B4040050C3F582EB2402B455
:400A0000040050B9232345822390097B73E6FC08E6FD08E6FE08E6FF22E2FC08E2FD08E2FE08E2FF22ECF608EDF608EEF608EFF622ECF208EDF208EEF208EFF22290025D03
:400A4000EDF0AB079002627402F0E4FFFEFDFCA312085EEB1208880A79010AA6020ACB030AF0040B15050B40060B8F070B6B080BB3090BD70A00000C0190025DE0FF7E005E
:400A80007C017D001208D21207B7EF24C0FFEE34FFFEED3410FDE43CFCA312085E9002627401F0020C0C90025DE0FF7E007C017D001208D2C374C39FFF74FF9EFE74109DBD
:400AC000FDE49CFCA312085E020C0C90025DE0FF7E007C017D001208D2C374C79FFF74FF9EFE74109DFDE49CFCA312085E020C0C90025DE0FF7E007C017D001208D2C37433
:400B0000CB9FFF74FF9EFE74109DFDE49CFCA312085E020C0C90025DE0FF7E007C017D001208D2C374D09FFF74FF9EFE74109DFDE49CFCA312085E9002627401F0020C0C60
:400B400090025DE0FF7E007C017D001208D2C374D19FFF74FF9EFE74109DFDE49CFCA312085E9002627401F0020C0C90025DE0FF7E007C017D001208D2C374D69FFF74FF16
:400B80009EFE74109DFDE49CFCA312085E807D90025DE0FF7E007C017D001208D2C374D29FFF74FF9EFE74109DFDE49CFCA312085E805990025DE0FF7E007C017D00120811
:400BC000D2C374D49FFF74FF9EFE74109DFDE49CFCA312085E803590025DE0FF7E007C017D001208D2C374D89FFF74FF9EFE74109DFDE49CFCA312085E9002627404F08082
:400C00000BE4FFFEFDFC90025E12085E900262E0B4011990025E120836A907AA06AB05121CF3E4FCFDFE90026312085E900262E06402705C90025E120836EF2401FFE43E91
:400C4000FEE43DFDE43CA907AA06AB05121CF3E4FCFDFE90026312085E900263120852C000C001C002C00390025E120836A907AA06AB05121CF3E4FCFDFE78081207E9D0BA
:400C800003D002D001D0001207AA90026312085E900262E064046003020D7D90025E120836EF2403FFE43EFEE43DFDE43CA907AA06AB05121CF3E4FCFDFE90026312085E37
:400CC000900263120852C000C001C002C00390025E120836EF2402FFE43EFEE43DFDE43CA907AA06AB05121CF3E4FCFDFE78081207E9D003D002D001D0001207AA9002634F
:400D000012085E900263120852C000C001C002C00390025E120836EF2401FFE43EFEE43DFDE43CA907AA06AB05121CF3E4FCFDFE78101207E9D003D002D001D0001207AA84
:400D400090026312085E900263120852C000C001C002C00390025E120836A907AA06AB05121CF3E4FCFDFE78181207E9D003D002D001D0001207AA90026312085E90026356
:400D8000120836228F44AD447F03120A3DEF2401FFE43EFEE43DFDE43CFCE4FB7A01F9F812068DC004C005C006C007AD447F04120A3DD003D002D001D0001206728F4C8EA9
:400DC0004B8D4A8C49C201E4F54DAD447F03120A3DEF2401FFE43EFEE43DFDE43CFCE4FB7A01F9F812068D8F488E478D468C45AF4CAE4BAD4AAC49AB48AA47A946A845C337
:400E00001207C55032854882854783E493F54E6005F46002D201E54E254DF54DAF48AE47AD46AC45E47B01FAF9F81206728F488E478D468C4580B8AD447F03120A3DEF2479
:400E400001FFE43EFEE43DFDE43CFCE4FB7A01F9F812068D78031207D68F488E478D468C45E47FC07EFFFDFCAB4CAA4BA94AA849C31207C57007FF7E20FDFC800DAF4CAE21
:400E80004BAD4AAC4978031207D68F4C8E4B8D4A8C49AF4CAE4BAD4AAC49AB48AA47A946A845C31207C55039E42548FFE43547FEE5463408FDE43545A907AA06AB05121CB9
:400EC000F3EF254DF54DAF48AE47AD46AC45E47B01FAF9F81206728F488E478D468C4580B1E54DF404F54DAD447F01120A3DA804A905AA06AB07AF4DE4FCFDFEC31207C5CC
:400F000070032001037F06227F002290025EECF0A3EDF0A312087390025DEFF0E4900265F0EFD3943F500E90025DE0940140069002657401F090025DE0FFD3947F4006903A
:400F400002657401F0EFC39440400CEFD3944140069002657401F0EFD3943F501E90025EE0FEA3E0FFE4FCFDFB7A01F9F8C31207C5502F9002657401F08027D390025FE03C
:400F8000948090025EE0940040069002657401F0900263E07004A3E0641060069002657401F090026012086AE94A4B700590026504F0900265E0600302108A121EFEEF606E
:400FC0000302108490025EE0FCA3E0FDA312086A900263E0FFA3E090026CCFF0A3EFF090025DE0FF1211DE900265EFF06407600302107F904722E0540270087F01FE121EF6
:401000006480F0904722E054026009E0FF1313543FFF80027FFFEF7006900265F0800690026574FFF0900265E0705490025DE0FFA3E0FCA3E0FD900353E0FBA3E090026AD9
:40104000F0121A90900265EFF064077032904722E0540270087F01FE121E6480F0904722E054026009E0FF1313543FFF80027FFFEF7006900265F0800690026574FFF0124B
:40108000205180069002657404F0900265E0FF227B007A4679E8121CF3EF4401FD7B007A4679E8122045E4F52CE52CC3940A502CE52C75F005A42461F582E43424AF82F571
:4010C000218F22F58312087C8F82852183740393FC740493FD121F6E052C80CDE4F52CE52CC394015046E52C75F007A42413F582E43425AF82F5238F24F58312087C8B25E1
:401100008A2689278F82852383740393FE7404938E28F529740593F52A740693F52BAD29AC28FFAE2A121EB8052C80B37E207F92121DD97B017A507903121CF3EF4402FD3B
:401140007B017A5079031220457B017A507913121CF3EF4402FD7B017A5079131220459043A0E04440F09043C2E04410F07C207D827B007A5179127F087E00121EB87C2053
:401180007D8A7B007A5179227F087E00121EB89044F47401F0904322E04408F09046ECE0C394055006904689743AF090480074F1F012150690480074B1F0121F1D7B007A41
:4011C0004379A0C00179B0900005120873D0017F0E7E00121D749043B0E054FDF022900266EFF0A3ECF0A3EDF0A312087390026E7407F0904722E0540270030212EE904756
:401200002074B6F074D5F07402F0904722E0540260030212E6900266E0904720F0E490026FF0A3F090026CE0FEA3E0FF90026FE0FCA3E0FDC39FEC9E501F90026912086A8D
:40124000E92DF9EA3CFA1205AF904720F090026FE475F0011205DA80CB90026CE064017002A3E060030212F4900266E0FFD3943F40030212F47E007C207D001208D2E42F0A
:40128000FFE43EFEED3408FDE43CFCC004A905AA06AB07A3E0FEA3E0FF7C007D201208D2D00012067290027112085EE490026FF0A3F090026FE0FEA3E0FFC39420EE94005A
:4012C0005032E4FCFDA3120852120672A907AA06AB05121CF3904720EFF090026FE475F0011205DA80CC90026E7409F0800690026E7404F090026EE0FF228B448A4589469E
:401300008C478D48755505E4F54DF54EE54C75F00AA4FFC3E54E9FE54D95F0503B121B34EF6022121B347553008F54E47F19FEFDFC1218C7121B34D3EF9554E4955350E366
:40134000E4F5558013E47F01FEFDFC1218C7054EE54E7002054D80B4AB49AA4AA94BE4F5F0120653E4F54FF550121B34EFD394005003021412121B347551008F52AB49AA8D
:401380004AA94BE5518552F012061BAB49AA4AA94B1205F0C39548E5F09547505FE4F54DF54EC3E54E9552E54D95515025121C1CAB44E5462550F9E545354FFAEF1205C8C1
:4013C0000550E5507002054F054EE54E7002054D80D0AB44E55024FFFFE54F34FFFEE5462FF9E5453EFA1205AF64177003021369E47F05FEFDFC1218C7021369AB49AA4ABB
:40140000A94B1205F0C39552FFE5F095518FF0120653AF552275930078007583467582E8E04401F0009046ECE0F99046FAE0FA90034BF0B903225420B40012B8001AEA9014
:401440001FFFF07401901FFEF09046F6F0901FFEE06005901FFFE0FA90480074C0F0758156121EDE90000078007920E4F0A3D8FCD9FAEA90034BF002001175081F7509FD1F
:401480001210900214C1022079E493A3F8E493A34003F68001F208DFF48029E493A3F85407240CC8C333C4540F4420C8834004F456800146F6DFE4800B0102040810204063
:4014C00080901B83E47E019360BCA3FF543F30E509541FFEE493A360010ECF54C025E060A840B8E493A3FAE493A3F8E493A3C8C582C8CAC583CAF0A3C8C582C8CAC583CABE
:40150000DFE9DEE780BE7B007A4079807D337C001220279040827418F09043007402F09040007408F09042007403F07B0C7A017908121CF39046A1EFF07B007A4279227D68
:40154000087C001220277B007A4279207D517C12122027E4900004F07F19FEFDFC90000012085E900000120836D3EF9400EE9400403B900004E0FF64036032904225E05440
:4015800001FEEF25E04E5403900004F0E47FE07E01FDFC121D0090000012083674FFFBFAF9F812067290000012085E80B6900000120836EF4E70057F0312207F7B007A402A
:4015C00079047D007C011220279040047407F0904006E4F09040087448F0904004E4F09040017402F09043A2E04401F0228B458A46894774011205C8AB452547F9E43546AB
:40160000FAEF1205C8E549AB45E5472402F9E43546FAE5491205C8E548FFAB45E5472403F9E43546FAEF1205C8AB45AA46A947E5492404FDE43548FC121C668E4A8F4BEFCF
:40164000AB45E5492404FDE43548FCE5472DF9E5463CFAEF1205C8E54AFFAB45E5492405FDE43548FCE5472DF9E5463CFAEF1205C8AB45E5492406FFE43548FEE5472FF9FF
:40168000E5463EFA74171205C8E5492407FDE43548FC755100755200755348755496AB45AA46A947121BD122C0E0C083C082C085C084C086758600C093759300C0D075D09F
:4016C00000C001C002C003C006C007E4FBA2AF33FAD2AF9044F474FDF090646CE0FFFE541EF960069002FDE049F0EF30E54590644AE0FE9002F9E02478F582E43402F583E5
:40170000EEF07B01EB602C900276E060069002FC7401F09002F9E004F0E0C394404002E4F0900277E0FE9002F9E0B506069002767401F0EF20E5A2AF02EA24FF92AFD007BF
:40174000D006D003D002D001D0D0D093D086D084D085D082D083D0E032752106E4FF120D84EF7002F521E4F54BF54AF549F548900357E0FEA3E0F5828E831208428F4F8E82
:401780004E8D4D8C4CE4FFFE7D10FC12192C900355E0FCA3E0F5828C83E493FEC3EF9EFFF404FFB50612900357E0FEA3E0F5828E83120842EF4E70057F00121FB79046FAFB
:4017C000E054C064406004E52160099046FAE4F0FF12001A12205D22C0E0C083C082C085C084C086758600C093759300C0D075D000C006C007A2AFE433FFD2AF9044F4742E
:40180000FDF09002FAE0FE9002B8E06E602C90646EE020E2259002B8E0C394404002E4F09002B8E024B9F582E43402F583E090644DF09002B8E004F080C8EF24FF92AFD043
:4018400007D006D0D0D093D086D084D085D082D083D0E032A9079002FAE0FF9002B8E0FEEFC39E501AEE24FFFDE434FFFCEF7A00B50508EAB504047D0180027D00800CC346
:40188000EF9EB43F047D0180027D00ED70C8EEB5070D90646EE020E20690644DE9F022EFC394404002E4FF74B92FF582E43402F583E9F00F9002FAEFF090646EE030E10609
:4018C0009044D07402F02290FFFC1208AE12085E850883850982120836D3EF9400EE9480402E90034C120836121D00850883850982C083C082120836E42FFFEE3480FEEDC9
:4019000034FFFDEC34FFFCD082D08312085E80C090034212083685088385098212085212068D121D009000041208AE228F478E468D458C44E4F550D3E54F9400E54E940025
:40194000404BAF4FAE4EAD4DAC4C74FFFBFAF9F81206728F4F8E4E8D4D8C4CE547254BFFE546354AFEE5453549FDE5443548FCEF254FFFEE354EFEED354DFDEC354CA907BD
:40198000AA06AB051205AF2550F55080AAAF5022121FE190025E74FFF0121EFEEF703B7F01121E35EF6407702C7B017A0379537D021219E6EFB40215E490025EF090472228
:4019C000E0540270107F01FE121E6480F0904722E0540260D4122051800690025E7404F090025EE0FF2290025F120873900262EDF0E4A3F0900262E0FFA3E0C39F50379065
:401A00004722E054016003D38001C340097F017E00121E6480E9904720E0FF90025F12086A900263E029F9E43AFAEF1205C8900263E004F080BE900263E0FF2290025EEC49
:401A4000F0A3EDF090025DEFF0541F25E0FFE433FEE42FFFEE3444FAA9077B0112201A900260EEF0A3EFF090025DE075F002A42400FFE5F03444FAA9077B01A3E0FEA3E0EC
:401A8000FFFDAC06122029900260E0FEA3E0FF22900267ECF0A3EDF0AC077D07904722E05402603B90472074B6F074D8F07405F0904722E054027023904720ECF09002670F
:401AC000E0904720F0900267E0A3E0904720F0EBF090026AE0904720F080067D0980027D04AF0522121FE1121EFEEF703B121F3A90025EEFF06407702A904722E0540270A1
:401B0000087F01FE121E6480F0904722E054026009E0FF1313543FFF80027FFFEF700490025EF0122051800690025E7404F090025EE0FF229044C87401F09002F9E0FE905D
:401B40000277E0B5060E900276E060047F40802CE4FF80289002F9E0FE900277E0C39E500BE0FE9002F9E0C39EFF8010900277E0FEC374409EFE9002F9E02EFF9044C07420
:401B800001F022420355251A420357251B430350000000440347016E360044034200005DC04103461844034C2EE000004102FB004102B8004102FA004102FD00410277003B
:401BC0004102F900410276004102FC0041035B00008B4C8A4D894E8C4F8D50E4F555F556121E07C3E5569550E555954F501DAB4CE54E2556F9E54D3555FA1205AFFF121874
:401C0000540556E5567002055580D8AB51AA52A953E54F8550F01206537F00229044C87401F0900277E0FE9002F9E0FD900276E07004EE6D602474782EF582E43402F583EF
:401C4000E0FF0EEEC394404002E4FE900277EEF0900276E06009E4F0800590644AE0FF9044C07401F0228B4C8A4D894EE4F54FF550D3ED9400EC94004025AB4CED24FFFFD4
:401C8000EC34FFFEE54E2FF9E54D3EFA1205AF2550F550E4354FF54FED1D70011C80D2E550F4FFE54FF4FEEF2401FFE43EFE227C167DA8E4FF121A3C7D07E4FF121F55E4B7
:401CC0009002FDF090648A7469F090648C7420F07C177DD87F01121A3C7D077F01121F5590642E7406F090643E7447F090648E7402F0228B938A838982E0759300FF22000A
:401D0000EC4D4E700D78FCEF24E950032840FD2200007BF178DA0000EF28FF78FFEE38FEED38FDEC38FC50E7EF2BFFEE38FEED38FDEC38FC40F22205020304121FCC9002FD
:401D40005DEFF090649AE04420F090649CE04410F09044C07401F090649EE04410F09044D87402F09044C0F012203690025DE0FF121F9F22758600EF4E6027EF60010E75B2
:401D80009300900005E0F595A3E0F585A3E0F5848B938A838982E0A30586F0A31586DFF6DEF4E4F593F59522121FCC9043A0E04408F09043B0E04408F090470174C8F090A8
:401DC00043ACE04410F09043BCE04410F0904700E0542060F8121F9F22ACEAADA08E838F82E493F9601CA3E493F5EAA3E493F5A0A3E49360F1FAA3E493F8A3E493F2DAF6BC
:401E0000D9E48DA08CEA22121FCC90649AE04401F0E054FEF0121F9F9044C87401F0E4900277F09002F9F0900276F09002FCF09044C004F0227E07904722E05402601F9052
:401E4000472074B6F074E1F0740EF0904722E054027007904720EFF080067E0980027E04AF062200EEFA900346E0F88FF0A4FFAEF0E88AF0A42EFEE5F03400FDEF24C9FF5A
:401E800078FFEE38FEED38FDE438FC5003021D0022121FCC90649DE04401F0E054FEF0121F9F9044C87402F0E49002B8F09002FAF09044C07402F022758600EF4E601BEFCA
:401EC00060010E8C838D828B958A858984E493A30586F0A31586DFF5DEF3E4F595229046FAE054C064807015F0FD7F02120A3DEF4E600AE4FD7F02120A3D122009229002CC
:401F0000667404F0121FCC90035BE0700704F0E4900266F0121F9F900266E0FF227B0C7A0179CF121CF3EF540790586EF0EFC4540FA3F09058767444F0227F07904722E0DD
:401F40005402600E90472074B6F074E0F0740DF080027F0422AC07ED540775F020A4FFEC541F2480F582E43444F583EFF022EC4D6011ED60010C8B938A838982E4F0A3DDB0
:401F8000FCDCFA75930022121AE490025DEFF0700812199090025DEFF090025DE0FF22EF54016004D2AF8002C2AFEF5402FF9044F4E054FD4FF02290FFFF1208AEEFF090D7
:401FC00046EA7401F09000011208AE229044F4E0F84402F0E85402FF10AF012274014FFF22121FCC9043A0E04408F09043B0E04408F0121F9F229002FBE07009121CAF9087
:4020000002FB7401F0121D3B2290034BE0FA8E838F827400758101738B938A838982E0FFA3E0FE759300228B938A838982EDF0A3ECF0759300229043A2E04401F09043B26F
:40204000E04401F0228B938A838982EDF075930022121FCCE490035BF0121F9F229046FA7480F012207122121FF6121E07121E91229046F6E04401F02212175980FE2280DC
:40208000FE22007F7B007B00000030D8C800D800000016005205082309121098118814200064047E3F8A698C3A8E0F010101E204010301E6020105028702E008010604B82E
:4020C00002BE01D804DF010107021B02A702010A088501890195019901B101BF01D904DF01010B4F00400106038808010A040B111028130219641A041B0A202021082230E9
:40210000274028282A022B022E033080310232103304340836203708382239803A083C283E084028410843824A024B0152045B4068286A016B027090712072108D408E104D
:402140008F809042910493109621980199029B0C9D649E049F80A004A102A202A490A520A702AB01B021B405B602B744C00FC20FC40ECA0FCC6FCE6FD00FD208D608E0083A
:40218000E801010C4C0001021608E70A180E3F101E120114C6163918481C88208824DD262228232ADC2CC8301F320834E03A22541A560458045B045F018008824284F88698
:4021C000018704880F89028AF08D068EC792849308943996C698109C20A020A101A43FA6C0A906AA08AC30B031B106B308B501B6FFB702B982BE40BF11C062C101C5E0C6DA
:40220000CBC80EC9FFCAFFCBFFCEF0CF44D00CD804D904DA04DF01E6C0EA40EB02010D46002901100210030B04010709080209260A310D220E11108012481388151016502C
:402240001780180219021C081D021E201F20200421012208230128402920320238C839A43A083B10414042084921502053405E205F026540674887409088912093089502C2
:40228000978098409B4A9C029D259E049F04A420A504A72AB001B301C0DFC2FFC4FFCA05CC01CE0ED00CD204D6A0D8B0010E4E040906D007230B080C0C0D210E710F0E1048
:4022C00014141016AC170C18DC1A221B201E0321102410264029212A202B062D0C2F2330E03310350F361F37203A023B203F444004464049FF4A074BFF4C404D204EF04F8A
:4023000005500854015604580459045A045B045F01604061A862406320871F89198B0691019304950997029A01A506A719A919AA01AB06AF0FB201B310B507B708B908BB65
:4023400020BE04D804D904DB04DF01010F3C004404040504084809200A010B800E0810081210160418C01A011F042130224425102604270A280829212A802F2A303031047A
:402380003402370438883A103D284101500C5210581059015A886380680169046A206B406F0171407304821083408550868089048B04C005C24FC446CA7DCCC6CE6ED00101
:4023C000D60FD801E40C014005322035808180CC30E2200141038620A620E6400144058301870188C0E004E40401450F0C0857025B046401660193029889A040A301B009C2
:40240000C204D607D801E801EC0401460D8702900893029888A040A301A702AB04B40CB601E808EC02EE08014705900893029888A040A301014C0E5004544057015808607D
:40244000806702900893029888A040A301D406D607D80201500300010C010E01015101000F005100001000513000400051C000100051F000100100000A00010A800580018E
:40248000140008000140000A00014C000200015000002000008080207D050000040800130C0400030204200A031410130C0C7300088000400800004043003C404F003000DE
:4024C0000000734000303F0FC0800008002028000040003402010005C0000E12FFFFFF62A0F0410C00000000000210040404040000000100000000000040020010301000CE
:4025000010101200000000000000000000000000000000010A002493008061000026006930091E031E010100000000000000000000000000000000000000000000000000BD
:40254000000000000000000000000000000000000000000000000000000000000000000000000000000000000000000000000000000000000000000000000000000000005B
:40258000000000000000000000000000000000000000000000000000000000000000000000000000000000000000000000000000000000000000000000000000000000001B
:4025C00000000000000000000000000000000000000000000000000000000000000000000000000000000000000000000000000000000000000000000000000000000000DB
:4026000002AA48008F828E83E0540100000070F82278FFE4F6D8FD02AAD6900002EEF0A3EFF078047C007D017BFF7A5A79DD7E067F41127E109006457406F0A37441F07828
:402640004B7C067D017BFF7A61791E7E007F0F127E10785A7C067D017BFF7A61792D7E007F1C127E1078767C067D017BFF7A6179497E007F1B127E1078917C067D017BFFB1
:402680007A6179647E007F1C127E1078AD7C067D017BFF7A6179807E007F22127E1078CF7C067D017BFF7A6179A27E007F27127E1078F67C067D017BFF7A6179C97E007FFA
:4026C00011127E1078077C077D017BFF7A6179DA7E007F19127E1078207C077D017BFF7A6179F37E007F11127E1078317C077D017BFF7A6279047E007F1C127E10784D7CCC
:40270000077D017BFF7A6279207E007F1D127E10786A7C077D017BFF7A62793D7E007F1B127E1078857C077D017BFF7A6279587E007F14127E1078997C077D017BFF7A6286
:40274000796C7E007F25127E1078BE7C077D017BFF7A6279917E007F15127E1078D37C077D017BFF7A6279A67E007F15127E1078E87C077D017BFF7A6279BB7E007F1412E8
:402780007E1078FC7C077D017BFF7A6279CF7E007F24127E1078207C087D017BFF7A6279F37E007F19127E1078397C087D017BFF7A63790C7E007F18127E1078517C087D97
:4027C000017BFF7A6379247E007F21127E1078727C087D017BFF7A6379457E007F15127E1078877C087D017BFF7A63795A7E007F63127E1078EA7C087D017BFF7A6379BD57
:402800007E007F3F127E1078297C097D017BFF7A6379FC7E007F2A127E107B017A06794B12CAC28F2C7B017A06795A12CAC28F2D7B017A06797612CAC28F2E7B017A067988
:40284000F612CAC28F2F7B017A07790712CAC28F307B017A07792012CAC28F317B017A07794D12CAC28F327B017A07796A12CAC28F337B017A07798512CAC28F347B017A84
:402880000779BE12CAC28F357B017A0779D312CAC28F367B017A0779E812CAC28F377B017A08792012CAC28F387B017A08797212CAC28F397B017A08798712CAC28F3A7BDF
:4028C000017A0879EA12CAC28F3B7B017A09792912CAC28F3C7B017A08795112CAC28F3D900004740CF0A37416F0900002E0FEA3E0FFEE6003023B98EFB417004003023BDB
:4029000098902908F828287302294D0236A00236A902377902384902385C02386502386E02389902391702395402395D023A33023AB9023AC9023AD2023AF1023B1A023BBC
:4029400023023B37023B40023B49023B5E9000067402F0A314F090095DE0900008F0852C2AE52A6032FFC3E52C9FFFE49400FE744B2FF58274063EF583E0FFE52AFDE52C2D
:40298000C39DFDE49400FC74092DF58274003CF583EFF0152A80CA9000387407F0A37403F0900990E06403606890095EE0FCA3E0FDA3E0FEA3E0FFEC1277E4E4FBFA79809F
:4029C00078471276CE90003A127CB1900962E0FCA3E0FDA3E0FEA3E0FFEC1277E4E4FBFA798078471276CE90003E127CB1900966E0FCA3E0FDA3E0FEA3E0FFEC1277E4E477
:402A0000FBFA798078471276CE900042127CB18066900976E0FCA3E0FDA3E0FEA3E0FFEC1277E4E4FBFA798078471276CE90003A127CB190097AE0FCA3E0FDA3E0FEA3E072
:402A4000FFEC1277E4E4FBFA798078471276CE90003E127CB190097EE0FCA3E0FDA3E0FEA3E0FFEC1277E4E4FBFA798078471276CE900042127CB1852D2AE52A6032FFC304
:402A8000E52D9FFFE49400FE745A2FF58274063EF583E0FFE52AFDE52DC39DFDE49400FC74462DF58274003CF583EFF0152A80CA90006A7407F0A37403F0900990E06403B1
:402AC000606890096AE0FCA3E0FDA3E0FEA3E0FFEC1277E4E4FBFA798078471276CE90006C127CB190096EE0FCA3E0FDA3E0FEA3E0FFEC1277E4E4FBFA798078471276CE8B
:402B0000900070127CB1900972E0FCA3E0FDA3E0FEA3E0FFEC1277E4E4FBFA798078471276CE900074127CB18066900982E0FCA3E0FDA3E0FEA3E0FFEC1277E4E4FBFA795E
:402B40008078471276CE90006C127CB1900986E0FCA3E0FDA3E0FEA3E0FFEC1277E4E4FBFA798078471276CE900070127CB190098AE0FCA3E0FDA3E0FEA3E0FFEC1277E4AD
:402B8000E4FBFA798078471276CE900074127CB1852E2AE52A6032FFC3E52E9FFFE49400FE74762FF58274063EF583E0FFE52AFDE52EC39DFDE49400FC74782DF5827400F1
:402BC0003CF583EFF0152A80CAE490009CF0A304F090098EE090009EF090098E601C90095674FFF0A37450F0A37481F07B017A06799112BDCA752B1C801A90095674FFF0E2
:402C0000A37450F0A37487F07B017A06799112BDCA752B1B852B2AE52A6032FFC3E52B9FFFE49400FE74912FF58274063EF583E0FFE52AFDE52BC39DFDE49400FC749F2D0D
:402C4000F58274003CF583EFF0152A80CA749F252BF582E43400F5837403F0E49000CEF0A304F090098FE09000D0F090098F14603314604C14606514607E147003022D1437
:402C800024056003022D2E90095674FFF0A37450F0A3748CF07B017A0679AD12BDCA752B14022D2E90095674FFF0A37450F0A37492F07B017A0679AD12BDCA752B17806E81
:402CC00090095674FFF0A37450F0A3749BF07B017A0679AD12BDCA752B21805290095674FFF0A37450F0A374AEF07B017A0679AD12BDCA752B1D803690095674FFF0A37446
:402D000050F0A374BDF07B017A0679AD12BDCA752B19801A90095674FFF0A37450F0A374C8F07B017A0679AD12BDCA752B22852B2AE52A6032FFC3E52B9FFFE49400FE74B7
:402D4000AD2FF58274063EF583E0FFE52AFDE52BC39DFDE49400FC74D12DF58274003CF583EFF0152A80CA74D1252BF582E43400F5837401F0E4900100F0A304F090099065
:402D8000E0900102F090099014602614603F1460582403706E90095674FFF0A37450F0A374DCF07B017A0679CF12BDCA752B1B805290095674FFF0A37450F0A374E7F07B61
:402DC000017A0679CF12BDCA752B16803690095674FFF0A37450F0A374EDF07B017A0679CF12BDCA752B1A801A90095674FFF0A37450F0A374F7F07B017A0679CF12BDCAB3
:402E0000752B27852B2AE52A6032FFC3E52B9FFFE49400FE74CF2FF58274063EF583E0FFE52AFDE52BC39DFDE49400FC74032DF58274013CF583EFF0152A80CA7403252B12
:402E4000F582E43401F5837402F0900132F0A304F0E4F52AE52AC39403501E7491252AF582E43409F583E0FF7434252AF582E43401F583EFF0052A80DB852F2AE52A603296
:402E8000FFC3E52F9FFFE49400FE74F62FF58274063EF583E0FFE52AFDE52FC39DFDE49400FC74372DF58274013CF583EFF0152A80CA9001647403F0A3F0E4F52AE52AC374
:402EC00094035044E52A25E025E02494F582E43409F583E0FCA3E0FDA3E0FEA3E0FF7491252AF582E43409F583E0F9F8127C5075F002E52AA42466F582E5F03401F583EEC9
:402F0000F0A3EFF0052A80B585302AE52A6032FFC3E5309FFFE49400FE74072FF58274073EF583E0FFE52AFDE530C39DFDE49400FC746C2DF58274013CF583EFF0152A80E2
:402F4000CA9001967407F0A37403F0E4F52AE52AC394035031E52A25E025E024A0F582E43409F583E0FCA3E0FDA3E0FEA3E0FF75F004E52AA42498F582E5F03401F58312CF
:402F80007CB1052A80C885312AE52A6032FFC3E5319FFFE49400FE74202FF58274073EF583E0FFE52AFDE531C39DFDE49400FC74A42DF58274013CF583EFF0152A80CAE492
:402FC0009001C8F0A304F09009ACE09001CAF09009AC601C90095674FFF0A37450F0A37481F07B017A07793112BDCA752B1C801A90095674FFF0A37450F0A37487F07B0146
:403000007A07793112BDCA752B1B852B2AE52A6032FFC3E52B9FFFE49400FE74312FF58274073EF583E0FFE52AFDE52BC39DFDE49400FC74CB2DF58274013CF583EFF01568
:403040002A80CA74CB252BF582E43401F5837403F09001FA7405F0A37402F0E4F52AE52AC3940140030230E9E52A25E025E024ADF582E43409F583E0FCA3E0FDA3E0FEA39F
:40308000E0FF7491252AF582E43409F583E0F9F8127C5075F008E52AA424FCF582E5F03401F583127CB1E52A25E025E024B5F582E43409F583E0FCA3E0FDA3E0FEA3E0FF45
:4030C0007491252AF582E43409F583E0F9F8127C5075F008E52AA42400F582E5F03402F583127CB1052A02305E85322AE52A6032FFC3E5329FFFE49400FE744D2FF5827437
:40310000073EF583E0FFE52AFDE532C39DFDE49400FC74042DF58274023CF583EFF0152A80CA90022C7405F0A37402F09009C1E0FCA3E0FDA3E0FEA3E0FF90022E127CB169
:403140009009BDE0FCA3E0FDA3E0FEA3E0FF900232127CB185332AE52A6032FFC3E5339FFFE49400FE746A2FF58274073EF583E0FFE52AFDE533C39DFDE49400FC74362DC6
:40318000F58274023CF583EFF0152A80CA90025E7403F0A37401F09009C5E0FFA3E0900260CFF0A3EFF085342AE52A6032FFC3E5349FFFE49400FE74852FF58274073EF5F4
:4031C00083E0FFE52AFDE534C39DFDE49400FC74622DF58274023CF583EFF0152A80CAE4900290F0A304F09009CBE0900292F09009CB601C90095674FFF0A37450F0A374E6
:4032000081F07B017A07799912BDCA752B25801A90095674FFF0A37450F0A37487F07B017A07799912BDCA752B24852B2AE52A6032FFC3E52B9FFFE49400FE74992FF5825F
:4032400074073EF583E0FFE52AFDE52BC39DFDE49400FC74932DF58274023CF583EFF0152A80CA7493252BF582E43402F5837403F09002C204F0A37402F09009C7E0FFA31A
:40328000E09002C4CFF0A3EFF09009C9E0FFA3E09002C6CFF0A3EFF085352AE52A6032FFC3E5359FFFE49400FE74BE2FF58274073EF583E0FFE52AFDE535C39DFDE49400E2
:4032C000FC74C82DF58274023CF583EFF0152A80CA9002F47406F0A37402F09009CCE0FCA3E0FDA3E0FEA3E0FF9002F6127CB19009D0E0FCA3E0FDA3E0FEA3E0FF9002FA88
:40330000127CB185362AE52A6032FFC3E5369FFFE49400FE74D32FF58274073EF583E0FFE52AFDE536C39DFDE49400FC74FE2DF58274023CF583EFF0152A80CA900326740D
:4033400002F0A314F09009D4E0900328F085372AE52A6032FFC3E5379FFFE49400FE74E82FF58274073EF583E0FFE52AFDE537C39DFDE49400FC74292DF58274033CF583CC
:40338000EFF0152A80CAE4900358F0A304F09009D5E090035AF09009D5601C90095674FFF0A37450F0A37481F07B017A0779FC12BDCA752B24801A90095674FFF0A37450E7
:4033C000F0A37487F07B017A0779FC12BDCA752B23852B2AE52A6032FFC3E52B9FFFE49400FE74FC2FF58274073EF583E0FFE52AFDE52BC39DFDE49400FC745B2DF5827426
:40340000033CF583EFF0152A80CA745B252BF582E43403F5837403F090038A7401F0A3F09009D6E090038CF085382AE52A6032FFC3E5389FFFE49400FE74202FF582740839
:403440003EF583E0FFE52AFDE538C39DFDE49400FC748D2DF58274033CF583EFF0152A80CAE49003BCF0A304F09009D7E09003BEF09009D7601C90095674FFF0A37450F0A5
:40348000A37481F07B017A08793912BDCA752B18801A90095674FFF0A37450F0A37487F07B017A08793912BDCA752B17852B2AE52A6032FFC3E52B9FFFE49400FE74392F75
:4034C000F58274083EF583E0FFE52AFDE52BC39DFDE49400FC74BF2DF58274033CF583EFF0152A80CA74BF252BF582E43403F5837403F09003EE7405F0A37401F09009F27C
:40350000E0FCA3E0FDA3E0FEA3E0FF9003F0127CB1853D2AE52A6032FFC3E53D9FFFE49400FE74512FF58274083EF583E0FFE52AFDE53DC39DFDE49400FC74F42DF58274EA
:40354000033CF583EFF0152A80CA9004207407F0A314F0E4F52AE52AC394065031E52A25E025E024D8F582E43409F583E0FCA3E0FDA3E0FEA3E0FF75F004E52AA42422F59B
:4035800082E5F03404F583127CB1052A80C885392AE52A6032FFC3E5399FFFE49400FE74722FF58274083EF583E0FFE52AFDE539C39DFDE49400FC743A2DF58274043CF53E
:4035C00083EFF0152A80CA853A2AE52A6032FFC3E53A9FFFE49400FE74872FF58274083EF583E0FFE52AFDE53AC39DFDE49400FC74522DF58274043CF583EFF0152A80CAB5
:40360000853B2AE52A6032FFC3E53B9FFFE49400FE74EA2FF58274083EF583E0FFE52AFDE53BC39DFDE49400FC74E82DF58274043CF583EFF0152A80CA853C2AE52A6032D7
:40364000FFC3E53C9FFFE49400FE74292FF58274093EF583E0FFE52AFDE53CC39DFDE49400FC747E2DF58274053CF583EFF0152A80CA7B017A007904900645E0A3E014FD13
:4036800012C6AF900645E0FCA3E0FD2403F58274003CF583EFF07B017A00790412B23E22900B08E0900A10F022900990E064036064E4FFFE7D807C47900B08E0F8A3E0F905
:4036C000A3E0FAA3E0FB1275C5127822900A11127CB1E4FFFE7D807C47900B0CE0F8A3E0F9A3E0FAA3E0FB1275C5127822900A15127CB1E4FFFE7D807C47900B10E0F8A3A9
:40370000E0F9A3E0FAA3E0FB1275C5127822900A19127CB122E4FFFE7D807C47900B08E0F8A3E0F9A3E0FAA3E0FB1275C5127822900A29127CB1E4FFFE7D807C47900B0CD4
:40374000E0F8A3E0F9A3E0FAA3E0FB1275C5127822900A2D127CB1E4FFFE7D807C47900B10E0F8A3E0F9A3E0FAA3E0FB1275C5127822900A31127CB122900990E06403606D
:4037800064E4FFFE7D807C47900B08E0F8A3E0F9A3E0FAA3E0FB1275C5127822900A1D127CB1E4FFFE7D807C47900B0CE0F8A3E0F9A3E0FAA3E0FB1275C5127822900A21DA
:4037C000127CB1E4FFFE7D807C47900B10E0F8A3E0F9A3E0FAA3E0FB1275C5127822900A25127CB122E4FFFE7D807C47900B08E0F8A3E0F9A3E0FAA3E0FB1275C51278224C
:40380000900A35127CB1E4FFFE7D807C47900B0CE0F8A3E0F9A3E0FAA3E0FB1275C5127822900A39127CB1E4FFFE7D807C47900B10E0F8A3E0F9A3E0FAA3E0FB1275C512E0
:403840007822900A3D127CB122900B08E06007900A417403F022E4900A41F022900B08E0900A42F022900B08E0900A43F022E4F52AE52AC394034003023B987408252AF530
:4038800082E4340BF583E0FF7444252AF582E4340AF583EFF0052A80D8E4F52AE52AC394035071E52A25E02408F582E4340BF583E0FEA3E0FFEE3395E0FDFCE52A25E025E7
:4038C000E02447F582E4340AF583127CB1E52A25E025E02447F582E4340AF583C083C082E0FCA3E0FDA3E0FEA3E0FF7444252AF582E4340AF583E0F9F8127C64D082D08334
:40390000127CB174C9252AF582E4340BF583E4F0052A8088D20A22E4F52AE52AC394034003023B98E52A25E025E02408F582E4340BF583E0FCA3E0FDA3E0FEA3E0FFE52A58
:4039400025E025E02453F582E4340AF583127CB1052A80C6900B08E0900A5FF022E4F52AE52AC394024003023B98E52A75F008A42408F582E4340BF583E0FCA3E0FDA3E0B3
:40398000FEA3E0FFE52A25E025E02460F582E4340AF583127CB1E52A75F008A4240CF582E4340BF583E0FCA3E0FDA3E0FEA3E0FFE52A25E025E02468F582E4340AF5831211
:4039C0007CB1E52A25E025E02460F582E4340AF583C083C082E0FCA3E0FDA3E0FEA3E0FF7444252AF582E4340AF583E0F9F8127C64D082D083127CB1E52A25E025E02468A4
:403A0000F582E4340AF583C083C082E0FCA3E0FDA3E0FEA3E0FF7444252AF582E4340AF583E0F9F8127C64D082D083127CB1052A023960900B08E0FCA3E0FDA3E0FEA3E005
:403A4000FF900647127CB1E4FFFEFDFC900647E0F8A3E0F9A3E0FAA3E0FBD3127C165014900647E0FCA3E0FDA3E0FEA3E0FF900A74127CB1900B0CE0FCA3E0FDA3E0FEA39A
:403A8000E0FF900647127CB1E4FFFEFDFC900647E0F8A3E0F9A3E0FAA3E0FBC3127C165003023B98900647E0FCA3E0FDA3E0FEA3E0FF900A70127CB122900B08E0FFA3E0CA
:403AC000900A78CFF0A3EFF022900B08E0900A7EF022900B08E0FFA3E0900A7ACFF0A3EFF0900B0AE0FFA3E0900A7CCFF0A3EFF022900B08E0FCA3E0FDA3E0FEA3E0FF9038
:403B00000A7F127CB1900B0CE0FCA3E0FDA3E0FEA3E0FF900A83127CB122900B08E0900A87F022900B08E0FF6007900A887401F022E4900A88F022900B08E0900A89F02221
:403B4000900B08E0900A8AF022900B08E0FCA3E0FDA3E0FEA3E0FF900AA5127CB122E4F52AE52AC394065030E52A25E025E02408F582E4340BF583E0FCA3E0FDA3E0FEA324
:403B8000E0FFE52A25E025E0248BF582E4340AF583127CB1052A80C9229004B4EBF0A3EAF0A3E9F090095DE064FA70030250809004B4E0FBA3E0FAA3E0F8AC02AD037BFFEC
:403BC0007A51790E127EEE90095674FFF0A37451F0A3740FF09004B4E0FBA3E0FAA3E0F912BDCA90095674FFF0A37451F0A37412F09004B4E0FBA3E0FAA3E0F912BDCA9078
:403C0000095674FFF0A37451F0A37425F09004B4E0FBA3E0FAA3E0F912BDCA90095674FFF0A37451F0A3744BF09004B4E0FBA3E0FAA3E0F912BDCA90095674FFF0A374511E
:403C4000F0A37451F09004B4E0FBA3E0FAA3E0F912BDCA90052074FFF0A37451F0A3745FF090095DE0FF900523E4F0A3EFF07B017A0479B9128D4D9009567401F0A3740407
:403C8000F0A374B9F09004B4E0FBA3E0FAA3E0F912BDCA90095674FFF0A37451F0A37468F09004B4E0FBA3E0FAA3E0F912BDCA9009D7E0B4011E90095674FFF0A37451F004
:403CC000A37483F09004B4E0FBA3E0FAA3E0F912BDCA801C90095674FFF0A37451F0A37488F09004B4E0FBA3E0FAA3E0F912BDCA90052074FFF0A37451F0A3748CF0900B5D
:403D0000ECE0FF900523E4F0A3EFF07B017A0479B9128D4D9009567401F0A37404F0A374B9F09004B4E0FBA3E0FAA3E0F912BDCA90095674FFF0A37451F0A3740FF090046A
:403D4000B4E0FBA3E0FAA3E0F912BDCA90095674FFF0A37451F0A3749CF09004B4E0FBA3E0FAA3E0F912BDCA90095674FFF0A37451F0A374A9F09004B4E0FBA3E0FAA3E0A3
:403D8000F912BDCA900A43E0B4021E90095674FFF0A37451F0A374B9F09004B4E0FBA3E0FAA3E0F912BDCA8041900A43E0B4011E90095674FFF0A37451F0A374C7F0900464
:403DC000B4E0FBA3E0FAA3E0F912BDCA801C90095674FFF0A37451F0A374D0F09004B4E0FBA3E0FAA3E0F912BDCAE49004B7F0A3F0C39004B8E094029004B7E06480948076
:403E00004003023F55900A43E06402705F90052074FFF0A37451F0A374DEF09004B7E0FEA3E07802C333CE33CED8F924FEF58274093EF583E0A3E0A3E0FFA3E0900523CFEB
:403E4000F0A3EFF07B017A0479B9128D4D9009567401F0A37404F0A374B9F09004B4E0FBA3E0FAA3E0F912BDCA023F44900A43E06401705E90052074FFF0A37451F0A374E8
:403E8000DEF09004B7E0FEA3E07802C333CE33CED8F92406F582740A3EF583E0A3E0A3E0FFA3E0900523CFF0A3EFF07B017A0479B9128D4D9009567401F0A37404F0A374B4
:403EC000B9F09004B4E0FBA3E0FAA3E0F912BDCA807290052074FFF0A37451F0A374DEF09004B7E0FAA3E0FBAE027802C333CE33CED8F924F6F58274093EF583E0FCA3E097
:403F0000FDA3E0FEA3E0FF74912BF58274093AF583E0F9F8127C50900523EEF0A3EFF07B017A0479B9128D4D9009567401F0A37404F0A374B9F09004B4E0FBA3E0FAA3E08A
:403F4000F912BDCA9004B8E004F070069004B7E004F0023DF190095674FFF0A37451F0A3740FF09004B4E0FBA3E0FAA3E0F912BDCA90095674FFF0A37451F0A3740FF09005
:403F800004B4E0FBA3E0FAA3E0F912BDCA90052074FFF0A37451F0A374E2F07B017A0479B9128D4D900A0EE05403601990095674FFF0A37451F0A374F2F07B017A0479B944
:403FC00012BDCA801790095674FFF0A37451F0A374F8F07B017A0479B912BDCA9009567401F0A37404F0A374B9F09004B4E0FBA3E0FAA3E0F912BDCA90095674FFF0A374E6
:4040000051F0A374FDF09004B4E0FBA3E0FAA3E0F912BDCA90095674FFF0A37452F0A37413F09004B4E0FBA3E0FAA3E0F912BDCAE49004B7F0A3F0C39004B8E09403900440
:40404000B7E06480948040030240FD90052074FFF0A37452F0A37423F09004B7E0FCA3E0FD2401FEE43C900523F0A3CEF0EDAE047802C333CE33CED8F924B5F582740B3EE5
:40408000F583E0FCA3E0FDA3E0FEA3E0FF9004B7E0FAA3E02491F58274093AF583E0F9F8127C50900525EEF0A3EFF07B017A0479B9128D4D9009567401F0A37404F0A374CF
:4040C000B9F09004B4E0FBA3E0FAA3E0F912BDCA90095674FFF0A37451F0A3740FF09004B4E0FBA3E0FAA3E0F912BDCA9004B8E004F070069004B7E004F00240379005200A
:4041000074FFF0A37452F0A3742CF0900AE8E0FCA3E0FDA3E0FEA3E0FF900523127CB17B017A0479B9128D4D9009567401F0A37404F0A374B9F09004B4E0FBA3E0FAA3E05E
:40414000F912BDCA90095674FFF0A37451F0A3740FF09004B4E0FBA3E0FAA3E0F912BDCA90052074FFF0A37452F0A3743EF0900BC1E0FCA3E0FDA3E0FEA3E0FF90052312FD
:404180007CB17B017A0479B9128D4D9009567401F0A37404F0A374B9F09004B4E0FBA3E0FAA3E0F912BDCA90095674FFF0A37451F0A3740FF09004B4E0FBA3E0FAA3E0F90A
:4041C00012BDCA90095674FFF0A37452F0A37450F09004B4E0FBA3E0FAA3E0F912BDCA90095674FFF0A37452F0A37466F09004B4E0FBA3E0FAA3E0F912BDCA900990E06435
:4042000003700302430890052074FFF0A37452F0A37478F090095EE0FCA3E0FDA3E0FEA3E0FFEC1277E4E4FBFA798078471276CE900523127CB17B017A0479B9128D4D9096
:4042400009567401F0A37404F0A374B9F09004B4E0FBA3E0FAA3E0F912BDCA90052074FFF0A37452F0A37482F0900962E0FCA3E0FDA3E0FEA3E0FFEC1277E4E4FBFA79807B
:4042800078471276CE900523127CB17B017A0479B9128D4D9009567401F0A37404F0A374B9F09004B4E0FBA3E0FAA3E0F912BDCA90052074FFF0A37452F0A3748CF0900969
:4042C00066E0FCA3E0FDA3E0FEA3E0FFEC1277E4E4FBFA798078471276CE900523127CB17B017A0479B9128D4D9009567401F0A37404F0A374B9F09004B4E0FBA3E0FAA348
:40430000E0F912BDCA02440790052074FFF0A37452F0A37478F0900976E0FCA3E0FDA3E0FEA3E0FFEC1277E4E4FBFA798078471276CE900523127CB17B017A0479B9128D5E
:404340004D9009567401F0A37404F0A374B9F09004B4E0FBA3E0FAA3E0F912BDCA90052074FFF0A37452F0A37482F090097AE0FCA3E0FDA3E0FEA3E0FFEC1277E4E4FBFA7E
:40438000798078471276CE900523127CB17B017A0479B9128D4D9009567401F0A37404F0A374B9F09004B4E0FBA3E0FAA3E0F912BDCA90052074FFF0A37452F0A3748CF008
:4043C00090097EE0FCA3E0FDA3E0FEA3E0FFEC1277E4E4FBFA798078471276CE900523127CB17B017A0479B9128D4D9009567401F0A37404F0A374B9F09004B4E0FBA3E033
:40440000FAA3E0F912BDCA90095674FFF0A37452F0A37496F09004B4E0FBA3E0FAA3E0F912BDCA900990E06403700302453090052074FFF0A37452F0A37478F090096AE043
:40444000FCA3E0FDA3E0FEA3E0FFEC1277E4E4FBFA798078471276CE900523127CB17B017A0479B9128D4D9009567401F0A37404F0A374B9F09004B4E0FBA3E0FAA3E0F933
:4044800012BDCA90052074FFF0A37452F0A37482F090096EE0FCA3E0FDA3E0FEA3E0FFEC1277E4E4FBFA798078471276CE900523127CB17B017A0479B9128D4D9009567451
:4044C00001F0A37404F0A374B9F09004B4E0FBA3E0FAA3E0F912BDCA90052074FFF0A37452F0A3748CF0900972E0FCA3E0FDA3E0FEA3E0FFEC1277E4E4FBFA7980784712E1
:4045000076CE900523127CB17B017A0479B9128D4D9009567401F0A37404F0A374B9F09004B4E0FBA3E0FAA3E0F912BDCA02462F90052074FFF0A37452F0A37478F0900954
:4045400082E0FCA3E0FDA3E0FEA3E0FFEC1277E4E4FBFA798078471276CE900523127CB17B017A0479B9128D4D9009567401F0A37404F0A374B9F09004B4E0FBA3E0FAA3A9
:40458000E0F912BDCA90052074FFF0A37452F0A37482F0900986E0FCA3E0FDA3E0FEA3E0FFEC1277E4E4FBFA798078471276CE900523127CB17B017A0479B9128D4D900929
:4045C000567401F0A37404F0A374B9F09004B4E0FBA3E0FAA3E0F912BDCA90052074FFF0A37452F0A3748CF090098AE0FCA3E0FDA3E0FEA3E0FFEC1277E4E4FBFA79807857
:40460000471276CE900523127CB17B017A0479B9128D4D9009567401F0A37404F0A374B9F09004B4E0FBA3E0FAA3E0F912BDCA90095674FFF0A37451F0A3740FF09004B4F2
:40464000E0FBA3E0FAA3E0F912BDCA90098EE0B4031E90095674FFF0A37452F0A374B0F09004B4E0FBA3E0FAA3E0F912BDCA801C90095674FFF0A37452F0A374CAF090042E
:40468000B4E0FBA3E0FAA3E0F912BDCA90098FE014603814605314606E1470030247251470030247432405600302475F90095674FFF0A37452F0A374E3F09004B4E0FBA3E5
:4046C000E0FAA3E0F912BDCA02475F90095674FFF0A37452F0A374F5F09004B4E0FBA3E0FAA3E0F912BDCA807690095674FFF0A37453F0A3740AF09004B4E0FBA3E0FAA3D1
:40470000E0F912BDCA805890095674FFF0A37453F0A37429F09004B4E0FBA3E0FAA3E0F912BDCA803A90095674FFF0A37453F0A37444F09004B4E0FBA3E0FAA3E0F912BD02
:40474000CA801C90095674FFF0A37453F0A3745BF09004B4E0FBA3E0FAA3E0F912BDCA900990E014602814604314605E2403707690095674FFF0A37453F0A37476F0900418
:40478000B4E0FBA3E0FAA3E0F912BDCA805890095674FFF0A37453F0A3748FF09004B4E0FBA3E0FAA3E0F912BDCA803A90095674FFF0A37453F0A374A3F09004B4E0FBA333
:4047C000E0FAA3E0F912BDCA801C90095674FFF0A37453F0A374BBF09004B4E0FBA3E0FAA3E0F912BDCA9009D5E0601E90095674FFF0A37453F0A374E0F09004B4E0FBA3E6
:40480000E0FAA3E0F912BDCA801C90095674FFF0A37454F0A37401F09004B4E0FBA3E0FAA3E0F912BDCA90052074FFF0A37454F0A37421F09009D6E0FE3395E0900523F04B
:40484000A3CEF07B017A0479B9128D4D9009567401F0A37404F0A374B9F09004B4E0FBA3E0FAA3E0F912BDCA90095674FFF0A37454F0A3743AF09004B4E0FBA3E0FAA3E0DA
:40488000F912BDCAE49004B7F0A3F0C39004B8E094039004B7E064809480400302492790052074FFF0A37452F0A37423F09004B7E0FCA3E0FD2401FEE43C900523F0A3CEB8
:4048C000F074912DF58274093CF583E0FF900525E4F0A3EFF07B017A0479B9128D4D9009567401F0A37404F0A374B9F09004B4E0FBA3E0FAA3E0F912BDCA90095674FFF0C1
:40490000A37451F0A3740FF09004B4E0FBA3E0FAA3E0F912BDCA9004B8E004F070069004B7E004F002488B90095674FFF0A37454F0A3744FF09004B4E0FBA3E0FAA3E0F9AB
:4049400012BDCAE49004B7F0A3F0C39004B8E094039004B7E0648094804003024A0E90052074FFF0A37454F0A37465F09004B7E0FCA3E0FD2401FEE43C900523F0A3CEF0D4
:40498000EDAE047802C333CE33CED8F92494F58274093EF583E0FCA3E0FDA3E0FEA3E0FF9004B7E0FAA3E02491F58274093AF583E0F9F8127C50900525127CB17B017A04E2
:4049C00079B9128D4D9009567401F0A37404F0A374B9F09004B4E0FBA3E0FAA3E0F912BDCA90095674FFF0A37451F0A3740FF09004B4E0FBA3E0FAA3E0F912BDCA9004B804
:404A0000E004F070069004B7E004F002494A90095674FFF0A37454F0A3746FF09004B4E0FBA3E0FAA3E0F912BDCAE49004B7F0A3F0C39004B8E094039004B7E06480948045
:404A40004003024ADF90052074FFF0A37454F0A37489F09004B7E0FCA3E0FD2401FEE43C900523F0A3CEF0EDAE047802C333CE33CED8F924A0F58274093EF583E0FCA3E056
:404A8000FDA3E0FEA3E0FF900525127CB17B017A0479B9128D4D9009567401F0A37404F0A374B9F09004B4E0FBA3E0FAA3E0F912BDCA90095674FFF0A37451F0A3740FF051
:404AC0009004B4E0FBA3E0FAA3E0F912BDCA9004B8E004F070069004B7E004F0024A3190095674FFF0A37454F0A37492F09004B4E0FBA3E0FAA3E0F912BDCA90052074FFAC
:404B0000F0A37454F0A374AAF09009D8E0FCA3E0FDA3E0FEA3E0FF900523127CB19009DCE0FCA3E0FDA3E0FEA3E0FF900527127CB19009E0E0FCA3E0FDA3E0FEA3E0FF907B
:404B4000052B127CB17B017A0479B9128D4D9009567401F0A37404F0A374B9F09004B4E0FBA3E0FAA3E0F912BDCA90052074FFF0A37454F0A374C3F09009E4E0FCA3E0FDC4
:404B8000A3E0FEA3E0FF900523127CB19009E8E0FCA3E0FDA3E0FEA3E0FF900527127CB19009ECE0FCA3E0FDA3E0FEA3E0FF90052B127CB17B017A0479B9128D4D90095636
:404BC0007401F0A37404F0A374B9F09004B4E0FBA3E0FAA3E0F912BDCA90095674FFF0A37451F0A3740FF09004B4E0FBA3E0FAA3E0F912BDCA90052074FFF0A37454F0A345
:404C000074DCF0900A5FE0FF900523E4F0A3EFF07B017A0479B9128D4D9009567401F0A37404F0A374B9F09004B4E0FBA3E0FAA3E0F912BDCA90095674FFF0A37451F0A315
:404C4000740FF09004B4E0FBA3E0FAA3E0F912BDCAE49004B7F0A3F0C39004B8E094019004B7E0648094804003024D7090052074FFF0A37454F0A374F6F09004B7E0FCA377
:404C8000E0FD2401FEE43C900523F0A3CEF0EDAE047802C333CE33CED8F92460F582740A3EF583E0FCA3E0FDA3E0FEA3E0FF9004B7E0FAA3E02444F582740A3AF583E0F9FE
:404CC000F8127C50900525127CB17B017A0479B9128D4D9009567401F0A37404F0A374B9F09004B4E0FBA3E0FAA3E0F912BDCA90052074FFF0A37455F0A3741CF09004B717
:404D0000E0FAA3E0FBAE027802C333CE33CED8F92468F582740A3EF583E0FCA3E0FDA3E0FEA3E0FF74442BF582740A3AF583E0F9F8127C50900523127CB17B017A0479B969
:404D4000128D4D9009567401F0A37404F0A374B9F09004B4E0FBA3E0FAA3E0F912BDCA9004B8E004F070069004B7E004F0024C5890052074FFF0A37455F0A37429F0900ADA
:404D800070E0A3E0A3E0FFA3E0900523CFF0A3EFF0900A74E0A3E0A3E0FFA3E0900525CFF0A3EFF07B017A0479B9128D4D9009567401F0A37404F0A374B9F09004B4E0FB57
:404DC000A3E0FAA3E0F912BDCA90095674FFF0A37451F0A3740FF09004B4E0FBA3E0FAA3E0F912BDCA90052074FFF0A37455F0A37445F0900A78E0FFA3E0900523CFF0A35E
:404E0000EFF07B017A0479B9128D4D9009567401F0A37404F0A374B9F09004B4E0FBA3E0FAA3E0F912BDCA90095674FFF0A37451F0A3740FF09004B4E0FBA3E0FAA3E0F9CB
:404E400012BDCA90052074FFF0A37455F0A37457F0900A7AE0FFA3E0900523CFF0A3EFF0900A7CE0FFA3E0900525CFF0A3EFF07B017A0479B9128D4D9009567401F0A37462
:404E800004F0A374B9F09004B4E0FBA3E0FAA3E0F912BDCA90095674FFF0A37451F0A3740FF09004B4E0FBA3E0FAA3E0F912BDCA90052074FFF0A37455F0A37479F0900A86
:404EC0007FE0FCA3E0FDA3E0FEA3E0FF900523127CB1900A83E0FCA3E0FDA3E0FEA3E0FF900527127CB17B017A0479B9128D4D9009567401F0A37404F0A374B9F09004B4E7
:404F0000E0FBA3E0FAA3E0F912BDCA90095674FFF0A37451F0A3740FF09004B4E0FBA3E0FAA3E0F912BDCA900A7EE0601E90095674FFF0A37455F0A3749DF09004B4E0FBA4
:404F4000A3E0FAA3E0F912BDCA801C90095674FFF0A37455F0A374B8F09004B4E0FBA3E0FAA3E0F912BDCA90052074FFF0A37455F0A374D2F0900A87E0FF900523E4F0A365
:404F8000EFF07B017A0479B9128D4D9009567401F0A37404F0A374B9F09004B4E0FBA3E0FAA3E0F912BDCA90095674FFF0A37451F0A3740FF09004B4E0FBA3E0FAA3E0F94A
:404FC00012BDCA900BABE0B4011E90095674FFF0A37455F0A374E4F09004B4E0FBA3E0FAA3E0F912BDCA801C90095674FFF0A37456F0A37404F09004B4E0FBA3E0FAA3E058
:40500000F912BDCA90052074FFF0A37456F0A37422F0900AE4E0F8A3E0F9A3E0FAA3E0FB900BA3E0FCA3E0FDA3E0FEA3E0C39BFFEE9AFEED99FDEC98FC900523127CB17B7D
:40504000017A0479B9128D4D9009567401F0A37404F0A374B9F09004B4E0FBA3E0FAA3E0F912BDCA90095674FFF0A37451F0A3740FF09004B4E0FBA3E0FAA3E0F912BDCA4A
:4050800022205945530000204E4F00002055736200002048616E646C65000020454D472070726F706F7274696F6E616C000020454D4720696E74656772616C000020454DE7
:4050C000472046434653000020454D47204643465320416476616E636564000020506F736974696F6E00002050574D00002043757272656E74000020506F736974696F6EB5
:4051000020616E642043757272656E740000000D0A004669726D776172652076657273696F6E3A200053482D50524F2076362E312E31206D6F642E204E4F2F4E4320772F31
:405140006163742E206C65766572002E0D0A0D0A0044455649434520494E464F0D0A0049443A2025640D0A0050574D2072657363616C696E672061637469766174696F6E77
:405180003A20005945530A004E4F0A0050574D204C696D69743A2025640D0A004D4F544F5220494E464F0D0A004D6F746F72207265666572656E636500202D204375727209
:4051C000656E74733A2000202D2050776D3A2000202D20506F736974696F6E3A2000256420004D6F746F7220656E61626C65643A20005945530D0A004E4F0D0A000D0A4D65
:405200004541535552454D454E545320494E464F0D0A0053656E736F722076616C75653A0D0A002564202D3E20256400566F6C7461676520286D56293A20256C64004375ED
:405240007272656E7420286D41293A20256C64000D0A44455649434520504152414D45544552530D0A0050494420436F6E74726F6C6C65723A0D0A0050202D3E202566208B
:40528000200049202D3E20256620200044202D3E2025660D0A0043757272656E742050494420436F6E74726F6C6C65723A0D0A0053746172747570206163746976617469A1
:4052C0006F6E3A205945530D0A00537461727475702061637469766174696F6E3A204E4F0D0A00496E707574206D6F64653A205553420D0A00496E707574206D6F64653ADD
:405300002048616E646C650D0A00496E707574206D6F64653A20454D472070726F706F7274696F6E616C0D0A00496E707574206D6F64653A20454D4720696E746567726170
:405340006C0D0A00496E707574206D6F64653A20454D4720464346530D0A00496E707574206D6F64653A20454D472046434653204144560D0A00436F6E74726F6C206D6F10
:4053800064653A20506F736974696F6E0D0A00436F6E74726F6C206D6F64653A2050574D0D0A00436F6E74726F6C206D6F64653A2043757272656E740D0A00436F6E747253
:4053C0006F6C206D6F64653A20506F736974696F6E20616E642043757272656E740D0A004162736F6C75746520656E636F64657220706F736974696F6E3A205945530D0ABB
:40540000004162736F6C75746520656E636F64657220706F736974696F6E3A204E4F0D0A004D6F746F722D48616E646C6520526174696F3A2025640D0A0053656E736F726D
:40544000207265736F6C7574696F6E3A0D0A004D6561737572656D656E74204F66667365743A0D0A002564202D3E20256C64004D6561737572656D656E74204D756C74692F
:40548000706C6965723A0D0A002564202D3E2025660043757272656E74206C6F6F6B7570207461626C653A0D0A00705B305D202D20705B325D3A2025662C2025662C20255E
:4054C000660A00705B335D202D20705B355D3A2025662C2025662C2025660A00506F736974696F6E206C696D6974206163746976653A20256400506F736974696F6E206C86
:40550000696D6974206D6F746F722025643A20696E66202D3E20256C64202000737570202D3E20256C640D0A004D6178207374657020706F7320616E64206E65673A202598
:40554000642025640043757272656E74206C696D69743A20256400454D47207468726573686F6C6473205B30202D20313032345D3A2025752C20257500454D47206D61788B
:405580002076616C756573205B30202D20343039365D3A20256C752C20256C750043616C6962726174696F6E20656E61626C65643A205945530D0A0043616C69627261746A
:4055C000696F6E20656E61626C65643A204E4F0D0A00454D47206D61782073706565643A20256400436C6F73696E67206D6F64653A204E6F726D616C6C7920636C6F7365A7
:40560000640D0A00436C6F73696E67206D6F64653A204E6F726D616C6C79206F70656E0D0A0064656275673A20256C64000000000000000000000000000000000000000074
:40564000000000000000000000000000000000000000000000000000000000000000000000000000000000000000000000000000000000000000000000000000000000002A
:4056800000000000000000000000000000000000000000000000000000000000000000000000000000000000000000000000000000000000000000000000000000000000EA
:4056C00000000000000000000000000000000000000000000000000000000000000000000000000000000000000000000000000000000000000000000000000000000000AA
:405700000000000000000000000000000000000000000000000000000000000000000000000000000000000000000000000000000000000000000000000000000000000069
:4061000000000000000000000000000000000000000000000000000000000000000031202D204465766963652049443A0032202D20506F736974696F6E20504944205B50CE
:406140002C20492C20445D3A0033202D2043757272656E7420504944205B502C20492C20445D3A0034202D20537461727475702041637469766174696F6E3A00000000005C
:4061800035202D20496E707574206D6F64653A0000000000000000000000000000000000000036202D20436F6E74726F6C206D6F64653A00000000000000000000000000AB
:4061C00000000000000000000037202D205265736F6C7574696F6E733A0038202D204D6561737572656D656E74204F6666736574733A0039202D204D756C7469706C696560
:4062000072733A003130202D20506F732E206C696D6974206163746976653A00000000003131202D20506F732E206C696D697473205B696E662C207375705D3A00313220A5
:406240002D204D6178207374657073205B6E65672C20706F735D3A003133202D2043757272656E74206C696D69743A003134202D20454D472063616C6962726174696F6EF2
:40628000206F6E20737461727475703A00000000003135202D20454D47207468726573686F6C64733A003136202D20454D47206D61782076616C7565733A003137202D205C
:4062C000454D47206D61782073706565643A003138202D204162736F6C75746520656E636F64657220706F736974696F6E3A00000000003139202D204D6F746F722068613F
:406300006E646C6520726174696F3A003230202D2050574D2072657363616C696E673A00000000003231202D2041637469766174696F6E206C65766572207468726573689E
:406340006F6C643A003232202D2043757272656E74206C6F6F6B75703A0030202D3E205573620A31202D3E2048616E646C650A32202D3E20454D472070726F706F72746966
:406380006F6E616C0A33202D3E20454D4720496E74656772616C0A34202D3E20454D4720464346530A35202D3E20454D47204643465320416476616E6365640A0030202D56
:4063C0003E20506F736974696F6E0A31202D3E2050574D0A32202D3E2043757272656E740A33202D3E20506F736974696F6E20616E642043757272656E740A0030202D3EEE
:406400002044656163746976617465205B4E4F5D0A31202D3E204163746976617465205B5945535D0A00E4F526F525F524F52390095EE0FCA3E0FDA3E0FEA3E0F5428E413C
:406440008D408C3FA3E0FCA3E0FDA3E0FEA3E0F5468E458D448C43A3E0FCA3E0FDA3E0FEA3E0F54A8E498D488C47A3E0FCA3E0FDA3E0FEA3E0F54E8E4D8D4C8C4BA3E0FCC2
:40648000A3E0FDA3E0FEA3E0F5528E518D508C4FA3E0FCA3E0FDA3E0FEA3E0F5568E558D548C53A3E0FCA3E0FDA3E0FEA3E0F55A8E598D588C57A3E0FCA3E0FDA3E0FEA365
:4064C000E0F55E8E5D8D5C8C5BA3E0FCA3E0FDA3E0FEA3E0F5628E618D608C5FA3E0FCA3E0FDA3E0FEA3E0F5668E658D648C63A3E0FCA3E0FDA3E0FEA3E0F56A8E698D680E
:406500008C67A3E0FCA3E0FDA3E0FEA3E0F56E8E6D8D6C8C6B9009C7E0FEA3E0FFFBAA06E4900BCCE0FCA3E0FDA3E0FEA3E0C39BF53AEE9AF539ED9400F538EC9400F53764
:406540009009C9E0FEA3E0FFFBAA06E4900BD0E0FCA3E0FDA3E0FEA3E0C39BF53EEE9AF53DED9400F53CEC9400F53B90098FE024FE70030267481470030267A614700302E5
:40658000689B1470030269FE24046003026B959009D5E06024A3E0FF3395E0FEFDFC900BBDE0F8A3E0F9A3E0FAA3E0FB127ADE8F368E358D348C3380249009D6E0FF339595
:4065C000E0FEFDFC900BB9E0F8A3E0F9A3E0FAA3E0FB127ADE8F368E358D348C339009F6E0F8A3E0F9A3E0FAA3E0FBC3E5369BFFE5359AFEE53499FDE53398FC9009BDE016
:40660000F8A3E0F9A3E0FAA3E0FBC3127C165044E4FFFEFDFC9009BDE0F8A3E0A3E0A3E0C3127C16602E9009F6E0FCA3E0FDA3E0FEA3E0FF9009BDE0F8A3E0A3E0A3E0EFD6
:406640002BFFEE3AFEED39FDEC38FC9009F6127CB10266D79009F6E0F8A3E0F9A3E0FAA3E0FBC3E5369BFFE5359AFEE53499FDE53398FC9009C1E0F8A3E0F9A3E0FAA3E069
:40668000FBD3127C164042E4FFFEFDFC9009C1E0F8A3E0A3E0A3E0127C16602D9009F6E0FCA3E0FDA3E0FEA3E0FF9009C1E0F8A3E0A3E0A3E0EF2BFFEE3AFEED39FDEC38F1
:4066C000FC9009F6127CB1800EAF36AE35AD34AC339009F6127CB1900BABE0B4012D9009F6E0F8A3E0F9A3E0FAA3E0FB900A68E0FCA3E0FDA3E0FEA3E0C39BFFEE9AFEEDD4
:4067000099FDEC98FC9009F6127CB1E51364016003026B95900BABE070179009B5E0FCA3E0FDA3E0FEA3E0FF9009F6127CB1026B959009ADE0FCA3E0FDA3E0FEA3E0FF9054
:4067400009F6127CB1026B95E4FFFEFDFCAB3AAA39A938A837D3127C16403D900A68E0FCA3E0FDA3E0FEA3E0FFA837127ADEC006C0079009C7E0FEA3E0FFC3E49FFF7404CF
:406780009EFEAB07FAE4F9F8D007D00612C2A99009F6127CB1026B95E4FFFEFDFC9009F6127CB1026B95900AECE0FCA3E0FDA3E0FEA3E0FF9009F6127CB1E4FFFEFDFCABE0
:4067C0003AAA39A938A837D3127C164056900A87E0FFE4FCFDFEA837127ADEE47B02FAF9F8127ADEC006C0079009C7E0FEA3E0FFC3E49FFF74049EFEAB07FAE4F9F8D007D7
:40680000D00612C2A9900AECE0F8A3E0F9A3E0FAA3E02FFFEA3EFEE93DFDE83CFC9009F6127CB1E4FFFEFDFCAB3EAA3DA93CA83BD3127C165003026B95900A87E0FFE4FCA8
:40684000FDFEA83B127ADEE47B02FAF9F8127ADEC006C0079009C9E0FEA3E0FFC3E49FFF74049EFEAB07FAE4F9F8D007D00612C2A9A804A905AA06AB07900AECE0FCA3E026
:40688000FDA3E0FEA3E0C39BFFEE9AFEED99FDEC98FC9009F6127CB1026B95900AECE0FCA3E0FDA3E0FEA3E0FF9009F6127CB1900C85E014604814700302697824026003BE
:4068C000026B95E4FFFEFDFCAB3AAA39A938A837D3127C164009900C857401F0026B95E4FFFEFDFCAB3EAA3DA93CA83BD3127C165003026B95900C857402F0026B95E4FF42
:40690000FEFDFCAB3AAA39A938A837C3127C165008E4900C85F0026B95900A87E0FFE4FCFDFEAB3AAA39A938A837127ADEE47B02FAF9F8127ADEC006C0079009C7E0FEA331
:40694000E0FFC3E49FFF74049EFEAB07FAE4F9F8D007D00612C2A9900AECE0F8A3E0F9A3E0FAA3E02FFFEA3EFEE93DFDE83CFC9009F6127CB1026B95E4FFFEFDFCAB3EAA86
:406980003DA93CA83BC3127C165008E4900C85F0026B95900A87E0FFE4FCFDFEAB3EAA3DA93CA83B127ADEE47B02FAF9F8127ADEC006C0079009C9E0FEA3E0FFC3E49FFFF5
:4069C00074049EFEAB07FAE4F9F8D007D00612C2A9A804A905AA06AB07900AECE0FCA3E0FDA3E0FEA3E0C39BFFEE9AFEED99FDEC98FC9009F6127CB1026B95026B95900AE4
:406A0000ECE0FCA3E0FDA3E0FEA3E0FF9009F6127CB1900C85E0146048147003026AFA24026003026B95E4FFFEFDFCAB3AAA39A938A837D3127C164009900C857401F0025E
:406A40006B95E4FFFEFDFCAB3EAA3DA93CA83BD3127C165003026B95900C857402F0026B95E4FFFEFDFCAB3AAA39A938A837C3127C16501BE4FFFEFDFCAB3EAA3DA93CA8E4
:406A80003BC3127C165008E4900C85F0026B95E4FFFEFDFCAB3AAA39A938A837D3127C165003026B95900A87E0FFE4FCFDFEA837127ADE7802127C64C006C0079009C7E05A
:406AC000FEA3E0FFC3E49FFF74049EFEAB07FAE4F9F8D007D00612C2A9900AECE0F8A3E0F9A3E0FAA3E02FFFEA3EFEE93DFDE83CFC9009F6127CB1026B95E4FFFEFDFCAB4C
:406B00003AAA39A938A837C3127C16501AE4FFFEFDFCAB3EAA3DA93CA83BC3127C165007E4900C85F0806EE4FFFEFDFCAB3EAA3DA93CA83BD3127C16405B9009D4E0FFE4E0
:406B4000FCFDFEA83B127ADE7802127C64C006C0079009C9E0FEA3E0FFC3E49FFF74049EFEAB07FAE4F9F8D007D00612C2A9A804A905AA06AB07900AECE0FCA3E0FDA3E0F1
:406B8000FEA3E0C39BFFEE9AFEED99FDEC98FC9009F6127CB19009ACE0606AA3E0FCA3E0FDA3E0FEA3E0FF9009F6E0F8A3E0F9A3E0FAA3E0FBC3127C1650149009ADE0FCE4
:406BC000A3E0FDA3E0FEA3E0FF9009F6127CB19009B5E0FCA3E0FDA3E0FEA3E0FF9009F6E0F8A3E0F9A3E0FAA3E0FBD3127C1640149009B5E0FCA3E0FDA3E0FEA3E0FF90B1
:406C000009F6127CB1900990E07003026FF01470030273AA14700302717E146003027418900BB5E0F8A3E0F9A3E0FAA3E0FB9009F6E0FCA3E0FDA3E0FEA3E0C39BF52AEE1D
:406C40009AF529ED99F528EC98F527900C75E0FCA3E0FDA3E0FEA3E0252AFFEE3529FEED3528FDEC3527FC900C75127CB17F807EF07DFA7C02900C75E0F8A3E0F9A3E0FAF1
:406C8000A3E0FBD3127C1640107F807EF07DFA7C02900C75127CB1802A7F807E0F7D057CFD900C75E0F8A3E0F9A3E0FAA3E0FBC3127C16500E7F807E0F7D057CFD900C75EF
:406CC000127CB1E4F532F531F530F52FFFFEFDFCAB5AAA59A958A857C3127C166026AF2AAE29AD28AC27A857127ADE7810127C50E5322FF532E5313EF531E5303DF530E586
:406D00002F3CF52FE4FFFEFDFCAB5EAA5DA95CA85BC3127C16602C900C75E0FCA3E0FDA3E0FEA3E0FFA85B127ADE7810127C50E5322FF532E5313EF531E5303DF530E52F2A
:406D40003CF52FE4FFFEFDFCAB62AA61A960A85FC3127C166043900C7DE0F8A3E0F9A3E0FAA3E0FBC3E52A9BFFE5299AFEE52899FDE52798FCAB62AA61A960A85F127ADE58
:406D80007810127C50E5322FF532E5313EF531E5303DF530E52F3CF52FAF2AAE29AD28AC27900C7D127CB1E4FFFEFDFCAB32AA31A930A82FC3127C164004D20E8002C20ECC
:406DC0009009C5E0FEA3E0FFEE3395E0FDFCAB32AA31A930A82FD3127C1640169009C5E0FEA3E0FFEE3395E08F328E31F530F52F803C9009C5E0FEA3E0FFC3E49FFFE49EB3
:406E0000FE3395E0FDFCAB32AA31A930A82FC3127C16501A9009C5E0FEA3E0FFC3E49FFFE49EFE3395E08F328E31F530F52F900BC1E0F8A3E0F9A3E0FAA3E0FBC3E5329B66
:406E4000F52EE5319AF52DE53099F52CE52F98F52B900C79E0FCA3E0FDA3E0FEA3E0252EFFEE352DFEED352CFDEC352BFC900C79127CB17FA07E867D017C00900C79E0F87C
:406E8000A3E0F9A3E0FAA3E0FBD3127C1640107FA07E867D017C00900C79127CB1802A7F607E797DFE7CFF900C79E0F8A3E0F9A3E0FAA3E0FBC3127C16500E7F607E797D31
:406EC000FE7CFF900C79127CB1E4F526F525F524F523FFFEFDFCAB66AA65A964A863C3127C166026AF2EAE2DAD2CAC2BA863127ADE7810127C50E5262FF526E5253EF52566
:406F0000E5243DF524E5233CF523E4FFFEFDFCAB6AAA69A968A867C3127C16602C900C79E0FCA3E0FDA3E0FEA3E0FFA867127ADE7810127C50E5262FF526E5253EF525E592
:406F4000243DF524E5233CF523E4FFFEFDFCAB6EAA6DA96CA86BC3127C166043900C81E0F8A3E0F9A3E0FAA3E0FBC3E52E9BFFE52D9AFEE52C99FDE52B98FCAB6EAA6DA955
:406F80006CA86B127ADE7810127C50E5262FF526E5253EF525E5243DF524E5233CF52374FF7F9CFEFDFCAB26AA25A924A823C3127C16500D74FF75269CF525F524F523801A
:406FC0001EE47F64FEFDFCAB26AA25A924A823D3127C16400AE4752664F525F524F523AF2EAE2DAD2CAC2B900C81127CB1027418900BB5E0F8A3E0F9A3E0FAA3E0FB900904
:40700000F6E0FCA3E0FDA3E0FEA3E0C39BF52AEE9AF529ED99F528EC98F527900C75E0FCA3E0FDA3E0FEA3E0252AFFEE3529FEED3528FDEC3527FC900C75127CB1E47FE865
:407040007E03FDFC900C75E0F8A3E0F9A3E0FAA3E0FBD3127C16400FE47FE87E03FDFC900C75127CB1802A7F187EFC7DFF7CFF900C75E0F8A3E0F9A3E0FAA3E0FBC3127CF8
:4070800016500E7F187EFC7DFF7CFF900C75127CB1E4FFFEFDFCAB42AA41A940A83FC3127C16601AAF2AAE29AD28AC27A83F127ADE7810127C508F268E258D248C23E4FFE7
:4070C000FEFDFCAB46AA45A944A843C3127C16602C900C75E0FCA3E0FDA3E0FEA3E0FFA843127ADE7810127C50E5262FF526E5253EF525E5243DF524E5233CF523E4FFFE70
:40710000FDFCAB4AAA49A948A847C3127C166043900C7DE0F8A3E0F9A3E0FAA3E0FBC3E52A9BFFE5299AFEE52899FDE52798FCAB4AAA49A948A847127ADE7810127C50E54A
:40714000262FF526E5253EF525E5243DF524E5233CF523AF2AAE29AD28AC27900C7D127CB1E4FFFEFDFCAB26AA25A924A823D3127C164005D20E027418C20E027418900A9E
:407180000EE07003027418200D030274189009FEE0FCA3E0FDA3E0FEA3E0F5328E318D308C2F9009C5E0FEA3E0FFEE3395E0FDFCAB32AA31A930A82FD3127C1640169009B2
:4071C000C5E0FEA3E0FFEE3395E08F328E31F530F52F803C9009C5E0FEA3E0FFC3E49FFFE49EFE3395E0FDFCAB32AA31A930A82FC3127C16501A9009C5E0FEA3E0FFC3E48D
:407200009FFFE49EFE3395E08F328E31F530F52F900BC1E0F8A3E0F9A3E0FAA3E0FBC3E5329BF52EE5319AF52DE53099F52CE52F98F52B900C79E0FCA3E0FDA3E0FEA3E09A
:40724000252EFFEE352DFEED352CFDEC352BFC900C79127CB17FA07E867D017C00900C79E0F8A3E0F9A3E0FAA3E0FBD3127C1640107FA07E867D017C00900C79127CB1804E
:407280002A7F607E797DFE7CFF900C79E0F8A3E0F9A3E0FAA3E0FBC3127C16500E7F607E797DFE7CFF900C79127CB1E4F526F525F524F523FFFEFDFCAB4EAA4DA94CA84B77
:4072C000C3127C166026AF2EAE2DAD2CAC2BA84B127ADE7810127C50E5262FF526E5253EF525E5243DF524E5233CF523E4FFFEFDFCAB52AA51A950A84FC3127C16602C90BF
:407300000C79E0FCA3E0FDA3E0FEA3E0FFA84F127ADE7810127C50E5262FF526E5253EF525E5243DF524E5233CF523E4FFFEFDFCAB56AA55A954A853C3127C166043900CB8
:4073400081E0F8A3E0F9A3E0FAA3E0FBC3E52E9BFFE52D9AFEE52C99FDE52B98FCAB56AA55A954A853127ADE7810127C50E5262FF526E5253EF525E5243DF524E5233CF5C1
:4073800023AF2EAE2DAD2CAC2B900C81127CB1E4FFFEFDFCAB26AA25A924A823C3127C164004D20E8072C20E806E900A06E0FCA3E0FDA3E0FEA3E0F5268E258D248C23E487
:4073C000FFFEFDFCAB26AA25A924A823D3127C164004D20E8002C20E74FF7F9CFEFDFCAB26AA25A924A823C3127C16500D74FF75269CF525F524F523801EE47F64FEFDFCA0
:40740000AB26AA25A924A823D3127C16400AE4752664F525F524F523E47F64FEFDFCAB26AA25A924A823D3127C16400AE4752664F525F524F52374FF7F9CFEFDFCAB26AA40
:4074400025A924A823C3127C16500B74FF75269CF525F524F523900990E064016037AF26AE25AD24AC23780A127C64E47B64FAF9F812C2A9A804A905AA06AB07900BECE089
:40748000FFE4FCFDFE127ADE780A127C508F268E258D248C23E4FFFEFDFCAB26AA25A924A823C3127C1640047F0180027FFF900BB4EFF0300E077F0112CE3A8005E4FF129C
:4074C000CE3AAE25AF2612CD1612CE222202788EE86480F8E933E83360110460F0ED33EC337009E8FCE9FDEAFEEBFF220460DED3EB9FEA9EE99DE8C2E78CF0C2F795F0404D
:407500000CE8CCF8E9CDF9EACEFAEBCFFB12785985D0F05804700320D5B3E80470075002B2D502789892D5EC0460F7E4CCC0E0C398F8603B94186008400DD0E0FB027870AE
:40754000E4FBFAC9FC8028E830E406E4C9FBE4CAFCE830E305E4C9CACBFCE854076010F8C3E913F9EA13FAEB13FBEC13FCD8F130F52FC3E49CFCEF9BFFEE9AFEED99FDD027
:40758000E0FBEF4E4D4C701222DB03027895EC2CFCEF33FFEE33FEED33FDED30E7EB027870EF2BFFEE3AFEED39FDD0E0FB50130BBB0003027898ED13FDEE13FEEF13FFEC0B
:4075C00013FC027870EC4D6011E8497017ED33EC3304600DE4FCFFFEFD22E933E8330470F802788E12785958046009E4CC24815006285009027898284003027895C0E0EBEE
:407600004A7044B98006D0E0FB027884EF4E701CBD8008EBFFEAFEE9FD80EBE98DF0A4FEE5F00276AEE9CDF9EAFEEBFFEF89F0A4FCE5F0CE89F0A42EFFE435F0CD89F0A4C7
:407640002DFEE435F08067EF4E7005BD80D780C3EF8BF0A4ACF0EE8BF0A42CFCE435F0F8EF8AF0A42CE5F038FCE433CB8DF0A42CFCE5F03BF8EE8AF0A42CFCE5F038F8E474
:4076800033CF89F0A42CFCE5F038CF3400CE89F0A42FFFE5F03EFEE433C98DF0A42EFEE5F039CD8AF0A42FFFE5F03EFEE43DFD33D0E0FB50070BBB000F027898EC2CFCEFA7
:4076C00033FFEE33FEED33FD027870027898EC5D046005E85904700302788E127859580460F6EC4860F2EC7004FDFEFF22C860DB2481C85009C39860025006027895985044
:40770000CAF582E9294B4A7005AB8202788475F0007C1A7880C3EF9BEE9AED99400DC3EF9BFFEE9AFEED99FDE842F0DC23ACF0D0E0FFD0E0FED0E0FDAB8220E7101BEB6068
:40774000BAEC2CFCEF33FFEE33FEED33FD027870E803F830E705C0F075F000EF2FFFEE33FEED33FD40B830E7C280AA74F8CC6480CCC86480C8F58204604FC3EB9FF5F0EAEA
:407780009E42F0E99D42F0E89C45F0603C501DE5825FFFE582D313CB5BCBF42B5582FB50280ABA002409B9002008801DE5825BFBE582D313CF5FCFF4C3132F5582FF500975
:4077C0000EBE00050DBD00010CC3EB9FF5F0EA9E42F0E99D42F0E89C45F06007CC4820E701B3EC2275F020800E75F010800575F0087D007E007F003392D530D503127C0814
:40780000EC334010EF33FFEE33FEED33FDEC33FCD5F0ED22E5F0247EA2D513CC92E7CDCEFF22EDD2E7CD33EC3392D524814006E4FFFEFDFC22FCE4CFCECDCC24E050117489
:40784000FF80EDC3CC13CCCD13CDCE13CECF13CF0470F030D5DE027C08E9D2E7C933E833F892D5EDD2E7CD33EC33FC5002B2D522EC30E7100FBF000C0EBE00080DBD0004F1
:407880000BEB6014A2D5EB13FCED92E7FD2274FFFCFDFEFF22E480F8A2D574FF13FC7D80E480EFF920E73624F950037907E4F42402FBE582158270021583DBF6E024FB50F1
:4078C0001BE96014E4F0E582158270021583E004F0B40A08E4F0D9EE7401F00A22C2D522ED33EC3392D5FA602AB4FF33EDC2E77BFF60067A797905E4227A79790E20D50445
:407900007A797909224E614E002B494E46002D494E4600E47A08F0A3DAFC7B00740722C083C082ECC0E0EDC0E0EEC0E0EFC0E0EA75F010A4CAABF075F04DA42BFBE435F012
:40794000FCEA2410FAEB34C5FBEC34D9FCEDC2E7FF75F056A4F42411C5F0F434C58FF0A42AE5F03BE43CF020E714127A15D0E0FFD0E0FED0E0FDD0E0FC1276CE8014F4049F
:40798000127A15D0E0FFD0E0FED0E0FDD0E0FC1275C5D082D083E0FAEDD2E7CD33EC332482FBE4C3CF33CFCE33CECD33CD33DBF37B0775F00A846004F0A31B0AE5F0F0A331
:4079C0008FF0740AA4FFACF08EF0740AA42CFEACF050010C8DF0740AA42CFDE435F0F0A3DBDE7407223F8000004120000042C80000447A0000461C400047C3500049742409
:407A0000004B1896804CBEBC205A0E1BCA6753C21C749DC5AEFB60065407601C2323127A43EB54386009127A2F127A3E1275C5ECF8EDF9EEFAEFCB22EB127A3E80F1543840
:407A400003241C9079E5FE93FC0EEE93FD0EEE930ECE93FF22BB010689828A83E0225002E722BBFE02E32289828A83E49322BB010CE58229F582E5833AF583E0225006E9CB
:407A80002582F8E622BBFE06E92582F8E222E58229F582E5833AF583E49322BB010689828A83F0225002F722BBFE01F322EF8DF0A4A8F0CF8CF0A428CE8DF0A42EFE22BB3D
:407AC000010A89828A83F0E5F0A3F0225006F709A7F01922BBFE06F3E5F009F31922E88FF0A4CC8BF0A42CFCE98EF0A42CFC8AF0EDA42CFCEA8EF0A4CDA8F08BF0A42DCCF6
:407B00003825F0FDE98FF0A42CCD35F0FCEB8EF0A4FEA9F0EB8FF0A4CFC5F02ECD39FEE43CFCEAA42DCE35F0FDE43CFC2275F008758200EF2FFFEE33FECD33CDCC33CCC56B
:407B40008233C5829BED9AEC99E58298400CF582EE9BFEED9AFDEC99FC0FD5F0D6E4CEFBE4CDFAE4CCF9A88222B800C1B90059BA002DEC8BF084CFCECDFCE5F0CBF9781831
:407B8000EF2FFFEE33FEED33FDEC33FCEB33FB10D703994004EB99FB0FD8E5E4F9FA227818EF2FFFEE33FEED33FDEC33FCC933C910D7059BE99A4007EC9BFCE99AF90FD82D
:407BC000E0E4C9FAE4CCFB2275F010EF2FFFEE33FEED33FDCC33CCC833C810D7079BEC9AE899400AED9BFDEC9AFCE899F80FD5F0DAE4CDFBE4CCFAE4C8F922CFF4CFCEF45C
