:1026000002C925008F828E83E0540100000070F81B
:102610002278FFE4F6D8FD02C9B3900002EEF0A3E1
:10262000EFF078047C007D017BFF7A4D794B7E07CB
:102630007F9F1289DE9007A37407F0A3749FF07840
:10264000AA7C077D017BFF7A5479EA7E007F0F1216
:1026500089DE78B97C077D017BFF7A5479F97E00A9
:102660007F1C1289DE78D57C077D017BFF7A557946
:10267000157E007F1B1289DE78F07C077D017BFFD1
:102680007A5579307E007F1C1289DE780C7C087DBB
:10269000017BFF7A55794C7E007F221289DE782EED
:1026A0007C087D017BFF7A55796E7E007F27128939
:1026B000DE78557C087D017BFF7A5579957E007F19
:1026C000111289DE78667C087D017BFF7A5579A638
:1026D0007E007F191289DE787F7C087D017BFF7A7E
:1026E0005579BF7E007F111289DE78907C087D01CC
:1026F0007BFF7A5579D07E007F1C1289DE78AC7C16
:10270000087D017BFF7A5579EC7E007F1D1289DE02
:1027100078C97C087D017BFF7A5679097E007F1B92
:102720001289DE78E47C087D017BFF7A5679247E6D
:10273000007F141289DE78F87C087D017BFF7A56D1
:1027400079387E007F251289DE781D7C097D017B2A
:10275000FF7A56795D7E007F151289DE78327C091A
:102760007D017BFF7A5679727E007F151289DE78B3
:10277000477C097D017BFF7A5679877E007F1412A2
:1027800089DE785B7C097D017BFF7A56799B7E0030
:102790007F241289DE787F7C097D017BFF7A567960
:1027A000BF7E007F191289DE78987C097D017BFF4E
:1027B0007A5679D87E007F181289DE78B07C097D40
:1027C000017BFF7A5679F07E007F141289DE78C48F
:1027D0007C097D017BFF7A5779047E007F24128972
:1027E000DE78E87C097D017BFF7A5779287E007FBF
:1027F000231289DE780B7C0A7D017BFF7A57794BA7
:102800007E007F111289DE781C7C0A7D017BFF7AB5
:1028100057795C7E007F151289DE78317C0A7D0154
:102820007BFF7A5779717E007F1D1289DE784E7C9E
:102830000A7D017BFF7A57798E7E007F181289DE30
:1028400078667C0A7D017BFF7A5779A67E007F1926
:102850001289DE787F7C0A7D017BFF7A5779BF7E03
:10286000007F251289DE78A47C0A7D017BFF7A57E0
:1028700079E47E007F631289DE78077C0B7D017B23
:10288000FF7A5879477E007F401289DE78477C0BBB
:102890007D017BFF7A5879877E007F2A1289DE7B53
:1028A000017A0779AA12EEA48F2C7B017A0779B9F5
:1028B00012EEA48F2D7B017A0779D512EEA48F2E0C
:1028C0007B017A08795512EEA48F2F7B017A087963
:1028D0006612EEA48F307B017A08797F12EEA48F06
:1028E000317B017A0879AC12EEA48F327B017A0831
:1028F00079C912EEA48F337B017A0879E412EEA431
:102900008F347B017A09791D12EEA48F357B017A11
:1029100009793212EEA48F367B017A09794712EEDB
:10292000A48F377B017A09797F12EEA48F387B015F
:102930007A0A791C12EEA48F397B017A0A79A412E3
:10294000EEA48F3A7B017A0B790712EEA48F3B7BC2
:10295000017A0B794712EEA48F3C7B017A0979B09A
:1029600012EEA48F3D7B017A0979C412EEA48F3E4A
:102970007B017A0979E812EEA48F3F7B017A0A790C
:102980000B12EEA48F407B017A0A797F12EEA48F9E
:1029900041900004740CF0A3741DF0900002E0FE5E
:1029A000A3E0FFEE6003024031EFB41E00400302DB
:1029B00040319029B9F8282873022A13023A840278
:1029C0003A8D023B5D023C2D023C40023C49023CF8
:1029D00052023C7D023CFB023D38023D41023E1763
:1029E000023E9D023EAD023EB6023ED5023EFE02D2
:1029F0003F07023F1E023F27023F30023F62023F75
:102A000077023FAA023FBF023FF902400202400B99
:102A10000240199000067402F0A314F0900B7BE0C2
:102A2000900008F0852C2AE52A6032FFC3E52C9F30
:102A3000FFE49400FE74AA2FF58274073EF583E04C
:102A4000FFE52AFDE52CC39DFDE49400FC74092DEF
:102A5000F58274003CF583EFF0152A80CA900038A7
:102A60007407F0A37403F0900BAEE0640360689009
:102A70000B7CE0FCA3E0FDA3E0FEA3E0FFEC1283EF
:102A800066E4FBFA7980784712825090003A128807
:102A90007F900B80E0FCA3E0FDA3E0FEA3E0FFEC51
:102AA000128366E4FBFA7980784712825090003EE8
:102AB00012887F900B84E0FCA3E0FDA3E0FEA3E07E
:102AC000FFEC128366E4FBFA79807847128250901B
:102AD000004212887F8066900B94E0FCA3E0FDA387
:102AE000E0FEA3E0FFEC128366E4FBFA798078470E
:102AF00012825090003A12887F900B98E0FCA3E07D
:102B0000FDA3E0FEA3E0FFEC128366E4FBFA79800C
:102B1000784712825090003E12887F900B9CE0FC18
:102B2000A3E0FDA3E0FEA3E0FFEC128366E4FBFA62
:102B30007980784712825090004212887F852D2A32
:102B4000E52A6032FFC3E52D9FFFE49400FE74B9CF
:102B50002FF58274073EF583E0FFE52AFDE52DC3DE
:102B60009DFDE49400FC74462DF58274003CF583D1
:102B7000EFF0152A80CA90006A7407F0A37403F07E
:102B8000900BAEE064036068900B88E0FCA3E0FD6E
:102B9000A3E0FEA3E0FFEC128366E4FBFA79807801
:102BA0004712825090006C12887F900B8CE0FCA33F
:102BB000E0FDA3E0FEA3E0FFEC128366E4FBFA79FC
:102BC00080784712825090007012887F900B90E0BE
:102BD000FCA3E0FDA3E0FEA3E0FFEC128366E4FBB0
:102BE000FA7980784712825090007412887F80664C
:102BF000900BA0E0FCA3E0FDA3E0FEA3E0FFEC123D
:102C00008366E4FBFA7980784712825090006C1258
:102C1000887F900BA4E0FCA3E0FDA3E0FEA3E0FF0F
:102C2000EC128366E4FBFA798078471282509000B8
:102C30007012887F900BA8E0FCA3E0FDA3E0FEA348
:102C4000E0FFEC128366E4FBFA7980784712825049
:102C500090007412887F852E2AE52A6032FFC3E532
:102C60002E9FFFE49400FE74D52FF58274073EF585
:102C700083E0FFE52AFDE52EC39DFDE49400FC748E
:102C8000782DF58274003CF583EFF0152A80CAE4B4
:102C900090009CF0A304F0900BACE090009EF090AC
:102CA0000BAC601C900B7474FFF0A37440F0A37421
:102CB00032F07B017A0779F012E0AC752B1C801A98
:102CC000900B7474FFF0A37440F0A37438F07B0190
:102CD0007A0779F012E0AC752B1B852B2AE52A6068
:102CE00032FFC3E52B9FFFE49400FE74F02FF582C2
:102CF00074073EF583E0FFE52AFDE52BC39DFDE467
:102D00009400FC749F2DF58274003CF583EFF01560
:102D10002A80CA749F252BF582E43400F58374035E
:102D2000F0E49000CEF0A304F0900BADE09000D062
:102D3000F0900BAD14603314604C14606514607E29
:102D4000147003022DDA24056003022DF4900B7435
:102D500074FFF0A37440F0A3743DF07B017A08790E
:102D60000C12E0AC752B14022DF4900B7474FFF070
:102D7000A37440F0A37443F07B017A08790C12E04D
:102D8000AC752B17806E900B7474FFF0A37440F039
:102D9000A3744CF07B017A08790C12E0AC752B21FE
:102DA0008052900B7474FFF0A37440F0A3745FF032
:102DB0007B017A08790C12E0AC752B1D8036900BE4
:102DC0007474FFF0A37440F0A3746EF07B017A0872
:102DD000790C12E0AC752B19801A900B7474FFF00B
:102DE000A37440F0A37479F07B017A08790C12E0A7
:102DF000AC752B22852B2AE52A6032FFC3E52B9F79
:102E0000FFE49400FE740C2FF58274083EF583E015
:102E1000FFE52AFDE52BC39DFDE49400FC74D12D54
:102E2000F58274003CF583EFF0152A80CA74D12531
:102E30002BF582E43400F5837401F0E4900100F096
:102E4000A304F0900BAEE0900102F0900BAE146082
:102E50002614603F1460582403706E900B7474FF46
:102E6000F0A37440F0A3748DF07B017A08792E12E0
:102E7000E0AC752B1B8052900B7474FFF0A3744070
:102E8000F0A37498F07B017A08792E12E0AC752BD0
:102E9000168036900B7474FFF0A37440F0A3749EF8
:102EA000F07B017A08792E12E0AC752B1A801A900B
:102EB0000B7474FFF0A37440F0A374A8F07B017A44
:102EC00008792E12E0AC752B27852B2AE52A603273
:102ED000FFC3E52B9FFFE49400FE742E2FF5827450
:102EE000083EF583E0FFE52AFDE52BC39DFDE49454
:102EF00000FC74032DF58274013CF583EFF0152A74
:102F000080CA7403252BF582E43401F5837402F042
:102F1000900132F0A304F0E4F52AE52AC3940350AB
:102F20001E74AF252AF582E4340BF583E0FF743478
:102F3000252AF582E43401F583EFF0052A80DB854C
:102F40002F2AE52A6032FFC3E52F9FFFE49400FE9D
:102F500074552FF58274083EF583E0FFE52AFDE500
:102F60002FC39DFDE49400FC74372DF58274013C61
:102F7000F583EFF0152A80CA9001647403F0A3F082
:102F8000E4F52AE52AC394035044E52A25E025E028
:102F900024B2F582E4340BF583E0FCA3E0FDA3E06A
:102FA000FEA3E0FF74AF252AF582E4340BF583E03D
:102FB000F9F812881E75F002E52AA42466F582E568
:102FC000F03401F583EEF0A3EFF0052A80B58530EB
:102FD0002AE52A6032FFC3E5309FFFE49400FE74C7
:102FE000662FF58274083EF583E0FFE52AFDE530A3
:102FF000C39DFDE49400FC746C2DF58274013CF5D6
:1030000083EFF0152A80CA9001967407F0A3740329
:10301000F0E4F52AE52AC394035031E52A25E0259A
:10302000E024BEF582E4340BF583E0FCA3E0FDA3CD
:10303000E0FEA3E0FF75F004E52AA42498F582E5FC
:10304000F03401F58312887F052A80C885312AE58E
:103050002A6032FFC3E5319FFFE49400FE747F2FA6
:10306000F58274083EF583E0FFE52AFDE531C39D56
:10307000FDE49400FC74A42DF58274013CF583EF0B
:10308000F0152A80CAE49001C8F0A304F0900BCA9E
:10309000E09001CAF0900BCA601C900B7474FFF0B2
:1030A000A37440F0A37432F07B017A08799012E0A7
:1030B000AC752B1C801A900B7474FFF0A37440F055
:1030C000A37438F07B017A08799012E0AC752B1B61
:1030D000852B2AE52A6032FFC3E52B9FFFE494008D
:1030E000FE74902FF58274083EF583E0FFE52AFD1B
:1030F000E52BC39DFDE49400FC74CB2DF582740197
:103100003CF583EFF0152A80CA74CB252BF582E4B9
:103110003401F5837403F09001FA7405F0A374028E
:10312000F0E4F52AE52AC3940140030231AFE52A11
:1031300025E025E024CBF582E4340BF583E0FCA305
:10314000E0FDA3E0FEA3E0FF74AF252AF582E4349E
:103150000BF583E0F9F812881E75F008E52AA4241F
:10316000FCF582E5F03401F58312887FE52A25E03D
:1031700025E024D3F582E4340BF583E0FCA3E0FDE5
:10318000A3E0FEA3E0FF74AF252AF582E4340BF53B
:1031900083E0F9F812881E75F008E52AA42400F5EA
:1031A00082E5F03402F58312887F052A02312485F6
:1031B000322AE52A6032FFC3E5329FFFE49400FE25
:1031C00074AC2FF58274083EF583E0FFE52AFDE537
:1031D00032C39DFDE49400FC74042DF58274023C1E
:1031E000F583EFF0152A80CA90022C7405F0A374C1
:1031F00002F0900BDFE0FCA3E0FDA3E0FEA3E0FF04
:1032000090022E12887F900BDBE0FCA3E0FDA3E090
:10321000FEA3E0FF90023212887F85332AE52A6000
:1032200032FFC3E5339FFFE49400FE74C92FF5829B
:1032300074083EF583E0FFE52AFDE533C39DFDE418
:103240009400FC74362DF58274023CF583EFF01582
:103250002A80CA90025E7403F0A37401F0900BE31D
:10326000E0FFA3E0900260CFF0A3EFF085342AE501
:103270002A6032FFC3E5349FFFE49400FE74E42F1C
:10328000F58274083EF583E0FFE52AFDE534C39D31
:10329000FDE49400FC74622DF58274023CF583EF2A
:1032A000F0152A80CAE4900290F0A304F0900BE994
:1032B000E0900292F0900BE9601C900B7474FFF0A8
:1032C000A37440F0A37432F07B017A0879F812E01D
:1032D000AC752B25801A900B7474FFF0A37440F02A
:1032E000A37438F07B017A0879F812E0AC752B24CE
:1032F000852B2AE52A6032FFC3E52B9FFFE494006B
:10330000FE74F82FF58274083EF583E0FFE52AFD90
:10331000E52BC39DFDE49400FC74932DF5827402AB
:103320003CF583EFF0152A80CA7493252BF582E4CF
:103330003402F5837403F09002C204F0A37402F027
:10334000900BE5E0FFA3E09002C4CFF0A3EFF09074
:103350000BE7E0FFA3E09002C6CFF0A3EFF08535C6
:103360002AE52A6032FFC3E5359FFFE49400FE742E
:103370001D2FF58274093EF583E0FFE52AFDE53552
:10338000C39DFDE49400FC74C82DF58274023CF5E5
:1033900083EFF0152A80CA9002F47406F0A3740239
:1033A000F0900BEAE0FCA3E0FDA3E0FEA3E0FF90B9
:1033B00002F612887F900BEEE0FCA3E0FDA3E0FE96
:1033C000A3E0FF9002FA12887F85362AE52A603250
:1033D000FFC3E5369FFFE49400FE74322FF582743C
:1033E000093EF583E0FFE52AFDE536C39DFDE49443
:1033F00000FC74FE2DF58274023CF583EFF0152A73
:1034000080CA9003267402F0A314F0900BF2E090AF
:103410000328F085372AE52A6032FFC3E5379FFF8E
:10342000E49400FE74472FF58274093EF583E0FFB3
:10343000E52AFDE537C39DFDE49400FC74292DF5D4
:103440008274033CF583EFF0152A80CAE490035898
:10345000F0A304F0900BF3E090035AF0900BF360AC
:103460001C900B7474FFF0A37440F0A37432F07BD3
:10347000017A09795B12E0AC752B24801A900B74E9
:1034800074FFF0A37440F0A37438F07B017A0979DB
:103490005B12E0AC752B23852B2AE52A6032FFC333
:1034A000E52B9FFFE49400FE745B2FF58274093EC8
:1034B000F583E0FFE52AFDE52BC39DFDE49400FCC8
:1034C000745B2DF58274033CF583EFF0152A80CAF6
:1034D000745B252BF582E43403F5837403F09003C9
:1034E0008A7401F0A3F0900BF4E090038CF085381F
:1034F0002AE52A6032FFC3E5389FFFE49400FE749A
:103500007F2FF58274093EF583E0FFE52AFDE5385B
:10351000C39DFDE49400FC748D2DF58274033CF58D
:1035200083EFF0152A80CAE49003BCF0A304F09066
:103530000BF5E09003BEF0900BF5601C900B7474DB
:10354000FFF0A37440F0A37432F07B017A097998FC
:1035500012E0AC752B18801A900B7474FFF0A374F2
:1035600040F0A37438F07B017A09799812E0AC75C9
:103570002B17852B2AE52A6032FFC3E52B9FFFE43A
:103580009400FE74982FF58274093EF583E0FFE500
:103590002AFDE52BC39DFDE49400FC74BF2DF5824C
:1035A00074033CF583EFF0152A80CA74BF252BF510
:1035B00082E43403F5837403F09003EE7405F0A302
:1035C0007401F0900C10E0FCA3E0FDA3E0FEA3E08A
:1035D000FF900BAFE0F9F812881E9003F012887F7D
:1035E000853D2AE52A6032FFC3E53D9FFFE4940054
:1035F000FE74B02FF58274093EF583E0FFE52AFDE5
:10360000E53DC39DFDE49400FC74F42DF582740344
:103610003CF583EFF0152A80CA9004207407F0A3CC
:103620007401F0900C14E0FCA3E0FDA3E0FEA3E025
:10363000FF90042212887F853E2AE52A6032FFC36C
:10364000E53E9FFFE49400FE74C42FF58274093EAA
:10365000F583E0FFE52AFDE53EC39DFDE49400FC13
:1036600074262DF58274043CF583EFF0152A80CA88
:103670009004527407F0A37401F0E4FFFE7D7A7C9D
:1036800044900C18E0F8A3E0F9A3E0FAA3E0FB12E1
:10369000814790045412887F853F2AE52A6032FFD3
:1036A000C3E53F9FFFE49400FE74E82FF5827409A0
:1036B0003EF583E0FFE52AFDE53FC39DFDE4940070
:1036C000FC74582DF58274043CF583EFF0152A80C4
:1036D000CA9004847407F0A37401F0900C1CE0FC01
:1036E000A3E0FDA3E0FEA3E0FF90048612887F859F
:1036F000402AE52A6032FFC3E5409FFFE49400FEC4
:10370000740B2FF582740A3EF583E0FFE52AFDE590
:1037100040C39DFDE49400FC748A2DF58274043C42
:10372000F583EFF0152A80CA9004B67407F0A3144D
:10373000F0E4F52AE52AC394065031E52A25E02570
:10374000E024F6F582E4340BF583E0FCA3E0FDA36E
:10375000E0FEA3E0FF75F004E52AA424B8F582E5B5
:10376000F03404F58312887F052A80C885392AE55C
:103770002A6032FFC3E5399FFFE49400FE741C2FDA
:10378000F582740A3EF583E0FFE52AFDE539C39D25
:10379000FDE49400FC74D02DF58274043CF583EFB5
:1037A000F0152A80CAE49004E8F0A304F0900C24F9
:1037B000E09004EAF0900C24601C900B7474FFF00D
:1037C000A37440F0A37432F07B017A0A793112E0DD
:1037D000AC752B1D801A900B7474FFF0A37440F02D
:1037E000A37438F07B017A0A793112E0AC752B1C96
:1037F000852B2AE52A6032FFC3E52B9FFFE4940066
:10380000FE74312FF582740A3EF583E0FFE52AFD50
:10381000E52BC39DFDE49400FC74EB2DF58274044C
:103820003CF583EFF0152A80CA74EB252BF582E472
:103830003404F5837403F0E490051AF0A304F090C7
:103840000C23E090051CF0900C23601C900B74740A
:10385000FFF0A37440F0A37432F07B017A0A794E32
:1038600012E0AC752B18801A900B7474FFF0A374DF
:1038700040F0A37438F07B017A0A794E12E0AC75FF
:103880002B17852B2AE52A6032FFC3E52B9FFFE427
:103890009400FE744E2FF582740A3EF583E0FFE536
:1038A0002AFDE52BC39DFDE49400FC741D2DF582DB
:1038B00074053CF583EFF0152A80CA741D252BF59D
:1038C00082E43405F5837403F0E490054CF0A3041E
:1038D000F0A3F0900B7474FFF0A37440F0A374385D
:1038E000F07B017A0A796612E0AC752B18852B2AD9
:1038F000E52A6032FFC3E52B9FFFE49400FE746667
:103900002FF582740A3EF583E0FFE52AFDE52BC31F
:103910009DFDE49400FC744F2DF58274053CF58305
:10392000EFF0152A80CA744F252BF582E43405F593
:10393000837403F090057E14F0A304F0900C20E053
:10394000FF7480252AF582E43405F583EFF0900CAE
:1039500021E0FF7481252AF582E43405F583EFF038
:10396000900C22E0FF7482252AF582E43405F58369
:10397000EFF085412AE52A6032FFC3E5419FFFE46D
:103980009400FE747F2FF582740A3EF583E0FFE514
:103990002AFDE541C39DFDE49400FC74832DF5826E
:1039A00074053CF583EFF0152A80CA853A2AE52A8A
:1039B0006032FFC3E53A9FFFE49400FE74A42FF544
:1039C00082740A3EF583E0FFE52AFDE53AC39DFDDA
:1039D000E49400FC74B02DF58274053CF583EFF09F
:1039E000152A80CA853B2AE52A6032FFC3E53B9F42
:1039F000FFE49400FE74072FF582740B3EF583E01C
:103A0000FFE52AFDE53BC39DFDE49400FC74462DD3
:103A1000F58274063CF583EFF0152A80CA853C2AAE
:103A2000E52A6032FFC3E53C9FFFE49400FE744743
:103A30002FF582740B3EF583E0FFE52AFDE53CC3DC
:103A40009DFDE49400FC74DC2DF58274063CF58346
:103A5000EFF0152A80CA7B017A0079049007A3E071
:103A6000A3E014FD12EA0B9007A3E0FCA3E0FD2401
:103A700003F58274003CF583EFF07B017A00790452
:103A800012D50122900DF4E0900C94F022900BAE30
:103A9000E064036064E4FFFE7D807C47900DF4E009
:103AA000F8A3E0F9A3E0FAA3E0FB1281471283A494
:103AB000900C9512887FE4FFFE7D807C47900DF886
:103AC000E0F8A3E0F9A3E0FAA3E0FB128147128338
:103AD000A4900C9912887FE4FFFE7D807C47900DB6
:103AE000FCE0F8A3E0F9A3E0FAA3E0FB128147129F
:103AF00083A4900C9D12887F22E4FFFE7D807C478A
:103B0000900DF4E0F8A3E0F9A3E0FAA3E0FB128142
:103B1000471283A4900CAD12887FE4FFFE7D807C69
:103B200047900DF8E0F8A3E0F9A3E0FAA3E0FB1258
:103B300081471283A4900CB112887FE4FFFE7D8040
:103B40007C47900DFCE0F8A3E0F9A3E0FAA3E0FBCA
:103B50001281471283A4900CB512887F22900BAE7D
:103B6000E064036064E4FFFE7D807C47900DF4E038
:103B7000F8A3E0F9A3E0FAA3E0FB1281471283A4C3
:103B8000900CA112887FE4FFFE7D807C47900DF8A9
:103B9000E0F8A3E0F9A3E0FAA3E0FB128147128367
:103BA000A4900CA512887FE4FFFE7D807C47900DD9
:103BB000FCE0F8A3E0F9A3E0FAA3E0FB12814712CE
:103BC00083A4900CA912887F22E4FFFE7D807C47AD
:103BD000900DF4E0F8A3E0F9A3E0FAA3E0FB128172
:103BE000471283A4900CB912887FE4FFFE7D807C8D
:103BF00047900DF8E0F8A3E0F9A3E0FAA3E0FB1288
:103C000081471283A4900CBD12887FE4FFFE7D8063
:103C10007C47900DFCE0F8A3E0F9A3E0FAA3E0FBF9
:103C20001281471283A4900CC112887F22900DF458
:103C3000E06007900CC57403F022E4900CC5F022FC
:103C4000900DF4E0900CC6F022900DF4E0900CC7BB
:103C5000F022E4F52AE52AC39403400302403174BC
:103C6000F4252AF582E4340DF583E0FF74C8252A93
:103C7000F582E4340CF583EFF0052A80D8E4F52AC8
:103C8000E52AC394035071E52A25E024F4F582E483
:103C9000340DF583E0FEA3E0FFEE3395E0FDFCE597
:103CA0002A25E025E024CBF582E4340CF583128844
:103CB0007FE52A25E025E024CBF582E4340CF5836A
:103CC000C083C082E0FCA3E0FDA3E0FEA3E0FF749C
:103CD000C8252AF582E4340CF583E0F9F81288321D
:103CE000D082D08312887F74C0252AF582E4340EF6
:103CF000F583E4F0052A8088D20B22E4F52AE52A30
:103D0000C394034003024031E52A25E025E024F472
:103D1000F582E4340DF583E0FCA3E0FDA3E0FEA30F
:103D2000E0FFE52A25E025E024D7F582E4340CF510
:103D30008312887F052A80C6900DF4E0900CE3F092
:103D400022E4F52AE52AC394024003024031E52A21
:103D500075F008A424F4F582E4340DF583E0FCA3A7
:103D6000E0FDA3E0FEA3E0FFE52A25E025E024E452
:103D7000F582E4340CF58312887FE52A75F008A4F7
:103D800024F8F582E4340DF583E0FCA3E0FDA3E024
:103D9000FEA3E0FFE52A25E025E024ECF582E434EB
:103DA0000CF58312887FE52A25E025E024E4F582DE
:103DB000E4340CF583C083C082E0FCA3E0FDA3E003
:103DC000FEA3E0FF74C8252AF582E4340CF583E0F5
:103DD000F9F8128832D082D08312887FE52A25E054
:103DE00025E024ECF582E4340CF583C083C082E046
:103DF000FCA3E0FDA3E0FEA3E0FF74C8252AF58242
:103E0000E4340CF583E0F9F8128832D082D08312C2
:103E1000887F052A023D44900DF4E0FCA3E0FDA359
:103E2000E0FEA3E0FF9007A512887FE4FFFEFDFC03
:103E30009007A5E0F8A3E0F9A3E0FAA3E0FBD31212
:103E400087E450149007A5E0FCA3E0FDA3E0FEA3E7
:103E5000E0FF900CF812887F900DF8E0FCA3E0FDE5
:103E6000A3E0FEA3E0FF9007A512887FE4FFFEFD1C
:103E7000FC9007A5E0F8A3E0F9A3E0FAA3E0FBC3F8
:103E80001287E450030240319007A5E0FCA3E0FD57
:103E9000A3E0FEA3E0FF900CF412887F22900DF4C3
:103EA000E0FFA3E0900CFCCFF0A3EFF022900DF424
:103EB000E0900D02F022900DF4E0FFA3E0900CFEE4
:103EC000CFF0A3EFF0900DF6E0FFA3E0900D00CF50
:103ED000F0A3EFF022900DF4E0FCA3E0FDA3E0FEE0
:103EE000A3E0FF900D0312887F900DF8E0FCA3E0A3
:103EF000FDA3E0FEA3E0FF900D0712887F22900D46
:103F0000F4E0900D0BF022900DF4E09007A9F06022
:103F100007900D0C7401F022E4900D0CF022900D2E
:103F2000F4E0900D0DF022900DF4E0900D0EF022D3
:103F3000900DF4E0FCA3E0FDA3E0FEA3E0FF900DF4
:103F40002912887F900D29E0FCA3E0FDA3E0FEA3E9
:103F5000E0FF900CC8E0F9F8128832900D29128821
:103F60007F22900DF4E0FCA3E0FDA3E0FEA3E0FFC0
:103F7000900D2D12887F22900DF4E0FCA3E0FDA3AC
:103F8000E0FEA3E0FF900D3112887F900D31E0FC40
:103F9000A3E0FDA3E0FEA3E0FFE4FBFA797A784416
:103FA000128250900D3112887F22900DF4E0FCA314
:103FB000E0FDA3E0FEA3E0FF900D3512887F22E430
:103FC000F52AE52AC394065068E52A25E025E02471
:103FD000F4F582E4340DF583E0FCA3E0FDA3E0FEFC
:103FE000A3E0FFE52A25E025E0240FF582E4340D67
:103FF000F58312887F052A80C9900DF4E0900D3D6D
:10400000F022900DF4E0900D3CF022900DF4E09041
:1040100007A9F0601C12D7AF22900DF4E0900D3983
:10402000F0900DF5E0900D3AF0900DF6E0900D3B1C
:10403000F022205945530000204E4F0000205573B8
:104040006200002048616E646C65000020454D47A9
:104050002070726F706F7274696F6E616C000020F7
:10406000454D4720696E74656772616C000020459C
:104070004D472046434653000020454D47204643C8
:10408000465320416476616E636564000020506F82
:10409000736974696F6E00002050574D0000204313
:1040A000757272656E74000020506F736974696F69
:1040B0006E20616E642043757272656E740000003C
:1040C0000D0A004669726D776172652076657273BC
:1040D000696F6E3A200053482D50524F2076362E8D
:1040E000312E362043656E74726F205069616767A8
:1040F000696F002E0D0A0D0A0044455649434520BC
:10410000494E464F0D0A0049443A2025640D0A00E5
:1041100050574D2072657363616C696E67206163EF
:104120007469766174696F6E3A20005945530A00CC
:104130004E4F0A0050574D204C696D69743A202546
:10414000640D0A004D4F544F5220494E464F0D0A00
:10415000004D6F746F72207265666572656E63657F
:1041600000202D2043757272656E74733A20002012
:104170002D2050776D3A2000202D20506F736974E8
:10418000696F6E3A2000256420004D6F746F7220B5
:10419000656E61626C65643A20005945530D0A00F2
:1041A0004E4F0D0A000D0A4D4541535552454D45A0
:1041B0004E545320494E464F0D0A0053656E736F9F
:1041C000722076616C75653A0D0A002564202D3EDB
:1041D000202564004261747465727920566F6C7496
:1041E00061676520286D56293A20256C6400467564
:1041F0006C6C2063686172676520706F77657220F0
:1042000074656E73696F6E20286D56293A20256C8F
:10421000640043757272656E7420286D41293A20DE
:10422000256C64000D0A44455649434520504152CF
:10423000414D45544552530D0A0050494420436FA7
:104240006E74726F6C6C65723A0D0A0050202D3ED0
:1042500020256620200049202D3E202566202000B4
:1042600044202D3E2025660D0A0043757272656E4E
:10427000742050494420436F6E74726F6C6C657289
:104280003A0D0A0053746172747570206163746929
:10429000766174696F6E3A205945530D0A00537464
:1042A00061727475702061637469766174696F6E90
:1042B0003A204E4F0D0A00496E707574206D6F6480
:1042C000653A205553420D0A00496E707574206D91
:1042D0006F64653A2048616E646C650D0A00496E32
:1042E000707574206D6F64653A20454D472070727B
:1042F0006F706F7274696F6E616C0D0A00496E7039
:104300007574206D6F64653A20454D4720696E7461
:10431000656772616C0D0A00496E707574206D6F6F
:1043200064653A20454D4720464346530D0A0049EF
:104330006E707574206D6F64653A20454D47204658
:10434000434653204144560D0A00436F6E74726F0A
:104350006C206D6F64653A20506F736974696F6E7D
:104360000D0A00436F6E74726F6C206D6F64653A56
:104370002050574D0D0A00436F6E74726F6C206DA4
:104380006F64653A2043757272656E740D0A00435E
:104390006F6E74726F6C206D6F64653A20506F732E
:1043A0006974696F6E20616E642043757272656E08
:1043B000740D0A004162736F6C75746520656E63DD
:1043C0006F64657220706F736974696F6E3A2059FB
:1043D00045530D0A004162736F6C75746520656EFC
:1043E000636F64657220706F736974696F6E3A20D1
:1043F0004E4F0D0A004D6F746F722D48616E646CE4
:104400006520526174696F3A2025640D0A00536576
:104410006E736F72207265736F6C7574696F6E3A2C
:104420000D0A004D6561737572656D656E74204F80
:1044300066667365743A0D0A002564202D3E2025BA
:104440006C64004D6561737572656D656E74204DA9
:10445000756C7469706C6965723A0D0A0025642088
:104460002D3E2025660043757272656E74206C6F58
:104470006F6B7570207461626C653A0D0A00705B39
:10448000305D202D20705B325D3A2025662C202582
:10449000662C2025660A00705B335D202D20705B42
:1044A000355D3A2025662C2025662C2025660A00DD
:1044B000506F736974696F6E206C696D69742061E7
:1044C00063746976653A20256400506F7369746976
:1044D0006F6E206C696D6974206D6F746F7220252A
:1044E000643A20696E66202D3E20256C64202000F1
:1044F000737570202D3E20256C640D0A004D617887
:10450000207374657020706F7320616E64206E6517
:10451000673A2025642025640043757272656E74C5
:10452000206C696D69743A20256400454D472074FC
:1045300068726573686F6C6473205B30202D203166
:104540003032345D3A2025752C20257500454D47C5
:10455000206D61782076616C756573205B30202D4D
:1045600020343039365D3A20256C752C20256C7549
:104570000043616C6962726174696F6E20656E617F
:10458000626C65643A205945530D0A0043616C69B9
:1045900062726174696F6E20656E61626C65643A07
:1045A000204E4F0D0A00454D47206D6178207370F5
:1045B0006565643A20256400526573742074696DE2
:1045C000652064656C617920286D73293A20256621
:1045D00000526573742076656C6F6369747920632B
:1045E0006C6F7375726520287469636B732F7365C4
:1045F00063293A202566005265737420706F7369D1
:1046000074696F6E3A20256400526573742072617C
:1046100074696F3A2025660064656275673A2025E3
:104620006C64000D0A555341474520535441544989
:1046300053544943530D0A0044617465206F66204A
:104640006D61696E74656E616E63653A2025642FD5
:1046500025642F323025640D0A00506F7369746928
:104660006F6E7320686973746F6772616D20287450
:1046700069636B73293A0D0A0042696E2025642034
:104680005B25642D25645D3A20256C750D0A004379
:10469000757272656E7420686973746F6772616D8C
:1046A00020286D41293A0D0A005468726573686FBD
:1046B0006C64202564205B25642D25645D3A2025EB
:1046C0006C750D0A00454D4720616374697661740D
:1046D000696F6E7320636F756E7465723A20256C16
:1046E000752C20256C75005265737420706F73698A
:1046F00074696F6E206F6363757272656E63657344
:104700003A20256C7500416E676C6520746F74618A
:104710006C20646973706C6163656D656E742028CC
:104720007469636B73293A20256C7500546F74614A
:104730006C20706F776572206F6E2074696D6520D4
:1047400028736563293A20256C7500546F74616C79
:10475000207265737420706F736974696F6E207452
:10476000696D652028736563293A20256C75000002
:104770000000000000000000000000000000000039
:104780000000000000000000000000000000000029
:104790000000000000000000000000000000000019
:1047A0000000000000000000000000000000000009
:1054E0000000000000000000000031202D20446575
:1054F000766963652049443A0032202D20506F734D
:105500006974696F6E20504944205B502C20492CEF
:1055100020445D3A0033202D2043757272656E740D
:1055200020504944205B502C20492C20445D3A00F7
:1055300034202D2053746172747570204163746936
:10554000766174696F6E3A000000000035202D20EE
:10555000496E707574206D6F64653A00000000003C
:1055600000000000000000000000000000003620E5
:105570002D20436F6E74726F6C206D6F64653A00FE
:10558000000000000000000000000000000000001B
:10559000000000000037202D205265736F6C757479
:1055A000696F6E733A0038202D204D6561737572F6
:1055B000656D656E74204F6666736574733A003965
:1055C000202D204D756C7469706C696572733A009A
:1055D0003130202D20506F732E206C696D6974203E
:1055E0006163746976653A00000000003131202D56
:1055F00020506F732E206C696D697473205B696E27
:10560000662C207375705D3A003132202D204D617B
:1056100078207374657073205B6E65672C20706FE3
:10562000735D3A003133202D2043757272656E74BC
:10563000206C696D69743A003134202D20454D4746
:105640002063616C6962726174696F6E206F6E2095
:10565000737461727475703A000000000031352077
:105660002D20454D47207468726573686F6C6473B4
:105670003A003136202D20454D47206D6178207647
:10568000616C7565733A003137202D20454D4720F8
:105690006D61782073706565643A003138202D2083
:1056A0004162736F6C75746520656E636F646572BB
:1056B00020706F736974696F6E3A000000000031EA
:1056C00039202D204D6F746F722068616E646C6597
:1056D00020726174696F3A003230202D2050574D8E
:1056E0002072657363616C696E673A0000000000A8
:1056F0003231202D205265737420706F7369746984
:105700006F6E3A003232202D205265737420706F14
:10571000736974696F6E2074696D652064656C616E
:105720007920286D73293A003233202D2052657379
:10573000742076656C20636C6F73757265202874B5
:1057400069636B732F736563293A003234202D200F
:105750005265737420726174696F3A003235202D7E
:105760002043757272656E74206C6F6F6B75703A42
:10577000003236202D205265737420706F73697467
:10578000696F6E20666C61673A0000000000323776
:10579000202D20454D4720696E76657273696F6EC6
:1057A0003A00000000003238202D205265736574E5
:1057B00020636F756E746572733A000000000032EA
:1057C00039202D2044617465206F66206D61696EFB
:1057D00074656E616E6365205B44442F4D4D2F5997
:1057E000595D3A0030202D3E205573620A31202D3C
:1057F0003E2048616E646C650A32202D3E20454D86
:10580000472070726F706F7274696F6E616C0A33CB
:10581000202D3E20454D4720496E74656772616CAE
:105820000A34202D3E20454D4720464346530A3535
:10583000202D3E20454D4720464346532041647667
:10584000616E6365640A0030202D3E20506F7369DD
:1058500074696F6E0A31202D3E2050574D0A322058
:105860002D3E2043757272656E740A33202D3E20E2
:10587000506F736974696F6E20616E642043757236
:1058800072656E740A000030202D3E20446561630D
:10589000746976617465205B4E4F5D0A31202D3E40
:1058A000204163746976617465205B5945535D0AD4
:1058B000009005E0EBF0A3EAF0A3E9F0900B7BE0A9
:1058C00064FA7003026F5B9005E0E0FBA3E0FAA3CB
:1058D000E0F8AC02AD037BFF7A4079BF128ABC903E
:1058E0000B7474FFF0A37440F0A374C0F09005E053
:1058F000E0FBA3E0FAA3E0F912E0AC900B7474FFB4
:10590000F0A37440F0A374C3F09005E0E0FBA3E0C3
:10591000FAA3E0F912E0AC900B7474FFF0A37440AA
:10592000F0A374D6F09005E0E0FBA3E0FAA3E0F961
:1059300012E0AC900B7474FFF0A37440F0A374F306
:10594000F09005E0E0FBA3E0FAA3E0F912E0AC90F0
:105950000B7474FFF0A37440F0A374F9F09005E0A9
:10596000E0FBA3E0FAA3E0F912E0AC90064E74FF6E
:10597000F0A37441F0A37407F0900B7BE0FF900656
:1059800051E4F0A3EFF07B017A0579E512AA2390A8
:105990000B747401F0A37405F0A374E5F09005E0B6
:1059A000E0FBA3E0FAA3E0F912E0AC900B7474FF03
:1059B000F0A37441F0A37410F09005E0E0FBA3E0C5
:1059C000FAA3E0F912E0AC900BF5E0B4011E900BE5
:1059D0007474FFF0A37441F0A3742BF09005E0E021
:1059E000FBA3E0FAA3E0F912E0AC801C900B747406
:1059F000FFF0A37441F0A37430F09005E0E0FBA346
:105A0000E0FAA3E0F912E0AC90064E74FFF0A37444
:105A100041F0A37434F0900EE4E0FF900651E4F0FE
:105A2000A3EFF07B017A0579E512AA23900B747439
:105A300001F0A37405F0A374E5F09005E0E0FBA38A
:105A4000E0FAA3E0F912E0AC900B7474FFF0A374D9
:105A500040F0A374C0F09005E0E0FBA3E0FAA3E0FF
:105A6000F912E0AC900B7474FFF0A37441F0A374CE
:105A700044F09005E0E0FBA3E0FAA3E0F912E0AC0B
:105A8000900B7474FFF0A37441F0A37451F090056F
:105A9000E0E0FBA3E0FAA3E0F912E0AC900CC7E071
:105AA000B4021E900B7474FFF0A37441F0A37461F0
:105AB000F09005E0E0FBA3E0FAA3E0F912E0AC808F
:105AC00041900CC7E0B4011E900B7474FFF0A374F6
:105AD00041F0A3746FF09005E0E0FBA3E0FAA3E0CF
:105AE000F912E0AC801C900B7474FFF0A37441F0C9
:105AF000A37478F09005E0E0FBA3E0FAA3E0F912CC
:105B0000E0ACE49005E3F0A3F0C39005E4E0940278
:105B10009005E3E0648094804003025C6D900CC7C4
:105B2000E06402705F90064E74FFF0A37441F0A32E
:105B30007486F09005E3E0FEA3E07802C333CE3331
:105B4000CED8F92482F582740C3EF583E0A3E0A35D
:105B5000E0FFA3E0900651CFF0A3EFF07B017A05C0
:105B600079E512AA23900B747401F0A37405F0A3D5
:105B700074E5F09005E0E0FBA3E0FAA3E0F912E0A1
:105B8000AC025C5C900CC7E06401705E90064E74E1
:105B9000FFF0A37441F0A37486F09005E3E0FEA348
:105BA000E07802C333CE33CED8F9248AF582740C60
:105BB0003EF583E0A3E0A3E0FFA3E0900651CFF021
:105BC000A3EFF07B017A0579E512AA23900B747498
:105BD00001F0A37405F0A374E5F09005E0E0FBA3E9
:105BE000E0FAA3E0F912E0AC807290064E74FFF088
:105BF000A37441F0A37486F09005E3E0FAA3E0FB00
:105C0000AE027802C333CE33CED8F9247AF582744B
:105C10000C3EF583E0FCA3E0FDA3E0FEA3E0FF74EF
:105C2000AF2BF582740B3AF583E0F9F812881E90D9
:105C30000651EEF0A3EFF07B017A0579E512AA2375
:105C4000900B747401F0A37405F0A374E5F0900553
:105C5000E0E0FBA3E0FAA3E0F912E0AC9005E4E099
:105C600004F070069005E3E004F0025B09900B7409
:105C700074FFF0A37440F0A374C0F09005E0E0FB63
:105C8000A3E0FAA3E0F912E0AC900B7474FFF0A368
:105C90007440F0A374C0F09005E0E0FBA3E0FAA329
:105CA000E0F912E0AC90064E74FFF0A37441F0A34B
:105CB000748AF07B017A0579E512AA23900C92E0B0
:105CC00054036019900B7474FFF0A37441F0A37433
:105CD0009AF07B017A0579E512E0AC8017900B749D
:105CE00074FFF0A37441F0A374A0F07B017A0579EE
:105CF000E512E0AC900B747401F0A37405F0A3748A
:105D0000E5F09005E0E0FBA3E0FAA3E0F912E0ACD7
:105D1000900B7474FFF0A37441F0A374A5F0900588
:105D2000E0E0FBA3E0FAA3E0F912E0AC900B74749E
:105D3000FFF0A37441F0A374BBF09005E0E0FBA377
:105D4000E0FAA3E0F912E0ACE49005E3F0A3F0C3BD
:105D50009005E4E094039005E3E0648094804003C0
:105D6000025E1590064E74FFF0A37441F0A374CB4D
:105D7000F09005E3E0FCA3E0FD2401FEE43C900686
:105D800051F0A3CEF0EDAE047802C333CE33CED8BB
:105D9000F924ACF582740E3EF583E0FCA3E0FDA38C
:105DA000E0FEA3E0FF9005E3E0FAA3E024AFF58274
:105DB000740B3AF583E0F9F812881E900653EEF062
:105DC000A3EFF07B017A0579E512AA23900B747496
:105DD00001F0A37405F0A374E5F09005E0E0FBA3E7
:105DE000E0FAA3E0F912E0AC900B7474FFF0A37436
:105DF00040F0A374C0F09005E0E0FBA3E0FAA3E05C
:105E0000F912E0AC9005E4E004F070069005E3E0E0
:105E100004F0025D4F90064E74FFF0A37441F0A3AE
:105E200074D4F0900DD4E0FCA3E0FDA3E0FEA3E069
:105E3000FF90065112887F7B017A0579E512AA232B
:105E4000900B747401F0A37405F0A374E5F0900551
:105E5000E0E0FBA3E0FAA3E0F912E0AC900B74746D
:105E6000FFF0A37440F0A374C0F09005E0E0FBA342
:105E7000E0FAA3E0F912E0AC90064E74FFF0A374D0
:105E800041F0A374EEF0900E93E0FCA3E0FDA3E0DC
:105E9000FEA3E0FF90065112887F7B017A0579E529
:105EA00012AA23900B747401F0A37405F0A374E597
:105EB000F09005E0E0FBA3E0FAA3E0F912E0AC907B
:105EC0000B7474FFF0A37440F0A374C0F09005E06D
:105ED000E0FBA3E0FAA3E0F912E0AC90064E74FFF9
:105EE000F0A37442F0A37412F0900EB8E0FCA3E0AB
:105EF000FDA3E0FEA3E0FF90065112887F7B017AAC
:105F00000579E512AA23900B747401F0A37405F0CF
:105F1000A374E5F09005E0E0FBA3E0FAA3E0F9123A
:105F2000E0AC900B7474FFF0A37440F0A374C0F065
:105F30009005E0E0FBA3E0FAA3E0F912E0AC900BDF
:105F40007474FFF0A37442F0A37424F09005E0E0B1
:105F5000FBA3E0FAA3E0F912E0AC900B7474FFF03D
:105F6000A37442F0A3743AF09005E0E0FBA3E0FADA
:105F7000A3E0F912E0AC900BAEE0640370030260A2
:105F80008390064E74FFF0A37442F0A3744CF0901B
:105F90000B7CE0FCA3E0FDA3E0FEA3E0FFEC12839A
:105FA00066E4FBFA79807847128250900651128895
:105FB0007F7B017A0579E512AA23900B747401F0B6
:105FC000A37405F0A374E5F09005E0E0FBA3E0FA0C
:105FD000A3E0F912E0AC90064E74FFF0A37442F017
:105FE000A37456F0900B80E0FCA3E0FDA3E0FEA3B9
:105FF000E0FFEC128366E4FBFA7980784712825066
:1060000090065112887F7B017A0579E512AA2390C8
:106010000B747401F0A37405F0A374E5F09005E02F
:10602000E0FBA3E0FAA3E0F912E0AC90064E74FFA7
:10603000F0A37442F0A37460F0900B84E0FCA3E042
:10604000FDA3E0FEA3E0FFEC128366E4FBFA798097
:10605000784712825090065112887F7B017A057929
:10606000E512AA23900B747401F0A37405F0A374D5
:10607000E5F09005E0E0FBA3E0FAA3E0F912E0AC64
:1060800002618290064E74FFF0A37442F0A3744C38
:10609000F0900B94E0FCA3E0FDA3E0FEA3E0FFEC96
:1060A000128366E4FBFA7980784712825090065199
:1060B00012887F7B017A0579E512AA23900B74740C
:1060C00001F0A37405F0A374E5F09005E0E0FBA3F4
:1060D000E0FAA3E0F912E0AC90064E74FFF0A3746E
:1060E00042F0A37456F0900B98E0FCA3E0FDA3E00F
:1060F000FEA3E0FFEC128366E4FBFA798078471296
:10610000825090065112887F7B017A0579E512AAA8
:1061100023900B747401F0A37405F0A374E5F09060
:1061200005E0E0FBA3E0FAA3E0F912E0AC90064E34
:1061300074FFF0A37442F0A37460F0900B9CE0FC39
:10614000A3E0FDA3E0FEA3E0FFEC128366E4FBFA0C
:106150007980784712825090065112887F7B017AAD
:106160000579E512AA23900B747401F0A37405F06D
:10617000A374E5F09005E0E0FBA3E0FAA3E0F912D8
:10618000E0AC900B7474FFF0A37442F0A3746AF057
:106190009005E0E0FBA3E0FAA3E0F912E0AC900B7D
:1061A000AEE0640370030262AB90064E74FFF0A38E
:1061B0007442F0A3744CF0900B88E0FCA3E0FDA3C4
:1061C000E0FEA3E0FFEC128366E4FBFA79807847F7
:1061D00012825090065112887F7B017A0579E51270
:1061E000AA23900B747401F0A37405F0A374E5F076
:1061F0009005E0E0FBA3E0FAA3E0F912E0AC900622
:106200004E74FFF0A37442F0A37456F0900B8CE030
:10621000FCA3E0FDA3E0FEA3E0FFEC128366E4FB39
:10622000FA7980784712825090065112887F7B015C
:106230007A0579E512AA23900B747401F0A3740512
:10624000F0A374E5F09005E0E0FBA3E0FAA3E0F929
:1062500012E0AC90064E74FFF0A37442F0A3746099
:10626000F0900B90E0FCA3E0FDA3E0FEA3E0FFECC8
:10627000128366E4FBFA79807847128250900651C7
:1062800012887F7B017A0579E512AA23900B74743A
:1062900001F0A37405F0A374E5F09005E0E0FBA322
:1062A000E0FAA3E0F912E0AC0263AA90064E74FF94
:1062B000F0A37442F0A3744CF0900BA0E0FCA3E0B8
:1062C000FDA3E0FEA3E0FFEC128366E4FBFA798015
:1062D000784712825090065112887F7B017A0579A7
:1062E000E512AA23900B747401F0A37405F0A37453
:1062F000E5F09005E0E0FBA3E0FAA3E0F912E0ACE2
:1063000090064E74FFF0A37442F0A37456F0900B05
:10631000A4E0FCA3E0FDA3E0FEA3E0FFEC12836693
:10632000E4FBFA7980784712825090065112887FF8
:106330007B017A0579E512AA23900B747401F0A30E
:106340007405F0A374E5F09005E0E0FBA3E0FAA388
:10635000E0F912E0AC90064E74FFF0A37442F0A393
:106360007460F0900BA8E0FCA3E0FDA3E0FEA3E0C6
:10637000FFEC128366E4FBFA798078471282509032
:10638000065112887F7B017A0579E512AA23900BCA
:10639000747401F0A37405F0A374E5F09005E0E0D7
:1063A000FBA3E0FAA3E0F912E0AC900B7474FFF0E9
:1063B000A37440F0A374C0F09005E0E0FBA3E0FA02
:1063C000A3E0F912E0AC900BACE0B4031E900B74A8
:1063D00074FFF0A37442F0A37484F09005E0E0FB36
:1063E000A3E0FAA3E0F912E0AC801C900B7474FFF8
:1063F000F0A37442F0A3749EF09005E0E0FBA3E0EC
:10640000FAA3E0F912E0AC900BADE0146038146030
:106410005314606E1470030264A01470030264BE0F
:10642000240560030264DA900B7474FFF0A37442D5
:10643000F0A374B7F09005E0E0FBA3E0FAA3E0F965
:1064400012E0AC0264DA900B7474FFF0A37442F0B3
:10645000A374C9F09005E0E0FBA3E0FAA3E0F91211
:10646000E0AC8076900B7474FFF0A37442F0A374D8
:10647000DEF09005E0E0FBA3E0FAA3E0F912E0AC67
:106480008058900B7474FFF0A37442F0A374FDF075
:106490009005E0E0FBA3E0FAA3E0F912E0AC803A5B
:1064A000900B7474FFF0A37443F0A37418F090057C
:1064B000E0E0FBA3E0FAA3E0F912E0AC801C900B53
:1064C0007474FFF0A37443F0A3742FF09005E0E020
:1064D000FBA3E0FAA3E0F912E0AC900BAEE014608D
:1064E0002814604314605E24037076900B7474FF6C
:1064F000F0A37443F0A3744AF09005E0E0FBA3E03E
:10650000FAA3E0F912E0AC8058900B7474FFF0A38A
:106510007443F0A37463F09005E0E0FBA3E0FAA3FA
:10652000E0F912E0AC803A900B7474FFF0A374436E
:10653000F0A37477F09005E0E0FBA3E0FAA3E0F9A4
:1065400012E0AC801C900B7474FFF0A37443F0A3B2
:10655000748FF09005E0E0FBA3E0FAA3E0F912E00D
:10656000AC900BF3E0601E900B7474FFF0A37443C7
:10657000F0A374B4F09005E0E0FBA3E0FAA3E0F927
:1065800012E0AC801C900B7474FFF0A37443F0A372
:1065900074D5F09005E0E0FBA3E0FAA3E0F912E087
:1065A000AC90064E74FFF0A37443F0A374F5F09022
:1065B0000BF4E0FE3395E0900651F0A3CEF07B01A2
:1065C0007A0579E512AA23900B747401F0A374057F
:1065D000F0A374E5F09005E0E0FBA3E0FAA3E0F996
:1065E00012E0AC900B7474FFF0A37444F0A3740E2B
:1065F000F09005E0E0FBA3E0FAA3E0F912E0ACE4E0
:106600009005E3F0A3F0C39005E4E094039005E364
:10661000E06480948040030266A290064E74FFF00E
:10662000A37441F0A374CBF09005E3E0FCA3E0FD7C
:106630002401FEE43C900651F0A3CEF074AF2DF59A
:1066400082740B3CF583E0FF900653E4F0A3EFF077
:106650007B017A0579E512AA23900B747401F0A3EB
:106660007405F0A374E5F09005E0E0FBA3E0FAA365
:10667000E0F912E0AC900B7474FFF0A37440F0A347
:1066800074C0F09005E0E0FBA3E0FAA3E0F912E0AB
:10669000AC9005E4E004F070069005E3E004F0023D
:1066A0006606900B7474FFF0A37444F0A37423F097
:1066B0009005E0E0FBA3E0FAA3E0F912E0ACE4907F
:1066C00005E3F0A3F0C39005E4E094039005E3E054
:1066D00064809480400302678990064E74FFF0A3A3
:1066E0007444F0A37439F09005E3E0FCA3E0FD24CA
:1066F00001FEE43C900651F0A3CEF0EDAE0478022A
:10670000C333CE33CED8F924B2F582740B3EF58371
:10671000E0FCA3E0FDA3E0FEA3E0FF9005E3E0FAC8
:10672000A3E024AFF582740B3AF583E0F9F8128800
:106730001E90065312887F7B017A0579E512AA2301
:10674000900B747401F0A37405F0A374E5F0900548
:10675000E0E0FBA3E0FAA3E0F912E0AC900B747464
:10676000FFF0A37440F0A374C0F09005E0E0FBA339
:10677000E0FAA3E0F912E0AC9005E4E004F0700662
:106780009005E3E004F00266C5900B7474FFF0A37B
:106790007444F0A37443F09005E0E0FBA3E0FAA397
:1067A000E0F912E0ACE49005E3F0A3F0C39005E457
:1067B000E094039005E3E064809480400302685A0B
:1067C00090064E74FFF0A37444F0A3745DF090053E
:1067D000E3E0FCA3E0FD2401FEE43C900651F0A3BD
:1067E000CEF0EDAE047802C333CE33CED8F924BE5A
:1067F000F582740B3EF583E0FCA3E0FDA3E0FEA36D
:10680000E0FF90065312887F7B017A0579E512AA92
:1068100023900B747401F0A37405F0A374E5F09059
:1068200005E0E0FBA3E0FAA3E0F912E0AC900B7402
:1068300074FFF0A37440F0A374C0F09005E0E0FB97
:10684000A3E0FAA3E0F912E0AC9005E4E004F070F4
:10685000069005E3E004F00267AC900B7474FFF05F
:10686000A37444F0A37466F09005E0E0FBA3E0FAA3
:10687000A3E0F912E0AC90064E74FFF0A37444F06C
:10688000A3747EF0900BF6E0FCA3E0FDA3E0FEA372
:10689000E0FF90065112887F900BFAE0FCA3E0FD28
:1068A000A3E0FEA3E0FF90065512887F900BFEE068
:1068B000FCA3E0FDA3E0FEA3E0FF90065912887F51
:1068C0007B017A0579E512AA23900B747401F0A379
:1068D0007405F0A374E5F09005E0E0FBA3E0FAA3F3
:1068E000E0F912E0AC90064E74FFF0A37444F0A3FC
:1068F0007497F0900C02E0FCA3E0FDA3E0FEA3E09F
:10690000FF90065112887F900C06E0FCA3E0FDA3E7
:10691000E0FEA3E0FF90065512887F900C0AE0FC91
:10692000A3E0FDA3E0FEA3E0FF90065912887F7B61
:10693000017A0579E512AA23900B747401F0A3740F
:1069400005F0A374E5F09005E0E0FBA3E0FAA3E016
:10695000F912E0AC900B7474FFF0A37440F0A374D0
:10696000C0F09005E0E0FBA3E0FAA3E0F912E0AC90
:1069700090064E74FFF0A37444F0A374B0F0900C32
:10698000E3E0FF900651E4F0A3EFF07B017A057994
:10699000E512AA23900B747401F0A37405F0A3749C
:1069A000E5F09005E0E0FBA3E0FAA3E0F912E0AC2B
:1069B000900B7474FFF0A37440F0A374C0F09005C2
:1069C000E0E0FBA3E0FAA3E0F912E0ACE49005E319
:1069D000F0A3F0C39005E4E094019005E3E0648047
:1069E00094804003026AEB90064E74FFF0A3744457
:1069F000F0A374CAF09005E3E0FCA3E0FD2401FEDF
:106A0000E43C900651F0A3CEF0EDAE047802C3331F
:106A1000CE33CED8F924E4F582740C3EF583E0FC45
:106A2000A3E0FDA3E0FEA3E0FF9005E3E0FAA3E00E
:106A300024C8F582740C3AF583E0F9F812881E90A8
:106A4000065312887F7B017A0579E512AA23900B01
:106A5000747401F0A37405F0A374E5F09005E0E010
:106A6000FBA3E0FAA3E0F912E0AC90064E74FFF04D
:106A7000A37444F0A374F0F09005E3E0FAA3E0FB04
:106A8000AE027802C333CE33CED8F924ECF582744B
:106A90000C3EF583E0FCA3E0FDA3E0FEA3E0FF7461
:106AA000C82BF582740C3AF583E0F9F812881E9031
:106AB000065112887F7B017A0579E512AA23900B93
:106AC000747401F0A37405F0A374E5F09005E0E0A0
:106AD000FBA3E0FAA3E0F912E0AC9005E4E004F0D7
:106AE00070069005E3E004F00269D390064E74FF4F
:106AF000F0A37444F0A374FDF0900CF4E0A3E0A3C1
:106B0000E0FFA3E0900651CFF0A3EFF0900CF8E087
:106B1000A3E0A3E0FFA3E0900653CFF0A3EFF07B48
:106B2000017A0579E512AA23900B747401F0A3741D
:106B300005F0A374E5F09005E0E0FBA3E0FAA3E024
:106B4000F912E0AC900B7474FFF0A37440F0A374DE
:106B5000C0F09005E0E0FBA3E0FAA3E0F912E0AC9E
:106B600090064E74FFF0A37445F0A37419F0900CD6
:106B7000FCE0FFA3E0900651CFF0A3EFF07B017A99
:106B80000579E512AA23900B747401F0A37405F043
:106B9000A374E5F09005E0E0FBA3E0FAA3E0F912AE
:106BA000E0AC900B7474FFF0A37440F0A374C0F0D9
:106BB0009005E0E0FBA3E0FAA3E0F912E0AC900658
:106BC0004E74FFF0A37445F0A3742BF0900CFEE01C
:106BD000FFA3E0900651CFF0A3EFF0900D00E0FF8F
:106BE000A3E0900653CFF0A3EFF07B017A0579E59F
:106BF00012AA23900B747401F0A37405F0A374E53A
:106C0000F09005E0E0FBA3E0FAA3E0F912E0AC901D
:106C10000B7474FFF0A37440F0A374C0F09005E00F
:106C2000E0FBA3E0FAA3E0F912E0AC90064E74FF9B
:106C3000F0A37445F0A3744DF0900D03E0FCA3E0C5
:106C4000FDA3E0FEA3E0FF90065112887F900D07A0
:106C5000E0FCA3E0FDA3E0FEA3E0FF900655128850
:106C60007F7B017A0579E512AA23900B747401F0F9
:106C7000A37405F0A374E5F09005E0E0FBA3E0FA4F
:106C8000A3E0F912E0AC900B7474FFF0A37440F031
:106C9000A374C0F09005E0E0FBA3E0FAA3E0F912D2
:106CA000E0AC900D02E0601E900B7474FFF0A374D2
:106CB00045F0A37471F09005E0E0FBA3E0FAA3E0D7
:106CC000F912E0AC801C900B7474FFF0A37445F0D3
:106CD000A3748CF09005E0E0FBA3E0FAA3E0F912C6
:106CE000E0AC90064E74FFF0A37445F0A374A6F0D8
:106CF000900D0BE0FF900651E4F0A3EFF07B017ADA
:106D00000579E512AA23900B747401F0A37405F0C1
:106D1000A374E5F09005E0E0FBA3E0FAA3E0F9122C
:106D2000E0AC900B7474FFF0A37440F0A374C0F057
:106D30009005E0E0FBA3E0FAA3E0F912E0AC9006D6
:106D40004E74FFF0A37445F0A374B8F0900D2DE0DD
:106D5000FCA3E0FDA3E0FEA3E0FF90065112887FB4
:106D60007B017A0579E512AA23900B747401F0A3D4
:106D70007405F0A374E5F09005E0E0FBA3E0FAA34E
:106D8000E0F912E0AC900B7474FFF0A37440F0A330
:106D900074C0F09005E0E0FBA3E0FAA3E0F912E094
:106DA000AC90064E74FFF0A37445F0A374D1F0E4E8
:106DB000FFFE7D7A7C44900D31E0F8A3E0F9A3E07A
:106DC000FAA3E0FB12814790065112887F7B017A7B
:106DD0000579E512AA23900B747401F0A37405F0F1
:106DE000A374E5F09005E0E0FBA3E0FAA3E0F9125C
:106DF000E0AC900B7474FFF0A37440F0A374C0F087
:106E00009005E0E0FBA3E0FAA3E0F912E0AC900605
:106E10004E74FFF0A37445F0A374F7F0900D29E0D1
:106E2000FCA3E0FDA3E0FEA3E0FF900BAFE0F9F8C8
:106E300012881E900651EEF0A3EFF07B017A0579DF
:106E4000E512AA23900B747401F0A37405F0A374E7
:106E5000E5F09005E0E0FBA3E0FAA3E0F912E0AC76
:106E6000900B7474FFF0A37440F0A374C0F090050D
:106E7000E0E0FBA3E0FAA3E0F912E0AC90064E7468
:106E8000FFF0A37446F0A37409F0900D35E0FCA365
:106E9000E0FDA3E0FEA3E0FF90065112887F7B0196
:106EA0007A0579E512AA23900B747401F0A3740596
:106EB000F0A374E5F09005E0E0FBA3E0FAA3E0F9AD
:106EC00012E0AC900B7474FFF0A37440F0A374C094
:106ED000F09005E0E0FBA3E0FAA3E0F912E0AC904B
:106EE000064E74FFF0A37446F0A37418F0900DD012
:106EF000E0F8A3E0F9A3E0FAA3E0FB900E97E0FC32
:106F0000A3E0FDA3E0FEA3E0C39BFFEE9AFEED9994
:106F1000FDEC98FC90065112887F7B017A0579E59B
:106F200012AA23900B747401F0A37405F0A374E506
:106F3000F09005E0E0FBA3E0FAA3E0F912E0AC90EA
:106F40000B7474FFF0A37440F0A374C0F09005E0DC
:106F5000E0FBA3E0FAA3E0F912E0AC22E4F526F5A9
:106F600025F524F523900B7CE0FCA3E0FDA3E0FED7
:106F7000A3E0F5428E418D408C3FA3E0FCA3E0FDF1
:106F8000A3E0FEA3E0F5468E458D448C43A3E0FCD0
:106F9000A3E0FDA3E0FEA3E0F54A8E498D488C47AF
:106FA000A3E0FCA3E0FDA3E0FEA3E0F54E8E4D8D33
:106FB0004C8C4BA3E0FCA3E0FDA3E0FEA3E0F55264
:106FC0008E518D508C4FA3E0FCA3E0FDA3E0FEA307
:106FD000E0F5568E558D548C53A3E0FCA3E0FDA341
:106FE000E0FEA3E0F55A8E598D588C57A3E0FCA320
:106FF000E0FDA3E0FEA3E0F55E8E5D8D5C8C5BA3FF
:10700000E0FCA3E0FDA3E0FEA3E0F5628E618D60ED
:107010008C5FA3E0FCA3E0FDA3E0FEA3E0F5668E99
:10702000658D648C63A3E0FCA3E0FDA3E0FEA3E018
:10703000F56A8E698D688C67A3E0FCA3E0FDA3E090
:10704000FEA3E0F56E8E6D8D6C8C6B900BE5E0FE13
:10705000A3E0FFFBAA06E4900EC3E0FCA3E0FDA3BF
:10706000E0FEA3E0C39BF53AEE9AF539ED9400F506
:1070700038EC9400F537900BE7E0FEA3E0FFFBAAA5
:1070800006E4900EC7E0FCA3E0FDA3E0FEA3E0C38E
:107090009BF53EEE9AF53DED9400F53CEC9400F541
:1070A0003B900BADE024FE700302721114700302DA
:1070B000726F1470030273641470030274C72404A3
:1070C000600302765E900BF3E06024A3E0FF33954B
:1070D000E0FEFDFC900EB4E0F8A3E0F9A3E0FAA313
:1070E000E0FB1286AC8F368E358D348C3380249045
:1070F0000BF4E0FF3395E0FEFDFC900EB0E0F8A34A
:10710000E0F9A3E0FAA3E0FB1286AC8F368E358D52
:10711000348C33900C7AE0F8A3E0F9A3E0FAA3E012
:10712000FBC3E5369BFFE5359AFEE53499FDE53373
:1071300098FC900BDBE0F8A3E0F9A3E0FAA3E0FBF6
:10714000C31287E45044E4FFFEFDFC900BDBE0F843
:10715000A3E0A3E0A3E0C31287E4602E900C7AE0E2
:10716000FCA3E0FDA3E0FEA3E0FF900BDBE0F8A3AF
:10717000E0A3E0A3E0EF2BFFEE3AFEED39FDEC38A3
:10718000FC900C7A12887F02765E900C7AE0F8A36D
:10719000E0F9A3E0FAA3E0FBC3E5369BFFE5359AEF
:1071A000FEE53499FDE53398FC900BDFE0F8A3E0B1
:1071B000F9A3E0FAA3E0FBD31287E44043E4FFFE27
:1071C000FDFC900BDFE0F8A3E0A3E0A3E01287E46E
:1071D000602E900C7AE0FCA3E0FDA3E0FEA3E0FFAC
:1071E000900BDFE0F8A3E0A3E0A3E0EF2BFFEE3A83
:1071F000FEED39FDEC38FC900C7A12887F02765E49
:10720000AF36AE35AD34AC33900C7A12887F02764F
:107210005EE4FFFEFDFCAB3AAA39A938A837D312C9
:1072200087E4403D900CECE0FCA3E0FDA3E0FEA36E
:10723000E0FFA8371286ACC006C007900BE5E0FE61
:10724000A3E0FFC3E49FFF74049EFEAB07FAE4F9DA
:10725000F8D007D00612E5DF900C7A12887F02760C
:107260005EE4FFFEFDFC900C7A12887F02765E9051
:107270000DD8E0FCA3E0FDA3E0FEA3E0FF900C7AB4
:1072800012887FE4FFFEFDFCAB3AAA39A938A83783
:10729000D31287E44056900D0BE0FFE4FCFDFEA8FE
:1072A000371286ACE47B02FAF9F81286ACC006C04D
:1072B00007900BE5E0FEA3E0FFC3E49FFF74049E8C
:1072C000FEAB07FAE4F9F8D007D00612E5DF900D1F
:1072D000D8E0F8A3E0F9A3E0FAA3E02FFFEA3EFE2E
:1072E000E93DFDE83CFC900C7A12887FE4FFFEFD4E
:1072F000FCAB3EAA3DA93CA83BD31287E450030255
:10730000765E900D0BE0FFE4FCFDFEA83B1286AC20
:10731000E47B02FAF9F81286ACC006C007900BE7CE
:10732000E0FEA3E0FFC3E49FFF74049EFEAB07FAF8
:10733000E4F9F8D007D00612E5DFA804A905AA06EB
:10734000AB07900DD8E0FCA3E0FDA3E0FEA3E0C3F3
:107350009BFFEE9AFEED99FDEC98FC900C7A12885A
:107360007F02765E900DD8E0FCA3E0FDA3E0FEA3D3
:10737000E0FF900C7A12887F900F7DE01460481433
:1073800070030274412402600302765EE4FFFEFD96
:10739000FCAB3AAA39A938A837D31287E440099040
:1073A0000F7D7401F002765EE4FFFEFDFCAB3EAAA9
:1073B0003DA93CA83BD31287E4500302765E900FB0
:1073C0007D7402F002765EE4FFFEFDFCAB3AAA3962
:1073D000A938A837C31287E45008E4900F7DF00263
:1073E000765E900D0BE0FFE4FCFDFEAB3AAA39A9F6
:1073F00038A8371286ACE47B02FAF9F81286ACC0E2
:1074000006C007900BE5E0FEA3E0FFC3E49FFF7416
:10741000049EFEAB07FAE4F9F8D007D00612E5DFC8
:10742000900DD8E0F8A3E0F9A3E0FAA3E02FFFEA7B
:107430003EFEE93DFDE83CFC900C7A12887F027626
:107440005EE4FFFEFDFCAB3EAA3DA93CA83BC31297
:1074500087E45008E4900F7DF002765E900D0BE01B
:10746000FFE4FCFDFEAB3EAA3DA93CA83B1286AC66
:10747000E47B02FAF9F81286ACC006C007900BE76D
:10748000E0FEA3E0FFC3E49FFF74049EFEAB07FA97
:10749000E4F9F8D007D00612E5DFA804A905AA068A
:1074A000AB07900DD8E0FCA3E0FDA3E0FEA3E0C392
:1074B0009BFFEE9AFEED99FDEC98FC900C7A1288F9
:1074C0007F02765E02765E900DD8E0FCA3E0FDA31D
:1074D000E0FEA3E0FF900C7A12887F900F7DE0140D
:1074E00060481470030275C32402600302765EE4F0
:1074F000FFFEFDFCAB3AAA39A938A837D31287E4BE
:107500004009900F7D7401F002765EE4FFFEFDFC01
:10751000AB3EAA3DA93CA83BD31287E450030276B8
:107520005E900F7D7402F002765EE4FFFEFDFCAB20
:107530003AAA39A938A837C31287E4501BE4FFFEE2
:10754000FDFCAB3EAA3DA93CA83BC31287E4500812
:10755000E4900F7DF002765EE4FFFEFDFCAB3AAAFC
:1075600039A938A837D31287E4500302765E900D0C
:107570000BE0FFE4FCFDFEA8371286AC780212880F
:1075800032C006C007900BE5E0FEA3E0FFC3E49F16
:10759000FF74049EFEAB07FAE4F9F8D007D0061298
:1075A000E5DF900DD8E0F8A3E0F9A3E0FAA3E02F1F
:1075B000FFEA3EFEE93DFDE83CFC900C7A12887F34
:1075C00002765EE4FFFEFDFCAB3AAA39A938A83783
:1075D000C31287E4501AE4FFFEFDFCAB3EAA3DA9AE
:1075E0003CA83BC31287E45007E4900F7DF0806E07
:1075F000E4FFFEFDFCAB3EAA3DA93CA83BD31287AD
:10760000E4405B900BF2E0FFE4FCFDFEA83B128639
:10761000AC7802128832C006C007900BE7E0FEA3E8
:10762000E0FFC3E49FFF74049EFEAB07FAE4F9F8A1
:10763000D007D00612E5DFA804A905AA06AB07907B
:107640000DD8E0FCA3E0FDA3E0FEA3E0C39BFFEEAA
:107650009AFEED99FDEC98FC900C7A12887F900BC5
:10766000CAE0606AA3E0FCA3E0FDA3E0FEA3E0FFA4
:10767000900C7AE0F8A3E0F9A3E0FAA3E0FBC312D0
:1076800087E45014900BCBE0FCA3E0FDA3E0FEA345
:10769000E0FF900C7A12887F900BD3E0FCA3E0FD12
:1076A000A3E0FEA3E0FF900C7AE0F8A3E0F9A3E0EA
:1076B000FAA3E0FBD31287E44014900BD3E0FCA3C1
:1076C000E0FDA3E0FEA3E0FF900C7A12887F900C0F
:1076D00024E064016003027787900EE3E0B40114B4
:1076E000900E8FE0FCA3E0FDA3E0FEA3E0FF900C72
:1076F0007A12887F900D93E064016003027787FF20
:10770000FEFDFCAB3EAA3DA93CA83BD31287E4405A
:107710005D900D29E0FCA3E0FDA3E0FEA3E0FFA83F
:107720003B1286ACC006C007900BE7E0FEA3E0FF6B
:10773000C3E49FFF74049EFEAB07FAE4F9F8D00798
:10774000D00612E5DFA804A905AA06AB07900D290B
:10775000E0FCA3E0FDA3E0FEA3E0C39BFFEE9AFEE6
:10776000ED99FDEC98FC900C7A12887F8019900DB1
:1077700029E0FCA3E0FDA3E0FEA3E0FF900C7A1259
:10778000887FE4900D93F0900BAEE07003027B7263
:10779000147003027F2C147003027D001460030236
:1077A0007F9A900EACE0F8A3E0F9A3E0FAA3E0FB27
:1077B000900C7AE0FCA3E0FDA3E0FEA3E0C39BF500
:1077C0002AEE9AF529ED99F528EC98F527900F6D9A
:1077D000E0FCA3E0FDA3E0FEA3E0252AFFEE3529AF
:1077E000FEED3528FDEC3527FC900F6D12887F7F6C
:1077F000807EF07DFA7C02900F6DE0F8A3E0F9A3A3
:10780000E0FAA3E0FBD31287E440107F807EF07D96
:10781000FA7C02900F6D12887F802A7F807E0F7D18
:10782000057CFD900F6DE0F8A3E0F9A3E0FAA3E07A
:10783000FBC31287E4500E7F807E0F7D057CFD9098
:107840000F6D12887FE4F532F531F530F52FFFFE2C
:10785000FDFCAB5AAA59A958A857C31287E4602661
:10786000AF2AAE29AD28AC27A8571286AC781012E3
:10787000881EE5322FF532E5313EF531E5303DF534
:1078800030E52F3CF52FE4FFFEFDFCAB5EAA5DA9C1
:107890005CA85BC31287E4602C900F6DE0FCA3E052
:1078A000FDA3E0FEA3E0FFA85B1286AC781012886F
:1078B0001EE5322FF532E5313EF531E5303DF5304C
:1078C000E52F3CF52FE4FFFEFDFCAB62AA61A96049
:1078D000A85FC31287E46043900F75E0F8A3E0F956
:1078E000A3E0FAA3E0FBC3E52A9BFFE5299AFEE5A6
:1078F0002899FDE52798FCAB62AA61A960A85F12F0
:1079000086AC781012881EE5322FF532E5313EF54F
:1079100031E5303DF530E52F3CF52FAF2AAE29ADEE
:1079200028AC27900F7512887FE4FFFEFDFCAB3278
:10793000AA31A930A82FC31287E44004D2118002D3
:10794000C211900BE3E0FEA3E0FFEE3395E0FDFCF7
:10795000AB32AA31A930A82FD31287E44016900B7E
:10796000E3E0FEA3E0FFEE3395E08F328E31F53099
:10797000F52F803C900BE3E0FEA3E0FFC3E49FFF04
:10798000E49EFE3395E0FDFCAB32AA31A930A82F6E
:10799000C31287E4501A900BE3E0FEA3E0FFC3E4B8
:1079A0009FFFE49EFE3395E08F328E31F530F52F48
:1079B000900EB8E0F8A3E0F9A3E0FAA3E0FBC3E57A
:1079C000329BF52EE5319AF52DE53099F52CE52F12
:1079D00098F52B900F71E0FCA3E0FDA3E0FEA3E07F
:1079E000252EFFEE352DFEED352CFDEC352BFC90D4
:1079F0000F7112887F7FA07E867D017C00900F71C1
:107A0000E0F8A3E0F9A3E0FAA3E0FBD31287E44097
:107A1000107FA07E867D017C00900F7112887F8090
:107A20002A7F607E797DFE7CFF900F71E0F8A3E0F5
:107A3000F9A3E0FAA3E0FBC31287E4500E7F607E57
:107A4000797DFE7CFF900F7112887FE4F526F52585
:107A5000F524F523FFFEFDFCAB66AA65A964A863C7
:107A6000C31287E46026AF2EAE2DAD2CAC2BA863DD
:107A70001286AC781012881EE5262FF526E5253EE5
:107A8000F525E5243DF524E5233CF523E4FFFEFD43
:107A9000FCAB6AAA69A968A867C31287E4602C9046
:107AA0000F71E0FCA3E0FDA3E0FEA3E0FFA86712D6
:107AB00086AC781012881EE5262FF526E5253EF5C2
:107AC00025E5243DF524E5233CF523E4FFFEFDFCFC
:107AD000AB6EAA6DA96CA86BC31287E46043900FCC
:107AE00079E0F8A3E0F9A3E0FAA3E0FBC3E52E9B5D
:107AF000FFE52D9AFEE52C99FDE52B98FCAB6EAACF
:107B00006DA96CA86B1286AC781012881EE5262F22
:107B1000F526E5253EF525E5243DF524E5233CF550
:107B20002374FF7F9CFEFDFCAB26AA25A924A82375
:107B3000C31287E4500D74FF75269CF525F524F5D6
:107B400023801EE47F64FEFDFCAB26AA25A924A8A1
:107B500023D31287E4400AE4752664F525F524F55D
:107B600023AF2EAE2DAD2CAC2B900F7912887F0257
:107B70007F9A900EACE0F8A3E0F9A3E0FAA3E0FB53
:107B8000900C7AE0FCA3E0FDA3E0FEA3E0C39BF52C
:107B90002AEE9AF529ED99F528EC98F527900F6DC6
:107BA000E0FCA3E0FDA3E0FEA3E0252AFFEE3529DB
:107BB000FEED3528FDEC3527FC900F6D12887FE433
:107BC0007FE87E03FDFC900F6DE0F8A3E0F9A3E0F1
:107BD000FAA3E0FBD31287E4400FE47FE87E03FDC5
:107BE000FC900F6D12887F802A7F187EFC7DFF7CC1
:107BF000FF900F6DE0F8A3E0F9A3E0FAA3E0FBC368
:107C00001287E4500E7F187EFC7DFF7CFF900F6D85
:107C100012887FE4FFFEFDFCAB42AA41A940A83FC9
:107C2000C31287E4601AAF2AAE29AD28AC27A83F5B
:107C30001286AC781012881E8F268E258D248C23F8
:107C4000E4FFFEFDFCAB46AA45A944A843C3128746
:107C5000E4602C900F6DE0FCA3E0FDA3E0FEA3E048
:107C6000FFA8431286AC781012881EE5262FF52651
:107C7000E5253EF525E5243DF524E5233CF523E403
:107C8000FFFEFDFCAB4AAA49A948A847C31287E4F6
:107C90006043900F75E0F8A3E0F9A3E0FAA3E0FBDE
:107CA000C3E52A9BFFE5299AFEE52899FDE527987B
:107CB000FCAB4AAA49A948A8471286AC781012889A
:107CC0001EE5262FF526E5253EF525E5243DF52480
:107CD000E5233CF523AF2AAE29AD28AC27900F75DC
:107CE00012887FE4FFFEFDFCAB26AA25A924A82369
:107CF000D31287E44005D211027F9AC211027F9A03
:107D0000900C92E07003027F9A201003027F9A90F9
:107D10000C82E0FCA3E0FDA3E0FEA3E0F5328E318F
:107D20008D308C2F900BE3E0FEA3E0FFEE3395E067
:107D3000FDFCAB32AA31A930A82FD31287E440163C
:107D4000900BE3E0FEA3E0FFEE3395E08F328E313F
:107D5000F530F52F803C900BE3E0FEA3E0FFC3E499
:107D60009FFFE49EFE3395E0FDFCAB32AA31A930C3
:107D7000A82FC31287E4501A900BE3E0FEA3E0FFA4
:107D8000C3E49FFFE49EFE3395E08F328E31F530E1
:107D9000F52F900EB8E0F8A3E0F9A3E0FAA3E0FB1A
:107DA000C3E5329BF52EE5319AF52DE53099F52C9A
:107DB000E52F98F52B900F71E0FCA3E0FDA3E0FE0A
:107DC000A3E0252EFFEE352DFEED352CFDEC352BF9
:107DD000FC900F7112887F7FA07E867D017C0090D1
:107DE0000F71E0F8A3E0F9A3E0FAA3E0FBD3128758
:107DF000E440107FA07E867D017C00900F71128888
:107E00007F802A7F607E797DFE7CFF900F71E0F895
:107E1000A3E0F9A3E0FAA3E0FBC31287E4500E7FCE
:107E2000607E797DFE7CFF900F7112887FE4F526DD
:107E3000F525F524F523FFFEFDFCAB4EAA4DA94C1C
:107E4000A84BC31287E46026AF2EAE2DAD2CAC2B11
:107E5000A84B1286AC781012881EE5262FF526E571
:107E6000253EF525E5243DF524E5233CF523E4FFF7
:107E7000FEFDFCAB52AA51A950A84FC31287E46083
:107E80002C900F71E0FCA3E0FDA3E0FEA3E0FFA8AF
:107E90004F1286AC781012881EE5262FF526E525B0
:107EA0003EF525E5243DF524E5233CF523E4FFFEDE
:107EB000FDFCAB56AA55A954A853C31287E46043EE
:107EC000900F79E0F8A3E0F9A3E0FAA3E0FBC3E5A3
:107ED0002E9BFFE52D9AFEE52C99FDE52B98FCAB3A
:107EE00056AA55A954A8531286AC781012881EE5DC
:107EF000262FF526E5253EF525E5243DF524E52349
:107F00003CF523AF2EAE2DAD2CAC2B900F79128803
:107F10007FE4FFFEFDFCAB26AA25A924A823C312FB
:107F200087E44004D2118072C211806E900C8AE006
:107F3000FCA3E0FDA3E0FEA3E0F5268E258D248CB6
:107F400023E4FFFEFDFCAB26AA25A924A823D31217
:107F500087E44004D2118002C21174FF7F9CFEFDB1
:107F6000FCAB26AA25A924A823C31287E4500D74CC
:107F7000FF75269CF525F524F523801EE47F64FE1D
:107F8000FDFCAB26AA25A924A823D31287E4400A26
:107F9000E4752664F525F524F523E47F64FEFDFCF5
:107FA000AB26AA25A924A823D31287E4400AE475A6
:107FB0002664F525F524F52374FF7F9CFEFDFCABBC
:107FC00026AA25A924A823C31287E4500B74FF75A1
:107FD000269CF525F524F523900BAEE0640160376F
:107FE000AF26AE25AD24AC23780A128832E47B6438
:107FF000FAF9F812E5DFA804A905AA06AB07900E66
:10800000E4E0FFE4FCFDFE1286AC780A12881E8FC5
:10801000268E258D248C23E4FFFEFDFCAB26AA25AD
:10802000A924A823C31287E440047F0180027FFFB4
:10803000900EA7EFF03011077F0112F2A78005E440
:10804000FF12F2A7AE25AF2612F15112F28F2202D3
:108050008410E86480F8E933E83360110460F0EDDF
:1080600033EC337009E8FCE9FDEAFEEBFF22046023
:10807000DED3EB9FEA9EE99DE8C2E78CF0C2F7955C
:10808000F0400CE8CCF8E9CDF9EACEFAEBCFFB12E0
:1080900083DB85D0F05804700320D5B3E804700763
:1080A0005002B2D502841A92D5EC0460F7E4CCC039
:1080B000E0C398F8603B94186008400DD0E0FB02E4
:1080C00083F2E4FBFAC9FC8028E830E406E4C9FB4B
:1080D000E4CAFCE830E305E4C9CACBFCE854076015
:1080E00010F8C3E913F9EA13FAEB13FBEC13FCD80D
:1080F000F130F52FC3E49CFCEF9BFFEE9AFEED9967
:10810000FDD0E0FBEF4E4D4C701222DB03028417D2
:10811000EC2CFCEF33FFEE33FEED33FDED30E7EBFF
:108120000283F2EF2BFFEE3AFEED39FDD0E0FB507B
:10813000130BBB000302841AED13FDEE13FEEF13C5
:10814000FFEC13FC0283F2EC4D6011E8497017ED6F
:1081500033EC3304600DE4FCFFFEFD22E933E83329
:108160000470F80284101283DB58046009E4CC2404
:1081700081500628500902841A284003028417C03F
:10818000E0EB4A7044B98006D0E0FB028406EF4E73
:10819000701CBD8008EBFFEAFEE9FD80EBE98DF085
:1081A000A4FEE5F0028230E9CDF9EAFEEBFFEF89AB
:1081B000F0A4FCE5F0CE89F0A42EFFE435F0CD89E3
:1081C000F0A42DFEE435F08067EF4E7005BD80D73A
:1081D00080C3EF8BF0A4ACF0EE8BF0A42CFCE43564
:1081E000F0F8EF8AF0A42CE5F038FCE433CB8DF006
:1081F000A42CFCE5F03BF8EE8AF0A42CFCE5F0386A
:10820000F8E433CF89F0A42CFCE5F038CF3400CE6D
:1082100089F0A42FFFE5F03EFEE433C98DF0A42ED3
:10822000FEE5F039CD8AF0A42FFFE5F03EFEE43DF7
:10823000FD33D0E0FB50070BBB000F02841AEC2C7F
:10824000FCEF33FFEE33FEED33FD0283F202841ABE
:10825000EC5D046005E8590470030284101283DBAE
:10826000580460F6EC4860F2EC7004FDFEFF22C892
:1082700060DB2481C85009C398600250060284174D
:108280009850CAF582E9294B4A7005AB82028406F0
:1082900075F0007C1A7880C3EF9BEE9AED99400D43
:1082A000C3EF9BFFEE9AFEED99FDE842F0DC23ACB4
:1082B000F0D0E0FFD0E0FED0E0FDAB8220E7101B65
:1082C000EB60BAEC2CFCEF33FFEE33FEED33FD0236
:1082D00083F2E803F830E705C0F075F000EF2FFFF8
:1082E000EE33FEED33FD40B830E7C280AA74F8CC1F
:1082F0006480CCC86480C8F58204604FC3EB9FF5EE
:10830000F0EA9E42F0E99D42F0E89C45F0603C5066
:108310001DE5825FFFE582D313CB5BCBF42B558247
:10832000FB50280ABA002409B9002008801DE58204
:108330005BFBE582D313CF5FCFF4C3132F5582FFCE
:1083400050090EBE00050DBD00010CC3EB9FF5F0FA
:10835000EA9E42F0E99D42F0E89C45F06007CC4877
:1083600020E701B3EC2275F020800E75F010800537
:1083700075F0087D007E007F003392D530D5031262
:1083800087D6EC334010EF33FFEE33FEED33FDECD8
:1083900033FCD5F0ED22E5F0247EA2D513CC92E794
:1083A000CDCEFF22EDD2E7CD33EC3392D524814000
:1083B00006E4FFFEFDFC22FCE4CFCECDCC24E05051
:1083C0001174FF80EDC3CC13CCCD13CDCE13CECF23
:1083D00013CF0470F030D5DE0287D6E9D2E7C93377
:1083E000E833F892D5EDD2E7CD33EC33FC5002B24E
:1083F000D522EC30E7100FBF000C0EBE00080DBDFB
:1084000000040BEB6014A2D5EB13FCED92E7FD2208
:1084100074FFFCFDFEFF22E480F8A2D574FF13FC7C
:108420007D80E480EFF920E73624F950037907E4F2
:10843000F42402FBE582158270021583DBF6E0244A
:10844000FB501BE96014E4F0E5821582700215838D
:10845000E004F0B40A08E4F0D9EE7401F00A22C294
:10846000D522ED33EC3392D5FA602AB4FF33EDC256
:10847000E77BFF60067A847987E4227A847990200A
:10848000D5047A84798B224E614E002B494E4600EA
:108490002D494E4600E47A08F0A3DAFC7B0074070D
:1084A00022C083C082ECC0E0EDC0E0EEC0E0EFC0CF
:1084B000E0EA75F010A4CAABF075F04DA42BFBE414
:1084C00035F0FCEA2410FAEB34C5FBEC34D9FCEDB2
:1084D000C2E7FF75F056A4F42411C5F0F434C58F3B
:1084E000F0A42AE5F03BE43CF020E714128597D095
:1084F000E0FFD0E0FED0E0FDD0E0FC12825080141E
:10850000F404128597D0E0FFD0E0FED0E0FDD0E08B
:10851000FC128147D082D083E0FAEDD2E7CD33EC74
:10852000332482FBE4C3CF33CFCE33CECD33CD3330
:10853000DBF37B0775F00A846004F0A31B0AE5F007
:10854000F0A38FF0740AA4FFACF08EF0740AA42C90
:10855000FEACF050010C8DF0740AA42CFDE435F053
:10856000F0A3DBDE7407223F8000004120000042C0
:10857000C80000447A0000461C400047C350004930
:108580007424004B1896804CBEBC205A0E1BCA6740
:1085900053C21C749DC5AEFB60065407601C2323A8
:1085A0001285C5EB543860091285B11285C012815D
:1085B00047ECF8EDF9EEFAEFCB22EB1285C080F133
:1085C000543803241C908567FE93FC0EEE93FD0E39
:1085D000EE930ECE93FF22BB010689828A83E022AE
:1085E0005002E722BBFE02E32289828A83E49322BF
:1085F000BB010CE58229F582E5833AF583E0225040
:1086000006E92582F8E622BBFE06E92582F8E22289
:10861000E58229F582E5833AF583E49322BB0106DE
:1086200089828A83F0225002F722BBFE01F322EFF7
:108630008DF0A4A8F0CF8CF0A428CE8DF0A42EFE4F
:1086400022C2D5EC30E709B2D5E4C39DFDE49CFC21
:10865000EE30E715B2D5E4C39FFFE49EFE128AD93F
:10866000C3E49DFDE49CFC8003128AD930D507C386
:10867000E49FFFE49EFE22C5F0F8A3E028F0C5F0D9
:10868000F8E582158270021583E038F022BB010AFA
:1086900089828A83F0E5F0A3F0225006F709A7F05B
:1086A0001922BBFE06F3E5F009F31922E88FF0A4C6
:1086B000CC8BF0A42CFCE98EF0A42CFC8AF0EDA469
:1086C0002CFCEA8EF0A4CDA8F08BF0A42DCC38259C
:1086D000F0FDE98FF0A42CCD35F0FCEB8EF0A4FE7C
:1086E000A9F0EB8FF0A4CFC5F02ECD39FEE43CFC11
:1086F000EAA42DCE35F0FDE43CFC2275F00875822D
:1087000000EF2FFFEE33FECD33CDCC33CCC582331B
:10871000C5829BED9AEC99E58298400CF582EE9B20
:10872000FEED9AFDEC99FC0FD5F0D6E4CEFBE4CD3E
:10873000FAE4CCF9A88222B800C1B90059BA002DD8
:10874000EC8BF084CFCECDFCE5F0CBF97818EF2F91
:10875000FFEE33FEED33FDEC33FCEB33FB10D703C0
:10876000994004EB99FB0FD8E5E4F9FA227818EF69
:108770002FFFEE33FEED33FDEC33FCC933C910D7C8
:10878000059BE99A4007EC9BFCE99AF90FD8E0E4D5
:10879000C9FAE4CCFB2275F010EF2FFFEE33FEEDAB
:1087A00033FDCC33CCC833C810D7079BEC9AE8997B
:1087B000400AED9BFDEC9AFCE899F80FD5F0DAE45D
:1087C000CDFBE4CCFAE4C8F922CFF4CFCEF4CECD81
:1087D000F4CDCCF4CC22C3E49FFFE49EFEE49DFDE7
:1087E000E49CFC22EB9FF5F0EA9E42F0E99D42F00A
:1087F000EC6480C864809845F022EB9FF5F0EA9E17
:1088000042F0E99D42F0E89C45F022E8600FECC39D
:1088100013FCED13FDEE13FEEF13FFD8F122E86019
:1088200010ECA2E713FCED13FDEE13FEEF13FFD8DF
:10883000F022E8600FEFC333FFEE33FEED33FDECC3
:1088400033FCD8F122BB010789828A83028B505006
:1088500005E9F8028B44BBFE05E9F8028B5C8982CE
:108860008A83028B68BB010789828A8302887F50D2
:1088700005E9F8028B78BBFE05E9F8028B8422EC4F
:10888000F0A3EDF0A3EEF0A3EFF022F8E0FBA3A33A
:10889000E0F925F0F0E582158270021583E0FA38E0
:1088A000F022EBF0A3EAF0A3E9F022D083D082F823
:1088B000E4937012740193700DA3A393F874019361
:1088C000F5828883E4737402936860EFA3A3A380A6
:1088D000DFE5122582F582E5113583F583B51104B4
:1088E0008582122210AF06858212F511228582122E
:1088F000F511D2AF22EC8EF0A4CCC5F0CCCDF8EFC0
:10890000A4CEC5F02DFDE43CFCE8A42EC8C5F03D86
:10891000FDE43CFCEFA4FFE5F028FEE43DFDE43C73
:10892000FC22E709F608DFFA8046E709F208DFFAD9
:10893000803E88828C83E709F0A3DFFA8032E30966
:10894000F608DFFA806EE309F208DFFA80668882B3
:108950008C83E309F0A3DFFA805A89828A83E0A33B
:10896000F608DFFA804E89828A83E0A3F208DFFAF4
:10897000804280D280FA80C680D4805580F28029DF
:10898000801080A680EA809A80A880DA80E280CA7F
:10899000802988848C8589828A83E493A30586F064
:1089A000A30586DFF5DEF3800B89828A83E493A337
:1089B000F608DFF9ECFAA9F0EDFB2288848C8589B2
:1089C000828A83E0A30586F0A30586DFF6DEF480C5
:1089D000E389828A83E493A3F208DFF980D688F0E2
:1089E000EF60010E4E60CD88F0ED2402B40400501B
:1089F000C3F582EB2402B4040050B923234582233B
:108A000090897273E709F60870FA8046E709F20860
:108A100070FA803E88828C83E709F0A370FA807434
:108A2000E309F60870FA806CE309F20870FA8064D2
:108A300088828C83E309F0A370FA805889828A8344
:108A4000E0A3F60870FA804C89828A83E0A3F208DA
:108A500070FA804080D280FA80C680D4805180F243
:108A60008027801080A680EA809A80A880DA80E241
:108A700080CA802788848C8589828A83E493A305B1
:108A800086F0A3058670F5800B89828A83E493A320
:108A9000F60870F9ECFAA9F0EDFB2288848C858940
:108AA000828A83E0A30586F0A3058670F680E589B7
:108AB000828A83E493A3F20870F980D888F0ED24C9
:108AC00002B4040050CEF582EB2402B4040050C47A
:108AD0002323458223908A5473BC000BBE0029EFE8
:108AE0008DF084FFADF022E4CCF875F008EF2FFF95
:108AF000EE33FEEC33FCEE9DEC984005FCEE9DFE63
:108B00000FD5F0E9E4CEFD22EDF8F5F0EE8420D2A9
:108B10001CFEADF075F008EF2FFFED33FD40079818
:108B20005006D5F0F222C398FD0FD5F0EA22A3F843
:108B3000E0C5F025F0F0E582158270021583E0C8EB
:108B400038F0E822E6FC08E6FD08E6FE08E6FF222B
:108B5000E0FCA3E0FDA3E0FEA3E0FF22E2FC08E2CC
:108B6000FD08E2FE08E2FF22E493FC740193FD7429
:108B70000293FE740393FF22ECF608EDF608EEF67E
:108B800008EFF622ECF208EDF208EEF208EFF2221E
:108B900012F313EF700A300FF7C20F12C7FE80F006
:108BA000900EA0E0249AFF900E9FE034F9FE3395DA
:108BB000E0FDFCE47BA07A07F9F81286AC78071296
:108BC000881E900DD412887F300F05C20F12C7FE89
:108BD000900FB6E06077301074900FBBE004F0E0C7
:108BE00064E87002740370657F287E23FDFC900D9D
:108BF000D4E0F8A3E0F9A3E0FAA3E0FBC31287E412
:108C0000500FE47F407E1FFDFC900FB712887F80DD
:108C100037E47FC87E32FDFC900DD4E0F8A3E0F984
:108C2000A3E0FAA3E0FBC31287E4500FE47FE07EE9
:108C30002EFDFC900FB712887F800DE47FC07E5D13
:108C4000FDFC900FB712887FE4900FB6F0E47F58D8
:108C50007E1BFDFC900DD4E0F8A3E0F9A3E0FAA39D
:108C6000E0FBD31287E45003029285E47FE87E03A1
:108C7000FDFC900FBCE0F8A3E0F9A3E0FAA3E0FB51
:108C80001287FA7004D2108036900FBCE0FCA3E08B
:108C9000FDA3E0FEA3E02401FFE43EFEE43DFDE48D
:108CA0003CFC900FBC12887F900DD4E0FCA3E0FD4B
:108CB000A3E0FEA3E0FF12DC2D900EA812887F90A7
:108CC0000D0EE0600312D58E900EA2E0249AFF9064
:108CD0000EA1E034F9FE3395E0FDFCE47BAB7A6451
:108CE000F9F81286AC780D12881E900EA7E0FD33BD
:108CF00095E0FC12862FEE3395E0FDFC12D9BC9076
:108D00000EB812887F900EACE0FCA3E0FDA3E0FE5D
:108D1000A3E0FF900CC8E0F9F812881EC004C0055B
:108D2000C006C007900ECBE0FCA3E0FDA3E0FEA3CD
:108D3000E0FF900CC8E0F812881E90000612887FB1
:108D4000900C7AE0FCA3E0FDA3E0FEA3E0FFA80105
:108D500012881E90000A12887FD007D006D005D056
:108D60000412AE41A804A905AA06AB07900EB8E00C
:108D7000FCA3E0FDA3E0FEA3E0C39BFFEE9AFEEDA3
:108D800099FDEC98FC12DBB0EE3395E0FDFC900E03
:108D9000BC12887F300F05C20F12C7FE900D02E093
:108DA0007004F50FF510E50F147003028E8E147029
:108DB00003028EA5147003028EE224036003028F67
:108DC000B8900D3CE025E024A3F582E4340EF58351
:108DD000E0FEA3E0FFEE3395E08F268E25F524F527
:108DE00023E4FFFEFDFCAB26AA25A924A823C31279
:108DF00087E45009E4F526F525F524F523AF26AEE2
:108E000025AD24AC2312D0668F268E258D248C238D
