:40000000021415008F828E83E0540100000070F82278FFE4F6D8FD02147A900000EFF0E4F53FF540F541F54275430AC200121F87EF60057F00121FB7122067D2AF9044F4FC
:4000400074FDF0E4F53B754900754A00754B37900000E0FF70067EFF7FFF80008F4C7B017A0079017D2C7C011212FA8F3E900000E060021543E5436004E53E70C9E53E6046
:400080000302059FC3E5389407E53794004008900001E064016005753B04807E900004E0FE900003E0FDEEF53FEDF54074062540F5827400353FF583E0FE74052540F58228
:4000C0007400353FF583E0FDEEF53CEDF53DE5402407FFE4353FFED3EF9538EE95374005753B03803574072540F5827400353FF583E064176005753B04801F7B017A0079B1
:4001000001E5402404FDE4353FFC121C66EF653D7003EE653C6003753B08E4F539F53AE53B600302058E900005E0F536753B04900002E012088801553101823202083403A0
:400140007A3503883703D438020839040F3A05783B0000058B20000302058EE540453F600302058EFF120D84EF70047F0180027F00900005EFF0753900753A01E4F53B0260
:40018000058E20000302058EE5406401453F600302058EE536C39401400302058E900357E0FEA3E0F5828E83120842E4FBFA7901F81207188F24E536B5241E900357E0FE6B
:4001C000A3E0F5828E83120842E4FB7A01F9F81207187522008F238014E536D395244007E4F522F5238006752201752300E523900005F0E522A3F0A374FFF0E4A3F0F539B6
:40020000753A04F53B02058E900002E06434703C20000302058EE5406403453F600302058EE536C39440400FE536D3947F50087541007542108006754101754220AE41AF47
:40024000427D007B017A01792D1208FF20000302058EC3E5409403E53F9400500302058EE54024FDFFE53F34FFFE742D2542F974013541A801FC7D017B017A0079081209F7
:40028000E7E54024FDFFE53F34FFFEEF2542F542EE3541F541E536C394404012E536D3947F500B121DA8753F007540108006753F01754020E54265407004E541653F600369
:4002C00002036F900007E0FE900006E0FDEEF541EDF542E536D3943F506FE5367F00FEEF2542FFE5413E900259F0A3EFF0900357E0FEA3E0F5828E83120842E4FB7A01F9AA
:40030000F812071890025BEEF0A3EFF0900357E0FEA3E0F5828E83120842EFE4EF600A90025BE475F0011205DA90025BE0FEA3E0FFC390025AE09F900259E09E500B753BD5
:400340000AE4F541F54202058E7B017A01792D900263E53FF0A3E540F0AD42AC41AF36120F0BEF60047F0A80027F008F3B8003753B03E4F541F54202058E20000302058EC7
:40038000E4F541F54202059F20000302058EE5422540FFE541353FFED3EF942CEE9401502DE4F53BAE3FAF40742D2542F974013541A801FC7D017B017A0079051209E7E58F
:4003C000402542F542E53F3541F54102058E753B0302058EE540453F600302058E78257C00FD7BFF7A25791FFE7F081209E7D200753900753A08AE39AF3A78057C007D0105
:400400007B007A0079251209E7E4F53B02058E20000302058EE5406403453F600302058E900007E0FE900006E0FDEEF52FEDF530E536C394404038E536D3947F5031AE2F29
:40044000AF307C007D101208D28F348E338D328C318F4B8E4A8D498C48E4754F10F54EF54DF54CFF7E80FDFC12192C8F358050AE2FAF307C017D001208D2C004C005C006FC
:40048000C007AF36E4FCFDFEFBFA7901F812068DD003D002D001D0001206728F348E338D328C318F4B8E4A8D498C48E4F54F754E01F54DF54CFFFE7D10FC12192C8F35E588
:4004C00036D3943F5072AF367E007C207D001208D2E42FFFE43EFEED3408FDE43CFCC004A905AA06AB07AE2FAF307C007D201208D2D0001206728F348E338D328C31E4F5BA
:400500002DF52EC3E52E9420E52D9400502AE4E52E2534FFE52D3533FEE43532FDE43531A907AA06AB05121CF3EF2535F535052EE52E7002052D80CBE536702AAE2FAF301E
:40054000FCFD7BFFFAF9F8C31207C57019FD7F05120A3DC3E5359FF535E4FD7F06120A3DC3E5359FF535E535F404900005F0E4F53BF539753A018016E4FF120D84EF700604
:400580009046FA7480F01220718003753B057B017A007901853948853A49AF3B1215ED900000E0700302004330000302004322BB010689828A83E0225002E722BBFE02E399
:4005C0002289828A83E49322BB010689828A83F0225002F722BBFE01F322C5F0F8A3E028F0C5F0F8E582158270021583E038F022BB010A89828A83E0F5F0A3E022500687B6
:40060000F009E71922BBFE07E3F5F009E3192289828A83E493F5F074019322BB010789828A830205DA500B09C5F027F7C5F01937F722BBFE0D09F8E325F0F3C5F019E338A6
:40064000F322F889828A8374019325F0C5F0F8E4933822BB010A89828A83F0E5F0A3F0225006F709A7F01922BBFE06F3E5F009F31922EF2BFFEE3AFEED39FDEC38FC22C315
:40068000EF9BFFEE9AFEED99FDEC98FC22E88FF0A4CC8BF0A42CFCE98EF0A42CFC8AF0EDA42CFCEA8EF0A4CDA8F08BF0A42DCC3825F0FDE98FF0A42CCD35F0FCEB8EF0A47C
:4006C000FEA9F0EB8FF0A4CFC5F02ECD39FEE43CFCEAA42DCE35F0FDE43CFC2275F008758200EF2FFFEE33FECD33CDCC33CCC58233C5829BED9AEC99E58298400CF582EE4A
:400700009BFEED9AFDEC99FC0FD5F0D6E4CEFBE4CDFAE4CCF9A88222B800C1B90059BA002DEC8BF084CFCECDFCE5F0CBF97818EF2FFFEE33FEED33FDEC33FCEB33FB10D7C4
:4007400003994004EB99FB0FD8E5E4F9FA227818EF2FFFEE33FEED33FDEC33FCC933C910D7059BE99A4007EC9BFCE99AF90FD8E0E4C9FAE4CCFB2275F010EF2FFFEE33FE50
:40078000ED33FDCC33CCC833C810D7079BEC9AE899400AED9BFDEC9AFCE899F80FD5F0DAE4CDFBE4CCFAE4C8F922EF4BFFEE4AFEED49FDEC48FC22C3E49FFFE49EFEE49D2F
:4007C000FDE49CFC22EB9FF5F0EA9E42F0E99D42F0E89C45F022E8600FECC313FCED13FDEE13FEEF13FFD8F122E8600FEFC333FFEE33FEED33FDEC33FCD8F122BB010789DC
:40080000828A830208365005E9F8020A0DBBFE05E9F8020A1989828A83020842BB010789828A8302085E5005E9F8020A25BBFE05E9F8020A3122E0FCA3E0FDA3E0FEA3E06A
:40084000FF22E493FC740193FD740293FE740393FF22E0F8A3E0F9A3E0FAA3E0FB22ECF0A3EDF0A3EEF0A3EFF022E0FBA3E0FAA3E0F922EBF0A3EAF0A3E9F022E493FB74E9
:400880000193FA740293F922D083D082F8E4937012740193700DA3A393F8740193F5828883E4737402936860EFA3A3A380DFE5092582F582E5083583F583B50804858209B7
:4008C0002210AF06858209F50822858209F508D2AF22EC8EF0A4CCC5F0CCCDF8EFA4CEC5F02DFDE43CFCE8A42EC8C5F03DFDE43CFCEFA4FFE5F028FEE43DFDE43CFC22EF51
:400900004E6012EF60010EEDBB010B89828A83F0A3DFFCDEFA2289F05007F709DFFCA9F022BBFEFCF309DFFCA9F022E709F608DFFA8046E709F208DFFA803E88828C83E7AA
:4009400009F0A3DFFA8032E309F608DFFA806EE309F208DFFA806688828C83E309F0A3DFFA805A89828A83E0A3F608DFFA804E89828A83E0A3F208DFFA804280D280FA80F3
:40098000C680D4805580F28029801080A680EA809A80A880DA80E280CA802988848C8589828A83E493A30586F0A30586DFF5DEF3800B89828A83E493A3F608DFF9ECFAA95D
:4009C000F0EDFB2288848C8589828A83E0A30586F0A30586DFF6DEF480E389828A83E493A3F208DFF980D688F0EF60010E4E60CD88F0ED2402B4040050C3F582EB2402B455
:400A0000040050B9232345822390097B73E6FC08E6FD08E6FE08E6FF22E2FC08E2FD08E2FE08E2FF22ECF608EDF608EEF608EFF622ECF208EDF208EEF208EFF22290025D03
:400A4000EDF0AB079002627402F0E4FFFEFDFCA312085EEB1208880A79010AA6020ACB030AF0040B15050B40060B8F070B6B080BB3090BD70A00000C0190025DE0FF7E005E
:400A80007C017D001208D21207B7EF24C0FFEE34FFFEED3410FDE43CFCA312085E9002627401F0020C0C90025DE0FF7E007C017D001208D2C374C39FFF74FF9EFE74109DBD
:400AC000FDE49CFCA312085E020C0C90025DE0FF7E007C017D001208D2C374C79FFF74FF9EFE74109DFDE49CFCA312085E020C0C90025DE0FF7E007C017D001208D2C37433
:400B0000CB9FFF74FF9EFE74109DFDE49CFCA312085E020C0C90025DE0FF7E007C017D001208D2C374D09FFF74FF9EFE74109DFDE49CFCA312085E9002627401F0020C0C60
:400B400090025DE0FF7E007C017D001208D2C374D19FFF74FF9EFE74109DFDE49CFCA312085E9002627401F0020C0C90025DE0FF7E007C017D001208D2C374D69FFF74FF16
:400B80009EFE74109DFDE49CFCA312085E807D90025DE0FF7E007C017D001208D2C374D29FFF74FF9EFE74109DFDE49CFCA312085E805990025DE0FF7E007C017D00120811
:400BC000D2C374D49FFF74FF9EFE74109DFDE49CFCA312085E803590025DE0FF7E007C017D001208D2C374D89FFF74FF9EFE74109DFDE49CFCA312085E9002627404F08082
:400C00000BE4FFFEFDFC90025E12085E900262E0B4011990025E120836A907AA06AB05121CF3E4FCFDFE90026312085E900262E06402705C90025E120836EF2401FFE43E91
:400C4000FEE43DFDE43CA907AA06AB05121CF3E4FCFDFE90026312085E900263120852C000C001C002C00390025E120836A907AA06AB05121CF3E4FCFDFE78081207E9D0BA
:400C800003D002D001D0001207AA90026312085E900262E064046003020D7D90025E120836EF2403FFE43EFEE43DFDE43CA907AA06AB05121CF3E4FCFDFE90026312085E37
:400CC000900263120852C000C001C002C00390025E120836EF2402FFE43EFEE43DFDE43CA907AA06AB05121CF3E4FCFDFE78081207E9D003D002D001D0001207AA9002634F
:400D000012085E900263120852C000C001C002C00390025E120836EF2401FFE43EFEE43DFDE43CA907AA06AB05121CF3E4FCFDFE78101207E9D003D002D001D0001207AA84
:400D400090026312085E900263120852C000C001C002C00390025E120836A907AA06AB05121CF3E4FCFDFE78181207E9D003D002D001D0001207AA90026312085E90026356
:400D8000120836228F44AD447F03120A3DEF2401FFE43EFEE43DFDE43CFCE4FB7A01F9F812068DC004C005C006C007AD447F04120A3DD003D002D001D0001206728F4C8EA9
:400DC0004B8D4A8C49C201E4F54DAD447F03120A3DEF2401FFE43EFEE43DFDE43CFCE4FB7A01F9F812068D8F488E478D468C45AF4CAE4BAD4AAC49AB48AA47A946A845C337
:400E00001207C55032854882854783E493F54E6005F46002D201E54E254DF54DAF48AE47AD46AC45E47B01FAF9F81206728F488E478D468C4580B8AD447F03120A3DEF2479
:400E400001FFE43EFEE43DFDE43CFCE4FB7A01F9F812068D78031207D68F488E478D468C45E47FC07EFFFDFCAB4CAA4BA94AA849C31207C57007FF7E20FDFC800DAF4CAE21
:400E80004BAD4AAC4978031207D68F4C8E4B8D4A8C49AF4CAE4BAD4AAC49AB48AA47A946A845C31207C55039E42548FFE43547FEE5463408FDE43545A907AA06AB05121CB9
:400EC000F3EF254DF54DAF48AE47AD46AC45E47B01FAF9F81206728F488E478D468C4580B1E54DF404F54DAD447F01120A3DA804A905AA06AB07AF4DE4FCFDFEC31207C5CC
:400F000070032001037F06227F002290025EECF0A3EDF0A312087390025DEFF0E4900265F0EFD3943F500E90025DE0940140069002657401F090025DE0FFD3947F4006903A
:400F400002657401F0EFC39440400CEFD3944140069002657401F0EFD3943F501E90025EE0FEA3E0FFE4FCFDFB7A01F9F8C31207C5502F9002657401F08027D390025FE03C
:400F8000948090025EE0940040069002657401F0900263E07004A3E0641060069002657401F090026012086AE94A4B700590026504F0900265E0600302108A121EFEEF606E
:400FC0000302108490025EE0FCA3E0FDA312086A900263E0FFA3E090026CCFF0A3EFF090025DE0FF1211DE900265EFF06407600302107F904722E0540270087F01FE121EF6
:401000006480F0904722E054026009E0FF1313543FFF80027FFFEF7006900265F0800690026574FFF0900265E0705490025DE0FFA3E0FCA3E0FD900353E0FBA3E090026AD9
:40104000F0121A90900265EFF064077032904722E0540270087F01FE121E6480F0904722E054026009E0FF1313543FFF80027FFFEF7006900265F0800690026574FFF0124B
:40108000205180069002657404F0900265E0FF227B007A4679E8121CF3EF4401FD7B007A4679E8122045E4F52CE52CC3940A502CE52C75F005A42461F582E43424AF82F571
:4010C000218F22F58312087C8F82852183740393FC740493FD121F6E052C80CDE4F52CE52CC394015046E52C75F007A42413F582E43425AF82F5238F24F58312087C8B25E1
:401100008A2689278F82852383740393FE7404938E28F529740593F52A740693F52BAD29AC28FFAE2A121EB8052C80B37E207F92121DD97B017A507903121CF3EF4402FD3B
:401140007B017A5079031220457B017A507913121CF3EF4402FD7B017A5079131220459043A0E04440F09043C2E04410F07C207D827B007A5179127F087E00121EB87C2053
:401180007D8A7B007A5179227F087E00121EB89044F47401F0904322E04408F09046ECE0C394055006904689743AF090480074F1F012150690480074B1F0121F1D7B007A41
:4011C0004379A0C00179B0900005120873D0017F0E7E00121D749043B0E054FDF022900266EFF0A3ECF0A3EDF0A312087390026E7407F0904722E0540270030212EE904756
:401200002074B6F074D5F07402F0904722E0540260030212E6900266E0904720F0E490026FF0A3F090026CE0FEA3E0FF90026FE0FCA3E0FDC39FEC9E501F90026912086A8D
:40124000E92DF9EA3CFA1205AF904720F090026FE475F0011205DA80CB90026CE064017002A3E060030212F4900266E0FFD3943F40030212F47E007C207D001208D2E42F0A
:40128000FFE43EFEED3408FDE43CFCC004A905AA06AB07A3E0FEA3E0FF7C007D201208D2D00012067290027112085EE490026FF0A3F090026FE0FEA3E0FFC39420EE94005A
:4012C0005032E4FCFDA3120852120672A907AA06AB05121CF3904720EFF090026FE475F0011205DA80CC90026E7409F0800690026E7404F090026EE0FF228B448A4589469E
:401300008C478D48755505E4F54DF54EE54C75F00AA4FFC3E54E9FE54D95F0503B121B34EF6022121B347553008F54E47F19FEFDFC1218C7121B34D3EF9554E4955350E366
:40134000E4F5558013E47F01FEFDFC1218C7054EE54E7002054D80B4AB49AA4AA94BE4F5F0120653E4F54FF550121B34EFD394005003021412121B347551008F52AB49AA8D
:401380004AA94BE5518552F012061BAB49AA4AA94B1205F0C39548E5F09547505FE4F54DF54EC3E54E9552E54D95515025121C1CAB44E5462550F9E545354FFAEF1205C8C1
:4013C0000550E5507002054F054EE54E7002054D80D0AB44E55024FFFFE54F34FFFEE5462FF9E5453EFA1205AF64177003021369E47F05FEFDFC1218C7021369AB49AA4ABB
:40140000A94B1205F0C39552FFE5F095518FF0120653AF552275930078007583467582E8E04401F0009046ECE0F99046FAE0FA90034BF0B903225420B40012B8001AEA9014
:401440001FFFF07401901FFEF09046F6F0901FFEE06005901FFFE0FA90480074C0F0758156121EDE90000078007920E4F0A3D8FCD9FAEA90034BF002001175081F7509FD1F
:401480001210900214C1022079E493A3F8E493A34003F68001F208DFF48029E493A3F85407240CC8C333C4540F4420C8834004F456800146F6DFE4800B0102040810204063
:4014C00080901B83E47E019360BCA3FF543F30E509541FFEE493A360010ECF54C025E060A840B8E493A3FAE493A3F8E493A3C8C582C8CAC583CAF0A3C8C582C8CAC583CABE
:40150000DFE9DEE780BE7B007A4079807D337C001220279040827418F09043007402F09040007408F09042007403F07B0C7A017908121CF39046A1EFF07B007A4279227D68
:40154000087C001220277B007A4279207D517C12122027E4900004F07F19FEFDFC90000012085E900000120836D3EF9400EE9400403B900004E0FF64036032904225E05440
:4015800001FEEF25E04E5403900004F0E47FE07E01FDFC121D0090000012083674FFFBFAF9F812067290000012085E80B6900000120836EF4E70057F0312207F7B007A402A
:4015C00079047D007C011220279040047407F0904006E4F09040087448F0904004E4F09040017402F09043A2E04401F0228B458A46894774011205C8AB452547F9E43546AB
:40160000FAEF1205C8E549AB45E5472402F9E43546FAE5491205C8E548FFAB45E5472403F9E43546FAEF1205C8AB45AA46A947E5492404FDE43548FC121C668E4A8F4BEFCF
:40164000AB45E5492404FDE43548FCE5472DF9E5463CFAEF1205C8E54AFFAB45E5492405FDE43548FCE5472DF9E5463CFAEF1205C8AB45E5492406FFE43548FEE5472FF9FF
:40168000E5463EFA74171205C8E5492407FDE43548FC755100755200755348755496AB45AA46A947121BD122C0E0C083C082C085C084C086758600C093759300C0D075D09F
:4016C00000C001C002C003C006C007E4FBA2AF33FAD2AF9044F474FDF090646CE0FFFE541EF960069002FDE049F0EF30E54590644AE0FE9002F9E02478F582E43402F583E5
:40170000EEF07B01EB602C900276E060069002FC7401F09002F9E004F0E0C394404002E4F0900277E0FE9002F9E0B506069002767401F0EF20E5A2AF02EA24FF92AFD007BF
:40174000D006D003D002D001D0D0D093D086D084D085D082D083D0E032752106E4FF120D84EF7002F521E4F54BF54AF549F548900357E0FEA3E0F5828E831208428F4F8E82
:401780004E8D4D8C4CE4FFFE7D10FC12192C900355E0FCA3E0F5828C83E493FEC3EF9EFFF404FFB50612900357E0FEA3E0F5828E83120842EF4E70057F00121FB79046FAFB
:4017C000E054C064406004E52160099046FAE4F0FF12001A12205D22C0E0C083C082C085C084C086758600C093759300C0D075D000C006C007A2AFE433FFD2AF9044F4742E
:40180000FDF09002FAE0FE9002B8E06E602C90646EE020E2259002B8E0C394404002E4F09002B8E024B9F582E43402F583E090644DF09002B8E004F080C8EF24FF92AFD043
:4018400007D006D0D0D093D086D084D085D082D083D0E032A9079002FAE0FF9002B8E0FEEFC39E501AEE24FFFDE434FFFCEF7A00B50508EAB504047D0180027D00800CC346
:40188000EF9EB43F047D0180027D00ED70C8EEB5070D90646EE020E20690644DE9F022EFC394404002E4FF74B92FF582E43402F583E9F00F9002FAEFF090646EE030E10609
:4018C0009044D07402F02290FFFC1208AE12085E850883850982120836D3EF9400EE9480402E90034C120836121D00850883850982C083C082120836E42FFFEE3480FEEDC9
:4019000034FFFDEC34FFFCD082D08312085E80C090034212083685088385098212085212068D121D009000041208AE228F478E468D458C44E4F550D3E54F9400E54E940025
:40194000404BAF4FAE4EAD4DAC4C74FFFBFAF9F81206728F4F8E4E8D4D8C4CE547254BFFE546354AFEE5453549FDE5443548FCEF254FFFEE354EFEED354DFDEC354CA907BD
:40198000AA06AB051205AF2550F55080AAAF5022121FE190025E74FFF0121EFEEF703B7F01121E35EF6407702C7B017A0379537D021219E6EFB40215E490025EF090472228
:4019C000E0540270107F01FE121E6480F0904722E0540260D4122051800690025E7404F090025EE0FF2290025F120873900262EDF0E4A3F0900262E0FFA3E0C39F50379065
:401A00004722E054016003D38001C340097F017E00121E6480E9904720E0FF90025F12086A900263E029F9E43AFAEF1205C8900263E004F080BE900263E0FF2290025EEC49
:401A4000F0A3EDF090025DEFF0541F25E0FFE433FEE42FFFEE3444FAA9077B0112201A900260EEF0A3EFF090025DE075F002A42400FFE5F03444FAA9077B01A3E0FEA3E0EC
:401A8000FFFDAC06122029900260E0FEA3E0FF22900267ECF0A3EDF0AC077D07904722E05402603B90472074B6F074D8F07405F0904722E054027023904720ECF09002670F
:401AC000E0904720F0900267E0A3E0904720F0EBF090026AE0904720F080067D0980027D04AF0522121FE1121EFEEF703B121F3A90025EEFF06407702A904722E0540270A1
:401B0000087F01FE121E6480F0904722E054026009E0FF1313543FFF80027FFFEF700490025EF0122051800690025E7404F090025EE0FF229044C87401F09002F9E0FE905D
:401B40000277E0B5060E900276E060047F40802CE4FF80289002F9E0FE900277E0C39E500BE0FE9002F9E0C39EFF8010900277E0FEC374409EFE9002F9E02EFF9044C07420
:401B800001F022420355251A420357251B430350000000440347016E360044034200005DC04103461844034C2EE000004102FB004102B8004102FA004102FD00410277003B
:401BC0004102F900410276004102FC0041035B00008B4C8A4D894E8C4F8D50E4F555F556121E07C3E5569550E555954F501DAB4CE54E2556F9E54D3555FA1205AFFF121874
:401C0000540556E5567002055580D8AB51AA52A953E54F8550F01206537F00229044C87401F0900277E0FE9002F9E0FD900276E07004EE6D602474782EF582E43402F583EF
:401C4000E0FF0EEEC394404002E4FE900277EEF0900276E06009E4F0800590644AE0FF9044C07401F0228B4C8A4D894EE4F54FF550D3ED9400EC94004025AB4CED24FFFFD4
:401C8000EC34FFFEE54E2FF9E54D3EFA1205AF2550F550E4354FF54FED1D70011C80D2E550F4FFE54FF4FEEF2401FFE43EFE227C167DA8E4FF121A3C7D07E4FF121F55E4B7
:401CC0009002FDF090648A7469F090648C7420F07C177DD87F01121A3C7D077F01121F5590642E7406F090643E7447F090648E7402F0228B938A838982E0759300FF22000A
:401D0000EC4D4E700D78FCEF24E950032840FD2200007BF178DA0000EF28FF78FFEE38FEED38FDEC38FC50E7EF2BFFEE38FEED38FDEC38FC40F22205020304121FCC9002FD
:401D40005DEFF090649AE04420F090649CE04410F09044C07401F090649EE04410F09044D87402F09044C0F012203690025DE0FF121F9F22758600EF4E6027EF60010E75B2
:401D80009300900005E0F595A3E0F585A3E0F5848B938A838982E0A30586F0A31586DFF6DEF4E4F593F59522121FCC9043A0E04408F09043B0E04408F090470174C8F090A8
:401DC00043ACE04410F09043BCE04410F0904700E0542060F8121F9F22ACEAADA08E838F82E493F9601CA3E493F5EAA3E493F5A0A3E49360F1FAA3E493F8A3E493F2DAF6BC
:401E0000D9E48DA08CEA22121FCC90649AE04401F0E054FEF0121F9F9044C87401F0E4900277F09002F9F0900276F09002FCF09044C004F0227E07904722E05402601F9052
:401E4000472074B6F074E1F0740EF0904722E054027007904720EFF080067E0980027E04AF062200EEFA900346E0F88FF0A4FFAEF0E88AF0A42EFEE5F03400FDEF24C9FF5A
:401E800078FFEE38FEED38FDE438FC5003021D0022121FCC90649DE04401F0E054FEF0121F9F9044C87402F0E49002B8F09002FAF09044C07402F022758600EF4E601BEFCA
:401EC00060010E8C838D828B958A858984E493A30586F0A31586DFF5DEF3E4F595229046FAE054C064807015F0FD7F02120A3DEF4E600AE4FD7F02120A3D122009229002CC
:401F0000667404F0121FCC90035BE0700704F0E4900266F0121F9F900266E0FF227B0C7A0179CF121CF3EF540790586EF0EFC4540FA3F09058767444F0227F07904722E0DD
:401F40005402600E90472074B6F074E0F0740DF080027F0422AC07ED540775F020A4FFEC541F2480F582E43444F583EFF022EC4D6011ED60010C8B938A838982E4F0A3DDB0
:401F8000FCDCFA75930022121AE490025DEFF0700812199090025DEFF090025DE0FF22EF54016004D2AF8002C2AFEF5402FF9044F4E054FD4FF02290FFFF1208AEEFF090D7
:401FC00046EA7401F09000011208AE229044F4E0F84402F0E85402FF10AF012274014FFF22121FCC9043A0E04408F09043B0E04408F0121F9F229002FBE07009121CAF9087
:4020000002FB7401F0121D3B2290034BE0FA8E838F827400758101738B938A838982E0FFA3E0FE759300228B938A838982EDF0A3ECF0759300229043A2E04401F09043B26F
:40204000E04401F0228B938A838982EDF075930022121FCCE490035BF0121F9F229046FA7480F012207122121FF6121E07121E91229046F6E04401F02212175980FE2280DC
:40208000FE22007F7B007B00000030D8C800D800000016005205082309121098118814200064047E3F8A698C3A8E0F010101E204010301E6020105028702E008010604B82E
:4020C00002BE01D804DF010107021B02A702010A088501890195019901B101BF01D904DF01010B4F00400106038808010A040B111028130219641A041B0A202021082230E9
:40210000274028282A022B022E033080310232103304340836203708382239803A083C283E084028410843824A024B0152045B4068286A016B027090712072108D408E104D
:402140008F809042910493109621980199029B0C9D649E049F80A004A102A202A490A520A702AB01B021B405B602B744C00FC20FC40ECA0FCC6FCE6FD00FD208D608E0083A
:40218000E801010C4C0001021608E70A180E3F101E120114C6163918481C88208824DD262228232ADC2CC8301F320834E03A22541A560458045B045F018008824284F88698
:4021C000018704880F89028AF08D068EC792849308943996C698109C20A020A101A43FA6C0A906AA08AC30B031B106B308B501B6FFB702B982BE40BF11C062C101C5E0C6DA
:40220000CBC80EC9FFCAFFCBFFCEF0CF44D00CD804D904DA04DF01E6C0EA40EB02010D46002901100210030B04010709080209260A310D220E11108012481388151016502C
:402240001780180219021C081D021E201F20200421012208230128402920320238C839A43A083B10414042084921502053405E205F026540674887409088912093089502C2
:40228000978098409B4A9C029D259E049F04A420A504A72AB001B301C0DFC2FFC4FFCA05CC01CE0ED00CD204D6A0D8B0010E4E040906D007230B080C0C0D210E710F0E1048
:4022C00014141016AC170C18DC1A221B201E0321102410264029212A202B062D0C2F2330E03310350F361F37203A023B203F444004464049FF4A074BFF4C404D204EF04F8A
:4023000005500854015604580459045A045B045F01604061A862406320871F89198B0691019304950997029A01A506A719A919AA01AB06AF0FB201B310B507B708B908BB65
:4023400020BE04D804D904DB04DF01010F3C004404040504084809200A010B800E0810081210160418C01A011F042130224425102604270A280829212A802F2A303031047A
:402380003402370438883A103D284101500C5210581059015A886380680169046A206B406F0171407304821083408550868089048B04C005C24FC446CA7DCCC6CE6ED00101
:4023C000D60FD801E40C014005322035808180CC30E2200141038620A620E6400144058301870188C0E004E40401450F0C0857025B046401660193029889A040A301B009C2
:40240000C204D607D801E801EC0401460D8702900893029888A040A301A702AB04B40CB601E808EC02EE08014705900893029888A040A301014C0E5004544057015808607D
:40244000806702900893029888A040A301D406D607D80201500300010C010E01015101000F005100001000513000400051C000100051F000100100000A00010A800580018E
:40248000140008000140000A00014C000200015000002000008080207D050000040800130C0400030204200A031410130C0C7300088000400800004043003C404F003000DE
:4024C0000000734000303F0FC0800008002028000040003402010005C0000E12FFFFFF62A0F0410C00000000000210040404040000000100000000000040020010301000CE
:4025000010101200000000000000000000000000000000010A002493008061000026006930091E031E010100000000000000000000000000000000000000000000000000BD
:40254000000000000000000000000000000000000000000000000000000000000000000000000000000000000000000000000000000000000000000000000000000000005B
:40258000000000000000000000000000000000000000000000000000000000000000000000000000000000000000000000000000000000000000000000000000000000001B
:4025C00000000000000000000000000000000000000000000000000000000000000000000000000000000000000000000000000000000000000000000000000000000000DB
:4026000002A70C008F828E83E0540100000070F82278FFE4F6D8FD02A79A900002EEF0A3EFF078047C007D017BFF7A5979B87E067F0F127C2B9006137406F0A3740FF07849
:40264000197C067D017BFF7A5F79C77E00FF127C2B78287C067D017BFF7A5F79D67E007F1C127C2B78447C067D017BFF7A5F79F27E007F1B127C2B785F7C067D017BFF7A4E
:4026800060790D7E007F1C127C2B787B7C067D017BFF7A6079297E007F22127C2B789D7C067D017BFF7A60794B7E007F27127C2B78C47C067D017BFF7A6079727E007F110E
:4026C000127C2B78D57C067D017BFF7A6079837E007F19127C2B78EE7C067D017BFF7A60799C7E007F11127C2B78FF7C067D017BFF7A6079AD7E007F1C127C2B781B7C0746
:402700007D017BFF7A6079C97E007F1D127C2B78387C077D017BFF7A6079E67E007F1B127C2B78537C077D017BFF7A6179017E007F14127C2B78677C077D017BFF7A61796A
:40274000157E007F25127C2B788C7C077D017BFF7A61793A7E007F15127C2B78A17C077D017BFF7A61794F7E007F15127C2B78B67C077D017BFF7A6179647E007F14127C8F
:402780002B78CA7C077D017BFF7A6179787E007F24127C2B78EE7C077D017BFF7A61799C7E007F19127C2B78077C087D017BFF7A6179B57E007F18127C2B781F7C087D0180
:4027C0007BFF7A6179CD7E007F15127C2B78347C087D017BFF7A6179E27E007F63127C2B78977C087D017BFF7A6279457E007F3F127C2B78D67C087D017BFF7A6279847EC1
:40280000007F2A127C2B7B017A06791912C7EC8F2C7B017A06792812C7EC8F2D7B017A06794412C7EC8F2E7B017A0679C412C7EC8F2F7B017A0679D512C7EC8F307B017A4F
:402840000679EE12C7EC8F317B017A07791B12C7EC8F327B017A07793812C7EC8F337B017A07795312C7EC8F347B017A07798C12C7EC8F357B017A0779A112C7EC8F367B22
:40288000017A0779B612C7EC8F377B017A0779EE12C7EC8F387B017A08791F12C7EC8F397B017A08793412C7EC8F3A7B017A08799712C7EC8F3B7B017A0879D612C7EC8F52
:4028C0003C900004740CF0A37415F0900002E0FEA3E0FFEE6003023B0AEFB416004003023B0A9028E9F828287302292B0236270236300237000237D00237E30237EC02377A
:40290000F502382002389E0238DB0238E40239BA023A40023A50023A59023A78023AA1023AAA023ABE023AC7023AD09000067402F0A314F090090AE0900008F0852C2AE5BD
:402940002A6032FFC3E52C9FFFE49400FE74192FF58274063EF583E0FFE52AFDE52CC39DFDE49400FC74092DF58274003CF583EFF0152A80CA9000387407F0A37403F09006
:40298000093DE06403606890090BE0FCA3E0FDA3E0FEA3E0FFEC1275FFE4FBFA798078471274E990003A127ACC90090FE0FCA3E0FDA3E0FEA3E0FFEC1275FFE4FBFA7980E0
:4029C00078471274E990003E127ACC900913E0FCA3E0FDA3E0FEA3E0FFEC1275FFE4FBFA798078471274E9900042127ACC8066900923E0FCA3E0FDA3E0FEA3E0FFEC127568
:402A0000FFE4FBFA798078471274E990003A127ACC900927E0FCA3E0FDA3E0FEA3E0FFEC1275FFE4FBFA798078471274E990003E127ACC90092BE0FCA3E0FDA3E0FEA3E09A
:402A4000FFEC1275FFE4FBFA798078471274E9900042127ACC852D2AE52A6032FFC3E52D9FFFE49400FE74282FF58274063EF583E0FFE52AFDE52DC39DFDE49400FC74465C
:402A80002DF58274003CF583EFF0152A80CA90006A7407F0A37403F090093DE064036068900917E0FCA3E0FDA3E0FEA3E0FFEC1275FFE4FBFA798078471274E990006C12FF
:402AC0007ACC90091BE0FCA3E0FDA3E0FEA3E0FFEC1275FFE4FBFA798078471274E9900070127ACC90091FE0FCA3E0FDA3E0FEA3E0FFEC1275FFE4FBFA798078471274E92A
:402B0000900074127ACC806690092FE0FCA3E0FDA3E0FEA3E0FFEC1275FFE4FBFA798078471274E990006C127ACC900933E0FCA3E0FDA3E0FEA3E0FFEC1275FFE4FBFA7977
:402B40008078471274E9900070127ACC900937E0FCA3E0FDA3E0FEA3E0FFEC1275FFE4FBFA798078471274E9900074127ACC852E2AE52A6032FFC3E52E9FFFE49400FE7477
:402B8000442FF58274063EF583E0FFE52AFDE52EC39DFDE49400FC74782DF58274003CF583EFF0152A80CAE490009CF0A304F090093BE090009EF090093B601C9009037443
:402BC000FFF0A3744FF0A374B2F07B017A06795F12BAF3752B1C801A90090374FFF0A3744FF0A374B8F07B017A06795F12BAF3752B1B852B2AE52A6032FFC3E52B9FFFE4BD
:402C00009400FE745F2FF58274063EF583E0FFE52AFDE52BC39DFDE49400FC749F2DF58274003CF583EFF0152A80CA749F252BF582E43400F5837403F0E49000CEF0A3049C
:402C4000F090093CE09000D0F090093C14603314604C14606514607E147003022CF224056003022D0C90090374FFF0A3744FF0A374BDF07B017A06797B12BAF3752B14026C
:402C80002D0C90090374FFF0A3744FF0A374C3F07B017A06797B12BAF3752B17806E90090374FFF0A3744FF0A374CCF07B017A06797B12BAF3752B21805290090374FFF0FF
:402CC000A3744FF0A374DFF07B017A06797B12BAF3752B1D803690090374FFF0A3744FF0A374EEF07B017A06797B12BAF3752B19801A90090374FFF0A3744FF0A374F9F0D5
:402D00007B017A06797B12BAF3752B22852B2AE52A6032FFC3E52B9FFFE49400FE747B2FF58274063EF583E0FFE52AFDE52BC39DFDE49400FC74D12DF58274003CF583EF30
:402D4000F0152A80CA74D1252BF582E43400F5837401F0E4900100F0A304F090093DE0900102F090093D14602614603F1460582403706E90090374FFF0A37450F0A3740D36
:402D8000F07B017A06799D12BAF3752B1B805290090374FFF0A37450F0A37418F07B017A06799D12BAF3752B16803690090374FFF0A37450F0A3741EF07B017A06799D1274
:402DC000BAF3752B1A801A90090374FFF0A37450F0A37428F07B017A06799D12BAF3752B27852B2AE52A6032FFC3E52B9FFFE49400FE749D2FF58274063EF583E0FFE52A7F
:402E0000FDE52BC39DFDE49400FC74032DF58274013CF583EFF0152A80CA7403252BF582E43401F5837402F0900132F0A304F0E4F52AE52AC39403501E743E252AF582E453
:402E40003409F583E0FF7434252AF582E43401F583EFF0052A80DB852F2AE52A6032FFC3E52F9FFFE49400FE74C42FF58274063EF583E0FFE52AFDE52FC39DFDE49400FC0F
:402E800074372DF58274013CF583EFF0152A80CA9001647403F0A3F0E4F52AE52AC394035044E52A25E025E02441F582E43409F583E0FCA3E0FDA3E0FEA3E0FF743E252A55
:402EC000F582E43409F583E0F9F8127A6B75F002E52AA42466F582E5F03401F583EEF0A3EFF0052A80B585302AE52A6032FFC3E5309FFFE49400FE74D52FF58274063EF592
:402F000083E0FFE52AFDE530C39DFDE49400FC746C2DF58274013CF583EFF0152A80CA9001967407F0A37403F0E4F52AE52AC394035031E52A25E025E0244DF582E434097D
:402F4000F583E0FCA3E0FDA3E0FEA3E0FF75F004E52AA42498F582E5F03401F583127ACC052A80C885312AE52A6032FFC3E5319FFFE49400FE74EE2FF58274063EF583E055
:402F8000FFE52AFDE531C39DFDE49400FC74A42DF58274013CF583EFF0152A80CAE49001C8F0A304F0900959E09001CAF0900959601C90090374FFF0A3744FF0A374B2F075
:402FC0007B017A0679FF12BAF3752B1C801A90090374FFF0A3744FF0A374B8F07B017A0679FF12BAF3752B1B852B2AE52A6032FFC3E52B9FFFE49400FE74FF2FF582740652
:403000003EF583E0FFE52AFDE52BC39DFDE49400FC74CB2DF58274013CF583EFF0152A80CA74CB252BF582E43401F5837403F09001FA7405F0A37402F0E4F52AE52AC39436
:403040000140030230C7E52A25E025E0245AF582E43409F583E0FCA3E0FDA3E0FEA3E0FF743E252AF582E43409F583E0F9F8127A6B75F008E52AA424FCF582E5F03401F57E
:4030800083127ACCE52A25E025E02462F582E43409F583E0FCA3E0FDA3E0FEA3E0FF743E252AF582E43409F583E0F9F8127A6B75F008E52AA42400F582E5F03402F58312FE
:4030C0007ACC052A02303C85322AE52A6032FFC3E5329FFFE49400FE741B2FF58274073EF583E0FFE52AFDE532C39DFDE49400FC74042DF58274023CF583EFF0152A80CA97
:4031000090022C7405F0A37402F090096EE0FCA3E0FDA3E0FEA3E0FF90022E127ACC90096AE0FCA3E0FDA3E0FEA3E0FF900232127ACC85332AE52A6032FFC3E5339FFFE484
:403140009400FE74382FF58274073EF583E0FFE52AFDE533C39DFDE49400FC74362DF58274023CF583EFF0152A80CA90025E7403F0A37401F0900972E0FFA3E0900260CFF9
:40318000F0A3EFF085342AE52A6032FFC3E5349FFFE49400FE74532FF58274073EF583E0FFE52AFDE534C39DFDE49400FC74622DF58274023CF583EFF0152A80CAE4900235
:4031C00090F0A304F0900978E0900292F0900978601C90090374FFF0A3744FF0A374B2F07B017A07796712BAF3752B25801A90090374FFF0A3744FF0A374B8F07B017A070C
:40320000796712BAF3752B24852B2AE52A6032FFC3E52B9FFFE49400FE74672FF58274073EF583E0FFE52AFDE52BC39DFDE49400FC74932DF58274023CF583EFF0152A80D9
:40324000CA7493252BF582E43402F5837403F09002C204F0A37402F0900974E0FFA3E09002C4CFF0A3EFF0900976E0FFA3E09002C6CFF0A3EFF085352AE52A6032FFC3E530
:40328000359FFFE49400FE748C2FF58274073EF583E0FFE52AFDE535C39DFDE49400FC74C82DF58274023CF583EFF0152A80CA9002F47406F0A37402F0900979E0FCA3E03C
:4032C000FDA3E0FEA3E0FF9002F6127ACC90097DE0FCA3E0FDA3E0FEA3E0FF9002FA127ACC85362AE52A6032FFC3E5369FFFE49400FE74A12FF58274073EF583E0FFE52A44
:40330000FDE536C39DFDE49400FC74FE2DF58274023CF583EFF0152A80CA9003267402F0A314F0900981E0900328F085372AE52A6032FFC3E5379FFFE49400FE74B62FF5CA
:403340008274073EF583E0FFE52AFDE537C39DFDE49400FC74292DF58274033CF583EFF0152A80CAE4900358F0A304F0900982E090035AF0900982601C90090374FFF0A387
:40338000744FF0A374B2F07B017A0779CA12BAF3752B24801A90090374FFF0A3744FF0A374B8F07B017A0779CA12BAF3752B23852B2AE52A6032FFC3E52B9FFFE49400FE0D
:4033C00074CA2FF58274073EF583E0FFE52AFDE52BC39DFDE49400FC745B2DF58274033CF583EFF0152A80CA745B252BF582E43403F5837403F090038A7401F0A3F09009A8
:4034000083E090038CF085382AE52A6032FFC3E5389FFFE49400FE74EE2FF58274073EF583E0FFE52AFDE538C39DFDE49400FC748D2DF58274033CF583EFF0152A80CAE471
:403440009003BCF0A304F0900984E09003BEF0900984601C90090374FFF0A3744FF0A374B2F07B017A08790712BAF3752B18801A90090374FFF0A3744FF0A374B8F07B0172
:403480007A08790712BAF3752B17852B2AE52A6032FFC3E52B9FFFE49400FE74072FF58274083EF583E0FFE52AFDE52BC39DFDE49400FC74BF2DF58274033CF583EFF0151E
:4034C0002A80CA74BF252BF582E43403F5837403F09003EE7407F0A314F0E4F52AE52AC394065031E52A25E025E02485F582E43409F583E0FCA3E0FDA3E0FEA3E0FF75F04B
:4035000004E52AA424F0F582E5F03403F583127ACC052A80C885392AE52A6032FFC3E5399FFFE49400FE741F2FF58274083EF583E0FFE52AFDE539C39DFDE49400FC7408B8
:403540002DF58274043CF583EFF0152A80CA853A2AE52A6032FFC3E53A9FFFE49400FE74342FF58274083EF583E0FFE52AFDE53AC39DFDE49400FC74202DF58274043CF558
:4035800083EFF0152A80CA853B2AE52A6032FFC3E53B9FFFE49400FE74972FF58274083EF583E0FFE52AFDE53BC39DFDE49400FC74B62DF58274043CF583EFF0152A80CA7E
:4035C000853C2AE52A6032FFC3E53C9FFFE49400FE74D62FF58274083EF583E0FFE52AFDE53CC39DFDE49400FC744C2DF58274053CF583EFF0152A80CA7B017A007904904D
:403600000613E0A3E014FD12C3D6900613E0FCA3E0FD2403F58274003CF583EFF07B017A00790412B06122900AADE09009B9F02290093DE064036064E4FFFE7D807C479053
:403640000AADE0F8A3E0F9A3E0FAA3E0FB1273E012763D9009BA127ACCE4FFFE7D807C47900AB1E0F8A3E0F9A3E0FAA3E0FB1273E012763D9009BE127ACCE4FFFE7D807C01
:4036800047900AB5E0F8A3E0F9A3E0FAA3E0FB1273E012763D9009C2127ACC22E4FFFE7D807C47900AADE0F8A3E0F9A3E0FAA3E0FB1273E012763D9009D2127ACCE4FFFE21
:4036C0007D807C47900AB1E0F8A3E0F9A3E0FAA3E0FB1273E012763D9009D6127ACCE4FFFE7D807C47900AB5E0F8A3E0F9A3E0FAA3E0FB1273E012763D9009DA127ACC2229
:4037000090093DE064036064E4FFFE7D807C47900AADE0F8A3E0F9A3E0FAA3E0FB1273E012763D9009C6127ACCE4FFFE7D807C47900AB1E0F8A3E0F9A3E0FAA3E0FB1273D0
:40374000E012763D9009CA127ACCE4FFFE7D807C47900AB5E0F8A3E0F9A3E0FAA3E0FB1273E012763D9009CE127ACC22E4FFFE7D807C47900AADE0F8A3E0F9A3E0FAA3E063
:40378000FB1273E012763D9009DE127ACCE4FFFE7D807C47900AB1E0F8A3E0F9A3E0FAA3E0FB1273E012763D9009E2127ACCE4FFFE7D807C47900AB5E0F8A3E0F9A3E0FA1C
:4037C000A3E0FB1273E012763D9009E6127ACC22900AADE060079009EA7403F022E49009EAF022900AADE09009EBF022900AADE09009ECF022E4F52AE52AC39403400302E9
:403800003B0A74AD252AF582E4340AF583E0FF74ED252AF582E43409F583EFF0052A80D8E4F52AE52AC394035071E52A25E024ADF582E4340AF583E0FEA3E0FFEE3395E0A4
:40384000FDFCE52A25E025E024F0F582E43409F583127ACCE52A25E025E024F0F582E43409F583C083C082E0FCA3E0FDA3E0FEA3E0FF74ED252AF582E43409F583E0F9F808
:40388000127A7FD082D083127ACC746D252AF582E4340BF583E4F0052A8088D20A22E4F52AE52AC394034003023B0AE52A25E025E024ADF582E4340AF583E0FCA3E0FDA3C5
:4038C000E0FEA3E0FFE52A25E025E024FCF582E43409F583127ACC052A80C6900AADE0900A08F022E4F52AE52AC394024003023B0AE52A75F008A424ADF582E4340AF58380
:40390000E0FCA3E0FDA3E0FEA3E0FFE52A25E025E02409F582E4340AF583127ACCE52A75F008A424B1F582E4340AF583E0FCA3E0FDA3E0FEA3E0FFE52A25E025E02411F5D1
:4039400082E4340AF583127ACCE52A25E025E02409F582E4340AF583C083C082E0FCA3E0FDA3E0FEA3E0FF74ED252AF582E43409F583E0F9F8127A7FD082D083127ACCE51A
:403980002A25E025E02411F582E4340AF583C083C082E0FCA3E0FDA3E0FEA3E0FF74ED252AF582E43409F583E0F9F8127A7FD082D083127ACC052A0238E7900AADE0FCA3FA
:4039C000E0FDA3E0FEA3E0FF900615127ACCE4FFFEFDFC900615E0F8A3E0F9A3E0FAA3E0FBD3127A315014900615E0FCA3E0FDA3E0FEA3E0FF900A1D127ACC900AB1E0FCDC
:403A0000A3E0FDA3E0FEA3E0FF900615127ACCE4FFFEFDFC900615E0F8A3E0F9A3E0FAA3E0FBC3127A315003023B0A900615E0FCA3E0FDA3E0FEA3E0FF900A19127ACC22DB
:403A4000900AADE0FFA3E0900A21CFF0A3EFF022900AADE0900A27F022900AADE0FFA3E0900A23CFF0A3EFF0900AAFE0FFA3E0900A25CFF0A3EFF022900AADE0FCA3E0FD6E
:403A8000A3E0FEA3E0FF900A28127ACC900AB1E0FCA3E0FDA3E0FEA3E0FF900A2C127ACC22900AADE0900A30F022900AADE0FF6007900A317401F022E4900A31F022900AC2
:403AC000ADE0900A32F022900AADE0900A33F022E4F52AE52AC394065030E52A25E025E024ADF582E4340AF583E0FCA3E0FDA3E0FEA3E0FFE52A25E025E02434F582E4340C
:403B00000AF583127ACC052A80C9229004B4EBF0A3EAF0A3E9F090090AE064FA7003024FB19004B4E0FBA3E0FAA3E0F8AC02AD037BFF7A50793F127D0990090374FFF0A3F0
:403B40007450F0A37440F09004B4E0FBA3E0FAA3E0F912BAF390090374FFF0A37450F0A37443F09004B4E0FBA3E0FAA3E0F912BAF390090374FFF0A37450F0A37456F090B1
:403B800004B4E0FBA3E0FAA3E0F912BAF390090374FFF0A37450F0A37464F09004B4E0FBA3E0FAA3E0F912BAF390090374FFF0A37450F0A3746AF09004B4E0FBA3E0FAA314
:403BC000E0F912BAF390052074FFF0A37450F0A37478F090090AE0FF900523E4F0A3EFF07B017A0479B9128A139009037401F0A37404F0A374B9F09004B4E0FBA3E0FAA3C5
:403C0000E0F912BAF390090374FFF0A37450F0A37481F09004B4E0FBA3E0FAA3E0F912BAF3900984E0B4011E90090374FFF0A37450F0A3749CF09004B4E0FBA3E0FAA3E047
:403C4000F912BAF3801C90090374FFF0A37450F0A374A1F09004B4E0FBA3E0FAA3E0F912BAF390052074FFF0A37450F0A374A5F0900B90E0FF900523E4F0A3EFF07B017AEE
:403C80000479B9128A139009037401F0A37404F0A374B9F09004B4E0FBA3E0FAA3E0F912BAF390090374FFF0A37450F0A37440F09004B4E0FBA3E0FAA3E0F912BAF3900967
:403CC0000374FFF0A37450F0A374B5F09004B4E0FBA3E0FAA3E0F912BAF390090374FFF0A37450F0A374C2F09004B4E0FBA3E0FAA3E0F912BAF39009ECE0B4021E900903A1
:403D000074FFF0A37450F0A374D2F09004B4E0FBA3E0FAA3E0F912BAF380419009ECE0B4011E90090374FFF0A37450F0A374E0F09004B4E0FBA3E0FAA3E0F912BAF3801C68
:403D400090090374FFF0A37450F0A374E9F09004B4E0FBA3E0FAA3E0F912BAF3E49004B7F0A3F0C39004B8E094029004B7E0648094804003023EC79009ECE06402705F9054
:403D8000052074FFF0A37450F0A374F7F09004B7E0FEA3E07802C333CE33CED8F924A7F58274093EF583E0A3E0A3E0FFA3E0900523CFF0A3EFF07B017A0479B9128A139029
:403DC00009037401F0A37404F0A374B9F09004B4E0FBA3E0FAA3E0F912BAF3023EB69009ECE06401705E90052074FFF0A37450F0A374F7F09004B7E0FEA3E07802C333CEC7
:403E000033CED8F924AFF58274093EF583E0A3E0A3E0FFA3E0900523CFF0A3EFF07B017A0479B9128A139009037401F0A37404F0A374B9F09004B4E0FBA3E0FAA3E0F912FD
:403E4000BAF3807290052074FFF0A37450F0A374F7F09004B7E0FAA3E0FBAE027802C333CE33CED8F9249FF58274093EF583E0FCA3E0FDA3E0FEA3E0FF743E2BF582740936
:403E80003AF583E0F9F8127A6B900523EEF0A3EFF07B017A0479B9128A139009037401F0A37404F0A374B9F09004B4E0FBA3E0FAA3E0F912BAF39004B8E004F070069004C4
:403EC000B7E004F0023D6390090374FFF0A37450F0A37440F09004B4E0FBA3E0FAA3E0F912BAF390090374FFF0A37450F0A37440F09004B4E0FBA3E0FAA3E0F912BAF39015
:403F0000052074FFF0A37450F0A374FBF07B017A0479B9128A139009B7E05403601990090374FFF0A37451F0A3740BF07B017A0479B912BAF3801790090374FFF0A3745173
:403F4000F0A37411F07B017A0479B912BAF39009037401F0A37404F0A374B9F09004B4E0FBA3E0FAA3E0F912BAF390090374FFF0A37451F0A37416F09004B4E0FBA3E0FA93
:403F8000A3E0F912BAF390090374FFF0A37451F0A3742CF09004B4E0FBA3E0FAA3E0F912BAF3E49004B7F0A3F0C39004B8E094039004B7E064809480400302406F9005205D
:403FC00074FFF0A37451F0A3743CF09004B7E0FCA3E0FD2401FEE43C900523F0A3CEF0EDAE047802C333CE33CED8F92459F582740B3EF583E0FCA3E0FDA3E0FEA3E0FF9009
:4040000004B7E0FAA3E0243EF58274093AF583E0F9F8127A6B900525EEF0A3EFF07B017A0479B9128A139009037401F0A37404F0A374B9F09004B4E0FBA3E0FAA3E0F912A9
:40404000BAF390090374FFF0A37450F0A37440F09004B4E0FBA3E0FAA3E0F912BAF39004B8E004F070069004B7E004F0023FA990052074FFF0A37451F0A37445F0900A8D99
:40408000E0FCA3E0FDA3E0FEA3E0FF900523127ACC7B017A0479B9128A139009037401F0A37404F0A374B9F09004B4E0FBA3E0FAA3E0F912BAF390090374FFF0A37450F0B9
:4040C000A37440F09004B4E0FBA3E0FAA3E0F912BAF390052074FFF0A37451F0A37457F0900B65E0FCA3E0FDA3E0FEA3E0FF900523127ACC7B017A0479B9128A13900903EA
:404100007401F0A37404F0A374B9F09004B4E0FBA3E0FAA3E0F912BAF390090374FFF0A37450F0A37440F09004B4E0FBA3E0FAA3E0F912BAF390090374FFF0A37451F0A302
:404140007469F09004B4E0FBA3E0FAA3E0F912BAF390090374FFF0A37451F0A3747FF09004B4E0FBA3E0FAA3E0F912BAF390093DE06403700302427A90052074FFF0A37462
:4041800051F0A37491F090090BE0FCA3E0FDA3E0FEA3E0FFEC1275FFE4FBFA798078471274E9900523127ACC7B017A0479B9128A139009037401F0A37404F0A374B9F0906A
:4041C00004B4E0FBA3E0FAA3E0F912BAF390052074FFF0A37451F0A3749BF090090FE0FCA3E0FDA3E0FEA3E0FFEC1275FFE4FBFA798078471274E9900523127ACC7B017AE3
:404200000479B9128A139009037401F0A37404F0A374B9F09004B4E0FBA3E0FAA3E0F912BAF390052074FFF0A37451F0A374A5F0900913E0FCA3E0FDA3E0FEA3E0FFEC12CD
:4042400075FFE4FBFA798078471274E9900523127ACC7B017A0479B9128A139009037401F0A37404F0A374B9F09004B4E0FBA3E0FAA3E0F912BAF302437990052074FFF062
:40428000A37451F0A37491F0900923E0FCA3E0FDA3E0FEA3E0FFEC1275FFE4FBFA798078471274E9900523127ACC7B017A0479B9128A139009037401F0A37404F0A374B9BA
:4042C000F09004B4E0FBA3E0FAA3E0F912BAF390052074FFF0A37451F0A3749BF0900927E0FCA3E0FDA3E0FEA3E0FFEC1275FFE4FBFA798078471274E9900523127ACC7BC5
:40430000017A0479B9128A139009037401F0A37404F0A374B9F09004B4E0FBA3E0FAA3E0F912BAF390052074FFF0A37451F0A374A5F090092BE0FCA3E0FDA3E0FEA3E0FF37
:40434000EC1275FFE4FBFA798078471274E9900523127ACC7B017A0479B9128A139009037401F0A37404F0A374B9F09004B4E0FBA3E0FAA3E0F912BAF390090374FFF0A397
:404380007451F0A374AFF09004B4E0FBA3E0FAA3E0F912BAF390093DE0640370030244A290052074FFF0A37451F0A37491F0900917E0FCA3E0FDA3E0FEA3E0FFEC1275FFB6
:4043C000E4FBFA798078471274E9900523127ACC7B017A0479B9128A139009037401F0A37404F0A374B9F09004B4E0FBA3E0FAA3E0F912BAF390052074FFF0A37451F0A318
:40440000749BF090091BE0FCA3E0FDA3E0FEA3E0FFEC1275FFE4FBFA798078471274E9900523127ACC7B017A0479B9128A139009037401F0A37404F0A374B9F09004B4E019
:40444000FBA3E0FAA3E0F912BAF390052074FFF0A37451F0A374A5F090091FE0FCA3E0FDA3E0FEA3E0FFEC1275FFE4FBFA798078471274E9900523127ACC7B017A0479B9A8
:40448000128A139009037401F0A37404F0A374B9F09004B4E0FBA3E0FAA3E0F912BAF30245A190052074FFF0A37451F0A37491F090092FE0FCA3E0FDA3E0FEA3E0FFEC1291
:4044C00075FFE4FBFA798078471274E9900523127ACC7B017A0479B9128A139009037401F0A37404F0A374B9F09004B4E0FBA3E0FAA3E0F912BAF390052074FFF0A3745136
:40450000F0A3749BF0900933E0FCA3E0FDA3E0FEA3E0FFEC1275FFE4FBFA798078471274E9900523127ACC7B017A0479B9128A139009037401F0A37404F0A374B9F0900401
:40454000B4E0FBA3E0FAA3E0F912BAF390052074FFF0A37451F0A374A5F0900937E0FCA3E0FDA3E0FEA3E0FFEC1275FFE4FBFA798078471274E9900523127ACC7B017A042D
:4045800079B9128A139009037401F0A37404F0A374B9F09004B4E0FBA3E0FAA3E0F912BAF390090374FFF0A37450F0A37440F09004B4E0FBA3E0FAA3E0F912BAF390093B27
:4045C000E0B4031E90090374FFF0A37451F0A374C9F09004B4E0FBA3E0FAA3E0F912BAF3801C90090374FFF0A37451F0A374E3F09004B4E0FBA3E0FAA3E0F912BAF39009B3
:404600003CE014603814605314606E1470030246971470030246B5240560030246D190090374FFF0A37451F0A374FCF09004B4E0FBA3E0FAA3E0F912BAF30246D190090390
:4046400074FFF0A37452F0A3740EF09004B4E0FBA3E0FAA3E0F912BAF3807690090374FFF0A37452F0A37423F09004B4E0FBA3E0FAA3E0F912BAF3805890090374FFF0A3C1
:404680007452F0A37442F09004B4E0FBA3E0FAA3E0F912BAF3803A90090374FFF0A37452F0A3745DF09004B4E0FBA3E0FAA3E0F912BAF3801C90090374FFF0A37452F0A338
:4046C0007474F09004B4E0FBA3E0FAA3E0F912BAF390093DE014602814604314605E2403707690090374FFF0A37452F0A3748FF09004B4E0FBA3E0FAA3E0F912BAF380587E
:4047000090090374FFF0A37452F0A374A8F09004B4E0FBA3E0FAA3E0F912BAF3803A90090374FFF0A37452F0A374BCF09004B4E0FBA3E0FAA3E0F912BAF3801C900903743B
:40474000FFF0A37452F0A374D4F09004B4E0FBA3E0FAA3E0F912BAF3900982E0601E90090374FFF0A37452F0A374F9F09004B4E0FBA3E0FAA3E0F912BAF3801C90090374E3
:40478000FFF0A37453F0A3741AF09004B4E0FBA3E0FAA3E0F912BAF390052074FFF0A37453F0A3743AF0900983E0FE3395E0900523F0A3CEF07B017A0479B9128A139009E2
:4047C000037401F0A37404F0A374B9F09004B4E0FBA3E0FAA3E0F912BAF390090374FFF0A37453F0A37453F09004B4E0FBA3E0FAA3E0F912BAF3E49004B7F0A3F0C3900414
:40480000B8E094039004B7E064809480400302489990052074FFF0A37451F0A3743CF09004B7E0FCA3E0FD2401FEE43C900523F0A3CEF0743E2DF58274093CF583E0FF9064
:404840000525E4F0A3EFF07B017A0479B9128A139009037401F0A37404F0A374B9F09004B4E0FBA3E0FAA3E0F912BAF390090374FFF0A37450F0A37440F09004B4E0FBA3D3
:40488000E0FAA3E0F912BAF39004B8E004F070069004B7E004F00247FD90090374FFF0A37453F0A37468F09004B4E0FBA3E0FAA3E0F912BAF3E49004B7F0A3F0C39004B884
:4048C000E094039004B7E064809480400302498090052074FFF0A37453F0A3747EF09004B7E0FCA3E0FD2401FEE43C900523F0A3CEF0EDAE047802C333CE33CED8F9244112
:40490000F58274093EF583E0FCA3E0FDA3E0FEA3E0FF9004B7E0FAA3E0243EF58274093AF583E0F9F8127A6B900525127ACC7B017A0479B9128A139009037401F0A37404ED
:40494000F0A374B9F09004B4E0FBA3E0FAA3E0F912BAF390090374FFF0A37450F0A37440F09004B4E0FBA3E0FAA3E0F912BAF39004B8E004F070069004B7E004F00248BC79
:4049800090090374FFF0A37453F0A37488F09004B4E0FBA3E0FAA3E0F912BAF3E49004B7F0A3F0C39004B8E094039004B7E0648094804003024A5190052074FFF0A3745377
:4049C000F0A374A2F09004B7E0FCA3E0FD2401FEE43C900523F0A3CEF0EDAE047802C333CE33CED8F9244DF58274093EF583E0FCA3E0FDA3E0FEA3E0FF900525127ACC7B75
:404A0000017A0479B9128A139009037401F0A37404F0A374B9F09004B4E0FBA3E0FAA3E0F912BAF390090374FFF0A37450F0A37440F09004B4E0FBA3E0FAA3E0F912BAF3F7
:404A40009004B8E004F070069004B7E004F00249A390090374FFF0A37453F0A374ABF09004B4E0FBA3E0FAA3E0F912BAF390052074FFF0A37453F0A374C3F0900985E0FC77
:404A8000A3E0FDA3E0FEA3E0FF900523127ACC900989E0FCA3E0FDA3E0FEA3E0FF900527127ACC90098DE0FCA3E0FDA3E0FEA3E0FF90052B127ACC7B017A0479B9128A1356
:404AC0009009037401F0A37404F0A374B9F09004B4E0FBA3E0FAA3E0F912BAF390052074FFF0A37453F0A374DCF0900991E0FCA3E0FDA3E0FEA3E0FF900523127ACC900988
:404B000095E0FCA3E0FDA3E0FEA3E0FF900527127ACC900999E0FCA3E0FDA3E0FEA3E0FF90052B127ACC7B017A0479B9128A139009037401F0A37404F0A374B9F09004B4D5
:404B4000E0FBA3E0FAA3E0F912BAF390090374FFF0A37450F0A37440F09004B4E0FBA3E0FAA3E0F912BAF390052074FFF0A37453F0A374F5F0900A08E0FF900523E4F0A30C
:404B8000EFF07B017A0479B9128A139009037401F0A37404F0A374B9F09004B4E0FBA3E0FAA3E0F912BAF390090374FFF0A37450F0A37440F09004B4E0FBA3E0FAA3E0F9DB
:404BC00012BAF3E49004B7F0A3F0C39004B8E094019004B7E0648094804003024CE290052074FFF0A37454F0A3740FF09004B7E0FCA3E0FD2401FEE43C900523F0A3CEF0AE
:404C0000EDAE047802C333CE33CED8F92409F582740A3EF583E0FCA3E0FDA3E0FEA3E0FF9004B7E0FAA3E024EDF58274093AF583E0F9F8127A6B900525127ACC7B017A045B
:404C400079B9128A139009037401F0A37404F0A374B9F09004B4E0FBA3E0FAA3E0F912BAF390052074FFF0A37454F0A37435F09004B7E0FAA3E0FBAE027802C333CE33CE6B
:404C8000D8F92411F582740A3EF583E0FCA3E0FDA3E0FEA3E0FF74ED2BF58274093AF583E0F9F8127A6B900523127ACC7B017A0479B9128A139009037401F0A37404F0A350
:404CC00074B9F09004B4E0FBA3E0FAA3E0F912BAF39004B8E004F070069004B7E004F0024BCA90052074FFF0A37454F0A37442F0900A19E0A3E0A3E0FFA3E0900523CFF0A2
:404D0000A3EFF0900A1DE0A3E0A3E0FFA3E0900525CFF0A3EFF07B017A0479B9128A139009037401F0A37404F0A374B9F09004B4E0FBA3E0FAA3E0F912BAF390090374FF46
:404D4000F0A37450F0A37440F09004B4E0FBA3E0FAA3E0F912BAF390052074FFF0A37454F0A3745EF0900A21E0FFA3E0900523CFF0A3EFF07B017A0479B9128A1390090365
:404D80007401F0A37404F0A374B9F09004B4E0FBA3E0FAA3E0F912BAF390090374FFF0A37450F0A37440F09004B4E0FBA3E0FAA3E0F912BAF390052074FFF0A37454F0A35A
:404DC0007470F0900A23E0FFA3E0900523CFF0A3EFF0900A25E0FFA3E0900525CFF0A3EFF07B017A0479B9128A139009037401F0A37404F0A374B9F09004B4E0FBA3E0FA64
:404E0000A3E0F912BAF390090374FFF0A37450F0A37440F09004B4E0FBA3E0FAA3E0F912BAF390052074FFF0A37454F0A37492F0900A28E0FCA3E0FDA3E0FEA3E0FF9005FD
:404E400023127ACC900A2CE0FCA3E0FDA3E0FEA3E0FF900527127ACC7B017A0479B9128A139009037401F0A37404F0A374B9F09004B4E0FBA3E0FAA3E0F912BAF390090360
:404E800074FFF0A37450F0A37440F09004B4E0FBA3E0FAA3E0F912BAF3900A27E0601E90090374FFF0A37454F0A374B6F09004B4E0FBA3E0FAA3E0F912BAF3801C900903CD
:404EC00074FFF0A37454F0A374D1F09004B4E0FBA3E0FAA3E0F912BAF390052074FFF0A37454F0A374EBF0900A30E0FF900523E4F0A3EFF07B017A0479B9128A13900903AE
:404F00007401F0A37404F0A374B9F09004B4E0FBA3E0FAA3E0F912BAF390090374FFF0A37450F0A37440F09004B4E0FBA3E0FAA3E0F912BAF390052074FFF0A37454F0A3D8
:404F400074FDF0900A89E0F8A3E0F9A3E0FAA3E0FB900B48E0FCA3E0FDA3E0FEA3E0C39BFFEE9AFEED99FDEC98FC900523127ACC7B017A0479B9128A139009037401F0A3A6
:404F80007404F0A374B9F09004B4E0FBA3E0FAA3E0F912BAF390090374FFF0A37450F0A37440F09004B4E0FBA3E0FAA3E0F912BAF322205945530000204E4F00002055739E
:404FC0006200002048616E646C65000020454D472070726F706F7274696F6E616C000020454D4720696E74656772616C000020454D472046434653000020454D4720464355
:40500000465320416476616E636564000020506F736974696F6E00002050574D00002043757272656E74000020506F736974696F6E20616E642043757272656E740000004A
:405040000D0A004669726D776172652076657273696F6E3A200053482D50524F2076362E312E32002E0D0A0D0A0044455649434520494E464F0D0A0049443A2025640D0A22
:405080000050574D2072657363616C696E672061637469766174696F6E3A20005945530A004E4F0A0050574D204C696D69743A2025640D0A004D4F544F5220494E464F0DDF
:4050C0000A004D6F746F72207265666572656E636500202D2043757272656E74733A2000202D2050776D3A2000202D20506F736974696F6E3A2000256420004D6F746F72D8
:4051000020656E61626C65643A20005945530D0A004E4F0D0A000D0A4D4541535552454D454E545320494E464F0D0A0053656E736F722076616C75653A0D0A002564202D7D
:405140003E20256400566F6C7461676520286D56293A20256C640043757272656E7420286D41293A20256C64000D0A44455649434520504152414D45544552530D0A005060
:40518000494420436F6E74726F6C6C65723A0D0A0050202D3E20256620200049202D3E20256620200044202D3E2025660D0A0043757272656E742050494420436F6E7472B1
:4051C0006F6C6C65723A0D0A00537461727475702061637469766174696F6E3A205945530D0A00537461727475702061637469766174696F6E3A204E4F0D0A00496E7075AA
:4052000074206D6F64653A205553420D0A00496E707574206D6F64653A2048616E646C650D0A00496E707574206D6F64653A20454D472070726F706F7274696F6E616C0DEA
:405240000A00496E707574206D6F64653A20454D4720696E74656772616C0D0A00496E707574206D6F64653A20454D4720464346530D0A00496E707574206D6F64653A20FF
:40528000454D472046434653204144560D0A00436F6E74726F6C206D6F64653A20506F736974696F6E0D0A00436F6E74726F6C206D6F64653A2050574D0D0A00436F6E74B6
:4052C000726F6C206D6F64653A2043757272656E740D0A00436F6E74726F6C206D6F64653A20506F736974696F6E20616E642043757272656E740D0A004162736F6C7574AC
:405300006520656E636F64657220706F736974696F6E3A205945530D0A004162736F6C75746520656E636F64657220706F736974696F6E3A204E4F0D0A004D6F746F722DF1
:4053400048616E646C6520526174696F3A2025640D0A0053656E736F72207265736F6C7574696F6E3A0D0A004D6561737572656D656E74204F66667365743A0D0A002564A2
:40538000202D3E20256C64004D6561737572656D656E74204D756C7469706C6965723A0D0A002564202D3E2025660043757272656E74206C6F6F6B7570207461626C653A71
:4053C0000D0A00705B305D202D20705B325D3A2025662C2025662C2025660A00705B335D202D20705B355D3A2025662C2025662C2025660A00506F736974696F6E206C69CE
:405400006D6974206163746976653A20256400506F736974696F6E206C696D6974206D6F746F722025643A20696E66202D3E20256C64202000737570202D3E20256C640D99
:405440000A004D6178207374657020706F7320616E64206E65673A2025642025640043757272656E74206C696D69743A20256400454D47207468726573686F6C6473205BBC
:4054800030202D20313032345D3A2025752C20257500454D47206D61782076616C756573205B30202D20343039365D3A20256C752C20256C750043616C6962726174696F6E
:4054C0006E20656E61626C65643A205945530D0A0043616C6962726174696F6E20656E61626C65643A204E4F0D0A00454D47206D61782073706565643A2025640064656212
:4055000075673A20256C6400000000000000000000000000000000000000000000000000000000000000000000000000000000000000000000000000000000000000000040
:40554000000000000000000000000000000000000000000000000000000000000000000000000000000000000000000000000000000000000000000000000000000000002B
:4055800000000000000000000000000000000000000000000000000000000000000000000000000000000000000000000000000000000000000000000000000000000000EB
:4055C00000000000000000000000000000000000000000000000000000000000000000000000000000000000000000000000000000000000000000000000000000000000AB
:40560000000000000000000000000000000000000000000000000000000000000000000000000000000000000000000000000000000000000000000000000000000000006A
:405FC0000000000000000031202D204465766963652049443A0032202D20506F736974696F6E20504944205B502C20492C20445D3A0033202D2043757272656E7420504918
:4060000044205B502C20492C20445D3A0034202D20537461727475702041637469766174696F6E3A000000000035202D20496E707574206D6F64653A0000000000000000E4
:40604000000000000000000000000036202D20436F6E74726F6C206D6F64653A0000000000000000000000000000000000000000000037202D205265736F6C7574696F6EC5
:40608000733A0038202D204D6561737572656D656E74204F6666736574733A0039202D204D756C7469706C696572733A003130202D20506F732E206C696D69742061637495
:4060C0006976653A00000000003131202D20506F732E206C696D697473205B696E662C207375705D3A003132202D204D6178207374657073205B6E65672C20706F735D3A1F
:40610000003133202D2043757272656E74206C696D69743A003134202D20454D472063616C6962726174696F6E206F6E20737461727475703A00000000003135202D20455D
:406140004D47207468726573686F6C64733A003136202D20454D47206D61782076616C7565733A003137202D20454D47206D61782073706565643A003138202D2041627389
:406180006F6C75746520656E636F64657220706F736974696F6E3A00000000003139202D204D6F746F722068616E646C6520726174696F3A003230202D2050574D20726540
:4061C0007363616C696E673A00000000003231202D2043757272656E74206C6F6F6B75703A0030202D3E205573620A31202D3E2048616E646C650A32202D3E20454D4720C6
:4062000070726F706F7274696F6E616C0A33202D3E20454D4720496E74656772616C0A34202D3E20454D4720464346530A35202D3E20454D47204643465320416476616E0B
:406240006365640A0030202D3E20506F736974696F6E0A31202D3E2050574D0A32202D3E2043757272656E740A33202D3E20506F736974696F6E20616E6420437572726563
:406280006E740A0030202D3E2044656163746976617465205B4E4F5D0A31202D3E204163746976617465205B5945535D0A00E4F526F525F524F52390090BE0FCA3E0FDA3D1
:4062C000E0FEA3E0F5428E418D408C3FA3E0FCA3E0FDA3E0FEA3E0F5468E458D448C43A3E0FCA3E0FDA3E0FEA3E0F54A8E498D488C47A3E0FCA3E0FDA3E0FEA3E0F54E8E59
:406300004D8D4C8C4BA3E0FCA3E0FDA3E0FEA3E0F5528E518D508C4FA3E0FCA3E0FDA3E0FEA3E0F5568E558D548C53A3E0FCA3E0FDA3E0FEA3E0F55A8E598D588C57A3E00A
:40634000FCA3E0FDA3E0FEA3E0F55E8E5D8D5C8C5BA3E0FCA3E0FDA3E0FEA3E0F5628E618D608C5FA3E0FCA3E0FDA3E0FEA3E0F5668E658D648C63A3E0FCA3E0FDA3E0FEBD
:40638000A3E0F56A8E698D688C67A3E0FCA3E0FDA3E0FEA3E0F56E8E6D8D6C8C6B900974E0FEA3E0FFFBAA06E4900B70E0FCA3E0FDA3E0FEA3E0C39BF53AEE9AF539ED94A0
:4063C00000F538EC9400F537900976E0FEA3E0FFFBAA06E4900B74E0FCA3E0FDA3E0FEA3E0C39BF53EEE9AF53DED9400F53CEC9400F53B90093CE024FE7003026563147012
:40640000030265C11470030266B6147003026819240460030269B0900982E06024A3E0FF3395E0FEFDFC900B61E0F8A3E0F9A3E0FAA3E0FB1278F98F368E358D348C3380E6
:4064400024900983E0FF3395E0FEFDFC900B5DE0F8A3E0F9A3E0FAA3E0FB1278F98F368E358D348C3390099FE0F8A3E0F9A3E0FAA3E0FBC3E5369BFFE5359AFEE53499FD2C
:40648000E53398FC90096AE0F8A3E0F9A3E0FAA3E0FBC3127A315044E4FFFEFDFC90096AE0F8A3E0A3E0A3E0C3127A31602E90099FE0FCA3E0FDA3E0FEA3E0FF90096AE004
:4064C000F8A3E0A3E0A3E0EF2BFFEE3AFEED39FDEC38FC90099F127ACC0269B090099FE0F8A3E0F9A3E0FAA3E0FBC3E5369BFFE5359AFEE53499FDE53398FC90096EE0F803
:40650000A3E0F9A3E0FAA3E0FBD3127A314043E4FFFEFDFC90096EE0F8A3E0A3E0A3E0127A31602E90099FE0FCA3E0FDA3E0FEA3E0FF90096EE0F8A3E0A3E0A3E0EF2BFF2C
:40654000EE3AFEED39FDEC38FC90099F127ACC0269B0AF36AE35AD34AC3390099F127ACC0269B0E4FFFEFDFCAB3AAA39A938A837D3127A31403D900A11E0FCA3E0FDA3E0DB
:40658000FEA3E0FFA8371278F9C006C007900974E0FEA3E0FFC3E49FFF74049EFEAB07FAE4F9F8D007D00612BFD290099F127ACC0269B0E4FFFEFDFC90099F127ACC026955
:4065C000B0900A91E0FCA3E0FDA3E0FEA3E0FF90099F127ACCE4FFFEFDFCAB3AAA39A938A837D3127A314056900A30E0FFE4FCFDFEA8371278F9E47B02FAF9F81278F9C0D4
:4066000006C007900974E0FEA3E0FFC3E49FFF74049EFEAB07FAE4F9F8D007D00612BFD2900A91E0F8A3E0F9A3E0FAA3E02FFFEA3EFEE93DFDE83CFC90099F127ACCE4FF6D
:40664000FEFDFCAB3EAA3DA93CA83BD3127A3150030269B0900A30E0FFE4FCFDFEA83B1278F9E47B02FAF9F81278F9C006C007900976E0FEA3E0FFC3E49FFF74049EFEABD4
:4066800007FAE4F9F8D007D00612BFD2A804A905AA06AB07900A91E0FCA3E0FDA3E0FEA3E0C39BFFEE9AFEED99FDEC98FC90099F127ACC0269B0900A91E0FCA3E0FDA3E0D2
:4066C000FEA3E0FF90099F127ACC900C29E0146048147003026793240260030269B0E4FFFEFDFCAB3AAA39A938A837D3127A314009900C297401F00269B0E4FFFEFDFCABFD
:406700003EAA3DA93CA83BD3127A3150030269B0900C297402F00269B0E4FFFEFDFCAB3AAA39A938A837C3127A315008E4900C29F00269B0900A30E0FFE4FCFDFEAB3AAA27
:4067400039A938A8371278F9E47B02FAF9F81278F9C006C007900974E0FEA3E0FFC3E49FFF74049EFEAB07FAE4F9F8D007D00612BFD2900A91E0F8A3E0F9A3E0FAA3E02FFC
:40678000FFEA3EFEE93DFDE83CFC90099F127ACC0269B0E4FFFEFDFCAB3EAA3DA93CA83BC3127A315008E4900C29F00269B0900A30E0FFE4FCFDFEAB3EAA3DA93CA83B129A
:4067C00078F9E47B02FAF9F81278F9C006C007900976E0FEA3E0FFC3E49FFF74049EFEAB07FAE4F9F8D007D00612BFD2A804A905AA06AB07900A91E0FCA3E0FDA3E0FEA3CC
:40680000E0C39BFFEE9AFEED99FDEC98FC90099F127ACC0269B00269B0900A91E0FCA3E0FDA3E0FEA3E0FF90099F127ACC900C29E014604814700302691524026003026956
:40684000B0E4FFFEFDFCAB3AAA39A938A837D3127A314009900C297401F00269B0E4FFFEFDFCAB3EAA3DA93CA83BD3127A3150030269B0900C297402F00269B0E4FFFEFD54
:40688000FCAB3AAA39A938A837C3127A31501BE4FFFEFDFCAB3EAA3DA93CA83BC3127A315008E4900C29F00269B0E4FFFEFDFCAB3AAA39A938A837D3127A3150030269B00B
:4068C000900A30E0FFE4FCFDFEA8371278F97802127A7FC006C007900974E0FEA3E0FFC3E49FFF74049EFEAB07FAE4F9F8D007D00612BFD2900A91E0F8A3E0F9A3E0FAA36A
:40690000E02FFFEA3EFEE93DFDE83CFC90099F127ACC0269B0E4FFFEFDFCAB3AAA39A938A837C3127A31501AE4FFFEFDFCAB3EAA3DA93CA83BC3127A315007E4900C29F007
:40694000806EE4FFFEFDFCAB3EAA3DA93CA83BD3127A31405B900981E0FFE4FCFDFEA83B1278F97802127A7FC006C007900976E0FEA3E0FFC3E49FFF74049EFEAB07FAE4E8
:40698000F9F8D007D00612BFD2A804A905AA06AB07900A91E0FCA3E0FDA3E0FEA3E0C39BFFEE9AFEED99FDEC98FC90099F127ACC900959E0606AA3E0FCA3E0FDA3E0FEA31A
:4069C000E0FF90099FE0F8A3E0F9A3E0FAA3E0FBC3127A31501490095AE0FCA3E0FDA3E0FEA3E0FF90099F127ACC900962E0FCA3E0FDA3E0FEA3E0FF90099FE0F8A3E0F985
:406A0000A3E0FAA3E0FBD3127A314014900962E0FCA3E0FDA3E0FEA3E0FF90099F127ACC90093DE07003026E0B1470030271C5147003026F99146003027233900B59E0F8AF
:406A4000A3E0F9A3E0FAA3E0FB90099FE0FCA3E0FDA3E0FEA3E0C39BF52AEE9AF529ED99F528EC98F527900C19E0FCA3E0FDA3E0FEA3E0252AFFEE3529FEED3528FDEC358C
:406A800027FC900C19127ACC7F807EF07DFA7C02900C19E0F8A3E0F9A3E0FAA3E0FBD3127A3140107F807EF07DFA7C02900C19127ACC802A7F807E0F7D057CFD900C19E02B
:406AC000F8A3E0F9A3E0FAA3E0FBC3127A31500E7F807E0F7D057CFD900C19127ACCE4F532F531F530F52FFFFEFDFCAB5AAA59A958A857C3127A316026AF2AAE29AD28AC06
:406B000027A8571278F97810127A6BE5322FF532E5313EF531E5303DF530E52F3CF52FE4FFFEFDFCAB5EAA5DA95CA85BC3127A31602C900C19E0FCA3E0FDA3E0FEA3E0FF49
:406B4000A85B1278F97810127A6BE5322FF532E5313EF531E5303DF530E52F3CF52FE4FFFEFDFCAB62AA61A960A85FC3127A316043900C21E0F8A3E0F9A3E0FAA3E0FBC34A
:406B8000E52A9BFFE5299AFEE52899FDE52798FCAB62AA61A960A85F1278F97810127A6BE5322FF532E5313EF531E5303DF530E52F3CF52FAF2AAE29AD28AC27900C211220
:406BC0007ACCE4FFFEFDFCAB32AA31A930A82FC3127A314004D20E8002C20E900972E0FEA3E0FFEE3395E0FDFCAB32AA31A930A82FD3127A314016900972E0FEA3E0FFEE76
:406C00003395E08F328E31F530F52F803C900972E0FEA3E0FFC3E49FFFE49EFE3395E0FDFCAB32AA31A930A82FC3127A31501A900972E0FEA3E0FFC3E49FFFE49EFE33950C
:406C4000E08F328E31F530F52F900B65E0F8A3E0F9A3E0FAA3E0FBC3E5329BF52EE5319AF52DE53099F52CE52F98F52B900C1DE0FCA3E0FDA3E0FEA3E0252EFFEE352DFE5E
:406C8000ED352CFDEC352BFC900C1D127ACC7FA07E867D017C00900C1DE0F8A3E0F9A3E0FAA3E0FBD3127A3140107FA07E867D017C00900C1D127ACC802A7F607E797DFE02
:406CC0007CFF900C1DE0F8A3E0F9A3E0FAA3E0FBC3127A31500E7F607E797DFE7CFF900C1D127ACCE4F526F525F524F523FFFEFDFCAB66AA65A964A863C3127A316026AF29
:406D00002EAE2DAD2CAC2BA8631278F97810127A6BE5262FF526E5253EF525E5243DF524E5233CF523E4FFFEFDFCAB6AAA69A968A867C3127A31602C900C1DE0FCA3E0FDD8
:406D4000A3E0FEA3E0FFA8671278F97810127A6BE5262FF526E5253EF525E5243DF524E5233CF523E4FFFEFDFCAB6EAA6DA96CA86BC3127A316043900C25E0F8A3E0F9A380
:406D8000E0FAA3E0FBC3E52E9BFFE52D9AFEE52C99FDE52B98FCAB6EAA6DA96CA86B1278F97810127A6BE5262FF526E5253EF525E5243DF524E5233CF52374FF7F9CFEFDC1
:406DC000FCAB26AA25A924A823C3127A31500D74FF75269CF525F524F523801EE47F64FEFDFCAB26AA25A924A823D3127A31400AE4752664F525F524F523AF2EAE2DAD2C60
:406E0000AC2B900C25127ACC027233900B59E0F8A3E0F9A3E0FAA3E0FB90099FE0FCA3E0FDA3E0FEA3E0C39BF52AEE9AF529ED99F528EC98F527900C19E0FCA3E0FDA3E0E6
:406E4000FEA3E0252AFFEE3529FEED3528FDEC3527FC900C19127ACCE47FE87E03FDFC900C19E0F8A3E0F9A3E0FAA3E0FBD3127A31400FE47FE87E03FDFC900C19127ACCE7
:406E8000802A7F187EFC7DFF7CFF900C19E0F8A3E0F9A3E0FAA3E0FBC3127A31500E7F187EFC7DFF7CFF900C19127ACCE4FFFEFDFCAB42AA41A940A83FC3127A31601AAFFE
:406EC0002AAE29AD28AC27A83F1278F97810127A6B8F268E258D248C23E4FFFEFDFCAB46AA45A944A843C3127A31602C900C19E0FCA3E0FDA3E0FEA3E0FFA8431278F978A0
:406F000010127A6BE5262FF526E5253EF525E5243DF524E5233CF523E4FFFEFDFCAB4AAA49A948A847C3127A316043900C21E0F8A3E0F9A3E0FAA3E0FBC3E52A9BFFE5298D
:406F40009AFEE52899FDE52798FCAB4AAA49A948A8471278F97810127A6BE5262FF526E5253EF525E5243DF524E5233CF523AF2AAE29AD28AC27900C21127ACCE4FFFEFDAF
:406F8000FCAB26AA25A924A823D3127A314005D20E027233C20E0272339009B7E07003027233200D030272339009A7E0FCA3E0FDA3E0FEA3E0F5328E318D308C2F900972A0
:406FC000E0FEA3E0FFEE3395E0FDFCAB32AA31A930A82FD3127A314016900972E0FEA3E0FFEE3395E08F328E31F530F52F803C900972E0FEA3E0FFC3E49FFFE49EFE3395D6
:40700000E0FDFCAB32AA31A930A82FC3127A31501A900972E0FEA3E0FFC3E49FFFE49EFE3395E08F328E31F530F52F900B65E0F8A3E0F9A3E0FAA3E0FBC3E5329BF52EE5B8
:40704000319AF52DE53099F52CE52F98F52B900C1DE0FCA3E0FDA3E0FEA3E0252EFFEE352DFEED352CFDEC352BFC900C1D127ACC7FA07E867D017C00900C1DE0F8A3E0F901
:40708000A3E0FAA3E0FBD3127A3140107FA07E867D017C00900C1D127ACC802A7F607E797DFE7CFF900C1DE0F8A3E0F9A3E0FAA3E0FBC3127A31500E7F607E797DFE7CFF9F
:4070C000900C1D127ACCE4F526F525F524F523FFFEFDFCAB4EAA4DA94CA84BC3127A316026AF2EAE2DAD2CAC2BA84B1278F97810127A6BE5262FF526E5253EF525E5243D07
:40710000F524E5233CF523E4FFFEFDFCAB52AA51A950A84FC3127A31602C900C1DE0FCA3E0FDA3E0FEA3E0FFA84F1278F97810127A6BE5262FF526E5253EF525E5243DF509
:4071400024E5233CF523E4FFFEFDFCAB56AA55A954A853C3127A316043900C25E0F8A3E0F9A3E0FAA3E0FBC3E52E9BFFE52D9AFEE52C99FDE52B98FCAB56AA55A954A8532D
:407180001278F97810127A6BE5262FF526E5253EF525E5243DF524E5233CF523AF2EAE2DAD2CAC2B900C25127ACCE4FFFEFDFCAB26AA25A924A823C3127A314004D20E80A4
:4071C00072C20E806E9009AFE0FCA3E0FDA3E0FEA3E0F5268E258D248C23E4FFFEFDFCAB26AA25A924A823D3127A314004D20E8002C20E74FF7F9CFEFDFCAB26AA25A9247F
:40720000A823C3127A31500D74FF75269CF525F524F523801EE47F64FEFDFCAB26AA25A924A823D3127A31400AE4752664F525F524F523E47F64FEFDFCAB26AA25A924A842
:4072400023D3127A31400AE4752664F525F524F52374FF7F9CFEFDFCAB26AA25A924A823C3127A31500B74FF75269CF525F524F52390093DE064016037AF26AE25AD24AC7F
:4072800023780A127A7FE47B64FAF9F812BFD2A804A905AA06AB07900B90E0FFE4FCFDFE1278F9780A127A6B8F268E258D248C23E4FFFEFDFCAB26AA25A924A823C3127A07
:4072C0003140047F0180027FFF900B58EFF0300E077F0112CB648005E4FF12CB64AE25AF2612CA4012CB4C220276A9E86480F8E933E83360110460F0ED33EC337009E8FC8C
:40730000E9FDEAFEEBFF220460DED3EB9FEA9EE99DE8C2E78CF0C2F795F0400CE8CCF8E9CDF9EACEFAEBCFFB12767485D0F05804700320D5B3E80470075002B2D50276B34E
:4073400092D5EC0460F7E4CCC0E0C398F8603B94186008400DD0E0FB02768BE4FBFAC9FC8028E830E406E4C9FBE4CAFCE830E305E4C9CACBFCE854076010F8C3E913F9EAED
:4073800013FAEB13FBEC13FCD8F130F52FC3E49CFCEF9BFFEE9AFEED99FDD0E0FBEF4E4D4C701222DB030276B0EC2CFCEF33FFEE33FEED33FDED30E7EB02768BEF2BFFEE49
:4073C0003AFEED39FDD0E0FB50130BBB00030276B3ED13FDEE13FEEF13FFEC13FC02768BEC4D6011E8497017ED33EC3304600DE4FCFFFEFD22E933E8330470F80276A91251
:40740000767458046009E4CC248150062850090276B32840030276B0C0E0EB4A7044B98006D0E0FB02769FEF4E701CBD8008EBFFEAFEE9FD80EBE98DF0A4FEE5F00274C9DC
:40744000E9CDF9EAFEEBFFEF89F0A4FCE5F0CE89F0A42EFFE435F0CD89F0A42DFEE435F08067EF4E7005BD80D780C3EF8BF0A4ACF0EE8BF0A42CFCE435F0F8EF8AF0A42C66
:40748000E5F038FCE433CB8DF0A42CFCE5F03BF8EE8AF0A42CFCE5F038F8E433CF89F0A42CFCE5F038CF3400CE89F0A42FFFE5F03EFEE433C98DF0A42EFEE5F039CD8AF070
:4074C000A42FFFE5F03EFEE43DFD33D0E0FB50070BBB000F0276B3EC2CFCEF33FFEE33FEED33FD02768B0276B3EC5D046005E8590470030276A9127674580460F6EC4860EA
:40750000F2EC7004FDFEFF22C860DB2481C85009C398600250060276B09850CAF582E9294B4A7005AB8202769F75F0007C1A7880C3EF9BEE9AED99400DC3EF9BFFEE9AFEE3
:40754000ED99FDE842F0DC23ACF0D0E0FFD0E0FED0E0FDAB8220E7101BEB60BAEC2CFCEF33FFEE33FEED33FD02768BE803F830E705C0F075F000EF2FFFEE33FEED33FD4044
:40758000B830E7C280AA74F8CC6480CCC86480C8F58204604FC3EB9FF5F0EA9E42F0E99D42F0E89C45F0603C501DE5825FFFE582D313CB5BCBF42B5582FB50280ABA0024D0
:4075C00009B9002008801DE5825BFBE582D313CF5FCFF4C3132F5582FF50090EBE00050DBD00010CC3EB9FF5F0EA9E42F0E99D42F0E89C45F06007CC4820E701B3EC227517
:40760000F020800E75F010800575F0087D007E007F003392D530D503127A23EC334010EF33FFEE33FEED33FDEC33FCD5F0ED22E5F0247EA2D513CC92E7CDCEFF22EDD2E717
:40764000CD33EC3392D524814006E4FFFEFDFC22FCE4CFCECDCC24E0501174FF80EDC3CC13CCCD13CDCE13CECF13CF0470F030D5DE027A23E9D2E7C933E833F892D5EDD20A
:40768000E7CD33EC33FC5002B2D522EC30E7100FBF000C0EBE00080DBD00040BEB6014A2D5EB13FCED92E7FD2274FFFCFDFEFF22E480F8A2D574FF13FC7D80E480EFF92095
:4076C000E73624F950037907E4F42402FBE582158270021583DBF6E024FB501BE96014E4F0E582158270021583E004F0B40A08E4F0D9EE7401F00A22C2D522ED33EC3392B8
:40770000D5FA602AB4FF33EDC2E77BFF60067A777920E4227A77792920D5047A777924224E614E002B494E46002D494E4600E47A08F0A3DAFC7B00740722C083C082ECC0A1
:40774000E0EDC0E0EEC0E0EFC0E0EA75F010A4CAABF075F04DA42BFBE435F0FCEA2410FAEB34C5FBEC34D9FCEDC2E7FF75F056A4F42411C5F0F434C58FF0A42AE5F03BE4AA
:407780003CF020E714127830D0E0FFD0E0FED0E0FDD0E0FC1274E98014F404127830D0E0FFD0E0FED0E0FDD0E0FC1273E0D082D083E0FAEDD2E7CD33EC332482FBE4C3CFE7
:4077C00033CFCE33CECD33CD33DBF37B0775F00A846004F0A31B0AE5F0F0A38FF0740AA4FFACF08EF0740AA42CFEACF050010C8DF0740AA42CFDE435F0F0A3DBDE74072238
:407800003F8000004120000042C80000447A0000461C400047C35000497424004B1896804CBEBC205A0E1BCA6753C21C749DC5AEFB60065407601C232312785EEB5438607E
:407840000912784A1278591273E0ECF8EDF9EEFAEFCB22EB12785980F1543803241C907800FE93FC0EEE93FD0EEE930ECE93FF22BB010689828A83E0225002E722BBFE0215
:40788000E32289828A83E49322BB010CE58229F582E5833AF583E0225006E92582F8E622BBFE06E92582F8E222E58229F582E5833AF583E49322BB010689828A83F0225000
:4078C00002F722BBFE01F322EF8DF0A4A8F0CF8CF0A428CE8DF0A42EFE22BB010A89828A83F0E5F0A3F0225006F709A7F01922BBFE06F3E5F009F31922E88FF0A4CC8BF012
:40790000A42CFCE98EF0A42CFC8AF0EDA42CFCEA8EF0A4CDA8F08BF0A42DCC3825F0FDE98FF0A42CCD35F0FCEB8EF0A4FEA9F0EB8FF0A4CFC5F02ECD39FEE43CFCEAA42DDD
:40794000CE35F0FDE43CFC2275F008758200EF2FFFEE33FECD33CDCC33CCC58233C5829BED9AEC99E58298400CF582EE9BFEED9AFDEC99FC0FD5F0D6E4CEFBE4CDFAE4CC39
:40798000F9A88222B800C1B90059BA002DEC8BF084CFCECDFCE5F0CBF97818EF2FFFEE33FEED33FDEC33FCEB33FB10D703994004EB99FB0FD8E5E4F9FA227818EF2FFFEE63
:4079C00033FEED33FDEC33FCC933C910D7059BE99A4007EC9BFCE99AF90FD8E0E4C9FAE4CCFB2275F010EF2FFFEE33FEED33FDCC33CCC833C810D7079BEC9AE899400AEDAB
:407A00009BFDEC9AFCE899F80FD5F0DAE4CDFBE4CCFAE4C8F922CFF4CFCEF4CECDF4CDCCF4CC22C3E49FFFE49EFEE49DFDE49CFC22EB9FF5F0EA9E42F0E99D42F0EC6480F8
:407A4000C864809845F022EB9FF5F0EA9E42F0E99D42F0E89C45F022E8600FECC313FCED13FDEE13FEEF13FFD8F122E86010ECA2E713FCED13FDEE13FEEF13FFD8F022E807
:407A8000600FEFC333FFEE33FEED33FDEC33FCD8F122BB010789828A83027D5E5005E9F8027D52BBFE05E9F8027D6A89828A83027D76BB010789828A83027ACC5005E9F884
:407AC000027D86BBFE05E9F8027D9222ECF0A3EDF0A3EEF0A3EFF022F8E0FBA3A3E0F925F0F0E582158270021583E0FA38F022EBF0A3EAF0A3E9F022D083D082F8E4937091
:407B000012740193700DA3A393F8740193F5828883E4737402936860EFA3A3A380DFE5112582F582E5103583F583B510048582112210AF06858211F51022858211F510D2C5
:407B4000AF22EC8EF0A4CCC5F0CCCDF8EFA4CEC5F02DFDE43CFCE8A42EC8C5F03DFDE43CFCEFA4FFE5F028FEE43DFDE43CFC22E709F608DFFA8046E709F208DFFA803E88AC
:407B8000828C83E709F0A3DFFA8032E309F608DFFA806EE309F208DFFA806688828C83E309F0A3DFFA805A89828A83E0A3F608DFFA804E89828A83E0A3F208DFFA80428095
