:1026000002C8CB008F828E83E0540100000070F876
:102610002278FFE4F6D8FD02C959900002EEF0A33B
:10262000EFF078047C007D017BFF7A4C79DE7E0739
:102630007F6D12895C9007717407F0A3746DF07858
:10264000787C077D017BFF7A54794B7E007F0F12E7
:10265000895C78877C077D017BFF7A54795A7E00FC
:102660007F1C12895C78A37C077D017BFF7A5479FB
:10267000767E007F1B12895C78BE7C077D017BFF24
:102680007A5479917E007F1C12895C78DA7C077D10
:10269000017BFF7A5479AD7E007F2212895C78FC41
:1026A0007C077D017BFF7A5479CF7E007F271289DA
:1026B0005C78237C087D017BFF7A5479F67E007F6D
:1026C0001112895C78347C087D017BFF7A5579078B
:1026D0007E007F1912895C784D7C087D017BFF7A32
:1026E0005579207E007F1112895C785E7C087D011F
:1026F0007BFF7A5579317E007F1C12895C787A7C69
:10270000087D017BFF7A55794D7E007F1D12895C23
:1027100078977C087D017BFF7A55796A7E007F1B64
:1027200012895C78B27C087D017BFF7A5579857EC1
:10273000007F1412895C78C67C087D017BFF7A5586
:1027400079997E007F2512895C78EB7C087D017B7E
:10275000FF7A5579BE7E007F1512895C78007C096E
:102760007D017BFF7A5579D37E007F1512895C78D5
:10277000157C097D017BFF7A5579E87E007F141274
:10278000895C78297C097D017BFF7A5579FC7E0084
:102790007F2412895C784D7C097D017BFF7A567914
:1027A000207E007F1912895C78667C097D017BFFA1
:1027B0007A5679397E007F1812895C787E7C097D93
:1027C000017BFF7A5679517E007F1412895C7892E2
:1027D0007C097D017BFF7A5679657E007F24128912
:1027E0005C78B67C097D017BFF7A5679897E007F13
:1027F0002312895C78D97C097D017BFF7A5679ACFC
:102800007E007F1512895C78EE7C097D017BFF7A62
:102810005679C17E007F1D12895C780B7C0A7D0190
:102820007BFF7A5679DE7E007F1812895C78237CE4
:102830000A7D017BFF7A5679F67E007F1912895C4A
:10284000783C7C0A7D017BFF7A57790F7E007F25DB
:1028500012895C78617C0A7D017BFF7A5779347E2E
:10286000007F6312895C78C47C0A7D017BFF7A5704
:1028700079977E007F4012895C78047C0B7D017B18
:10288000FF7A5779D77E007F2A12895C7B017A070D
:10289000797812EE788F2C7B017A07798712EE789F
:1028A0008F2D7B017A0779A312EE788F2E7B017A28
:1028B00008792312EE788F2F7B017A08793412EE93
:1028C000788F307B017A08794D12EE788F317B0159
:1028D0007A08797A12EE788F327B017A087997122A
:1028E000EE788F337B017A0879B212EE788F347BE1
:1028F000017A0879EB12EE788F357B017A0979003D
:1029000012EE788F367B017A09791512EE788F37BF
:102910007B017A09794D12EE788F387B017A09793B
:10292000D912EE788F397B017A0A796112EE788FAD
:102930003A7B017A0A79C412EE788F3B7B017A0BDD
:10294000790412EE788F3C7B017A09797E12EE7859
:102950008F3D7B017A09799212EE788F3E7B017A66
:102960000979B612EE788F3F7B017A0A793C12EE34
:10297000788F40900004740CF0A3741CF090000257
:10298000E0FEA3E0FFEE6003023FC8EFB41D00408D
:1029900003023FC890299BF82828730229F20239C4
:1029A000FC023A05023B01023BCE023BE1023BEA5C
:1029B000023BF3023C1E023C9C023CD9023CE20278
:1029C0003DB8023E3E023E4E023E57023E76023E79
:1029D0009F023EA8023EBF023EC8023ED1023F0314
:1029E000023F41023F56023F90023F99023FA2023E
:1029F0003FB09000067402F0A314F0900B38E09002
:102A00000008F0852C2AE52A6032FFC3E52C9FFFE1
:102A1000E49400FE74782FF58274073EF583E0FF9E
:102A2000E52AFDE52CC39DFDE49400FC74092DF519
:102A30008274003CF583EFF0152A80CA9000387448
:102A400007F0A37403F0900B6BE064036068900BD5
:102A500039E0FCA3E0FDA3E0FEA3E0FFEC1282E47A
:102A6000E4FBFA798078471281CE90003A1287FD14
:102A7000900B3DE0FCA3E0FDA3E0FEA3E0FFEC1221
:102A800082E4E4FBFA798078471281CE90003E120E
:102A900087FD900B41E0FCA3E0FDA3E0FEA3E0FF77
:102AA000EC1282E4E4FBFA798078471281CE900040
:102AB000421287FD8063900B51E0FCA3E0FDA3E090
:102AC000FEA3E0FFEC1282E4E4FBFAF978461281FF
:102AD000CE90003A1287FD900B55E0FCA3E0FDA3D9
:102AE000E0FEA3E0FFEC1282E4E4FBFAF978461280
:102AF00081CE90003E1287FD900B59E0FCA3E0FDD3
:102B0000A3E0FEA3E0FFEC1282E4E4FBFAF97846CE
:102B10001281CE9000421287FD852D2AE52A60326F
:102B2000FFC3E52D9FFFE49400FE74872FF58274A8
:102B3000073EF583E0FFE52AFDE52DC39DFDE49406
:102B400000FC74462DF58274003CF583EFF0152AE5
:102B500080CA90006A7407F0A37403F0900B6BE0D6
:102B600064036068900B45E0FCA3E0FDA3E0FEA3D6
:102B7000E0FFEC1282E4E4FBFA798078471281CE20
:102B800090006C1287FD900B49E0FCA3E0FDA3E0F0
:102B9000FEA3E0FFEC1282E4E4FBFA7980784712AE
:102BA00081CE9000701287FD900B4DE0FCA3E0FDFC
:102BB000A3E0FEA3E0FFEC1282E4E4FBFA79807864
:102BC000471281CE9000741287FD8063900B5DE008
:102BD000FCA3E0FDA3E0FEA3E0FFEC1282E4E4FB33
:102BE000FAF978461281CE90006C1287FD900B6145
:102BF000E0FCA3E0FDA3E0FEA3E0FFEC1282E4E42E
:102C0000FBFAF978461281CE9000701287FD900B86
:102C100065E0FCA3E0FDA3E0FEA3E0FFEC1282E48C
:102C2000E4FBFAF978461281CE9000741287FD8594
:102C30002E2AE52A6032FFC3E52E9FFFE49400FEB2
:102C400074A32FF58274073EF583E0FFE52AFDE5C6
:102C50002EC39DFDE49400FC74782DF58274003C35
:102C6000F583EFF0152A80CAE490009CF0A304F0ED
:102C7000900B69E090009EF0900B69601C900B3106
:102C800074FFF0A3743FF0A374C9F07B017A077955
:102C9000BE12E053752B1C801A900B3174FFF0A309
:102CA000743FF0A374CFF07B017A0779BE12E05332
:102CB000752B1B852B2AE52A6032FFC3E52B9FFF6E
:102CC000E49400FE74BE2FF58274073EF583E0FFA6
:102CD000E52AFDE52BC39DFDE49400FC749F2DF5D2
:102CE0008274003CF583EFF0152A80CA749F252B6F
:102CF000F582E43400F5837403F0E49000CEF0A391
:102D000004F0900B6AE09000D0F0900B6A146033EE
:102D100014604C14606514607E147003022DB3249B
:102D2000056003022DCD900B3174FFF0A3743FF0CA
:102D3000A374D4F07B017A0779DA12E053752B146F
:102D4000022DCD900B3174FFF0A3743FF0A374DA21
:102D5000F07B017A0779DA12E053752B17806E90B9
:102D60000B3174FFF0A3743FF0A374E3F07B017A9E
:102D70000779DA12E053752B218052900B3174FFE2
:102D8000F0A3743FF0A374F6F07B017A0779DA12AE
:102D9000E053752B1D8036900B3174FFF0A3744007
:102DA000F0A37405F07B017A0779DA12E053752BF2
:102DB00019801A900B3174FFF0A37440F0A37410C3
:102DC000F07B017A0779DA12E053752B22852B2AE2
:102DD000E52A6032FFC3E52B9FFFE49400FE74DA1E
:102DE0002FF58274073EF583E0FFE52AFDE52BC34E
:102DF0009DFDE49400FC74D12DF58274003CF583B4
:102E0000EFF0152A80CA74D1252BF582E43400F541
:102E1000837401F0E4900100F0A304F0900B6BE0E8
:102E2000900102F0900B6B14602614603F14605800
:102E30002403706E900B3174FFF0A37440F0A37400
:102E400024F07B017A0779FC12E053752B1B80522A
:102E5000900B3174FFF0A37440F0A3742FF07B014A
:102E60007A0779FC12E053752B168036900B31747B
:102E7000FFF0A37440F0A37435F07B017A0779FC6E
:102E800012E053752B1A801A900B3174FFF0A37463
:102E900040F0A3743FF07B017A0779FC12E0537590
:102EA0002B27852B2AE52A6032FFC3E52B9FFFE401
:102EB0009400FE74FC2FF58274073EF583E0FFE575
:102EC0002AFDE52BC39DFDE49400FC74032DF582DF
:102ED00074013CF583EFF0152A80CA7403252BF5A5
:102EE00082E43401F5837402F0900132F0A304F01F
:102EF000E4F52AE52AC39403501E746C252AF58252
:102F0000E4340BF583E0FF7434252AF582E43401C0
:102F1000F583EFF0052A80DB852F2AE52A6032FF52
:102F2000C3E52F9FFFE49400FE74232FF5827408FD
:102F30003EF583E0FFE52AFDE52FC39DFDE4940007
:102F4000FC74372DF58274013CF583EFF0152A806F
:102F5000CA9001647403F0A3F0E4F52AE52AC3944F
:102F6000035044E52A25E025E0246FF582E4340B84
:102F7000F583E0FCA3E0FDA3E0FEA3E0FF746C2575
:102F80002AF582E4340BF583E0F9F812879C75F09A
:102F900002E52AA42466F582E5F03401F583EEF01B
:102FA000A3EFF0052A80B585302AE52A6032FFC3F9
:102FB000E5309FFFE49400FE74342FF58274083EE0
:102FC000F583E0FFE52AFDE530C39DFDE49400FCB8
:102FD000746C2DF58274013CF583EFF0152A80CADC
:102FE0009001967407F0A37403F0E4F52AE52AC370
:102FF00094035031E52A25E025E0247BF582E43472
:103000000BF583E0FCA3E0FDA3E0FEA3E0FF75F079
:1030100004E52AA42498F582E5F03401F5831287AB
:10302000FD052A80C885312AE52A6032FFC3E531D3
:103030009FFFE49400FE744D2FF58274083EF583E3
:10304000E0FFE52AFDE531C39DFDE49400FC74A496
:103050002DF58274013CF583EFF0152A80CAE490C7
:1030600001C8F0A304F0900B87E09001CAF0900B28
:1030700087601C900B3174FFF0A3743FF0A374C9F8
:10308000F07B017A08795E12E053752B1C801A9050
:103090000B3174FFF0A3743FF0A374CFF07B017A7F
:1030A00008795E12E053752B1B852B2AE52A6032C6
:1030B000FFC3E52B9FFFE49400FE745E2FF582743E
:1030C000083EF583E0FFE52AFDE52BC39DFDE49472
:1030D00000FC74CB2DF58274013CF583EFF0152ACA
:1030E00080CA74CB252BF582E43401F5837403F098
:1030F0009001FA7405F0A37402F0E4F52AE52AC3FE
:1031000094014003023188E52A25E025E02488F572
:1031100082E4340BF583E0FCA3E0FDA3E0FEA3E032
:10312000FF746C252AF582E4340BF583E0F9F8127C
:10313000879C75F008E52AA424FCF582E5F03401AB
:10314000F5831287FDE52A25E025E02490F582E449
:10315000340BF583E0FCA3E0FDA3E0FEA3E0FF74E5
:103160006C252AF582E4340BF583E0F9F812879C8C
:1031700075F008E52AA42400F582E5F03402F58311
:103180001287FD052A0230FD85322AE52A6032FFCA
:10319000C3E5329FFFE49400FE747A2FF582740831
:1031A0003EF583E0FFE52AFDE532C39DFDE4940092
:1031B000FC74042DF58274023CF583EFF0152A802F
:1031C000CA90022C7405F0A37402F0900B9CE0FCF2
:1031D000A3E0FDA3E0FEA3E0FF90022E1287FD9086
:1031E0000B98E0FCA3E0FDA3E0FEA3E0FF90023219
:1031F0001287FD85332AE52A6032FFC3E5339FFF3E
:10320000E49400FE74972FF58274083EF583E0FF86
:10321000E52AFDE533C39DFDE49400FC74362DF5ED
:103220008274023CF583EFF0152A80CA90025E7426
:1032300003F0A37401F0900BA0E0FFA3E090026004
:10324000CFF0A3EFF085342AE52A6032FFC3E534DE
:103250009FFFE49400FE74B22FF58274083EF5835C
:10326000E0FFE52AFDE534C39DFDE49400FC7462B3
:103270002DF58274023CF583EFF0152A80CAE490A4
:103280000290F0A304F0900BA6E0900292F0900B55
:10329000A6601C900B3174FFF0A3743FF0A374C9B7
:1032A000F07B017A0879C612E053752B25801A90BD
:1032B0000B3174FFF0A3743FF0A374CFF07B017A5D
:1032C0000879C612E053752B24852B2AE52A603233
:1032D000FFC3E52B9FFFE49400FE74C62FF58274B4
:1032E000083EF583E0FFE52AFDE52BC39DFDE49450
:1032F00000FC74932DF58274023CF583EFF0152ADF
:1033000080CA7493252BF582E43402F5837403F0AC
:103310009002C204F0A37402F0900BA2E0FFA3E0BD
:103320009002C4CFF0A3EFF0900BA4E0FFA3E090D5
:1033300002C6CFF0A3EFF085352AE52A6032FFC33D
:10334000E5359FFFE49400FE74EB2FF58274083E90
:10335000F583E0FFE52AFDE535C39DFDE49400FC1F
:1033600074C82DF58274023CF583EFF0152A80CAEB
:103370009002F47406F0A37402F0900BA7E0FCA393
:10338000E0FDA3E0FEA3E0FF9002F61287FD900BA4
:10339000ABE0FCA3E0FDA3E0FEA3E0FF9002FA1285
:1033A00087FD85362AE52A6032FFC3E5369FFFE4B4
:1033B0009400FE74002FF58274093EF583E0FFE56A
:1033C0002AFDE536C39DFDE49400FC74FE2DF582D4
:1033D00074023CF583EFF0152A80CA90032674022C
:1033E000F0A314F0900BAFE0900328F085372AE5A6
:1033F0002A6032FFC3E5379FFFE49400FE74152F67
:10340000F58274093EF583E0FFE52AFDE537C39DAB
:10341000FDE49400FC74292DF58274033CF583EFE0
:10342000F0152A80CAE4900358F0A304F0900BB082
:10343000E090035AF0900BB0601C900B3174FFF0D9
:10344000A3743FF0A374C9F07B017A09792912E0D3
:1034500053752B24801A900B3174FFF0A3743FF046
:10346000A374CFF07B017A09792912E053752B23DD
:10347000852B2AE52A6032FFC3E52B9FFFE49400E9
:10348000FE74292FF58274093EF583E0FFE52AFDDD
:10349000E52BC39DFDE49400FC745B2DF582740361
:1034A0003CF583EFF0152A80CA745B252BF582E486
:1034B0003403F5837403F090038A7401F0A3F09051
:1034C0000BB1E090038CF085382AE52A6032FFC307
:1034D000E5389FFFE49400FE744D2FF58274093E99
:1034E000F583E0FFE52AFDE538C39DFDE49400FC8B
:1034F000748D2DF58274033CF583EFF0152A80CA94
:10350000E49003BCF0A304F0900BB2E09003BEF093
:10351000900BB2601C900B3174FFF0A3743FF0A3CA
:1035200074C9F07B017A09796612E053752B188013
:103530001A900B3174FFF0A3743FF0A374CFF07BAB
:10354000017A09796612E053752B17852B2AE52A33
:103550006032FFC3E52B9FFFE49400FE74662FF5F5
:103560008274093EF583E0FFE52AFDE52BC39DFD4E
:10357000E49400FC74BF2DF58274033CF583EFF0F6
:10358000152A80CA74BF252BF582E43403F58374B1
:1035900003F09003EE7405F0A37401F0900BCDE0FE
:1035A000FCA3E0FDA3E0FEA3E0FF900B6CE0F9F8C4
:1035B00012879C9003F01287FD853D2AE52A603230
:1035C000FFC3E53D9FFFE49400FE747E2FF58274F7
:1035D000093EF583E0FFE52AFDE53DC39DFDE4944A
:1035E00000FC74F42DF58274033CF583EFF0152A8A
:1035F00080CA9004207405F0A37401F0900BD1E010
:10360000FCA3E0FDA3E0FEA3E0FF9004221287FDEF
:10361000853E2AE52A6032FFC3E53E9FFFE4940021
:10362000FE74922FF58274093EF583E0FFE52AFDD2
:10363000E53EC39DFDE49400FC74262DF5827404E0
:103640003CF583EFF0152A80CA9004527405F0A36C
:103650007401F0900BD5E0FCA3E0FDA3E0FEA3E035
:10366000FF9004541287FD853F2AE52A6032FFC38C
:10367000E53F9FFFE49400FE74B62FF58274093E87
:10368000F583E0FFE52AFDE53FC39DFDE49400FCE2
:1036900074582DF58274043CF583EFF0152A80CA26
:1036A0009004847407F0A314F0E4F52AE52AC39487
:1036B000065031E52A25E025E024B3F582E4340BF9
:1036C000F583E0FCA3E0FDA3E0FEA3E0FF75F004BA
:1036D000E52AA42486F582E5F03404F5831287FDFB
:1036E000052A80C885392AE52A6032FFC3E5399F5B
:1036F000FFE49400FE74D92FF58274093EF583E04F
:10370000FFE52AFDE539C39DFDE49400FC749E2D80
:10371000F58274043CF583EFF0152A80CAE4900426
:10372000B6F0A304F0900BDDE09004B8F0900BDD50
:10373000601C900B3174FFF0A3743FF0A374C9F0C8
:103740007B017A0979EE12E053752B1D801A900BDC
:103750003174FFF0A3743FF0A374CFF07B017A09BA
:1037600079EE12E053752B1C852B2AE52A6032FF77
:10377000C3E52B9FFFE49400FE74EE2FF5827409DD
:103780003EF583E0FFE52AFDE52BC39DFDE49400B3
:10379000FC74B92DF58274043CF583EFF0152A8092
:1037A000CA74B9252BF582E43404F5837403F0E47C
:1037B0009004E8F0A304F0900BDCE09004EAF090B1
:1037C0000BDC601C900B3174FFF0A3743FF0A3740A
:1037D000C9F07B017A0A790B12E053752B18801A15
:1037E000900B3174FFF0A3743FF0A374CFF07B0112
:1037F0007A0A790B12E053752B17852B2AE52A607C
:1038000032FFC3E52B9FFFE49400FE740B2FF5827B
:10381000740A3EF583E0FFE52AFDE52BC39DFDE438
:103820009400FC74EB2DF58274043CF583EFF015E5
:103830002A80CA74EB252BF582E43404F5837403E3
:10384000F0E490051AF0A304F0A3F0900B3174FF9C
:10385000F0A3743FF0A374CFF07B017A0A792312AE
:10386000E053752B18852B2AE52A6032FFC3E52B20
:103870009FFFE49400FE74232FF582740A3EF583C3
:10388000E0FFE52AFDE52BC39DFDE49400FC741DDB
:103890002DF58274053CF583EFF0152A80CA741D5E
:1038A000252BF582E43405F5837403F090054C1460
:1038B000F0A304F0900BD9E0FF744E252AF582E4C2
:1038C0003405F583EFF0900BDAE0FF744F252AF50D
:1038D00082E43405F583EFF0900BDBE0FF745025B4
:1038E0002AF582E43405F583EFF085402AE52A6065
:1038F00032FFC3E5409FFFE49400FE743C2FF58245
:10390000740A3EF583E0FFE52AFDE540C39DFDE432
:103910009400FC74512DF58274053CF583EFF0158D
:103920002A80CA853A2AE52A6032FFC3E53A9FFF1A
:10393000E49400FE74612FF582740A3EF583E0FF83
:10394000E52AFDE53AC39DFDE49400FC747E2DF567
:103950008274053CF583EFF0152A80CA853B2AE581
:103960002A6032FFC3E53B9FFFE49400FE74C42F3E
:10397000F582740A3EF583E0FFE52AFDE53BC39D31
:10398000FDE49400FC74142DF58274063CF583EF7D
:10399000F0152A80CA853C2AE52A6032FFC3E53C3F
:1039A0009FFFE49400FE74042FF582740B3EF583B0
:1039B000E0FFE52AFDE53CC39DFDE49400FC74AA0C
:1039C0002DF58274063CF583EFF0152A80CA7B0141
:1039D0007A007904900771E0A3E014FD12E9AC903D
:1039E0000771E0FCA3E0FD2403F58274003CF5833D
:1039F000EFF07B017A00790412D4A822900DB9E08F
:103A0000900C55F022900B6BE064036064E4FFFEC1
:103A10007D807C47900DB9E0F8A3E0F9A3E0FAA31C
:103A2000E0FB1280C5128322900C561287FDE4FF42
:103A3000FE7D807C47900DBDE0F8A3E0F9A3E0FA9D
:103A4000A3E0FB1280C5128322900C5A1287FDE47A
:103A5000FFFE7D807C47900DC1E0F8A3E0F9A3E074
:103A6000FAA3E0FB1280C5128322900C5E1287FD40
:103A700022E4FFFEFD7C46900DB9E0F8A3E0F9A337
:103A8000E0FAA3E0FB1280C5128322900C6E12872D
:103A9000FDE4FFFEFD7C46900DBDE0F8A3E0F9A338
:103AA000E0FAA3E0FB1280C5128322900C72128709
:103AB000FDE4FFFEFD7C46900DC1E0F8A3E0F9A314
:103AC000E0FAA3E0FB1280C5128322900C761287E5
:103AD000FD900C6EE0FCA3E0FDA3E0FEA3E0FFEC94
:103AE0001282E47B9A7A997999784512826B400325
:103AF000023FC8E47F337E13FDFC900C6E1287FDFD
:103B000022900B6BE064036064E4FFFE7D807C47E1
:103B1000900DB9E0F8A3E0F9A3E0FAA3E0FB12806E
:103B2000C5128322900C621287FDE4FFFE7D807C2B
:103B300047900DBDE0F8A3E0F9A3E0FAA3E0FB1283
:103B400080C5128322900C661287FDE4FFFE7D8003
:103B50007C47900DC1E0F8A3E0F9A3E0FAA3E0FBF5
:103B60001280C5128322900C6A1287FD22E4FFFEA8
:103B7000FD7C46900DB9E0F8A3E0F9A3E0FAA3E0DC
:103B8000FB1280C5128322900C7A1287FDE4FFFE9F
:103B9000FD7C46900DBDE0F8A3E0F9A3E0FAA3E0B8
:103BA000FB1280C5128322900C7E1287FDE4FFFE7B
:103BB000FD7C46900DC1E0F8A3E0F9A3E0FAA3E094
:103BC000FB1280C5128322900C821287FD22900D79
:103BD000B9E06007900C867403F022E4900C86F044
:103BE00022900DB9E0900C87F022900DB9E0900C76
:103BF00088F022E4F52AE52AC394034003023FC873
:103C000074B9252AF582E4340DF583E0FF74892523
:103C10002AF582E4340CF583EFF0052A80D8E4F528
:103C20002AE52AC394035071E52A25E024B9F582D8
:103C3000E4340DF583E0FEA3E0FFEE3395E0FDFCF8
:103C4000E52A25E025E0248CF582E4340CF5831286
:103C500087FDE52A25E025E0248CF582E4340CF587
:103C600083C083C082E0FCA3E0FDA3E0FEA3E0FFED
:103C70007489252AF582E4340CF583E0F9F812877B
:103C8000B0D082D0831287FD7489252AF582E4346E
:103C90000EF583E4F0052A8088D20B22E4F52AE5AC
:103CA0002AC394034003023FC8E52A25E025E02407
:103CB000B9F582E4340DF583E0FCA3E0FDA3E0FE5A
:103CC000A3E0FFE52A25E025E02498F582E4340C02
:103CD000F5831287FD052A80C6900DB9E0900CA4EB
:103CE000F022E4F52AE52AC394024003023FC8E526
:103CF0002A75F008A424B9F582E4340DF583E0FCBC
:103D0000A3E0FDA3E0FEA3E0FFE52A25E025E024F3
:103D1000A5F582E4340CF5831287FDE52A75F008D9
:103D2000A424BDF582E4340DF583E0FCA3E0FDA3FB
:103D3000E0FEA3E0FFE52A25E025E024ADF582E4DE
:103D4000340CF5831287FDE52A25E025E024A5F54E
:103D500082E4340CF583C083C082E0FCA3E0FDA3C1
:103D6000E0FEA3E0FF7489252AF582E4340CF58394
:103D7000E0F9F81287B0D082D0831287FDE52A25BA
:103D8000E025E024ADF582E4340CF583C083C082E5
:103D9000E0FCA3E0FDA3E0FEA3E0FF7489252AF583
:103DA00082E4340CF583E0F9F81287B0D082D08336
:103DB0001287FD052A023CE5900DB9E0FCA3E0FD69
:103DC000A3E0FEA3E0FF9007731287FDE4FFFEFD72
:103DD000FC900773E0F8A3E0F9A3E0FAA3E0FBD3BB
:103DE0001287625014900773E0FCA3E0FDA3E0FE8D
:103DF000A3E0FF900CB91287FD900DBDE0FCA3E09D
:103E0000FDA3E0FEA3E0FF9007731287FDE4FFFE31
:103E1000FDFC900773E0F8A3E0F9A3E0FAA3E0FB50
:103E2000C31287625003023FC8900773E0FCA3E00F
:103E3000FDA3E0FEA3E0FF900CB51287FD22900DDC
:103E4000B9E0FFA3E0900CBDCFF0A3EFF022900DFE
:103E5000B9E0900CC3F022900DB9E0FFA3E0900C04
:103E6000BFCFF0A3EFF0900DBBE0FFA3E0900CC13B
:103E7000CFF0A3EFF022900DB9E0FCA3E0FDA3E0AA
:103E8000FEA3E0FF900CC41287FD900DBDE0FCA3E3
:103E9000E0FDA3E0FEA3E0FF900CC81287FD229096
:103EA0000DB9E0900CCCF022900DB9E0900777F0BE
:103EB0006007900CCD7401F022E4900CCDF02290BC
:103EC0000DB9E0900CCEF022900DB9E0900CCFF03F
:103ED00022900DB9E0FCA3E0FDA3E0FEA3E0FF907B
:103EE0000CEA1287FD900CEAE0FCA3E0FDA3E0FEE3
:103EF000A3E0FF900C89E0F9F81287B0900CEA1269
:103F000087FD22900DB9E0FCA3E0FDA3E0FEA3E055
:103F1000FF900CEE1287FDE47F0AFEFDFC900CEE94
:103F2000E0F8A3E0F9A3E0FAA3E0FBC31287624044
:103F300003023FC8E47F0AFEFDFC900CEE1287FDF1
:103F400022900DB9E0FCA3E0FDA3E0FEA3E0FF900A
:103F50000CF21287FD22E4F52AE52AC39406506884
:103F6000E52A25E025E024B9F582E4340DF583E067
:103F7000FCA3E0FDA3E0FEA3E0FFE52A25E025E0A9
:103F800024D0F582E4340CF5831287FD052A80C91C
:103F9000900DB9E0900CFAF022900DB9E0900CF978
:103FA000F022900DB9E0900777F0601C12D75622EE
:103FB000900DB9E0900CF6F0900DBAE0900CF7F08F
:103FC000900DBBE0900CF8F02220594553000020E2
:103FD0004E4F00002055736200002048616E646CF3
:103FE00065000020454D472070726F706F727469D4
:103FF0006F6E616C000020454D4720696E746567E7
:1040000072616C000020454D472046434653000036
:1040100020454D47204643465320416476616E63F8
:104020006564000020506F736974696F6E00002032
:1040300050574D00002043757272656E7400002069
:10404000506F736974696F6E20616E64204375727E
:1040500072656E740000000D0A004669726D77612A
:1040600072652076657273696F6E3A200053482D31
:1040700050524F2076362E312E372043656E7472A3
:104080006F205069616767696F2032372E30322E9A
:1040900032303139002E0D0A0D0A0044455649438D
:1040A0004520494E464F0D0A0049443A2025640DEB
:1040B0000A0050574D2072657363616C696E67200A
:1040C00061637469766174696F6E3A200059455373
:1040D0000A004E4F0A0050574D204C696D69743AE2
:1040E0002025640D0A004D4F544F5220494E464F33
:1040F0000D0A004D6F746F72207265666572656E91
:10410000636500202D2043757272656E74733A20CA
:1041100000202D2050776D3A2000202D20506F7305
:104120006974696F6E3A2000256420004D6F746FCA
:104130007220656E61626C65643A20005945530DCA
:104140000A004E4F0D0A000D0A4D45415355524588
:104150004D454E545320494E464F0D0A0053656E4F
:10416000736F722076616C75653A0D0A00256420C4
:104170002D3E202564004261747465727920566F6B
:104180006C7461676520286D56293A20256C64009F
:1041900046756C6C2063686172676520706F776527
:1041A000722074656E73696F6E20286D56293A20EF
:1041B000256C640043757272656E7420286D412908
:1041C0003A20256C64000D0A444556494345205069
:1041D0004152414D45544552530D0A005049442027
:1041E000436F6E74726F6C6C65723A0D0A005020EA
:1041F0002D3E20256620200049202D3E20256620CA
:10420000200044202D3E2025660D0A004375727261
:10421000656E742050494420436F6E74726F6C6CED
:1042200065723A0D0A00537461727475702061638F
:104230007469766174696F6E3A205945530D0A00AE
:104240005374617274757020616374697661746906
:104250006F6E3A204E4F0D0A00496E707574206DD6
:104260006F64653A205553420D0A00496E707574AB
:10427000206D6F64653A2048616E646C650D0A00BC
:10428000496E707574206D6F64653A20454D472006
:1042900070726F706F7274696F6E616C0D0A004995
:1042A0006E707574206D6F64653A20454D472069C6
:1042B0006E74656772616C0D0A00496E70757420CA
:1042C0006D6F64653A20454D4720464346530D0ABD
:1042D00000496E707574206D6F64653A20454D47D6
:1042E0002046434653204144560D0A00436F6E74E6
:1042F000726F6C206D6F64653A20506F73697469DA
:104300006F6E0D0A00436F6E74726F6C206D6F6478
:10431000653A2050574D0D0A00436F6E74726F6CF2
:10432000206D6F64653A2043757272656E740D0A74
:1043300000436F6E74726F6C206D6F64653A20502D
:104340006F736974696F6E20616E64204375727259
:10435000656E740D0A004162736F6C75746520653B
:104360006E636F64657220706F736974696F6E3A03
:10437000205945530D0A004162736F6C75746520B6
:10438000656E636F64657220706F736974696F6EB8
:104390003A204E4F0D0A004D6F746F722D48616EBA
:1043A000646C6520526174696F3A2025640D0A00BF
:1043B00053656E736F72207265736F6C7574696F7D
:1043C0006E3A0D0A004D6561737572656D656E74A8
:1043D000204F66667365743A0D0A002564202D3EF1
:1043E00020256C64004D6561737572656D656E7432
:1043F000204D756C7469706C6965723A0D0A002500
:1044000064202D3E2025660043757272656E74200F
:104410006C6F6F6B7570207461626C653A0D0A0089
:10442000705B305D202D20705B325D3A2025662C5C
:104430002025662C2025660A00705B335D202D2028
:10444000705B355D3A2025662C2025662C2025667C
:104450000A00506F736974696F6E206C696D6974BE
:10446000206163746976653A20256400506F736932
:1044700074696F6E206C696D6974206D6F746F72F2
:104480002025643A20696E66202D3E20256C64202C
:104490002000737570202D3E20256C640D0A004DA0
:1044A0006178207374657020706F7320616E642072
:1044B0006E65673A20256420256400437572726535
:1044C0006E74206C696D69743A20256400454D470F
:1044D000207468726573686F6C6473205B30202D84
:1044E00020313032345D3A2025752C202575004569
:1044F0004D47206D61782076616C756573205B3067
:10450000202D20343039365D3A20256C752C20253D
:104510006C750043616C6962726174696F6E2065CD
:104520006E61626C65643A205945530D0A0043611F
:104530006C6962726174696F6E20656E61626C6530
:10454000643A204E4F0D0A00454D47206D6178209A
:1045500073706565643A2025640052657374207435
:10456000696D652064656C617920286D73293A2036
:10457000256400526573742076656C6F6369747985
:1045800020636C6F7375726520287469636B732F79
:10459000736563293A202564005265737420706F37
:1045A000736974696F6E3A2025640064656275678B
:1045B0003A20256C64000D0A555341474520535459
:1045C00041544953544943530D0A004461746520D2
:1045D0006F66206D61696E74656E616E63653A2009
:1045E00025642F25642F323025640D0A00506F7327
:1045F0006974696F6E7320686973746F6772616D37
:1046000020287469636B73293A0D0A0042696E2091
:104610002564205B25642D25645D3A20256C750D8D
:104620000A0043757272656E7420686973746F67EF
:1046300072616D20286D41293A0D0A005468726537
:1046400073686F6C64202564205B25642D25645D90
:104650003A20256C750D0A00454D47206163746949
:10466000766174696F6E7320636F756E7465723AEC
:1046700020256C752C20256C750052657374207094
:104680006F736974696F6E206F6363757272656EA4
:104690006365733A20256C7500416E676C65207404
:1046A0006F74616C20646973706C6163656D656EB5
:1046B0007420287469636B73293A20256C75005443
:1046C0006F74616C20706F776572206F6E207469F3
:1046D0006D652028736563293A20256C7500546F39
:1046E00074616C207265737420706F736974696F84
:1046F0006E2074696D652028736563293A20256CE6
:104700007500000000000000000000000000000034
:104710000000000000000000000000000000000099
:104720000000000000000000000000000000000089
:104730000000000000000000000000000000000079
:104740000000000000000000000000000000000069
:10544000000000000000000000000031202D20447A
:1054500065766963652049443A0032202D20506FFB
:10546000736974696F6E20504944205B502C204949
:105470002C20445D3A0033202D2043757272656EF6
:105480007420504944205B502C20492C20445D3A24
:105490000034202D20537461727475702041637440
:1054A00069766174696F6E3A000000000035202D46
:1054B00020496E707574206D6F64653A00000000BD
:1054C00000000000000000000000000000000036A6
:1054D000202D20436F6E74726F6C206D6F64653A7F
:1054E00000000000000000000000000000000000BC
:1054F00000000000000037202D205265736F6C758E
:1055000074696F6E733A0038202D204D6561737594
:1055100072656D656E74204F6666736574733A00CC
:1055200039202D204D756C7469706C696572733A01
:10553000003130202D20506F732E206C696D6974FE
:10554000206163746976653A000000000031312003
:105550002D20506F732E206C696D697473205B6908
:105560006E662C207375705D3A003132202D204D0F
:105570006178207374657073205B6E65672C207092
:105580006F735D3A003133202D2043757272656E62
:1055900074206C696D69743A003134202D20454DBA
:1055A000472063616C6962726174696F6E206F6E0F
:1055B00020737461727475703A0000000000313518
:1055C000202D20454D47207468726573686F6C64A8
:1055D000733A003136202D20454D47206D617820EB
:1055E00076616C7565733A003137202D20454D4743
:1055F000206D61782073706565643A003138202D24
:10560000204162736F6C75746520656E636F6465AD
:105610007220706F736974696F6E3A000000000049
:105620003139202D204D6F746F722068616E646C6B
:105630006520726174696F3A003230202D20505716
:105640004D2072657363616C696E673A00000000FB
:10565000003231202D205265737420706F7369748D
:10566000696F6E3A003232202D20526573742070BB
:105670006F736974696F6E2074696D652064656C01
:10568000617920286D73293A003233202D2052652C
:1056900073742076656C20636C6F73757265202857
:1056A0007469636B732F736563293A003234202D5C
:1056B0002043757272656E74206C6F6F6B75703AF3
:1056C000003235202D205265737420706F73697419
:1056D000696F6E20666C61673A0000000000323628
:1056E000202D20454D4720696E76657273696F6E77
:1056F0003A00000000003237202D20526573657497
:1057000020636F756E746572733A0000000000329A
:1057100038202D2044617465206F66206D61696EAC
:1057200074656E616E6365205B44442F4D4D2F5947
:10573000595D3A0030202D3E205573620A31202DEC
:105740003E2048616E646C650A32202D3E20454D36
:10575000472070726F706F7274696F6E616C0A337C
:10576000202D3E20454D4720496E74656772616C5F
:105770000A34202D3E20454D4720464346530A35E6
:10578000202D3E20454D4720464346532041647618
:10579000616E6365640A0030202D3E20506F73698E
:1057A00074696F6E0A31202D3E2050574D0A322009
:1057B0002D3E2043757272656E740A33202D3E2093
:1057C000506F736974696F6E20616E6420437572E7
:1057D00072656E740A000030202D3E2044656163BE
:1057E000746976617465205B4E4F5D0A31202D3EF1
:1057F000204163746976617465205B5945535D0A85
:10580000009005E0EBF0A3EAF0A3E9F0900B38E09C
:1058100064FA7003026E419005E0E0FBA3E0FAA396
:10582000E0F8AC02AD037BFF7A407956128A3A90D9
:105830000B3174FFF0A37440F0A37457F09005E0AF
:10584000E0FBA3E0FAA3E0F912E053900B3174FF00
:10585000F0A37440F0A3745AF09005E0E0FBA3E0DD
:10586000FAA3E0F912E053900B3174FFF0A37440F7
:10587000F0A3746DF09005E0E0FBA3E0FAA3E0F97B
:1058800012E053900B3174FFF0A37440F0A37495B1
:10589000F09005E0E0FBA3E0FAA3E0F912E05390FA
:1058A0000B3174FFF0A37440F0A3749BF09005E0FB
:1058B000E0FBA3E0FAA3E0F912E05390064E74FF78
:1058C000F0A37440F0A374A9F0900B38E0FF9006A9
:1058D00051E4F0A3EFF07B017A0579E512A4EC9096
:1058E0000B317401F0A37405F0A374E5F09005E0AA
:1058F000E0FBA3E0FAA3E0F912E053900B3174FF50
:10590000F0A37440F0A374B2F09005E0E0FBA3E0D4
:10591000FAA3E0F912E053900BB2E0B4011E900B31
:105920003174FFF0A37440F0A374CDF09005E0E073
:10593000FBA3E0FAA3E0F912E053801C900B317452
:10594000FFF0A37440F0A374D2F09005E0E0FBA355
:10595000E0FAA3E0F912E05390064E74FFF0A3744E
:1059600040F0A374D6F0900EADE0FF900651E4F045
:10597000A3EFF07B017A0579E512A4EC900B31746A
:1059800001F0A37405F0A374E5F09005E0E0FBA33B
:10599000E0FAA3E0F912E053900B3174FFF0A37426
:1059A00040F0A37457F09005E0E0FBA3E0FAA3E019
:1059B000F912E053900B3174FFF0A37440F0A3741C
:1059C000E6F09005E0E0FBA3E0FAA3E0F912E05373
:1059D000900B3174FFF0A37440F0A374F3F09005C2
:1059E000E0E0FBA3E0FAA3E0F912E053900C88E0BA
:1059F000B4021E900B3174FFF0A37441F0A3740342
:105A0000F09005E0E0FBA3E0FAA3E0F912E0538098
:105A100041900C88E0B4011E900B3174FFF0A37428
:105A200041F0A37411F09005E0E0FBA3E0FAA3E0DD
:105A3000F912E053801C900B3174FFF0A37441F015
:105A4000A3741AF09005E0E0FBA3E0FAA3E0F912DA
:105A5000E053E49005E3F0A3F0C39005E4E0940282
:105A60009005E3E0648094804003025BBD900C8865
:105A7000E06402705F90064E74FFF0A37441F0A3DF
:105A80007428F09005E3E0FEA3E07802C333CE3340
:105A9000CED8F9243FF582740C3EF583E0A3E0A351
:105AA000E0FFA3E0900651CFF0A3EFF07B017A0571
:105AB00079E512A4EC900B317401F0A37405F0A306
:105AC00074E5F09005E0E0FBA3E0FAA3E0F912E052
:105AD00053025BAC900C88E06401705E90064E74DB
:105AE000FFF0A37441F0A37428F09005E3E0FEA357
:105AF000E07802C333CE33CED8F92447F582740C54
:105B00003EF583E0A3E0A3E0FFA3E0900651CFF0D1
:105B1000A3EFF07B017A0579E512A4EC900B3174C8
:105B200001F0A37405F0A374E5F09005E0E0FBA399
:105B3000E0FAA3E0F912E053807290064E74FFF091
:105B4000A37441F0A37428F09005E3E0FAA3E0FB0E
:105B5000AE027802C333CE33CED8F92437F582743F
:105B60000C3EF583E0FCA3E0FDA3E0FEA3E0FF74A0
:105B70006C2BF582740B3AF583E0F9F812879C9050
:105B80000651EEF0A3EFF07B017A0579E512A4EC63
:105B9000900B317401F0A37405F0A374E5F0900547
:105BA000E0E0FBA3E0FAA3E0F912E0539005E4E0A3
:105BB00004F070069005E3E004F0025A59900B31AE
:105BC00074FFF0A37440F0A37457F09005E0E0FB7D
:105BD000A3E0FAA3E0F912E053900B3174FFF0A3B5
:105BE0007440F0A37457F09005E0E0FBA3E0FAA343
:105BF000E0F912E05390064E74FFF0A37441F0A355
:105C0000742CF07B017A0579E512A4EC900C4FE03E
:105C100054036019900B3174FFF0A37441F0A37426
:105C20003CF07B017A0579E512E0538017900B3147
:105C300074FFF0A37441F0A37442F07B017A0579FC
:105C4000E512E053900B317401F0A37405F0A374D6
:105C5000E5F09005E0E0FBA3E0FAA3E0F912E053E1
:105C6000900B3174FFF0A37441F0A37447F09005DA
:105C7000E0E0FBA3E0FAA3E0F912E053900B3174EB
:105C8000FFF0A37441F0A3745DF09005E0E0FBA386
:105C9000E0FAA3E0F912E053E49005E3F0A3F0C3C7
:105CA0009005E4E094039005E3E064809480400371
:105CB000025D6590064E74FFF0A37441F0A3746D0D
:105CC000F09005E3E0FCA3E0FD2401FEE43C900637
:105CD00051F0A3CEF0EDAE047802C333CE33CED86C
:105CE000F92475F582740E3EF583E0FCA3E0FDA374
:105CF000E0FEA3E0FF9005E3E0FAA3E0246CF58268
:105D0000740B3AF583E0F9F812879C900653EEF095
:105D1000A3EFF07B017A0579E512A4EC900B3174C6
:105D200001F0A37405F0A374E5F09005E0E0FBA397
:105D3000E0FAA3E0F912E053900B3174FFF0A37482
:105D400040F0A37457F09005E0E0FBA3E0FAA3E075
:105D5000F912E0539005E4E004F070069005E3E0EA
:105D600004F0025C9F90064E74FFF0A37441F0A310
:105D70007476F0900D95E0FCA3E0FDA3E0FEA3E0B7
:105D8000FF9006511287FD7B017A0579E512A4EC9C
:105D9000900B317401F0A37405F0A374E5F0900545
:105DA000E0E0FBA3E0FAA3E0F912E053900B3174BA
:105DB000FFF0A37440F0A37457F09005E0E0FBA35C
:105DC000E0FAA3E0F912E05390064E74FFF0A374DA
:105DD00041F0A37490F0900E5CE0FCA3E0FDA3E022
:105DE000FEA3E0FF9006511287FD7B017A0579E55D
:105DF00012A4EC900B317401F0A37405F0A374E5C8
:105E0000F09005E0E0FBA3E0FAA3E0F912E0539084
:105E10000B3174FFF0A37440F0A37457F09005E0C9
:105E2000E0FBA3E0FAA3E0F912E05390064E74FF02
:105E3000F0A37441F0A374B4F0900E81E0FCA3E0F1
:105E4000FDA3E0FEA3E0FF9006511287FD7B017ADF
:105E50000579E512A4EC900B317401F0A37405F000
:105E6000A374E5F09005E0E0FBA3E0FAA3E0F912EB
:105E7000E053900B3174FFF0A37440F0A37457F01B
:105E80009005E0E0FBA3E0FAA3E0F912E053900BE9
:105E90003174FFF0A37441F0A374C6F09005E0E004
:105EA000FBA3E0FAA3E0F912E053900B3174FFF08A
:105EB000A37441F0A374DCF09005E0E0FBA3E0FAEA
:105EC000A3E0F912E053900B6BE064037003025FF0
:105ED000D390064E74FFF0A37441F0A374EEF090DB
:105EE0000B39E0FCA3E0FDA3E0FEA3E0FFEC12828F
:105EF000E4E4FBFA798078471281CE90065112874C
:105F0000FD7B017A0579E512A4EC900B317401F068
:105F1000A37405F0A374E5F09005E0E0FBA3E0FABC
:105F2000A3E0F912E05390064E74FFF0A37441F021
:105F3000A374F8F0900B3DE0FCA3E0FDA3E0FEA30A
:105F4000E0FFEC1282E4E4FBFA798078471281CE1C
:105F50009006511287FD7B017A0579E512A4EC9039
:105F60000B317401F0A37405F0A374E5F09005E023
:105F7000E0FBA3E0FAA3E0F912E05390064E74FFB1
:105F8000F0A37442F0A37402F0900B41E0FCA3E094
:105F9000FDA3E0FEA3E0FFEC1282E4E4FBFA7980CB
:105FA00078471281CE9006511287FD7B017A0579E0
:105FB000E512A4EC900B317401F0A37405F0A37406
:105FC000E5F09005E0E0FBA3E0FAA3E0F912E0536E
:105FD0000260CF90064E74FFF0A37441F0A374EEFC
:105FE000F0900B51E0FCA3E0FDA3E0FEA3E0FFEC8A
:105FF0001282E4E4FBFAF978461281CE900651123F
:1060000087FD7B017A0579E512A4EC900B317401D0
:10601000F0A37405F0A374E5F09005E0E0FBA3E0C5
:10602000FAA3E0F912E05390064E74FFF0A3744116
:10603000F0A374F8F0900B55E0FCA3E0FDA3E0FEA4
:10604000A3E0FFEC1282E4E4FBFAF978461281CE79
:106050009006511287FD7B017A0579E512A4EC9038
:106060000B317401F0A37405F0A374E5F09005E022
:10607000E0FBA3E0FAA3E0F912E05390064E74FFB0
:10608000F0A37442F0A37402F0900B59E0FCA3E07B
:10609000FDA3E0FEA3E0FFEC1282E4E4FBFAF97852
:1060A000461281CE9006511287FD7B017A0579E573
:1060B00012A4EC900B317401F0A37405F0A374E505
:1060C000F09005E0E0FBA3E0FAA3E0F912E05390C2
:1060D0000B3174FFF0A37442F0A3740CF09005E050
:1060E000E0FBA3E0FAA3E0F912E053900B6BE0644D
:1060F0000370030261F890064E74FFF0A37441F040
:10610000A374EEF0900B45E0FCA3E0FDA3E0FEA33A
:10611000E0FFEC1282E4E4FBFA798078471281CE4A
:106120009006511287FD7B017A0579E512A4EC9067
:106130000B317401F0A37405F0A374E5F09005E051
:10614000E0FBA3E0FAA3E0F912E05390064E74FFDF
:10615000F0A37441F0A374F8F0900B49E0FCA3E0C5
:10616000FDA3E0FEA3E0FFEC1282E4E4FBFA7980F9
:1061700078471281CE9006511287FD7B017A05790E
:10618000E512A4EC900B317401F0A37405F0A37434
:10619000E5F09005E0E0FBA3E0FAA3E0F912E0539C
:1061A00090064E74FFF0A37442F0A37402F0900BBB
:1061B0004DE0FCA3E0FDA3E0FEA3E0FFEC1282E4CF
:1061C000E4FBFA798078471281CE9006511287FD60
:1061D0007B017A0579E512A4EC900B317401F0A3F0
:1061E0007405F0A374E5F09005E0E0FBA3E0FAA3EA
:1061F000E0F912E0530262F490064E74FFF0A374CB
:1062000041F0A374EEF0900B5DE0FCA3E0FDA3E091
:10621000FEA3E0FFEC1282E4E4FBFAF97846128177
:10622000CE9006511287FD7B017A0579E512A4EC28
:10623000900B317401F0A37405F0A374E5F09005A0
:10624000E0E0FBA3E0FAA3E0F912E05390064E74FD
:10625000FFF0A37441F0A374F8F0900B61E0FCA38D
:10626000E0FDA3E0FEA3E0FFEC1282E4E4FBFAF918
:1062700078461281CE9006511287FD7B017A05790E
:10628000E512A4EC900B317401F0A37405F0A37433
:10629000E5F09005E0E0FBA3E0FAA3E0F912E0539B
:1062A00090064E74FFF0A37442F0A37402F0900BBA
:1062B00065E0FCA3E0FDA3E0FEA3E0FFEC1282E4B6
:1062C000E4FBFAF978461281CE9006511287FD7BE5
:1062D000017A0579E512A4EC900B317401F0A374F6
:1062E00005F0A374E5F09005E0E0FBA3E0FAA3E07D
:1062F000F912E053900B3174FFF0A37440F0A374D3
:1063000057F09005E0E0FBA3E0FAA3E0F912E053B8
:10631000900B69E0B4031E900B3174FFF0A374423C
:10632000F0A37426F09005E0E0FBA3E0FAA3E0F907
:1063300012E053801C900B3174FFF0A37442F0A361
:106340007440F09005E0E0FBA3E0FAA3E0F912E06E
:1063500053900B6AE014603814605314606E14702C
:10636000030263EA147003026408240560030264F4
:1063700024900B3174FFF0A37442F0A37459F09091
:1063800005E0E0FBA3E0FAA3E0F912E05302642485
:10639000900B3174FFF0A37442F0A3746BF090057E
:1063A000E0E0FBA3E0FAA3E0F912E0538076900B63
:1063B0003174FFF0A37442F0A37480F09005E0E024
:1063C000FBA3E0FAA3E0F912E0538058900B31747C
:1063D000FFF0A37442F0A3749FF09005E0E0FBA3EC
:1063E000E0FAA3E0F912E053803A900B3174FFF029
:1063F000A37442F0A374BAF09005E0E0FBA3E0FAC6
:10640000A3E0F912E053801C900B3174FFF0A374E9
:1064100042F0A374D1F09005E0E0FBA3E0FAA3E022
:10642000F912E053900B6BE0146028146043146081
:106430005E24037076900B3174FFF0A37442F0A3D6
:1064400074ECF09005E0E0FBA3E0FAA3E0F912E0C1
:10645000538058900B3174FFF0A37443F0A374057C
:10646000F09005E0E0FBA3E0FAA3E0F912E053802E
:106470003A900B3174FFF0A37443F0A37419F090B9
:1064800005E0E0FBA3E0FAA3E0F912E053801C90E2
:106490000B3174FFF0A37443F0A37431F09005E066
:1064A000E0FBA3E0FAA3E0F912E053900BB0E06048
:1064B0001E900B3174FFF0A37443F0A37456F09058
:1064C00005E0E0FBA3E0FAA3E0F912E053801C90A2
:1064D0000B3174FFF0A37443F0A37477F09005E0E0
:1064E000E0FBA3E0FAA3E0F912E05390064E74FF3C
:1064F000F0A37443F0A37497F0900BB1E0FE3395D2
:10650000E0900651F0A3CEF07B017A0579E512A464
:10651000EC900B317401F0A37405F0A374E5F090D6
:1065200005E0E0FBA3E0FAA3E0F912E053900B31A1
:1065300074FFF0A37443F0A374B0F09005E0E0FBA7
:10654000A3E0FAA3E0F912E053E49005E3F0A3F02E
:10655000C39005E4E094039005E3E06480948040F8
:10656000030265EC90064E74FFF0A37441F0A3742F
:106570006DF09005E3E0FCA3E0FD2401FEE43C9017
:106580000651F0A3CEF0746C2DF582740B3CF583AC
:10659000E0FF900653E4F0A3EFF07B017A0579E584
:1065A00012A4EC900B317401F0A37405F0A374E510
:1065B000F09005E0E0FBA3E0FAA3E0F912E05390CD
:1065C0000B3174FFF0A37440F0A37457F09005E012
:1065D000E0FBA3E0FAA3E0F912E0539005E4E00445
:1065E000F070069005E3E004F0026550900B317402
:1065F000FFF0A37443F0A374C5F09005E0E0FBA3A3
:10660000E0FAA3E0F912E053E49005E3F0A3F0C34D
:106610009005E4E094039005E3E0648094804003F7
:106620000266D390064E74FFF0A37443F0A374DBAC
:10663000F09005E3E0FCA3E0FD2401FEE43C9006BD
:1066400051F0A3CEF0EDAE047802C333CE33CED8F2
:10665000F9246FF582740B3EF583E0FCA3E0FDA303
:10666000E0FEA3E0FF9005E3E0FAA3E0246CF582EE
:10667000740B3AF583E0F9F812879C900653128761
:10668000FD7B017A0579E512A4EC900B317401F0E1
:10669000A37405F0A374E5F09005E0E0FBA3E0FA35
:1066A000A3E0F912E053900B3174FFF0A37440F0B3
:1066B000A37457F09005E0E0FBA3E0FAA3E0F91221
:1066C000E0539005E4E004F070069005E3E004F088
:1066D00002660F900B3174FFF0A37443F0A374E5CE
:1066E000F09005E0E0FBA3E0FAA3E0F912E053E448
:1066F0009005E3F0A3F0C39005E4E094039005E374
:10670000E06480948040030267A490064E74FFF01A
:10671000A37443F0A374FFF09005E3E0FCA3E0FD55
:106720002401FEE43C900651F0A3CEF0EDAE0478D7
:1067300002C333CE33CED8F9247BF582740B3EF5F9
:1067400083E0FCA3E0FDA3E0FEA3E0FF900653126C
:1067500087FD7B017A0579E512A4EC900B31740179
:10676000F0A37405F0A374E5F09005E0E0FBA3E06E
:10677000FAA3E0F912E053900B3174FFF0A37440D8
:10678000F0A37457F09005E0E0FBA3E0FAA3E0F972
:1067900012E0539005E4E004F070069005E3E00495
:1067A000F00266F6900B3174FFF0A37444F0A3740A
:1067B00008F09005E0E0FBA3E0FAA3E0F912E05353
:1067C00090064E74FFF0A37444F0A37420F0900B75
:1067D000B3E0FCA3E0FDA3E0FEA3E0FF90065112AE
:1067E00087FD900BB7E0FCA3E0FDA3E0FEA3E0FF74
:1067F0009006551287FD900BBBE0FCA3E0FDA3E0E3
:10680000FEA3E0FF9006591287FD7B017A0579E52A
:1068100012A4EC900B317401F0A37405F0A374E59D
:10682000F09005E0E0FBA3E0FAA3E0F912E053905A
:10683000064E74FFF0A37444F0A37439F0900BBFBC
:10684000E0FCA3E0FDA3E0FEA3E0FF900651128769
:10685000FD900BC3E0FCA3E0FDA3E0FEA3E0FF90EE
:1068600006551287FD900BC7E0FCA3E0FDA3E0FEF8
:10687000A3E0FF9006591287FD7B017A0579E512A6
:10688000A4EC900B317401F0A37405F0A374E5F04F
:106890009005E0E0FBA3E0FAA3E0F912E053900BCF
:1068A0003174FFF0A37440F0A37457F09005E0E05A
:1068B000FBA3E0FAA3E0F912E05390064E74FFF058
:1068C000A37444F0A37452F0900CA4E0FF9006511E
:1068D000E4F0A3EFF07B017A0579E512A4EC900BCC
:1068E000317401F0A37405F0A374E5F09005E0E0C5
:1068F000FBA3E0FAA3E0F912E053900B3174FFF030
:10690000A37440F0A37457F09005E0E0FBA3E0FA15
:10691000A3E0F912E053E49005E3F0A3F0C390057F
:10692000E4E094019005E3E0648094804003026A0F
:106930003590064E74FFF0A37444F0A3746CF0908D
:1069400005E3E0FCA3E0FD2401FEE43C900651F0E9
:10695000A3CEF0EDAE047802C333CE33CED8F92403
:10696000A5F582740C3EF583E0FCA3E0FDA3E0FEF8
:10697000A3E0FF9005E3E0FAA3E02489F582740C1C
:106980003AF583E0F9F812879C9006531287FD7B55
:10699000017A0579E512A4EC900B317401F0A3742F
:1069A00005F0A374E5F09005E0E0FBA3E0FAA3E0B6
:1069B000F912E05390064E74FFF0A37444F0A374F0
:1069C00092F09005E3E0FAA3E0FBAE027802C33355
:1069D000CE33CED8F924ADF582740C3EF583E0FCBD
:1069E000A3E0FDA3E0FEA3E0FF74892BF582740C05
:1069F0003AF583E0F9F812879C9006511287FD7BE7
:106A0000017A0579E512A4EC900B317401F0A374BE
:106A100005F0A374E5F09005E0E0FBA3E0FAA3E045
:106A2000F912E0539005E4E004F070069005E3E00D
:106A300004F002691D90064E74FFF0A37444F0A3A5
:106A4000749FF0900CB5E0A3E0A3E0FFA3E09006F4
:106A500051CFF0A3EFF0900CB9E0A3E0A3E0FFA3C7
:106A6000E0900653CFF0A3EFF07B017A0579E512B1
:106A7000A4EC900B317401F0A37405F0A374E5F05D
:106A80009005E0E0FBA3E0FAA3E0F912E053900BDD
:106A90003174FFF0A37440F0A37457F09005E0E068
:106AA000FBA3E0FAA3E0F912E05390064E74FFF066
:106AB000A37444F0A374BBF0900CBDE0FFA3E0907E
:106AC0000651CFF0A3EFF07B017A0579E512A4EC33
:106AD000900B317401F0A37405F0A374E5F09005F8
:106AE000E0E0FBA3E0FAA3E0F912E053900B31746D
:106AF000FFF0A37440F0A37457F09005E0E0FBA30F
:106B0000E0FAA3E0F912E05390064E74FFF0A3748C
:106B100044F0A374CDF0900CBFE0FFA3E0900651C9
:106B2000CFF0A3EFF0900CC1E0FFA3E0900653CFAD
:106B3000F0A3EFF07B017A0579E512A4EC900B311C
:106B40007401F0A37405F0A374E5F09005E0E0FB98
:106B5000A3E0FAA3E0F912E053900B3174FFF0A325
:106B60007440F0A37457F09005E0E0FBA3E0FAA3B3
:106B7000E0F912E05390064E74FFF0A37444F0A3C2
:106B800074EFF0900CC4E0FCA3E0FDA3E0FEA3E0F2
:106B9000FF9006511287FD900CC8E0FCA3E0FDA316
:106BA000E0FEA3E0FF9006551287FD7B017A057990
:106BB000E512A4EC900B317401F0A37405F0A374FA
:106BC000E5F09005E0E0FBA3E0FAA3E0F912E05362
:106BD000900B3174FFF0A37440F0A37457F090054C
:106BE000E0E0FBA3E0FAA3E0F912E053900CC3E06D
:106BF000601E900B3174FFF0A37445F0A37413F082
:106C00009005E0E0FBA3E0FAA3E0F912E053801C5A
:106C1000900B3174FFF0A37445F0A3742EF090052F
:106C2000E0E0FBA3E0FAA3E0F912E05390064E7413
:106C3000FFF0A37445F0A37448F0900CCCE0FF90F3
:106C40000651E4F0A3EFF07B017A0579E512A4EC9C
:106C5000900B317401F0A37405F0A374E5F0900576
:106C6000E0E0FBA3E0FAA3E0F912E053900B3174EB
:106C7000FFF0A37440F0A37457F09005E0E0FBA38D
:106C8000E0FAA3E0F912E053900CFAE0640160032B
:106C9000026DC590064E74FFF0A37445F0A3745ABC
:106CA000F0900CEEE0A3E0A3E0FFA3E0900651CF4C
:106CB000F0A3EFF07B017A0579E512A4EC900B319B
:106CC0007401F0A37405F0A374E5F09005E0E0FB17
:106CD000A3E0FAA3E0F912E053900B3174FFF0A3A4
:106CE0007440F0A37457F09005E0E0FBA3E0FAA332
:106CF000E0F912E05390064E74FFF0A37445F0A340
:106D00007473F0900CF2E0A3E0A3E0FFA3E0900620
:106D100051CFF0A3EFF07B017A0579E512A4EC9056
:106D20000B317401F0A37405F0A374E5F09005E055
:106D3000E0FBA3E0FAA3E0F912E053900B3174FFFB
:106D4000F0A37440F0A37457F09005E0E0FBA3E0DB
:106D5000FAA3E0F912E05390064E74FFF0A37445D5
:106D6000F0A37499F0900CEAE0FCA3E0FDA3E0FE30
:106D7000A3E0FF900B6CE0F9F812879C900651EEAF
:106D8000F0A3EFF07B017A0579E512A4EC900B31CA
:106D90007401F0A37405F0A374E5F09005E0E0FB46
:106DA000A3E0FAA3E0F912E053900B3174FFF0A3D3
:106DB0007440F0A37457F09005E0E0FBA3E0FAA361
:106DC000E0F912E05390064E74FFF0A37445F0A36F
:106DD00074ABF0900D91E0F8A3E0F9A3E0FAA3E022
:106DE000FB900E60E0FCA3E0FDA3E0FEA3E0C39BEC
:106DF000FFEE9AFEED99FDEC98FC9006511287FD8E
:106E00007B017A0579E512A4EC900B317401F0A3B3
:106E10007405F0A374E5F09005E0E0FBA3E0FAA3AD
:106E2000E0F912E053900B3174FFF0A37440F0A32B
:106E30007457F09005E0E0FBA3E0FAA3E0F912E05C
:106E40005322E4F526F525F524F523900B39E0FCD3
:106E5000A3E0FDA3E0FEA3E0F5428E418D408C3F10
:106E6000A3E0FCA3E0FDA3E0FEA3E0F5468E458D84
:106E7000448C43A3E0FCA3E0FDA3E0FEA3E0F54ABD
:106E80008E498D488C47A3E0FCA3E0FDA3E0FEA360
:106E9000E0F54E8E4D8D4C8C4BA3E0FCA3E0FDA3A2
:106EA000E0FEA3E0F5528E518D508C4FA3E0FCA381
:106EB000E0FDA3E0FEA3E0F5568E558D548C53A360
:106EC000E0FCA3E0FDA3E0FEA3E0F55A8E598D5847
:106ED0008C57A3E0FCA3E0FDA3E0FEA3E0F55E8EEB
:106EE0005D8D5C8C5BA3E0FCA3E0FDA3E0FEA3E072
:106EF000F5628E618D608C5F900BA0E0FEA3E0FFD9
:106F0000EE3395E0FDFC780D1287B0AB5AAA59A973
:106F100058A85712E5868F668E658D648C63900B3A
:106F20005DE0FCA3E0FDA3E0FEA3E0F56A8E698DC1
:106F3000688C67A3E0FCA3E0FDA3E0FEA3E0F56E90
:106F40008E6D8D6C8C6BA3E0FCA3E0FDA3E0FEA333
:106F5000E0F5728E718D708C6F900BA2E0FEA3E055
:106F6000FFFBAA06E4900E8CE0FCA3E0FDA3E0FE8C
:106F7000A3E0C39BF53AEE9AF539ED9400F538ECB1
:106F80009400F537900BA4E0FEA3E0FFFBAA06E413
:106F9000900E90E0FCA3E0FDA3E0FEA3E0C39BF510
:106FA0003EEE9AF53DED9400F53CEC9400F53B90F7
:106FB0000B6AE024FE700302711F14700302717DDE
:106FC0001470030272721470030273D524046003F8
:106FD00002756C900BB0E06024A3E0FF3395E0FEF7
:106FE000FDFC900E7DE0F8A3E0F9A3E0FAA3E0FB3E
:106FF00012862A8F368E358D348C338024900BB1D7
:10700000E0FF3395E0FEFDFC900E79E0F8A3E0F997
:10701000A3E0FAA3E0FB12862A8F368E358D348CDE
:1070200033900C37E0F8A3E0F9A3E0FAA3E0FBC348
:10703000E5369BFFE5359AFEE53499FDE53398FC8E
:10704000900B98E0F8A3E0F9A3E0FAA3E0FBC312E9
:1070500087625044E4FFFEFDFC900B98E0F8A3E04B
:10706000A3E0A3E0C3128762602E900C37E0FCA37C
:10707000E0FDA3E0FEA3E0FF900B98E0F8A3E0A3FF
:10708000E0A3E0EF2BFFEE3AFEED39FDEC38FC908B
:107090000C371287FD02756C900C37E0F8A3E0F90D
:1070A000A3E0FAA3E0FBC3E5369BFFE5359AFEE5D6
:1070B0003499FDE53398FC900B9CE0F8A3E0F9A32C
:1070C000E0FAA3E0FBD31287624043E4FFFEFDFC3D
:1070D000900B9CE0F8A3E0A3E0A3E0128762602E8F
:1070E000900C37E0FCA3E0FDA3E0FEA3E0FF900BD3
:1070F0009CE0F8A3E0A3E0A3E0EF2BFFEE3AFEED67
:1071000039FDEC38FC900C371287FD02756CAF36F8
:10711000AE35AD34AC33900C371287FD02756CE49C
:10712000FFFEFDFCAB3AAA39A938A837D312876213
:10713000403D900CADE0FCA3E0FDA3E0FEA3E0FF2A
:10714000A83712862AC006C007900BA2E0FEA3E073
:10715000FFC3E49FFF74049EFEAB07FAE4F9F8D086
:1071600007D00612E586900C371287FD02756CE495
:10717000FFFEFDFC900C371287FD02756C900D9997
:10718000E0FCA3E0FDA3E0FEA3E0FF900C37128734
:10719000FDE4FFFEFDFCAB3AAA39A938A837D312AB
:1071A00087624056900CCCE0FFE4FCFDFEA837124D
:1071B000862AE47B02FAF9F812862AC006C00790F4
:1071C0000BA2E0FEA3E0FFC3E49FFF74049EFEABAE
:1071D00007FAE4F9F8D007D00612E586900D99E099
:1071E000F8A3E0F9A3E0FAA3E02FFFEA3EFEE93DB1
:1071F000FDE83CFC900C371287FDE4FFFEFDFCAB84
:107200003EAA3DA93CA83BD3128762500302756C8D
:10721000900CCCE0FFE4FCFDFEA83B12862AE47B48
:1072200002FAF9F812862AC006C007900BA4E0FE05
:10723000A3E0FFC3E49FFF74049EFEAB07FAE4F9EA
:10724000F8D007D00612E586A804A905AA06AB0760
:10725000900D99E0FCA3E0FDA3E0FEA3E0C39BFF3B
:10726000EE9AFEED99FDEC98FC900C371287FD022A
:10727000756C900D99E0FCA3E0FDA3E0FEA3E0FF98
:10728000900C371287FD900F46E01460481470038D
:1072900002734F2402600302756CE4FFFEFDFCAB39
:1072A0003AAA39A938A837D31287624009900F4605
:1072B0007401F002756CE4FFFEFDFCAB3EAA3DA933
:1072C0003CA83BD3128762500302756C900F467442
:1072D00002F002756CE4FFFEFDFCAB3AAA39A93856
:1072E000A837C31287625008E4900F46F002756C0D
:1072F000900CCCE0FFE4FCFDFEAB3AAA39A938A81B
:107300003712862AE47B02FAF9F812862AC006C0F0
:1073100007900BA2E0FEA3E0FFC3E49FFF74049E6E
:10732000FEAB07FAE4F9F8D007D00612E586900D17
:1073300099E0F8A3E0F9A3E0FAA3E02FFFEA3EFE0C
:10734000E93DFDE83CFC900C371287FD02756CE4CA
:10735000FFFEFDFCAB3EAA3DA93CA83BC3128762E1
:107360005008E4900F46F002756C900CCCE0FFE4FE
:10737000FCFDFEAB3EAA3DA93CA83B12862AE47B5D
:1073800002FAF9F812862AC006C007900BA4E0FEA4
:10739000A3E0FFC3E49FFF74049EFEAB07FAE4F989
:1073A000F8D007D00612E586A804A905AA06AB07FF
:1073B000900D99E0FCA3E0FDA3E0FEA3E0C39BFFDA
:1073C000EE9AFEED99FDEC98FC900C371287FD02C9
:1073D000756C02756C900D99E0FCA3E0FDA3E0FED6
:1073E000A3E0FF900C371287FD900F46E014604831
:1073F0001470030274D12402600302756CE4FFFE72
:10740000FDFCAB3AAA39A938A837D31287624009E4
:10741000900F467401F002756CE4FFFEFDFCAB3E7C
:10742000AA3DA93CA83BD3128762500302756C9019
:107430000F467402F002756CE4FFFEFDFCAB3AAA45
:1074400039A938A837C3128762501BE4FFFEFDFC40
:10745000AB3EAA3DA93CA83BC31287625008E4900A
:107460000F46F002756CE4FFFEFDFCAB3AAA39A9A9
:1074700038A837D3128762500302756C900CCCE0A9
:10748000FFE4FCFDFEA83712862A78021287B0C0FE
:1074900006C007900BA2E0FEA3E0FFC3E49FFF74C9
:1074A000049EFEAB07FAE4F9F8D007D00612E58691
:1074B000900D99E0F8A3E0F9A3E0FAA3E02FFFEA2A
:1074C0003EFEE93DFDE83CFC900C371287FD02755D
:1074D0006CE4FFFEFDFCAB3AAA39A938A837C31209
:1074E0008762501AE4FFFEFDFCAB3EAA3DA93CA812
:1074F0003BC31287625007E4900F46F0806EE4FFB2
:10750000FEFDFCAB3EAA3DA93CA83BD312876240DE
:107510005B900BAFE0FFE4FCFDFEA83B12862A78EF
:10752000021287B0C006C007900BA4E0FEA3E0FFE4
:10753000C3E49FFF74049EFEAB07FAE4F9F8D0079A
:10754000D00612E586A804A905AA06AB07900D99F6
:10755000E0FCA3E0FDA3E0FEA3E0C39BFFEE9AFEE8
:10756000ED99FDEC98FC900C371287FD900B87E0AD
:10757000606AA3E0FCA3E0FDA3E0FEA3E0FF900CA3
:1075800037E0F8A3E0F9A3E0FAA3E0FBC3128762B7
:107590005014900B88E0FCA3E0FDA3E0FEA3E0FF05
:1075A000900C371287FD900B90E0FCA3E0FDA3E068
:1075B000FEA3E0FF900C37E0F8A3E0F9A3E0FAA304
:1075C000E0FBD31287624014900B90E0FCA3E0FD37
:1075D000A3E0FEA3E0FF900C371287FD900BDDE0E7
:1075E00064016003027695900EACE0B40114900E35
:1075F00058E0FCA3E0FDA3E0FEA3E0FF900C3712EF
:1076000087FD900D54E064016003027695FFFEFD56
:10761000FCAB3EAA3DA93CA83BD3128762405D90DB
:107620000CEAE0FCA3E0FDA3E0FEA3E0FFA83B1210
:10763000862AC006C007900BA4E0FEA3E0FFC3E4C7
:107640009FFF74049EFEAB07FAE4F9F8D007D0065A
:1076500012E586A804A905AA06AB07900CEAE0FC8F
:10766000A3E0FDA3E0FEA3E0C39BFFEE9AFEED992D
:10767000FDEC98FC900C371287FD8019900CEAE025
:10768000FCA3E0FDA3E0FEA3E0FF900C371287FD12
:10769000E4900D54F0900B6BE07003027AF01470DC
:1076A00003027EAA147003027C7E146003027F181A
:1076B000900E75E0F8A3E0F9A3E0FAA3E0FB900CCC
:1076C00037E0FCA3E0FDA3E0FEA3E0C39BF52AEEB8
:1076D0009AF529ED99F528EC98F527900F36E0FCFE
:1076E000A3E0FDA3E0FEA3E0252AFFEE3529FEED91
:1076F0003528FDEC3527FC900F361287FDAF66AEBE
:1077000065AD64AC63AB2AAA29A928A827D3128740
:1077100062400E85662A85652985642885632780F1
:107720002CAF66AE65AD64AC63128754AB2AAA2950
:10773000A928A827C31287625013AF66AE65AD644F
:10774000AC631287548F2A8E298D288C277F807EE8
:10775000F07DFA7C02900F36E0F8A3E0F9A3E0FA9E
:10776000A3E0FBD312876240107F807EF07DFA7C1D
:1077700002900F361287FD802A7F807E0F7D057C68
:10778000FD900F36E0F8A3E0F9A3E0FAA3E0FBC315
:10779000128762500E7F807E0F7D057CFD900F3634
:1077A0001287FDE4F532F531F530F52FFFFEFDFCD3
:1077B000AB5AAA59A958A857C31287626026AF2AA4
:1077C000AE29AD28AC27A85712862A780D12879CBF
:1077D000E5322FF532E5313EF531E5303DF530E566
:1077E0002F3CF52FE4FFFEFDFCAB5EAA5DA95CA873
:1077F0005BC3128762602C900F36E0FCA3E0FDA310
:10780000E0FEA3E0FFA85B12862A780D12879CE5B4
:10781000322FF532E5313EF531E5303DF530E52FDB
:107820003CF52FE4FFFEFDFCAB62AA61A960A85FF6
:10783000C31287626043900F3EE0F8A3E0F9A3E033
:10784000FAA3E0FBC3E52A9BFFE5299AFEE5289908
:10785000FDE52798FCAB62AA61A960A85F12862AA1
:10786000780D12879CE5322FF532E5313EF531E592
:10787000303DF530E52F3CF52FAF2AAE29AD28ACD1
:1078800027900F3E1287FD900C50E0FCA3E0FDA373
:10789000E0FEA3E02532F532EE3531F531ED35303D
:1078A000F530EC352FF52FE4FFFEFDFCAB32AA31AD
:1078B000A930A82FC31287624004D2118002C211DE
:1078C000900BA0E0FEA3E0FFEE3395E0FDFCAB32B1
:1078D000AA31A930A82FD31287624016900BA0E0DE
:1078E000FEA3E0FFEE3395E08F328E31F530F52FB9
:1078F000803C900BA0E0FEA3E0FFC3E49FFFE49E6A
:10790000FE3395E0FDFCAB32AA31A930A82FC3129B
:107910008762501A900BA0E0FEA3E0FFC3E49FFF34
:10792000E49EFE3395E08F328E31F530F52F900EC8
:1079300081E0F8A3E0F9A3E0FAA3E0FBC3E5329B02
:10794000F52EE5319AF52DE53099F52CE52F98F5D2
:107950002B900F3AE0FCA3E0FDA3E0FEA3E0252E70
:10796000FFEE352DFEED352CFDEC352BFC900F3A5E
:107970001287FD7FA07E867D017C00900F3AE0F8A3
:10798000A3E0F9A3E0FAA3E0FBD312876240107FE3
:10799000A07E867D017C00900F3A1287FD802A7FB1
:1079A000607E797DFE7CFF900F3AE0F8A3E0F9A3BA
:1079B000E0FAA3E0FBC3128762500E7F607E797D00
:1079C000FE7CFF900F3A1287FDE4F526F525F5249D
:1079D000F523FFFEFDFCAB6AAA69A968A867C3127C
:1079E00087626026AF2EAE2DAD2CAC2BA867128619
:1079F0002A780D12879CE5262FF526E5253EF525EC
:107A0000E5243DF524E5233CF523E4FFFEFDFCAB36
:107A10006EAA6DA96CA86BC3128762602C900F3A96
:107A2000E0FCA3E0FDA3E0FEA3E0FFA86B12862A22
:107A3000780D12879CE5262FF526E5253EF525E5F0
:107A4000243DF524E5233CF523E4FFFEFDFCAB7269
:107A5000AA71A970A86FC31287626043900F42E0B9
:107A6000F8A3E0F9A3E0FAA3E0FBC3E52E9BFFE552
:107A70002D9AFEE52C99FDE52B98FCAB72AA71A915
:107A800070A86F12862A780D12879CE5262FF5269E
:107A9000E5253EF525E5243DF524E5233CF5237455
:107AA000FF7F9CFEFDFCAB26AA25A924A823C312B8
:107AB0008762500D74FF75269CF525F524F523800B
:107AC0001EE47F64FEFDFCAB26AA25A924A823D3CF
:107AD000128762400AE4752664F525F524F523AF84
:107AE0002EAE2DAD2CAC2B900F421287FD027F18CD
:107AF000900E75E0F8A3E0F9A3E0FAA3E0FB900C88
:107B000037E0FCA3E0FDA3E0FEA3E0C39BF52AEE73
:107B10009AF529ED99F528EC98F527900F36E0FCB9
:107B2000A3E0FDA3E0FEA3E0252AFFEE3529FEED4C
:107B30003528FDEC3527FC900F361287FDE47FE8F1
:107B40007E03FDFC900F36E0F8A3E0F9A3E0FAA372
:107B5000E0FBD3128762400FE47FE87E03FDFC90D8
:107B60000F361287FD802A7F187EFC7DFF7CFF90F8
:107B70000F36E0F8A3E0F9A3E0FAA3E0FBC3128715
:107B800062500E7F187EFC7DFF7CFF900F361287BF
:107B9000FDE4FFFEFDFCAB42AA41A940A83FC31291
:107BA0008762601AAF2AAE29AD28AC27A83F12869B
:107BB0002A781012879C8F268E258D248C23E4FF33
:107BC000FEFDFCAB46AA45A944A843C312876260E8
:107BD0002C900F36E0FCA3E0FDA3E0FEA3E0FFA89D
:107BE0004312862A781012879CE5262FF526E52574
:107BF0003EF525E5243DF524E5233CF523E4FFFE91
:107C0000FDFCAB4AAA49A948A847C3128762604352
:107C1000900F3EE0F8A3E0F9A3E0FAA3E0FBC3E590
:107C20002A9BFFE5299AFEE52899FDE52798FCABFC
:107C30004AAA49A948A84712862A781012879CE5C3
:107C4000262FF526E5253EF525E5243DF524E523FB
:107C50003CF523AF2AAE29AD28AC27900F3E128702
:107C6000FDE4FFFEFDFCAB26AA25A924A823D31220
:107C700087624005D211027F18C211027F18900C52
:107C80004FE07003027F18201003027F18900C3F12
:107C9000E0FCA3E0FDA3E0FEA3E0F5328E318D30E1
:107CA0008C2F900BA0E0FEA3E0FFEE3395E0FDFCEF
:107CB000AB32AA31A930A82FD31287624016900B9D
:107CC000A0E0FEA3E0FFEE3395E08F328E31F53079
:107CD000F52F803C900BA0E0FEA3E0FFC3E49FFFE4
:107CE000E49EFE3395E0FDFCAB32AA31A930A82F0B
:107CF000C3128762501A900BA0E0FEA3E0FFC3E41A
:107D00009FFFE49EFE3395E08F328E31F530F52FE4
:107D1000900E81E0F8A3E0F9A3E0FAA3E0FBC3E54D
:107D2000329BF52EE5319AF52DE53099F52CE52FAE
:107D300098F52B900F3AE0FCA3E0FDA3E0FEA3E052
:107D4000252EFFEE352DFEED352CFDEC352BFC9070
:107D50000F3A1287FD7FA07E867D017C00900F3A4E
:107D6000E0F8A3E0F9A3E0FAA3E0FBD312876240B6
:107D7000107FA07E867D017C00900F3A1287FD80E7
:107D80002A7F607E797DFE7CFF900F3AE0F8A3E0C9
:107D9000F9A3E0FAA3E0FBC3128762500E7F607E76
:107DA000797DFE7CFF900F3A1287FDE4F526F525DC
:107DB000F524F523FFFEFDFCAB4EAA4DA94CA84BC4
:107DC000C31287626026AF2EAE2DAD2CAC2BA84B14
:107DD00012862A781012879CE5262FF526E5253E87
:107DE000F525E5243DF524E5233CF523E4FFFEFDE0
:107DF000FCAB52AA51A950A84FC3128762602C90C5
:107E00000F3AE0FCA3E0FDA3E0FEA3E0FFA84F12C1
:107E1000862A781012879CE5262FF526E5253EF563
:107E200025E5243DF524E5233CF523E4FFFEFDFC98
:107E3000AB56AA55A954A853C31287626043900F4A
:107E400042E0F8A3E0F9A3E0FAA3E0FBC3E52E9B30
:107E5000FFE52D9AFEE52C99FDE52B98FCAB56AA83
:107E600055A954A85312862A781012879CE5262F0C
:107E7000F526E5253EF525E5243DF524E5233CF5ED
:107E800023AF2EAE2DAD2CAC2B900F421287FDE40C
:107E9000FFFEFDFCAB26AA25A924A823C3128762F6
:107EA0004004D2118072C211806E900C47E0FCA396
:107EB000E0FDA3E0FEA3E0F5268E258D248C23E4CF
:107EC000FFFEFDFCAB26AA25A924A823D3128762B6
:107ED0004004D2118002C21174FF7F9CFEFDFCABF6
:107EE00026AA25A924A823C3128762500D74FF7502
:107EF000269CF525F524F523801EE47F64FEFDFC19
:107F0000AB26AA25A924A823D3128762400AE475C8
:107F10002664F525F524F523E47F64FEFDFCAB26FD
:107F2000AA25A924A823D3128762400AE4752664EF
:107F3000F525F524F52374FF7F9CFEFDFCAB26AAF6
:107F400025A924A823C3128762500B74FF75269CB1
:107F5000F525F524F523900B6BE064016037AF261F
:107F6000AE25AD24AC23780A1287B0E47B64FAF91D
:107F7000F812E586A804A905AA06AB07900EADE0A5
:107F8000FFE4FCFDFE12862A780A12879C8F268E5B
:107F9000258D248C23E4FFFEFDFCAB26AA25A92415
:107FA000A823C312876240047F0180027FFF900EE6
:107FB00070EFF03011077F0112F2818005E4FF12AB
:107FC000F281AE25AF2612F12B12F2692202838EC6
:107FD000E86480F8E933E83360110460F0ED33ECD5
:107FE000337009E8FCE9FDEAFEEBFF220460DED312
:107FF000EB9FEA9EE99DE8C2E78CF0C2F795F0405E
:108000000CE8CCF8E9CDF9EACEFAEBCFFB128359B4
:1080100085D0F05804700320D5B3E80470075002EF
:10802000B2D502839892D5EC0460F7E4CCC0E0C3EB
:1080300098F8603B94186008400DD0E0FB02837014
:10804000E4FBFAC9FC8028E830E406E4C9FBE4CA92
:10805000FCE830E305E4C9CACBFCE854076010F83B
:10806000C3E913F9EA13FAEB13FBEC13FCD8F13074
:10807000F52FC3E49CFCEF9BFFEE9AFEED99FDD03B
:10808000E0FBEF4E4D4C701222DB03028395EC2C8B
:10809000FCEF33FFEE33FEED33FDED30E7EB028313
:1080A00070EF2BFFEE3AFEED39FDD0E0FB50130BE5
:1080B000BB0003028398ED13FDEE13FEEF13FFECFC
:1080C00013FC028370EC4D6011E8497017ED33EC3E
:1080D0003304600DE4FCFFFEFD22E933E833047055
:1080E000F802838E12835958046009E4CC2481502D
:1080F00006285009028398284003028395C0E0EBCC
:108100004A7044B98006D0E0FB028384EF4E701CB5
:10811000BD8008EBFFEAFEE9FD80EBE98DF0A4FEEF
:10812000E5F00281AEE9CDF9EAFEEBFFEF89F0A4BC
:10813000FCE5F0CE89F0A42EFFE435F0CD89F0A463
:108140002DFEE435F08067EF4E7005BD80D780C30B
:10815000EF8BF0A4ACF0EE8BF0A42CFCE435F0F83F
:10816000EF8AF0A42CE5F038FCE433CB8DF0A42C9E
:10817000FCE5F03BF8EE8AF0A42CFCE5F038F8E4DE
:1081800033CF89F0A42CFCE5F038CF3400CE89F051
:10819000A42FFFE5F03EFEE433C98DF0A42EFEE5EA
:1081A000F039CD8AF0A42FFFE5F03EFEE43DFD332B
:1081B000D0E0FB50070BBB000F028398EC2CFCEFC8
:1081C00033FFEE33FEED33FD028370028398EC5DE6
:1081D000046005E85904700302838E128359580421
:1081E00060F6EC4860F2EC7004FDFEFF22C860DB34
:1081F0002481C85009C398600250060283959850A4
:10820000CAF582E9294B4A7005AB8202838475F076
:10821000007C1A7880C3EF9BEE9AED99400DC3EF76
:108220009BFFEE9AFEED99FDE842F0DC23ACF0D026
:10823000E0FFD0E0FED0E0FDAB8220E7101BEB605A
:10824000BAEC2CFCEF33FFEE33FEED33FD0283700E
:10825000E803F830E705C0F075F000EF2FFFEE33CC
:10826000FEED33FD40B830E7C280AA74F8CC6480DC
:10827000CCC86480C8F58204604FC3EB9FF5F0EA78
:108280009E42F0E99D42F0E89C45F0603C501DE5BF
:10829000825FFFE582D313CB5BCBF42B5582FB507F
:1082A000280ABA002409B9002008801DE5825BFB7A
:1082B000E582D313CF5FCFF4C3132F5582FF50094C
:1082C0000EBE00050DBD00010CC3EB9FF5F0EA9E4C
:1082D00042F0E99D42F0E89C45F06007CC4820E779
:1082E00001B3EC2275F020800E75F010800575F05A
:1082F000087D007E007F003392D530D5031287546D
:10830000EC334010EF33FFEE33FEED33FDEC33FC86
:10831000D5F0ED22E5F0247EA2D513CC92E7CDCEA8
:10832000FF22EDD2E7CD33EC3392D524814006E431
:10833000FFFEFDFC22FCE4CFCECDCC24E050117436
:10834000FF80EDC3CC13CCCD13CDCE13CECF13CF46
:108350000470F030D5DE028754E9D2E7C933E83340
:10836000F892D5EDD2E7CD33EC33FC5002B2D522F2
:10837000EC30E7100FBF000C0EBE00080DBD00046E
:108380000BEB6014A2D5EB13FCED92E7FD2274FF1A
:10839000FCFDFEFF22E480F8A2D574FF13FC7D8073
:1083A000E480EFF920E73624F950037907E4F42458
:1083B00002FBE582158270021583DBF6E024FB5098
:1083C0001BE96014E4F0E582158270021583E00475
:1083D000F0B40A08E4F0D9EE7401F00A22C2D52202
:1083E000ED33EC3392D5FA602AB4FF33EDC2E77B6C
:1083F000FF60067A847905E4227A84790E20D50418
:108400007A847909224E614E002B494E46002D494F
:108410004E4600E47A08F0A3DAFC7B00740722C021
:1084200083C082ECC0E0EDC0E0EEC0E0EFC0E0EA67
:1084300075F010A4CAABF075F04DA42BFBE435F039
:10844000FCEA2410FAEB34C5FBEC34D9FCEDC2E7AE
:10845000FF75F056A4F42411C5F0F434C58FF0A4D0
:108460002AE5F03BE43CF020E714128515D0E0FF4C
:10847000D0E0FED0E0FDD0E0FC1281CE8014F40408
:10848000128515D0E0FFD0E0FED0E0FDD0E0FC1278
:1084900080C5D082D083E0FAEDD2E7CD33EC33242F
:1084A00082FBE4C3CF33CFCE33CECD33CD33DBF33A
:1084B0007B0775F00A846004F0A31B0AE5F0F0A3C3
:1084C0008FF0740AA4FFACF08EF0740AA42CFEACFA
:1084D000F050010C8DF0740AA42CFDE435F0F0A3EB
:1084E000DBDE7407223F8000004120000042C8000C
:1084F00000447A0000461C400047C35000497424E1
:10850000004B1896804CBEBC205A0E1BCA6753C243
:108510001C749DC5AEFB60065407601C23231285A6
:1085200043EB5438600912852F12853E1280C5EC4A
:10853000F8EDF9EEFAEFCB22EB12853E80F15438DC
:1085400003241C9084E5FE93FC0EEE93FD0EEE9347
:108550000ECE93FF22BB010689828A83E02250025D
:10856000E722BBFE02E32289828A83E49322BB01D5
:108570000CE58229F582E5833AF583E0225006E98D
:108580002582F8E622BBFE06E92582F8E222E58292
:1085900029F582E5833AF583E49322BB01068982BB
:1085A0008A83F0225002F722BBFE01F322EF8DF006
:1085B000A4A8F0CF8CF0A428CE8DF0A42EFE22C269
:1085C000D5EC30E709B2D5E4C39DFDE49CFCEE3068
:1085D000E715B2D5E4C39FFFE49EFE128A57C3E4B9
:1085E0009DFDE49CFC8003128A5730D507C3E49FAD
:1085F000FFE49EFE22C5F0F8A3E028F0C5F0F8E500
:1086000082158270021583E038F022BB010A89824C
:108610008A83F0E5F0A3F0225006F709A7F01922AB
:10862000BBFE06F3E5F009F31922E88FF0A4CC8B2A
:10863000F0A42CFCE98EF0A42CFC8AF0EDA42CFC18
:10864000EA8EF0A4CDA8F08BF0A42DCC3825F0FD57
:10865000E98FF0A42CCD35F0FCEB8EF0A4FEA9F050
:10866000EB8FF0A4CFC5F02ECD39FEE43CFCEAA49C
:108670002DCE35F0FDE43CFC2275F008758200EF4C
:108680002FFFEE33FECD33CDCC33CCC58233C58244
:108690009BED9AEC99E58298400CF582EE9BFEEDFD
:1086A0009AFDEC99FC0FD5F0D6E4CEFBE4CDFAE4CC
:1086B000CCF9A88222B800C1B90059BA002DEC8BC0
:1086C000F084CFCECDFCE5F0CBF97818EF2FFFEE9C
:1086D00033FEED33FDEC33FCEB33FB10D703994055
:1086E00004EB99FB0FD8E5E4F9FA227818EF2FFF95
:1086F000EE33FEED33FDEC33FCC933C910D7059BD7
:10870000E99A4007EC9BFCE99AF90FD8E0E4C9FA32
:10871000E4CCFB2275F010EF2FFFEE33FEED33FDBE
:10872000CC33CCC833C810D7079BEC9AE899400AE1
:10873000ED9BFDEC9AFCE899F80FD5F0DAE4CDFB5F
:10874000E4CCFAE4C8F922CFF4CFCEF4CECDF4CD08
:10875000CCF4CC22C3E49FFFE49EFEE49DFDE49CA8
:10876000FC22EB9FF5F0EA9E42F0E99D42F0EC64BA
:1087700080C864809845F022EB9FF5F0EA9E42F0B5
:10878000E99D42F0E89C45F022E8600FECC313FC41
:10879000ED13FDEE13FEEF13FFD8F122E86010ECAD
:1087A000A2E713FCED13FDEE13FEEF13FFD8F0224A
:1087B000E8600FEFC333FFEE33FEED33FDEC33FC27
:1087C000D8F122BB010789828A83028ACE5005E94B
:1087D000F8028AC2BBFE05E9F8028ADA89828A8336
:1087E000028AE6BB010789828A830287FD5005E978
:1087F000F8028AF6BBFE05E9F8028B0222ECF0A330
:10880000EDF0A3EEF0A3EFF022F8E0FBA3A3E0F974
:1088100025F0F0E582158270021583E0FA38F02227
:10882000EBF0A3EAF0A3E9F022D083D082F8E4933E
:108830007012740193700DA3A393F8740193F582E1
:108840008883E4737402936860EFA3A3A380DFE5D9
:10885000122582F582E5113583F583B511048582F1
:10886000122210AF06858212F51122858212F511AF
:10887000D2AF22EC8EF0A4CCC5F0CCCDF8EFA4CED4
:10888000C5F02DFDE43CFCE8A42EC8C5F03DFDE498
:108890003CFCEFA4FFE5F028FEE43DFDE43CFC22B7
:1088A000E709F608DFFA8046E709F208DFFA803EBA
:1088B00088828C83E709F0A3DFFA8032E309F608A7
:1088C000DFFA806EE309F208DFFA806688828C8323
:1088D000E309F0A3DFFA805A89828A83E0A3F608CD
:1088E000DFFA804E89828A83E0A3F208DFFA8042B1
:1088F00080D280FA80C680D4805580F28029801092
:1089000080A680EA809A80A880DA80E280CA8029E6
:1089100088848C8589828A83E493A30586F0A305E5
:1089200086DFF5DEF3800B89828A83E493A3F60861
:10893000DFF9ECFAA9F0EDFB2288848C8589828A24
:1089400083E0A30586F0A30586DFF6DEF480E389E5
:10895000828A83E493A3F208DFF980D688F0EF607F
:10896000010E4E60CD88F0ED2402B4040050C3F532
:1089700082EB2402B4040050B9232345822390885B
:10898000F073E709F60870FA8046E709F20870FA12
:10899000803E88828C83E709F0A370FA8074E30933
:1089A000F60870FA806CE309F20870FA8064888235
:1089B0008C83E309F0A370FA805889828A83E0A34C
:1089C000F60870FA804C89828A83E0A3F20870FA74
:1089D000804080D280FA80C680D4805180F2802787
:1089E000801080A680EA809A80A880DA80E280CA1F
:1089F000802788848C8589828A83E493A30586F006
:108A0000A3058670F5800B89828A83E493A3F60818
:108A100070F9ECFAA9F0EDFB2288848C8589828AB2
:108A200083E0A30586F0A3058670F680E589828A37
:108A300083E493A3F20870F980D888F0ED2402B49F
:108A4000040050CEF582EB2402B4040050C423236A
:108A50004582239089D273BC000BBE0029EF8DF0B4
:108A600084FFADF022E4CCF875F008EF2FFFEE3371
:108A7000FEEC33FCEE9DEC984005FCEE9DFE0FD520
:108A8000F0E9E4CEFD22EDF8F5F0EE8420D21CFEF4
:108A9000ADF075F008EF2FFFED33FD40079850065D
:108AA000D5F0F222C398FD0FD5F0EA22A3F8E0C575
:108AB000F025F0F0E582158270021583E0C838F0E9
:108AC000E822E6FC08E6FD08E6FE08E6FF22E0FCF8
:108AD000A3E0FDA3E0FEA3E0FF22E2FC08E2FD0824
:108AE000E2FE08E2FF22E493FC740193FD7402931A
:108AF000FE740393FF22ECF608EDF608EEF608EF9D
:108B0000F622ECF208EDF208EEF208EFF22212F291
:108B1000EDEF700A300FF7C20F12C7A480F0900E6D
:108B200069E0249AFF900E68E034F9FE3395E0FD89
:108B3000FCE47BA07A07F9F812862A780712879C52
:108B4000900D951287FD300F05C20F12C7A4900F2C
:108B50007FE07003028BDE201003028BDE900F8516
:108B6000E004F07006900F84E004F0900F84E0645D
:108B7000037004A3E064E870657F287E23FDFC9009
:108B80000D95E0F8A3E0F9A3E0FAA3E0FBC3128798
:108B900062500FE47F407E1FFDFC900F801287FD26
:108BA0008037E47FC87E32FDFC900D95E0F8A3E0AD
:108BB000F9A3E0FAA3E0FBC3128762500FE47FE061
:108BC0007E2EFDFC900F801287FD800DE47FC07E1D
:108BD0005DFDFC900F801287FDE4900F7FF0E47F35
:108BE000587E1BFDFC900D95E0F8A3E0F9A3E0FA98
:108BF000A3E0FBD31287625003029216E47FE87E63
:108C000003FDFC900F86E0F8A3E0F9A3E0FAA3E0EF
:108C1000FB1287787004D2108036900F86E0FCA398
:108C2000E0FDA3E0FEA3E02401FFE43EFEE43DFD01
:108C3000E43CFC900F861287FD900D95E0FCA3E0CC
:108C4000FDA3E0FEA3E0FF12DBD4900E711287FDBE
:108C5000900CCFE0600312D535900E6BE0249AFFA4
:108C6000900E6AE034F9FE3395E0FDFCE47BAB7ACC
:108C700064F9F812862A780D12879C900E70E0FD38
:108C80003395E0FC1285ADEE3395E0FDFC12D9631F
:108C9000900E811287FD900E75E0FCA3E0FDA3E02D
:108CA000FEA3E0FF900C89E0F9F812879CC004C095
:108CB00005C006C007900E94E0FCA3E0FDA3E0FE13
:108CC000A3E0FF900C89E0F812879C9000061287C1
:108CD000FD900C37E0FCA3E0FDA3E0FEA3E0FFA8BD
:108CE0000112879C90000A1287FDD007D006D0059C
:108CF000D00412AD6FA804A905AA06AB07900E8197
:108D0000E0FCA3E0FDA3E0FEA3E0C39BFFEE9AFE20
:108D1000ED99FDEC98FC12DB57EE3395E0FDFC90ED
:108D20000E851287FD300F05C20F12C7A4900CC329
:108D3000E07004F50FF510E50F147003028E1F1498
:108D40007003028E36147003028E732403600302D4
:108D50008F49900CF9E025E0246CF582E4340EF59F
:108D600083E0FEA3E0FFEE3395E08F268E25F52409
:108D7000F523E4FFFEFDFCAB26AA25A924A823C306
:108D80001287625009E4F526F525F524F523AF2670
:108D9000AE25AD24AC2312D00F8F268E258D248CCA
:108DA00023780A1287B0900CC4E0F8A3E0F9A3E09E
:108DB000FAA3E0FB1286B58F268E258D248C2330F6
:108DC0000F05C20F12C7A4E4FFFEFDFCAB26AA25C7
