:1026000002C7E2008F828E83E0540100000070F860
:102610002278FFE4F6D8FD02C870900002EEF0A325
:10262000EFF078047C007D017BFF7A4C79B07E0767
:102630007F6D1288919007717407F0A3746DF07824
:10264000787C077D017BFF7A54791D7E007F0F1215
:10265000889178877C077D017BFF7A54792C7E00F6
:102660007F1C12889178A37C077D017BFF7A5479C7
:10267000487E007F1B12889178BE7C077D017BFF1E
:102680007A5479637E007F1C12889178DA7C077D0A
:10269000017BFF7A54797F7E007F2212889178FC3B
:1026A0007C077D017BFF7A5479A17E007F27128809
:1026B0009178237C087D017BFF7A5479C87E007F66
:1026C0001112889178347C087D017BFF7A5479D986
:1026D0007E007F19128891784D7C087D017BFF7AFE
:1026E0005479F27E007F11128891785E7C087D011A
:1026F0007BFF7A5579037E007F1C128891787A7C63
:10270000087D017BFF7A55791F7E007F1D1288911D
:1027100078977C087D017BFF7A55793C7E007F1B92
:1027200012889178B27C087D017BFF7A5579577EBB
:10273000007F1412889178C67C087D017BFF7A5552
:10274000796B7E007F2512889178EB7C087D017B78
:10275000FF7A5579907E007F1512889178007C0968
:102760007D017BFF7A5579A57E007F1512889178CF
:10277000157C097D017BFF7A5579BA7E007F1412A2
:10278000889178297C097D017BFF7A5579CE7E007E
:102790007F24128891784D7C097D017BFF7A5579E1
:1027A000F27E007F1912889178667C097D017BFF9B
:1027B0007A56790B7E007F18128891787E7C097D8D
:1027C000017BFF7A5679237E007F141288917892DC
:1027D0007C097D017BFF7A5679377E007F24128841
:1027E0009178B67C097D017BFF7A56795B7E007F0C
:1027F0002312889178D97C097D017BFF7A56797EF6
:102800007E007F1512889178EE7C097D017BFF7A2E
:102810005679937E007F1D128891780B7C0A7D018A
:102820007BFF7A5679B07E007F1812889178237CDE
:102830000A7D017BFF7A5679C87E007F1912889144
:10284000783C7C0A7D017BFF7A5679E17E007F250A
:1028500012889178617C0A7D017BFF7A5779067E28
:10286000007F6312889178C47C0A7D017BFF7A57D0
:1028700079697E007F4012889178047C0B7D017B12
:10288000FF7A5779A97E007F2A1288917B017A0707
:10289000797812ED4C8F2C7B017A07798712ED4CF9
:1028A0008F2D7B017A0779A312ED4C8F2E7B017A55
:1028B00008792312ED4C8F2F7B017A08793412EDC1
:1028C0004C8F307B017A08794D12ED4C8F317B01B2
:1028D0007A08797A12ED4C8F327B017A0879971257
:1028E000ED4C8F337B017A0879B212ED4C8F347B3B
:1028F000017A0879EB12ED4C8F357B017A0979006A
:1029000012ED4C8F367B017A09791512ED4C8F3719
:102910007B017A09794D12ED4C8F387B017A097968
:10292000D912ED4C8F397B017A0A796112ED4C8F07
:102930003A7B017A0A79C412ED4C8F3B7B017A0B0A
:10294000790412ED4C8F3C7B017A09797E12ED4CB3
:102950008F3D7B017A09799212ED4C8F3E7B017A93
:102960000979B612ED4C8F3F7B017A0A793C12ED62
:102970004C8F40900004740CF0A3741CF090000283
:10298000E0FEA3E0FFEE6003023FA5EFB41D0040B0
:1029900003023FA590299BF82828730229F2023AE6
:1029A00002023A0B023ADB023BAB023BBE023BC7E0
:1029B000023BD0023BFB023C79023CB6023CBF0228
:1029C0003D95023E1B023E2B023E34023E53023E28
:1029D0007C023E85023E9C023EA5023EAE023EE0E7
:1029E000023F1E023F33023F6D023F76023F7F02ED
:1029F0003F8D9000067402F0A314F0900B38E09025
:102A00000008F0852C2AE52A6032FFC3E52C9FFFE1
:102A1000E49400FE74782FF58274073EF583E0FF9E
:102A2000E52AFDE52CC39DFDE49400FC74092DF519
:102A30008274003CF583EFF0152A80CA9000387448
:102A400007F0A37403F0900B6BE064036068900BD5
:102A500039E0FCA3E0FDA3E0FEA3E0FFEC12821945
:102A6000E4FBFA7980784712810390003A128732AA
:102A7000900B3DE0FCA3E0FDA3E0FEA3E0FFEC1221
:102A80008219E4FBFA7980784712810390003E12A4
:102A90008732900B41E0FCA3E0FDA3E0FEA3E0FF42
:102AA000EC128219E4FBFA798078471281039000D6
:102AB000421287328066900B51E0FCA3E0FDA3E058
:102AC000FEA3E0FFEC128219E4FBFA79807847124A
:102AD000810390003A128732900B55E0FCA3E0FD91
:102AE000A3E0FEA3E0FFEC128219E4FBFA79807800
:102AF0004712810390003E128732900B59E0FCA3ED
:102B0000E0FDA3E0FEA3E0FFEC128219E4FBFA79FA
:102B1000807847128103900042128732852D2AE582
:102B20002A6032FFC3E52D9FFFE49400FE74872FD7
:102B3000F58274073EF583E0FFE52AFDE52DC39D90
:102B4000FDE49400FC74462DF58274003CF583EF9F
:102B5000F0152A80CA90006A7407F0A37403F090FD
:102B60000B6BE064036068900B45E0FCA3E0FDA301
:102B7000E0FEA3E0FFEC128219E4FBFA79807847CB
:102B800012810390006C128732900B49E0FCA3E0A5
:102B9000FDA3E0FEA3E0FFEC128219E4FBFA7980CA
:102BA0007847128103900070128732900B4DE0FC41
:102BB000A3E0FDA3E0FEA3E0FFEC128219E4FBFA20
:102BC0007980784712810390007412873280669072
:102BD0000B5DE0FCA3E0FDA3E0FEA3E0FFEC1282AE
:102BE00019E4FBFA7980784712810390006C128710
:102BF00032900B61E0FCA3E0FDA3E0FEA3E0FFEC5C
:102C0000128219E4FBFA79807847128103900070F0
:102C1000128732900B65E0FCA3E0FDA3E0FEA3E089
:102C2000FFEC128219E4FBFA798078471281039055
:102C30000074128732852E2AE52A6032FFC3E52E02
:102C40009FFFE49400FE74A32FF58274073EF58382
:102C5000E0FFE52AFDE52EC39DFDE49400FC7478B9
:102C60002DF58274003CF583EFF0152A80CAE490BC
:102C7000009CF0A304F0900B69E090009EF0900B94
:102C800069601C900B3174FFF0A3743FF0A374A62D
:102C9000F07B017A0779BE12DF67752B1C801A90D2
:102CA0000B3174FFF0A3743FF0A374ACF07B017A96
:102CB0000779BE12DF67752B1B852B2AE52A603248
:102CC000FFC3E52B9FFFE49400FE74BE2FF58274D2
:102CD000073EF583E0FFE52AFDE52BC39DFDE49467
:102CE00000FC749F2DF58274003CF583EFF0152AEB
:102CF00080CA749F252BF582E43400F5837403F0B9
:102D0000E49000CEF0A304F0900B6AE09000D0F0C5
:102D1000900B6A14603314604C14606514607E1468
:102D20007003022DB924056003022DD3900B31747A
:102D3000FFF0A3743FF0A374B1F07B017A0779DA56
:102D400012DF67752B14022DD3900B3174FFF0A3A3
:102D5000743FF0A374B7F07B017A0779DA12DF676A
:102D6000752B17806E900B3174FFF0A3743FF0A3A6
:102D700074C0F07B017A0779DA12DF67752B218046
:102D800052900B3174FFF0A3743FF0A374D3F07B27
:102D9000017A0779DA12DF67752B1D8036900B31C7
:102DA00074FFF0A3743FF0A374E2F07B017A07791B
:102DB000DA12DF67752B19801A900B3174FFF0A3BC
:102DC000743FF0A374EDF07B017A0779DA12DF67C4
:102DD000752B22852B2AE52A6032FFC3E52B9FFF46
:102DE000E49400FE74DA2FF58274073EF583E0FF69
:102DF000E52AFDE52BC39DFDE49400FC74D12DF57F
:102E00008274003CF583EFF0152A80CA74D1252B1B
:102E1000F582E43400F5837401F0E4900100F0A33E
:102E200004F0900B6BE0900102F0900B6B146026A5
:102E300014603F1460582403706E900B3174FFF0DF
:102E4000A37440F0A37401F07B017A0779FC12DFD0
:102E500067752B1B8052900B3174FFF0A37440F008
:102E6000A3740CF07B017A0779FC12DF67752B16CF
:102E70008036900B3174FFF0A37440F0A37412F00D
:102E80007B017A0779FC12DF67752B1A801A900B89
:102E90003174FFF0A37440F0A3741CF07B017A0737
:102EA00079FC12DF67752B27852B2AE52A6032FF14
:102EB000C3E52B9FFFE49400FE74FC2FF58274079A
:102EC0003EF583E0FFE52AFDE52BC39DFDE494007C
:102ED000FC74032DF58274013CF583EFF0152A8014
:102EE000CA7403252BF582E43401F5837402F09053
:102EF0000132F0A304F0E4F52AE52AC39403501E3E
:102F0000746C252AF582E4340BF583E0FF743425D4
:102F10002AF582E43401F583EFF0052A80DB852F62
:102F20002AE52A6032FFC3E52F9FFFE49400FE7478
:102F3000232FF58274083EF583E0FFE52AFDE52F97
:102F4000C39DFDE49400FC74372DF58274013CF5BB
:102F500083EFF0152A80CA9001647403F0A3F0E4B3
:102F6000F52AE52AC394035044E52A25E025E02408
:102F70006FF582E4340BF583E0FCA3E0FDA3E0FEF3
:102F8000A3E0FF746C252AF582E4340BF583E0F9A5
:102F9000F81286D175F002E52AA42466F582E5F0E0
:102FA0003401F583EEF0A3EFF0052A80B585302AD1
:102FB000E52A6032FFC3E5309FFFE49400FE7434DD
:102FC0002FF58274083EF583E0FFE52AFDE530C366
:102FD0009DFDE49400FC746C2DF58274013CF58336
:102FE000EFF0152A80CA9001967407F0A37403F0DD
:102FF000E4F52AE52AC394035031E52A25E025E0CB
:10300000247BF582E4340BF583E0FCA3E0FDA3E030
:10301000FEA3E0FF75F004E52AA42498F582E5F00C
:103020003401F583128732052A80C885312AE52AC2
:103030006032FFC3E5319FFFE49400FE744D2FF52D
:103040008274083EF583E0FFE52AFDE531C39DFD6E
:10305000E49400FC74A42DF58274013CF583EFF038
:10306000152A80CAE49001C8F0A304F0900B87E011
:103070009001CAF0900B87601C900B3174FFF0A395
:10308000743FF0A374A6F07B017A08795E12DF67C3
:10309000752B1C801A900B3174FFF0A3743FF0A3C2
:1030A00074ACF07B017A08795E12DF67752B1B85A3
:1030B0002B2AE52A6032FFC3E52B9FFFE49400FE34
:1030C000745E2FF58274083EF583E0FFE52AFDE586
:1030D0002BC39DFDE49400FC74CB2DF58274013C60
:1030E000F583EFF0152A80CA74CB252BF582E434E2
:1030F00001F5837403F09001FA7405F0A37402F0F3
:10310000E4F52AE52AC39401400302318EE52A251D
:10311000E025E02488F582E4340BF583E0FCA3E0AD
:10312000FDA3E0FEA3E0FF746C252AF582E4340BD6
:10313000F583E0F9F81286D175F008E52AA424FC9D
:10314000F582E5F03401F583128732E52A25E02582
:10315000E02490F582E4340BF583E0FCA3E0FDA3CA
:10316000E0FEA3E0FF746C252AF582E4340BF583BE
:10317000E0F9F81286D175F008E52AA42400F5825A
:10318000E5F03402F583128732052A0231038532D5
:103190002AE52A6032FFC3E5329FFFE49400FE7403
:1031A0007A2FF58274083EF583E0FFE52AFDE532CB
:1031B000C39DFDE49400FC74042DF58274023CF57B
:1031C00083EFF0152A80CA90022C7405F0A37402D4
:1031D000F0900B9CE0FCA3E0FDA3E0FEA3E0FF90D9
:1031E000022E128732900B98E0FCA3E0FDA3E0FED4
:1031F000A3E0FF90023212873285332AE52A60323B
:10320000FFC3E5339FFFE49400FE74972FF58274AB
:10321000083EF583E0FFE52AFDE533C39DFDE49418
:1032200000FC74362DF58274023CF583EFF0152A0C
:1032300080CA90025E7403F0A37401F0900BA0E0CA
:10324000FFA3E0900260CFF0A3EFF085342AE52AD7
:103250006032FFC3E5349FFFE49400FE74B22FF5A3
:103260008274083EF583E0FFE52AFDE534C39DFD49
:10327000E49400FC74622DF58274023CF583EFF057
:10328000152A80CAE4900290F0A304F0900BA6E007
:10329000900292F0900BA6601C900B3174FFF0A38B
:1032A000743FF0A374A6F07B017A0879C612DF6739
:1032B000752B25801A900B3174FFF0A3743FF0A397
:1032C00074ACF07B017A0879C612DF67752B248510
:1032D0002B2AE52A6032FFC3E52B9FFFE49400FE12
:1032E00074C62FF58274083EF583E0FFE52AFDE5FC
:1032F0002BC39DFDE49400FC74932DF58274023C75
:10330000F583EFF0152A80CA7493252BF582E434F7
:1033100002F5837403F09002C204F0A37402F090EB
:103320000BA2E0FFA3E09002C4CFF0A3EFF0900B5C
:10333000A4E0FFA3E09002C6CFF0A3EFF085352A0A
:10334000E52A6032FFC3E5359FFFE49400FE74EB8D
:103350002FF58274083EF583E0FFE52AFDE535C3CD
:103360009DFDE49400FC74C82DF58274023CF58345
:10337000EFF0152A80CA9002F47406F0A37402F0EC
:10338000900BA7E0FCA3E0FDA3E0FEA3E0FF90020A
:10339000F6128732900BABE0FCA3E0FDA3E0FEA3A6
:1033A000E0FF9002FA12873285362AE52A6032FF62
:1033B000C3E5369FFFE49400FE74002FF582740984
:1033C0003EF583E0FFE52AFDE536C39DFDE494006C
:1033D000FC74FE2DF58274023CF583EFF0152A8013
:1033E000CA9003267402F0A314F0900BAFE0900390
:1033F00028F085372AE52A6032FFC3E5379FFFE4CE
:103400009400FE74152FF58274093EF583E0FFE504
:103410002AFDE537C39DFDE49400FC74292DF58257
:1034200074033CF583EFF0152A80CAE4900358F04A
:10343000A304F0900BB0E090035AF0900BB0601C26
:10344000900B3174FFF0A3743FF0A374A6F07B01DE
:103450007A09792912DF67752B24801A900B317451
:10346000FFF0A3743FF0A374ACF07B017A097929D3
:1034700012DF67752B23852B2AE52A6032FFC3E50F
:103480002B9FFFE49400FE74292FF58274093EF50A
:1034900083E0FFE52AFDE52BC39DFDE49400FC7469
:1034A0005B2DF58274033CF583EFF0152A80CA7416
:1034B0005B252BF582E43403F5837403F090038AD3
:1034C0007401F0A3F0900BB1E090038CF085382AE2
:1034D000E52A6032FFC3E5389FFFE49400FE744D97
:1034E0002FF58274093EF583E0FFE52AFDE538C338
:1034F0009DFDE49400FC748D2DF58274033CF583EE
:10350000EFF0152A80CAE49003BCF0A304F0900BFE
:10351000B2E09003BEF0900BB2601C900B3174FFD0
:10352000F0A3743FF0A374A6F07B017A09796612C8
:10353000DF67752B18801A900B3174FFF0A3743F6E
:10354000F0A374ACF07B017A09796612DF67752B02
:1035500017852B2AE52A6032FFC3E52B9FFFE494F1
:1035600000FE74662FF58274093EF583E0FFE52ABC
:10357000FDE52BC39DFDE49400FC74BF2DF5827422
:10358000033CF583EFF0152A80CA74BF252BF58222
:10359000E43403F5837403F09003EE7405F0A37430
:1035A00001F0900BCDE0FCA3E0FDA3E0FEA3E0FF63
:1035B000900B6CE0F9F81286D19003F012873285F7
:1035C0003D2AE52A6032FFC3E53D9FFFE49400FEFB
:1035D000747E2FF58274093EF583E0FFE52AFDE550
:1035E0003DC39DFDE49400FC74F42DF58274033C0E
:1035F000F583EFF0152A80CA9004207405F0A374B7
:1036000001F0900BD1E0FCA3E0FDA3E0FEA3E0FFFE
:10361000900422128732853E2AE52A6032FFC3E5F4
:103620003E9FFFE49400FE74922FF58274093EF5EC
:1036300083E0FFE52AFDE53EC39DFDE49400FC74B4
:10364000262DF58274043CF583EFF0152A80CA908C
:1036500004527405F0A37401F0900BD5E0FCA3E0D4
:10366000FDA3E0FEA3E0FF900454128732853F2AB9
:10367000E52A6032FFC3E53F9FFFE49400FE74B685
:103680002FF58274093EF583E0FFE52AFDE53FC38F
:103690009DFDE49400FC74582DF58274043CF58380
:1036A000EFF0152A80CA9004847407F0A314F0E4A4
:1036B000F52AE52AC394065031E52A25E025E024C1
:1036C000B3F582E4340BF583E0FCA3E0FDA3E0FE58
:1036D000A3E0FF75F004E52AA42486F582E5F03422
:1036E00004F583128732052A80C885392AE52A60C5
:1036F00032FFC3E5399FFFE49400FE74D92FF582B1
:1037000074093EF583E0FFE52AFDE539C39DFDE43C
:103710009400FC749E2DF58274043CF583EFF01543
:103720002A80CAE49004B6F0A304F0900BDDE09088
:1037300004B8F0900BDD601C900B3174FFF0A374A3
:103740003FF0A374A6F07B017A0979EE12DF67756A
:103750002B1D801A900B3174FFF0A3743FF0A374FB
:10376000ACF07B017A0979EE12DF67752B1C852B93
:103770002AE52A6032FFC3E52B9FFFE49400FE7424
:10378000EE2FF58274093EF583E0FFE52AFDE52B77
:10379000C39DFDE49400FC74B92DF58274043CF5DE
:1037A00083EFF0152A80CA74B9252BF582E434041E
:1037B000F5837403F0E49004E8F0A304F0900BDCCC
:1037C000E09004EAF0900BDC601C900B3174FFF089
:1037D000A3743FF0A374A6F07B017A0A790B12DF81
:1037E00067752B18801A900B3174FFF0A3743FF0AB
:1037F000A374ACF07B017A0A790B12DF67752B1783
:10380000852B2AE52A6032FFC3E52B9FFFE4940055
:10381000FE740B2FF582740A3EF583E0FFE52AFD66
:10382000E52BC39DFDE49400FC74EB2DF58274043C
:103830003CF583EFF0152A80CA74EB252BF582E462
:103840003404F5837403F0E490051AF0A304F0A3A4
:10385000F0900B3174FFF0A3743FF0A374ACF07BD5
:10386000017A0A792312DF67752B18852B2AE52A3E
:103870006032FFC3E52B9FFFE49400FE74232FF515
:1038800082740A3EF583E0FFE52AFDE52BC39DFD2A
:10389000E49400FC741D2DF58274053CF583EFF073
:1038A000152A80CA741D252BF582E43405F583742E
:1038B00003F090054C14F0A304F0900BD9E0FF74D2
:1038C0004E252AF582E43405F583EFF0900BDAE01B
:1038D000FF744F252AF582E43405F583EFF0900B51
:1038E000DBE0FF7450252AF582E43405F583EFF020
:1038F00085402AE52A6032FFC3E5409FFFE494003B
:10390000FE743C2FF582740A3EF583E0FFE52AFD44
:10391000E540C39DFDE49400FC74512DF5827405CF
:103920003CF583EFF0152A80CA853A2AE52A6032F1
:10393000FFC3E53A9FFFE49400FE74612FF58274A3
:103940000A3EF583E0FFE52AFDE53AC39DFDE494D8
:1039500000FC747E2DF58274053CF583EFF0152A8A
:1039600080CA853B2AE52A6032FFC3E53B9FFFE41E
:103970009400FE74C42FF582740A3EF583E0FFE5DF
:103980002AFDE53BC39DFDE49400FC74142DF582F3
:1039900074063CF583EFF0152A80CA853C2AE52A97
:1039A0006032FFC3E53C9FFFE49400FE74042FF5F2
:1039B00082740B3EF583E0FFE52AFDE53CC39DFDE7
:1039C000E49400FC74AA2DF58274063CF583EFF0B4
:1039D000152A80CA7B017A007904900771E0A3E080
:1039E00014FD12E8E4900771E0FCA3E0FD2403F568
:1039F0008274003CF583EFF07B017A00790412D3E6
:103A0000BC22900DB1E0900C51F022900B6BE06461
:103A1000036064E4FFFE7D807C47900DB1E0F8A375
:103A2000E0F9A3E0FAA3E0FB127FFA128257900CB0
:103A300052128732E4FFFE7D807C47900DB5E0F89E
:103A4000A3E0F9A3E0FAA3E0FB127FFA12825790F9
:103A50000C56128732E4FFFE7D807C47900DB9E062
:103A6000F8A3E0F9A3E0FAA3E0FB127FFA12825771
:103A7000900C5A12873222E4FFFE7D807C47900D25
:103A8000B1E0F8A3E0F9A3E0FAA3E0FB127FFA1299
:103A90008257900C6A128732E4FFFE7D807C47904B
:103AA0000DB5E0F8A3E0F9A3E0FAA3E0FB127FFA7A
:103AB000128257900C6E128732E4FFFE7D807C47A5
:103AC000900DB9E0F8A3E0F9A3E0FAA3E0FB127FC0
:103AD000FA128257900C7212873222900B6BE064BC
:103AE000036064E4FFFE7D807C47900DB1E0F8A3A5
:103AF000E0F9A3E0FAA3E0FB127FFA128257900CE0
:103B00005E128732E4FFFE7D807C47900DB5E0F8C1
:103B1000A3E0F9A3E0FAA3E0FB127FFA1282579028
:103B20000C62128732E4FFFE7D807C47900DB9E085
:103B3000F8A3E0F9A3E0FAA3E0FB127FFA128257A0
:103B4000900C6612873222E4FFFE7D807C47900D48
:103B5000B1E0F8A3E0F9A3E0FAA3E0FB127FFA12C8
:103B60008257900C76128732E4FFFE7D807C47906E
:103B70000DB5E0F8A3E0F9A3E0FAA3E0FB127FFAA9
:103B8000128257900C7A128732E4FFFE7D807C47C8
:103B9000900DB9E0F8A3E0F9A3E0FAA3E0FB127FEF
:103BA000FA128257900C7E12873222900DB1E0609B
:103BB00007900C827403F022E4900C82F022900DA6
:103BC000B1E0900C83F022900DB1E0900C84F022D3
:103BD000E4F52AE52AC394034003023FA574B12506
:103BE0002AF582E4340DF583E0FF7485252AF582F9
:103BF000E4340CF583EFF0052A80D8E4F52AE52AB1
:103C0000C394035071E52A25E024B1F582E4340D14
:103C1000F583E0FEA3E0FFEE3395E0FDFCE52A2509
:103C2000E025E02488F582E4340CF583128732E540
:103C30002A25E025E02488F582E4340CF583C0834E
:103C4000C082E0FCA3E0FDA3E0FEA3E0FF748525B5
:103C50002AF582E4340CF583E0F9F81286E5D08287
:103C6000D083128732747D252AF582E4340EF583E1
:103C7000E4F0052A8088D20B22E4F52AE52AC394D1
:103C8000034003023FA5E52A25E025E024B1F582A3
:103C9000E4340DF583E0FCA3E0FDA3E0FEA3E0FF28
:103CA000E52A25E025E02494F582E4340CF583121E
:103CB0008732052A80C6900DB1E0900CA0F022E476
:103CC000F52AE52AC394024003023FA5E52A75F0D0
:103CD00008A424B1F582E4340DF583E0FCA3E0FDF3
:103CE000A3E0FEA3E0FFE52A25E025E024A1F5827C
:103CF000E4340CF583128732E52A75F008A424B564
:103D0000F582E4340DF583E0FCA3E0FDA3E0FEA31F
:103D1000E0FFE52A25E025E024A9F582E4340CF54E
:103D200083128732E52A25E025E024A1F582E434D8
:103D30000CF583C083C082E0FCA3E0FDA3E0FEA3FA
:103D4000E0FF7485252AF582E4340CF583E0F9F868
:103D50001286E5D082D083128732E52A25E025E05D
:103D600024A9F582E4340CF583C083C082E0FCA36F
:103D7000E0FDA3E0FEA3E0FF7485252AF582E4348C
:103D80000CF583E0F9F81286E5D082D083128732F1
:103D9000052A023CC2900DB1E0FCA3E0FDA3E0FEC9
:103DA000A3E0FF900773128732E4FFFEFDFC90074B
:103DB00073E0F8A3E0F9A3E0FAA3E0FBD31286973F
:103DC0005014900773E0FCA3E0FDA3E0FEA3E0FF26
:103DD000900CB5128732900DB5E0FCA3E0FDA3E096
:103DE000FEA3E0FF900773128732E4FFFEFDFC9014
:103DF0000773E0F8A3E0F9A3E0FAA3E0FBC312869F
:103E0000975003023FA5900773E0FCA3E0FDA3E0F9
:103E1000FEA3E0FF900CB112873222900DB1E0FFBB
:103E2000A3E0900CB9CFF0A3EFF022900DB1E09099
:103E30000CBFF022900DB1E0FFA3E0900CBBCFF0DF
:103E4000A3EFF0900DB3E0FFA3E0900CBDCFF0A383
:103E5000EFF022900DB1E0FCA3E0FDA3E0FEA3E0B3
:103E6000FF900CC0128732900DB5E0FCA3E0FDA3DB
:103E7000E0FEA3E0FF900CC412873222900DB1E067
:103E8000900CC8F022900DB1E0900777F060079099
:103E90000CC97401F022E4900CC9F022900DB1E03D
:103EA000900CCAF022900DB1E0900CCBF022900D56
:103EB000B1E0FCA3E0FDA3E0FEA3E0FF900CE6125E
:103EC0008732900CE6E0FCA3E0FDA3E0FEA3E0FF58
:103ED000900C85E0F9F81286E5900CE61287322204
:103EE000900DB1E0FCA3E0FDA3E0FEA3E0FF900C89
:103EF000EA128732E47F0AFEFDFC900CEAE0F8A3A8
:103F0000E0F9A3E0FAA3E0FBC31286974003023F67
:103F1000A5E47F0AFEFDFC900CEA12873222900D88
:103F2000B1E0FCA3E0FDA3E0FEA3E0FF900CEE12E5
:103F3000873222E4F52AE52AC394065068E52A254B
:103F4000E025E024B1F582E4340DF583E0FCA3E044
:103F5000FDA3E0FEA3E0FFE52A25E025E024CCF563
:103F600082E4340CF583128732052A80C9900DB1A2
:103F7000E0900CF6F022900DB1E0900CF5F022905C
:103F80000DB1E0900777F0601C12D66A22900DB157
:103F9000E0900CF2F0900DB2E0900CF3F0900DB3C5
:103FA000E0900CF4F022205945530000204E4F00C1
:103FB000002055736200002048616E646C6500004B
:103FC00020454D472070726F706F7274696F6E611B
:103FD0006C000020454D4720696E74656772616C06
:103FE000000020454D472046434653000020454DE4
:103FF00047204643465320416476616E6365640002
:104000000020506F736974696F6E00002050574D27
:1040100000002043757272656E74000020506F734B
:104020006974696F6E20616E642043757272656E8B
:10403000740000000D0A004669726D776172652098
:1040400076657273696F6E3A200053482D50524F57
:104050002076362E312E372043656E74726F2050D5
:1040600069616767696F002E0D0A0D0A00444556A5
:1040700049434520494E464F0D0A0049443A202500
:10408000640D0A0050574D2072657363616C696E50
:10409000672061637469766174696F6E3A200059B4
:1040A00045530A004E4F0A0050574D204C696D6928
:1040B000743A2025640D0A004D4F544F5220494E4A
:1040C000464F0D0A004D6F746F72207265666572FF
:1040D000656E636500202D2043757272656E747382
:1040E0003A2000202D2050776D3A2000202D2050BE
:1040F0006F736974696F6E3A2000256420004D6FFC
:10410000746F7220656E61626C65643A2000594577
:10411000530D0A004E4F0D0A000D0A4D45415355EF
:1041200052454D454E545320494E464F0D0A0053BB
:10413000656E736F722076616C75653A0D0A0025A5
:1041400064202D3E202564004261747465727920DC
:10415000566F6C7461676520286D56293A20256C6E
:10416000640046756C6C2063686172676520706FCF
:104170007765722074656E73696F6E20286D56299D
:104180003A20256C640043757272656E7420286D48
:1041900041293A20256C64000D0A4445564943459F
:1041A00020504152414D45544552530D0A0050494B
:1041B0004420436F6E74726F6C6C65723A0D0A0026
:1041C00050202D3E20256620200049202D3E202510
:1041D0006620200044202D3E2025660D0A004375F0
:1041E0007272656E742050494420436F6E74726F12
:1041F0006C6C65723A0D0A005374617274757020AC
:1042000061637469766174696F6E3A205945530D24
:104210000A00537461727475702061637469766109
:1042200074696F6E3A204E4F0D0A00496E707574B6
:10423000206D6F64653A205553420D0A00496E7037
:104240007574206D6F64653A2048616E646C650D0D
:104250000A00496E707574206D6F64653A20454D93
:10426000472070726F706F7274696F6E616C0D0AA7
:1042700000496E707574206D6F64653A20454D4736
:1042800020696E74656772616C0D0A00496E707505
:1042900074206D6F64653A20454D47204643465370
:1042A0000D0A00496E707574206D6F64653A204583
:1042B0004D472046434653204144560D0A00436F64
:1042C0006E74726F6C206D6F64653A20506F736905
:1042D00074696F6E0D0A00436F6E74726F6C206D9F
:1042E0006F64653A2050574D0D0A00436F6E74722B
:1042F0006F6C206D6F64653A2043757272656E74E1
:104300000D0A00436F6E74726F6C206D6F64653AB6
:1043100020506F736974696F6E20616E64204375FD
:104320007272656E740D0A004162736F6C7574650C
:1043300020656E636F64657220706F736974696F56
:104340006E3A205945530D0A004162736F6C7574C3
:104350006520656E636F64657220706F7369746940
:104360006F6E3A204E4F0D0A004D6F746F722D48DC
:10437000616E646C6520526174696F3A2025640D2A
:104380000A0053656E736F72207265736F6C75747B
:10439000696F6E3A0D0A004D6561737572656D65E2
:1043A0006E74204F66667365743A0D0A00256420AA
:1043B0002D3E20256C64004D6561737572656D65D9
:1043C0006E74204D756C7469706C6965723A0D0A73
:1043D000002564202D3E2025660043757272656EAF
:1043E00074206C6F6F6B7570207461626C653A0D30
:1043F0000A00705B305D202D20705B325D3A202515
:10440000662C2025662C2025660A00705B335D2013
:104410002D20705B355D3A2025662C2025662C20EA
:1044200025660A00506F736974696F6E206C696D40
:104430006974206163746976653A20256400506F61
:10444000736974696F6E206C696D6974206D6F7427
:104450006F722025643A20696E66202D3E20256CFF
:1044600064202000737570202D3E20256C640D0A99
:10447000004D6178207374657020706F7320616ED9
:1044800064206E65673A20256420256400437572B8
:1044900072656E74206C696D69743A2025640045FC
:1044A0004D47207468726573686F6C6473205B306D
:1044B000202D20313032345D3A2025752C20257591
:1044C00000454D47206D61782076616C75657320DD
:1044D0005B30202D20343039365D3A20256C752C28
:1044E00020256C750043616C6962726174696F6E3E
:1044F00020656E61626C65643A205945530D0A006F
:1045000043616C6962726174696F6E20656E61628D
:104510006C65643A204E4F0D0A00454D47206D6191
:10452000782073706565643A202564005265737461
:104530002074696D652064656C617920286D73292C
:104540003A20256400526573742076656C6F636948
:10455000747920636C6F7375726520287469636B5E
:10456000732F736563293A202564005265737420A4
:10457000706F736974696F6E3A20256400646562B8
:1045800075673A20256C64000D0A55534147452054
:10459000535441544953544943530D0A00446174E0
:1045A00065206F66206D61696E74656E616E63650E
:1045B0003A2025642F25642F323025640D0A0050DF
:1045C0006F736974696F6E7320686973746F677253
:1045D000616D20287469636B73293A0D0A00426982
:1045E0006E202564205B25642D25645D3A20256CB2
:1045F000750D0A0043757272656E74206869737474
:104600006F6772616D20286D41293A0D0A00546868
:10461000726573686F6C64202564205B25642D25AA
:10462000645D3A20256C750D0A00454D4720616395
:104630007469766174696F6E7320636F756E7465EB
:10464000723A20256C752C20256C750052657374A8
:1046500020706F736974696F6E206F636375727217
:10466000656E6365733A20256C7500416E676C65F5
:1046700020746F74616C20646973706C6163656D24
:10468000656E7420287469636B73293A20256C75F4
:1046900000546F74616C20706F776572206F6E20AC
:1046A00074696D652028736563293A20256C75004F
:1046B000546F74616C207265737420706F736974C9
:1046C000696F6E2074696D652028736563293A20CF
:1046D000256C7500000000000000000000000000D4
:1046E00000000000000000000000000000000000CA
:1046F00000000000000000000000000000000000BA
:1047000000000000000000000000000000000000A9
:104710000000000000000000000000000000000099
:105410000000000000000000000000000031202D0E
:10542000204465766963652049443A0032202D2086
:10543000506F736974696F6E20504944205B502C23
:1054400020492C20445D3A0033202D204375727290
:10545000656E7420504944205B502C20492C204418
:105460005D3A0034202D20537461727475702041B0
:10547000637469766174696F6E3A000000000035EC
:10548000202D20496E707574206D6F64653A0000A0
:10549000000000000000000000000000000000000C
:1054A0000036202D20436F6E74726F6C206D6F6418
:1054B000653A00000000000000000000000000004D
:1054C000000000000000000037202D205265736F9F
:1054D0006C7574696F6E733A0038202D204D6561CC
:1054E000737572656D656E74204F6666736574734F
:1054F0003A0039202D204D756C7469706C696572A5
:10550000733A003130202D20506F732E206C696D5E
:105510006974206163746976653A000000000031A7
:1055200031202D20506F732E206C696D69747320AB
:105530005B696E662C207375705D3A003132202DE8
:10554000204D6178207374657073205B6E65672CE5
:1055500020706F735D3A003133202D2043757272D5
:10556000656E74206C696D69743A003134202D20A9
:10557000454D472063616C6962726174696F6E208A
:105580006F6E20737461727475703A0000000000D1
:105590003135202D20454D47207468726573686F42
:1055A0006C64733A003136202D20454D47206D61E3
:1055B000782076616C7565733A003137202D20456F
:1055C0004D47206D61782073706565643A0031380D
:1055D000202D204162736F6C75746520656E636F5A
:1055E00064657220706F736974696F6E3A000000B1
:1055F00000003139202D204D6F746F722068616E6C
:10560000646C6520726174696F3A003230202D201D
:1056100050574D2072657363616C696E673A000084
:105620000000003231202D205265737420706F739A
:105630006974696F6E3A003232202D20526573749E
:1056400020706F736974696F6E2074696D65206472
:10565000656C617920286D73293A003233202D2042
:10566000526573742076656C20636C6F7375726518
:1056700020287469636B732F736563293A00323491
:10568000202D2043757272656E74206C6F6F6B7580
:10569000703A003235202D205265737420706F737C
:1056A0006974696F6E20666C61673A0000000000E3
:1056B0003236202D20454D4720696E76657273691C
:1056C0006F6E3A00000000003237202D20526573C3
:1056D000657420636F756E746572733A0000000024
:1056E000003238202D2044617465206F66206D6182
:1056F000696E74656E616E6365205B44442F4D4D29
:105700002F59595D3A0030202D3E205573620A31E1
:10571000202D3E2048616E646C650A32202D3E20AB
:10572000454D472070726F706F7274696F6E616C57
:105730000A33202D3E20454D4720496E746567721F
:10574000616C0A34202D3E20454D47204643465388
:105750000A35202D3E20454D4720464346532041E3
:105760006476616E6365640A0030202D3E20506FC0
:10577000736974696F6E0A31202D3E2050574D0AAF
:1057800032202D3E2043757272656E740A33202DCF
:105790003E20506F736974696F6E20616E642043A0
:1057A000757272656E740A000030202D3E204465CB
:1057B0006163746976617465205B4E4F5D0A3120C8
:1057C0002D3E204163746976617465205B594553B1
:1057D0005D0A009005E0EBF0A3EAF0A3E9F0900B7E
:1057E00038E064FA7003026E0E9005E0E0FBA3E07F
:1057F000FAA3E0F8AC02AD037BFF7A40793312895B
:105800006F900B3174FFF0A37440F0A37434F090E8
:1058100005E0E0FBA3E0FAA3E0F912DF67900B31AB
:1058200074FFF0A37440F0A37437F09005E0E0FB40
:10583000A3E0FAA3E0F912DF67900B3174FFF0A345
:105840007440F0A3744AF09005E0E0FBA3E0FAA3F3
:10585000E0F912DF67900B3174FFF0A37440F0A3FE
:105860007467F09005E0E0FBA3E0FAA3E0F912DF33
:1058700067900B3174FFF0A37440F0A3746DF09047
:1058800005E0E0FBA3E0FAA3E0F912DF6790064E23
:1058900074FFF0A37440F0A3747BF0900B38E0FF2A
:1058A000900651E4F0A3EFF07B017A0579E512A8A8
:1058B000E7900B317401F0A37405F0A374E5F09048
:1058C00005E0E0FBA3E0FAA3E0F912DF67900B31FB
:1058D00074FFF0A37440F0A37484F09005E0E0FB43
:1058E000A3E0FAA3E0F912DF67900BB2E0B4011E67
:1058F000900B3174FFF0A37440F0A3749FF09005F7
:10590000E0E0FBA3E0FAA3E0F912DF67801C900B54
:105910003174FFF0A37440F0A374A4F09005E0E0AC
:10592000FBA3E0FAA3E0F912DF6790064E74FFF0E4
:10593000A37440F0A374A8F0900EA1E0FF9006516C
:10594000E4F0A3EFF07B017A0579E512A8E7900B6C
:10595000317401F0A37405F0A374E5F09005E0E064
:10596000FBA3E0FAA3E0F912DF67900B3174FFF0BC
:10597000A37440F0A37434F09005E0E0FBA3E0FAD8
:10598000A3E0F912DF67900B3174FFF0A37440F0CD
:10599000A374B8F09005E0E0FBA3E0FAA3E0F912ED
:1059A000DF67900B3174FFF0A37440F0A374C5F06F
:1059B0009005E0E0FBA3E0FAA3E0F912DF67900CAA
:1059C00084E0B4021E900B3174FFF0A37440F0A386
:1059D00074D5F09005E0E0FBA3E0FAA3E0F912DF54
:1059E000678041900C84E0B4011E900B3174FFF08D
:1059F000A37440F0A374E3F09005E0E0FBA3E0FAA9
:105A0000A3E0F912DF67801C900B3174FFF0A374E0
:105A100040F0A374ECF09005E0E0FBA3E0FAA3E013
:105A2000F912DF67E49005E3F0A3F0C39005E4E02A
:105A300094029005E3E0648094804003025B8F90C1
:105A40000C84E06402705F90064E74FFF0A3744013
:105A5000F0A374FAF09005E3E0FEA3E07802C3330C
:105A6000CE33CED8F9243FF582740C3EF583E0A303
:105A7000E0A3E0FFA3E0900651CFF0A3EFF07B019D
:105A80007A0579E512A8E7900B317401F0A374054B
:105A9000F0A374E5F09005E0E0FBA3E0FAA3E0F9E1
:105AA00012DF67025B7E900C84E06401705E9006FA
:105AB0004E74FFF0A37440F0A374FAF09005E3E095
:105AC000FEA3E07802C333CE33CED8F92447F58263
:105AD000740C3EF583E0A3E0A3E0FFA3E090065141
:105AE000CFF0A3EFF07B017A0579E512A8E7900BE0
:105AF000317401F0A37405F0A374E5F09005E0E0C3
:105B0000FBA3E0FAA3E0F912DF67807290064E74FF
:105B1000FFF0A37440F0A374FAF09005E3E0FAA359
:105B2000E0FBAE027802C333CE33CED8F92437F58A
:105B300082740C3EF583E0FCA3E0FDA3E0FEA3E04D
:105B4000FF746C2BF582740B3AF583E0F9F812863A
:105B5000D1900651EEF0A3EFF07B017A0579E512C2
:105B6000A8E7900B317401F0A37405F0A374E5F07D
:105B70009005E0E0FBA3E0FAA3E0F912DF679005EF
:105B8000E4E004F070069005E3E004F0025A2B9084
:105B90000B3174FFF0A37440F0A37434F09005E06F
:105BA000E0FBA3E0FAA3E0F912DF67900B3174FF8A
:105BB000F0A37440F0A37434F09005E0E0FBA3E0A0
:105BC000FAA3E0F912DF6790064E74FFF0A3744069
:105BD000F0A374FEF07B017A0579E512A8E7900C3A
:105BE0004FE054036019900B3174FFF0A37441F03F
:105BF000A3740EF07B017A0579E512DF67801790B8
:105C00000B3174FFF0A37441F0A37414F07B017A9C
:105C10000579E512DF67900B317401F0A37405F08C
:105C2000A374E5F09005E0E0FBA3E0FAA3E0F9122D
:105C3000DF67900B3174FFF0A37441F0A37419F087
:105C40009005E0E0FBA3E0FAA3E0F912DF67900B18
:105C50003174FFF0A37441F0A3742FF09005E0E0DD
:105C6000FBA3E0FAA3E0F912DF67E49005E3F0A3F9
:105C7000F0C39005E4E094039005E3E06480948031
:105C80004003025D3790064E74FFF0A37441F0A309
:105C9000743FF09005E3E0FCA3E0FD2401FEE43C4A
:105CA000900651F0A3CEF0EDAE047802C333CE33AC
:105CB000CED8F92469F582740E3EF583E0FCA3E0AA
:105CC000FDA3E0FEA3E0FF9005E3E0FAA3E0246C6F
:105CD000F582740B3AF583E0F9F81286D1900653F9
:105CE000EEF0A3EFF07B017A0579E512A8E7900BBF
:105CF000317401F0A37405F0A374E5F09005E0E0C1
:105D0000FBA3E0FAA3E0F912DF67900B3174FFF018
:105D1000A37440F0A37434F09005E0E0FBA3E0FA34
:105D2000A3E0F912DF679005E4E004F07006900547
:105D3000E3E004F0025C7190064E74FFF0A374413E
:105D4000F0A37448F0900D91E0FCA3E0FDA3E0FE09
:105D5000A3E0FF9006511287327B017A0579E512A4
:105D6000A8E7900B317401F0A37405F0A374E5F07B
:105D70009005E0E0FBA3E0FAA3E0F912DF67900BE7
:105D80003174FFF0A37440F0A37434F09005E0E0A8
:105D9000FBA3E0FAA3E0F912DF6790064E74FFF070
:105DA000A37441F0A37462F0900E50E0FCA3E0FDF8
:105DB000A3E0FEA3E0FF9006511287327B017A0533
:105DC00079E512A8E7900B317401F0A37405F0A3F4
:105DD00074E5F09005E0E0FBA3E0FAA3E0F912DF40
:105DE00067900B3174FFF0A37440F0A37434F0900B
:105DF00005E0E0FBA3E0FAA3E0F912DF6790064EAE
:105E000074FFF0A37441F0A37486F0900E75E0FC6B
:105E1000A3E0FDA3E0FEA3E0FF9006511287327BD2
:105E2000017A0579E512A8E7900B317401F0A374AB
:105E300005F0A374E5F09005E0E0FBA3E0FAA3E031
:105E4000F912DF67900B3174FFF0A37440F0A37474
:105E500034F09005E0E0FBA3E0FAA3E0F912DF677D
:105E6000900B3174FFF0A37441F0A37498F0900587
:105E7000E0E0FBA3E0FAA3E0F912DF67900B3174D6
:105E8000FFF0A37441F0A374AEF09005E0E0FBA333
:105E9000E0FAA3E0F912DF67900B6BE06403700394
:105EA000025FA590064E74FFF0A37441F0A374C086
:105EB000F0900B39E0FCA3E0FDA3E0FEA3E0FFECD3
:105EC000128219E4FBFA7980784712810390065117
:105ED0001287327B017A0579E512A8E7900B3174BD
:105EE00001F0A37405F0A374E5F09005E0E0FBA3D6
:105EF000E0FAA3E0F912DF6790064E74FFF0A37496
:105F000041F0A374CAF0900B3DE0FCA3E0FDA3E0D8
:105F1000FEA3E0FFEC128219E4FBFA7980784712C5
:105F200081039006511287327B017A0579E512A828
:105F3000E7900B317401F0A37405F0A374E5F090C1
:105F400005E0E0FBA3E0FAA3E0F912DF6790064E5C
:105F500074FFF0A37441F0A374D4F0900B41E0FC03
:105F6000A3E0FDA3E0FEA3E0FFEC128219E4FBFA3C
:105F7000798078471281039006511287327B017A2B
:105F80000579E512A8E7900B317401F0A37405F0D0
:105F9000A374E5F09005E0E0FBA3E0FAA3E0F912BA
:105FA000DF670260A490064E74FFF0A37441F0A373
:105FB00074C0F0900B51E0FCA3E0FDA3E0FEA3E071
:105FC000FFEC128219E4FBFA798078471281039082
:105FD00006511287327B017A0579E512A8E7900B0A
:105FE000317401F0A37405F0A374E5F09005E0E0CE
:105FF000FBA3E0FAA3E0F912DF6790064E74FFF00E
:10600000A37441F0A374CAF0900B55E0FCA3E0FD2B
:10601000A3E0FEA3E0FFEC128219E4FBFA7980789A
:10602000471281039006511287327B017A0579E588
:1060300012A8E7900B317401F0A37405F0A374E586
:10604000F09005E0E0FBA3E0FAA3E0F912DF67902F
:10605000064E74FFF0A37441F0A374D4F0900B5972
:10606000E0FCA3E0FDA3E0FEA3E0FFEC128219E454
:10607000FBFA798078471281039006511287327BB0
:10608000017A0579E512A8E7900B317401F0A37449
:1060900005F0A374E5F09005E0E0FBA3E0FAA3E0CF
:1060A000F912DF67900B3174FFF0A37441F0A37411
:1060B000DEF09005E0E0FBA3E0FAA3E0F912DF6771
:1060C000900B6BE0640370030261CD90064E74FF89
:1060D000F0A37441F0A374C0F0900B45E0FCA3E082
:1060E000FDA3E0FEA3E0FFEC128219E4FBFA798045
:1060F00078471281039006511287327B017A057925
:10610000E512A8E7900B317401F0A37405F0A374B5
:10611000E5F09005E0E0FBA3E0FAA3E0F912DF6709
:1061200090064E74FFF0A37441F0A374CAF0900B74
:1061300049E0FCA3E0FDA3E0FEA3E0FFEC1282191E
:10614000E4FBFA7980784712810390065112873276
:106150007B017A0579E512A8E7900B317401F0A371
:106160007405F0A374E5F09005E0E0FBA3E0FAA36A
:10617000E0F912DF6790064E74FFF0A37441F0A3BC
:1061800074D4F0900B4DE0FCA3E0FDA3E0FEA3E08F
:10619000FFEC128219E4FBFA7980784712810390B0
:1061A00006511287327B017A0579E512A8E7900B38
:1061B000317401F0A37405F0A374E5F09005E0E0FC
:1061C000FBA3E0FAA3E0F912DF670262CC90064E6F
:1061D00074FFF0A37441F0A374C0F0900B5DE0FC79
:1061E000A3E0FDA3E0FEA3E0FFEC128219E4FBFABA
:1061F000798078471281039006511287327B017AA9
:106200000579E512A8E7900B317401F0A37405F04D
:10621000A374E5F09005E0E0FBA3E0FAA3E0F91237
:10622000DF6790064E74FFF0A37441F0A374CAF0C8
:10623000900B61E0FCA3E0FDA3E0FEA3E0FFEC1205
:106240008219E4FBFA798078471281039006511293
:1062500087327B017A0579E512A8E7900B3174014A
:10626000F0A37405F0A374E5F09005E0E0FBA3E073
:10627000FAA3E0F912DF6790064E74FFF0A37441B1
:10628000F0A374D4F0900B65E0FCA3E0FDA3E0FE66
:10629000A3E0FFEC128219E4FBFA798078471281BF
:1062A000039006511287327B017A0579E512A8E73F
:1062B000900B317401F0A37405F0A374E5F0900520
:1062C000E0E0FBA3E0FAA3E0F912DF67900B317482
:1062D000FFF0A37440F0A37434F09005E0E0FBA35A
:1062E000E0FAA3E0F912DF67900B69E0B4031E90B7
:1062F0000B3174FFF0A37441F0A374F8F09005E043
:10630000E0FBA3E0FAA3E0F912DF67801C900B31F9
:1063100074FFF0A37442F0A37412F09005E0E0FB68
:10632000A3E0FAA3E0F912DF67900B6AE01460388B
:1063300014605314606E1470030263C2147003027D
:1063400063E0240560030263FC900B3174FFF0A34B
:106350007442F0A3742BF09005E0E0FBA3E0FAA3F5
:10636000E0F912DF670263FC900B3174FFF0A37455
:1063700042F0A3743DF09005E0E0FBA3E0FAA3E057
:10638000F912DF678076900B3174FFF0A37442F04E
:10639000A37452F09005E0E0FBA3E0FAA3E0F91249
:1063A000DF678058900B3174FFF0A37442F0A37440
:1063B00071F09005E0E0FBA3E0FAA3E0F912DF67DB
:1063C000803A900B3174FFF0A37442F0A3748CF008
:1063D0009005E0E0FBA3E0FAA3E0F912DF67801C80
:1063E000900B3174FFF0A37442F0A374A3F09005F6
:1063F000E0E0FBA3E0FAA3E0F912DF67900B6BE0AB
:1064000014602814604314605E24037076900B318E
:1064100074FFF0A37442F0A374BEF09005E0E0FBBB
:10642000A3E0FAA3E0F912DF678058900B3174FF04
:10643000F0A37442F0A374D7F09005E0E0FBA3E072
:10644000FAA3E0F912DF67803A900B3174FFF0A3F2
:106450007442F0A374EBF09005E0E0FBA3E0FAA334
:10646000E0F912DF67801C900B3174FFF0A37443D6
:10647000F0A37403F09005E0E0FBA3E0FAA3E0F9D9
:1064800012DF67900BB0E0601E900B3174FFF0A339
:106490007443F0A37428F09005E0E0FBA3E0FAA3B6
:1064A000E0F912DF67801C900B3174FFF0A3744396
:1064B000F0A37449F09005E0E0FBA3E0FAA3E0F953
:1064C00012DF6790064E74FFF0A37443F0A3746963
:1064D000F0900BB1E0FE3395E0900651F0A3CEF0C2
:1064E0007B017A0579E512A8E7900B317401F0A3DE
:1064F0007405F0A374E5F09005E0E0FBA3E0FAA3D7
:10650000E0F912DF67900B3174FFF0A37443F0A33E
:106510007482F09005E0E0FBA3E0FAA3E0F912DF5B
:1065200067E49005E3F0A3F0C39005E4E0940390E2
:1065300005E3E06480948040030265C490064E74D5
:10654000FFF0A37441F0A3743FF09005E3E0FCA3D7
:10655000E0FD2401FEE43C900651F0A3CEF0746C03
:106560002DF582740B3CF583E0FF900653E4F0A315
:10657000EFF07B017A0579E512A8E7900B31740101
:10658000F0A37405F0A374E5F09005E0E0FBA3E050
:10659000FAA3E0F912DF67900B3174FFF0A37440A7
:1065A000F0A37434F09005E0E0FBA3E0FAA3E0F977
:1065B00012DF679005E4E004F070069005E3E00464
:1065C000F0026528900B3174FFF0A37443F0A374BC
:1065D00097F09005E0E0FBA3E0FAA3E0F912DF6793
:1065E000E49005E3F0A3F0C39005E4E09403900584
:1065F000E3E06480948040030266AB90064E74FF33
:10660000F0A37443F0A374ADF09005E3E0FCA3E0C5
:10661000FD2401FEE43C900651F0A3CEF0EDAE0463
:106620007802C333CE33CED8F9246FF582740B3E93
:10663000F583E0FCA3E0FDA3E0FEA3E0FF9005E30B
:10664000E0FAA3E0246CF582740B3AF583E0F9F8E4
:106650001286D19006531287327B017A0579E512B2
:10666000A8E7900B317401F0A37405F0A374E5F072
:106670009005E0E0FBA3E0FAA3E0F912DF67900BDE
:106680003174FFF0A37440F0A37434F09005E0E09F
:10669000FBA3E0FAA3E0F912DF679005E4E004F061
:1066A00070069005E3E004F00265E7900B3174FF9B
:1066B000F0A37443F0A374B7F09005E0E0FBA3E00F
:1066C000FAA3E0F912DF67E49005E3F0A3F0C390CA
:1066D00005E4E094039005E3E064809480400302C5
:1066E000677C90064E74FFF0A37443F0A374D1F05E
:1066F0009005E3E0FCA3E0FD2401FEE43C9006519C
:10670000F0A3CEF0EDAE047802C333CE33CED8F989
:10671000247BF582740B3EF583E0FCA3E0FDA3E04F
:10672000FEA3E0FF9006531287327B017A0579E5DC
:1067300012A8E7900B317401F0A37405F0A374E57F
:10674000F09005E0E0FBA3E0FAA3E0F912DF679028
:106750000B3174FFF0A37440F0A37434F09005E0A3
:10676000E0FBA3E0FAA3E0F912DF679005E4E004A0
:10677000F070069005E3E004F00266CE900B3174F1
:10678000FFF0A37443F0A374DAF09005E0E0FBA3FC
:10679000E0FAA3E0F912DF6790064E74FFF0A374ED
:1067A00043F0A374F2F0900BB3E0FCA3E0FDA3E090
:1067B000FEA3E0FF900651128732900BB7E0FCA3D6
:1067C000E0FDA3E0FEA3E0FF900655128732900B98
:1067D000BBE0FCA3E0FDA3E0FEA3E0FF900659129E
:1067E00087327B017A0579E512A8E7900B317401B5
:1067F000F0A37405F0A374E5F09005E0E0FBA3E0DE
:10680000FAA3E0F912DF6790064E74FFF0A3744418
:10681000F0A3740BF0900BBFE0FCA3E0FDA3E0FE3F
:10682000A3E0FF900651128732900BC3E0FCA3E077
:10683000FDA3E0FEA3E0FF900655128732900BC740
:10684000E0FCA3E0FDA3E0FEA3E0FF900659128761
:10685000327B017A0579E512A8E7900B317401F0DB
:10686000A37405F0A374E5F09005E0E0FBA3E0FA63
:10687000A3E0F912DF67900B3174FFF0A37440F0CE
:10688000A37434F09005E0E0FBA3E0FAA3E0F91272
:10689000DF6790064E74FFF0A37444F0A37424F0F5
:1068A000900CA0E0FF900651E4F0A3EFF07B017A9A
:1068B0000579E512A8E7900B317401F0A37405F097
:1068C000A374E5F09005E0E0FBA3E0FAA3E0F91281
:1068D000DF67900B3174FFF0A37440F0A37434F0C1
:1068E0009005E0E0FBA3E0FAA3E0F912DF67E49093
:1068F00005E3F0A3F0C39005E4E094019005E3E024
:10690000648094804003026A0D90064E74FFF0A3E9
:106910007444F0A3743EF09005E3E0FCA3E0FD2492
:1069200001FEE43C900651F0A3CEF0EDAE047802F7
:10693000C333CE33CED8F924A1F582740C3EF5834F
:10694000E0FCA3E0FDA3E0FEA3E0FF9005E3E0FA96
:10695000A3E02485F582740C3AF583E0F9F81286F9
:10696000D19006531287327B017A0579E512A8E7A8
:10697000900B317401F0A37405F0A374E5F0900559
:10698000E0E0FBA3E0FAA3E0F912DF6790064E74A3
:10699000FFF0A37444F0A37464F09005E3E0FAA35D
:1069A000E0FBAE027802C333CE33CED8F924A9F58A
:1069B00082740C3EF583E0FCA3E0FDA3E0FEA3E0BF
:1069C000FF74852BF582740C3AF583E0F9F8128692
:1069D000D19006511287327B017A0579E512A8E73A
:1069E000900B317401F0A37405F0A374E5F09005E9
:1069F000E0E0FBA3E0FAA3E0F912DF679005E4E032
:106A000004F070069005E3E004F00268F590064E8D
:106A100074FFF0A37444F0A37471F0900CB1E0A380
:106A2000E0A3E0FFA3E0900651CFF0A3EFF0900CBD
:106A3000B5E0A3E0A3E0FFA3E0900653CFF0A3EFFF
:106A4000F07B017A0579E512A8E7900B317401F02B
:106A5000A37405F0A374E5F09005E0E0FBA3E0FA71
:106A6000A3E0F912DF67900B3174FFF0A37440F0DC
:106A7000A37434F09005E0E0FBA3E0FAA3E0F91280
:106A8000DF6790064E74FFF0A37444F0A3748DF09A
:106A9000900CB9E0FFA3E0900651CFF0A3EFF07B9C
:106AA000017A0579E512A8E7900B317401F0A3741F
:106AB00005F0A374E5F09005E0E0FBA3E0FAA3E0A5
:106AC000F912DF67900B3174FFF0A37440F0A374E8
:106AD00034F09005E0E0FBA3E0FAA3E0F912DF67F1
:106AE00090064E74FFF0A37444F0A3749FF0900CD2
:106AF000BBE0FFA3E0900651CFF0A3EFF0900CBDF8
:106B0000E0FFA3E0900653CFF0A3EFF07B017A05FE
:106B100079E512A8E7900B317401F0A37405F0A396
:106B200074E5F09005E0E0FBA3E0FAA3E0F912DFE2
:106B300067900B3174FFF0A37440F0A37434F090AD
:106B400005E0E0FBA3E0FAA3E0F912DF6790064E50
:106B500074FFF0A37444F0A374C1F0900CC0E0FC87
:106B6000A3E0FDA3E0FEA3E0FF9006511287329060
:106B70000CC4E0FCA3E0FDA3E0FEA3E0FF900655FB
:106B80001287327B017A0579E512A8E7900B317400
:106B900001F0A37405F0A374E5F09005E0E0FBA319
:106BA000E0FAA3E0F912DF67900B3174FFF0A374F1
:106BB00040F0A37434F09005E0E0FBA3E0FAA3E01A
:106BC000F912DF67900CBFE0601E900B3174FFF08C
:106BD000A37444F0A374E5F09005E0E0FBA3E0FAB1
:106BE000A3E0F912DF67801C900B3174FFF0A374EF
:106BF00045F0A37400F09005E0E0FBA3E0FAA3E009
:106C0000F912DF6790064E74FFF0A37445F0A37489
:106C10001AF0900CC8E0FF900651E4F0A3EFF07B6F
:106C2000017A0579E512A8E7900B317401F0A3749D
:106C300005F0A374E5F09005E0E0FBA3E0FAA3E023
:106C4000F912DF67900B3174FFF0A37440F0A37466
:106C500034F09005E0E0FBA3E0FAA3E0F912DF676F
:106C600090064E74FFF0A37445F0A3742CF0900CC2
:106C7000EAE0A3E0A3E0FFA3E0900651CFF0A3EF8A
:106C8000F07B017A0579E512A8E7900B317401F0E9
:106C9000A37405F0A374E5F09005E0E0FBA3E0FA2F
:106CA000A3E0F912DF67900B3174FFF0A37440F09A
:106CB000A37434F09005E0E0FBA3E0FAA3E0F9123E
:106CC000DF6790064E74FFF0A37445F0A37445F09F
:106CD000900CEEE0A3E0A3E0FFA3E0900651CFF01C
:106CE000A3EFF07B017A0579E512A8E7900B3174E8
:106CF00001F0A37405F0A374E5F09005E0E0FBA3B8
:106D0000E0FAA3E0F912DF67900B3174FFF0A3748F
:106D100040F0A37434F09005E0E0FBA3E0FAA3E0B8
:106D2000F912DF6790064E74FFF0A37445F0A37468
:106D30006BF0900CE6E0FCA3E0FDA3E0FEA3E0FF17
:106D4000900B6CE0F9F81286D1900651EEF0A3EFAB
:106D5000F07B017A0579E512A8E7900B317401F018
:106D6000A37405F0A374E5F09005E0E0FBA3E0FA5E
:106D7000A3E0F912DF67900B3174FFF0A37440F0C9
:106D8000A37434F09005E0E0FBA3E0FAA3E0F9126D
:106D9000DF6790064E74FFF0A37445F0A3747DF096
:106DA000900D8DE0F8A3E0F9A3E0FAA3E0FB900ECC
:106DB00054E0FCA3E0FDA3E0FEA3E0C39BFFEE9A3A
:106DC000FEED99FDEC98FC9006511287327B017A1A
:106DD0000579E512A8E7900B317401F0A37405F072
:106DE000A374E5F09005E0E0FBA3E0FAA3E0F9125C
:106DF000DF67900B3174FFF0A37440F0A37434F09C
:106E00009005E0E0FBA3E0FAA3E0F912DF6722E4DB
:106E1000F526F525F524F523900B39E0FCA3E0FDDC
:106E2000A3E0FEA3E0F5428E418D408C3FA3E0FC41
:106E3000A3E0FDA3E0FEA3E0F5468E458D448C4320
:106E4000A3E0FCA3E0FDA3E0FEA3E0F54A8E498D9C
:106E5000488C47A3E0FCA3E0FDA3E0FEA3E0F54ED1
:106E60008E4D8D4C8C4BA3E0FCA3E0FDA3E0FEA374
:106E7000E0F5528E518D508C4FA3E0FCA3E0FDA3B2
:106E8000E0FEA3E0F5568E558D548C53A3E0FCA391
:106E9000E0FDA3E0FEA3E0F55A8E598D588C57A370
:106EA000E0FCA3E0FDA3E0FEA3E0F55E8E5D8D5C5B
:106EB0008C5BA3E0FCA3E0FDA3E0FEA3E0F5628E03
:106EC000618D608C5FA3E0FCA3E0FDA3E0FEA3E086
:106ED000F5668E658D648C63A3E0FCA3E0FDA3E002
:106EE000FEA3E0F56A8E698D688C67A3E0FCA3E0E1
:106EF000FDA3E0FEA3E0F56E8E6D8D6C8C6B900BA8
:106F0000A2E0FEA3E0FFFBAA06E4900E80E0FCA353
:106F1000E0FDA3E0FEA3E0C39BF53AEE9AF539ED60
:106F20009400F538EC9400F537900BA4E0FEA3E054
:106F3000FFFBAA06E4900E84E0FCA3E0FDA3E0FEC4
:106F4000A3E0C39BF53EEE9AF53DED9400F53CECD5
:106F50009400F53B900B6AE024FE70030270C414A9
:106F6000700302712214700302721714700302730B
:106F70007A24046003027511900BB0E06024A3E052
:106F8000FF3395E0FEFDFC900E71E0F8A3E0F9A35D
:106F9000E0FAA3E0FB12855F8F368E358D348C339B
:106FA0008024900BB1E0FF3395E0FEFDFC900E6D68
:106FB000E0F8A3E0F9A3E0FAA3E0FB12855F8F36C7
:106FC0008E358D348C33900C37E0F8A3E0F9A3E0D4
:106FD000FAA3E0FBC3E5369BFFE5359AFEE534995D
:106FE000FDE53398FC900B98E0F8A3E0F9A3E0FAF4
:106FF000A3E0FBC31286975044E4FFFEFDFC900B18
:1070000098E0F8A3E0A3E0A3E0C3128697602E9077
:107010000C37E0FCA3E0FDA3E0FEA3E0FF900B989B
:10702000E0F8A3E0A3E0A3E0EF2BFFEE3AFEED399A
:10703000FDEC38FC900C37128732027511900C373A
:10704000E0F8A3E0F9A3E0FAA3E0FBC3E5369BFF79
:10705000E5359AFEE53499FDE53398FC900B9CE00C
:10706000F8A3E0F9A3E0FAA3E0FBD312869740432C
:10707000E4FFFEFDFC900B9CE0F8A3E0A3E0A3E09E
:10708000128697602E900C37E0FCA3E0FDA3E0FE93
:10709000A3E0FF900B9CE0F8A3E0A3E0A3E0EF2BBC
:1070A000FFEE3AFEED39FDEC38FC900C37128732DA
:1070B000027511AF36AE35AD34AC33900C37128754
:1070C00032027511E4FFFEFDFCAB3AAA39A938A8DB
:1070D00037D3128697403D900CA9E0FCA3E0FDA3B6
:1070E000E0FEA3E0FFA83712855FC006C007900B43
:1070F000A2E0FEA3E0FFC3E49FFF74049EFEAB0783
:10710000FAE4F9F8D007D00612E49A900C37128707
:1071100032027511E4FFFEFDFC900C37128732023B
:107120007511900D95E0FCA3E0FDA3E0FEA3E0FF48
:10713000900C37128732E4FFFEFDFCAB3AAA39A966
:1071400038A837D31286974056900CC8E0FFE4FC6D
:10715000FDFEA83712855FE47B02FAF9F812855F1D
:10716000C006C007900BA2E0FEA3E0FFC3E49FFFB0
:1071700074049EFEAB07FAE4F9F8D007D00612E4D7
:107180009A900D95E0F8A3E0F9A3E0FAA3E02FFFB1
:10719000EA3EFEE93DFDE83CFC900C37128732E404
:1071A000FFFEFDFCAB3EAA3DA93CA83BD31286974F
:1071B0005003027511900CC8E0FFE4FCFDFEA83BF3
:1071C00012855FE47B02FAF9F812855FC006C007FA
:1071D000900BA4E0FEA3E0FFC3E49FFF74049EFEB7
:1071E000AB07FAE4F9F8D007D00612E49AA804A98C
:1071F00005AA06AB07900D95E0FCA3E0FDA3E0FE19
:10720000A3E0C39BFFEE9AFEED99FDEC98FC900C79
:1072100037128732027511900D95E0FCA3E0FDA3B3
:10722000E0FEA3E0FF900C37128732900F3AE01493
:1072300060481470030272F424026003027511E4C2
:10724000FFFEFDFCAB3AAA39A938A837D3128697BE
:107250004009900F3A7401F0027511E4FFFEFDFC45
:10726000AB3EAA3DA93CA83BD312869750030275BA
:1072700011900F3A7402F0027511E4FFFEFDFCABB1
:107280003AAA39A938A837C31286975008E4900F54
:107290003AF0027511900CC8E0FFE4FCFDFEAB3A39
:1072A000AA39A938A83712855FE47B02FAF9F812E7
:1072B000855FC006C007900BA2E0FEA3E0FFC3E419
:1072C0009FFF74049EFEAB07FAE4F9F8D007D006DE
:1072D00012E49A900D95E0F8A3E0F9A3E0FAA3E098
:1072E0002FFFEA3EFEE93DFDE83CFC900C3712879B
:1072F00032027511E4FFFEFDFCAB3EAA3DA93CA89D
:107300003BC31286975008E4900F3AF00275119033
:107310000CC8E0FFE4FCFDFEAB3EAA3DA93CA83B47
:1073200012855FE47B02FAF9F812855FC006C00798
:10733000900BA4E0FEA3E0FFC3E49FFF74049EFE55
:10734000AB07FAE4F9F8D007D00612E49AA804A92A
:1073500005AA06AB07900D95E0FCA3E0FDA3E0FEB7
:10736000A3E0C39BFFEE9AFEED99FDEC98FC900C18
:1073700037128732027511027511900D95E0FCA34A
:10738000E0FDA3E0FEA3E0FF900C37128732900FE0
:107390003AE0146048147003027476240260030219
:1073A0007511E4FFFEFDFCAB3AAA39A938A837D322
:1073B0001286974009900F3A7401F0027511E4FFAC
:1073C000FEFDFCAB3EAA3DA93CA83BD312869750DC
:1073D00003027511900F3A7402F0027511E4FFFE7A
:1073E000FDFCAB3AAA39A938A837C3128697501BBF
:1073F000E4FFFEFDFCAB3EAA3DA93CA83BC31286C0
:10740000975008E4900F3AF0027511E4FFFEFDFC7E
:10741000AB3AAA39A938A837D31286975003027518
:1074200011900CC8E0FFE4FCFDFEA83712855F78E0
:10743000021286E5C006C007900BA2E0FEA3E0FFA3
:10744000C3E49FFF74049EFEAB07FAE4F9F8D0078B
:10745000D00612E49A900D95E0F8A3E0F9A3E0FAC3
:10746000A3E02FFFEA3EFEE93DFDE83CFC900C372F
:10747000128732027511E4FFFEFDFCAB3AAA39A96E
:1074800038A837C3128697501AE4FFFEFDFCAB3EC6
:10749000AA3DA93CA83BC31286975007E4900F3A37
:1074A000F0806EE4FFFEFDFCAB3EAA3DA93CA83B8C
:1074B000D3128697405B900BAFE0FFE4FCFDFEA883
:1074C0003B12855F78021286E5C006C007900BA4C8
:1074D000E0FEA3E0FFC3E49FFF74049EFEAB07FA47
:1074E000E4F9F8D007D00612E49AA804A905AA0680
:1074F000AB07900D95E0FCA3E0FDA3E0FEA3E0C385
:107500009BFFEE9AFEED99FDEC98FC900C371287EC
:1075100032900B87E0606AA3E0FCA3E0FDA3E0FEED
:10752000A3E0FF900C37E0F8A3E0F9A3E0FAA3E0B2
:10753000FBC31286975014900B88E0FCA3E0FDA3D8
:10754000E0FEA3E0FF900C37128732900B90E0FC36
:10755000A3E0FDA3E0FEA3E0FF900C37E0F8A3E07A
:10756000F9A3E0FAA3E0FBD31286974014900B90A6
:10757000E0FCA3E0FDA3E0FEA3E0FF900C37128740
:1075800032900BDDE06401600302763A900EA0E0D9
:10759000B40114900E4CE0FCA3E0FDA3E0FEA3E0D8
:1075A000FF900C37128732900D50E06401600302A7
:1075B000763AFFFEFDFCAB3EAA3DA93CA83BD312A8
:1075C0008697405D900CE6E0FCA3E0FDA3E0FEA3FF
:1075D000E0FFA83B12855FC006C007900BA4E0FE49
:1075E000A3E0FFC3E49FFF74049EFEAB07FAE4F937
:1075F000F8D007D00612E49AA804A905AA06AB079A
:10760000900CE6E0FCA3E0FDA3E0FEA3E0C39BFF3B
:10761000EE9AFEED99FDEC98FC900C3712873280C3
:1076200019900CE6E0FCA3E0FDA3E0FEA3E0FF90D0
:107630000C37128732E4900D50F0900B6BE0700322
:10764000027A25147003027DDF147003027BB314E9
:107650006003027E4D900E69E0F8A3E0F9A3E0FA22
:10766000A3E0FB900C37E0FCA3E0FDA3E0FEA3E069
:10767000C39BF52AEE9AF529ED99F528EC98F527A4
:10768000900F2AE0FCA3E0FDA3E0FEA3E0252AFF83
:10769000EE3529FEED3528FDEC3527FC900F2A123A
:1076A00087327F807EF07DFA7C02900F2AE0F8A37B
:1076B000E0F9A3E0FAA3E0FBD312869740107F80A5
:1076C0007EF07DFA7C02900F2A128732802A7F801A
:1076D0007E0F7D057CFD900F2AE0F8A3E0F9A3E082
:1076E000FAA3E0FBC3128697500E7F807E0F7D05C4
:1076F0007CFD900F2A128732E4F532F531F530F532
:107700002FFFFEFDFCAB5AAA59A958A857C31286F1
:10771000976026AF2AAE29AD28AC27A85712855FFF
:1077200078101286D1E5322FF532E5313EF531E59C
:10773000303DF530E52F3CF52FE4FFFEFDFCAB5E60
:10774000AA5DA95CA85BC3128697602C900F2AE003
:10775000FCA3E0FDA3E0FEA3E0FFA85B12855F7839
:10776000101286D1E5322FF532E5313EF531E530A4
:107770003DF530E52F3CF52FE4FFFEFDFCAB62AAA2
:1077800061A960A85FC31286976043900F32E0F84A
:10779000A3E0F9A3E0FAA3E0FBC3E52A9BFFE529F8
:1077A0009AFEE52899FDE52798FCAB62AA61A960DD
:1077B000A85F12855F78101286D1E5322FF532E589
:1077C000313EF531E5303DF530E52F3CF52FAF2A60
:1077D000AE29AD28AC27900F32128732E4FFFEFDB0
:1077E000FCAB32AA31A930A82FC31286974004D22D
:1077F000118002C211900BA0E0FEA3E0FFEE3395D2
:10780000E0FDFCAB32AA31A930A82FD312869740F5
:1078100016900BA0E0FEA3E0FFEE3395E08F328ED2
:1078200031F530F52F803C900BA0E0FEA3E0FFC3C4
:10783000E49FFFE49EFE3395E0FDFCAB32AA31A944
:1078400030A82FC3128697501A900BA0E0FEA3E039
:10785000FFC3E49FFFE49EFE3395E08F328E31F547
:1078600030F52F900E75E0F8A3E0F9A3E0FAA3E05D
:10787000FBC3E5329BF52EE5319AF52DE53099F500
:107880002CE52F98F52B900F2EE0FCA3E0FDA3E054
:10789000FEA3E0252EFFEE352DFEED352CFDEC355B
:1078A0002BFC900F2E1287327FA07E867D017C00FC
:1078B000900F2EE0F8A3E0F9A3E0FAA3E0FBD312C7
:1078C000869740107FA07E867D017C00900F2E124F
:1078D0008732802A7F607E797DFE7CFF900F2EE0CC
:1078E000F8A3E0F9A3E0FAA3E0FBC3128697500ED9
:1078F0007F607E797DFE7CFF900F2E128732E4F54B
:1079000026F525F524F523FFFEFDFCAB66AA65A947
:1079100064A863C31286976026AF2EAE2DAD2CAC43
:107920002BA86312855F78101286D1E5262FF526E5
:10793000E5253EF525E5243DF524E5233CF523E446
:10794000FFFEFDFCAB6AAA69A968A867C312869707
:10795000602C900F2EE0FCA3E0FDA3E0FEA3E0FF6F
:10796000A86712855F78101286D1E5262FF526E5E7
:10797000253EF525E5243DF524E5233CF523E4FFEC
:10798000FEFDFCAB6EAA6DA96CA86BC31286976056
:1079900043900F36E0F8A3E0F9A3E0FAA3E0FBC3BD
:1079A000E52E9BFFE52D9AFEE52C99FDE52B98FC35
:1079B000AB6EAA6DA96CA86B12855F78101286D188
:1079C000E5262FF526E5253EF525E5243DF524E5BC
:1079D000233CF52374FF7F9CFEFDFCAB26AA25A962
:1079E00024A823C3128697500D74FF75269CF52595
:1079F000F524F523801EE47F64FEFDFCAB26AA255A
:107A0000A924A823D3128697400AE4752664F52595
:107A1000F524F523AF2EAE2DAD2CAC2B900F3612E6
:107A20008732027E4D900E69E0F8A3E0F9A3E0FAF8
:107A3000A3E0FB900C37E0FCA3E0FDA3E0FEA3E095
:107A4000C39BF52AEE9AF529ED99F528EC98F527D0
:107A5000900F2AE0FCA3E0FDA3E0FEA3E0252AFFAF
:107A6000EE3529FEED3528FDEC3527FC900F2A1266
:107A70008732E47FE87E03FDFC900F2AE0F8A3E064
:107A8000F9A3E0FAA3E0FBD3128697400FE47FE866
:107A90007E03FDFC900F2A128732802A7F187EFC1D
:107AA0007DFF7CFF900F2AE0F8A3E0F9A3E0FAA3A2
:107AB000E0FBC3128697500E7F187EFC7DFF7CFF93
:107AC000900F2A128732E4FFFEFDFCAB42AA41A9C7
:107AD00040A83FC3128697601AAF2AAE29AD28ACE2
:107AE00027A83F12855F78101286D18F268E258DAC
:107AF000248C23E4FFFEFDFCAB46AA45A944A84321
:107B0000C3128697602C900F2AE0FCA3E0FDA3E04F
:107B1000FEA3E0FFA84312855F78101286D1E52608
:107B20002FF526E5253EF525E5243DF524E5233C06
:107B3000F523E4FFFEFDFCAB4AAA49A948A847C3C8
:107B40001286976043900F32E0F8A3E0F9A3E0FAC1
:107B5000A3E0FBC3E52A9BFFE5299AFEE52899FDF2
:107B6000E52798FCAB4AAA49A948A84712855F783F
:107B7000101286D1E5262FF526E5253EF525E524CC
:107B80003DF524E5233CF523AF2AAE29AD28AC27EB
:107B9000900F32128732E4FFFEFDFCAB26AA25A926
:107BA00024A823D31286974005D211027E4DC2111C
:107BB000027E4D900C4FE07003027E4D20100302B8
:107BC0007E4D900C3FE0FCA3E0FDA3E0FEA3E0F5BA
:107BD000328E318D308C2F900BA0E0FEA3E0FFEEB3
:107BE0003395E0FDFCAB32AA31A930A82FD3128621
:107BF000974016900BA0E0FEA3E0FFEE3395E08FD8
:107C0000328E31F530F52F803C900BA0E0FEA3E0E2
:107C1000FFC3E49FFFE49EFE3395E0FDFCAB32AA78
:107C200031A930A82FC3128697501A900BA0E0FEFE
:107C3000A3E0FFC3E49FFFE49EFE3395E08F328E06
:107C400031F530F52F900E75E0F8A3E0F9A3E0FAD6
:107C5000A3E0FBC3E5329BF52EE5319AF52DE53027
:107C600099F52CE52F98F52B900F2EE0FCA3E0FD65
:107C7000A3E0FEA3E0252EFFEE352DFEED352CFD15
:107C8000EC352BFC900F2E1287327FA07E867D0173
:107C90007C00900F2EE0F8A3E0F9A3E0FAA3E0FB4C
:107CA000D312869740107FA07E867D017C00900FC6
:107CB0002E128732802A7F607E797DFE7CFF900FB6
:107CC0002EE0F8A3E0F9A3E0FAA3E0FBC312869745
:107CD000500E7F607E797DFE7CFF900F2E128732E2
:107CE000E4F526F525F524F523FFFEFDFCAB4EAAB1
:107CF0004DA94CA84BC31286976026AF2EAE2DAD72
:107D00002CAC2BA84B12855F78101286D1E5262F5C
:107D1000F526E5253EF525E5243DF524E5233CF54E
:107D200023E4FFFEFDFCAB52AA51A950A84FC31299
:107D30008697602C900F2EE0FCA3E0FDA3E0FEA34D
:107D4000E0FFA84F12855F78101286D1E5262FF547
:107D500026E5253EF525E5243DF524E5233CF523E0
:107D6000E4FFFEFDFCAB56AA55A954A853C31286E6
:107D7000976043900F36E0F8A3E0F9A3E0FAA3E0A0
:107D8000FBC3E52E9BFFE52D9AFEE52C99FDE52B27
:107D900098FCAB56AA55A954A85312855F781012C7
:107DA00086D1E5262FF526E5253EF525E5243DF58A
:107DB00024E5233CF523AF2EAE2DAD2CAC2B900F3C
:107DC00036128732E4FFFEFDFCAB26AA25A924A8C3
:107DD00023C31286974004D2118072C211806E9024
:107DE0000C47E0FCA3E0FDA3E0FEA3E0F5268E2512
:107DF0008D248C23E4FFFEFDFCAB26AA25A924A834
:107E000023D31286974004D2118002C21174FF7FDF
:107E10009CFEFDFCAB26AA25A924A823C3128697A5
:107E2000500D74FF75269CF525F524F523801EE47E
:107E30007F64FEFDFCAB26AA25A924A823D31286C5
:107E400097400AE4752664F525F524F523E47F645C
:107E5000FEFDFCAB26AA25A924A823D312869740B1
:107E60000AE4752664F525F524F52374FF7F9CFE4E
:107E7000FDFCAB26AA25A924A823C3128697500B84
:107E800074FF75269CF525F524F523900B6BE064B3
:107E9000016037AF26AE25AD24AC23780A1286E503
:107EA000E47B64FAF9F812E49AA804A905AA06ABDF
:107EB00007900EA1E0FFE4FCFDFE12855F780A1238
:107EC00086D18F268E258D248C23E4FFFEFDFCAB0E
:107ED00026AA25A924A823C312869740047F0180DF
:107EE000027FFF900E64EFF03011077F0112F16204
:107EF0008005E4FF12F162AE25AF2612F00C12F1FC
:107F00004A220282C3E86480F8E933E8336011044E
:107F100060F0ED33EC337009E8FCE9FDEAFEEBFFBD
:107F2000220460DED3EB9FEA9EE99DE8C2E78CF075
:107F3000C2F795F0400CE8CCF8E9CDF9EACEFAEBBF
:107F4000CFFB12828E85D0F05804700320D5B3E8A1
:107F50000470075002B2D50282CD92D5EC0460F7CE
:107F6000E4CCC0E0C398F8603B94186008400DD0A2
:107F7000E0FB0282A5E4FBFAC9FC8028E830E406B5
:107F8000E4C9FBE4CAFCE830E305E4C9CACBFCE879
:107F900054076010F8C3E913F9EA13FAEB13FBEC8A
:107FA00013FCD8F130F52FC3E49CFCEF9BFFEE9A55
:107FB000FEED99FDD0E0FBEF4E4D4C701222DB033D
:107FC0000282CAEC2CFCEF33FFEE33FEED33FDED05
:107FD00030E7EB0282A5EF2BFFEE3AFEED39FDD044
:107FE000E0FB50130BBB00030282CDED13FDEE133B
:107FF000FEEF13FFEC13FC0282A5EC4D6011E84983
:108000007017ED33EC3304600DE4FCFFFEFD22E954
:1080100033E8330470F80282C312828E5804600978
:10802000E4CC248150062850090282CD2840030266
:1080300082CAC0E0EB4A7044B98006D0E0FB0282FD
:10804000B9EF4E701CBD8008EBFFEAFEE9FD80EB46
:10805000E98DF0A4FEE5F00280E3E9CDF9EAFEEB5C
:10806000FFEF89F0A4FCE5F0CE89F0A42EFFE43503
:10807000F0CD89F0A42DFEE435F08067EF4E700559
:10808000BD80D780C3EF8BF0A4ACF0EE8BF0A42CB6
:10809000FCE435F0F8EF8AF0A42CE5F038FCE4338A
:1080A000CB8DF0A42CFCE5F03BF8EE8AF0A42CFC80
:1080B000E5F038F8E433CF89F0A42CFCE5F038CFB4
:1080C0003400CE89F0A42FFFE5F03EFEE433C98DE5
:1080D000F0A42EFEE5F039CD8AF0A42FFFE5F03EA6
:1080E000FEE43DFD33D0E0FB50070BBB000F0282E6
:1080F000CDEC2CFCEF33FFEE33FEED33FD0282A519
:108100000282CDEC5D046005E8590470030282C36D
:1081100012828E580460F6EC4860F2EC7004FDFEAA
:10812000FF22C860DB2481C85009C3986002500652
:108130000282CA9850CAF582E9294B4A7005AB827F
:108140000282B975F0007C1A7880C3EF9BEE9AED3D
:1081500099400DC3EF9BFFEE9AFEED99FDE842F0CA
:10816000DC23ACF0D0E0FFD0E0FED0E0FDAB82201D
:10817000E7101BEB60BAEC2CFCEF33FFEE33FEEDA7
:1081800033FD0282A5E803F830E705C0F075F00082
:10819000EF2FFFEE33FEED33FD40B830E7C280AA8B
:1081A00074F8CC6480CCC86480C8F58204604FC386
:1081B000EB9FF5F0EA9E42F0E99D42F0E89C45F025
:1081C000603C501DE5825FFFE582D313CB5BCBF4AF
:1081D0002B5582FB50280ABA002409B900200880D8
:1081E0001DE5825BFBE582D313CF5FCFF4C3132F72
:1081F0005582FF50090EBE00050DBD00010CC3EBFA
:108200009FF5F0EA9E42F0E99D42F0E89C45F0605F
:1082100007CC4820E701B3EC2275F020800E75F002
:1082200010800575F0087D007E007F003392D53008
:10823000D503128689EC334010EF33FFEE33FEEDA9
:1082400033FDEC33FCD5F0ED22E5F0247EA2D5130E
:10825000CC92E7CDCEFF22EDD2E7CD33EC3392D5F1
:1082600024814006E4FFFEFDFC22FCE4CFCECDCC11
:1082700024E0501174FF80EDC3CC13CCCD13CDCED0
:1082800013CECF13CF0470F030D5DE028689E9D249
:10829000E7C933E833F892D5EDD2E7CD33EC33FCC0
:1082A0005002B2D522EC30E7100FBF000C0EBE001A
:1082B000080DBD00040BEB6014A2D5EB13FCED928E
:1082C000E7FD2274FFFCFDFEFF22E480F8A2D574D6
:1082D000FF13FC7D80E480EFF920E73624F950039A
:1082E0007907E4F42402FBE582158270021583DB32
:1082F000F6E024FB501BE96014E4F0E5821582707F
:10830000021583E004F0B40A08E4F0D9EE7401F039
:108310000A22C2D522ED33EC3392D5FA602AB4FF9B
:1083200033EDC2E77BFF60067A83793AE4227A83F1
:10833000794320D5047A83793E224E614E002B4941
:108340004E46002D494E4600E47A08F0A3DAFC7B45
:1083500000740722C083C082ECC0E0EDC0E0EEC034
:10836000E0EFC0E0EA75F010A4CAABF075F04DA4E0
:108370002BFBE435F0FCEA2410FAEB34C5FBEC34BB
:10838000D9FCEDC2E7FF75F056A4F42411C5F0F452
:1083900034C58FF0A42AE5F03BE43CF020E714124A
:1083A000844AD0E0FFD0E0FED0E0FDD0E0FC1281B6
:1083B000038014F40412844AD0E0FFD0E0FED0E041
:1083C000FDD0E0FC127FFAD082D083E0FAEDD2E754
:1083D000CD33EC332482FBE4C3CF33CFCE33CECDC9
:1083E00033CD33DBF37B0775F00A846004F0A31B05
:1083F0000AE5F0F0A38FF0740AA4FFACF08EF074DD
:108400000AA42CFEACF050010C8DF0740AA42CFDD3
:10841000E435F0F0A3DBDE7407223F80000041204A
:10842000000042C80000447A0000461C400047C3D8
:108430005000497424004B1896804CBEBC205A0E44
:108440001BCA6753C21C749DC5AEFB60065407600F
:108450001C2323128478EB5438600912846412843C
:1084600073127FFAECF8EDF9EEFAEFCB22EB1284FF
:108470007380F1543803241C90841AFE93FC0EEE92
:1084800093FD0EEE930ECE93FF22BB010689828AE6
:1084900083E0225002E722BBFE02E32289828A8324
:1084A000E49322BB010CE58229F582E5833AF5834A
:1084B000E0225006E92582F8E622BBFE06E9258285
:1084C000F8E222E58229F582E5833AF583E49322F6
:1084D000BB010689828A83F0225002F722BBFE018B
:1084E000F322EF8DF0A4A8F0CF8CF0A428CE8DF06D
:1084F000A42EFE22C2D5EC30E709B2D5E4C39DFD1F
:10850000E49CFCEE30E715B2D5E4C39FFFE49EFE89
:1085100012898CC3E49DFDE49CFC800312898C309D
:10852000D507C3E49FFFE49EFE22C5F0F8A3E02830
:10853000F0C5F0F8E582158270021583E038F0226C
:10854000BB010A89828A83F0E5F0A3F0225006F786
:1085500009A7F01922BBFE06F3E5F009F31922E89A
:108560008FF0A4CC8BF0A42CFCE98EF0A42CFC8A18
:10857000F0EDA42CFCEA8EF0A4CDA8F08BF0A42D95
:10858000CC3825F0FDE98FF0A42CCD35F0FCEB8E36
:10859000F0A4FEA9F0EB8FF0A4CFC5F02ECD39FEEC
:1085A000E43CFCEAA42DCE35F0FDE43CFC2275F061
:1085B00008758200EF2FFFEE33FECD33CDCC33CCE8
:1085C000C58233C5829BED9AEC99E58298400CF503
:1085D00082EE9BFEED9AFDEC99FC0FD5F0D6E4CE31
:1085E000FBE4CDFAE4CCF9A88222B800C1B9005965
:1085F000BA002DEC8BF084CFCECDFCE5F0CBF97832
:1086000018EF2FFFEE33FEED33FDEC33FCEB33FBC5
:1086100010D703994004EB99FB0FD8E5E4F9FA224F
:108620007818EF2FFFEE33FEED33FDEC33FCC9334A
:10863000C910D7059BE99A4007EC9BFCE99AF90F12
:10864000D8E0E4C9FAE4CCFB2275F010EF2FFFEE7E
:1086500033FEED33FDCC33CCC833C810D7079BECC9
:108660009AE899400AED9BFDEC9AFCE899F80FD541
:10867000F0DAE4CDFBE4CCFAE4C8F922CFF4CFCEB3
:10868000F4CECDF4CDCCF4CC22C3E49FFFE49EFE27
:10869000E49DFDE49CFC22EB9FF5F0EA9E42F0E9AC
:1086A0009D42F0EC6480C864809845F022EB9FF511
:1086B000F0EA9E42F0E99D42F0E89C45F022E86035
:1086C0000FECC313FCED13FDEE13FEEF13FFD8F117
:1086D00022E86010ECA2E713FCED13FDEE13FEEFB1
:1086E00013FFD8F022E8600FEFC333FFEE33FEED47
:1086F00033FDEC33FCD8F122BB010789828A830267
:108700008A035005E9F80289F7BBFE05E9F8028AF9
:108710000F89828A83028A1BBB010789828A8302AE
:1087200087325005E9F8028A2BBBFE05E9F8028A78
:108730003722ECF0A3EDF0A3EEF0A3EFF022F8E087
:10874000FBA3A3E0F925F0F0E58215827002158302
:10875000E0FA38F022EBF0A3EAF0A3E9F022D083AC
:10876000D082F8E4937012740193700DA3A393F870
:10877000740193F5828883E4737402936860EFA3B5
:10878000A3A380DFE5122582F582E5113583F58309
:10879000B511048582122210AF06858212F51122CE
:1087A000858212F511D2AF22EC8EF0A4CCC5F0CCAC
:1087B000CDF8EFA4CEC5F02DFDE43CFCE8A42EC816
:1087C000C5F03DFDE43CFCEFA4FFE5F028FEE43DF0
:1087D000FDE43CFC22E709F608DFFA8046E709F2EF
:1087E00008DFFA803E88828C83E709F0A3DFFA80F5
:1087F00032E309F608DFFA806EE309F208DFFA8057
:108800006688828C83E309F0A3DFFA805A89828A22
:1088100083E0A3F608DFFA804E89828A83E0A3F220
:1088200008DFFA804280D280FA80C680D4805580EA
:10883000F28029801080A680EA809A80A880DA8061
:10884000E280CA802988848C8589828A83E493A304
:108850000586F0A30586DFF5DEF3800B89828A8327
:10886000E493A3F608DFF9ECFAA9F0EDFB22888483
:108870008C8589828A83E0A30586F0A30586DFF6CE
:10888000DEF480E389828A83E493A3F208DFF9802F
:10889000D688F0EF60010E4E60CD88F0ED2402B472
:1088A000040050C3F582EB2402B4040050B9232322
:1088B00045822390882573E709F60870FA8046E719
:1088C00009F20870FA803E88828C83E709F0A37071
:1088D000FA8074E309F60870FA806CE309F2087014
:1088E000FA806488828C83E309F0A370FA80588947
:1088F000828A83E0A3F60870FA804C89828A83E03A
:10890000A3F20870FA804080D280FA80C680D480BA
:108910005180F28027801080A680EA809A80A8800B
:10892000DA80E280CA802788848C8589828A83E401
:1089300093A30586F0A3058670F5800B89828A8350
:10894000E493A3F60870F9ECFAA9F0EDFB22888411
:108950008C8589828A83E0A30586F0A3058670F65C
:1089600080E589828A83E493A3F20870F980D8882D
:10897000F0ED2402B4040050CEF582EB2402B404DE
:108980000050C4232345822390890773BC000BBE8B
:108990000029EF8DF084FFADF022E4CCF875F008EB
:1089A000EF2FFFEE33FEEC33FCEE9DEC984005FC20
:1089B000EE9DFE0FD5F0E9E4CEFD22EDF8F5F0EEE8
:1089C0008420D21CFEADF075F008EF2FFFED33FDD3
:1089D0004007985006D5F0F222C398FD0FD5F0EA73
:1089E00022A3F8E0C5F025F0F0E5821582700215AB
:1089F00083E0C838F0E822E6FC08E6FD08E6FE0859
:108A0000E6FF22E0FCA3E0FDA3E0FEA3E0FF22E2FC
:108A1000FC08E2FD08E2FE08E2FF22E493FC740198
:108A200093FD740293FE740393FF22ECF608EDF6B7
:108A300008EEF608EFF622ECF208EDF208EEF20886
:108A4000EFF22212F1CEEF700A300FF7C20F12C60A
:108A5000BB80F0900E5DE0249AFF900E5CE034F94C
:108A6000FE3395E0FDFCE47BA07A07F9F812855F00
:108A700078071286D1900D91128732300F05C20F00
:108A800012C6BB900F73E07003028B132010030219
:108A90008B13900F79E004F07006900F78E004F0EB
:108AA000900F78E064037004A3E064E870657F28A9
:108AB0007E23FDFC900D91E0F8A3E0F9A3E0FAA37A
:108AC000E0FBC3128697500FE47F407E1FFDFC90B1
:108AD0000F741287328037E47FC87E32FDFC900D20
:108AE00091E0F8A3E0F9A3E0FAA3E0FBC3128697B4
:108AF000500FE47FE07E2EFDFC900F7412873280D1
:108B00000DE47FC07E5DFDFC900F74128732E4900F
:108B10000F73F0E47F587E1BFDFC900D91E0F8A3ED
:108B2000E0F9A3E0FAA3E0FBD31286975003029189
:108B30004BE47FE87E03FDFC900F7AE0F8A3E0F9B8
:108B4000A3E0FAA3E0FB1286AD7004D21080369049
:108B50000F7AE0FCA3E0FDA3E0FEA3E02401FFE424
:108B60003EFEE43DFDE43CFC900F7A128732900D0E
:108B700091E0FCA3E0FDA3E0FEA3E0FF12DAE890A1
:108B80000E65128732900CCBE0600312D449900E30
:108B90005FE0249AFF900E5EE034F9FE3395E0FD2D
:108BA000FCE47BAB7A64F9F812855F780D1286D10C
:108BB000900E64E0FD3395E0FC1284E2EE3395E024
:108BC000FDFC12D877900E75128732900E69E0FC8A
:108BD000A3E0FDA3E0FEA3E0FF900C85E0F9F8120E
:108BE00086D1C004C005C006C007900E88E0FCA373
:108BF000E0FDA3E0FEA3E0FF900C85E0F81286D133
:108C0000900006128732900C37E0FCA3E0FDA3E051
:108C1000FEA3E0FFA8011286D190000A128732D08D
:108C200007D006D005D00412AD05A804A905AA06F0
:108C3000AB07900E75E0FCA3E0FDA3E0FEA3E0C34C
:108C40009BFFEE9AFEED99FDEC98FC12DA6BEE3389
:108C500095E0FDFC900E79128732300F05C20F129D
:108C6000C6BB900CBFE07004F50FF510E50F147053
:108C700003028D54147003028D6B147003028DA8CF
:108C800024036003028E7E900CF5E025E02460F55D
:108C900082E4340EF583E0FEA3E0FFEE3395E08F2F
:108CA000268E25F524F523E4FFFEFDFCAB26AA2540
:108CB000A924A823C31286975009E4F526F525F5C3
:108CC00024F523AF26AE25AD24AC2312CF238F2667
:108CD0008E258D248C23780A1286E5900CC0E0F84E
:108CE000A3E0F9A3E0FAA3E0FB1285EA8F268E2524
:108CF0008D248C23300F05C20F12C6BBE4FFFEFD8E
:108D0000FCAB26AA25A924A823C3128697500BE4FE
:108D1000F526F525F524F523801EE4FF7E04FDFCF1
:108D2000AB26AA25A924A823D3128697400AE4F5E6
:108D300026752504F524F523AF26AE25AD24AC23F6
:108D4000900E80128732200F03028E7EC20F12C651
:108D5000BB028E7EE4900F6FF0A3F0FFFEFDFC904F
:108D60000CC0128732750F02028E7E900F70E004E5
:108D7000F07006900F6FE004F0900F6FE0640170E8
:108D800004A3E064F46003028E7E900F6FF0A3F002
:108D90007F0112F1FEE4FF12F204300F05C20F1240
:108DA000C6BB750F03028E7E900F70E004F0700654
:108DB000900F6FE004F0900CF5E0FF25E02460F5E3
:108DC00082E4340EF583E0FCA3E0C3EC648094807D
