:40000000021415008F828E83E0540100000070F82278FFE4F6D8FD02147A900000EFF0E4F53FF540F541F54275430AC200121F87EF60057F00121FB7122067D2AF9044F4FC
:4000400074FDF0E4F53B754900754A00754B37900000E0FF70067EFF7FFF80008F4C7B017A0079017D2C7C011212FA8F3E900000E060021543E5436004E53E70C9E53E6046
:400080000302059FC3E5389407E53794004008900001E064016005753B04807E900004E0FE900003E0FDEEF53FEDF54074062540F5827400353FF583E0FE74052540F58228
:4000C0007400353FF583E0FDEEF53CEDF53DE5402407FFE4353FFED3EF9538EE95374005753B03803574072540F5827400353FF583E064176005753B04801F7B017A0079B1
:4001000001E5402404FDE4353FFC121C66EF653D7003EE653C6003753B08E4F539F53AE53B600302058E900005E0F536753B04900002E012088801553101823202083403A0
:400140007A3503883703D438020839040F3A05783B0000058B20000302058EE540453F600302058EFF120D84EF70047F0180027F00900005EFF0753900753A01E4F53B0260
:40018000058E20000302058EE5406401453F600302058EE536C39401400302058E900357E0FEA3E0F5828E83120842E4FBFA7901F81207188F24E536B5241E900357E0FE6B
:4001C000A3E0F5828E83120842E4FB7A01F9F81207187522008F238014E536D395244007E4F522F5238006752201752300E523900005F0E522A3F0A374FFF0E4A3F0F539B6
:40020000753A04F53B02058E900002E06434703C20000302058EE5406403453F600302058EE536C39440400FE536D3947F50087541007542108006754101754220AE41AF47
:40024000427D007B017A01792D1208FF20000302058EC3E5409403E53F9400500302058EE54024FDFFE53F34FFFE742D2542F974013541A801FC7D017B017A0079081209F7
:40028000E7E54024FDFFE53F34FFFEEF2542F542EE3541F541E536C394404012E536D3947F500B121DA8753F007540108006753F01754020E54265407004E541653F600369
:4002C00002036F900007E0FE900006E0FDEEF541EDF542E536D3943F506FE5367F00FEEF2542FFE5413E900259F0A3EFF0900357E0FEA3E0F5828E83120842E4FB7A01F9AA
:40030000F812071890025BEEF0A3EFF0900357E0FEA3E0F5828E83120842EFE4EF600A90025BE475F0011205DA90025BE0FEA3E0FFC390025AE09F900259E09E500B753BD5
:400340000AE4F541F54202058E7B017A01792D900263E53FF0A3E540F0AD42AC41AF36120F0BEF60047F0A80027F008F3B8003753B03E4F541F54202058E20000302058EC7
:40038000E4F541F54202059F20000302058EE5422540FFE541353FFED3EF942CEE9401502DE4F53BAE3FAF40742D2542F974013541A801FC7D017B017A0079051209E7E58F
:4003C000402542F542E53F3541F54102058E753B0302058EE540453F600302058E78257C00FD7BFF7A25791FFE7F081209E7D200753900753A08AE39AF3A78057C007D0105
:400400007B007A0079251209E7E4F53B02058E20000302058EE5406403453F600302058E900007E0FE900006E0FDEEF52FEDF530E536C394404038E536D3947F5031AE2F29
:40044000AF307C007D101208D28F348E338D328C318F4B8E4A8D498C48E4754F10F54EF54DF54CFF7E80FDFC12192C8F358050AE2FAF307C017D001208D2C004C005C006FC
:40048000C007AF36E4FCFDFEFBFA7901F812068DD003D002D001D0001206728F348E338D328C318F4B8E4A8D498C48E4F54F754E01F54DF54CFFFE7D10FC12192C8F35E588
:4004C00036D3943F5072AF367E007C207D001208D2E42FFFE43EFEED3408FDE43CFCC004A905AA06AB07AE2FAF307C007D201208D2D0001206728F348E338D328C31E4F5BA
:400500002DF52EC3E52E9420E52D9400502AE4E52E2534FFE52D3533FEE43532FDE43531A907AA06AB05121CF3EF2535F535052EE52E7002052D80CBE536702AAE2FAF301E
:40054000FCFD7BFFFAF9F8C31207C57019FD7F05120A3DC3E5359FF535E4FD7F06120A3DC3E5359FF535E535F404900005F0E4F53BF539753A018016E4FF120D84EF700604
:400580009046FA7480F01220718003753B057B017A007901853948853A49AF3B1215ED900000E0700302004330000302004322BB010689828A83E0225002E722BBFE02E399
:4005C0002289828A83E49322BB010689828A83F0225002F722BBFE01F322C5F0F8A3E028F0C5F0F8E582158270021583E038F022BB010A89828A83E0F5F0A3E022500687B6
:40060000F009E71922BBFE07E3F5F009E3192289828A83E493F5F074019322BB010789828A830205DA500B09C5F027F7C5F01937F722BBFE0D09F8E325F0F3C5F019E338A6
:40064000F322F889828A8374019325F0C5F0F8E4933822BB010A89828A83F0E5F0A3F0225006F709A7F01922BBFE06F3E5F009F31922EF2BFFEE3AFEED39FDEC38FC22C315
:40068000EF9BFFEE9AFEED99FDEC98FC22E88FF0A4CC8BF0A42CFCE98EF0A42CFC8AF0EDA42CFCEA8EF0A4CDA8F08BF0A42DCC3825F0FDE98FF0A42CCD35F0FCEB8EF0A47C
:4006C000FEA9F0EB8FF0A4CFC5F02ECD39FEE43CFCEAA42DCE35F0FDE43CFC2275F008758200EF2FFFEE33FECD33CDCC33CCC58233C5829BED9AEC99E58298400CF582EE4A
:400700009BFEED9AFDEC99FC0FD5F0D6E4CEFBE4CDFAE4CCF9A88222B800C1B90059BA002DEC8BF084CFCECDFCE5F0CBF97818EF2FFFEE33FEED33FDEC33FCEB33FB10D7C4
:4007400003994004EB99FB0FD8E5E4F9FA227818EF2FFFEE33FEED33FDEC33FCC933C910D7059BE99A4007EC9BFCE99AF90FD8E0E4C9FAE4CCFB2275F010EF2FFFEE33FE50
:40078000ED33FDCC33CCC833C810D7079BEC9AE899400AED9BFDEC9AFCE899F80FD5F0DAE4CDFBE4CCFAE4C8F922EF4BFFEE4AFEED49FDEC48FC22C3E49FFFE49EFEE49D2F
:4007C000FDE49CFC22EB9FF5F0EA9E42F0E99D42F0E89C45F022E8600FECC313FCED13FDEE13FEEF13FFD8F122E8600FEFC333FFEE33FEED33FDEC33FCD8F122BB010789DC
:40080000828A830208365005E9F8020A0DBBFE05E9F8020A1989828A83020842BB010789828A8302085E5005E9F8020A25BBFE05E9F8020A3122E0FCA3E0FDA3E0FEA3E06A
:40084000FF22E493FC740193FD740293FE740393FF22E0F8A3E0F9A3E0FAA3E0FB22ECF0A3EDF0A3EEF0A3EFF022E0FBA3E0FAA3E0F922EBF0A3EAF0A3E9F022E493FB74E9
:400880000193FA740293F922D083D082F8E4937012740193700DA3A393F8740193F5828883E4737402936860EFA3A3A380DFE5092582F582E5083583F583B50804858209B7
:4008C0002210AF06858209F50822858209F508D2AF22EC8EF0A4CCC5F0CCCDF8EFA4CEC5F02DFDE43CFCE8A42EC8C5F03DFDE43CFCEFA4FFE5F028FEE43DFDE43CFC22EF51
:400900004E6012EF60010EEDBB010B89828A83F0A3DFFCDEFA2289F05007F709DFFCA9F022BBFEFCF309DFFCA9F022E709F608DFFA8046E709F208DFFA803E88828C83E7AA
:4009400009F0A3DFFA8032E309F608DFFA806EE309F208DFFA806688828C83E309F0A3DFFA805A89828A83E0A3F608DFFA804E89828A83E0A3F208DFFA804280D280FA80F3
:40098000C680D4805580F28029801080A680EA809A80A880DA80E280CA802988848C8589828A83E493A30586F0A30586DFF5DEF3800B89828A83E493A3F608DFF9ECFAA95D
:4009C000F0EDFB2288848C8589828A83E0A30586F0A30586DFF6DEF480E389828A83E493A3F208DFF980D688F0EF60010E4E60CD88F0ED2402B4040050C3F582EB2402B455
:400A0000040050B9232345822390097B73E6FC08E6FD08E6FE08E6FF22E2FC08E2FD08E2FE08E2FF22ECF608EDF608EEF608EFF622ECF208EDF208EEF208EFF22290025D03
:400A4000EDF0AB079002627402F0E4FFFEFDFCA312085EEB1208880A79010AA6020ACB030AF0040B15050B40060B8F070B6B080BB3090BD70A00000C0190025DE0FF7E005E
:400A80007C017D001208D21207B7EF24C0FFEE34FFFEED3410FDE43CFCA312085E9002627401F0020C0C90025DE0FF7E007C017D001208D2C374C39FFF74FF9EFE74109DBD
:400AC000FDE49CFCA312085E020C0C90025DE0FF7E007C017D001208D2C374C79FFF74FF9EFE74109DFDE49CFCA312085E020C0C90025DE0FF7E007C017D001208D2C37433
:400B0000CB9FFF74FF9EFE74109DFDE49CFCA312085E020C0C90025DE0FF7E007C017D001208D2C374D09FFF74FF9EFE74109DFDE49CFCA312085E9002627401F0020C0C60
:400B400090025DE0FF7E007C017D001208D2C374D19FFF74FF9EFE74109DFDE49CFCA312085E9002627401F0020C0C90025DE0FF7E007C017D001208D2C374D69FFF74FF16
:400B80009EFE74109DFDE49CFCA312085E807D90025DE0FF7E007C017D001208D2C374D29FFF74FF9EFE74109DFDE49CFCA312085E805990025DE0FF7E007C017D00120811
:400BC000D2C374D49FFF74FF9EFE74109DFDE49CFCA312085E803590025DE0FF7E007C017D001208D2C374D89FFF74FF9EFE74109DFDE49CFCA312085E9002627404F08082
:400C00000BE4FFFEFDFC90025E12085E900262E0B4011990025E120836A907AA06AB05121CF3E4FCFDFE90026312085E900262E06402705C90025E120836EF2401FFE43E91
:400C4000FEE43DFDE43CA907AA06AB05121CF3E4FCFDFE90026312085E900263120852C000C001C002C00390025E120836A907AA06AB05121CF3E4FCFDFE78081207E9D0BA
:400C800003D002D001D0001207AA90026312085E900262E064046003020D7D90025E120836EF2403FFE43EFEE43DFDE43CA907AA06AB05121CF3E4FCFDFE90026312085E37
:400CC000900263120852C000C001C002C00390025E120836EF2402FFE43EFEE43DFDE43CA907AA06AB05121CF3E4FCFDFE78081207E9D003D002D001D0001207AA9002634F
:400D000012085E900263120852C000C001C002C00390025E120836EF2401FFE43EFEE43DFDE43CA907AA06AB05121CF3E4FCFDFE78101207E9D003D002D001D0001207AA84
:400D400090026312085E900263120852C000C001C002C00390025E120836A907AA06AB05121CF3E4FCFDFE78181207E9D003D002D001D0001207AA90026312085E90026356
:400D8000120836228F44AD447F03120A3DEF2401FFE43EFEE43DFDE43CFCE4FB7A01F9F812068DC004C005C006C007AD447F04120A3DD003D002D001D0001206728F4C8EA9
:400DC0004B8D4A8C49C201E4F54DAD447F03120A3DEF2401FFE43EFEE43DFDE43CFCE4FB7A01F9F812068D8F488E478D468C45AF4CAE4BAD4AAC49AB48AA47A946A845C337
:400E00001207C55032854882854783E493F54E6005F46002D201E54E254DF54DAF48AE47AD46AC45E47B01FAF9F81206728F488E478D468C4580B8AD447F03120A3DEF2479
:400E400001FFE43EFEE43DFDE43CFCE4FB7A01F9F812068D78031207D68F488E478D468C45E47FC07EFFFDFCAB4CAA4BA94AA849C31207C57007FF7E20FDFC800DAF4CAE21
:400E80004BAD4AAC4978031207D68F4C8E4B8D4A8C49AF4CAE4BAD4AAC49AB48AA47A946A845C31207C55039E42548FFE43547FEE5463408FDE43545A907AA06AB05121CB9
:400EC000F3EF254DF54DAF48AE47AD46AC45E47B01FAF9F81206728F488E478D468C4580B1E54DF404F54DAD447F01120A3DA804A905AA06AB07AF4DE4FCFDFEC31207C5CC
:400F000070032001037F06227F002290025EECF0A3EDF0A312087390025DEFF0E4900265F0EFD3943F500E90025DE0940140069002657401F090025DE0FFD3947F4006903A
:400F400002657401F0EFC39440400CEFD3944140069002657401F0EFD3943F501E90025EE0FEA3E0FFE4FCFDFB7A01F9F8C31207C5502F9002657401F08027D390025FE03C
:400F8000948090025EE0940040069002657401F0900263E07004A3E0641060069002657401F090026012086AE94A4B700590026504F0900265E0600302108A121EFEEF606E
:400FC0000302108490025EE0FCA3E0FDA312086A900263E0FFA3E090026CCFF0A3EFF090025DE0FF1211DE900265EFF06407600302107F904722E0540270087F01FE121EF6
:401000006480F0904722E054026009E0FF1313543FFF80027FFFEF7006900265F0800690026574FFF0900265E0705490025DE0FFA3E0FCA3E0FD900353E0FBA3E090026AD9
:40104000F0121A90900265EFF064077032904722E0540270087F01FE121E6480F0904722E054026009E0FF1313543FFF80027FFFEF7006900265F0800690026574FFF0124B
:40108000205180069002657404F0900265E0FF227B007A4679E8121CF3EF4401FD7B007A4679E8122045E4F52CE52CC3940A502CE52C75F005A42461F582E43424AF82F571
:4010C000218F22F58312087C8F82852183740393FC740493FD121F6E052C80CDE4F52CE52CC394015046E52C75F007A42413F582E43425AF82F5238F24F58312087C8B25E1
:401100008A2689278F82852383740393FE7404938E28F529740593F52A740693F52BAD29AC28FFAE2A121EB8052C80B37E207F92121DD97B017A507903121CF3EF4402FD3B
:401140007B017A5079031220457B017A507913121CF3EF4402FD7B017A5079131220459043A0E04440F09043C2E04410F07C207D827B007A5179127F087E00121EB87C2053
:401180007D8A7B007A5179227F087E00121EB89044F47401F0904322E04408F09046ECE0C394055006904689743AF090480074F1F012150690480074B1F0121F1D7B007A41
:4011C0004379A0C00179B0900005120873D0017F0E7E00121D749043B0E054FDF022900266EFF0A3ECF0A3EDF0A312087390026E7407F0904722E0540270030212EE904756
:401200002074B6F074D5F07402F0904722E0540260030212E6900266E0904720F0E490026FF0A3F090026CE0FEA3E0FF90026FE0FCA3E0FDC39FEC9E501F90026912086A8D
:40124000E92DF9EA3CFA1205AF904720F090026FE475F0011205DA80CB90026CE064017002A3E060030212F4900266E0FFD3943F40030212F47E007C207D001208D2E42F0A
:40128000FFE43EFEED3408FDE43CFCC004A905AA06AB07A3E0FEA3E0FF7C007D201208D2D00012067290027112085EE490026FF0A3F090026FE0FEA3E0FFC39420EE94005A
:4012C0005032E4FCFDA3120852120672A907AA06AB05121CF3904720EFF090026FE475F0011205DA80CC90026E7409F0800690026E7404F090026EE0FF228B448A4589469E
:401300008C478D48755505E4F54DF54EE54C75F00AA4FFC3E54E9FE54D95F0503B121B34EF6022121B347553008F54E47F19FEFDFC1218C7121B34D3EF9554E4955350E366
:40134000E4F5558013E47F01FEFDFC1218C7054EE54E7002054D80B4AB49AA4AA94BE4F5F0120653E4F54FF550121B34EFD394005003021412121B347551008F52AB49AA8D
:401380004AA94BE5518552F012061BAB49AA4AA94B1205F0C39548E5F09547505FE4F54DF54EC3E54E9552E54D95515025121C1CAB44E5462550F9E545354FFAEF1205C8C1
:4013C0000550E5507002054F054EE54E7002054D80D0AB44E55024FFFFE54F34FFFEE5462FF9E5453EFA1205AF64177003021369E47F05FEFDFC1218C7021369AB49AA4ABB
:40140000A94B1205F0C39552FFE5F095518FF0120653AF552275930078007583467582E8E04401F0009046ECE0F99046FAE0FA90034BF0B903225420B40012B8001AEA9014
:401440001FFFF07401901FFEF09046F6F0901FFEE06005901FFFE0FA90480074C0F0758156121EDE90000078007920E4F0A3D8FCD9FAEA90034BF002001175081F7509FD1F
:401480001210900214C1022079E493A3F8E493A34003F68001F208DFF48029E493A3F85407240CC8C333C4540F4420C8834004F456800146F6DFE4800B0102040810204063
:4014C00080901B83E47E019360BCA3FF543F30E509541FFEE493A360010ECF54C025E060A840B8E493A3FAE493A3F8E493A3C8C582C8CAC583CAF0A3C8C582C8CAC583CABE
:40150000DFE9DEE780BE7B007A4079807D337C001220279040827418F09043007402F09040007408F09042007403F07B0C7A017908121CF39046A1EFF07B007A4279227D68
:40154000087C001220277B007A4279207D517C12122027E4900004F07F19FEFDFC90000012085E900000120836D3EF9400EE9400403B900004E0FF64036032904225E05440
:4015800001FEEF25E04E5403900004F0E47FE07E01FDFC121D0090000012083674FFFBFAF9F812067290000012085E80B6900000120836EF4E70057F0312207F7B007A402A
:4015C00079047D007C011220279040047407F0904006E4F09040087448F0904004E4F09040017402F09043A2E04401F0228B458A46894774011205C8AB452547F9E43546AB
:40160000FAEF1205C8E549AB45E5472402F9E43546FAE5491205C8E548FFAB45E5472403F9E43546FAEF1205C8AB45AA46A947E5492404FDE43548FC121C668E4A8F4BEFCF
:40164000AB45E5492404FDE43548FCE5472DF9E5463CFAEF1205C8E54AFFAB45E5492405FDE43548FCE5472DF9E5463CFAEF1205C8AB45E5492406FFE43548FEE5472FF9FF
:40168000E5463EFA74171205C8E5492407FDE43548FC755100755200755348755496AB45AA46A947121BD122C0E0C083C082C085C084C086758600C093759300C0D075D09F
:4016C00000C001C002C003C006C007E4FBA2AF33FAD2AF9044F474FDF090646CE0FFFE541EF960069002FDE049F0EF30E54590644AE0FE9002F9E02478F582E43402F583E5
:40170000EEF07B01EB602C900276E060069002FC7401F09002F9E004F0E0C394404002E4F0900277E0FE9002F9E0B506069002767401F0EF20E5A2AF02EA24FF92AFD007BF
:40174000D006D003D002D001D0D0D093D086D084D085D082D083D0E032752106E4FF120D84EF7002F521E4F54BF54AF549F548900357E0FEA3E0F5828E831208428F4F8E82
:401780004E8D4D8C4CE4FFFE7D10FC12192C900355E0FCA3E0F5828C83E493FEC3EF9EFFF404FFB50612900357E0FEA3E0F5828E83120842EF4E70057F00121FB79046FAFB
:4017C000E054C064406004E52160099046FAE4F0FF12001A12205D22C0E0C083C082C085C084C086758600C093759300C0D075D000C006C007A2AFE433FFD2AF9044F4742E
:40180000FDF09002FAE0FE9002B8E06E602C90646EE020E2259002B8E0C394404002E4F09002B8E024B9F582E43402F583E090644DF09002B8E004F080C8EF24FF92AFD043
:4018400007D006D0D0D093D086D084D085D082D083D0E032A9079002FAE0FF9002B8E0FEEFC39E501AEE24FFFDE434FFFCEF7A00B50508EAB504047D0180027D00800CC346
:40188000EF9EB43F047D0180027D00ED70C8EEB5070D90646EE020E20690644DE9F022EFC394404002E4FF74B92FF582E43402F583E9F00F9002FAEFF090646EE030E10609
:4018C0009044D07402F02290FFFC1208AE12085E850883850982120836D3EF9400EE9480402E90034C120836121D00850883850982C083C082120836E42FFFEE3480FEEDC9
:4019000034FFFDEC34FFFCD082D08312085E80C090034212083685088385098212085212068D121D009000041208AE228F478E468D458C44E4F550D3E54F9400E54E940025
:40194000404BAF4FAE4EAD4DAC4C74FFFBFAF9F81206728F4F8E4E8D4D8C4CE547254BFFE546354AFEE5453549FDE5443548FCEF254FFFEE354EFEED354DFDEC354CA907BD
:40198000AA06AB051205AF2550F55080AAAF5022121FE190025E74FFF0121EFEEF703B7F01121E35EF6407702C7B017A0379537D021219E6EFB40215E490025EF090472228
:4019C000E0540270107F01FE121E6480F0904722E0540260D4122051800690025E7404F090025EE0FF2290025F120873900262EDF0E4A3F0900262E0FFA3E0C39F50379065
:401A00004722E054016003D38001C340097F017E00121E6480E9904720E0FF90025F12086A900263E029F9E43AFAEF1205C8900263E004F080BE900263E0FF2290025EEC49
:401A4000F0A3EDF090025DEFF0541F25E0FFE433FEE42FFFEE3444FAA9077B0112201A900260EEF0A3EFF090025DE075F002A42400FFE5F03444FAA9077B01A3E0FEA3E0EC
:401A8000FFFDAC06122029900260E0FEA3E0FF22900267ECF0A3EDF0AC077D07904722E05402603B90472074B6F074D8F07405F0904722E054027023904720ECF09002670F
:401AC000E0904720F0900267E0A3E0904720F0EBF090026AE0904720F080067D0980027D04AF0522121FE1121EFEEF703B121F3A90025EEFF06407702A904722E0540270A1
:401B0000087F01FE121E6480F0904722E054026009E0FF1313543FFF80027FFFEF700490025EF0122051800690025E7404F090025EE0FF229044C87401F09002F9E0FE905D
:401B40000277E0B5060E900276E060047F40802CE4FF80289002F9E0FE900277E0C39E500BE0FE9002F9E0C39EFF8010900277E0FEC374409EFE9002F9E02EFF9044C07420
:401B800001F022420355251A420357251B430350000000440347016E360044034200005DC04103461844034C2EE000004102FB004102B8004102FA004102FD00410277003B
:401BC0004102F900410276004102FC0041035B00008B4C8A4D894E8C4F8D50E4F555F556121E07C3E5569550E555954F501DAB4CE54E2556F9E54D3555FA1205AFFF121874
:401C0000540556E5567002055580D8AB51AA52A953E54F8550F01206537F00229044C87401F0900277E0FE9002F9E0FD900276E07004EE6D602474782EF582E43402F583EF
:401C4000E0FF0EEEC394404002E4FE900277EEF0900276E06009E4F0800590644AE0FF9044C07401F0228B4C8A4D894EE4F54FF550D3ED9400EC94004025AB4CED24FFFFD4
:401C8000EC34FFFEE54E2FF9E54D3EFA1205AF2550F550E4354FF54FED1D70011C80D2E550F4FFE54FF4FEEF2401FFE43EFE227C167DA8E4FF121A3C7D07E4FF121F55E4B7
:401CC0009002FDF090648A7469F090648C7420F07C177DD87F01121A3C7D077F01121F5590642E7406F090643E7447F090648E7402F0228B938A838982E0759300FF22000A
:401D0000EC4D4E700D78FCEF24E950032840FD2200007BF178DA0000EF28FF78FFEE38FEED38FDEC38FC50E7EF2BFFEE38FEED38FDEC38FC40F22205020304121FCC9002FD
:401D40005DEFF090649AE04420F090649CE04410F09044C07401F090649EE04410F09044D87402F09044C0F012203690025DE0FF121F9F22758600EF4E6027EF60010E75B2
:401D80009300900005E0F595A3E0F585A3E0F5848B938A838982E0A30586F0A31586DFF6DEF4E4F593F59522121FCC9043A0E04408F09043B0E04408F090470174C8F090A8
:401DC00043ACE04410F09043BCE04410F0904700E0542060F8121F9F22ACEAADA08E838F82E493F9601CA3E493F5EAA3E493F5A0A3E49360F1FAA3E493F8A3E493F2DAF6BC
:401E0000D9E48DA08CEA22121FCC90649AE04401F0E054FEF0121F9F9044C87401F0E4900277F09002F9F0900276F09002FCF09044C004F0227E07904722E05402601F9052
:401E4000472074B6F074E1F0740EF0904722E054027007904720EFF080067E0980027E04AF062200EEFA900346E0F88FF0A4FFAEF0E88AF0A42EFEE5F03400FDEF24C9FF5A
:401E800078FFEE38FEED38FDE438FC5003021D0022121FCC90649DE04401F0E054FEF0121F9F9044C87402F0E49002B8F09002FAF09044C07402F022758600EF4E601BEFCA
:401EC00060010E8C838D828B958A858984E493A30586F0A31586DFF5DEF3E4F595229046FAE054C064807015F0FD7F02120A3DEF4E600AE4FD7F02120A3D122009229002CC
:401F0000667404F0121FCC90035BE0700704F0E4900266F0121F9F900266E0FF227B0C7A0179CF121CF3EF540790586EF0EFC4540FA3F09058767444F0227F07904722E0DD
:401F40005402600E90472074B6F074E0F0740DF080027F0422AC07ED540775F020A4FFEC541F2480F582E43444F583EFF022EC4D6011ED60010C8B938A838982E4F0A3DDB0
:401F8000FCDCFA75930022121AE490025DEFF0700812199090025DEFF090025DE0FF22EF54016004D2AF8002C2AFEF5402FF9044F4E054FD4FF02290FFFF1208AEEFF090D7
:401FC00046EA7401F09000011208AE229044F4E0F84402F0E85402FF10AF012274014FFF22121FCC9043A0E04408F09043B0E04408F0121F9F229002FBE07009121CAF9087
:4020000002FB7401F0121D3B2290034BE0FA8E838F827400758101738B938A838982E0FFA3E0FE759300228B938A838982EDF0A3ECF0759300229043A2E04401F09043B26F
:40204000E04401F0228B938A838982EDF075930022121FCCE490035BF0121F9F229046FA7480F012207122121FF6121E07121E91229046F6E04401F02212175980FE2280DC
:40208000FE22007F7B007B00000030D8C800D800000016005205082309121098118814200064047E3F8A698C3A8E0F010101E204010301E6020105028702E008010604B82E
:4020C00002BE01D804DF010107021B02A702010A088501890195019901B101BF01D904DF01010B4F00400106038808010A040B111028130219641A041B0A202021082230E9
:40210000274028282A022B022E033080310232103304340836203708382239803A083C283E084028410843824A024B0152045B4068286A016B027090712072108D408E104D
:402140008F809042910493109621980199029B0C9D649E049F80A004A102A202A490A520A702AB01B021B405B602B744C00FC20FC40ECA0FCC6FCE6FD00FD208D608E0083A
:40218000E801010C4C0001021608E70A180E3F101E120114C6163918481C88208824DD262228232ADC2CC8301F320834E03A22541A560458045B045F018008824284F88698
:4021C000018704880F89028AF08D068EC792849308943996C698109C20A020A101A43FA6C0A906AA08AC30B031B106B308B501B6FFB702B982BE40BF11C062C101C5E0C6DA
:40220000CBC80EC9FFCAFFCBFFCEF0CF44D00CD804D904DA04DF01E6C0EA40EB02010D46002901100210030B04010709080209260A310D220E11108012481388151016502C
:402240001780180219021C081D021E201F20200421012208230128402920320238C839A43A083B10414042084921502053405E205F026540674887409088912093089502C2
:40228000978098409B4A9C029D259E049F04A420A504A72AB001B301C0DFC2FFC4FFCA05CC01CE0ED00CD204D6A0D8B0010E4E040906D007230B080C0C0D210E710F0E1048
:4022C00014141016AC170C18DC1A221B201E0321102410264029212A202B062D0C2F2330E03310350F361F37203A023B203F444004464049FF4A074BFF4C404D204EF04F8A
:4023000005500854015604580459045A045B045F01604061A862406320871F89198B0691019304950997029A01A506A719A919AA01AB06AF0FB201B310B507B708B908BB65
:4023400020BE04D804D904DB04DF01010F3C004404040504084809200A010B800E0810081210160418C01A011F042130224425102604270A280829212A802F2A303031047A
:402380003402370438883A103D284101500C5210581059015A886380680169046A206B406F0171407304821083408550868089048B04C005C24FC446CA7DCCC6CE6ED00101
:4023C000D60FD801E40C014005322035808180CC30E2200141038620A620E6400144058301870188C0E004E40401450F0C0857025B046401660193029889A040A301B009C2
:40240000C204D607D801E801EC0401460D8702900893029888A040A301A702AB04B40CB601E808EC02EE08014705900893029888A040A301014C0E5004544057015808607D
:40244000806702900893029888A040A301D406D607D80201500300010C010E01015101000F005100001000513000400051C000100051F000100100000A00010A800580018E
:40248000140008000140000A00014C000200015000002000008080207D050000040800130C0400030204200A031410130C0C7300088000400800004043003C404F003000DE
:4024C0000000734000303F0FC0800008002028000040003402010005C0000E12FFFFFF62A0F0410C00000000000210040404040000000100000000000040020010301000CE
:4025000010101200000000000000000000000000000000010A002493008061000026006930091E031E010100000000000000000000000000000000000000000000000000BD
:40254000000000000000000000000000000000000000000000000000000000000000000000000000000000000000000000000000000000000000000000000000000000005B
:40258000000000000000000000000000000000000000000000000000000000000000000000000000000000000000000000000000000000000000000000000000000000001B
:4025C00000000000000000000000000000000000000000000000000000000000000000000000000000000000000000000000000000000000000000000000000000000000DB
:4026000002B676008F828E83E0540100000070F82278FFE4F6D8FD02B704900002EEF0A3EFF078047C007D017BFF7A6079867E067FD71286929006DB7406F0A374D7F078B8
:40264000E17C067D017BFF7A67795D7E007F0F12869278F07C067D017BFF7A67796C7E007F1C128692780C7C077D017BFF7A6779887E007F1B12869278277C077D017BFFEA
:402680007A6779A37E007F1C12869278437C077D017BFF7A6779BF7E007F2212869278657C077D017BFF7A6779E17E007F27128692788C7C077D017BFF7A6879087E007F82
:4026C00011128692789D7C077D017BFF7A6879197E007F1912869278B67C077D017BFF7A6879327E007F1112869278C77C077D017BFF7A6879437E007F1C12869278E37C7B
:40270000077D017BFF7A68795F7E007F1D12869278007C087D017BFF7A68797C7E007F1B128692781B7C087D017BFF7A6879977E007F14128692782F7C087D017BFF7A684E
:4027400079AB7E007F2512869278547C087D017BFF7A6879D07E007F1512869278697C087D017BFF7A6879E57E007F15128692787E7C087D017BFF7A6879FA7E007F141277
:40278000869278927C087D017BFF7A69790E7E007F2412869278B67C087D017BFF7A6979327E007F1912869278CF7C087D017BFF7A69794B7E007F1812869278E77C087D45
:4027C000017BFF7A6979637E007F1412869278FB7C087D017BFF7A6979777E007F24128692781F7C097D017BFF7A69799B7E007F2312869278427C097D017BFF7A6979BEB1
:402800007E007F1112869278537C097D017BFF7A6979CF7E007F1512869278687C097D017BFF7A6979E47E007F6312869278CB7C097D017BFF7A6A79477E007F5C128692A3
:4028400078277C0A7D017BFF7A6A79A37E007F2A1286927B017A0679E112D8CD8F2C7B017A0679F012D8CD8F2D7B017A07790C12D8CD8F2E7B017A07798C12D8CD8F2F7B62
:40288000017A07799D12D8CD8F307B017A0779B612D8CD8F317B017A0779E312D8CD8F327B017A08790012D8CD8F337B017A08791B12D8CD8F347B017A08795412D8CD8F89
:4028C000357B017A08796912D8CD8F367B017A08797E12D8CD8F377B017A0879B612D8CD8F387B017A09795312D8CD8F397B017A09796812D8CD8F3A7B017A0979CB12D853
:40290000CD8F3B7B017A0A792712D8CD8F3C7B017A0879E712D8CD8F3D7B017A0879FB12D8CD8F3E7B017A09791F12D8CD8F3F7B017A09794212D8CD8F40900004740CF0A7
:40294000A37419F0900002E0FEA3E0FFEE6003023DAFEFB41A004003023DAF902962F82828730229B002383D0238460239160239E60239F9023A02023A0B023A36023AB4E3
:40298000023AF1023AFA023BD0023C56023C66023C6F023C8E023CB7023CC0023CD4023CDD023CE6023D18023D2D023D60023D759000067402F0A314F0900A5BE09000088C
:4029C000F0852C2AE52A6032FFC3E52C9FFFE49400FE74E12FF58274063EF583E0FFE52AFDE52CC39DFDE49400FC74092DF58274003CF583EFF0152A80CA9000387407F0A8
:402A0000A37403F0900A8EE064036068900A5CE0FCA3E0FDA3E0FEA3E0FFEC128066E4FBFA79807847127F5090003A128533900A60E0FCA3E0FDA3E0FEA3E0FFEC128066D9
:402A4000E4FBFA79807847127F5090003E128533900A64E0FCA3E0FDA3E0FEA3E0FFEC128066E4FBFA79807847127F509000421285338066900A74E0FCA3E0FDA3E0FEA389
:402A8000E0FFEC128066E4FBFA79807847127F5090003A128533900A78E0FCA3E0FDA3E0FEA3E0FFEC128066E4FBFA79807847127F5090003E128533900A7CE0FCA3E0FD7C
:402AC000A3E0FEA3E0FFEC128066E4FBFA79807847127F50900042128533852D2AE52A6032FFC3E52D9FFFE49400FE74F02FF58274063EF583E0FFE52AFDE52DC39DFDE404
:402B00009400FC74462DF58274003CF583EFF0152A80CA90006A7407F0A37403F0900A8EE064036068900A68E0FCA3E0FDA3E0FEA3E0FFEC128066E4FBFA79807847127F0A
:402B40005090006C128533900A6CE0FCA3E0FDA3E0FEA3E0FFEC128066E4FBFA79807847127F50900070128533900A70E0FCA3E0FDA3E0FEA3E0FFEC128066E4FBFA79809B
:402B80007847127F509000741285338066900A80E0FCA3E0FDA3E0FEA3E0FFEC128066E4FBFA79807847127F5090006C128533900A84E0FCA3E0FDA3E0FEA3E0FFEC128031
:402BC00066E4FBFA79807847127F50900070128533900A88E0FCA3E0FDA3E0FEA3E0FFEC128066E4FBFA79807847127F50900074128533852E2AE52A6032FFC3E52E9FFF9D
:402C0000E49400FE740C2FF58274073EF583E0FFE52AFDE52EC39DFDE49400FC74782DF58274003CF583EFF0152A80CAE490009CF0A304F0900A8CE090009EF0900A8C6097
:402C40001C900A5474FFF0A37454F0A37490F07B017A07792712CBB0752B1C801A900A5474FFF0A37454F0A37496F07B017A07792712CBB0752B1B852B2AE52A6032FFC30A
:402C8000E52B9FFFE49400FE74272FF58274073EF583E0FFE52AFDE52BC39DFDE49400FC749F2DF58274003CF583EFF0152A80CA749F252BF582E43400F5837403F0E49026
:402CC00000CEF0A304F0900A8DE09000D0F0900A8D14603314604C14606514607E147003022D7724056003022D91900A5474FFF0A37454F0A3749BF07B017A07794312CB72
:402D0000B0752B14022D91900A5474FFF0A37454F0A374A1F07B017A07794312CBB0752B17806E900A5474FFF0A37454F0A374AAF07B017A07794312CBB0752B218052906A
:402D40000A5474FFF0A37454F0A374BDF07B017A07794312CBB0752B1D8036900A5474FFF0A37454F0A374CCF07B017A07794312CBB0752B19801A900A5474FFF0A37454E6
:402D8000F0A374D7F07B017A07794312CBB0752B22852B2AE52A6032FFC3E52B9FFFE49400FE74432FF58274073EF583E0FFE52AFDE52BC39DFDE49400FC74D12DF5827425
:402DC000003CF583EFF0152A80CA74D1252BF582E43400F5837401F0E4900100F0A304F0900A8EE0900102F0900A8E14602C14604514605E14607724046003022E88900A14
:402E00005474FFF0A37454F0A374EBF07B017A07796512CBB0752B1B806E900A5474FFF0A37454F0A374F6F07B017A07796512CBB0752B168052900A5474FFF0A37454F038
:402E4000A374FCF07B017A07796512CBB0752B1A8036900A5474FFF0A37455F0A37406F07B017A07796512CBB0752B27801A900A5474FFF0A37455F0A3741DF07B017A0726
:402E8000796512CBB0752B24852B2AE52A6032FFC3E52B9FFFE49400FE74652FF58274073EF583E0FFE52AFDE52BC39DFDE49400FC74032DF58274013CF583EFF0152A8024
:402EC000CA7403252BF582E43401F5837402F0900132F0A304F0E4F52AE52AC39403501E748F252AF582E4340AF583E0FF7434252AF582E43401F583EFF0052A80DB852F51
:402F00002AE52A6032FFC3E52F9FFFE49400FE748C2FF58274073EF583E0FFE52AFDE52FC39DFDE49400FC74372DF58274013CF583EFF0152A80CA9001647403F0A3F0E482
:402F4000F52AE52AC394035044E52A25E025E02492F582E4340AF583E0FCA3E0FDA3E0FEA3E0FF748F252AF582E4340AF583E0F9F81284D275F002E52AA42466F582E5F06A
:402F80003401F583EEF0A3EFF0052A80B585302AE52A6032FFC3E5309FFFE49400FE749D2FF58274073EF583E0FFE52AFDE530C39DFDE49400FC746C2DF58274013CF583CF
:402FC000EFF0152A80CA9001967407F0A37403F0E4F52AE52AC394035031E52A25E025E0249EF582E4340AF583E0FCA3E0FDA3E0FEA3E0FF75F004E52AA42498F582E5F071
:403000003401F583128533052A80C885312AE52A6032FFC3E5319FFFE49400FE74B62FF58274073EF583E0FFE52AFDE531C39DFDE49400FC74A42DF58274013CF583EFF09E
:40304000152A80CAE49001C8F0A304F0900AAAE09001CAF0900AAA601C900A5474FFF0A37454F0A37490F07B017A0779C712CBB0752B1C801A900A5474FFF0A37454F0A322
:403080007496F07B017A0779C712CBB0752B1B852B2AE52A6032FFC3E52B9FFFE49400FE74C72FF58274073EF583E0FFE52AFDE52BC39DFDE49400FC74CB2DF58274013CBE
:4030C000F583EFF0152A80CA74CB252BF582E43401F5837403F09001FA7405F0A37402F0E4F52AE52AC39401400302316EE52A25E025E024ABF582E4340AF583E0FCA3E04F
:40310000FDA3E0FEA3E0FF748F252AF582E4340AF583E0F9F81284D275F008E52AA424FCF582E5F03401F583128533E52A25E025E024B3F582E4340AF583E0FCA3E0FDA3F0
:40314000E0FEA3E0FF748F252AF582E4340AF583E0F9F81284D275F008E52AA42400F582E5F03402F583128533052A0230E385322AE52A6032FFC3E5329FFFE49400FE7424
:40318000E32FF58274073EF583E0FFE52AFDE532C39DFDE49400FC74042DF58274023CF583EFF0152A80CA90022C7405F0A37402F0900ABFE0FCA3E0FDA3E0FEA3E0FF905C
:4031C000022E128533900ABBE0FCA3E0FDA3E0FEA3E0FF90023212853385332AE52A6032FFC3E5339FFFE49400FE74002FF58274083EF583E0FFE52AFDE533C39DFDE494FE
:4032000000FC74362DF58274023CF583EFF0152A80CA90025E7403F0A37401F0900AC3E0FFA3E0900260CFF0A3EFF085342AE52A6032FFC3E5349FFFE49400FE741B2FF53B
:403240008274083EF583E0FFE52AFDE534C39DFDE49400FC74622DF58274023CF583EFF0152A80CAE4900290F0A304F0900AC9E0900292F0900AC9601C900A5474FFF0A302
:403280007454F0A37490F07B017A08792F12CBB0752B25801A900A5474FFF0A37454F0A37496F07B017A08792F12CBB0752B24852B2AE52A6032FFC3E52B9FFFE49400FE8C
:4032C000742F2FF58274083EF583E0FFE52AFDE52BC39DFDE49400FC74932DF58274023CF583EFF0152A80CA7493252BF582E43402F5837403F09002C204F0A37402F090A2
:403300000AC5E0FFA3E09002C4CFF0A3EFF0900AC7E0FFA3E09002C6CFF0A3EFF085352AE52A6032FFC3E5359FFFE49400FE74542FF58274083EF583E0FFE52AFDE535C38C
:403340009DFDE49400FC74C82DF58274023CF583EFF0152A80CA9002F47406F0A37402F0900ACAE0FCA3E0FDA3E0FEA3E0FF9002F6128533900ACEE0FCA3E0FDA3E0FEA3D7
:40338000E0FF9002FA12853385362AE52A6032FFC3E5369FFFE49400FE74692FF58274083EF583E0FFE52AFDE536C39DFDE49400FC74FE2DF58274023CF583EFF0152A80F7
:4033C000CA9003267402F0A314F0900AD2E0900328F085372AE52A6032FFC3E5379FFFE49400FE747E2FF58274083EF583E0FFE52AFDE537C39DFDE49400FC74292DF582EA
:4034000074033CF583EFF0152A80CAE4900358F0A304F0900AD3E090035AF0900AD3601C900A5474FFF0A37454F0A37490F07B017A08799212CBB0752B24801A900A5474F7
:40344000FFF0A37454F0A37496F07B017A08799212CBB0752B23852B2AE52A6032FFC3E52B9FFFE49400FE74922FF58274083EF583E0FFE52AFDE52BC39DFDE49400FC748D
:403480005B2DF58274033CF583EFF0152A80CA745B252BF582E43403F5837403F090038A7401F0A3F0900AD4E090038CF085382AE52A6032FFC3E5389FFFE49400FE74B6D3
:4034C0002FF58274083EF583E0FFE52AFDE538C39DFDE49400FC748D2DF58274033CF583EFF0152A80CAE49003BCF0A304F0900AD5E09003BEF0900AD5601C900A5474FF4D
:40350000F0A37454F0A37490F07B017A0879CF12CBB0752B18801A900A5474FFF0A37454F0A37496F07B017A0879CF12CBB0752B17852B2AE52A6032FFC3E52B9FFFE4944E
:4035400000FE74CF2FF58274083EF583E0FFE52AFDE52BC39DFDE49400FC74BF2DF58274033CF583EFF0152A80CA74BF252BF582E43403F5837403F09003EE7405F0A37407
:4035800001F0900AF0E0FCA3E0FDA3E0FEA3E0FF900A8FE0F9F81284D29003F0128533853D2AE52A6032FFC3E53D9FFFE49400FE74E72FF58274083EF583E0FFE52AFDE5FA
:4035C0003DC39DFDE49400FC74F42DF58274033CF583EFF0152A80CA9004207407F0A37401F0900AF4E0FCA3E0FDA3E0FEA3E0FF900422128533853E2AE52A6032FFC3E555
:403600003E9FFFE49400FE74FB2FF58274083EF583E0FFE52AFDE53EC39DFDE49400FC74262DF58274043CF583EFF0152A80CA9004527407F0A37401F0E4FFFE7D7A7C444F
:40364000900AF8E0F8A3E0F9A3E0FAA3E0FB127E47900454128533853F2AE52A6032FFC3E53F9FFFE49400FE741F2FF58274093EF583E0FFE52AFDE53FC39DFDE49400FC0B
:4036800074582DF58274043CF583EFF0152A80CA9004847407F0A37401F0900AFCE0FCA3E0FDA3E0FEA3E0FF90048612853385402AE52A6032FFC3E5409FFFE49400FE74A3
:4036C000422FF58274093EF583E0FFE52AFDE540C39DFDE49400FC748A2DF58274043CF583EFF0152A80CA9004B67407F0A314F0E4F52AE52AC394065031E52A25E025E033
:4037000024D6F582E4340AF583E0FCA3E0FDA3E0FEA3E0FF75F004E52AA424B8F582E5F03404F583128533052A80C885392AE52A6032FFC3E5399FFFE49400FE74532FF582
:403740008274093EF583E0FFE52AFDE539C39DFDE49400FC74D02DF58274043CF583EFF0152A80CA853A2AE52A6032FFC3E53A9FFFE49400FE74682FF58274093EF583E02A
:40378000FFE52AFDE53AC39DFDE49400FC74E82DF58274043CF583EFF0152A80CA853B2AE52A6032FFC3E53B9FFFE49400FE74CB2FF58274093EF583E0FFE52AFDE53BC313
:4037C0009DFDE49400FC747E2DF58274053CF583EFF0152A80CA853C2AE52A6032FFC3E53C9FFFE49400FE74272FF582740A3EF583E0FFE52AFDE53CC39DFDE49400FC7447
:40380000142DF58274063CF583EFF0152A80CA7B017A0079049006DBE0A3E014FD12D4779006DBE0FCA3E0FD2403F58274003CF583EFF07B017A00790412C11B22900C20D4
:40384000E0900B1AF022900A8EE064036064E4FFFE7D807C47900C20E0F8A3E0F9A3E0FAA3E0FB127E471280A4900B1B128533E4FFFE7D807C47900C24E0F8A3E0F9A3E0FD
:40388000FAA3E0FB127E471280A4900B1F128533E4FFFE7D807C47900C28E0F8A3E0F9A3E0FAA3E0FB127E471280A4900B2312853322E4FFFE7D807C47900C20E0F8A3E0DC
:4038C000F9A3E0FAA3E0FB127E471280A4900B33128533E4FFFE7D807C47900C24E0F8A3E0F9A3E0FAA3E0FB127E471280A4900B37128533E4FFFE7D807C47900C28E0F899
:40390000A3E0F9A3E0FAA3E0FB127E471280A4900B3B12853322900A8EE064036064E4FFFE7D807C47900C20E0F8A3E0F9A3E0FAA3E0FB127E471280A4900B27128533E4E5
:40394000FFFE7D807C47900C24E0F8A3E0F9A3E0FAA3E0FB127E471280A4900B2B128533E4FFFE7D807C47900C28E0F8A3E0F9A3E0FAA3E0FB127E471280A4900B2F1285BC
:403980003322E4FFFE7D807C47900C20E0F8A3E0F9A3E0FAA3E0FB127E471280A4900B3F128533E4FFFE7D807C47900C24E0F8A3E0F9A3E0FAA3E0FB127E471280A4900BFD
:4039C00043128533E4FFFE7D807C47900C28E0F8A3E0F9A3E0FAA3E0FB127E471280A4900B4712853322900C20E06007900B4B7403F022E4900B4BF022900C20E0900B4C5A
:403A0000F022900C20E0900B4DF022E4F52AE52AC394034003023DAF7420252AF582E4340CF583E0FF744E252AF582E4340BF583EFF0052A80D8E4F52AE52AC394035071B6
:403A4000E52A25E02420F582E4340CF583E0FEA3E0FFEE3395E0FDFCE52A25E025E02451F582E4340BF583128533E52A25E025E02451F582E4340BF583C083C082E0FCA3DE
:403A8000E0FDA3E0FEA3E0FF744E252AF582E4340BF583E0F9F81284E6D082D08312853374E4252AF582E4340CF583E4F0052A8088D20A22E4F52AE52AC394034003023D96
:403AC000AFE52A25E025E02420F582E4340CF583E0FCA3E0FDA3E0FEA3E0FFE52A25E025E0245DF582E4340BF583128533052A80C6900C20E0900B69F022E4F52AE52AC3D6
:403B000094024003023DAFE52A75F008A42420F582E4340CF583E0FCA3E0FDA3E0FEA3E0FFE52A25E025E0246AF582E4340BF583128533E52A75F008A42424F582E4340C62
:403B4000F583E0FCA3E0FDA3E0FEA3E0FFE52A25E025E02472F582E4340BF583128533E52A25E025E0246AF582E4340BF583C083C082E0FCA3E0FDA3E0FEA3E0FF744E255F
:403B80002AF582E4340BF583E0F9F81284E6D082D083128533E52A25E025E02472F582E4340BF583C083C082E0FCA3E0FDA3E0FEA3E0FF744E252AF582E4340BF583E0F96C
:403BC000F81284E6D082D083128533052A023AFD900C20E0FCA3E0FDA3E0FEA3E0FF9006DD128533E4FFFEFDFC9006DDE0F8A3E0F9A3E0FAA3E0FBD312849850149006DDAE
:403C0000E0FCA3E0FDA3E0FEA3E0FF900B7E128533900C24E0FCA3E0FDA3E0FEA3E0FF9006DD128533E4FFFEFDFC9006DDE0F8A3E0F9A3E0FAA3E0FBC31284985003023DC7
:403C4000AF9006DDE0FCA3E0FDA3E0FEA3E0FF900B7A12853322900C20E0FFA3E0900B82CFF0A3EFF022900C20E0900B88F022900C20E0FFA3E0900B84CFF0A3EFF0900C39
:403C800022E0FFA3E0900B86CFF0A3EFF022900C20E0FCA3E0FDA3E0FEA3E0FF900B89128533900C24E0FCA3E0FDA3E0FEA3E0FF900B8D12853322900C20E0900B91F022E6
:403CC000900C20E0FF6007900B927401F022E4900B92F022900C20E0900B93F022900C20E0900B94F022900C20E0FCA3E0FDA3E0FEA3E0FF900BAF128533900BAFE0FCA33A
:403D0000E0FDA3E0FEA3E0FF900B4EE0F9F81284E6900BAF12853322900C20E0FCA3E0FDA3E0FEA3E0FF900BB312853322900C20E0FCA3E0FDA3E0FEA3E0FF900BB71285DE
:403D400033900BB7E0FCA3E0FDA3E0FEA3E0FFE4FBFA797A7844127F50900BB712853322900C20E0FCA3E0FDA3E0FEA3E0FF900BBB12853322E4F52AE52AC394065030E587
:403D80002A25E025E02420F582E4340CF583E0FCA3E0FDA3E0FEA3E0FFE52A25E025E02495F582E4340BF583128533052A80C9229005E0EBF0A3EAF0A3E9F0900A5BE0644F
:403DC000FA700302548F9005E0E0FBA3E0FAA3E0F8AC02AD037BFF7A557931128770900A5474FFF0A37455F0A37432F09005E0E0FBA3E0FAA3E0F912CBB0900A5474FFF0C2
:403E0000A37455F0A37435F09005E0E0FBA3E0FAA3E0F912CBB0900A5474FFF0A37455F0A37448F09005E0E0FBA3E0FAA3E0F912CBB0900A5474FFF0A37455F0A3746FF01F
:403E40009005E0E0FBA3E0FAA3E0F912CBB0900A5474FFF0A37455F0A37475F09005E0E0FBA3E0FAA3E0F912CBB090064C74FFF0A37455F0A37483F0900A5BE0FF90064F89
:403E8000E4F0A3EFF07B017A0579E5129A17900A547401F0A37405F0A374E5F09005E0E0FBA3E0FAA3E0F912CBB0900A5474FFF0A37455F0A3748CF09005E0E0FBA3E0FA62
:403EC000A3E0F912CBB0900AD5E0B4011E900A5474FFF0A37455F0A374A7F09005E0E0FBA3E0FAA3E0F912CBB0801C900A5474FFF0A37455F0A374ACF09005E0E0FBA3E097
:403F0000FAA3E0F912CBB090064C74FFF0A37455F0A374B0F0900D08E0FF90064FE4F0A3EFF07B017A0579E5129A17900A547401F0A37405F0A374E5F09005E0E0FBA3E02D
:403F4000FAA3E0F912CBB0900A5474FFF0A37455F0A37432F09005E0E0FBA3E0FAA3E0F912CBB0900A5474FFF0A37455F0A374C0F09005E0E0FBA3E0FAA3E0F912CBB090A8
:403F80000A5474FFF0A37455F0A374CDF09005E0E0FBA3E0FAA3E0F912CBB0900B4DE0B4021E900A5474FFF0A37455F0A374DDF09005E0E0FBA3E0FAA3E0F912CBB0804176
:403FC000900B4DE0B4011E900A5474FFF0A37455F0A374EBF09005E0E0FBA3E0FAA3E0F912CBB0801C900A5474FFF0A37455F0A374F4F09005E0E0FBA3E0FAA3E0F912CB47
:40400000B0E49005E3F0A3F0C39005E4E094029005E3E064809480400302416C900B4DE06402705F90064C74FFF0A37456F0A37402F09005E3E0FEA3E07802C333CE33CE3D
:40404000D8F92408F582740B3EF583E0A3E0A3E0FFA3E090064FCFF0A3EFF07B017A0579E5129A17900A547401F0A37405F0A374E5F09005E0E0FBA3E0FAA3E0F912CBB0CC
:4040800002415B900B4DE06401705E90064C74FFF0A37456F0A37402F09005E3E0FEA3E07802C333CE33CED8F92410F582740B3EF583E0A3E0A3E0FFA3E090064FCFF0A344
:4040C000EFF07B017A0579E5129A17900A547401F0A37405F0A374E5F09005E0E0FBA3E0FAA3E0F912CBB0807290064C74FFF0A37456F0A37402F09005E3E0FAA3E0FBAE89
:40410000027802C333CE33CED8F92400F582740B3EF583E0FCA3E0FDA3E0FEA3E0FF748F2BF582740A3AF583E0F9F81284D290064FEEF0A3EFF07B017A0579E5129A17903F
:404140000A547401F0A37405F0A374E5F09005E0E0FBA3E0FAA3E0F912CBB09005E4E004F070069005E3E004F0024008900A5474FFF0A37455F0A37432F09005E0E0FBA37C
:40418000E0FAA3E0F912CBB0900A5474FFF0A37455F0A37432F09005E0E0FBA3E0FAA3E0F912CBB090064C74FFF0A37456F0A37406F07B017A0579E5129A17900B18E054AE
:4041C000036019900A5474FFF0A37456F0A37416F07B017A0579E512CBB08017900A5474FFF0A37456F0A3741CF07B017A0579E512CBB0900A547401F0A37405F0A374E5E9
:40420000F09005E0E0FBA3E0FAA3E0F912CBB0900A5474FFF0A37456F0A37421F09005E0E0FBA3E0FAA3E0F912CBB0900A5474FFF0A37456F0A37437F09005E0E0FBA3E04D
:40424000FAA3E0F912CBB0E49005E3F0A3F0C39005E4E094039005E3E064809480400302431490064C74FFF0A37456F0A37447F09005E3E0FCA3E0FD2401FEE43C90064FD1
:40428000F0A3CEF0EDAE047802C333CE33CED8F924D0F582740C3EF583E0FCA3E0FDA3E0FEA3E0FF9005E3E0FAA3E0248FF582740A3AF583E0F9F81284D2900651EEF0A32E
:4042C000EFF07B017A0579E5129A17900A547401F0A37405F0A374E5F09005E0E0FBA3E0FAA3E0F912CBB0900A5474FFF0A37455F0A37432F09005E0E0FBA3E0FAA3E0F973
:4043000012CBB09005E4E004F070069005E3E004F002424E90064C74FFF0A37456F0A37450F0900C00E0FCA3E0FDA3E0FEA3E0FF90064F1285337B017A0579E5129A179000
:404340000A547401F0A37405F0A374E5F09005E0E0FBA3E0FAA3E0F912CBB0900A5474FFF0A37455F0A37432F09005E0E0FBA3E0FAA3E0F912CBB090064C74FFF0A374563E
:40438000F0A37462F0900CDCE0FCA3E0FDA3E0FEA3E0FF90064F1285337B017A0579E5129A17900A547401F0A37405F0A374E5F09005E0E0FBA3E0FAA3E0F912CBB0900A47
:4043C0005474FFF0A37455F0A37432F09005E0E0FBA3E0FAA3E0F912CBB0900A5474FFF0A37456F0A37474F09005E0E0FBA3E0FAA3E0F912CBB0900A5474FFF0A37456F0EE
:40440000A3748AF09005E0E0FBA3E0FAA3E0F912CBB0900A8EE06403700302451F90064C74FFF0A37456F0A3749CF0900A5CE0FCA3E0FDA3E0FEA3E0FFEC128066E4FBFA76
:4044400079807847127F5090064F1285337B017A0579E5129A17900A547401F0A37405F0A374E5F09005E0E0FBA3E0FAA3E0F912CBB090064C74FFF0A37456F0A374A6F068
:40448000900A60E0FCA3E0FDA3E0FEA3E0FFEC128066E4FBFA79807847127F5090064F1285337B017A0579E5129A17900A547401F0A37405F0A374E5F09005E0E0FBA3E064
:4044C000FAA3E0F912CBB090064C74FFF0A37456F0A374B0F0900A64E0FCA3E0FDA3E0FEA3E0FFEC128066E4FBFA79807847127F5090064F1285337B017A0579E5129A17E2
:40450000900A547401F0A37405F0A374E5F09005E0E0FBA3E0FAA3E0F912CBB002461E90064C74FFF0A37456F0A3749CF0900A74E0FCA3E0FDA3E0FEA3E0FFEC128066E47A
:40454000FBFA79807847127F5090064F1285337B017A0579E5129A17900A547401F0A37405F0A374E5F09005E0E0FBA3E0FAA3E0F912CBB090064C74FFF0A37456F0A37408
:40458000A6F0900A78E0FCA3E0FDA3E0FEA3E0FFEC128066E4FBFA79807847127F5090064F1285337B017A0579E5129A17900A547401F0A37405F0A374E5F09005E0E0FB38
:4045C000A3E0FAA3E0F912CBB090064C74FFF0A37456F0A374B0F0900A7CE0FCA3E0FDA3E0FEA3E0FFEC128066E4FBFA79807847127F5090064F1285337B017A0579E512F7
:404600009A17900A547401F0A37405F0A374E5F09005E0E0FBA3E0FAA3E0F912CBB0900A5474FFF0A37456F0A374BAF09005E0E0FBA3E0FAA3E0F912CBB0900A8EE06403F4
:40464000700302474790064C74FFF0A37456F0A3749CF0900A68E0FCA3E0FDA3E0FEA3E0FFEC128066E4FBFA79807847127F5090064F1285337B017A0579E5129A17900AD6
:40468000547401F0A37405F0A374E5F09005E0E0FBA3E0FAA3E0F912CBB090064C74FFF0A37456F0A374A6F0900A6CE0FCA3E0FDA3E0FEA3E0FFEC128066E4FBFA79807891
:4046C00047127F5090064F1285337B017A0579E5129A17900A547401F0A37405F0A374E5F09005E0E0FBA3E0FAA3E0F912CBB090064C74FFF0A37456F0A374B0F0900A7043
:40470000E0FCA3E0FDA3E0FEA3E0FFEC128066E4FBFA79807847127F5090064F1285337B017A0579E5129A17900A547401F0A37405F0A374E5F09005E0E0FBA3E0FAA3E05E
:40474000F912CBB002484690064C74FFF0A37456F0A3749CF0900A80E0FCA3E0FDA3E0FEA3E0FFEC128066E4FBFA79807847127F5090064F1285337B017A0579E5129A1744
:40478000900A547401F0A37405F0A374E5F09005E0E0FBA3E0FAA3E0F912CBB090064C74FFF0A37456F0A374A6F0900A84E0FCA3E0FDA3E0FEA3E0FFEC128066E4FBFA79D6
:4047C000807847127F5090064F1285337B017A0579E5129A17900A547401F0A37405F0A374E5F09005E0E0FBA3E0FAA3E0F912CBB090064C74FFF0A37456F0A374B0F090C4
:404800000A88E0FCA3E0FDA3E0FEA3E0FFEC128066E4FBFA79807847127F5090064F1285337B017A0579E5129A17900A547401F0A37405F0A374E5F09005E0E0FBA3E0FA4E
:40484000A3E0F912CBB0900A5474FFF0A37455F0A37432F09005E0E0FBA3E0FAA3E0F912CBB0900A8CE0B4031E900A5474FFF0A37456F0A374D4F09005E0E0FBA3E0FAA39F
:40488000E0F912CBB0801C900A5474FFF0A37456F0A374EEF09005E0E0FBA3E0FAA3E0F912CBB0900A8DE014603814605314606E14700302493C14700302495A240560035B
:4048C000024976900A5474FFF0A37457F0A37407F09005E0E0FBA3E0FAA3E0F912CBB0024976900A5474FFF0A37457F0A37419F09005E0E0FBA3E0FAA3E0F912CBB0807608
:40490000900A5474FFF0A37457F0A3742EF09005E0E0FBA3E0FAA3E0F912CBB08058900A5474FFF0A37457F0A3744DF09005E0E0FBA3E0FAA3E0F912CBB0803A900A5474F0
:40494000FFF0A37457F0A37468F09005E0E0FBA3E0FAA3E0F912CBB0801C900A5474FFF0A37457F0A3747FF09005E0E0FBA3E0FAA3E0F912CBB0900A8EE014602E14604997
:4049800014606414607F24046003024A21900A5474FFF0A37457F0A3749AF09005E0E0FBA3E0FAA3E0F912CBB08076900A5474FFF0A37457F0A374B3F09005E0E0FBA3E0DC
:4049C000FAA3E0F912CBB08058900A5474FFF0A37457F0A374C7F09005E0E0FBA3E0FAA3E0F912CBB0803A900A5474FFF0A37457F0A374DFF09005E0E0FBA3E0FAA3E0F9F1
:404A000012CBB0801C900A5474FFF0A37458F0A37404F09005E0E0FBA3E0FAA3E0F912CBB0900AD3E0601E900A5474FFF0A37458F0A3742CF09005E0E0FBA3E0FAA3E0F9C5
:404A400012CBB0801C900A5474FFF0A37458F0A3744DF09005E0E0FBA3E0FAA3E0F912CBB090064C74FFF0A37458F0A3746DF0900AD4E0FE3395E090064FF0A3CEF07B0175
:404A80007A0579E5129A17900A547401F0A37405F0A374E5F09005E0E0FBA3E0FAA3E0F912CBB0900A5474FFF0A37458F0A37486F09005E0E0FBA3E0FAA3E0F912CBB0E43E
:404AC0009005E3F0A3F0C39005E4E094039005E3E0648094804003024B6290064C74FFF0A37456F0A37447F09005E3E0FCA3E0FD2401FEE43C90064FF0A3CEF0748F2DF564
:404B000082740A3CF583E0FF900651E4F0A3EFF07B017A0579E5129A17900A547401F0A37405F0A374E5F09005E0E0FBA3E0FAA3E0F912CBB0900A5474FFF0A37455F0A318
:404B40007432F09005E0E0FBA3E0FAA3E0F912CBB09005E4E004F070069005E3E004F0024AC6900A5474FFF0A37458F0A3749BF09005E0E0FBA3E0FAA3E0F912CBB0E4900C
:404B800005E3F0A3F0C39005E4E094039005E3E0648094804003024C4990064C74FFF0A37458F0A374B1F09005E3E0FCA3E0FD2401FEE43C90064FF0A3CEF0EDAE047802EB
:404BC000C333CE33CED8F92492F582740A3EF583E0FCA3E0FDA3E0FEA3E0FF9005E3E0FAA3E0248FF582740A3AF583E0F9F81284D29006511285337B017A0579E5129A172A
:404C0000900A547401F0A37405F0A374E5F09005E0E0FBA3E0FAA3E0F912CBB0900A5474FFF0A37455F0A37432F09005E0E0FBA3E0FAA3E0F912CBB09005E4E004F07006D4
:404C40009005E3E004F0024B85900A5474FFF0A37458F0A374BBF09005E0E0FBA3E0FAA3E0F912CBB0E49005E3F0A3F0C39005E4E094039005E3E0648094804003024D1A40
:404C800090064C74FFF0A37458F0A374D5F09005E3E0FCA3E0FD2401FEE43C90064FF0A3CEF0EDAE047802C333CE33CED8F9249EF582740A3EF583E0FCA3E0FDA3E0FEA38B
:404CC000E0FF9006511285337B017A0579E5129A17900A547401F0A37405F0A374E5F09005E0E0FBA3E0FAA3E0F912CBB0900A5474FFF0A37455F0A37432F09005E0E0FBB1
:404D0000A3E0FAA3E0F912CBB09005E4E004F070069005E3E004F0024C6C900A5474FFF0A37458F0A374DEF09005E0E0FBA3E0FAA3E0F912CBB090064C74FFF0A37458F015
:404D4000A374F6F0900AD6E0FCA3E0FDA3E0FEA3E0FF90064F128533900ADAE0FCA3E0FDA3E0FEA3E0FF900653128533900ADEE0FCA3E0FDA3E0FEA3E0FF900657128533A4
:404D80007B017A0579E5129A17900A547401F0A37405F0A374E5F09005E0E0FBA3E0FAA3E0F912CBB090064C74FFF0A37459F0A3740FF0900AE2E0FCA3E0FDA3E0FEA3E01F
:404DC000FF90064F128533900AE6E0FCA3E0FDA3E0FEA3E0FF900653128533900AEAE0FCA3E0FDA3E0FEA3E0FF9006571285337B017A0579E5129A17900A547401F0A37453
:404E000005F0A374E5F09005E0E0FBA3E0FAA3E0F912CBB0900A5474FFF0A37455F0A37432F09005E0E0FBA3E0FAA3E0F912CBB090064C74FFF0A37459F0A37428F0900B90
:404E400069E0FF90064FE4F0A3EFF07B017A0579E5129A17900A547401F0A37405F0A374E5F09005E0E0FBA3E0FAA3E0F912CBB0900A5474FFF0A37455F0A37432F09005F7
:404E8000E0E0FBA3E0FAA3E0F912CBB0E49005E3F0A3F0C39005E4E094019005E3E0648094804003024FAB90064C74FFF0A37459F0A37442F09005E3E0FCA3E0FD2401FEAD
:404EC000E43C90064FF0A3CEF0EDAE047802C333CE33CED8F9246AF582740B3EF583E0FCA3E0FDA3E0FEA3E0FF9005E3E0FAA3E0244EF582740B3AF583E0F9F81284D2905C
:404F000006511285337B017A0579E5129A17900A547401F0A37405F0A374E5F09005E0E0FBA3E0FAA3E0F912CBB090064C74FFF0A37459F0A37468F09005E3E0FAA3E0FB2F
:404F4000AE027802C333CE33CED8F92472F582740B3EF583E0FCA3E0FDA3E0FEA3E0FF744E2BF582740B3AF583E0F9F81284D290064F1285337B017A0579E5129A17900A9D
:404F8000547401F0A37405F0A374E5F09005E0E0FBA3E0FAA3E0F912CBB09005E4E004F070069005E3E004F0024E9390064C74FFF0A37459F0A37475F0900B7AE0A3E0A33C
:404FC000E0FFA3E090064FCFF0A3EFF0900B7EE0A3E0A3E0FFA3E0900651CFF0A3EFF07B017A0579E5129A17900A547401F0A37405F0A374E5F09005E0E0FBA3E0FAA3E0C9
:40500000F912CBB0900A5474FFF0A37455F0A37432F09005E0E0FBA3E0FAA3E0F912CBB090064C74FFF0A37459F0A37491F0900B82E0FFA3E090064FCFF0A3EFF07B017A56
:405040000579E5129A17900A547401F0A37405F0A374E5F09005E0E0FBA3E0FAA3E0F912CBB0900A5474FFF0A37455F0A37432F09005E0E0FBA3E0FAA3E0F912CBB0900697
:405080004C74FFF0A37459F0A374A3F0900B84E0FFA3E090064FCFF0A3EFF0900B86E0FFA3E0900651CFF0A3EFF07B017A0579E5129A17900A547401F0A37405F0A374E56E
:4050C000F09005E0E0FBA3E0FAA3E0F912CBB0900A5474FFF0A37455F0A37432F09005E0E0FBA3E0FAA3E0F912CBB090064C74FFF0A37459F0A374C5F0900B89E0FCA3E03A
:40510000FDA3E0FEA3E0FF90064F128533900B8DE0FCA3E0FDA3E0FEA3E0FF9006531285337B017A0579E5129A17900A547401F0A37405F0A374E5F09005E0E0FBA3E0FA52
:40514000A3E0F912CBB0900A5474FFF0A37455F0A37432F09005E0E0FBA3E0FAA3E0F912CBB0900B88E0601E900A5474FFF0A37459F0A374E9F09005E0E0FBA3E0FAA3E0F8
:40518000F912CBB0801C900A5474FFF0A3745AF0A37404F09005E0E0FBA3E0FAA3E0F912CBB090064C74FFF0A3745AF0A3741EF0900B91E0FF90064FE4F0A3EFF07B017A33
:4051C0000579E5129A17900A547401F0A37405F0A374E5F09005E0E0FBA3E0FAA3E0F912CBB0900A5474FFF0A37455F0A37432F09005E0E0FBA3E0FAA3E0F912CBB0900616
:405200004C74FFF0A3745AF0A37430F07B017A0579E5129A17900A547401F0A37405F0A374E5F09005E0E0FBA3E0FAA3E0F912CBB0900D07E0B4011E900A5474FFF0A3742B
:4052400056F0A37416F09005E0E0FBA3E0FAA3E0F912CBB0801C900A5474FFF0A37456F0A3741CF09005E0E0FBA3E0FAA3E0F912CBB090064C74FFF0A3745AF0A3743FF0C6
:40528000900BB3E0FCA3E0FDA3E0FEA3E0FF90064F1285337B017A0579E5129A17900A547401F0A37405F0A374E5F09005E0E0FBA3E0FAA3E0F912CBB0900A5474FFF0A361
:4052C0007455F0A37432F09005E0E0FBA3E0FAA3E0F912CBB090064C74FFF0A3745AF0A37458F0E4FFFE7D7A7C44900BB7E0F8A3E0F9A3E0FAA3E0FB127E4790064F128555
:40530000337B017A0579E5129A17900A547401F0A37405F0A374E5F09005E0E0FBA3E0FAA3E0F912CBB0900A5474FFF0A37455F0A37432F09005E0E0FBA3E0FAA3E0F912BC
:40534000CBB090064C74FFF0A3745AF0A3747EF0900BAFE0FCA3E0FDA3E0FEA3E0FF900A8FE0F9F81284D290064FEEF0A3EFF07B017A0579E5129A17900A547401F0A374B1
:4053800005F0A374E5F09005E0E0FBA3E0FAA3E0F912CBB0900A5474FFF0A37455F0A37432F09005E0E0FBA3E0FAA3E0F912CBB090064C74FFF0A3745AF0A37490F0900BA2
:4053C000BBE0FCA3E0FDA3E0FEA3E0FF90064F1285337B017A0579E5129A17900A547401F0A37405F0A374E5F09005E0E0FBA3E0FAA3E0F912CBB0900A5474FFF0A37455EA
:40540000F0A37432F09005E0E0FBA3E0FAA3E0F912CBB090064C74FFF0A3745AF0A3749FF0900BFCE0F8A3E0F9A3E0FAA3E0FB900CBFE0FCA3E0FDA3E0FEA3E0C39BFFEE35
:405440009AFEED99FDEC98FC90064F1285337B017A0579E5129A17900A547401F0A37405F0A374E5F09005E0E0FBA3E0FAA3E0F912CBB0900A5474FFF0A37455F0A37432AF
:40548000F09005E0E0FBA3E0FAA3E0F912CBB022205945530000204E4F00002055736200002048616E646C65000020454D472070726F706F7274696F6E616C000020454D8C
:4054C0004720696E74656772616C000020454D472046434653000020454D47204643465320416476616E636564000020506F736974696F6E00002050574D00002043757270
:4055000072656E74000020506F736974696F6E20616E642043757272656E74000020506F736974696F6E20616E6420526573740000000D0A004669726D7761726520766512
:405540007273696F6E3A200053482D50524F2076362E312E352028536F636B657420772F5265737420706F736974696F6E29002E0D0A0D0A0044455649434520494E464F34
:405580000D0A0049443A2025640D0A0050574D2072657363616C696E672061637469766174696F6E3A20005945530A004E4F0A0050574D204C696D69743A2025640D0A0026
:4055C0004D4F544F5220494E464F0D0A004D6F746F72207265666572656E636500202D2043757272656E74733A2000202D2050776D3A2000202D20506F736974696F6E3AC3
:405600002000256420004D6F746F7220656E61626C65643A20005945530D0A004E4F0D0A000D0A4D4541535552454D454E545320494E464F0D0A0053656E736F722076610B
:405640006C75653A0D0A002564202D3E20256400566F6C7461676520286D56293A20256C640043757272656E7420286D41293A20256C64000D0A4445564943452050415266
:40568000414D45544552530D0A0050494420436F6E74726F6C6C65723A0D0A0050202D3E20256620200049202D3E20256620200044202D3E2025660D0A0043757272656ECB
:4056C000742050494420436F6E74726F6C6C65723A0D0A00537461727475702061637469766174696F6E3A205945530D0A00537461727475702061637469766174696F6EB8
:405700003A204E4F0D0A00496E707574206D6F64653A205553420D0A00496E707574206D6F64653A2048616E646C650D0A00496E707574206D6F64653A20454D472070728F
:405740006F706F7274696F6E616C0D0A00496E707574206D6F64653A20454D4720696E74656772616C0D0A00496E707574206D6F64653A20454D4720464346530D0A00498C
:405780006E707574206D6F64653A20454D472046434653204144560D0A00436F6E74726F6C206D6F64653A20506F736974696F6E0D0A00436F6E74726F6C206D6F64653A8A
:4057C0002050574D0D0A00436F6E74726F6C206D6F64653A2043757272656E740D0A00436F6E74726F6C206D6F64653A20506F736974696F6E20616E642043757272656E4D
:40580000740D0A00436F6E74726F6C206D6F64653A20506F736974696F6E20616E64205265737420636865636B0D0A004162736F6C75746520656E636F64657220706F7391
:405840006974696F6E3A205945530D0A004162736F6C75746520656E636F64657220706F736974696F6E3A204E4F0D0A004D6F746F722D48616E646C6520526174696F3ADE
:405880002025640D0A0053656E736F72207265736F6C7574696F6E3A0D0A004D6561737572656D656E74204F66667365743A0D0A002564202D3E20256C64004D6561737567
:4058C00072656D656E74204D756C7469706C6965723A0D0A002564202D3E2025660043757272656E74206C6F6F6B7570207461626C653A0D0A00705B305D202D20705B32EE
:405900005D3A2025662C2025662C2025660A00705B335D202D20705B355D3A2025662C2025662C2025660A00506F736974696F6E206C696D6974206163746976653A2025FC
:405940006400506F736974696F6E206C696D6974206D6F746F722025643A20696E66202D3E20256C64202000737570202D3E20256C640D0A004D6178207374657020706FAE
:405980007320616E64206E65673A2025642025640043757272656E74206C696D69743A20256400454D47207468726573686F6C6473205B30202D20313032345D3A202575CD
:4059C0002C20257500454D47206D61782076616C756573205B30202D20343039365D3A20256C752C20256C750043616C6962726174696F6E20656E61626C65643A2059458D
:405A0000530D0A0043616C6962726174696F6E20656E61626C65643A204E4F0D0A00454D47206D61782073706565643A202564005265737420656E61626C65643A20005213
:405A40006573742074696D652064656C617920286D73293A20256600526573742076656C6F6369747920636C6F7375726520287469636B732F736563293A202566005265C7
:405A8000737420706F736974696F6E3A202564005265737420726174696F3A2025660064656275673A20256C6400000000000000000000000000000000000000000000006F
:405AC00000000000000000000000000000000000000000000000000000000000000000000000000000000000000000000000000000000000000000000000000000000000A6
:405B00000000000000000000000000000000000000000000000000000000000000000000000000000000000000000000000000000000000000000000000000000000000065
:405B40000000000000000000000000000000000000000000000000000000000000000000000000000000000000000000000000000000000000000000000000000000000025
:405B800000000000000000000000000000000000000000000000000000000000000000000000000000000000000000000000000000000000000000000000000000000000E5
:40674000000000000000000000000000000000000000000000000000000000000031202D204465766963652049443A0032202D20506F736974696F6E20504944205B502C5C
:4067800020492C20445D3A0033202D2043757272656E7420504944205B502C20492C20445D3A0034202D20537461727475702041637469766174696F6E3A0000000000350D
:4067C000202D20496E707574206D6F64653A0000000000000000000000000000000000000036202D20436F6E74726F6C206D6F64653A00000000000000000000000000009A
:40680000000000000000000037202D205265736F6C7574696F6E733A0038202D204D6561737572656D656E74204F6666736574733A0039202D204D756C7469706C696572A7
:40684000733A003130202D20506F732E206C696D6974206163746976653A00000000003131202D20506F732E206C696D697473205B696E662C207375705D3A003132202DA4
:40688000204D6178207374657073205B6E65672C20706F735D3A003133202D2043757272656E74206C696D69743A003134202D20454D472063616C6962726174696F6E20B9
:4068C0006F6E20737461727475703A00000000003135202D20454D47207468726573686F6C64733A003136202D20454D47206D61782076616C7565733A003137202D2045F1
:406900004D47206D61782073706565643A003138202D204162736F6C75746520656E636F64657220706F736974696F6E3A00000000003139202D204D6F746F722068616ECF
:40694000646C6520726174696F3A003230202D2050574D2072657363616C696E673A00000000003231202D205265737420706F736974696F6E3A003232202D2052657374E8
:4069800020706F736974696F6E2074696D652064656C617920286D73293A003233202D20526573742076656C20636C6F7375726520287469636B732F736563293A0032342C
:4069C000202D205265737420726174696F3A003235202D2043757272656E74206C6F6F6B75703A0030202D3E205573620A31202D3E2048616E646C650A32202D3E20454DB8
:406A0000472070726F706F7274696F6E616C0A33202D3E20454D4720496E74656772616C0A34202D3E20454D4720464346530A35202D3E20454D472046434653204164766B
:406A4000616E6365640A0030202D3E20506F736974696F6E0A31202D3E2050574D0A32202D3E2043757272656E740A33202D3E20506F736974696F6E20616E642043757263
:406A800072656E740A34202D3E20506F736974696F6E20772E207265737420636865636B0A000030202D3E2044656163746976617465205B4E4F5D0A31202D3E20416374CC
:406AC0006976617465205B5945535D0A00E4F526F525F524F523900A5CE0FCA3E0FDA3E0FEA3E0F5428E418D408C3FA3E0FCA3E0FDA3E0FEA3E0F5468E458D448C43A3E038
:406B0000FCA3E0FDA3E0FEA3E0F54A8E498D488C47A3E0FCA3E0FDA3E0FEA3E0F54E8E4D8D4C8C4BA3E0FCA3E0FDA3E0FEA3E0F5528E518D508C4FA3E0FCA3E0FDA3E0FEE5
:406B4000A3E0F5568E558D548C53A3E0FCA3E0FDA3E0FEA3E0F55A8E598D588C57A3E0FCA3E0FDA3E0FEA3E0F55E8E5D8D5C8C5BA3E0FCA3E0FDA3E0FEA3E0F5628E618DBC
:406B8000608C5FA3E0FCA3E0FDA3E0FEA3E0F5668E658D648C63A3E0FCA3E0FDA3E0FEA3E0F56A8E698D688C67A3E0FCA3E0FDA3E0FEA3E0F56E8E6D8D6C8C6B900AC5E088
:406BC000FEA3E0FFFBAA06E4900CE7E0FCA3E0FDA3E0FEA3E0C39BF53AEE9AF539ED9400F538EC9400F537900AC7E0FEA3E0FFFBAA06E4900CEBE0FCA3E0FDA3E0FEA3E0CF
:406C0000C39BF53EEE9AF53DED9400F53CEC9400F53B900A8DE024FE7003026D82147003026DE0147003026ED5147003027038240460030271CF900AD3E06024A3E0FF33F4
:406C400095E0FEFDFC900CD8E0F8A3E0F9A3E0FAA3E0FB1283608F368E358D348C338024900AD4E0FF3395E0FEFDFC900CD4E0F8A3E0F9A3E0FAA3E0FB1283608F368E351C
:406C80008D348C33900B00E0F8A3E0F9A3E0FAA3E0FBC3E5369BFFE5359AFEE53499FDE53398FC900ABBE0F8A3E0F9A3E0FAA3E0FBC31284985044E4FFFEFDFC900ABBE0AD
:406CC000F8A3E0A3E0A3E0C3128498602E900B00E0FCA3E0FDA3E0FEA3E0FF900ABBE0F8A3E0A3E0A3E0EF2BFFEE3AFEED39FDEC38FC900B001285330271CF900B00E0F848
:406D0000A3E0F9A3E0FAA3E0FBC3E5369BFFE5359AFEE53499FDE53398FC900ABFE0F8A3E0F9A3E0FAA3E0FBD31284984043E4FFFEFDFC900ABFE0F8A3E0A3E0A3E0128401
:406D400098602E900B00E0FCA3E0FDA3E0FEA3E0FF900ABFE0F8A3E0A3E0A3E0EF2BFFEE3AFEED39FDEC38FC900B001285330271CFAF36AE35AD34AC33900B001285330221
:406D800071CFE4FFFEFDFCAB3AAA39A938A837D3128498403D900B72E0FCA3E0FDA3E0FEA3E0FFA837128360C006C007900AC5E0FEA3E0FFC3E49FFF74049EFEAB07FAE43E
:406DC000F9F8D007D00612D08F900B001285330271CFE4FFFEFDFC900B001285330271CF900C04E0FCA3E0FDA3E0FEA3E0FF900B00128533E4FFFEFDFCAB3AAA39A938A8CD
:406E000037D31284984056900B91E0FFE4FCFDFEA837128360E47B02FAF9F8128360C006C007900AC5E0FEA3E0FFC3E49FFF74049EFEAB07FAE4F9F8D007D00612D08F90B5
:406E40000C04E0F8A3E0F9A3E0FAA3E02FFFEA3EFEE93DFDE83CFC900B00128533E4FFFEFDFCAB3EAA3DA93CA83BD312849850030271CF900B91E0FFE4FCFDFEA83B12834C
:406E800060E47B02FAF9F8128360C006C007900AC7E0FEA3E0FFC3E49FFF74049EFEAB07FAE4F9F8D007D00612D08FA804A905AA06AB07900C04E0FCA3E0FDA3E0FEA3E02F
:406EC000C39BFFEE9AFEED99FDEC98FC900B001285330271CF900C04E0FCA3E0FDA3E0FEA3E0FF900B00128533900DA1E0146048147003026FB2240260030271CFE4FFFE71
:406F0000FDFCAB3AAA39A938A837D31284984009900DA17401F00271CFE4FFFEFDFCAB3EAA3DA93CA83BD312849850030271CF900DA17402F00271CFE4FFFEFDFCAB3AAA4A
:406F400039A938A837C31284985008E4900DA1F00271CF900B91E0FFE4FCFDFEAB3AAA39A938A837128360E47B02FAF9F8128360C006C007900AC5E0FEA3E0FFC3E49FFF46
:406F800074049EFEAB07FAE4F9F8D007D00612D08F900C04E0F8A3E0F9A3E0FAA3E02FFFEA3EFEE93DFDE83CFC900B001285330271CFE4FFFEFDFCAB3EAA3DA93CA83BC3B7
:406FC0001284985008E4900DA1F00271CF900B91E0FFE4FCFDFEAB3EAA3DA93CA83B128360E47B02FAF9F8128360C006C007900AC7E0FEA3E0FFC3E49FFF74049EFEAB07AA
:40700000FAE4F9F8D007D00612D08FA804A905AA06AB07900C04E0FCA3E0FDA3E0FEA3E0C39BFFEE9AFEED99FDEC98FC900B001285330271CF0271CF900C04E0FCA3E0FDDC
:40704000A3E0FEA3E0FF900B00128533900DA1E0146048147003027134240260030271CFE4FFFEFDFCAB3AAA39A938A837D31284984009900DA17401F00271CFE4FFFEFD66
:40708000FCAB3EAA3DA93CA83BD312849850030271CF900DA17402F00271CFE4FFFEFDFCAB3AAA39A938A837C3128498501BE4FFFEFDFCAB3EAA3DA93CA83BC3128498504F
:4070C00008E4900DA1F00271CFE4FFFEFDFCAB3AAA39A938A837D312849850030271CF900B91E0FFE4FCFDFEA83712836078021284E6C006C007900AC5E0FEA3E0FFC3E499
:407100009FFF74049EFEAB07FAE4F9F8D007D00612D08F900C04E0F8A3E0F9A3E0FAA3E02FFFEA3EFEE93DFDE83CFC900B001285330271CFE4FFFEFDFCAB3AAA39A938A8A1
:4071400037C3128498501AE4FFFEFDFCAB3EAA3DA93CA83BC31284985007E4900DA1F0806EE4FFFEFDFCAB3EAA3DA93CA83BD3128498405B900AD2E0FFE4FCFDFEA83B129A
:40718000836078021284E6C006C007900AC7E0FEA3E0FFC3E49FFF74049EFEAB07FAE4F9F8D007D00612D08FA804A905AA06AB07900C04E0FCA3E0FDA3E0FEA3E0C39BFF97
:4071C000EE9AFEED99FDEC98FC900B00128533900AAAE0606AA3E0FCA3E0FDA3E0FEA3E0FF900B00E0F8A3E0F9A3E0FAA3E0FBC31284985014900AABE0FCA3E0FDA3E0FE50
:40720000A3E0FF900B00128533900AB3E0FCA3E0FDA3E0FEA3E0FF900B00E0F8A3E0F9A3E0FAA3E0FBD31284984014900AB3E0FCA3E0FDA3E0FEA3E0FF900B0012853390DB
:407240000A8EE070030276311470030279ED1470030277BF24FE7003027A62046003027C9A900CD0E0F8A3E0F9A3E0FAA3E0FB900B00E0FCA3E0FDA3E0FEA3E0C39BF52AA7
:40728000EE9AF529ED99F528EC98F527900D91E0FCA3E0FDA3E0FEA3E0252AFFEE3529FEED3528FDEC3527FC900D911285337F807EF07DFA7C02900D91E0F8A3E0F9A3E0D5
:4072C000FAA3E0FBD312849840107F807EF07DFA7C02900D91128533802A7F807E0F7D057CFD900D91E0F8A3E0F9A3E0FAA3E0FBC3128498500E7F807E0F7D057CFD900D4A
:4073000091128533E4F532F531F530F52FFFFEFDFCAB5AAA59A958A857C31284986026AF2AAE29AD28AC27A85712836078101284D2E5322FF532E5313EF531E5303DF53069
:40734000E52F3CF52FE4FFFEFDFCAB5EAA5DA95CA85BC3128498602C900D91E0FCA3E0FDA3E0FEA3E0FFA85B12836078101284D2E5322FF532E5313EF531E5303DF530E572
:407380002F3CF52FE4FFFEFDFCAB62AA61A960A85FC31284986043900D99E0F8A3E0F9A3E0FAA3E0FBC3E52A9BFFE5299AFEE52899FDE52798FCAB62AA61A960A85F128311
:4073C0006078101284D2E5322FF532E5313EF531E5303DF530E52F3CF52FAF2AAE29AD28AC27900D99128533E4FFFEFDFCAB32AA31A930A82FC31284984004D20E8002C278
:407400000E900AC3E0FEA3E0FFEE3395E0FDFCAB32AA31A930A82FD31284984016900AC3E0FEA3E0FFEE3395E08F328E31F530F52F803C900AC3E0FEA3E0FFC3E49FFFE475
:407440009EFE3395E0FDFCAB32AA31A930A82FC3128498501A900AC3E0FEA3E0FFC3E49FFFE49EFE3395E08F328E31F530F52F900CDCE0F8A3E0F9A3E0FAA3E0FBC3E53278
:407480009BF52EE5319AF52DE53099F52CE52F98F52B900D95E0FCA3E0FDA3E0FEA3E0252EFFEE352DFEED352CFDEC352BFC900D951285337FA07E867D017C00900D95E0B1
:4074C000F8A3E0F9A3E0FAA3E0FBD312849840107FA07E867D017C00900D95128533802A7F607E797DFE7CFF900D95E0F8A3E0F9A3E0FAA3E0FBC3128498500E7F607E7997
:407500007DFE7CFF900D95128533E4F526F525F524F523FFFEFDFCAB66AA65A964A863C31284986026AF2EAE2DAD2CAC2BA86312836078101284D2E5262FF526E5253EF580
:4075400025E5243DF524E5233CF523E4FFFEFDFCAB6AAA69A968A867C3128498602C900D95E0FCA3E0FDA3E0FEA3E0FFA86712836078101284D2E5262FF526E5253EF52550
:40758000E5243DF524E5233CF523E4FFFEFDFCAB6EAA6DA96CA86BC31284986043900D9DE0F8A3E0F9A3E0FAA3E0FBC3E52E9BFFE52D9AFEE52C99FDE52B98FCAB6EAA6D2C
:4075C000A96CA86B12836078101284D2E5262FF526E5253EF525E5243DF524E5233CF52374FF7F9CFEFDFCAB26AA25A924A823C3128498500D74FF75269CF525F524F5230C
:40760000801EE47F64FEFDFCAB26AA25A924A823D3128498400AE4752664F525F524F523AF2EAE2DAD2CAC2B900D9D128533027C9A900CD0E0F8A3E0F9A3E0FAA3E0FB906E
:407640000B00E0FCA3E0FDA3E0FEA3E0C39BF52AEE9AF529ED99F528EC98F527900D91E0FCA3E0FDA3E0FEA3E0252AFFEE3529FEED3528FDEC3527FC900D91128533E47F2D
:40768000E87E03FDFC900D91E0F8A3E0F9A3E0FAA3E0FBD3128498400FE47FE87E03FDFC900D91128533802A7F187EFC7DFF7CFF900D91E0F8A3E0F9A3E0FAA3E0FBC312DA
:4076C0008498500E7F187EFC7DFF7CFF900D91128533E4FFFEFDFCAB42AA41A940A83FC3128498601AAF2AAE29AD28AC27A83F12836078101284D28F268E258D248C23E453
:40770000FFFEFDFCAB46AA45A944A843C3128498602C900D91E0FCA3E0FDA3E0FEA3E0FFA84312836078101284D2E5262FF526E5253EF525E5243DF524E5233CF523E4FF6C
:40774000FEFDFCAB4AAA49A948A847C31284986043900D99E0F8A3E0F9A3E0FAA3E0FBC3E52A9BFFE5299AFEE52899FDE52798FCAB4AAA49A948A84712836078101284D22F
:40778000E5262FF526E5253EF525E5243DF524E5233CF523AF2AAE29AD28AC27900D99128533E4FFFEFDFCAB26AA25A924A823D31284984005D20E027C9AC20E027C9A9037
:4077C0000B18E07003027C9A200D03027C9A900B08E0FCA3E0FDA3E0FEA3E0F5328E318D308C2F900AC3E0FEA3E0FFEE3395E0FDFCAB32AA31A930A82FD3128498401690B7
:407800000AC3E0FEA3E0FFEE3395E08F328E31F530F52F803C900AC3E0FEA3E0FFC3E49FFFE49EFE3395E0FDFCAB32AA31A930A82FC3128498501A900AC3E0FEA3E0FFC39A
:40784000E49FFFE49EFE3395E08F328E31F530F52F900CDCE0F8A3E0F9A3E0FAA3E0FBC3E5329BF52EE5319AF52DE53099F52CE52F98F52B900D95E0FCA3E0FDA3E0FEA317
:40788000E0252EFFEE352DFEED352CFDEC352BFC900D951285337FA07E867D017C00900D95E0F8A3E0F9A3E0FAA3E0FBD312849840107FA07E867D017C00900D95128533B1
:4078C000802A7F607E797DFE7CFF900D95E0F8A3E0F9A3E0FAA3E0FBC3128498500E7F607E797DFE7CFF900D95128533E4F526F525F524F523FFFEFDFCAB4EAA4DA94CA8AD
:407900004BC31284986026AF2EAE2DAD2CAC2BA84B12836078101284D2E5262FF526E5253EF525E5243DF524E5233CF523E4FFFEFDFCAB52AA51A950A84FC3128498602C94
:40794000900D95E0FCA3E0FDA3E0FEA3E0FFA84F12836078101284D2E5262FF526E5253EF525E5243DF524E5233CF523E4FFFEFDFCAB56AA55A954A853C312849860439032
:407980000D9DE0F8A3E0F9A3E0FAA3E0FBC3E52E9BFFE52D9AFEE52C99FDE52B98FCAB56AA55A954A85312836078101284D2E5262FF526E5253EF525E5243DF524E5233C32
:4079C000F523AF2EAE2DAD2CAC2B900D9D128533E4FFFEFDFCAB26AA25A924A823C31284984005D20E027C9AC20E027C9A900B10E0FCA3E0FDA3E0FEA3E0F5268E258D2451
:407A00008C23E4FFFEFDFCAB26AA25A924A823D31284984004D20E8002C20E74FF7F9CFEFDFCAB26AA25A924A823C3128498500E74FF75269CF525F524F523027C9AE47F92
:407A400064FEFDFCAB26AA25A924A823D31284985003027C9AE4752664F525F524F523027C9A900D07E0B40114900CBBE0FCA3E0FDA3E0FEA3E0FF900B00128533900BBFFF
:407A8000E064016003027B10FFFEFDFCAB3EAA3DA93CA83BD3128498405D900BAFE0FCA3E0FDA3E0FEA3E0FFA83B128360C006C007900AC7E0FEA3E0FFC3E49FFF74049E3B
:407AC000FEAB07FAE4F9F8D007D00612D08FA804A905AA06AB07900BAFE0FCA3E0FDA3E0FEA3E0C39BFFEE9AFEED99FDEC98FC900B001285338019900BAFE0FCA3E0FDA356
:407B0000E0FEA3E0FF900B00128533E4900BBFF0900CD0E0F8A3E0F9A3E0FAA3E0FB900B00E0FCA3E0FDA3E0FEA3E0C39BF52AEE9AF529ED99F528EC98F527900D91E0FC2C
:407B4000A3E0FDA3E0FEA3E0252AFFEE3529FEED3528FDEC3527FC900D91128533E47FE87E03FDFC900D91E0F8A3E0F9A3E0FAA3E0FBD3128498400FE47FE87E03FDFC907F
:407B80000D91128533802A7F187EFC7DFF7CFF900D91E0F8A3E0F9A3E0FAA3E0FBC3128498500E7F187EFC7DFF7CFF900D91128533E4FFFEFDFCAB42AA41A940A83FC31288
:407BC0008498601AAF2AAE29AD28AC27A83F12836078101284D28F268E258D248C23E4FFFEFDFCAB46AA45A944A843C3128498602C900D91E0FCA3E0FDA3E0FEA3E0FFA8BF
:407C00004312836078101284D2E5262FF526E5253EF525E5243DF524E5233CF523E4FFFEFDFCAB4AAA49A948A847C31284986043900D99E0F8A3E0F9A3E0FAA3E0FBC3E547
:407C40002A9BFFE5299AFEE52899FDE52798FCAB4AAA49A948A84712836078101284D2E5262FF526E5253EF525E5243DF524E5233CF523AF2AAE29AD28AC27900D99128513
:407C800033E4FFFEFDFCAB26AA25A924A823D31284984004D20E8002C20EE47F64FEFDFCAB26AA25A924A823D3128498400AE4752664F525F524F52374FF7F9CFEFDFCAB69
:407CC00026AA25A924A823C3128498500B74FF75269CF525F524F523900A8EE064016037AF26AE25AD24AC23780A1284E6E47B64FAF9F812D08FA804A905AA06AB07900DF4
:407D000008E0FFE4FCFDFE128360780A1284D28F268E258D248C23E4FFFEFDFCAB26AA25A924A823C312849840047F0180027FFF900CCFEFF0300E077F0112DC608005E44D
:407D4000FF12DC60AE25AF2612DB3412DC4822028110E86480F8E933E83360110460F0ED33EC337009E8FCE9FDEAFEEBFF220460DED3EB9FEA9EE99DE8C2E78CF0C2F795C4
:407D8000F0400CE8CCF8E9CDF9EACEFAEBCFFB1280DB85D0F05804700320D5B3E80470075002B2D502811A92D5EC0460F7E4CCC0E0C398F8603B94186008400DD0E0FB02C9
