:1026000002AF8C008F828E83E0540100000070F8CE
:102610002278FFE4F6D8FD02B01A900002EEF0A393
:10262000EFF078047C007D017BFF7A48797C7E079F
:102630007F6D1282A59007717407F0A3746DF07816
:10264000787C077D017BFF7A4F79E97E007F0F124E
:1026500082A578877C077D017BFF7A4F79F87E0021
:102660007F1C1282A578A37C077D017BFF7A5079BD
:10267000147E007F1B1282A578BE7C077D017BFF44
:102680007A50792F7E007F1C1282A578DA7C077D34
:10269000017BFF7A50794B7E007F221282A578FC65
:1026A0007C077D017BFF7A50796D7E007F27128247
:1026B000A578237C087D017BFF7A5079947E007F8A
:1026C000111282A578347C087D017BFF7A5079A5B0
:1026D0007E007F191282A5784D7C087D017BFF7AF0
:1026E0005079BE7E007F111282A5785E7C087D0144
:1026F0007BFF7A5079CF7E007F1C1282A5787A7C8E
:10270000087D017BFF7A5079EB7E007F1D1282A548
:1027100078977C087D017BFF7A5179087E007F1BCA
:102720001282A578B27C087D017BFF7A5179237EE5
:10273000007F141282A578C67C087D017BFF7A5148
:1027400079377E007F251282A578EB7C087D017B9E
:10275000FF7A51795C7E007F151282A578007C0992
:102760007D017BFF7A5179717E007F151282A578F9
:10277000157C097D017BFF7A5179867E007F1412DA
:1027800082A578297C097D017BFF7A51799A7E00A8
:102790007F241282A5784D7C097D017BFF7A5179D7
:1027A000BE7E007F191282A578667C097D017BFFC1
:1027B0007A5179D77E007F181282A5787E7C097DB8
:1027C000017BFF7A5179EF7E007F211282A5789FED
:1027D0007C097D017BFF7A5279107E007F1A12827C
:1027E000A578B97C097D017BFF7A52792A7E007F2A
:1027F000151282A578CE7C097D017BFF7A52793F44
:102800007E007F171282A578E57C097D017BFF7A27
:102810005279567E007F171282A578FC7C097D01D3
:102820007BFF7A52796D7E007F631282A5785F7C90
:102830000A7D017BFF7A5279D07E007F3F1282A50C
:10284000789E7C0A7D017BFF7A53790F7E007F2A78
:102850001282A578C87C0A7D017BFF7A5379397E84
:10286000007F141282A57B017A07797812D00C8F31
:102870002C7B017A07798712D00C8F2D7B017A0788
:1028800079A312D00C8F2E7B017A08792312D00CF9
:102890008F2F7B017A08793412D00C8F307B017A2C
:1028A00008794D12D00C8F317B017A08797A12D0D9
:1028B0000C8F327B017A08799712D00C8F337B0111
:1028C0007A0879B212D00C8F347B017A0879EB1236
:1028D000D00C8F357B017A09790012D00C8F367BB2
:1028E000017A09791512D00C8F377B017A09794D5D
:1028F00012D00C8F387B017A0979B912D00C8F393C
:102900007B017A0979FC12D00C8F3A7B017A0A7923
:102910005F12D00C8F3B7B017A0A799E12D00C8F0C
:102920003C7B017A09797E12D00C8F3D7B017A09BC
:10293000799F12D00C8F3E7B017A0A79C812D00C95
:102940008F3F7B017A0979CE12D00C8F407B017AC0
:102950000979E512D00C8F41900004740CF0A37437
:1029600019F0900002E0FEA3E0FFEE6003023DD705
:10297000EFB41A004003023DD7902980F82828734D
:102980000229CE02389C0238A5023975023A450266
:102990003A58023A61023A6A023A95023B13023B04
:1029A00050023B59023C2F023CB5023CC5023CCED2
:1029B000023CED023D16023D1F023D36023D3F0244
:1029C0003D48023D5D023D74023DAE023DC39000B4
:1029D000067402F0A314F0900AE6E0900008F08577
:1029E0002C2AE52A6032FFC3E52C9FFFE49400FE09
:1029F00074782FF58274073EF583E0FFE52AFDE544
:102A00002CC39DFDE49400FC74092DF58274003CF8
:102A1000F583EFF0152A80CA9000387407F0A3748C
:102A200003F0900B19E064036068900AE7E0FCA3F0
:102A3000E0FDA3E0FEA3E0FFEC127C79E4FBFA7971
:102A4000807847127B6390003A128146900AEBE04F
:102A5000FCA3E0FDA3E0FEA3E0FFEC127C79E4FB25
:102A6000FA79807847127B6390003E128146900A83
:102A7000EFE0FCA3E0FDA3E0FEA3E0FFEC127C7915
:102A8000E4FBFA79807847127B639000421281461A
:102A90008066900AFFE0FCA3E0FDA3E0FEA3E0FF58
:102AA000EC127C79E4FBFA79807847127B63900022
:102AB0003A128146900B03E0FCA3E0FDA3E0FEA3E5
:102AC000E0FFEC127C79E4FBFA79807847127B63B3
:102AD00090003E128146900B07E0FCA3E0FDA3E0CE
:102AE000FEA3E0FFEC127C79E4FBFA7980784712D0
:102AF0007B63900042128146852D2AE52A6032FFD1
:102B0000C3E52D9FFFE49400FE74872FF5827407C0
:102B10003EF583E0FFE52AFDE52DC39DFDE494002D
:102B2000FC74462DF58274003CF583EFF0152A8085
:102B3000CA90006A7407F0A37403F0900B19E06464
:102B4000036068900AF3E0FCA3E0FDA3E0FEA3E0CD
:102B5000FFEC127C79E4FBFA79807847127B639072
:102B6000006C128146900AF7E0FCA3E0FDA3E0FEB2
:102B7000A3E0FFEC127C79E4FBFA79807847127BC2
:102B800063900070128146900AFBE0FCA3E0FDA375
:102B9000E0FEA3E0FFEC127C79E4FBFA7980784751
:102BA000127B639000741281468066900B0BE0FCF0
:102BB000A3E0FDA3E0FEA3E0FFEC127C79E4FBFAC6
:102BC00079807847127B6390006C128146900B0FDE
:102BD000E0FCA3E0FDA3E0FEA3E0FFEC127C79E4BF
:102BE000FBFA79807847127B6390007012814690DF
:102BF0000B13E0FCA3E0FDA3E0FEA3E0FFEC127CDE
:102C000079E4FBFA79807847127B63900074128133
:102C100046852E2AE52A6032FFC3E52E9FFFE49405
:102C200000FE74A32FF58274073EF583E0FFE52ACA
:102C3000FDE52EC39DFDE49400FC74782DF58274AF
:102C4000003CF583EFF0152A80CAE490009CF0A3C5
:102C500004F0900B17E090009EF0900B17601C9012
:102C60000ADF74FFF0A3743DF0A374D8F07B017AFF
:102C70000779BE12C312752B1C801A900ADF74FFED
:102C8000F0A3743DF0A374DEF07B017A0779BE12E5
:102C9000C312752B1B852B2AE52A6032FFC3E52B57
:102CA0009FFFE49400FE74BE2FF58274073EF58307
:102CB000E0FFE52AFDE52BC39DFDE49400FC749F35
:102CC0002DF58274003CF583EFF0152A80CA749FBD
:102CD000252BF582E43400F5837403F0E49000CEF4
:102CE000F0A304F0900B18E09000D0F0900B1814B3
:102CF000603314604C14606514607E147003022D00
:102D00009524056003022DAF900ADF74FFF0A374D1
:102D10003DF0A374E3F07B017A0779DA12C31275F0
:102D20002B14022DAF900ADF74FFF0A3743DF0A3C3
:102D300074E9F07B017A0779DA12C312752B1780D8
:102D40006E900ADF74FFF0A3743DF0A374F2F07B81
:102D5000017A0779DA12C312752B218052900ADFAB
:102D600074FFF0A3743EF0A37405F07B017A077939
:102D7000DA12C312752B1D8036900ADF74FFF0A3A0
:102D8000743EF0A37414F07B017A0779DA12C3124F
:102D9000752B19801A900ADF74FFF0A3743EF0A31C
:102DA000741FF07B017A0779DA12C312752B228522
:102DB0002B2AE52A6032FFC3E52B9FFFE49400FE37
:102DC00074DA2FF58274073EF583E0FFE52AFDE50E
:102DD0002BC39DFDE49400FC74D12DF58274003C5E
:102DE000F583EFF0152A80CA74D1252BF582E434DF
:102DF00000F5837401F0E4900100F0A304F0900B5F
:102E000019E0900102F0900B1914602614603F1431
:102E100060582403706E900ADF74FFF0A3743EF0D4
:102E2000A37433F07B017A0779FC12C312752B1B54
:102E30008052900ADF74FFF0A3743EF0A3743EF05A
:102E40007B017A0779FC12C312752B168036900A23
:102E5000DF74FFF0A3743EF0A37444F07B017A07A3
:102E600079FC12C312752B1A801A900ADF74FFF0D6
:102E7000A3743EF0A3744EF07B017A0779FC12C371
:102E800012752B27852B2AE52A6032FFC3E52B9F7D
:102E9000FFE49400FE74FC2FF58274073EF583E096
:102EA000FFE52AFDE52BC39DFDE49400FC74032D92
:102EB000F58274013CF583EFF0152A80CA7403256E
:102EC0002BF582E43401F5837402F0900132F0A313
:102ED00004F0E4F52AE52AC39403501E741A252A47
:102EE000F582E4340BF583E0FF7434252AF582E49F
:102EF0003401F583EFF0052A80DB852F2AE52A606F
:102F000032FFC3E52F9FFFE49400FE74232FF58268
:102F100074083EF583E0FFE52AFDE52FC39DFDE43F
:102F20009400FC74372DF58274013CF583EFF015A5
:102F30002A80CA9001647403F0A3F0E4F52AE52A1C
:102F4000C394035044E52A25E025E0241DF582E4DE
:102F5000340BF583E0FCA3E0FDA3E0FEA3E0FF74E7
:102F60001A252AF582E4340BF583E0F9F81280E59E
:102F700075F002E52AA42466F582E5F03401F583B4
:102F8000EEF0A3EFF0052A80B585302AE52A6032FD
:102F9000FFC3E5309FFFE49400FE74342FF5827484
:102FA000083EF583E0FFE52AFDE530C39DFDE4948E
:102FB00000FC746C2DF58274013CF583EFF0152A4A
:102FC00080CA9001967407F0A37403F0E4F52AE533
:102FD0002AC394035031E52A25E025E02429F5820F
:102FE000E4340BF583E0FCA3E0FDA3E0FEA3E0FFE7
:102FF00075F004E52AA42498F582E5F03401F58300
:10300000128146052A80C885312AE52A6032FFC32D
:10301000E5319FFFE49400FE744D2FF58274083E65
:10302000F583E0FFE52AFDE531C39DFDE49400FC56
:1030300074A42DF58274013CF583EFF0152A80CA43
:10304000E49001C8F0A304F0900B35E09001CAF0C1
:10305000900B35601C900ADF74FFF0A3743DF0A361
:1030600074D8F07B017A08795E12C312752B1C802C
:103070001A900ADF74FFF0A3743DF0A374DEF07BB6
:10308000017A08795E12C312752B1B852B2AE52A5B
:103090006032FFC3E52B9FFFE49400FE745E2FF5C2
:1030A0008274083EF583E0FFE52AFDE52BC39DFD14
:1030B000E49400FC74CB2DF58274013CF583EFF0B1
:1030C000152A80CA74CB252BF582E43401F583746C
:1030D00003F09001FA7405F0A37402F0E4F52AE518
:1030E0002AC39401400302316AE52A25E025E02441
:1030F00036F582E4340BF583E0FCA3E0FDA3E0FEAB
:10310000A3E0FF741A252AF582E4340BF583E0F975
:10311000F81280E575F008E52AA424FCF582E5F0B4
:103120003401F583128146E52A25E025E0243EF5A9
:1031300082E4340BF583E0FCA3E0FDA3E0FEA3E012
:10314000FF741A252AF582E4340BF583E0F9F812AE
:1031500080E575F008E52AA42400F582E5F0340244
:10316000F583128146052A0230DF85322AE52A607E
:1031700032FFC3E5329FFFE49400FE747A2FF5829C
:1031800074083EF583E0FFE52AFDE532C39DFDE4CA
:103190009400FC74042DF58274023CF583EFF01565
:1031A0002A80CA90022C7405F0A37402F0900B4A96
:1031B000E0FCA3E0FDA3E0FEA3E0FF90022E12815D
:1031C00046900B46E0FCA3E0FDA3E0FEA3E0FF90E9
:1031D000023212814685332AE52A6032FFC3E53385
:1031E0009FFFE49400FE74972FF58274083EF583E8
:1031F000E0FFE52AFDE533C39DFDE49400FC743651
:103200002DF58274023CF583EFF0152A80CA9002F6
:103210005E7403F0A37401F0900B4EE0FFA3E09006
:103220000260CFF0A3EFF085342AE52A6032FFC3B5
:10323000E5349FFFE49400FE74B22FF58274083EDB
:10324000F583E0FFE52AFDE534C39DFDE49400FC31
:1032500074622DF58274023CF583EFF0152A80CA62
:10326000E4900290F0A304F0900B54E0900292F0EE
:10327000900B54601C900ADF74FFF0A3743DF0A320
:1032800074D8F07B017A0879C612C312752B258099
:103290001A900ADF74FFF0A3743DF0A374DEF07B94
:1032A000017A0879C612C312752B24852B2AE52AC8
:1032B0006032FFC3E52B9FFFE49400FE74C62FF538
:1032C0008274083EF583E0FFE52AFDE52BC39DFDF2
:1032D000E49400FC74932DF58274023CF583EFF0C6
:1032E000152A80CA7493252BF582E43402F5837481
:1032F00003F09002C204F0A37402F0900B50E0FFC0
:10330000A3E09002C4CFF0A3EFF0900B52E0FFA334
:10331000E09002C6CFF0A3EFF085352AE52A6032AF
:10332000FFC3E5359FFFE49400FE74EB2FF5827434
:10333000083EF583E0FFE52AFDE535C39DFDE494F5
:1033400000FC74C82DF58274023CF583EFF0152A59
:1033500080CA9002F47406F0A37402F0900B55E05A
:10336000FCA3E0FDA3E0FEA3E0FF9002F61281467D
:10337000900B59E0FCA3E0FDA3E0FEA3E0FF900268
:10338000FA12814685362AE52A6032FFC3E5369F68
:10339000FFE49400FE74002FF58274093EF583E08B
:1033A000FFE52AFDE536C39DFDE49400FC74FE2D87
:1033B000F58274023CF583EFF0152A80CA9003264B
:1033C0007402F0A314F0900B5DE0900328F08537B1
:1033D0002AE52A6032FFC3E5379FFFE49400FE74BC
:1033E000152FF58274093EF583E0FFE52AFDE537E8
:1033F000C39DFDE49400FC74292DF58274033CF513
:1034000083EFF0152A80CAE4900358F0A304F090EB
:103410000B5EE090035AF0900B5E601C900ADF7424
:10342000FFF0A3743DF0A374D8F07B017A097929E9
:1034300012C312752B24801A900ADF74FFF0A37454
:103440003DF0A374DEF07B017A09792912C312756D
:103450002B23852B2AE52A6032FFC3E52B9FFFE44F
:103460009400FE74292FF58274093EF583E0FFE590
:103470002AFDE52BC39DFDE49400FC745B2DF582D1
:1034800074033CF583EFF0152A80CA745B252BF595
:1034900082E43403F5837403F090038A7401F0A38B
:1034A000F0900B5FE090038CF085382AE52A6032BB
:1034B000FFC3E5389FFFE49400FE744D2FF582743E
:1034C000093EF583E0FFE52AFDE538C39DFDE49460
:1034D00000FC748D2DF58274033CF583EFF0152A02
:1034E00080CAE49003BCF0A304F0900B60E090036A
:1034F000BEF0900B60601C900ADF74FFF0A3743D77
:10350000F0A374D8F07B017A09796612C312752B87
:1035100018801A900ADF74FFF0A3743DF0A374DEE4
:10352000F07B017A09796612C312752B17852B2A55
:10353000E52A6032FFC3E52B9FFFE49400FE74662A
:103540002FF58274093EF583E0FFE52AFDE52BC3E4
:103550009DFDE49400FC74BF2DF58274033CF5835B
:10356000EFF0152A80CA74BF252BF582E43403F5E9
:10357000837403F09003EE7405F0A37401F0900BD4
:103580007BE0FCA3E0FDA3E0FEA3E0FF9003F012CC
:103590008146853D2AE52A6032FFC3E53D9FFFE471
:1035A0009400FE747E2FF58274093EF583E0FFE5FA
:1035B0002AFDE53DC39DFDE49400FC74F42DF582E5
:1035C00074033CF583EFF0152A80CAE4900420F0E0
:1035D000A304F0900B7FE0900422F0900B7FB401E5
:1035E00017900ADF74FFF0A3743EF0A37465F07BBC
:1035F000017A09799F12C312900B7FE07017900A2D
:10360000DF74FFF0A3743EF0A3746CF07B017A09C1
:10361000799F12C312752B1A852B2AE52A6032FF77
:10362000C3E52B9FFFE49400FE749F2FF58274097D
:103630003EF583E0FFE52AFDE52BC39DFDE4940004
:10364000FC74232DF58274043CF583EFF0152A8079
:10365000CA7423252BF582E43404F5837404F090B6
:1036600004527407F0A314F0E4F52AE52AC3940683
:103670005031E52A25E025E02461F582E4340BF59C
:1036800083E0FCA3E0FDA3E0FEA3E0FF75F004E50A
:103690002AA42454F582E5F03404F583128146050A
:1036A0002A80C885392AE52A6032FFC3E5399FFFA1
:1036B000E49400FE74B92FF58274093EF583E0FFAF
:1036C000E52AFDE539C39DFDE49400FC746C2DF5FD
:1036D0008274043CF583EFF0152A80CA9004847448
:1036E00005F0A37401F0900B80E0FCA3E0FDA3E0E3
:1036F000FEA3E0FF90048612814685402AE52A60F9
:1037000032FFC3E5409FFFE49400FE74CE2FF582A4
:1037100074093EF583E0FFE52AFDE540C39DFDE425
:103720009400FC748A2DF58274043CF583EFF01547
:103730002A80CA9004B67405F0A37401F0900B843B
:10374000E0FCA3E0FDA3E0FEA3E0FF9004B812813B
:103750004685412AE52A6032FFC3E5419FFFE49494
:1037600000FE74E52FF58274093EF583E0FFE52A3B
:10377000FDE541C39DFDE49400FC74BC2DF582740D
:10378000043CF583EFF0152A80CA853A2AE52A60C1
:1037900032FFC3E53A9FFFE49400FE74FC2FF582EC
:1037A00074093EF583E0FFE52AFDE53AC39DFDE49B
:1037B0009400FC74E82DF58274043CF583EFF01559
:1037C0002A80CA853B2AE52A6032FFC3E53B9FFF7A
:1037D000E49400FE745F2FF582740A3EF583E0FFE7
:1037E000E52AFDE53BC39DFDE49400FC747E2DF5C8
:1037F0008274053CF583EFF0152A80CA853C2AE5E2
:103800002A6032FFC3E53C9FFFE49400FE749E2FC4
:10381000F582740A3EF583E0FFE52AFDE53CC39D91
:10382000FDE49400FC74142DF58274063CF583EFDE
:10383000F0152A80CA853F2AE52A6032FFC3E53F9A
:103840009FFFE49400FE74C82FF582740A3EF5834E
:10385000E0FFE52AFDE53FC39DFDE49400FC74AA6A
:103860002DF58274063CF583EFF0152A80CA7B01A2
:103870007A007904900771E0A3E014FD12CBD69092
:103880000771E0FCA3E0FD2403F58274003CF5839E
:10389000EFF07B017A00790412B78622900CA3E046
:1038A000900BA2F022900B19E064036064E4FFFE29
:1038B0007D807C47900CA3E0F8A3E0F9A3E0FAA395
:1038C000E0FB127A5A127CB7900BA3128146E4FFF8
:1038D000FE7D807C47900CA7E0F8A3E0F9A3E0FA16
:1038E000A3E0FB127A5A127CB7900BA7128146E430
:1038F000FFFE7D807C47900CABE0F8A3E0F9A3E0ED
:10390000FAA3E0FB127A5A127CB7900BAB128146F5
:1039100022E4FFFE7D807C47900CA3E0F8A3E0F951
:10392000A3E0FAA3E0FB127A5A127CB7900BBB1209
:103930008146E4FFFE7D807C47900CA7E0F8A3E081
:10394000F9A3E0FAA3E0FB127A5A127CB7900BBFFE
:10395000128146E4FFFE7D807C47900CABE0F8A32B
:10396000E0F9A3E0FAA3E0FB127A5A127CB7900BBD
:10397000C312814622900B19E064036064E4FFFEE9
:103980007D807C47900CA3E0F8A3E0F9A3E0FAA3C4
:10399000E0FB127A5A127CB7900BAF128146E4FF1B
:1039A000FE7D807C47900CA7E0F8A3E0F9A3E0FA45
:1039B000A3E0FB127A5A127CB7900BB3128146E453
:1039C000FFFE7D807C47900CABE0F8A3E0F9A3E01C
:1039D000FAA3E0FB127A5A127CB7900BB712814619
:1039E00022E4FFFE7D807C47900CA3E0F8A3E0F981
:1039F000A3E0FAA3E0FB127A5A127CB7900BC7122D
:103A00008146E4FFFE7D807C47900CA7E0F8A3E0B0
:103A1000F9A3E0FAA3E0FB127A5A127CB7900BCB21
:103A2000128146E4FFFE7D807C47900CABE0F8A35A
:103A3000E0F9A3E0FAA3E0FB127A5A127CB7900BEC
:103A4000CF12814622900CA3E06007900BD3740341
:103A5000F022E4900BD3F022900CA3E0900BD4F072
:103A600022900CA3E0900BD5F022E4F52AE52AC3BE
:103A700094034003023DD774A3252AF582E4340C55
:103A8000F583E0FF74D6252AF582E4340BF583EF45
:103A9000F0052A80D8E4F52AE52AC394035071E59D
:103AA0002A25E024A3F582E4340CF583E0FEA3E0AC
:103AB000FFEE3395E0FDFCE52A25E025E024D9F56D
:103AC00082E4340BF583128146E52A25E025E024C3
:103AD000D9F582E4340BF583C083C082E0FCA3E017
:103AE000FDA3E0FEA3E0FF74D6252AF582E4340BA3
:103AF000F583E0F9F81280F9D082D0831281467400
:103B000064252AF582E4340DF583E4F0052A8088E3
:103B1000D20A22E4F52AE52AC394034003023DD7E2
:103B2000E52A25E025E024A3F582E4340CF583E0C2
:103B3000FCA3E0FDA3E0FEA3E0FFE52A25E025E0ED
:103B400024E5F582E4340BF583128146052A80C60C
:103B5000900CA3E0900BF1F022E4F52AE52AC3943F
:103B6000024003023DD7E52A75F008A424A3F5829C
:103B7000E4340CF583E0FCA3E0FDA3E0FEA3E0FF4A
:103B8000E52A25E025E024F2F582E4340BF58312E2
:103B90008146E52A75F008A424A7F582E4340CF5E3
:103BA00083E0FCA3E0FDA3E0FEA3E0FFE52A25E01F
:103BB00025E024FAF582E4340BF583128146E52AE8
:103BC00025E025E024F2F582E4340BF583C083C0C0
:103BD00082E0FCA3E0FDA3E0FEA3E0FF74D6252A6B
:103BE000F582E4340BF583E0F9F81280F9D082D045
:103BF00083128146E52A25E025E024FAF582E434A3
:103C00000BF583C083C082E0FCA3E0FDA3E0FEA32C
:103C1000E0FF74D6252AF582E4340BF583E0F9F849
:103C20001280F9D082D083128146052A023B5C9033
:103C30000CA3E0FCA3E0FDA3E0FEA3E0FF9007736C
:103C4000128146E4FFFEFDFC900773E0F8A3E0F963
:103C5000A3E0FAA3E0FBD31280AB5014900773E00B
:103C6000FCA3E0FDA3E0FEA3E0FF900C061281465A
:103C7000900CA7E0FCA3E0FDA3E0FEA3E0FF90070B
:103C800073128146E4FFFEFDFC900773E0F8A3E0A9
:103C9000F9A3E0FAA3E0FBC31280AB5003023DD7C7
:103CA000900773E0FCA3E0FDA3E0FEA3E0FF900C0F
:103CB0000212814622900CA3E0FFA3E0900C0ACFF1
:103CC000F0A3EFF022900CA3E0900C10F022900CE7
:103CD000A3E0FFA3E0900C0CCFF0A3EFF0900CA5B5
:103CE000E0FFA3E0900C0ECFF0A3EFF022900CA326
:103CF000E0FCA3E0FDA3E0FEA3E0FF900C11128125
:103D000046900CA7E0FCA3E0FDA3E0FEA3E0FF903B
:103D10000C1512814622900CA3E0900C19F0229011
:103D20000CA3E0900777F06007900C1A7401F02262
:103D3000E4900C1AF022900CA3E0900C1BF022905F
:103D40000CA3E0900C1CF022900CA3E0FCA3E0FD7F
:103D5000A3E0FEA3E0FF900C3712814622900CA353
:103D6000E0900777F06007900C3B7401F022E4903C
:103D70000C3BF022E4F52AE52AC394065059E52AC3
:103D800025E025E024A3F582E4340CF583E0FCA3D0
:103D9000E0FDA3E0FEA3E0FFE52A25E025E0241DE9
:103DA000F582E4340CF583128146052A80C9900C13
:103DB000A3E0FCA3E0FDA3E0FEA3E0FF900C3C1217
:103DC000814622900CA3E0FCA3E0FDA3E0FEA3E06B
:103DD000FF900C4012814622205945530000204E8E
:103DE0004F00002055736200002048616E646C65CE
:103DF000000020454D472070726F706F7274696FBC
:103E00006E616C000020454D4720696E74656772D5
:103E1000616C000020454D4720464346530000207A
:103E2000454D47204643465320416476616E6365A5
:103E300064000020506F736974696F6E0000205039
:103E4000574D00002043757272656E74000020505B
:103E50006F736974696F6E20616E6420437572724E
:103E6000656E740000205055534800002050554C9A
:103E70004C0000000D0A004669726D776172652082
:103E800076657273696F6E3A200053482D50524F19
:103E90002076362E312E31206D6F642E204E4F2F1E
:103EA0004E4320772F6163742E206C657665720017
:103EB0002E0D0A0D0A0044455649434520494E46F9
:103EC0004F0D0A0049443A2025640D0A0050574D11
:103ED0002072657363616C696E67206163746976D3
:103EE0006174696F6E3A20005945530A004E4F0ABB
:103EF0000050574D204C696D69743A2025640D0AB5
:103F0000004D4F544F5220494E464F0D0A004D6F01
:103F1000746F72207265666572656E636500202D30
:103F20002043757272656E74733A2000202D205004
:103F3000776D3A2000202D20506F736974696F6E81
:103F40003A2000256420004D6F746F7220656E6109
:103F5000626C65643A20005945530D0A004E4F0DBE
:103F60000A000D0A4D4541535552454D454E545397
:103F700020494E464F0D0A0053656E736F722076CE
:103F8000616C75653A0D0A002564202D3E2025647C
:103F900000566F6C7461676520286D56293A20259C
:103FA0006C640043757272656E7420286D41293A05
:103FB00020256C64000D0A44455649434520504174
:103FC00052414D45544552530D0A00504944204337
:103FD0006F6E74726F6C6C65723A0D0A0050202D12
:103FE0003E20256620200049202D3E2025662020E9
:103FF0000044202D3E2025660D0A0043757272652F
:104000006E742050494420436F6E74726F6C6C65FF
:10401000723A0D0A00537461727475702061637492
:1040200069766174696F6E3A205945530D0A0053E1
:104030007461727475702061637469766174696FFC
:104040006E3A204E4F0D0A00496E707574206D6FE8
:1040500064653A205553420D0A00496E707574200C
:104060006D6F64653A2048616E646C650D0A0049A5
:104070006E707574206D6F64653A20454D472070F1
:10408000726F706F7274696F6E616C0D0A00496EA9
:10409000707574206D6F64653A20454D4720696ED8
:1040A00074656772616C0D0A00496E707574206DDD
:1040B0006F64653A20454D4720464346530D0A003C
:1040C000496E707574206D6F64653A20454D4720C8
:1040D00046434653204144560D0A00436F6E7472A6
:1040E0006F6C206D6F64653A20506F736974696FEF
:1040F0006E0D0A00436F6E74726F6C206D6F646595
:104100003A2050574D0D0A00436F6E74726F6C2049
:104110006D6F64653A2043757272656E740D0A00A6
:10412000436F6E74726F6C206D6F64653A20506FD0
:10413000736974696F6E20616E6420437572726575
:104140006E740D0A004162736F6C75746520656E44
:10415000636F64657220706F736974696F6E3A2063
:104160005945530D0A004162736F6C757465206583
:104170006E636F64657220706F736974696F6E3AF5
:10418000204E4F0D0A004D6F746F722D48616E64A2
:104190006C6520526174696F3A2025640D0A0053E2
:1041A000656E736F72207265736F6C7574696F6E74
:1041B0003A0D0A004D6561737572656D656E742008
:1041C0004F66667365743A0D0A002564202D3E2003
:1041D000256C64004D6561737572656D656E742044
:1041E0004D756C7469706C6965723A0D0A002564CE
:1041F000202D3E2025660043757272656E74206C1A
:104200006F6F6B7570207461626C653A0D0A007097
:104210005B305D202D20705B325D3A2025662C20BE
:1042200025662C2025660A00705B335D202D2070EA
:104230005B355D3A2025662C2025662C2025660AF4
:1042400000506F736974696F6E206C696D697420BA
:104250006163746976653A20256400506F736974F0
:10426000696F6E206C696D6974206D6F746F722058
:1042700025643A20696E66202D3E20256C6420203E
:1042800000737570202D3E20256C640D0A004D6171
:1042900078207374657020706F7320616E64206E77
:1042A00065673A2025642025640043757272656E47
:1042B00074206C696D69743A20256400454D47206F
:1042C0007468726573686F6C6473205B30202D2096
:1042D000313032345D3A2025752C20257500454D4E
:1042E00047206D61782076616C756573205B3020A6
:1042F0002D20343039365D3A20256C752C20256C04
:10430000750043616C6962726174696F6E20656EDD
:1043100061626C65643A205945530D0A0043616C33
:104320006962726174696F6E20656E61626C65644A
:104330003A204E4F0D0A00454D47206D617820739D
:10434000706565643A20256400436C6F73696E671D
:10435000206D6F64653A204E6F726D616C6C7920D0
:10436000636C6F7365640D0A00436C6F73696E67ED
:10437000206D6F64653A204E6F726D616C6C7920B0
:104380006F70656E0D0A004C6576657220737769F3
:10439000746368696E67206D6F64653A2050554C90
:1043A0004C0D0A004C6576657220737769746368FA
:1043B000696E67206D6F64653A20505553480D0A49
:1043C0000064656275673A20256C64000000000097
:1043D00000000000000000000000000000000000DD
:1043E00000000000000000000000000000000000CD
:1043F00000000000000000000000000000000000BD
:1044000000000000000000000000000000000000AC
:104FE00000000000000000000031202D2044657604
:104FF0006963652049443A0032202D20506F73695F
:1050000074696F6E20504944205B502C20492C203D
:10501000445D3A0033202D2043757272656E742012
:10502000504944205B502C20492C20445D3A0034E8
:10503000202D2053746172747570204163746976F9
:105040006174696F6E3A000000000035202D204920
:105050006E707574206D6F64653A0000000000008A
:105060000000000000000000000000000036202DBD
:1050700020436F6E74726F6C206D6F64653A000030
:105080000000000000000000000000000000000020
:105090000000000037202D205265736F6C75746915
:1050A0006F6E733A0038202D204D656173757265FF
:1050B0006D656E74204F6666736574733A003920AF
:1050C0002D204D756C7469706C696572733A00318E
:1050D00030202D20506F732E206C696D6974206113
:1050E00063746976653A00000000003131202D209C
:1050F000506F732E206C696D697473205B696E66E6
:105100002C207375705D3A003132202D204D61786E
:10511000207374657073205B6E65672C20706F73ED
:105120005D3A003133202D2043757272656E742014
:105130006C696D69743A003134202D20454D47204B
:1051400063616C6962726174696F6E206F6E207347
:105150007461727475703A00000000003135202DC2
:1051600020454D47207468726573686F6C64733AAC
:10517000003136202D20454D47206D617820766125
:105180006C7565733A003137202D20454D47206DF1
:1051900061782073706565643A003138202D2041B4
:1051A00062736F6C75746520656E636F64657220E1
:1051B000706F736974696F6E3A00000000003139D6
:1051C000202D204D6F746F722068616E646C6520B5
:1051D000726174696F3A003230202D2050574D2093
:1051E00072657363616C696E673A0000000000329B
:1051F00031202D2041637469766174696F6E206C73
:1052000065766572207468726573686F6C643A00C5
:105210003232202D20537769746368696E67206D80
:105220006F64653A0000000000003233202D2043F7
:10523000757272656E74206C6F6F6B75703A0032A8
:1052400034202D20537769746368206C696D69740C
:1052500020696E663A003235202D205377697463D9
:1052600068206C696D6974207375703A0030202D68
:105270003E205573620A31202D3E2048616E646CD9
:10528000650A32202D3E20454D472070726F706FA9
:105290007274696F6E616C0A33202D3E20454D4754
:1052A00020496E74656772616C0A34202D3E20457A
:1052B0004D4720464346530A35202D3E20454D4755
:1052C000204643465320416476616E6365640A005C
:1052D00030202D3E20506F736974696F6E0A312043
:1052E0002D3E2050574D0A32202D3E2043757272BC
:1052F000656E740A33202D3E20506F736974696F98
:105300006E20616E642043757272656E740A00309F
:10531000202D3E2044656163746976617465205B6D
:105320004E4F5D0A31202D3E2041637469766174D1
:1053300065205B5945535D0A0030202D3E20507595
:105340006C6C0A31202D3E20507573680A9004B4AD
:10535000EBF0A3EAF0A3E9F0900AE6E064FA700348
:105360000268799004B4E0FBA3E0FAA3E0F8AC0291
:10537000AD037BFF7A3E7973128383900ADF74FF5B
:10538000F0A3743EF0A37474F09004B4E0FBA3E0C7
:10539000FAA3E0F912C312900ADF74FFF0A3743E7F
:1053A000F0A37477F09004B4E0FBA3E0FAA3E0F973
:1053B00012C312900ADF74FFF0A3743EF0A3748A44
:1053C000F09004B4E0FBA3E0FAA3E0F912C312905A
:1053D0000ADF74FFF0A3743EF0A374B0F09004B43D
:1053E000E0FBA3E0FAA3E0F912C312900ADF74FF16
:1053F000F0A3743EF0A374B6F09004B4E0FBA3E015
:10540000FAA3E0F912C31290052074FFF0A3743ED2
:10541000F0A374C4F0900AE6E0FF900523E4F0A343
:10542000EFF07B017A0479B9129291900ADF74014E
:10543000F0A37404F0A374B9F09004B4E0FBA3E00B
:10544000FAA3E0F912C312900ADF74FFF0A3743ECE
:10545000F0A374CDF09004B4E0FBA3E0FAA3E0F96C
:1054600012C312900B60E0B4011E900ADF74FFF0CB
:10547000A3743EF0A374E8F09004B4E0FBA3E0FA58
:10548000A3E0F912C312801C900ADF74FFF0A3742A
:105490003EF0A374EDF09004B4E0FBA3E0FAA3E0C7
:1054A000F912C31290052074FFF0A3743EF0A374A8
:1054B000F1F0900D87E0FF900523E4F0A3EFF07B7F
:1054C000017A0479B9129291900ADF7401F0A37401
:1054D00004F0A374B9F09004B4E0FBA3E0FAA3E0F5
:1054E000F912C312900ADF74FFF0A3743EF0A374A4
:1054F00074F09004B4E0FBA3E0FAA3E0F912C31245
:10550000900ADF74FFF0A3743FF0A37401F09004DD
:10551000B4E0FBA3E0FAA3E0F912C312900ADF742F
:10552000FFF0A3743FF0A3740EF09004B4E0FBA36B
:10553000E0FAA3E0F912C312900BD5E0B4021E907A
:105540000ADF74FFF0A3743FF0A3741EF09004B45C
:10555000E0FBA3E0FAA3E0F912C3128041900BD55F
:10556000E0B4011E900ADF74FFF0A3743FF0A3744F
:105570002CF09004B4E0FBA3E0FAA3E0F912C3120C
:10558000801C900ADF74FFF0A3743FF0A37435F021
:105590009004B4E0FBA3E0FAA3E0F912C312E49094
:1055A00004B7F0A3F0C39004B8E094029004B7E00D
:1055B000648094804003025709900BD5E064027028
:1055C0005F90052074FFF0A3743FF0A37443F09044
:1055D00004B7E0FEA3E07802C333CE33CED8F9247B
:1055E00090F582740B3EF583E0A3E0A3E0FFA3E017
:1055F000900523CFF0A3EFF07B017A0479B91292E2
:1056000091900ADF7401F0A37404F0A374B9F090D0
:1056100004B4E0FBA3E0FAA3E0F912C3120256F8C7
:10562000900BD5E06401705E90052074FFF0A374C8
:105630003FF0A37443F09004B7E0FEA3E07802C308
:1056400033CE33CED8F92498F582740B3EF583E03F
:10565000A3E0A3E0FFA3E0900523CFF0A3EFF07B4E
:10566000017A0479B9129291900ADF7401F0A3745F
:1056700004F0A374B9F09004B4E0FBA3E0FAA3E053
:10568000F912C312807290052074FFF0A3743FF0EA
:10569000A37443F09004B7E0FAA3E0FBAE027802F3
:1056A000C333CE33CED8F92488F582740B3EF5830C
:1056B000E0FCA3E0FDA3E0FEA3E0FF741A2BF5825B
:1056C000740B3AF583E0F9F81280E5900523EEF0CB
:1056D000A3EFF07B017A0479B9129291900ADF74FA
:1056E00001F0A37404F0A374B9F09004B4E0FBA338
:1056F000E0FAA3E0F912C3129004B8E004F07006D7
:105700009004B7E004F00255A5900ADF74FFF0A3FF
:10571000743EF0A37474F09004B4E0FBA3E0FAA329
:10572000E0F912C312900ADF74FFF0A3743EF0A3F5
:105730007474F09004B4E0FBA3E0FAA3E0F912C3A0
:105740001290052074FFF0A3743FF0A37447F07B20
:10575000017A0479B9129291900BA0E05403601978
:10576000900ADF74FFF0A3743FF0A37457F07B013D
:105770007A0479B912C3128017900ADF74FFF0A37C
:10578000743FF0A3745DF07B017A0479B912C312FF
:10579000900ADF7401F0A37404F0A374B9F09004CC
:1057A000B4E0FBA3E0FAA3E0F912C312900ADF749D
:1057B000FFF0A3743FF0A37462F09004B4E0FBA385
:1057C000E0FAA3E0F912C312900ADF74FFF0A374A9
:1057D0003FF0A37478F09004B4E0FBA3E0FAA3E0F8
:1057E000F912C312E49004B7F0A3F0C39004B8E038
:1057F00094039004B7E06480948040030258B19011
:10580000052074FFF0A3743FF0A37488F09004B7F0
:10581000E0FCA3E0FD2401FEE43C900523F0A3CED0
:10582000F0EDAE047802C333CE33CED8F92450F570
:1058300082740D3EF583E0FCA3E0FDA3E0FEA3E04F
:10584000FF9004B7E0FAA3E0241AF582740B3AF54E
:1058500083E0F9F81280E5900525EEF0A3EFF07BE8
:10586000017A0479B9129291900ADF7401F0A3745D
:1058700004F0A374B9F09004B4E0FBA3E0FAA3E051
:10588000F912C312900ADF74FFF0A3743EF0A37400
:1058900074F09004B4E0FBA3E0FAA3E0F912C312A1
:1058A0009004B8E004F070069004B7E004F00257EA
:1058B000EB90052074FFF0A3743FF0A37491F09077
:1058C0000C83E0FCA3E0FDA3E0FEA3E0FF90052332
:1058D0001281467B017A0479B9129291900ADF74A1
:1058E00001F0A37404F0A374B9F09004B4E0FBA336
:1058F000E0FAA3E0F912C312900ADF74FFF0A37478
:105900003EF0A37474F09004B4E0FBA3E0FAA3E0CB
:10591000F912C31290052074FFF0A3743FF0A37432
:10592000A3F0900D5CE0FCA3E0FDA3E0FEA3E0FF8C
:105930009005231281467B017A0479B912929190E5
:105940000ADF7401F0A37404F0A374B9F09004B4F6
:10595000E0FBA3E0FAA3E0F912C312900ADF74FFA0
:10596000F0A3743EF0A37474F09004B4E0FBA3E0E1
:10597000FAA3E0F912C312900ADF74FFF0A3743F98
:10598000F0A374B5F09004B4E0FBA3E0FAA3E0F94F
:1059900012C312900ADF74FFF0A3743FF0A374CB1C
:1059A000F09004B4E0FBA3E0FAA3E0F912C3129074
:1059B0000B19E064037003025ABC90052074FFF0D9
:1059C000A3743FF0A374DDF0900AE7E0FCA3E0FDD0
:1059D000A3E0FEA3E0FFEC127C79E4FBFA79807887
:1059E00047127B639005231281467B017A0479B9C3
:1059F000129291900ADF7401F0A37404F0A374B9B9
:105A0000F09004B4E0FBA3E0FAA3E0F912C3129013
:105A1000052074FFF0A3743FF0A374E7F0900AEB45
:105A2000E0FCA3E0FDA3E0FEA3E0FFEC127C79E440
:105A3000FBFA79807847127B639005231281467BBD
:105A4000017A0479B9129291900ADF7401F0A3747B
:105A500004F0A374B9F09004B4E0FBA3E0FAA3E06F
:105A6000F912C31290052074FFF0A3743FF0A374E1
:105A7000F1F0900AEFE0FCA3E0FDA3E0FEA3E0FF5D
:105A8000EC127C79E4FBFA79807847127B6390050D
:105A9000231281467B017A0479B9129291900ADF30
:105AA0007401F0A37404F0A374B9F09004B4E0FBA3
:105AB000A3E0FAA3E0F912C312025BBB90052074C5
:105AC000FFF0A3743FF0A374DDF0900AFFE0FCA3A5
:105AD000E0FDA3E0FEA3E0FFEC127C79E4FBFA79A1
:105AE000807847127B639005231281467B017A04FC
:105AF00079B9129291900ADF7401F0A37404F0A3B3
:105B000074B9F09004B4E0FBA3E0FAA3E0F912C387
:105B10001290052074FFF0A3743FF0A374E7F09097
:105B20000B03E0FCA3E0FDA3E0FEA3E0FFEC127C8E
:105B300079E4FBFA79807847127B63900523128120
:105B4000467B017A0479B9129291900ADF7401F0D0
:105B5000A37404F0A374B9F09004B4E0FBA3E0FADA
:105B6000A3E0F912C31290052074FFF0A3743FF074
:105B7000A374F1F0900B07E0FCA3E0FDA3E0FEA30B
:105B8000E0FFEC127C79E4FBFA79807847127B63C2
:105B90009005231281467B017A0479B91292919083
:105BA0000ADF7401F0A37404F0A374B9F09004B494
:105BB000E0FBA3E0FAA3E0F912C312900ADF74FF3E
:105BC000F0A3743FF0A374FBF09004B4E0FBA3E0F7
:105BD000FAA3E0F912C312900B19E06403700302F8
:105BE0005CE490052074FFF0A3743FF0A374DDF033
:105BF000900AF3E0FCA3E0FDA3E0FEA3E0FFEC12BB
:105C00007C79E4FBFA79807847127B639005231254
:105C100081467B017A0479B9129291900ADF74016E
:105C2000F0A37404F0A374B9F09004B4E0FBA3E013
:105C3000FAA3E0F912C31290052074FFF0A3743F99
:105C4000F0A374E7F0900AF7E0FCA3E0FDA3E0FE08
:105C5000A3E0FFEC127C79E4FBFA79807847127BB1
:105C6000639005231281467B017A0479B9129291DF
:105C7000900ADF7401F0A37404F0A374B9F09004E7
:105C8000B4E0FBA3E0FAA3E0F912C312900520747C
:105C9000FFF0A3743FF0A374F1F0900AFBE0FCA3C3
:105CA000E0FDA3E0FEA3E0FFEC127C79E4FBFA79CF
:105CB000807847127B639005231281467B017A042A
:105CC00079B9129291900ADF7401F0A37404F0A3E1
:105CD00074B9F09004B4E0FBA3E0FAA3E0F912C3B6
:105CE00012025DE390052074FFF0A3743FF0A374EB
:105CF000DDF0900B0BE0FCA3E0FDA3E0FEA3E0FFD2
:105D0000EC127C79E4FBFA79807847127B6390058A
:105D1000231281467B017A0479B9129291900ADFAD
:105D20007401F0A37404F0A374B9F09004B4E0FB20
:105D3000A3E0FAA3E0F912C31290052074FFF0A3C8
:105D4000743FF0A374E7F0900B0FE0FCA3E0FDA319
:105D5000E0FEA3E0FFEC127C79E4FBFA798078475F
:105D6000127B639005231281467B017A0479B91274
:105D70009291900ADF7401F0A37404F0A374B9F057
:105D80009004B4E0FBA3E0FAA3E0F912C31290057B
:105D90002074FFF0A3743FF0A374F1F0900B13E0B4
:105DA000FCA3E0FDA3E0FEA3E0FFEC127C79E4FBA2
:105DB000FA79807847127B639005231281467B0134
:105DC0007A0479B9129291900ADF7401F0A37404F5
:105DD000F0A374B9F09004B4E0FBA3E0FAA3E0F9F7
:105DE00012C312900ADF74FFF0A3743EF0A3747420
:105DF000F09004B4E0FBA3E0FAA3E0F912C3129020
:105E00000B17E0B4031E900ADF74FFF0A37440F098
:105E1000A37415F09004B4E0FBA3E0FAA3E0F91238
:105E2000C312801C900ADF74FFF0A37440F0A374C7
:105E30002FF09004B4E0FBA3E0FAA3E0F912C31240
:105E4000900B18E014603814605314606E147003E3
:105E5000025ED9147003025EF724056003025F132B
:105E6000900ADF74FFF0A37440F0A37448F090042C
:105E7000B4E0FBA3E0FAA3E0F912C312025F1390AF
:105E80000ADF74FFF0A37440F0A3745AF09004B4D6
:105E9000E0FBA3E0FAA3E0F912C3128076900ADFD8
:105EA00074FFF0A37440F0A3746FF09004B4E0FBAF
:105EB000A3E0FAA3E0F912C3128058900ADF74FF3E
:105EC000F0A37440F0A3748EF09004B4E0FBA3E060
:105ED000FAA3E0F912C312803A900ADF74FFF0A32C
:105EE0007440F0A374A9F09004B4E0FBA3E0FAA31B
:105EF000E0F912C312801C900ADF74FFF0A3744013
:105F0000F0A374C0F09004B4E0FBA3E0FAA3E0F9BE
:105F100012C312900B19E014602814604314605EE1
:105F200024037076900ADF74FFF0A37440F0A3742A
:105F3000DBF09004B4E0FBA3E0FAA3E0F912C31293
:105F40008058900ADF74FFF0A37440F0A374F4F05B
:105F50009004B4E0FBA3E0FAA3E0F912C312803A84
:105F6000900ADF74FFF0A37441F0A37408F090046A
:105F7000B4E0FBA3E0FAA3E0F912C312801C900A7C
:105F8000DF74FFF0A37441F0A37420F09004B4E038
:105F9000FBA3E0FAA3E0F912C312900B5EE0601ECF
:105FA000900ADF74FFF0A37441F0A37445F09004ED
:105FB000B4E0FBA3E0FAA3E0F912C312801C900A3C
:105FC000DF74FFF0A37441F0A37466F09004B4E0B2
:105FD000FBA3E0FAA3E0F912C31290052074FFF0CE
:105FE000A37441F0A37486F0900B5FE0FE3395E05C
:105FF000900523F0A3CEF07B017A0479B912929137
:10600000900ADF7401F0A37404F0A374B9F0900453
:10601000B4E0FBA3E0FAA3E0F912C312900ADF7424
:10602000FFF0A37441F0A3749FF09004B4E0FBA3CD
:10603000E0FAA3E0F912C312E49004B7F0A3F0C3AE
:106040009004B8E094039004B7E064809480400327
:106050000260DB90052074FFF0A3743FF0A3748806
:10606000F09004B7E0FCA3E0FD2401FEE43C9005C1
:1060700023F0A3CEF0741A2DF582740B3CF583E067
:10608000FF900525E4F0A3EFF07B017A0479B912C3
:106090009291900ADF7401F0A37404F0A374B9F034
:1060A0009004B4E0FBA3E0FAA3E0F912C312900A53
:1060B000DF74FFF0A3743EF0A37474F09004B4E0B6
:1060C000FBA3E0FAA3E0F912C3129004B8E004F0D5
:1060D00070069004B7E004F002603F900ADF74FF9E
:1060E000F0A37441F0A374B4F09004B4E0FBA3E017
:1060F000FAA3E0F912C312E49004B7F0A3F0C3903E
:1061000004B8E094039004B7E064809480400302F4
:1061100061C290052074FFF0A37441F0A374CAF02B
:106120009004B7E0FCA3E0FD2401FEE43C900523CD
:10613000F0A3CEF0EDAE047802C333CE33CED8F95F
:10614000241DF582740B3EF583E0FCA3E0FDA3E083
:10615000FEA3E0FF9004B7E0FAA3E0241AF58274EE
:106160000B3AF583E0F9F81280E590052512814697
:106170007B017A0479B9129291900ADF7401F0A33D
:106180007404F0A374B9F09004B4E0FBA3E0FAA3A4
:10619000E0F912C312900ADF74FFF0A3743EF0A37B
:1061A0007474F09004B4E0FBA3E0FAA3E0F912C326
:1061B000129004B8E004F070069004B7E004F00216
:1061C00060FE900ADF74FFF0A37441F0A374D4F072
:1061D0009004B4E0FBA3E0FAA3E0F912C312E49048
:1061E00004B7F0A3F0C39004B8E094039004B7E0C0
:1061F00064809480400302629390052074FFF0A3B2
:106200007441F0A374EEF09004B7E0FCA3E0FD2429
:1062100001FEE43C900523F0A3CEF0EDAE0478023D
:10622000C333CE33CED8F92429F582740B3EF583DF
:10623000E0FCA3E0FDA3E0FEA3E0FF9005251281B2
:10624000467B017A0479B9129291900ADF7401F0C9
:10625000A37404F0A374B9F09004B4E0FBA3E0FAD3
:10626000A3E0F912C312900ADF74FFF0A3743EF0AA
:10627000A37474F09004B4E0FBA3E0FAA3E0F91275
:10628000C3129004B8E004F070069004B7E004F084
:106290000261E5900ADF74FFF0A37441F0A374F784
:1062A000F09004B4E0FBA3E0FAA3E0F912C312906B
:1062B000052074FFF0A37442F0A3740FF0900B61FB
:1062C000E0FCA3E0FDA3E0FEA3E0FF900523128124
:1062D00046900B65E0FCA3E0FDA3E0FEA3E0FF9089
:1062E0000527128146900B69E0FCA3E0FDA3E0FEC8
:1062F000A3E0FF90052B1281467B017A0479B91245
:106300009291900ADF7401F0A37404F0A374B9F0C1
:106310009004B4E0FBA3E0FAA3E0F912C3129005E5
:106320002074FFF0A37442F0A37428F0900B6DE08A
:10633000FCA3E0FDA3E0FEA3E0FF9005231281464D
:10634000900B71E0FCA3E0FDA3E0FEA3E0FF90054D
:1063500027128146900B75E0FCA3E0FDA3E0FEA3AD
:10636000E0FF90052B1281467B017A0479B91292E5
:1063700091900ADF7401F0A37404F0A374B9F09053
:1063800004B4E0FBA3E0FAA3E0F912C312900ADF21
:1063900074FFF0A3743EF0A37474F09004B4E0FBB7
:1063A000A3E0FAA3E0F912C31290052074FFF0A352
:1063B0007442F0A37441F0900BF1E0FF900523E4E8
:1063C000F0A3EFF07B017A0479B9129291900ADF81
:1063D0007401F0A37404F0A374B9F09004B4E0FB6A
:1063E000A3E0FAA3E0F912C312900ADF74FFF0A34E
:1063F000743EF0A37474F09004B4E0FBA3E0FAA33D
:10640000E0F912C312E49004B7F0A3F0C39004B80B
:10641000E094019004B7E064809480400302652416
:1064200090052074FFF0A37442F0A3745BF0900415
:10643000B7E0FCA3E0FD2401FEE43C900523F0A3BB
:10644000CEF0EDAE047802C333CE33CED8F924F2C9
:10645000F582740B3EF583E0FCA3E0FDA3E0FEA310
:10646000E0FF9004B7E0FAA3E024D6F582740B3A7B
:10647000F583E0F9F81280E59005251281467B014D
:106480007A0479B9129291900ADF7401F0A374042E
:10649000F0A374B9F09004B4E0FBA3E0FAA3E0F930
:1064A00012C31290052074FFF0A37442F0A374810C
:1064B000F09004B7E0FAA3E0FBAE027802C333CE5B
:1064C00033CED8F924FAF582740B3EF583E0FCA3B1
:1064D000E0FDA3E0FEA3E0FF74D62BF582740B3A37
:1064E000F583E0F9F81280E59005231281467B01DF
:1064F0007A0479B9129291900ADF7401F0A37404BE
:10650000F0A374B9F09004B4E0FBA3E0FAA3E0F9BF
:1065100012C3129004B8E004F070069004B7E004CF
:10652000F002640C90052074FFF0A37442F0A37491
:106530008EF0900C02E0A3E0A3E0FFA3E09005231F
:10654000CFF0A3EFF0900C06E0A3E0A3E0FFA3E000
:10655000900525CFF0A3EFF07B017A0479B9129270
:1065600091900ADF7401F0A37404F0A374B9F09061
:1065700004B4E0FBA3E0FAA3E0F912C312900ADF2F
:1065800074FFF0A3743EF0A37474F09004B4E0FBC5
:10659000A3E0FAA3E0F912C31290052074FFF0A360
:1065A0007442F0A374AAF0900C0AE0FFA3E09005F7
:1065B00023CFF0A3EFF07B017A0479B91292919086
:1065C0000ADF7401F0A37404F0A374B9F09004B46A
:1065D000E0FBA3E0FAA3E0F912C312900ADF74FF14
:1065E000F0A3743EF0A37474F09004B4E0FBA3E055
:1065F000FAA3E0F912C31290052074FFF0A37442CD
:10660000F0A374BCF0900C0CE0FFA3E0900523CF46
:10661000F0A3EFF0900C0EE0FFA3E0900525CFF083
:10662000A3EFF07B017A0479B9129291900ADF749A
:1066300001F0A37404F0A374B9F09004B4E0FBA3D8
:10664000E0FAA3E0F912C312900ADF74FFF0A3741A
:106650003EF0A37474F09004B4E0FBA3E0FAA3E06E
:10666000F912C31290052074FFF0A37442F0A374D2
:10667000DEF0900C11E0FCA3E0FDA3E0FEA3E0FF40
:10668000900523128146900C15E0FCA3E0FDA3E0E9
:10669000FEA3E0FF9005271281467B017A0479B9B9
:1066A000129291900ADF7401F0A37404F0A374B9FC
:1066B000F09004B4E0FBA3E0FAA3E0F912C3129057
:1066C0000ADF74FFF0A3743EF0A37474F09004B476
:1066D000E0FBA3E0FAA3E0F912C312900C10E06013
:1066E0001E900ADF74FFF0A37443F0A37402F090CD
:1066F00004B4E0FBA3E0FAA3E0F912C312801C90FB
:106700000ADF74FFF0A37443F0A3741DF09004B487
:10671000E0FBA3E0FAA3E0F912C31290052074FF96
:10672000F0A37443F0A37437F0900C19E0FF9005C8
:1067300023E4F0A3EFF07B017A0479B912929190EF
:106740000ADF7401F0A37404F0A374B9F09004B4E8
:10675000E0FBA3E0FAA3E0F912C312900ADF74FF92
:10676000F0A3743EF0A37474F09004B4E0FBA3E0D3
:10677000FAA3E0F912C312900D46E0B4011E900A8C
:10678000DF74FFF0A37443F0A37449F09004B4E005
:10679000FBA3E0FAA3E0F912C312801C900ADF7495
:1067A000FFF0A37443F0A37469F09004B4E0FBA37A
:1067B000E0FAA3E0F912C312900B7FE0701C900A7C
:1067C000DF74FFF0A37443F0A37487F09004B4E087
:1067D000FBA3E0FAA3E0F912C312900B7FE0B4012F
:1067E0001C900ADF74FFF0A37443F0A374A4F0902C
:1067F00004B4E0FBA3E0FAA3E0F912C31290052071
:1068000074FFF0A37443F0A374C1F0900C7FE0F820
:10681000A3E0F9A3E0FAA3E0FB900D3EE0FCA3E0C7
:10682000FDA3E0FEA3E0C39BFFEE9AFEED99FDEC15
:1068300098FC9005231281467B017A0479B9129263
:1068400091900ADF7401F0A37404F0A374B9F0907E
:1068500004B4E0FBA3E0FAA3E0F912C312900ADF4C
:1068600074FFF0A3743EF0A37474F09004B4E0FBE2
:10687000A3E0FAA3E0F912C31222E4F526F525F508
:1068800024F523900AE7E0FCA3E0FDA3E0FEA3E0EB
:10689000F5428E418D408C3FA3E0FCA3E0FDA3E0D8
:1068A000FEA3E0F5468E458D448C43A3E0FCA3E0B7
:1068B000FDA3E0FEA3E0F54A8E498D488C47A3E096
:1068C000FCA3E0FDA3E0FEA3E0F54E8E4D8D4C8CC5
:1068D0004BA3E0FCA3E0FDA3E0FEA3E0F5528E5144
:1068E0008D508C4FA3E0FCA3E0FDA3E0FEA3E0F5F8
:1068F000568E558D548C53A3E0FCA3E0FDA3E0FE1F
:10690000A3E0F55A8E598D588C57A3E0FCA3E0FD07
:10691000A3E0FEA3E0F55E8E5D8D5C8C5BA3E0FCE6
:10692000A3E0FDA3E0FEA3E0F5628E618D608C5FC5
:10693000A3E0FCA3E0FDA3E0FEA3E0F5668E658D79
:10694000648C63A3E0FCA3E0FDA3E0FEA3E0F56A92
:106950008E698D688C67A3E0FCA3E0FDA3E0FEA335
:10696000E0F56E8E6D8D6C8C6B900B50E0FEA3E0AD
:10697000FFFBAA06E4900D67E0FCA3E0FDA3E0FEA8
:10698000A3E0C39BF53AEE9AF539ED9400F538ECA7
:106990009400F537900B52E0FEA3E0FFFBAA06E45B
:1069A000900D6BE0FCA3E0FDA3E0FEA3E0C39BF52C
:1069B0003EEE9AF53DED9400F53CEC9400F53B90ED
:1069C0000B18E024FE7003026BDD147003026C3BB5
:1069D000147003026D30147003026E93240460037C
:1069E00002702A900B5EE06024A3E0FF3395E0FE86
:1069F000FDFC900D58E0F8A3E0F9A3E0FAA3E0FB5A
:106A0000127F738F368E358D348C338024900B5FDC
:106A1000E0FF3395E0FEFDFC900D54E0F8A3E0F9B3
:106A2000A3E0FAA3E0FB127F738F368E358D348C92
:106A300033900B88E0F8A3E0F9A3E0FAA3E0FBC3EE
:106A4000E5369BFFE5359AFEE53499FDE53398FC84
:106A5000900B46E0F8A3E0F9A3E0FAA3E0FBC31231
:106A600080AB5044E4FFFEFDFC900B46E0F8A3E051
:106A7000A3E0A3E0C31280AB602E900B88E0FCA3E0
:106A8000E0FDA3E0FEA3E0FF900B46E0F8A3E0A347
:106A9000E0A3E0EF2BFFEE3AFEED39FDEC38FC9081
:106AA0000B88128146026B2B900B88E0F8A3E0F96B
:106AB000A3E0FAA3E0FBC3E5369BFFE5359AFEE5CC
:106AC0003499FDE53398FC900B4AE0F8A3E0F9A374
:106AD000E0FAA3E0FBD31280AB4042E4FFFEFDFCF2
:106AE000900B4AE0F8A3E0A3E0A3E01280AB602D96
:106AF000900B88E0FCA3E0FDA3E0FEA3E0FF900B79
:106B00004AE0F8A3E0A3E0A3E0EF2BFFEE3AFEEDAE
:106B100039FDEC38FC900B88128146800EAF36AE02
:106B200035AD34AC33900B88128146900D46E0B4FD
:106B3000012D900B88E0F8A3E0F9A3E0FAA3E0FBB5
:106B4000900BFAE0FCA3E0FDA3E0FEA3E0C39BFFF3
:106B5000EE9AFEED99FDEC98FC900B88128146E5CB
:106B6000136401600302702A900B7FE07030900D77
:106B700046E07016900B3EE0FCA3E0FDA3E0FEA310
:106B8000E0FF900B881281468014900B36E0FCA346
:106B9000E0FDA3E0FEA3E0FF900B88128146900B7E
:106BA0007FE06401600302702A900D46E070179048
:106BB0000B36E0FCA3E0FDA3E0FEA3E0FF900B8812
:106BC00012814602702A900B3EE0FCA3E0FDA3E098
:106BD000FEA3E0FF900B8812814602702AE4FFFEBC
:106BE000FDFCAB3AAA39A938A837D31280AB403D97
:106BF000900BFAE0FCA3E0FDA3E0FEA3E0FFA837C2
:106C0000127F73C006C007900B50E0FEA3E0FFC3E5
:106C1000E49FFF74049EFEAB07FAE4F9F8D007D0B6
:106C20000612C7F1900B8812814602702AE4FFFE1B
:106C3000FDFC900B8812814602702A900C87E0FCC4
:106C4000A3E0FDA3E0FEA3E0FF900B88128146E4E1
:106C5000FFFEFDFCAB3AAA39A938A837D31280ABA6
:106C60004056900C19E0FFE4FCFDFEA837127F733C
:106C7000E47B02FAF9F8127F73C006C007900B504C
:106C8000E0FEA3E0FFC3E49FFF74049EFEAB07FA9F
:106C9000E4F9F8D007D00612C7F1900C87E0F8A30A
:106CA000E0F9A3E0FAA3E02FFFEA3EFEE93DFDE8AC
:106CB0003CFC900B88128146E4FFFEFDFCAB3EAA33
:106CC0003DA93CA83BD31280AB500302702A900C24
:106CD00019E0FFE4FCFDFEA83B127F73E47B02FA9F
:106CE000F9F8127F73C006C007900B52E0FEA3E0D4
:106CF000FFC3E49FFF74049EFEAB07FAE4F9F8D0EB
:106D000007D00612C7F1A804A905AA06AB07900C84
:106D100087E0FCA3E0FDA3E0FEA3E0C39BFFEE9AA7
:106D2000FEED99FDEC98FC900B8812814602702ACA
:106D3000900C87E0FCA3E0FDA3E0FEA3E0FF900B36
:106D400088128146900E20E0146048147003026E91
:106D50000D2402600302702AE4FFFEFDFCAB3AAA98
:106D600039A938A837D31280AB4009900E2074019E
:106D7000F002702AE4FFFEFDFCAB3EAA3DA93CA850
:106D80003BD31280AB500302702A900E207402F0A5
:106D900002702AE4FFFEFDFCAB3AAA39A938A837F5
:106DA000C31280AB5008E4900E20F002702A900CC1
:106DB00019E0FFE4FCFDFEAB3AAA39A938A8371266
:106DC0007F73E47B02FAF9F8127F73C006C0079064
:106DD0000B50E0FEA3E0FFC3E49FFF74049EFEABF4
:106DE00007FAE4F9F8D007D00612C7F1900C87E053
:106DF000F8A3E0F9A3E0FAA3E02FFFEA3EFEE93DA5
:106E0000FDE83CFC900B8812814602702AE4FFFEEC
:106E1000FDFCAB3EAA3DA93CA83BC31280AB500889
:106E2000E4900E20F002702A900C19E0FFE4FCFDC3
:106E3000FEAB3EAA3DA93CA83B127F73E47B02FA5D
:106E4000F9F8127F73C006C007900B52E0FEA3E072
:106E5000FFC3E49FFF74049EFEAB07FAE4F9F8D089
:106E600007D00612C7F1A804A905AA06AB07900C23
:106E700087E0FCA3E0FDA3E0FEA3E0C39BFFEE9A46
:106E8000FEED99FDEC98FC900B8812814602702A69
:106E900002702A900C87E0FCA3E0FDA3E0FEA3E0D3
:106EA000FF900B88128146900E20E0146048147009
:106EB00003026F8F2402600302702AE4FFFEFDFCD0
:106EC000AB3AAA39A938A837D31280AB4009900E43
:106ED000207401F002702AE4FFFEFDFCAB3EAA3DE7
:106EE000A93CA83BD31280AB500302702A900E201D
:106EF0007402F002702AE4FFFEFDFCAB3AAA39A945
:106F000038A837C31280AB501BE4FFFEFDFCAB3E3C
:106F1000AA3DA93CA83BC31280AB5008E4900E20C8
:106F2000F002702AE4FFFEFDFCAB3AAA39A938A8AA
:106F300037D31280AB500302702A900C19E0FFE4A3
:106F4000FCFDFEA837127F7378021280F9C006C0DC
:106F500007900B50E0FEA3E0FFC3E49FFF74049E84
:106F6000FEAB07FAE4F9F8D007D00612C7F1900C8F
:106F700087E0F8A3E0F9A3E0FAA3E02FFFEA3EFEE2
:106F8000E93DFDE83CFC900B8812814602702AE442
:106F9000FFFEFDFCAB3AAA39A938A837C31280AB73
:106FA000501AE4FFFEFDFCAB3EAA3DA93CA83BC342
:106FB0001280AB5007E4900E20F0806EE4FFFEFDDF
:106FC000FCAB3EAA3DA93CA83BD31280AB405B90F2
:106FD0000B5DE0FFE4FCFDFEA83B127F737802121C
:106FE00080F9C006C007900B52E0FEA3E0FFC3E4A7
:106FF0009FFF74049EFEAB07FAE4F9F8D007D006B1
:1070000012C7F1A804A905AA06AB07900C87E0FCFB
:10701000A3E0FDA3E0FEA3E0C39BFFEE9AFEED9983
:10702000FDEC98FC900B88128146900B35E0606A6D
:10703000A3E0FCA3E0FDA3E0FEA3E0FF900B88E04B
:10704000F8A3E0F9A3E0FAA3E0FBC31280AB50146D
:10705000900B36E0FCA3E0FDA3E0FEA3E0FF900B65
:1070600088128146900B3EE0FCA3E0FDA3E0FEA366
:10707000E0FF900B88E0F8A3E0F9A3E0FAA3E0FBBF
:10708000D31280AB4014900B3EE0FCA3E0FDA3E0E4
:10709000FEA3E0FF900B88128146900B19E070036D
:1070A00002748514700302783F147003027613147F
:1070B00060030278AD900D50E0F8A3E0F9A3E0FA88
:1070C000A3E0FB900B88E0FCA3E0FDA3E0FEA3E0BF
:1070D000C39BF52AEE9AF529ED99F528EC98F5274A
:1070E000900E10E0FCA3E0FDA3E0FEA3E0252AFF44
:1070F000EE3529FEED3528FDEC3527FC900E1012FB
:1071000081467F807EF07DFA7C02900E10E0F8A32D
:10711000E0F9A3E0FAA3E0FBD31280AB40107F803C
:107120007EF07DFA7C02900E10128146802A7F80CC
:107130007E0F7D057CFD900E10E0F8A3E0F9A3E042
:10714000FAA3E0FBC31280AB500E7F807E0F7D055B
:107150007CFD900E10128146E4F532F531F530F5E4
:107160002FFFFEFDFCAB5AAA59A958A857C312809D
:10717000AB6026AF2AAE29AD28AC27A857127F7383
:1071800078101280E5E5322FF532E5313EF531E534
:10719000303DF530E52F3CF52FE4FFFEFDFCAB5E06
:1071A000AA5DA95CA85BC31280AB602C900E10E0B6
:1071B000FCA3E0FDA3E0FEA3E0FFA85B127F7378D1
:1071C000101280E5E5322FF532E5313EF531E5303C
:1071D0003DF530E52F3CF52FE4FFFEFDFCAB62AA48
:1071E00061A960A85FC31280AB6043900E18E0F8FD
:1071F000A3E0F9A3E0FAA3E0FBC3E52A9BFFE5299E
:107200009AFEE52899FDE52798FCAB62AA61A96082
:10721000A85F127F7378101280E5E5322FF532E512
:10722000313EF531E5303DF530E52F3CF52FAF2A05
:10723000AE29AD28AC27900E18128146E4FFFEFD62
:10724000FCAB32AA31A930A82FC31280AB4004D2C4
:107250000E8002C20E900B4EE0FEA3E0FFEE3395CF
:10726000E0FDFCAB32AA31A930A82FD31280AB408D
:1072700016900B4EE0FEA3E0FFEE3395E08F328ECA
:1072800031F530F52F803C900B4EE0FEA3E0FFC3BC
:10729000E49FFFE49EFE3395E0FDFCAB32AA31A9EA
:1072A00030A82FC31280AB501A900B4EE0FEA3E023
:1072B000FFC3E49FFFE49EFE3395E08F328E31F5ED
:1072C00030F52F900D5CE0F8A3E0F9A3E0FAA3E01D
:1072D000FBC3E5329BF52EE5319AF52DE53099F5A6
:1072E0002CE52F98F52B900E14E0FCA3E0FDA3E015
:1072F000FEA3E0252EFFEE352DFEED352CFDEC3501
:107300002BFC900E141281467FA07E867D017C00AE
:10731000900E14E0F8A3E0F9A3E0FAA3E0FBD31287
:1073200080AB40107FA07E867D017C00900E141201
:107330008146802A7F607E797DFE7CFF900E14E07E
:10734000F8A3E0F9A3E0FAA3E0FBC31280AB500E70
:107350007F607E797DFE7CFF900E14128146E4F5FD
:1073600026F525F524F523FFFEFDFCAB66AA65A9ED
:1073700064A863C31280AB6026AF2EAE2DAD2CACDB
:107380002BA863127F7378101280E5E5262FF5266F
:10739000E5253EF525E5243DF524E5233CF523E4EC
:1073A000FFFEFDFCAB6AAA69A968A867C31280AB9F
:1073B000602C900E14E0FCA3E0FDA3E0FEA3E0FF30
:1073C000A867127F7378101280E5E5262FF526E571
:1073D000253EF525E5243DF524E5233CF523E4FF92
:1073E000FEFDFCAB6EAA6DA96CA86BC31280AB60EE
:1073F00043900E1CE0F8A3E0F9A3E0FAA3E0FBC37E
:10740000E52E9BFFE52D9AFEE52C99FDE52B98FCDA
:10741000AB6EAA6DA96CA86B127F7378101280E511
:10742000E5262FF526E5253EF525E5243DF524E561
:10743000233CF52374FF7F9CFEFDFCAB26AA25A907
:1074400024A823C31280AB500D74FF75269CF5252C
:10745000F524F523801EE47F64FEFDFCAB26AA25FF
:10746000A924A823D31280AB400AE4752664F5252D
:10747000F524F523AF2EAE2DAD2CAC2B900E1C12A7
:1074800081460278AD900D50E0F8A3E0F9A3E0FA50
:10749000A3E0FB900B88E0FCA3E0FDA3E0FEA3E0EB
:1074A000C39BF52AEE9AF529ED99F528EC98F52776
:1074B000900E10E0FCA3E0FDA3E0FEA3E0252AFF70
:1074C000EE3529FEED3528FDEC3527FC900E101227
:1074D0008146E47FE87E03FDFC900E10E0F8A3E017
:1074E000F9A3E0FAA3E0FBD31280AB400FE47FE8FE
:1074F0007E03FDFC900E10128146802A7F187EFCD0
:107500007DFF7CFF900E10E0F8A3E0F9A3E0FAA362
:10751000E0FBC31280AB500E7F187EFC7DFF7CFF2A
:10752000900E10128146E4FFFEFDFCAB42AA41A979
:1075300040A83FC31280AB601AAF2AAE29AD28AC79
:1075400027A83F127F7378101280E58F268E258D35
:10755000248C23E4FFFEFDFCAB46AA45A944A843C6
:10756000C31280AB602C900E10E0FCA3E0FDA3E002
:10757000FEA3E0FFA843127F7378101280E5E52692
:107580002FF526E5253EF525E5243DF524E5233CAC
:10759000F523E4FFFEFDFCAB4AAA49A948A847C36E
:1075A0001280AB6043900E18E0F8A3E0F9A3E0FA74
:1075B000A3E0FBC3E52A9BFFE5299AFEE52899FD98
:1075C000E52798FCAB4AAA49A948A847127F7378D7
:1075D000101280E5E5262FF526E5253EF525E52464
:1075E0003DF524E5233CF523AF2AAE29AD28AC2791
:1075F000900E18128146E4FFFEFDFCAB26AA25A9D9
:1076000024A823D31280AB4005D20E0278ADC20E5F
:107610000278AD900BA0E070030278AD200D03025C
:1076200078AD900B90E0FCA3E0FDA3E0FEA3E0F5B5
:10763000328E318D308C2F900B4EE0FEA3E0FFEEAA
:107640003395E0FDFCAB32AA31A930A82FD31280CC
:10765000AB4016900B4EE0FEA3E0FFEE3395E08FBB
:10766000328E31F530F52F803C900B4EE0FEA3E0DA
:10767000FFC3E49FFFE49EFE3395E0FDFCAB32AA1E
:1076800031A930A82FC31280AB501A900B4EE0FEE8
:10769000A3E0FFC3E49FFFE49EFE3395E08F328EAC
:1076A00031F530F52F900D5CE0F8A3E0F9A3E0FA96
:1076B000A3E0FBC3E5329BF52EE5319AF52DE530CD
:1076C00099F52CE52F98F52B900E14E0FCA3E0FD26
:1076D000A3E0FEA3E0252EFFEE352DFEED352CFDBB
:1076E000EC352BFC900E141281467FA07E867D0126
:1076F0007C00900E14E0F8A3E0F9A3E0FAA3E0FB0D
:10770000D31280AB40107FA07E867D017C00900E5E
:1077100014128146802A7F607E797DFE7CFF900E68
:1077200014E0F8A3E0F9A3E0FAA3E0FBC31280ABF6
:10773000500E7F607E797DFE7CFF900E1412814694
:10774000E4F526F525F524F523FFFEFDFCAB4EAA56
:107750004DA94CA84BC31280AB6026AF2EAE2DAD09
:107760002CAC2BA84B127F7378101280E5E5262FE6
:10777000F526E5253EF525E5243DF524E5233CF5F4
:1077800023E4FFFEFDFCAB52AA51A950A84FC3123F
:1077900080AB602C900E14E0FCA3E0FDA3E0FEA300
:1077A000E0FFA84F127F7378101280E5E5262FF5D1
:1077B00026E5253EF525E5243DF524E5233CF52386
:1077C000E4FFFEFDFCAB56AA55A954A853C3128092
:1077D000AB6043900E1CE0F8A3E0F9A3E0FAA3E04D
:1077E000FBC3E52E9BFFE52D9AFEE52C99FDE52BCD
:1077F00098FCAB56AA55A954A853127F737810125F
:1078000080E5E5262FF526E5253EF525E5243DF521
:1078100024E5233CF523AF2EAE2DAD2CAC2B900EE2
:107820001C128146E4FFFEFDFCAB26AA25A924A874
:1078300023C31280AB4004D20E8072C20E806E90C1
:107840000B98E0FCA3E0FDA3E0FEA3E0F5268E2567
:107850008D248C23E4FFFEFDFCAB26AA25A924A8D9
:1078600023D31280AB4004D20E8002C20E74FF7F7D
:107870009CFEFDFCAB26AA25A924A823C31280AB3D
:10788000500D74FF75269CF525F524F523801EE424
:107890007F64FEFDFCAB26AA25A924A823D3128071
:1078A000AB400AE4752664F525F524F523E47F64EE
:1078B000FEFDFCAB26AA25A924A823D31280AB4049
:1078C0000AE4752664F525F524F52374FF7F9CFEF4
:1078D000FDFCAB26AA25A924A823C31280AB500B1C
:1078E00074FF75269CF525F524F523900B19E064AB
:1078F000016037AF26AE25AD24AC23780A1280F99B
:10790000E47B64FAF9F812C7F1A804A905AA06AB4A
:1079100007900D87E0FFE4FCFDFE127F73780A12EA
:1079200080E58F268E258D248C23E4FFFEFDFCABA5
:1079300026AA25A924A823C31280AB40047F018076
:10794000027FFF900D4FEFF0300E077F0112D384BE
:107950008005E4FF12D384AE25AF2612D26012D385
:107960006C22027D23E86480F8E933E83360110477
:1079700060F0ED33EC337009E8FCE9FDEAFEEBFF63
:10798000220460DED3EB9FEA9EE99DE8C2E78CF01B
:10799000C2F795F0400CE8CCF8E9CDF9EACEFAEB65
:1079A000CFFB127CEE85D0F05804700320D5B3E8ED
:1079B0000470075002B2D5027D2D92D5EC0460F719
:1079C000E4CCC0E0C398F8603B94186008400DD048
:1079D000E0FB027D05E4FBFAC9FC8028E830E40600
:1079E000E4C9FBE4CAFCE830E305E4C9CACBFCE81F
:1079F00054076010F8C3E913F9EA13FAEB13FBEC30
:107A000013FCD8F130F52FC3E49CFCEF9BFFEE9AFA
:107A1000FEED99FDD0E0FBEF4E4D4C701222DB03E2
:107A2000027D2AEC2CFCEF33FFEE33FEED33FDED4F
:107A300030E7EB027D05EF2BFFEE3AFEED39FDD08E
:107A4000E0FB50130BBB0003027D2DED13FDEE1385
:107A5000FEEF13FFEC13FC027D05EC4D6011E849CD
:107A60007017ED33EC3304600DE4FCFFFEFD22E9FA
:107A700033E8330470F8027D23127CEE5804600969
:107A8000E4CC24815006285009027D2D28400302B1
:107A90007D2AC0E0EB4A7044B98006D0E0FB027D4D
:107AA00019EF4E701CBD8008EBFFEAFEE9FD80EB8C
:107AB000E98DF0A4FEE5F0027B43E9CDF9EAFEEBA7
:107AC000FFEF89F0A4FCE5F0CE89F0A42EFFE435A9
:107AD000F0CD89F0A42DFEE435F08067EF4E7005FF
:107AE000BD80D780C3EF8BF0A4ACF0EE8BF0A42C5C
:107AF000FCE435F0F8EF8AF0A42CE5F038FCE43330
:107B0000CB8DF0A42CFCE5F03BF8EE8AF0A42CFC25
:107B1000E5F038F8E433CF89F0A42CFCE5F038CF59
:107B20003400CE89F0A42FFFE5F03EFEE433C98D8A
:107B3000F0A42EFEE5F039CD8AF0A42FFFE5F03E4B
:107B4000FEE43DFD33D0E0FB50070BBB000F027D90
:107B50002DEC2CFCEF33FFEE33FEED33FD027D0503
:107B6000027D2DEC5D046005E859047003027D235D
:107B7000127CEE580460F6EC4860F2EC7004FDFEF6
:107B8000FF22C860DB2481C85009C39860025006F8
:107B9000027D2A9850CAF582E9294B4A7005AB82CA
:107BA000027D1975F0007C1A7880C3EF9BEE9AED88
:107BB00099400DC3EF9BFFEE9AFEED99FDE842F070
:107BC000DC23ACF0D0E0FFD0E0FED0E0FDAB8220C3
:107BD000E7101BEB60BAEC2CFCEF33FFEE33FEED4D
:107BE00033FD027D05E803F830E705C0F075F000CD
:107BF000EF2FFFEE33FEED33FD40B830E7C280AA31
:107C000074F8CC6480CCC86480C8F58204604FC32B
:107C1000EB9FF5F0EA9E42F0E99D42F0E89C45F0CA
:107C2000603C501DE5825FFFE582D313CB5BCBF454
:107C30002B5582FB50280ABA002409B9002008807D
:107C40001DE5825BFBE582D313CF5FCFF4C3132F17
:107C50005582FF50090EBE00050DBD00010CC3EB9F
:107C60009FF5F0EA9E42F0E99D42F0E89C45F06005
:107C700007CC4820E701B3EC2275F020800E75F0A8
:107C800010800575F0087D007E007F003392D530AE
:107C9000D50312809DEC334010EF33FFEE33FEED41
:107CA00033FDEC33FCD5F0ED22E5F0247EA2D513B4
:107CB000CC92E7CDCEFF22EDD2E7CD33EC3392D597
:107CC00024814006E4FFFEFDFC22FCE4CFCECDCCB7
:107CD00024E0501174FF80EDC3CC13CCCD13CDCE76
:107CE00013CECF13CF0470F030D5DE02809DE9D2E1
:107CF000E7C933E833F892D5EDD2E7CD33EC33FC66
:107D00005002B2D522EC30E7100FBF000C0EBE00BF
:107D1000080DBD00040BEB6014A2D5EB13FCED9233
:107D2000E7FD2274FFFCFDFEFF22E480F8A2D5747B
:107D3000FF13FC7D80E480EFF920E73624F950033F
:107D40007907E4F42402FBE582158270021583DBD7
:107D5000F6E024FB501BE96014E4F0E58215827024
:107D6000021583E004F0B40A08E4F0D9EE7401F0DF
:107D70000A22C2D522ED33EC3392D5FA602AB4FF41
:107D800033EDC2E77BFF60067A7D799AE4227A7D43
:107D900079A320D5047A7D799E224E614E002B492D
:107DA0004E46002D494E4600E47A08F0A3DAFC7BEB
:107DB00000740722C083C082ECC0E0EDC0E0EEC0DA
:107DC000E0EFC0E0EA75F010A4CAABF075F04DA486
:107DD0002BFBE435F0FCEA2410FAEB34C5FBEC3461
:107DE000D9FCEDC2E7FF75F056A4F42411C5F0F4F8
:107DF00034C58FF0A42AE5F03BE43CF020E71412F0
:107E00007EAAD0E0FFD0E0FED0E0FDD0E0FC127B07
:107E1000638014F404127EAAD0E0FFD0E0FED0E02C
:107E2000FDD0E0FC127A5AD082D083E0FAEDD2E79E
:107E3000CD33EC332482FBE4C3CF33CFCE33CECD6E
:107E400033CD33DBF37B0775F00A846004F0A31BAA
:107E50000AE5F0F0A38FF0740AA4FFACF08EF07482
:107E60000AA42CFEACF050010C8DF0740AA42CFD79
:107E7000E435F0F0A3DBDE7407223F8000004120F0
:107E8000000042C80000447A0000461C400047C37E
:107E90005000497424004B1896804CBEBC205A0EEA
:107EA0001BCA6753C21C749DC5AEFB6006540760B5
:107EB0001C2323127ED8EB54386009127EC4127E34
:107EC000D3127A5AECF8EDF9EEFAEFCB22EB127EF0
:107ED000D380F1543803241C907E7AFE93FC0EEE7E
:107EE00093FD0EEE930ECE93FF22BB010689828A8C
:107EF00083E0225002E722BBFE02E32289828A83CA
:107F0000E49322BB010CE58229F582E5833AF583EF
:107F1000E0225006E92582F8E622BBFE06E925822A
:107F2000F8E222E58229F582E5833AF583E493229B
:107F3000BB010689828A83F0225002F722BBFE0130
:107F4000F322EF8DF0A4A8F0CF8CF0A428CE8DF012
:107F5000A42EFE22BB010A89828A83F0E5F0A3F0F9
:107F6000225006F709A7F01922BBFE06F3E5F00937
:107F7000F31922E88FF0A4CC8BF0A42CFCE98EF04E
:107F8000A42CFC8AF0EDA42CFCEA8EF0A4CDA8F081
:107F90008BF0A42DCC3825F0FDE98FF0A42CCD3545
:107FA000F0FCEB8EF0A4FEA9F0EB8FF0A4CFC5F0AF
:107FB0002ECD39FEE43CFCEAA42DCE35F0FDE43CA8
:107FC000FC2275F008758200EF2FFFEE33FECD33F3
:107FD000CDCC33CCC58233C5829BED9AEC99E5823A
:107FE00098400CF582EE9BFEED9AFDEC99FC0FD5C6
:107FF000F0D6E4CEFBE4CDFAE4CCF9A88222B800B6
:10800000C1B90059BA002DEC8BF084CFCECDFCE580
:10801000F0CBF97818EF2FFFEE33FEED33FDEC33A4
:10802000FCEB33FB10D703994004EB99FB0FD8E529
:10803000E4F9FA227818EF2FFFEE33FEED33FDEC72
:1080400033FCC933C910D7059BE99A4007EC9BFC68
:10805000E99AF90FD8E0E4C9FAE4CCFB2275F010F4
:10806000EF2FFFEE33FEED33FDCC33CCC833C81019
:10807000D7079BEC9AE899400AED9BFDEC9AFCE847
:1080800099F80FD5F0DAE4CDFBE4CCFAE4C8F92294
:10809000CFF4CFCEF4CECDF4CDCCF4CC22C3E49F3C
:1080A000FFE49EFEE49DFDE49CFC22EB9FF5F0EADC
:1080B0009E42F0E99D42F0EC6480C864809845F0EF
:1080C00022EB9FF5F0EA9E42F0E99D42F0E89C45E4
:1080D000F022E8600FECC313FCED13FDEE13FEEF8E
:1080E00013FFD8F122E86010ECA2E713FCED13FDBA
:1080F000EE13FEEF13FFD8F022E8600FEFC333FF5B
:10810000EE33FEED33FDEC33FCD8F122BB010789E1
:10811000828A830283D85005E9F80283CCBBFE052E
:10812000E9F80283E489828A830283F0BB0107892C
:10813000828A830281465005E9F8028400BBFE056D
:10814000E9F802840C22ECF0A3EDF0A3EEF0A3EF2B
:10815000F022F8E0FBA3A3E0F925F0F0E582158218
:1081600070021583E0FA38F022EBF0A3EAF0A3E9FD
:10817000F022D083D082F8E4937012740193700DD2
:10818000A3A393F8740193F5828883E47374029334
:108190006860EFA3A3A380DFE5122582F582E511D5
:1081A0003583F583B511048582122210AF068582CE
:1081B00012F51122858212F511D2AF22EC8EF0A4B5
:1081C000CCC5F0CCCDF8EFA4CEC5F02DFDE43CFC41
:1081D000E8A42EC8C5F03DFDE43CFCEFA4FFE5F0AB
:1081E00028FEE43DFDE43CFC22E709F608DFFA80C6
:1081F00046E709F208DFFA803E88828C83E709F0BF
:10820000A3DFFA8032E309F608DFFA806EE309F2B1
:1082100008DFFA806688828C83E309F0A3DFFA80A6
:108220005A89828A83E0A3F608DFFA804E89828A1F
:1082300083E0A3F208DFFA804280D280FA80C68011
:10824000D4805580F28029801080A680EA809A80B0
:10825000A880DA80E280CA802988848C8589828A15
:1082600083E493A30586F0A30586DFF5DEF3800B98
:1082700089828A83E493A3F608DFF9ECFAA9F0ED8A
:10828000FB2288848C8589828A83E0A30586F0A3FB
:108290000586DFF6DEF480E389828A83E493A3F225
:1082A00008DFF980D688F0EF60010E4E60CD88F0CF
:1082B000ED2402B4040050C3F582EB2402B40400A0
:1082C00050B9232345822390823973E709F6087059
:1082D000FA8046E709F20870FA803E88828C83E7CC
:1082E00009F0A370FA8074E309F60870FA806CE371
:1082F00009F20870FA806488828C83E309F0A37025
:10830000FA805889828A83E0A3F60870FA804C8943
:10831000828A83E0A3F20870FA804080D280FA80DB
:10832000C680D4805180F28027801080A680EA80A9
:108330009A80A880DA80E280CA802788848C858928
:10834000828A83E493A30586F0A3058670F5800BEB
:1083500089828A83E493A3F60870F9ECFAA9F0ED18
:10836000FB2288848C8589828A83E0A30586F0A31A
:10837000058670F680E589828A83E493A3F208700B
:10838000F980D888F0ED2402B4040050CEF582EBD9
:108390002402B4040050C4232345822390831B731A
:1083A000C5F0F8A3E028F0C5F0F8E5821582700268
:1083B0001583E038F022A3F8E0C5F025F0F0E5825F
:1083C000158270021583E0C838F0E822E6FC08E662
:1083D000FD08E6FE08E6FF22E0FCA3E0FDA3E0FEC8
:1083E000A3E0FF22E2FC08E2FD08E2FE08E2FF2231
:1083F000E493FC740193FD740293FE740393FF22D3
:10840000ECF608EDF608EEF608EFF622ECF208EDD1
:10841000F208EEF208EFF2228F23E4FFFEFDFC905B
:108420000012128146E523C394034003028CE1301D
:108430000A227B03AF031BEF6018E4FFFEFDFCEB99
:1084400025E025E02421F582E4340EF583128146EF
:1084500080E2C20AE523701812D2DD78011280D2C0
:10846000EFEEED5403FDE4FC9000021281468033F0
:10847000E523B4011812D2AB78011280D2EFEEEDF1
:108480005403FDE4FC900002128146801612D2A132
:1084900078011280D2EFEEED5403FDE4FC9000026F
:1084A0001281467B017A00790212C2A7400302883A
:1084B00049900002E0FCA3E0FDA3E0FEA3E054C06D
:1084C000FFEEED5403FDE42FFFE43EFEED34FEFD30
:1084D000E434FFFC78021280D2EE3395E0FDFCE537
:1084E0002325E025E024D9F582E4340BF583E0F878
:1084F000A3E0F9A3E0FAA3E02FFFEA3EFEE93DFD89
:10850000E83CFC900006128146300F27900006E000
:10851000FCA3E0FDA3E0FEA3E0FFE52325E025E0CA
:108520002421F582E4340EF583128146E523B4025A
:1085300002C20FE52325E025E02421F582E4340E74
:10854000F583E0F8A3E0F9A3E0FAA3E0FB900006CE
:10855000E0FCA3E0FDA3E0FEA3E0C39BFFEE9AFED8
:10856000ED99FDEC98FC90000E128146E4FF7EC070
:10857000FDFC90000EE0F8A3E0F9A3E0FAA3E0FB15
:10858000D31280AB401074642523F582E4340DF5DA
:1085900083E014F080687F007E407DFF7CFF9000C8
:1085A0000EE0F8A3E0F9A3E0FAA3E0FBC31280AB6E
:1085B000501074642523F582E4340DF583E004F053
:1085C000803C90000EE0A3E0A3E0FEA3E0FF12D207
:1085D00060D3EF9400EE648094C04022742D252374
:1085E000F582E4340EF583E004F0742D2523F58242
:1085F000E4340EF583E0C3940A5003028CE1742D39
:108600002523F582E4340EF583E4F0900006E0FCC7
:10861000A3E0FDA3E0FEA3E0FFE52325E025E024A1
:1086200021F582E4340EF583128146900006E0F8CD
:10863000A3E0F9A3E0FAA3E0FBC00074642523F5EE
:1086400082E4340DF583E0FF3395E0FEFDFC781005
:108650001280F9D000EB2FFFEA3EFEE93DFDE83C39
:10866000FC900006128146E52325E025E02429F54B
:1086700082E4340BF583E0FCA3E0FDA3E0FEA3E07D
:10868000FFE4FBFA7980783F127C006038900006A6
:10869000E0FCA3E0FDA3E0FEA3E0FFEC127C79E5A3
:1086A0002325E025E02429F582E4340BF583E0F866
:1086B000A3E0F9A3E0FAA3E0FB127A5A127CB79088
:1086C0000006128146900006E0FCA3E0FDA3E0FE58
:1086D000A3E0FFE52325E025E02450F582E4340DF6
:1086E000F583128146900B5EE06008900E5574028F
:1086F000F08006900E557401F0900E55E0FB652356
:108700006003028849900B18E06401600302884905
:10871000EB25E025E02450F582E4340DF583E0FC00
:10872000A3E0FDA3E0FEA3E0FF74D62BF582E434C2
:108730000BF583E0F9F81280E5900016128146E50A
:108740000E146065046003028849900B7FE0702579
:10875000900B7BE0FCA3E0FDA3E0FEA3E0FF900014
:1087600016E0F8A3E0F9A3E0FAA3E0FBD31280AB94
:108770004003750E01900B7FE0640160030288499D
:10878000A3E0FCA3E0FDA3E0FEA3E0FF900016E061
:10879000F8A3E0F9A3E0FAA3E0FBC31280AB400327
:1087A000028849750E01028849900B7FE0702B7F8B
:1087B00028FEFDFC900016E0F8A3E0F9A3E0FAA380
:1087C000E0FBC31280AB5012900D46E0700404F041
:1087D0008005E4900D46F0E4F50E900B7FE0640117
:1087E0007067900B84E0FCA3E0FDA3E0FEA3E0FF34
:1087F000900016E0F8A3E0F9A3E0FAA3E0FBD3129F
:1088000080AB4045900D46E0B4012BE47F847E03AD
:10881000FDFC900016E0F8A3E0A3E0A3E0D31280F3
:10882000AB400BE4900D46F0900E56F08013900E86
:10883000567401F0800B900D467401F0E4900E56D2
:10884000F0900E56E07002F50EE5231470030289D5
:108850002A1470030289F624026003028ABFE47FAF
:1088600012FEFDFC900E31E0F8A3E0F9A3E0FAA3BC
:10887000E0FB127F73C004C005C006C007E47F0B95
:10888000FEFDFC900006E0F8A3E0F9A3E0FAA3E007
:10889000FB127F73D003D002D001D000C3EF9BFF47
:1088A000EE9AFEED99FDEC98FCC004C005C006C030
:1088B00007E47F09FEFDFC900E3DE0F8A3E0F9A37C
:1088C000E0FAA3E0FB127F73D003D002D001D00006
:1088D000EF2BFFEE3AFEED39FDEC38FCC004C0058D
:1088E000C006C007E47F02FEFDFC900E49E0F8A33D
:1088F000E0F9A3E0FAA3E0FB127F73A804A905AA9C
:1089000006AB07D007D006D005D004C3EF9BFFEE1F
:108910009AFEED99FDEC98FC12BC2CEE3395E0FD2F
:10892000FC90000A128146028ABFE47F12FEFDFC21
:10893000900E35E0F8A3E0F9A3E0FAA3E0FB127F84
:1089400073C004C005C006C007E47F0BFEFDFC90A9
:108950000006E0F8A3E0F9A3E0FAA3E0FB127F73BE
:10896000D003D002D001D000C3EF9BFFEE9AFEED02
:1089700099FDEC98FCC004C005C006C007E47F095F
:10898000FEFDFC900E41E0F8A3E0F9A3E0FAA3E0BD
:10899000FB127F73D003D002D001D000EF2BFFEE8B
:1089A0003AFEED39FDEC38FCC004C005C006C00736
:1089B000E47F02FEFDFC900E4DE0F8A3E0F9A3E099
:1089C000FAA3E0FB127F73A804A905AA06AB07D09F
:1089D00007D006D005D004C3EF9BFFEE9AFEED99B9
:1089E000FDEC98FC12BCA9EE3395E0FDFC90000A6A
:1089F000128146028ABFE47F12FEFDFC900E39E030
:108A0000F8A3E0F9A3E0FAA3E0FB127F73C004C06F
:108A100005C006C007E47F0BFEFDFC900006E0F8F1
:108A2000A3E0F9A3E0FAA3E0FB127F73D003D00226
:108A3000D001D000C3EF9BFFEE9AFEED99FDEC98BC
:108A4000FCC004C005C006C007E47F09FEFDFC9021
:108A50000E45E0F8A3E0F9A3E0FAA3E0FB127F7370
:108A6000D003D002D001D000EF2BFFEE3AFEED395B
:108A7000FDEC38FCC004C005C006C007E47F02FE60
:108A8000FDFC900E51E0F8A3E0F9A3E0FAA3E0FBAF
:108A9000127F73A804A905AA06AB07D007D006D099
:108AA00005D004C3EF9BFFEE9AFEED99FDEC98FC18
:108AB00012BD26EE3395E0FDFC90000A128146E4DB
:108AC000FFFE7DC07C40900C7BE0F8A3E0F9A3E0C2
:108AD000FAA3E0FB127A5AC004C005C006C0079092
:108AE000000AE0FCA3E0FDA3E0FEA3E0FFEC127CA3
:108AF00079D003D002D001D000127B63127CB790F2
:108B0000000A12814690000AE0FCA3E0FDA3E0FE0B
:108B1000A3E0FFE52325E025E0246FF582E4340D92
:108B2000F583128146E52325E025E0243DF582E426
:108B3000340EF583E0FCA3E0FDA3E0FEA3E0FFE537
:108B40002325E025E02449F582E4340EF5831281E3
:108B500046E52325E025E02431F582E4340EF58353
:108B6000E0FCA3E0FDA3E0FEA3E0FFE52325E02574
:108B7000E0243DF582E4340EF58312814690000630
:108B8000E0FCA3E0FDA3E0FEA3E0FFE52325E02554
:108B9000E02431F582E4340EF5831281463010036F
:108BA000028CE1900E30E0C394225004E004F022E5
:108BB000900B5EE0606E900D54E0FCA3E0FDA3E03E
:108BC000FEA3E0FF90001E128146900D50E0FCA332
:108BD000E0FDA3E0FEA3E0FF12B356EE3395E0FD07
:108BE000FC900012128146E4FFFEFDFC900B29E090
:108BF000F8A3E0F9A3E0FAA3E0FB127C0050179081
:108C00000012E0FCA3E0FDA3E0FEA3E0FF12809DC4
:108C1000900012128146900012E0A3E0A3E0A3E0CE
:108C2000900D64F074296401440B602C900D50E0A9
:108C3000FCA3E0FDA3E0FEA3E0FFEC127C79900B27
:108C400029E0F8A3E0F9A3E0FAA3E0FB127B6312AA
:108C50007CB7900D50128146900D50E0F8A3E0F9DA
:108C6000A3E0FAA3E0FBC000900012E0FCA3E0FD4B
:108C7000A3E0FEA3E0FF78101280F9D000EB2FFFF5
:108C8000EA3EFEE93DFDE83CFC900D501281467441
:108C9000296401440B602C900D50E0FCA3E0FDA37F
:108CA000E0FEA3E0FFEC127C79900B29E0F8A3E052
