:1026000002AA48008F828E83E0540100000070F817
:102610002278FFE4F6D8FD02AAD6900002EEF0A3DD
:10262000EFF078047C007D017BFF7A5A79DD7E062D
:102630007F41127E109006457406F0A37441F07835
:102640004B7C067D017BFF7A61791E7E007F0F1235
:102650007E10785A7C067D017BFF7A61792D7E00A1
:102660007F1C127E1078767C067D017BFF7A617973
:10267000497E007F1B127E1078917C067D017BFFD6
:102680007A6179647E007F1C127E1078AD7C067DB5
:10269000017BFF7A6179807E007F22127E1078CFE5
:1026A0007C067D017BFF7A6179A27E007F27127E06
:1026B0001078F67C067D017BFF7A6179C97E007F08
:1026C00011127E1078077C077D017BFF7A6179DA31
:1026D0007E007F19127E1078207C077D017BFF7AB7
:1026E0006179F37E007F11127E1078317C077D01C5
:1026F0007BFF7A6279047E007F1C127E10784D7C0D
:10270000077D017BFF7A6279207E007F1D127E109B
:10271000786A7C077D017BFF7A62793D7E007F1BB2
:10272000127E1078857C077D017BFF7A6279587E66
:10273000007F14127E1078997C077D017BFF7A62FE
:10274000796C7E007F25127E1078BE7C077D017B30
:10275000FF7A6279917E007F15127E1078D37C0714
:102760007D017BFF7A6279A67E007F15127E10784C
:10277000E87C077D017BFF7A6279BB7E007F1412C3
:102780007E1078FC7C077D017BFF7A6279CF7E002A
:102790007F24127E1078207C087D017BFF7A62798D
:1027A000F37E007F19127E1078397C087D017BFF53
:1027B0007A63790C7E007F18127E1078517C087D38
:1027C000017BFF7A6379247E007F21127E1078726C
:1027D0007C087D017BFF7A6379457E007F15127E40
:1027E0001078877C087D017BFF7A63795A7E007FB1
:1027F00063127E1078EA7C087D017BFF7A6379BDE5
:102800007E007F3F127E1078297C097D017BFF7A54
:102810006379FC7E007F2A127E107B017A06794B59
:1028200012CAC28F2C7B017A06795A12CAC28F2D26
:102830007B017A06797612CAC28F2E7B017A0679DD
:10284000F612CAC28F2F7B017A07790712CAC28F8C
:10285000307B017A07792012CAC28F317B017A0757
:10286000794D12CAC28F327B017A07796A12CAC2C5
:102870008F337B017A07798512CAC28F347B017A44
:102880000779BE12CAC28F357B017A0779D312CA83
:10289000C28F367B017A0779E812CAC28F377B0173
:1028A0007A08792012CAC28F387B017A08797212AD
:1028B000CAC28F397B017A08798712CAC28F3A7BE4
:1028C000017A0879EA12CAC28F3B7B017A09792919
:1028D00012CAC28F3C7B017A08795112CAC28F3D5D
:1028E000900004740CF0A37416F0900002E0FEA3B4
:1028F000E0FFEE6003023B98EFB417004003023B99
:1029000098902908F828287302294D0236A002362B
:10291000A902377902384902385C02386502386EFC
:1029200002389902391702395402395D023A3302EA
:102930003AB9023AC9023AD2023AF1023B1A023BD0
:1029400023023B37023B40023B49023B5E900006BC
:102950007402F0A314F090095DE0900008F0852C5B
:102960002AE52A6032FFC3E52C9FFFE49400FE7441
:102970004B2FF58274063EF583E0FFE52AFDE52C3A
:10298000C39DFDE49400FC74092DF58274003CF5B0
:1029900083EFF0152A80CA9000387407F0A37403FF
:1029A000F0900990E06403606890095EE0FCA3E0A9
:1029B000FDA3E0FEA3E0FFEC1277E4E4FBFA7980EC
:1029C00078471276CE90003A127CB1900962E0FC12
:1029D000A3E0FDA3E0FEA3E0FFEC1277E4E4FBFA42
:1029E000798078471276CE90003E127CB1900966CD
:1029F000E0FCA3E0FDA3E0FEA3E0FFEC1277E4E43B
:102A0000FBFA798078471276CE900042127CB18032
:102A100066900976E0FCA3E0FDA3E0FEA3E0FFECF6
:102A20001277E4E4FBFA798078471276CE90003A88
:102A3000127CB190097AE0FCA3E0FDA3E0FEA3E0E4
:102A4000FFEC1277E4E4FBFA798078471276CE90B7
:102A5000003E127CB190097EE0FCA3E0FDA3E0FE05
:102A6000A3E0FFEC1277E4E4FBFA79807847127672
:102A7000CE900042127CB1852D2AE52A6032FFC338
:102A8000E52D9FFFE49400FE745A2FF58274063EF4
:102A9000F583E0FFE52AFDE52DC39DFDE49400FCF0
:102AA00074462DF58274003CF583EFF0152A80CA38
:102AB00090006A7407F0A37403F0900990E0640337
:102AC000606890096AE0FCA3E0FDA3E0FEA3E0FFDC
:102AD000EC1277E4E4FBFA798078471276CE900026
:102AE0006C127CB190096EE0FCA3E0FDA3E0FEA3B4
:102AF000E0FFEC1277E4E4FBFA798078471276CEB7
:102B0000900070127CB1900972E0FCA3E0FDA3E09C
:102B1000FEA3E0FFEC1277E4E4FBFA798078471239
:102B200076CE900074127CB18066900982E0FCA39E
:102B3000E0FDA3E0FEA3E0FFEC1277E4E4FBFA790A
:102B40008078471276CE90006C127CB1900986E0B6
:102B5000FCA3E0FDA3E0FEA3E0FFEC1277E4E4FBBE
:102B6000FA798078471276CE900070127CB1900985
:102B70008AE0FCA3E0FDA3E0FEA3E0FFEC1277E413
:102B8000E4FBFA798078471276CE900074127CB11B
:102B9000852E2AE52A6032FFC3E52E9FFFE49400CC
:102BA000FE74762FF58274063EF583E0FFE52AFD7C
:102BB000E52EC39DFDE49400FC74782DF58274002D
:102BC0003CF583EFF0152A80CAE490009CF0A30442
:102BD000F090098EE090009EF090098E601C9009A4
:102BE0005674FFF0A37450F0A37481F07B017A0651
:102BF000799112BDCA752B1C801A90095674FFF08A
:102C0000A37450F0A37487F07B017A06799112BD0A
:102C1000CA752B1B852B2AE52A6032FFC3E52B9F43
:102C2000FFE49400FE74912FF58274063EF583E074
:102C3000FFE52AFDE52BC39DFDE49400FC749F2D68
:102C4000F58274003CF583EFF0152A80CA749F2545
:102C50002BF582E43400F5837403F0E49000CEF0A9
:102C6000A304F090098FE09000D0F090098F1460D9
:102C70003314604C14606514607E147003022D14CC
:102C800024056003022D2E90095674FFF0A37450A2
:102C9000F0A3748CF07B017A0679AD12BDCA752B56
:102CA00014022D2E90095674FFF0A37450F0A374F3
:102CB00092F07B017A0679AD12BDCA752B17806E32
:102CC00090095674FFF0A37450F0A3749BF07B013D
:102CD0007A0679AD12BDCA752B21805290095674BF
:102CE000FFF0A37450F0A374AEF07B017A0679ADC7
:102CF00012BDCA752B1D803690095674FFF0A3745F
:102D000050F0A374BDF07B017A0679AD12BDCA758F
:102D10002B19801A90095674FFF0A37450F0A37415
:102D2000C8F07B017A0679AD12BDCA752B22852BBE
:102D30002AE52A6032FFC3E52B9FFFE49400FE746E
:102D4000AD2FF58274063EF583E0FFE52AFDE52B05
:102D5000C39DFDE49400FC74D12DF58274003CF514
:102D600083EFF0152A80CA74D1252BF582E4340054
:102D7000F5837401F0E4900100F0A304F090099051
:102D8000E0900102F090099014602614603F1460F6
:102D9000582403706E90095674FFF0A37450F0A38A
:102DA00074DCF07B017A0679CF12BDCA752B1B80CB
:102DB0005290095674FFF0A37450F0A374E7F07BAF
:102DC000017A0679CF12BDCA752B16803690095646
:102DD00074FFF0A37450F0A374EDF07B017A0679D0
:102DE000CF12BDCA752B1A801A90095674FFF0A332
:102DF0007450F0A374F7F07B017A0679CF12BDCA44
:102E0000752B27852B2AE52A6032FFC3E52B9FFF10
:102E1000E49400FE74CF2FF58274063EF583E0FF44
:102E2000E52AFDE52BC39DFDE49400FC74032DF51C
:102E30008274013CF583EFF0152A80CA7403252BB8
:102E4000F582E43401F5837402F0900132F0A304BA
:102E5000F0E4F52AE52AC39403501E7491252AF55F
:102E600082E43409F583E0FF7434252AF582E434E2
:102E700001F583EFF0052A80DB852F2AE52A6032F1
:102E8000FFC3E52F9FFFE49400FE74F62FF58274D4
:102E9000063EF583E0FFE52AFDE52FC39DFDE494A2
:102EA00000FC74372DF58274013CF583EFF0152A90
:102EB00080CA9001647403F0A3F0E4F52AE52AC304
:102EC00094035044E52A25E025E02494F582E43477
:102ED00009F583E0FCA3E0FDA3E0FEA3E0FF74910D
:102EE000252AF582E43409F583E0F9F8127C50755F
:102EF000F002E52AA42466F582E5F03401F583EEBC
:102F0000F0A3EFF0052A80B585302AE52A6032FF6C
:102F1000C3E5309FFFE49400FE74072FF582740729
:102F20003EF583E0FFE52AFDE530C39DFDE4940016
:102F3000FC746C2DF58274013CF583EFF0152A804A
:102F4000CA9001967407F0A37403F0E4F52AE52A09
:102F5000C394035031E52A25E025E024A0F582E45E
:102F60003409F583E0FCA3E0FDA3E0FEA3E0FF75D8
:102F7000F004E52AA42498F582E5F03401F58312E3
:102F80007CB1052A80C885312AE52A6032FFC3E575
:102F9000319FFFE49400FE74202FF58274073EF504
:102FA00083E0FFE52AFDE531C39DFDE49400FC7458
:102FB000A42DF58274013CF583EFF0152A80CAE454
:102FC0009001C8F0A304F09009ACE09001CAF09021
:102FD00009AC601C90095674FFF0A37450F0A37400
:102FE00081F07B017A07793112BDCA752B1C801ADA
:102FF00090095674FFF0A37450F0A37487F07B011E
:103000007A07793112BDCA752B1B852B2AE52A60F8
:1030100032FFC3E52B9FFFE49400FE74312FF5824D
:1030200074073EF583E0FFE52AFDE52BC39DFDE433
:103030009400FC74CB2DF58274013CF583EFF01500
:103040002A80CA74CB252BF582E43401F5837403FE
:10305000F09001FA7405F0A37402F0E4F52AE52A71
:10306000C3940140030230E9E52A25E025E024ADC0
:10307000F582E43409F583E0FCA3E0FDA3E0FEA3C0
:10308000E0FF7491252AF582E43409F583E0F9F82C
:10309000127C5075F008E52AA424FCF582E5F03492
:1030A00001F583127CB1E52A25E025E024B5F582FF
:1030B000E43409F583E0FCA3E0FDA3E0FEA3E0FF18
:1030C0007491252AF582E43409F583E0F9F8127C3D
:1030D0005075F008E52AA42400F582E5F03402F5E5
:1030E00083127CB1052A02305E85322AE52A6032DD
:1030F000FFC3E5329FFFE49400FE744D2FF5827408
:10310000073EF583E0FFE52AFDE532C39DFDE4942B
:1031100000FC74042DF58274023CF583EFF0152A4F
:1031200080CA90022C7405F0A37402F09009C1E0EB
:10313000FCA3E0FDA3E0FEA3E0FF90022E127CB111
:103140009009BDE0FCA3E0FDA3E0FEA3E0FF900238
:1031500032127CB185332AE52A6032FFC3E5339F02
:10316000FFE49400FE746A2FF58274073EF583E055
:10317000FFE52AFDE533C39DFDE49400FC74362D84
:10318000F58274023CF583EFF0152A80CA90025E46
:103190007403F0A37401F09009C5E0FFA3E090026E
:1031A00060CFF0A3EFF085342AE52A6032FFC3E553
:1031B000349FFFE49400FE74852FF58274073EF57A
:1031C00083E0FFE52AFDE534C39DFDE49400FC7433
:1031D000622DF58274023CF583EFF0152A80CAE473
:1031E000900290F0A304F09009CBE0900292F0904E
:1031F00009CB601C90095674FFF0A37450F0A374BF
:1032000081F07B017A07799912BDCA752B25801A46
:1032100090095674FFF0A37450F0A37487F07B01FB
:103220007A07799912BDCA752B24852B2AE52A6065
:1032300032FFC3E52B9FFFE49400FE74992FF582C3
:1032400074073EF583E0FFE52AFDE52BC39DFDE411
:103250009400FC74932DF58274023CF583EFF01515
:103260002A80CA7493252BF582E43402F583740313
:10327000F09002C204F0A37402F09009C7E0FFA32B
:10328000E09002C4CFF0A3EFF09009C9E0FFA3E003
:103290009002C6CFF0A3EFF085352AE52A6032FF11
:1032A000C3E5359FFFE49400FE74BE2FF5827407DA
:1032B0003EF583E0FFE52AFDE535C39DFDE494007E
:1032C000FC74C82DF58274023CF583EFF0152A805A
:1032D000CA9002F47406F0A37402F09009CCE0FCEA
:1032E000A3E0FDA3E0FEA3E0FF9002F6127CB19004
:1032F00009D0E0FCA3E0FDA3E0FEA3E0FF9002FA0A
:10330000127CB185362AE52A6032FFC3E5369FFF7D
:10331000E49400FE74D32FF58274073EF583E0FF3A
:10332000E52AFDE536C39DFDE49400FC74FE2DF511
:103330008274023CF583EFF0152A80CA900326744C
:1033400002F0A314F09009D4E0900328F085372A06
:10335000E52A6032FFC3E5379FFFE49400FE74E87E
:103360002FF58274073EF583E0FFE52AFDE537C3BC
:103370009DFDE49400FC74292DF58274033CF583D3
:10338000EFF0152A80CAE4900358F0A304F09009E6
:10339000D5E090035AF09009D5601C90095674FF4F
:1033A000F0A37450F0A37481F07B017A0779FC12CA
:1033B000BDCA752B24801A90095674FFF0A374506F
:1033C000F0A37487F07B017A0779FC12BDCA752BD4
:1033D00023852B2AE52A6032FFC3E52B9FFFE49467
:1033E00000FE74FC2FF58274073EF583E0FFE52AAA
:1033F000FDE52BC39DFDE49400FC745B2DF5827408
:10340000033CF583EFF0152A80CA745B252BF58207
:10341000E43403F5837403F090038A7401F0A3F09D
:103420009009D6E090038CF085382AE52A6032FFB7
:10343000C3E5389FFFE49400FE74202FF5827408E2
:103440003EF583E0FFE52AFDE538C39DFDE49400E9
:10345000FC748D2DF58274033CF583EFF0152A8002
:10346000CAE49003BCF0A304F09009D7E09003BE37
:10347000F09009D7601C90095674FFF0A37450F0C7
:10348000A37481F07B017A08793912BDCA752B18B3
:10349000801A90095674FFF0A37450F0A37487F05B
:1034A0007B017A08793912BDCA752B17852B2AE55D
:1034B0002A6032FFC3E52B9FFFE49400FE74392F8E
:1034C000F58274083EF583E0FFE52AFDE52BC39DF8
:1034D000FDE49400FC74BF2DF58274033CF583EF8A
:1034E000F0152A80CA74BF252BF582E43403F583D6
:1034F0007403F09003EE7405F0A37401F09009F2E8
:10350000E0FCA3E0FDA3E0FEA3E0FF9003F0127C4B
:10351000B1853D2AE52A6032FFC3E53D9FFFE49473
:1035200000FE74512FF58274083EF583E0FFE52A12
:10353000FDE53DC39DFDE49400FC74F42DF582741B
:10354000033CF583EFF0152A80CA9004207407F03D
:10355000A314F0E4F52AE52AC394065031E52A25A0
:10356000E025E024D8F582E43409F583E0FCA3E00B
:10357000FDA3E0FEA3E0FF75F004E52AA42422F5F4
:1035800082E5F03404F583127CB1052A80C88539C0
:103590002AE52A6032FFC3E5399FFFE49400FE74F8
:1035A000722FF58274083EF583E0FFE52AFDE539C8
:1035B000C39DFDE49400FC743A2DF58274043CF53F
:1035C00083EFF0152A80CA853A2AE52A6032FFC3C4
:1035D000E53A9FFFE49400FE74872FF58274083E5D
:1035E000F583E0FFE52AFDE53AC39DFDE49400FC88
:1035F00074522DF58274043CF583EFF0152A80CACD
:10360000853B2AE52A6032FFC3E53B9FFFE4940037
:10361000FE74EA2FF58274083EF583E0FFE52AFD8B
:10362000E53BC39DFDE49400FC74E82DF582740431
:103630003CF583EFF0152A80CA853C2AE52A6032E2
:10364000FFC3E53C9FFFE49400FE74292FF58274CC
:10365000093EF583E0FFE52AFDE53CC39DFDE494CA
:1036600000FC747E2DF58274053CF583EFF0152A7D
:1036700080CA7B017A007904900645E0A3E014FD3E
:1036800012C6AF900645E0FCA3E0FD2403F582746A
:10369000003CF583EFF07B017A00790412B23E2200
:1036A000900B08E0900A10F022900990E06403600B
:1036B00064E4FFFE7D807C47900B08E0F8A3E0F90E
:1036C000A3E0FAA3E0FB1275C5127822900A11124A
:1036D0007CB1E4FFFE7D807C47900B0CE0F8A3E01A
:1036E000F9A3E0FAA3E0FB1275C5127822900A153F
:1036F000127CB1E4FFFE7D807C47900B10E0F8A3C4
:10370000E0F9A3E0FAA3E0FB1275C5127822900A53
:1037100019127CB122E4FFFE7D807C47900B08E00B
:10372000F8A3E0F9A3E0FAA3E0FB1275C512782232
:10373000900A29127CB1E4FFFE7D807C47900B0C3F
:10374000E0F8A3E0F9A3E0FAA3E0FB1275C5127854
:1037500022900A2D127CB1E4FFFE7D807C47900B05
:1037600010E0F8A3E0F9A3E0FAA3E0FB1275C5129C
:103770007822900A31127CB122900990E0640360B3
:1037800064E4FFFE7D807C47900B08E0F8A3E0F93D
:10379000A3E0FAA3E0FB1275C5127822900A1D126D
:1037A0007CB1E4FFFE7D807C47900B0CE0F8A3E049
:1037B000F9A3E0FAA3E0FB1275C5127822900A2162
:1037C000127CB1E4FFFE7D807C47900B10E0F8A3F3
:1037D000E0F9A3E0FAA3E0FB1275C5127822900A83
:1037E00025127CB122E4FFFE7D807C47900B08E02F
:1037F000F8A3E0F9A3E0FAA3E0FB1275C512782262
:10380000900A35127CB1E4FFFE7D807C47900B0C62
:10381000E0F8A3E0F9A3E0FAA3E0FB1275C5127883
:1038200022900A39127CB1E4FFFE7D807C47900B28
:1038300010E0F8A3E0F9A3E0FAA3E0FB1275C512CB
:103840007822900A3D127CB122900B08E06007902C
:103850000A417403F022E4900A41F022900B08E040
:10386000900A42F022900B08E0900A43F022E4F51F
:103870002AE52AC394034003023B987408252AF5DD
:1038800082E4340BF583E0FF7444252AF582E434A6
:103890000AF583EFF0052A80D8E4F52AE52AC394D7
:1038A000035071E52A25E02408F582E4340BF58302
:1038B000E0FEA3E0FFEE3395E0FDFCE52A25E025E0
:1038C000E02447F582E4340AF583127CB1E52A2529
:1038D000E025E02447F582E4340AF583C083C08202
:1038E000E0FCA3E0FDA3E0FEA3E0FF7444252AF57D
:1038F00082E4340AF583E0F9F8127C64D082D08344
:10390000127CB174C9252AF582E4340BF583E4F006
:10391000052A8088D20A22E4F52AE52AC3940340C6
:1039200003023B98E52A25E025E02408F582E434EB
:103930000BF583E0FCA3E0FDA3E0FEA3E0FFE52A96
:1039400025E025E02453F582E4340AF583127CB1A6
:10395000052A80C6900B08E0900A5FF022E4F52A61
:10396000E52AC394024003023B98E52A75F008A4B7
:103970002408F582E4340BF583E0FCA3E0FDA3E02A
:10398000FEA3E0FFE52A25E025E02460F582E4348B
:103990000AF583127CB1E52A75F008A4240CF5829F
:1039A000E4340BF583E0FCA3E0FDA3E0FEA3E0FF1D
:1039B000E52A25E025E02468F582E4340AF583123F
:1039C0007CB1E52A25E025E02460F582E4340AF59F
:1039D00083C083C082E0FCA3E0FDA3E0FEA3E0FF80
:1039E0007444252AF582E4340AF583E0F9F8127C60
:1039F00064D082D083127CB1E52A25E025E02468DA
:103A0000F582E4340AF583C083C082E0FCA3E0FDC4
:103A1000A3E0FEA3E0FF7444252AF582E4340AF50E
:103A200083E0F9F8127C64D082D083127CB1052A3D
:103A3000023960900B08E0FCA3E0FDA3E0FEA3E0E8
:103A4000FF900647127CB1E4FFFEFDFC900647E0C4
:103A5000F8A3E0F9A3E0FAA3E0FBD3127C1650141C
:103A6000900647E0FCA3E0FDA3E0FEA3E0FF900A80
:103A700074127CB1900B0CE0FCA3E0FDA3E0FEA36C
:103A8000E0FF900647127CB1E4FFFEFDFC90064784
:103A9000E0F8A3E0F9A3E0FAA3E0FBC3127C165020
:103AA00003023B98900647E0FCA3E0FDA3E0FEA3E1
:103AB000E0FF900A70127CB122900B08E0FFA3E0B7
:103AC000900A78CFF0A3EFF022900B08E0900A7EE6
:103AD000F022900B08E0FFA3E0900A7ACFF0A3EF6A
:103AE000F0900B0AE0FFA3E0900A7CCFF0A3EFF088
:103AF00022900B08E0FCA3E0FDA3E0FEA3E0FF9012
:103B00000A7F127CB1900B0CE0FCA3E0FDA3E0FE69
:103B1000A3E0FF900A83127CB122900B08E0900A88
:103B200087F022900B08E0FF6007900A887401F08C
:103B300022E4900A88F022900B08E0900A89F02293
:103B4000900B08E0900A8AF022900B08E0FCA3E0BA
:103B5000FDA3E0FEA3E0FF900AA5127CB122E4F5EC
:103B60002AE52AC394065030E52A25E025E02408FA
:103B7000F582E4340BF583E0FCA3E0FDA3E0FEA3B3
:103B8000E0FFE52A25E025E0248BF582E4340AF500
:103B900083127CB1052A80C9229004B4EBF0A3EA19
:103BA000F0A3E9F090095DE064FA700302508090A0
:103BB00004B4E0FBA3E0FAA3E0F8AC02AD037BFFA2
:103BC0007A51790E127EEE90095674FFF0A374516B
:103BD000F0A3740FF09004B4E0FBA3E0FAA3E0F9C3
:103BE00012BDCA90095674FFF0A37451F0A3741269
:103BF000F09004B4E0FBA3E0FAA3E0F912BDCA9090
:103C0000095674FFF0A37451F0A37425F09004B426
:103C1000E0FBA3E0FAA3E0F912BDCA90095674FFD5
:103C2000F0A37451F0A3744BF09004B4E0FBA3E054
:103C3000FAA3E0F912BDCA90095674FFF0A37451BB
:103C4000F0A37451F09004B4E0FBA3E0FAA3E0F910
:103C500012BDCA90052074FFF0A37451F0A3745FE5
:103C6000F090095DE0FF900523E4F0A3EFF07B0105
:103C70007A0479B9128D4D9009567401F0A3740439
:103C8000F0A374B9F09004B4E0FBA3E0FAA3E0F968
:103C900012BDCA90095674FFF0A37451F0A3746862
:103CA000F09004B4E0FBA3E0FAA3E0F912BDCA90DF
:103CB00009D7E0B4011E90095674FFF0A37451F0C7
:103CC000A37483F09004B4E0FBA3E0FAA3E0F9123C
:103CD000BDCA801C90095674FFF0A37451F0A37400
:103CE00088F09004B4E0FBA3E0FAA3E0F912BDCAA7
:103CF00090052074FFF0A37451F0A3748CF0900B26
:103D0000ECE0FF900523E4F0A3EFF07B017A047967
:103D1000B9128D4D9009567401F0A37404F0A37488
:103D2000B9F09004B4E0FBA3E0FAA3E0F912BDCA35
:103D300090095674FFF0A37451F0A3740FF090042F
:103D4000B4E0FBA3E0FAA3E0F912BDCA90095674EF
:103D5000FFF0A37451F0A3749CF09004B4E0FBA3B3
:103D6000E0FAA3E0F912BDCA90095674FFF0A374FB
:103D700051F0A374A9F09004B4E0FBA3E0FAA3E02F
:103D8000F912BDCA900A43E0B4021E90095674FFAE
:103D9000F0A37451F0A374B9F09004B4E0FBA3E075
:103DA000FAA3E0F912BDCA8041900A43E0B4011EB3
:103DB00090095674FFF0A37451F0A374C7F09004F7
:103DC000B4E0FBA3E0FAA3E0F912BDCA801C90099D
:103DD0005674FFF0A37451F0A374D0F09004B4E0D3
:103DE000FBA3E0FAA3E0F912BDCAE49004B7F0A384
:103DF000F0C39004B8E094029004B7E0648094802B
:103E00004003023F55900A43E06402705F90052032
:103E100074FFF0A37451F0A374DEF09004B7E0FED9
:103E2000A3E07802C333CE33CED8F924FEF58274F2
:103E3000093EF583E0A3E0A3E0FFA3E0900523CFD4
:103E4000F0A3EFF07B017A0479B9128D4D900956F9
:103E50007401F0A37404F0A374B9F09004B4E0FB0F
:103E6000A3E0FAA3E0F912BDCA023F44900A43E07E
:103E70006401705E90052074FFF0A37451F0A37488
:103E8000DEF09004B7E0FEA3E07802C333CE33CE79
:103E9000D8F92406F582740A3EF583E0A3E0A3E096
:103EA000FFA3E0900523CFF0A3EFF07B017A047924
:103EB000B9128D4D9009567401F0A37404F0A374E7
:103EC000B9F09004B4E0FBA3E0FAA3E0F912BDCA94
:103ED000807290052074FFF0A37451F0A374DEF09B
:103EE0009004B7E0FAA3E0FBAE027802C333CE330E
:103EF000CED8F924F6F58274093EF583E0FCA3E000
:103F0000FDA3E0FEA3E0FF74912BF58274093AF55E
:103F100083E0F9F8127C50900523EEF0A3EFF07BDC
:103F2000017A0479B9128D4D9009567401F0A37489
:103F300004F0A374B9F09004B4E0FBA3E0FAA3E0AA
:103F4000F912BDCA9004B8E004F070069004B7E01E
:103F500004F0023DF190095674FFF0A37451F0A3F0
:103F6000740FF09004B4E0FBA3E0FAA3E0F912BDF3
:103F7000CA90095674FFF0A37451F0A3740FF09027
:103F800004B4E0FBA3E0FAA3E0F912BDCA90052057
:103F900074FFF0A37451F0A374E2F07B017A04790A
:103FA000B9128D4D900A0EE05403601990095674B1
:103FB000FFF0A37451F0A374F2F07B017A0479B995
:103FC00012BDCA801790095674FFF0A37451F0A374
:103FD00074F8F07B017A0479B912BDCA900956745D
:103FE00001F0A37404F0A374B9F09004B4E0FBA34F
:103FF000E0FAA3E0F912BDCA90095674FFF0A37469
:1040000051F0A374FDF09004B4E0FBA3E0FAA3E048
:10401000F912BDCA90095674FFF0A37452F0A3744C
:1040200013F09004B4E0FBA3E0FAA3E0F912BDCAD8
:10403000E49004B7F0A3F0C39004B8E094039004B4
:10404000B7E06480948040030240FD90052074FF37
:10405000F0A37452F0A37423F09004B7E0FCA3E043
:10406000FD2401FEE43C900523F0A3CEF0EDAE0468
:104070007802C333CE33CED8F924B5F582740B3E23
:10408000F583E0FCA3E0FDA3E0FEA3E0FF9004B70E
:10409000E0FAA3E02491F58274093AF583E0F9F897
:1040A000127C50900525EEF0A3EFF07B017A0479A5
:1040B000B9128D4D9009567401F0A37404F0A374E5
:1040C000B9F09004B4E0FBA3E0FAA3E0F912BDCA92
:1040D00090095674FFF0A37451F0A3740FF090048C
:1040E000B4E0FBA3E0FAA3E0F912BDCA9004B8E083
:1040F00004F070069004B7E004F002403790052009
:1041000074FFF0A37452F0A3742CF0900AE8E0FC62
:10411000A3E0FDA3E0FEA3E0FF900523127CB17BAA
:10412000017A0479B9128D4D9009567401F0A37487
:1041300004F0A374B9F09004B4E0FBA3E0FAA3E0A8
:10414000F912BDCA90095674FFF0A37451F0A3741C
:104150000FF09004B4E0FBA3E0FAA3E0F912BDCAAB
:1041600090052074FFF0A37452F0A3743EF0900BFE
:10417000C1E0FCA3E0FDA3E0FEA3E0FF9005231255
:104180007CB17B017A0479B9128D4D900956740186
:10419000F0A37404F0A374B9F09004B4E0FBA3E0BE
:1041A000FAA3E0F912BDCA90095674FFF0A3745146
:1041B000F0A3740FF09004B4E0FBA3E0FAA3E0F9DD
:1041C00012BDCA90095674FFF0A37452F0A3745044
:1041D000F09004B4E0FBA3E0FAA3E0F912BDCA90AA
:1041E000095674FFF0A37452F0A37466F09004B4FF
:1041F000E0FBA3E0FAA3E0F912BDCA900990E064E5
:1042000003700302430890052074FFF0A37452F07A
:10421000A37478F090095EE0FCA3E0FDA3E0FEA3A8
:10422000E0FFEC1277E4E4FBFA798078471276CE6F
:10423000900523127CB17B017A0479B9128D4D90DF
:1042400009567401F0A37404F0A374B9F09004B497
:10425000E0FBA3E0FAA3E0F912BDCA90052074FFC9
:10426000F0A37452F0A37482F0900962E0FCA3E022
:10427000FDA3E0FEA3E0FFEC1277E4E4FBFA798013
:1042800078471276CE900523127CB17B017A0479AF
:10429000B9128D4D9009567401F0A37404F0A37403
:1042A000B9F09004B4E0FBA3E0FAA3E0F912BDCAB0
:1042B00090052074FFF0A37452F0A3748CF0900961
:1042C00066E0FCA3E0FDA3E0FEA3E0FFEC1277E4D0
:1042D000E4FBFA798078471276CE900523127CB100
:1042E0007B017A0479B9128D4D9009567401F0A3BF
:1042F0007404F0A374B9F09004B4E0FBA3E0FAA353
:10430000E0F912BDCA02440790052074FFF0A374BF
:1043100052F0A37478F0900976E0FCA3E0FDA3E0EE
:10432000FEA3E0FFEC1277E4E4FBFA798078471211
:1043300076CE900523127CB17B017A0479B9128D77
:104340004D9009567401F0A37404F0A374B9F09071
:1043500004B4E0FBA3E0FAA3E0F912BDCA90052083
:1043600074FFF0A37452F0A37482F090097AE0FC19
:10437000A3E0FDA3E0FEA3E0FFEC1277E4E4FBFA88
:10438000798078471276CE900523127CB17B017A32
:104390000479B9128D4D9009567401F0A37404F09C
:1043A000A374B9F09004B4E0FBA3E0FAA3E0F9121F
:1043B000BDCA90052074FFF0A37452F0A3748CF072
:1043C00090097EE0FCA3E0FDA3E0FEA3E0FFEC1279
:1043D00077E4E4FBFA798078471276CE90052312D1
:1043E0007CB17B017A0479B9128D4D900956740124
:1043F000F0A37404F0A374B9F09004B4E0FBA3E05C
:10440000FAA3E0F912BDCA90095674FFF0A37452E2
:10441000F0A37496F09004B4E0FBA3E0FAA3E0F9F3
:1044200012BDCA900990E064037003024530900504
:104430002074FFF0A37452F0A37478F090096AE03E
:10444000FCA3E0FDA3E0FEA3E0FFEC1277E4E4FBB5
:10445000FA798078471276CE900523127CB17B01E1
:104460007A0479B9128D4D9009567401F0A3740441
:10447000F0A374B9F09004B4E0FBA3E0FAA3E0F970
:1044800012BDCA90052074FFF0A37452F0A3748289
:10449000F090096EE0FCA3E0FDA3E0FEA3E0FFECDA
:1044A0001277E4E4FBFA798078471276CE90052300
:1044B000127CB17B017A0479B9128D4D9009567442
:1044C00001F0A37404F0A374B9F09004B4E0FBA36A
:1044D000E0FAA3E0F912BDCA90052074FFF0A374BE
:1044E00052F0A3748CF0900972E0FCA3E0FDA3E00D
:1044F000FEA3E0FFEC1277E4E4FBFA798078471240
:1045000076CE900523127CB17B017A0479B9128DA5
:104510004D9009567401F0A37404F0A374B9F0909F
:1045200004B4E0FBA3E0FAA3E0F912BDCA02462FEF
:1045300090052074FFF0A37452F0A37478F09009F2
:1045400082E0FCA3E0FDA3E0FEA3E0FFEC1277E431
:10455000E4FBFA798078471276CE900523127CB17D
:104560007B017A0479B9128D4D9009567401F0A33C
:104570007404F0A374B9F09004B4E0FBA3E0FAA3D0
:10458000E0F912BDCA90052074FFF0A37452F0A3A5
:104590007482F0900986E0FCA3E0FDA3E0FEA3E0B6
:1045A000FFEC1277E4E4FBFA798078471276CE903C
:1045B0000523127CB17B017A0479B9128D4D9009E3
:1045C000567401F0A37404F0A374B9F09004B4E03D
:1045D000FBA3E0FAA3E0F912BDCA90052074FFF036
:1045E000A37452F0A3748CF090098AE0FCA3E0FD60
:1045F000A3E0FEA3E0FFEC1277E4E4FBFA79807815
:10460000471276CE900523127CB17B017A0479B9EA
:10461000128D4D9009567401F0A37404F0A374B97F
:10462000F09004B4E0FBA3E0FAA3E0F912BDCA9055
:10463000095674FFF0A37451F0A3740FF09004B402
:10464000E0FBA3E0FAA3E0F912BDCA90098EE0B442
:10465000031E90095674FFF0A37452F0A374B0F0D7
:104660009004B4E0FBA3E0FAA3E0F912BDCA801CF9
:1046700090095674FFF0A37452F0A374CAF090042A
:10468000B4E0FBA3E0FAA3E0F912BDCA90098FE001
:1046900014603814605314606E14700302472514BC
:1046A00070030247432405600302475F9009567474
:1046B000FFF0A37452F0A374E3F09004B4E0FBA302
:1046C000E0FAA3E0F912BDCA02475F90095674FFF1
:1046D000F0A37452F0A374F5F09004B4E0FBA3E0EF
:1046E000FAA3E0F912BDCA807690095674FFF0A3D0
:1046F0007453F0A3740AF09004B4E0FBA3E0FAA3AF
:10470000E0F912BDCA805890095674FFF0A37453A3
:10471000F0A37429F09004B4E0FBA3E0FAA3E0F95D
:1047200012BDCA803A90095674FFF0A37453F0A3E7
:104730007444F09004B4E0FBA3E0FAA3E0F912BDE6
:10474000CA801C90095674FFF0A37453F0A3745BE5
:10475000F09004B4E0FBA3E0FAA3E0F912BDCA9024
:104760000990E014602814604314605E240370769E
:1047700090095674FFF0A37453F0A37476F090047C
:10478000B4E0FBA3E0FAA3E0F912BDCA8058900997
:104790005674FFF0A37453F0A3748FF09004B4E048
:1047A000FBA3E0FAA3E0F912BDCA803A900956745F
:1047B000FFF0A37453F0A374A3F09004B4E0FBA340
:1047C000E0FAA3E0F912BDCA801C90095674FFF00C
:1047D000A37453F0A374BBF09004B4E0FBA3E0FA1D
:1047E000A3E0F912BDCA9009D5E0601E9009567485
:1047F000FFF0A37453F0A374E0F09004B4E0FBA3C3
:10480000E0FAA3E0F912BDCA801C90095674FFF0CB
:10481000A37454F0A37401F09004B4E0FBA3E0FA95
:10482000A3E0F912BDCA90052074FFF0A37454F000
:10483000A37421F09009D6E0FE3395E0900523F0B3
:10484000A3CEF07B017A0479B9128D4D900956748C
:1048500001F0A37404F0A374B9F09004B4E0FBA3D6
:10486000E0FAA3E0F912BDCA90095674FFF0A374F0
:1048700054F0A3743AF09004B4E0FBA3E0FAA3E090
:10488000F912BDCAE49004B7F0A3F0C39004B8E0F5
:1048900094039004B7E06480948040030249279019
:1048A000052074FFF0A37452F0A37423F09004B7B2
:1048B000E0FCA3E0FD2401FEE43C900523F0A3CE40
:1048C000F074912DF58274093CF583E0FF90052585
:1048D000E4F0A3EFF07B017A0479B9128D4D9009D1
:1048E000567401F0A37404F0A374B9F09004B4E01A
:1048F000FBA3E0FAA3E0F912BDCA90095674FFF0D9
:10490000A37451F0A3740FF09004B4E0FBA3E0FA99
:10491000A3E0F912BDCA9004B8E004F07006900458
:10492000B7E004F002488B90095674FFF0A374546A
:10493000F0A3744FF09004B4E0FBA3E0FAA3E0F915
:1049400012BDCAE49004B7F0A3F0C39004B8E09499
:10495000039004B7E0648094804003024A0E9005FF
:104960002074FFF0A37454F0A37465F09004B7E0D2
:10497000FCA3E0FD2401FEE43C900523F0A3CEF06F
:10498000EDAE047802C333CE33CED8F92494F58249
:1049900074093EF583E0FCA3E0FDA3E0FEA3E0FF85
:1049A0009004B7E0FAA3E02491F58274093AF58304
:1049B000E0F9F8127C50900525127CB17B017A0455
:1049C00079B9128D4D9009567401F0A37404F0A3C7
:1049D00074B9F09004B4E0FBA3E0FAA3E0F912BDCF
:1049E000CA90095674FFF0A37451F0A3740FF090AD
:1049F00004B4E0FBA3E0FAA3E0F912BDCA9004B846
:104A0000E004F070069004B7E004F002494A90090F
:104A10005674FFF0A37454F0A3746FF09004B4E0E4
:104A2000FBA3E0FAA3E0F912BDCAE49004B7F0A337
:104A3000F0C39004B8E094039004B7E064809480DD
:104A40004003024ADF90052074FFF0A37454F0A3E2
:104A50007489F09004B7E0FCA3E0FD2401FEE43C7F
:104A6000900523F0A3CEF0EDAE047802C333CE332D
:104A7000CED8F924A0F58274093EF583E0FCA3E0CA
:104A8000FDA3E0FEA3E0FF900525127CB17B017A37
:104A90000479B9128D4D9009567401F0A37404F095
:104AA000A374B9F09004B4E0FBA3E0FAA3E0F91218
:104AB000BDCA90095674FFF0A37451F0A3740FF0AF
:104AC0009004B4E0FBA3E0FAA3E0F912BDCA90049D
:104AD000B8E004F070069004B7E004F0024A3190A8
:104AE000095674FFF0A37454F0A37492F09004B4C8
:104AF000E0FBA3E0FAA3E0F912BDCA90052074FF21
:104B0000F0A37454F0A374AAF09009D8E0FCA3E0D9
:104B1000FDA3E0FEA3E0FF900523127CB19009DC29
:104B2000E0FCA3E0FDA3E0FEA3E0FF900527127CDC
:104B3000B19009E0E0FCA3E0FDA3E0FEA3E0FF905C
:104B4000052B127CB17B017A0479B9128D4D900945
:104B5000567401F0A37404F0A374B9F09004B4E0A7
:104B6000FBA3E0FAA3E0F912BDCA90052074FFF0A0
:104B7000A37454F0A374C3F09009E4E0FCA3E0FD37
:104B8000A3E0FEA3E0FF900523127CB19009E8E0CA
:104B9000FCA3E0FDA3E0FEA3E0FF900527127CB19B
:104BA0009009ECE0FCA3E0FDA3E0FEA3E0FF90058C
:104BB0002B127CB17B017A0479B9128D4D90095684
:104BC0007401F0A37404F0A374B9F09004B4E0FB92
:104BD000A3E0FAA3E0F912BDCA90095674FFF0A34E
:104BE0007451F0A3740FF09004B4E0FBA3E0FAA3B7
:104BF000E0F912BDCA90052074FFF0A37454F0A32D
:104C000074DCF0900A5FE0FF900523E4F0A3EFF07E
:104C10007B017A0479B9128D4D9009567401F0A385
:104C20007404F0A374B9F09004B4E0FBA3E0FAA319
:104C3000E0F912BDCA90095674FFF0A37451F0A3B5
:104C4000740FF09004B4E0FBA3E0FAA3E0F912BD06
:104C5000CAE49004B7F0A3F0C39004B8E0940190C4
:104C600004B7E0648094804003024D709005207486
:104C7000FFF0A37454F0A374F6F09004B7E0FCA323
:104C8000E0FD2401FEE43C900523F0A3CEF0EDAE60
:104C9000047802C333CE33CED8F92460F582740A87
:104CA0003EF583E0FCA3E0FDA3E0FEA3E0FF90045B
:104CB000B7E0FAA3E02444F582740A3AF583E0F9F8
:104CC000F8127C50900525127CB17B017A0479B9E9
:104CD000128D4D9009567401F0A37404F0A374B9B9
:104CE000F09004B4E0FBA3E0FAA3E0F912BDCA908F
:104CF000052074FFF0A37455F0A3741CF09004B762
:104D0000E0FAA3E0FBAE027802C333CE33CED8F98B
:104D10002468F582740A3EF583E0FCA3E0FDA3E07D
:104D2000FEA3E0FF74442BF582740A3AF583E0F9A0
:104D3000F8127C50900523127CB17B017A0479B97A
:104D4000128D4D9009567401F0A37404F0A374B948
:104D5000F09004B4E0FBA3E0FAA3E0F912BDCA901E
:104D600004B8E004F070069004B7E004F0024C5878
:104D700090052074FFF0A37455F0A37429F0900AF5
:104D800070E0A3E0A3E0FFA3E0900523CFF0A3EF42
:104D9000F0900A74E0A3E0A3E0FFA3E0900525CF24
:104DA000F0A3EFF07B017A0479B9128D4D9009568A
:104DB0007401F0A37404F0A374B9F09004B4E0FBA0
:104DC000A3E0FAA3E0F912BDCA90095674FFF0A35C
:104DD0007451F0A3740FF09004B4E0FBA3E0FAA3C5
:104DE000E0F912BDCA90052074FFF0A37455F0A33A
:104DF0007445F0900A78E0FFA3E0900523CFF0A37C
:104E0000EFF07B017A0479B9128D4D900956740147
:104E1000F0A37404F0A374B9F09004B4E0FBA3E031
:104E2000FAA3E0F912BDCA90095674FFF0A37451B9
:104E3000F0A3740FF09004B4E0FBA3E0FAA3E0F950
:104E400012BDCA90052074FFF0A37455F0A37457E7
:104E5000F0900A7AE0FFA3E0900523CFF0A3EFF0F3
:104E6000900A7CE0FFA3E0900525CFF0A3EFF07B54
:104E7000017A0479B9128D4D9009567401F0A3742A
:104E800004F0A374B9F09004B4E0FBA3E0FAA3E04B
:104E9000F912BDCA90095674FFF0A37451F0A374BF
:104EA0000FF09004B4E0FBA3E0FAA3E0F912BDCA4E
:104EB00090052074FFF0A37455F0A37479F0900A64
:104EC0007FE0FCA3E0FDA3E0FEA3E0FF900523123A
:104ED0007CB1900A83E0FCA3E0FDA3E0FEA3E0FF29
:104EE000900527127CB17B017A0479B9128D4D901F
:104EF00009567401F0A37404F0A374B9F09004B4DB
:104F0000E0FBA3E0FAA3E0F912BDCA90095674FFD2
:104F1000F0A37451F0A3740FF09004B4E0FBA3E08D
:104F2000FAA3E0F912BDCA900A7EE0601E9009560D
:104F300074FFF0A37455F0A3749DF09004B4E0FBEB
:104F4000A3E0FAA3E0F912BDCA801C90095674FFD1
:104F5000F0A37455F0A374B8F09004B4E0FBA3E0A0
:104F6000FAA3E0F912BDCA90052074FFF0A37455AE
:104F7000F0A374D2F0900A87E0FF900523E4F0A339
:104F8000EFF07B017A0479B9128D4D9009567401C6
:104F9000F0A37404F0A374B9F09004B4E0FBA3E0B0
:104FA000FAA3E0F912BDCA90095674FFF0A3745138
:104FB000F0A3740FF09004B4E0FBA3E0FAA3E0F9CF
:104FC00012BDCA900BABE0B4011E90095674FFF0FD
:104FD000A37455F0A374E4F09004B4E0FBA3E0FAEA
:104FE000A3E0F912BDCA801C90095674FFF0A374A7
:104FF00056F0A37404F09004B4E0FBA3E0FAA3E03D
:10500000F912BDCA90052074FFF0A37456F0A37482
:1050100022F0900AE4E0F8A3E0F9A3E0FAA3E0FBB1
:10502000900BA3E0FCA3E0FDA3E0FEA3E0C39BFF85
:10503000EE9AFEED99FDEC98FC900523127CB17B75
:10504000017A0479B9128D4D9009567401F0A37458
:1050500004F0A374B9F09004B4E0FBA3E0FAA3E079
:10506000F912BDCA90095674FFF0A37451F0A374ED
:105070000FF09004B4E0FBA3E0FAA3E0F912BDCA7C
:1050800022205945530000204E4F000020557362E6
:1050900000002048616E646C65000020454D47208B
:1050A00070726F706F7274696F6E616C0000204572
:1050B0004D4720696E74656772616C000020454D34
:1050C000472046434653000020454D47204643466F
:1050D0005320416476616E636564000020506F73F5
:1050E0006974696F6E00002050574D0000204375B1
:1050F0007272656E74000020506F736974696F6E10
:1051000020616E642043757272656E740000000D3C
:105110000A004669726D77617265207665727369FF
:105120006F6E3A200053482D50524F2076362E3164
:105130002E31206D6F642E204E4F2F4E4320772F3F
:105140006163742E206C65766572002E0D0A0D0A5F
:105150000044455649434520494E464F0D0A0049F3
:10516000443A2025640D0A0050574D207265736340
:10517000616C696E672061637469766174696F6ED2
:105180003A20005945530A004E4F0A0050574D200F
:105190004C696D69743A2025640D0A004D4F544FD7
:1051A0005220494E464F0D0A004D6F746F722072A7
:1051B00065666572656E636500202D2043757272A9
:1051C000656E74733A2000202D2050776D3A2000D0
:1051D000202D20506F736974696F6E3A200025642A
:1051E00020004D6F746F7220656E61626C65643A69
:1051F00020005945530D0A004E4F0D0A000D0A4D6F
:105200004541535552454D454E545320494E464F06
:105210000D0A0053656E736F722076616C75653A86
:105220000D0A002564202D3E20256400566F6C7405
:1052300061676520286D56293A20256C6400437506
:105240007272656E7420286D41293A20256C6400C5
:105250000D0A44455649434520504152414D45545D
:105260004552530D0A0050494420436F6E74726FCB
:105270006C6C65723A0D0A0050202D3E2025662088
:10528000200049202D3E20256620200044202D3E70
:105290002025660D0A0043757272656E74205049B0
:1052A0004420436F6E74726F6C6C65723A0D0A0025
:1052B0005374617274757020616374697661746986
:1052C0006F6E3A205945530D0A005374617274751C
:1052D000702061637469766174696F6E3A204E4F15
:1052E0000D0A00496E707574206D6F64653A205523
:1052F00053420D0A00496E707574206D6F64653AF3
:105300002048616E646C650D0A00496E70757420EA
:105310006D6F64653A20454D472070726F706F72F3
:1053200074696F6E616C0D0A00496E707574206D42
:105330006F64653A20454D4720696E7465677261F8
:105340006C0D0A00496E707574206D6F64653A20AB
:10535000454D4720464346530D0A00496E7075740B
:10536000206D6F64653A20454D47204643465320E3
:105370004144560D0A00436F6E74726F6C206D6F5E
:1053800064653A20506F736974696F6E0D0A00434B
:105390006F6E74726F6C206D6F64653A2050574D5C
:1053A0000D0A00436F6E74726F6C206D6F64653A06
:1053B0002043757272656E740D0A00436F6E7472CD
:1053C0006F6C206D6F64653A20506F736974696FFC
:1053D0006E20616E642043757272656E740D0A00F2
:1053E0004162736F6C75746520656E636F6465727E
:1053F00020706F736974696F6E3A205945530D0AB6
:10540000004162736F6C75746520656E636F6465CF
:105410007220706F736974696F6E3A204E4F0D0A77
:10542000004D6F746F722D48616E646C652052611F
:1054300074696F3A2025640D0A0053656E736F72AC
:10544000207265736F6C7574696F6E3A0D0A004D4A
:105450006561737572656D656E74204F6666736500
:10546000743A0D0A002564202D3E20256C64004D01
:105470006561737572656D656E74204D756C7469C8
:10548000706C6965723A0D0A002564202D3E202556
:10549000660043757272656E74206C6F6F6B757009
:1054A000207461626C653A0D0A00705B305D202DDE
:1054B00020705B325D3A2025662C2025662C202545
:1054C000660A00705B335D202D20705B355D3A20ED
:1054D00025662C2025662C2025660A00506F7369EE
:1054E00074696F6E206C696D69742061637469768C
:1054F000653A20256400506F736974696F6E206C83
:10550000696D6974206D6F746F722025643A20692B
:105510006E66202D3E20256C64202000737570205F
:105520002D3E20256C640D0A004D61782073746552
:105530007020706F7320616E64206E65673A20255D
:10554000642025640043757272656E74206C696D09
:1055500069743A20256400454D472074687265736C
:10556000686F6C6473205B30202D20313032345DE5
:105570003A2025752C20257500454D47206D617812
:105580002076616C756573205B30202D20343039B6
:10559000365D3A20256C752C20256C750043616CB6
:1055A0006962726174696F6E20656E61626C6564B8
:1055B0003A205945530D0A0043616C696272617467
:1055C000696F6E20656E61626C65643A204E4F0DA6
:1055D0000A00454D47206D61782073706565643A17
:1055E00020256400436C6F73696E67206D6F64657E
:1055F0003A204E6F726D616C6C7920636C6F7365CD
:10560000640D0A00436C6F73696E67206D6F64658B
:105610003A204E6F726D616C6C79206F70656E0D03
:105620000A0064656275673A20256C64000000001A
:10563000000000000000000000000000000000006A
:10564000000000000000000000000000000000005A
:10565000000000000000000000000000000000004A
:10566000000000000000000000000000000000003A
:10611000000000000000000000000000000031202E
:106120002D204465766963652049443A0032202D6C
:1061300020506F736974696F6E20504944205B5022
:106140002C20492C20445D3A0033202D20437572C9
:1061500072656E7420504944205B502C20492C20DD
:10616000445D3A0034202D205374617274757020A0
:1061700041637469766174696F6E3A0000000000D3
:1061800035202D20496E707574206D6F64653A005E
:1061900000000000000000000000000000000000FF
:1061A000000036202D20436F6E74726F6C206D6F6F
:1061B00064653A00000000000000000000000000DC
:1061C00000000000000000000037202D2052657301
:1061D0006F6C7574696F6E733A0038202D204D65B1
:1061E00061737572656D656E74204F666673657454
:1061F000733A0039202D204D756C7469706C696597
:1062000072733A003130202D20506F732E206C694C
:106210006D6974206163746976653A00000000005E
:106220003131202D20506F732E206C696D6974738D
:10623000205B696E662C207375705D3A00313220E8
:106240002D204D6178207374657073205B6E6567D7
:106250002C20706F735D3A003133202D204375720E
:1062600072656E74206C696D69743A003134202D4A
:1062700020454D472063616C6962726174696F6E7D
:10628000206F6E20737461727475703A00000000A4
:10629000003135202D20454D4720746872657368A4
:1062A0006F6C64733A003136202D20454D47206DC8
:1062B00061782076616C7565733A003137202D2046
:1062C000454D47206D61782073706565643A0031F3
:1062D00038202D204162736F6C75746520656E6384
:1062E0006F64657220706F736974696F6E3A000035
:1062F0000000003139202D204D6F746F72206861CD
:106300006E646C6520726174696F3A003230202DC2
:106310002050574D2072657363616C696E673A0057
:10632000000000003231202D2041637469766174D1
:10633000696F6E206C65766572207468726573682B
:106340006F6C643A003232202D2043757272656E94
:1063500074206C6F6F6B75703A0030202D3E2055A5
:1063600073620A31202D3E2048616E646C650A32EA
:10637000202D3E20454D472070726F706F727469FA
:106380006F6E616C0A33202D3E20454D4720496ECB
:1063900074656772616C0A34202D3E20454D47209C
:1063A000464346530A35202D3E20454D472046435F
:1063B000465320416476616E6365640A0030202D87
:1063C0003E20506F736974696F6E0A31202D3E2034
:1063D00050574D0A32202D3E2043757272656E74FF
:1063E0000A33202D3E20506F736974696F6E2061EF
:1063F0006E642043757272656E740A0030202D3E03
:106400002044656163746976617465205B4E4F5DFD
:106410000A31202D3E204163746976617465205BEA
:106420005945535D0A00E4F526F525F524F523903A
:10643000095EE0FCA3E0FDA3E0FEA3E0F5428E418F
:106440008D408C3FA3E0FCA3E0FDA3E0FEA3E0F5BC
:10645000468E458D448C43A3E0FCA3E0FDA3E0FE03
:10646000A3E0F54A8E498D488C47A3E0FCA3E0FDEC
:10647000A3E0FEA3E0F54E8E4D8D4C8C4BA3E0FCCB
:10648000A3E0FDA3E0FEA3E0F5528E518D508C4FAA
:10649000A3E0FCA3E0FDA3E0FEA3E0F5568E558D3E
:1064A000548C53A3E0FCA3E0FDA3E0FEA3E0F55A67
:1064B0008E598D588C57A3E0FCA3E0FDA3E0FEA30A
:1064C000E0F55E8E5D8D5C8C5BA3E0FCA3E0FDA33C
:1064D000E0FEA3E0F5628E618D608C5FA3E0FCA31B
:1064E000E0FDA3E0FEA3E0F5668E658D648C63A3FA
:1064F000E0FCA3E0FDA3E0FEA3E0F56A8E698D68F1
:106500008C67A3E0FCA3E0FDA3E0FEA3E0F56E8EA4
:106510006D8D6C8C6B9009C7E0FEA3E0FFFBAA06B3
:10652000E4900BCCE0FCA3E0FDA3E0FEA3E0C39B62
:10653000F53AEE9AF539ED9400F538EC9400F5371C
:106540009009C9E0FEA3E0FFFBAA06E4900BD0E0AF
:10655000FCA3E0FDA3E0FEA3E0C39BF53EEE9AF5AD
:106560003DED9400F53CEC9400F53B90098FE02460
:10657000FE70030267481470030267A614700302DA
:10658000689B1470030269FE24046003026B9590FB
:1065900009D5E06024A3E0FF3395E0FEFDFC900BFD
:1065A000BDE0F8A3E0F9A3E0FAA3E0FB127ADE8FE6
:1065B000368E358D348C3380249009D6E0FF3395A8
:1065C000E0FEFDFC900BB9E0F8A3E0F9A3E0FAA32C
:1065D000E0FB127ADE8F368E358D348C339009F6DF
:1065E000E0F8A3E0F9A3E0FAA3E0FBC3E5369BFFE4
:1065F000E5359AFEE53499FDE53398FC9009BDE058
:10660000F8A3E0F9A3E0FAA3E0FBC3127C16504420
:10661000E4FFFEFDFC9009BDE0F8A3E0A3E0A3E0E9
:10662000C3127C16602E9009F6E0FCA3E0FDA3E007
:10663000FEA3E0FF9009BDE0F8A3E0A3E0A3E0EF34
:106640002BFFEE3AFEED39FDEC38FC9009F6127C9A
:10665000B10266D79009F6E0F8A3E0F9A3E0FAA347
:10666000E0FBC3E5369BFFE5359AFEE53499FDE591
:106670003398FC9009C1E0F8A3E0F9A3E0FAA3E0A5
:10668000FBD3127C164042E4FFFEFDFC9009C1E002
:10669000F8A3E0A3E0A3E0127C16602D9009F6E0D9
:1066A000FCA3E0FDA3E0FEA3E0FF9009C1E0F8A396
:1066B000E0A3E0A3E0EF2BFFEE3AFEED39FDEC386E
:1066C000FC9009F6127CB1800EAF36AE35AD34AC1D
:1066D000339009F6127CB1900BABE0B4012D900918
:1066E000F6E0F8A3E0F9A3E0FAA3E0FB900A68E083
:1066F000FCA3E0FDA3E0FEA3E0C39BFFEE9AFEED4A
:1067000099FDEC98FC9009F6127CB1E513640160E8
:1067100003026B95900BABE070179009B5E0FCA3FA
:10672000E0FDA3E0FEA3E0FF9009F6127CB1026B4E
:10673000959009ADE0FCA3E0FDA3E0FEA3E0FF908F
:1067400009F6127CB1026B95E4FFFEFDFCAB3AAAA0
:1067500039A938A837D3127C16403D900A68E0FC6E
:10676000A3E0FDA3E0FEA3E0FFA837127ADEC00697
:10677000C0079009C7E0FEA3E0FFC3E49FFF7404D5
:106780009EFEAB07FAE4F9F8D007D00612C2A99032
:1067900009F6127CB1026B95E4FFFEFDFC9009F650
:1067A000127CB1026B95900AECE0FCA3E0FDA3E043
:1067B000FEA3E0FF9009F6127CB1E4FFFEFDFCAB06
:1067C0003AAA39A938A837D3127C164056900A87BE
:1067D000E0FFE4FCFDFEA837127ADEE47B02FAF962
:1067E000F8127ADEC006C0079009C7E0FEA3E0FFFA
:1067F000C3E49FFF74049EFEAB07FAE4F9F8D007E8
:10680000D00612C2A9900AECE0F8A3E0F9A3E0FADE
:10681000A3E02FFFEA3EFEE93DFDE83CFC9009F6CF
:10682000127CB1E4FFFEFDFCAB3EAA3DA93CA83BB7
:10683000D3127C165003026B95900A87E0FFE4FCAC
:10684000FDFEA83B127ADEE47B02FAF9F8127ADE4A
:10685000C006C0079009C9E0FEA3E0FFC3E49FFFA4
:1068600074049EFEAB07FAE4F9F8D007D00612C212
:10687000A9A804A905AA06AB07900AECE0FCA3E0CE
:10688000FDA3E0FEA3E0C39BFFEE9AFEED99FDECB5
:1068900098FC9009F6127CB1026B95900AECE0FC32
:1068A000A3E0FDA3E0FEA3E0FF9009F6127CB19007
:1068B0000C85E014604814700302697824026003B8
:1068C000026B95E4FFFEFDFCAB3AAA39A938A83764
:1068D000D3127C164009900C857401F0026B95E48C
:1068E000FFFEFDFCAB3EAA3DA93CA83BD3127C16A3
:1068F0005003026B95900C857402F0026B95E4FFD7
:10690000FEFDFCAB3AAA39A938A837C3127C165051
:1069100008E4900C85F0026B95900A87E0FFE4FC98
:10692000FDFEAB3AAA39A938A837127ADEE47B0219
:10693000FAF9F8127ADEC006C0079009C7E0FEA394
:10694000E0FFC3E49FFF74049EFEAB07FAE4F9F88E
:10695000D007D00612C2A9900AECE0F8A3E0F9A390
:10696000E0FAA3E02FFFEA3EFEE93DFDE83CFC90A3
:1069700009F6127CB1026B95E4FFFEFDFCAB3EAA6A
:106980003DA93CA83BC3127C165008E4900C85F04E
:10699000026B95900A87E0FFE4FCFDFEAB3EAA3D4A
:1069A000A93CA83B127ADEE47B02FAF9F8127ADEFF
:1069B000C006C0079009C9E0FEA3E0FFC3E49FFF43
:1069C00074049EFEAB07FAE4F9F8D007D00612C2B1
:1069D000A9A804A905AA06AB07900AECE0FCA3E06D
:1069E000FDA3E0FEA3E0C39BFFEE9AFEED99FDEC54
:1069F00098FC9009F6127CB1026B95026B95900A97
:106A0000ECE0FCA3E0FDA3E0FEA3E0FF9009F6129A
:106A10007CB1900C85E0146048147003026AFA247B
:106A2000026003026B95E4FFFEFDFCAB3AAA39A9B4
:106A300038A837D3127C164009900C857401F002F7
:106A40006B95E4FFFEFDFCAB3EAA3DA93CA83BD301
:106A5000127C165003026B95900C857402F0026B49
:106A600095E4FFFEFDFCAB3AAA39A938A837C3125A
:106A70007C16501BE4FFFEFDFCAB3EAA3DA93CA8E2
:106A80003BC3127C165008E4900C85F0026B95E431
:106A9000FFFEFDFCAB3AAA39A938A837D3127C1601
:106AA0005003026B95900A87E0FFE4FCFDFEA837D7
:106AB000127ADE7802127C64C006C0079009C7E033
:106AC000FEA3E0FFC3E49FFF74049EFEAB07FAE45D
:106AD000F9F8D007D00612C2A9900AECE0F8A3E0BA
:106AE000F9A3E0FAA3E02FFFEA3EFEE93DFDE83C12
:106AF000FC9009F6127CB1026B95E4FFFEFDFCAB45
:106B00003AAA39A938A837C3127C16501AE4FFFEF6
:106B1000FDFCAB3EAA3DA93CA83BC3127C16500726
:106B2000E4900C85F0806EE4FFFEFDFCAB3EAA3DD8
:106B3000A93CA83BD3127C16405B9009D4E0FFE44B
:106B4000FCFDFEA83B127ADE7802127C64C006C00F
:106B5000079009C9E0FEA3E0FFC3E49FFF74049E11
:106B6000FEAB07FAE4F9F8D007D00612C2A9A804D0
:106B7000A905AA06AB07900AECE0FCA3E0FDA3E0A0
:106B8000FEA3E0C39BFFEE9AFEED99FDEC98FC900E
:106B900009F6127CB19009ACE0606AA3E0FCA3E0C6
:106BA000FDA3E0FEA3E0FF9009F6E0F8A3E0F9A35F
:106BB000E0FAA3E0FBC3127C1650149009ADE0FC90
:106BC000A3E0FDA3E0FEA3E0FF9009F6127CB190E4
:106BD00009B5E0FCA3E0FDA3E0FEA3E0FF9009F609
:106BE000E0F8A3E0F9A3E0FAA3E0FBD3127C16409F
:106BF000149009B5E0FCA3E0FDA3E0FEA3E0FF9044
:106C000009F6127CB1900990E07003026FF01470E5
:106C1000030273AA14700302717E146003027418D5
:106C2000900BB5E0F8A3E0F9A3E0FAA3E0FB90092C
:106C3000F6E0FCA3E0FDA3E0FEA3E0C39BF52AEE93
:106C40009AF529ED99F528EC98F527900C75E0FC5C
:106C5000A3E0FDA3E0FEA3E0252AFFEE3529FEED2B
:106C60003528FDEC3527FC900C75127CB17F807EB9
:106C7000F07DFA7C02900C75E0F8A3E0F9A3E0FA4D
:106C8000A3E0FBD3127C1640107F807EF07DFA7C5F
:106C900002900C75127CB1802A7F807E0F7D057C6E
:106CA000FD900C75E0F8A3E0F9A3E0FAA3E0FBC3C4
:106CB000127C16500E7F807E0F7D057CFD900C753A
:106CC000127CB1E4F532F531F530F52FFFFEFDFC15
:106CD000AB5AAA59A958A857C3127C166026AF2AE6
:106CE000AE29AD28AC27A857127ADE7810127C5056
:106CF000E5322FF532E5313EF531E5303DF530E551
:106D00002F3CF52FE4FFFEFDFCAB5EAA5DA95CA85D
:106D10005BC3127C16602C900C75E0FCA3E0FDA315
:106D2000E0FEA3E0FFA85B127ADE7810127C50E54B
:106D3000322FF532E5313EF531E5303DF530E52FC6
:106D40003CF52FE4FFFEFDFCAB62AA61A960A85FE1
:106D5000C3127C166043900C7DE0F8A3E0F9A3E039
:106D6000FAA3E0FBC3E52A9BFFE5299AFEE52899F3
:106D7000FDE52798FCAB62AA61A960A85F127ADEE4
:106D80007810127C50E5322FF532E5313EF531E5D1
:106D9000303DF530E52F3CF52FAF2AAE29AD28ACBC
:106DA00027900C7D127CB1E4FFFEFDFCAB32AA31D2
:106DB000A930A82FC3127C164004D20E8002C20E46
:106DC0009009C5E0FEA3E0FFEE3395E0FDFCAB3299
:106DD000AA31A930A82FD3127C1640169009C5E01D
:106DE000FEA3E0FFEE3395E08F328E31F530F52FC4
:106DF000803C9009C5E0FEA3E0FFC3E49FFFE49E52
:106E0000FE3395E0FDFCAB32AA31A930A82FC312A6
:106E10007C16501A9009C5E0FEA3E0FFC3E49FFF73
:106E2000E49EFE3395E08F328E31F530F52F900BD6
:106E3000C1E0F8A3E0F9A3E0FAA3E0FBC3E5329BCD
:106E4000F52EE5319AF52DE53099F52CE52F98F5DD
:106E50002B900C79E0FCA3E0FDA3E0FEA3E0252E3F
:106E6000FFEE352DFEED352CFDEC352BFC900C792D
:106E7000127CB17FA07E867D017C00900C79E0F8C9
:106E8000A3E0F9A3E0FAA3E0FBD3127C1640107F45
:106E9000A07E867D017C00900C79127CB1802A7FD7
:106EA000607E797DFE7CFF900C79E0F8A3E0F9A389
:106EB000E0FAA3E0FBC3127C16500E7F607E797D62
:106EC000FE7CFF900C79127CB1E4F526F525F524C3
:106ED000F523FFFEFDFCAB66AA65A964A863C31297
:106EE0007C166026AF2EAE2DAD2CAC2BA863127A8B
:106EF000DE7810127C50E5262FF526E5253EF52597
:106F0000E5243DF524E5233CF523E4FFFEFDFCAB41
:106F10006AAA69A968A867C3127C16602C900C79CC
:106F2000E0FCA3E0FDA3E0FEA3E0FFA867127ADE89
:106F30007810127C50E5262FF526E5253EF525E54F
:106F4000243DF524E5233CF523E4FFFEFDFCAB6E78
:106F5000AA6DA96CA86BC3127C166043900C81E0EB
:106F6000F8A3E0F9A3E0FAA3E0FBC3E52E9BFFE55D
:106F70002D9AFEE52C99FDE52B98FCAB6EAA6DA928
:106F80006CA86B127ADE7810127C50E5262FF5265D
:106F9000E5253EF525E5243DF524E5233CF5237460
:106FA000FF7F9CFEFDFCAB26AA25A924A823C312C3
:106FB0007C16500D74FF75269CF525F524F523806D
:106FC0001EE47F64FEFDFCAB26AA25A924A823D3DA
:106FD000127C16400AE4752664F525F524F523AFE6
:106FE0002EAE2DAD2CAC2B900C81127CB1027418FE
:106FF000900BB5E0F8A3E0F9A3E0FAA3E0FB900959
:10700000F6E0FCA3E0FDA3E0FEA3E0C39BF52AEEBF
:107010009AF529ED99F528EC98F527900C75E0FC88
:10702000A3E0FDA3E0FEA3E0252AFFEE3529FEED57
:107030003528FDEC3527FC900C75127CB1E47FE817
:107040007E03FDFC900C75E0F8A3E0F9A3E0FAA341
:10705000E0FBD3127C16400FE47FE87E03FDFC903A
:107060000C75127CB1802A7F187EFC7DFF7CFF901E
:107070000C75E0F8A3E0F9A3E0FAA3E0FBC3127CEF
:1070800016500E7F187EFC7DFF7CFF900C75127CE5
:10709000B1E4FFFEFDFCAB42AA41A940A83FC312E8
:1070A0007C16601AAF2AAE29AD28AC27A83F127A09
:1070B000DE7810127C508F268E258D248C23E4FFE1
:1070C000FEFDFCAB46AA45A944A843C3127C16604A
:1070D0002C900C75E0FCA3E0FDA3E0FEA3E0FFA86C
:1070E00043127ADE7810127C50E5262FF526E5252E
:1070F0003EF525E5243DF524E5233CF523E4FFFE9C
:10710000FDFCAB4AAA49A948A847C3127C166043B4
:10711000900C7DE0F8A3E0F9A3E0FAA3E0FBC3E55F
:107120002A9BFFE5299AFEE52899FDE52798FCAB07
:107130004AAA49A948A847127ADE7810127C50E57D
:10714000262FF526E5253EF525E5243DF524E52306
:107150003CF523AF2AAE29AD28AC27900C7D127CDC
:10716000B1E4FFFEFDFCAB26AA25A924A823D31277
:107170007C164005D20E027418C20E027418900AD2
:107180000EE07003027418200D030274189009FEBB
:10719000E0FCA3E0FDA3E0FEA3E0F5328E318D30EC
:1071A0008C2F9009C5E0FEA3E0FFEE3395E0FDFCD7
:1071B000AB32AA31A930A82FD3127C164016900901
:1071C000C5E0FEA3E0FFEE3395E08F328E31F5305F
:1071D000F52F803C9009C5E0FEA3E0FFC3E49FFFCC
:1071E000E49EFE3395E0FDFCAB32AA31A930A82F16
:1071F000C3127C16501A9009C5E0FEA3E0FFC3E459
:107200009FFFE49EFE3395E08F328E31F530F52FEF
:10721000900BC1E0F8A3E0F9A3E0FAA3E0FBC3E51B
:10722000329BF52EE5319AF52DE53099F52CE52FB9
:1072300098F52B900C79E0FCA3E0FDA3E0FEA3E021
:10724000252EFFEE352DFEED352CFDEC352BFC907B
:107250000C79127CB17FA07E867D017C00900C7938
:10726000E0F8A3E0F9A3E0FAA3E0FBD3127C164018
:10727000107FA07E867D017C00900C79127CB1800D
:107280002A7F607E797DFE7CFF900C79E0F8A3E098
:10729000F9A3E0FAA3E0FBC3127C16500E7F607ED8
:1072A000797DFE7CFF900C79127CB1E4F526F52502
:1072B000F524F523FFFEFDFCAB4EAA4DA94CA84BCF
:1072C000C3127C166026AF2EAE2DAD2CAC2BA84B76
:1072D000127ADE7810127C50E5262FF526E5253E41
:1072E000F525E5243DF524E5233CF523E4FFFEFDEB
:1072F000FCAB52AA51A950A84FC3127C16602C9027
:107300000C79E0FCA3E0FDA3E0FEA3E0FFA84F1290
:107310007ADE7810127C50E5262FF526E5253EF51D
:1073200025E5243DF524E5233CF523E4FFFEFDFCA3
:10733000AB56AA55A954A853C3127C166043900CAF
:1073400081E0F8A3E0F9A3E0FAA3E0FBC3E52E9BFC
:10735000FFE52D9AFEE52C99FDE52B98FCAB56AA8E
:1073600055A954A853127ADE7810127C50E5262FC6
:10737000F526E5253EF525E5243DF524E5233CF5F8
:1073800023AF2EAE2DAD2CAC2B900C81127CB1E432
:10739000FFFEFDFCAB26AA25A924A823C3127C1658
:1073A0004004D20E8072C20E806E900A06E0FCA3EA
:1073B000E0FDA3E0FEA3E0F5268E258D248C23E4DA
:1073C000FFFEFDFCAB26AA25A924A823D3127C1618
:1073D0004004D20E8002C20E74FF7F9CFEFDFCAB07
:1073E00026AA25A924A823C3127C16500D74FF7564
:1073F000269CF525F524F523801EE47F64FEFDFC24
:10740000AB26AA25A924A823D3127C16400AE4752A
:107410002664F525F524F523E47F64FEFDFCAB2608
:10742000AA25A924A823D3127C16400AE475266451
:10743000F525F524F52374FF7F9CFEFDFCAB26AA01
:1074400025A924A823C3127C16500B74FF75269C13
:10745000F525F524F523900990E064016037AF2607
:10746000AE25AD24AC23780A127C64E47B64FAF97F
:10747000F812C2A9A804A905AA06AB07900BECE074
:10748000FFE4FCFDFE127ADE780A127C508F268E15
:10749000258D248C23E4FFFEFDFCAB26AA25A92420
:1074A000A823C3127C1640047F0180027FFF900B4B
:1074B000B4EFF0300E077F0112CE3A8005E4FF12E0
:1074C000CE3AAE25AF2612CD1612CE222202788EEB
:1074D000E86480F8E933E83360110460F0ED33ECE0
:1074E000337009E8FCE9FDEAFEEBFF220460DED31D
:1074F000EB9FEA9EE99DE8C2E78CF0C2F795F04069
:107500000CE8CCF8E9CDF9EACEFAEBCFFB127859CA
:1075100085D0F05804700320D5B3E80470075002FA
:10752000B2D502789892D5EC0460F7E4CCC0E0C301
:1075300098F8603B94186008400DD0E0FB0278702A
:10754000E4FBFAC9FC8028E830E406E4C9FBE4CA9D
:10755000FCE830E305E4C9CACBFCE854076010F846
:10756000C3E913F9EA13FAEB13FBEC13FCD8F1307F
:10757000F52FC3E49CFCEF9BFFEE9AFEED99FDD046
:10758000E0FBEF4E4D4C701222DB03027895EC2CA1
:10759000FCEF33FFEE33FEED33FDED30E7EB027829
:1075A00070EF2BFFEE3AFEED39FDD0E0FB50130BF0
:1075B000BB0003027898ED13FDEE13FEEF13FFEC12
:1075C00013FC027870EC4D6011E8497017ED33EC54
:1075D0003304600DE4FCFFFEFD22E933E833047060
:1075E000F802788E12785958046009E4CC2481504E
:1075F00006285009027898284003027895C0E0EBED
:107600004A7044B98006D0E0FB027884EF4E701CCB
:10761000BD8008EBFFEAFEE9FD80EBE98DF0A4FEFA
:10762000E5F00276AEE9CDF9EAFEEBFFEF89F0A4D2
:10763000FCE5F0CE89F0A42EFFE435F0CD89F0A46E
:107640002DFEE435F08067EF4E7005BD80D780C316
:10765000EF8BF0A4ACF0EE8BF0A42CFCE435F0F84A
:10766000EF8AF0A42CE5F038FCE433CB8DF0A42CA9
:10767000FCE5F03BF8EE8AF0A42CFCE5F038F8E4E9
:1076800033CF89F0A42CFCE5F038CF3400CE89F05C
:10769000A42FFFE5F03EFEE433C98DF0A42EFEE5F5
:1076A000F039CD8AF0A42FFFE5F03EFEE43DFD3336
:1076B000D0E0FB50070BBB000F027898EC2CFCEFDE
:1076C00033FFEE33FEED33FD027870027898EC5D07
:1076D000046005E85904700302788E127859580442
:1076E00060F6EC4860F2EC7004FDFEFF22C860DB3F
:1076F0002481C85009C398600250060278959850BA
:10770000CAF582E9294B4A7005AB8202788475F08C
:10771000007C1A7880C3EF9BEE9AED99400DC3EF81
:107720009BFFEE9AFEED99FDE842F0DC23ACF0D031
:10773000E0FFD0E0FED0E0FDAB8220E7101BEB6065
:10774000BAEC2CFCEF33FFEE33FEED33FD02787024
:10775000E803F830E705C0F075F000EF2FFFEE33D7
:10776000FEED33FD40B830E7C280AA74F8CC6480E7
:10777000CCC86480C8F58204604FC3EB9FF5F0EA83
:107780009E42F0E99D42F0E89C45F0603C501DE5CA
:10779000825FFFE582D313CB5BCBF42B5582FB508A
:1077A000280ABA002409B9002008801DE5825BFB85
:1077B000E582D313CF5FCFF4C3132F5582FF500957
:1077C0000EBE00050DBD00010CC3EB9FF5F0EA9E57
:1077D00042F0E99D42F0E89C45F06007CC4820E784
:1077E00001B3EC2275F020800E75F010800575F065
:1077F000087D007E007F003392D530D503127C08CF
:10780000EC334010EF33FFEE33FEED33FDEC33FC91
:10781000D5F0ED22E5F0247EA2D513CC92E7CDCEB3
:10782000FF22EDD2E7CD33EC3392D524814006E43C
:10783000FFFEFDFC22FCE4CFCECDCC24E050117441
:10784000FF80EDC3CC13CCCD13CDCE13CECF13CF51
:107850000470F030D5DE027C08E9D2E7C933E833A2
:10786000F892D5EDD2E7CD33EC33FC5002B2D522FD
:10787000EC30E7100FBF000C0EBE00080DBD000479
:107880000BEB6014A2D5EB13FCED92E7FD2274FF25
:10789000FCFDFEFF22E480F8A2D574FF13FC7D807E
:1078A000E480EFF920E73624F950037907E4F42463
:1078B00002FBE582158270021583DBF6E024FB50A3
:1078C0001BE96014E4F0E582158270021583E00480
:1078D000F0B40A08E4F0D9EE7401F00A22C2D5220D
:1078E000ED33EC3392D5FA602AB4FF33EDC2E77B77
:1078F000FF60067A797905E4227A79790E20D50439
:107900007A797909224E614E002B494E46002D4965
:107910004E4600E47A08F0A3DAFC7B00740722C02C
:1079200083C082ECC0E0EDC0E0EEC0E0EFC0E0EA72
:1079300075F010A4CAABF075F04DA42BFBE435F044
:10794000FCEA2410FAEB34C5FBEC34D9FCEDC2E7B9
:10795000FF75F056A4F42411C5F0F434C58FF0A4DB
:107960002AE5F03BE43CF020E714127A15D0E0FF62
:10797000D0E0FED0E0FDD0E0FC1276CE8014F4041E
:10798000127A15D0E0FFD0E0FED0E0FDD0E0FC128E
:1079900075C5D082D083E0FAEDD2E7CD33EC332445
:1079A00082FBE4C3CF33CFCE33CECD33CD33DBF345
:1079B0007B0775F00A846004F0A31B0AE5F0F0A3CE
:1079C0008FF0740AA4FFACF08EF0740AA42CFEAC05
:1079D000F050010C8DF0740AA42CFDE435F0F0A3F6
:1079E000DBDE7407223F8000004120000042C80017
:1079F00000447A0000461C400047C35000497424EC
:107A0000004B1896804CBEBC205A0E1BCA6753C24E
:107A10001C749DC5AEFB60065407601C2323127ABC
:107A200043EB54386009127A2F127A3E1275C5EC76
:107A3000F8EDF9EEFAEFCB22EB127A3E80F15438F2
:107A400003241C9079E5FE93FC0EEE93FD0EEE935D
:107A50000ECE93FF22BB010689828A83E022500268
:107A6000E722BBFE02E32289828A83E49322BB01E0
:107A70000CE58229F582E5833AF583E0225006E998
:107A80002582F8E622BBFE06E92582F8E222E5829D
:107A900029F582E5833AF583E49322BB01068982C6
:107AA0008A83F0225002F722BBFE01F322EF8DF011
:107AB000A4A8F0CF8CF0A428CE8DF0A42EFE22BB7B
:107AC000010A89828A83F0E5F0A3F0225006F709C3
:107AD000A7F01922BBFE06F3E5F009F31922E88F9F
:107AE000F0A4CC8BF0A42CFCE98EF0A42CFC8AF042
:107AF000EDA42CFCEA8EF0A4CDA8F08BF0A42DCC44
:107B00003825F0FDE98FF0A42CCD35F0FCEB8EF09C
:107B1000A4FEA9F0EB8FF0A4CFC5F02ECD39FEE482
:107B20003CFCEAA42DCE35F0FDE43CFC2275F008C7
:107B3000758200EF2FFFEE33FECD33CDCC33CCC5B5
:107B40008233C5829BED9AEC99E58298400CF582D0
:107B5000EE9BFEED9AFDEC99FC0FD5F0D6E4CEFB42
:107B6000E4CDFAE4CCF9A88222B800C1B90059BA30
:107B7000002DEC8BF084CFCECDFCE5F0CBF978185E
:107B8000EF2FFFEE33FEED33FDEC33FCEB33FB1058
:107B9000D703994004EB99FB0FD8E5E4F9FA227872
:107BA00018EF2FFFEE33FEED33FDEC33FCC933C984
:107BB00010D7059BE99A4007EC9BFCE99AF90FD88E
:107BC000E0E4C9FAE4CCFB2275F010EF2FFFEE33AE
:107BD000FEED33FDCC33CCC833C810D7079BEC9AED
:107BE000E899400AED9BFDEC9AFCE899F80FD5F076
:107BF000DAE4CDFBE4CCFAE4C8F922CFF4CFCEF43A
:107C0000CECDF4CDCCF4CC22C3E49FFFE49EFEE4C1
:107C10009DFDE49CFC22EB9FF5F0EA9E42F0E99D7D
:107C200042F0EC6480C864809845F022EB9FF5F048
:107C3000EA9E42F0E99D42F0E89C45F022E8600FA0
:107C4000ECC313FCED13FDEE13FEEF13FFD8F1228E
:107C5000E86010ECA2E713FCED13FDEE13FEEF134A
:107C6000FFD8F022E8600FEFC333FFEE33FEED33B1
:107C7000FDEC33FCD8F122BB010789828A83027FA5
:107C8000435005E9F8027F37BBFE05E9F8027F4F54
:107C900089828A83027F5BBB010789828A83027C97
:107CA000B15005E9F8027F6BBBFE05E9F8027F776A
:107CB00022ECF0A3EDF0A3EEF0A3EFF022F8E0FB4E
:107CC000A3A3E0F925F0F0E582158270021583E0A8
:107CD000FA38F022EBF0A3EAF0A3E9F022D083D047
:107CE00082F8E4937012740193700DA3A393F87457
:107CF0000193F5828883E4737402936860EFA3A311
:107D0000A380DFE5122582F582E5113583F583B581
:107D100011048582122210AF06858212F511228588
:107D20008212F511D2AF22EC8EF0A4CCC5F0CCCDEE
:107D3000F8EFA4CEC5F02DFDE43CFCE8A42EC8C5A8
:107D4000F03DFDE43CFCEFA4FFE5F028FEE43DFD42
:107D5000E43CFC22E709F608DFFA8046E709F2086E
:107D6000DFFA803E88828C83E709F0A3DFFA803255
:107D7000E309F608DFFA806EE309F208DFFA8066AD
:107D800088828C83E309F0A3DFFA805A89828A8390
:107D9000E0A3F608DFFA804E89828A83E0A3F20826
:107DA000DFFA804280D280FA80C680D4805580F28B
:107DB0008029801080A680EA809A80A880DA80E2FC
:107DC00080CA802988848C8589828A83E493A3056C
:107DD00086F0A30586DFF5DEF3800B89828A83E4D3
:107DE00093A3F608DFF9ECFAA9F0EDFB2288848C66
:107DF0008589828A83E0A30586F0A30586DFF6DE07
:107E0000F480E389828A83E493A3F208DFF980D6C1
:107E100088F0EF60010E4E60CD88F0ED2402B404CE
:107E20000050C3F582EB2402B4040050B92323456B
:107E30008223907DA473E709F60870FA8046E7096B
:107E4000F20870FA803E88828C83E709F0A370FA0A
:107E50008074E309F60870FA806CE309F20870FA9E
:107E6000806488828C83E309F0A370FA8058898249
:107E70008A83E0A3F60870FA804C89828A83E0A3A3
:107E8000F20870FA804080D280FA80C680D4805197
:107E900080F28027801080A680EA809A80A880DA0D
:107EA00080E280CA802788848C8589828A83E493D3
:107EB000A30586F0A3058670F5800B89828A83E48A
:107EC00093A3F60870F9ECFAA9F0EDFB2288848CF4
:107ED0008589828A83E0A30586F0A3058670F680F3
:107EE000E589828A83E493A3F20870F980D888F048
:107EF000ED2402B4040050CEF582EB2402B4040059
:107F000050C42323458223907E8673C5F0F8A3E0F6
:107F100028F0C5F0F8E582158270021583E038F08C
:107F200022A3F8E0C5F025F0F0E582158270021575
:107F300083E0C838F0E822E6FC08E6FD08E6FE0823
:107F4000E6FF22E0FCA3E0FDA3E0FEA3E0FF22E2C7
:107F5000FC08E2FD08E2FE08E2FF22E493FC740163
:107F600093FD740293FE740393FF22ECF608EDF682
:107F700008EEF608EFF622ECF208EDF208EEF20851
:107F8000EFF2228F23E4FFFEFDFC900012127CB181
:107F9000E523C39403400302879D300A227B03AF8D
:107FA000031BEF6018E4FFFEFDFCEB25E025E02459
:107FB00086F582E4340CF583127CB180E2C20AE5D6
:107FC00023701812CD937801127C3DEFEEED54032F
:107FD000FDE4FC900002127CB18033E523B401186B
:107FE00012CD617801127C3DEFEEED5403FDE4FC0F
:107FF000900002127CB1801612CD577801127C3DA0
:10800000EFEEED5403FDE4FC900002127CB17B0125
:108010007A00790212BD5F4003028305900002E0FE
:10802000FCA3E0FDA3E0FEA3E054C0FFEEED54038B
:10803000FDE42FFFE43EFEED34FEFDE434FFFC786A
:1080400002127C3DEE3395E0FDFCE52325E025E0C2
:108050002447F582E4340AF583E0F8A3E0F9A3E0CD
:10806000FAA3E02FFFEA3EFEE93DFDE83CFC90006C
:1080700006127CB1300F27900006E0FCA3E0FDA3C0
:10808000E0FEA3E0FFE52325E025E02486F582E479
:10809000340CF583127CB1E523B40202C20FE52350
:1080A00025E025E02486F582E4340CF583E0F8A38E
:1080B000E0F9A3E0FAA3E0FB900006E0FCA3E0FDFA
:1080C000A3E0FEA3E0C39BFFEE9AFEED99FDEC98C2
:1080D000FC90000E127CB1E4FF7EC0FDFC90000E0F
:1080E000E0F8A3E0F9A3E0FAA3E0FBD3127C16408A
:1080F0001074C92523F582E4340BF583E014F08075
:10810000687F007E407DFF7CFF90000EE0F8A3E0DA
:10811000F9A3E0FAA3E0FBC3127C16501074C92542
:1081200023F582E4340BF583E004F0803C90000EEC
:10813000E0A3E0A3E0FEA3E0FF12CD16D3EF94008E
:10814000EE648094C0402274922523F582E4340CBE
:10815000F583E004F074922523F582E4340CF58372
:10816000E0C3940A500302879D74922523F582E4AC
:10817000340CF583E4F0900006E0FCA3E0FDA3E0FE
:10818000FEA3E0FFE52325E025E02486F582E43424
:108190000CF583127CB1900006E0F8A3E0F9A3E0AF
:1081A000FAA3E0FBC00074C92523F582E4340BF583
:1081B00083E0FF3395E0FEFDFC7810127C64D00074
:1081C000EB2FFFEA3EFEE93DFDE83CFC9000061285
:1081D0007CB1E52325E025E024A0F582E43409F50F
:1081E00083E0FCA3E0FDA3E0FEA3E0FFE4FBFA795B
:1081F00080783F12776B6038900006E0FCA3E0FDCA
:10820000A3E0FEA3E0FFEC1277E4E52325E025E000
:1082100024A0F582E43409F583E0F8A3E0F9A3E0B3
:10822000FAA3E0FB1275C5127822900006127CB109
:10823000900006E0FCA3E0FDA3E0FEA3E0FFE52341
:1082400025E025E024B5F582E4340BF583127CB1FA
:108250009009D5E06008900CBA7402F08006900C8A
:10826000BA7401F0900CBAE0FB6523600302830549
:1082700090098FE064016003028305EB25E025E0AF
:1082800024B5F582E4340BF583E0FCA3E0FDA3E024
:10829000FEA3E0FF74442BF582E4340AF583E0F991
:1082A000F8127C50900016127CB1E50E14602A047E
:1082B00070539009F2E0FCA3E0FDA3E0FEA3E0FF11
:1082C000900016E0F8A3E0F9A3E0FAA3E0FBD312D4
:1082D0007C164031750E01802CE47F28FEFDFC9059
:1082E0000016E0F8A3E0F9A3E0FAA3E0FBC3127CD8
:1082F000165012900BABE0700404F08005E4900B74
:10830000ABF0E4F50EE5231470030283E61470036A
:108310000284B22402600302857BE47F12FEFDFC2E
:10832000900C96E0F8A3E0F9A3E0FAA3E0FB127A40
:10833000DEC004C005C006C007E47F0BFEFDFC9054
:108340000006E0F8A3E0F9A3E0FAA3E0FB127ADE6E
:10835000D003D002D001D000C3EF9BFFEE9AFEED18
:1083600099FDEC98FCC004C005C006C007E47F0975
:10837000FEFDFC900CA2E0F8A3E0F9A3E0FAA3E074
:10838000FB127ADED003D002D001D000EF2BFFEE3B
:108390003AFEED39FDEC38FCC004C005C006C0074C
:1083A000E47F02FEFDFC900CAEE0F8A3E0F9A3E050
:1083B000FAA3E0FB127ADEA804A905AA06AB07D04F
:1083C00007D006D005D004C3EF9BFFEE9AFEED99CF
:1083D000FDEC98FC12B6E4EE3395E0FDFC90000A4B
:1083E000127CB102857BE47F12FEFDFC900C9AE0CA
:1083F000F8A3E0F9A3E0FAA3E0FB127ADEC004C020
:1084000005C006C007E47F0BFEFDFC900006E0F807
:10841000A3E0F9A3E0FAA3E0FB127ADED003D002D6
:10842000D001D000C3EF9BFFEE9AFEED99FDEC98D2
:10843000FCC004C005C006C007E47F09FEFDFC9037
:108440000CA6E0F8A3E0F9A3E0FAA3E0FB127ADEC1
:10845000D003D002D001D000EF2BFFEE3AFEED3971
:10846000FDEC38FCC004C005C006C007E47F02FE76
:10847000FDFC900CB2E0F8A3E0F9A3E0FAA3E0FB66
:10848000127ADEA804A905AA06AB07D007D006D049
:1084900005D004C3EF9BFFEE9AFEED99FDEC98FC2E
:1084A00012B761EE3395E0FDFC90000A127CB10238
:1084B000857BE47F12FEFDFC900C9EE0F8A3E0F9C2
:1084C000A3E0FAA3E0FB127ADEC004C005C006C038
:1084D00007E47F0BFEFDFC900006E0F8A3E0F9A3A3
:1084E000E0FAA3E0FB127ADED003D002D001D00084
:1084F000C3EF9BFFEE9AFEED99FDEC98FCC004C023
:1085000005C006C007E47F09FEFDFC900CAAE0F858
:10851000A3E0F9A3E0FAA3E0FB127ADED003D002D5
:10852000D001D000EF2BFFEE3AFEED39FDEC38FC28
:10853000C004C005C006C007E47F02FEFDFC900C2D
:10854000B6E0F8A3E0F9A3E0FAA3E0FB127ADEA814
:1085500004A905AA06AB07D007D006D005D004C3EE
:10856000EF9BFFEE9AFEED99FDEC98FC12B7DEEE64
:108570003395E0FDFC90000A127CB1E4FFFE7DC063
:108580007C40900AE0E0F8A3E0F9A3E0FAA3E0FB66
:108590001275C5C004C005C006C00790000AE0FC03
:1085A000A3E0FDA3E0FEA3E0FFEC1277E4D003D04C
:1085B00002D001D0001276CE12782290000A127CEE
:1085C000B190000AE0FCA3E0FDA3E0FEA3E0FFE51C
:1085D0002325E025E024D4F582E4340BF583127CD6
:1085E000B1E52325E025E024A2F582E4340CF583EF
:1085F000E0FCA3E0FDA3E0FEA3E0FFE52325E025EA
:10860000E024AEF582E4340CF583127CB1E5232539
:10861000E025E02496F582E4340CF583E0FCA3E049
:10862000FDA3E0FEA3E0FFE52325E025E024A2F57D
:1086300082E4340CF583127CB1900006E0FCA3E0E8
:10864000FDA3E0FEA3E0FFE52325E025E02496F569
:1086500082E4340CF583127CB130100302879D90C4
:108660000C95E0C394225004E004F0229009D5E078
:10867000606E900BB9E0FCA3E0FDA3E0FEA3E0FF79
:1086800090001E127CB1900BB5E0FCA3E0FDA3E0CE
:10869000FEA3E0FF12AE0EEE3395E0FDFC9000125B
:1086A000127CB1E4FFFEFDFC9009A0E0F8A3E0F924
:1086B000A3E0FAA3E0FB12776B5017900012E0FCE6
:1086C000A3E0FDA3E0FEA3E0FF127C0890001212DD
:1086D0007CB1900012E0A3E0A3E0A3E0900BC9F00E
:1086E00074A064014409602C900BB5E0FCA3E0FD8C
:1086F000A3E0FEA3E0FFEC1277E49009A0E0F8A36A
:10870000E0F9A3E0FAA3E0FB1276CE127822900BF8
:10871000B5127CB1900BB5E0F8A3E0F9A3E0FAA3A1
:10872000E0FBC000900012E0FCA3E0FDA3E0FEA38C
:10873000E0FF7810127C64D000EB2FFFEA3EFEE9E8
:108740003DFDE83CFC900BB5127CB174A064014483
:1087500009602C900BB5E0FCA3E0FDA3E0FEA3E0D4
:10876000FFEC1277E49009A0E0F8A3E0F9A3E0FAA7
:10877000A3E0FB1275C5127822900BB5127CB19064
:108780000BB5E0FCA3E0FDA3E0FEA3E0FF900B8AA5
:10879000127CB1900A0EE0FF12CE7CD2102212CED3
:1087A000ACEF700A300CF7C20C12A6DA80F0900B16
:1087B000ADE0249AFF900BACE034F9FE3395E0FD78
:1087C000FCE47BA07A07F9F8127ADE7807127C5075
:1087D000900AE8127CB1300C05C20C12A6DAE4FF54
:1087E000FEFDFC900AE8E0F8A3E0F9A3E0FAA3E0BC
:1087F000FBD3127C165003028C88D20D900A8AE0BB
:10880000600312BABE900BAFE0249AFF900BAEE06B
:1088100034F9FE3395E0FDFCE47BAB7A64F9F812A1
:108820007ADE780D127C50900BB4E0FD3395E0FCBD
:10883000127AADEE3395E0FDFC12B5EA900BC11251
:108840007CB1900BB5E0FCA3E0FDA3E0FEA3E0FF4C
:10885000900A44E0F9F8127C50C004C005C006C07C
:1088600007900BD4E0FCA3E0FDA3E0FEA3E0FF90A3
:108870000A44E0F8127C50900006127CB19009F690
:10888000E0FCA3E0FDA3E0FEA3E0FFA801127C5002
:1088900090000A127CB1D007D006D005D004129106
:1088A0006BA804A905AA06AB07900BC1E0FCA3E0E6
:1088B000FDA3E0FEA3E0C39BFFEE9AFEED99FDEC65
:1088C00098FC12B85BEE3395E0FDFC900BC5127C72
:1088D000B1300C05C20C12A6DA900A7EE07004F5E5
:1088E0000FF510E50F1470030289951470030289C7
:1088F000AC1470030289E424036003028A7B900BAA
:10890000B0E0FEA3E0FFEE3395E0FDFC12B6678F0A
:10891000268E258D248C23780A127C64900A7FE0B1
:10892000F8A3E0F9A3E0FAA3E0FB127B698F268E9F
:10893000258D248C23300C05C20C12A6DAE4FFFE30
:10894000FDFCAB26AA25A924A823C3127C16500B34
:10895000E4F526F525F524F523801EE4FF7E04FDCD
:10896000FCAB26AA25A924A823D3127C16400AE42E
:10897000F526752504F524F523AF26AE25AD24ACE8
:1089800023900BCC127CB1200C03028A7BC20C1208
:10899000A6DA028A7BE4900CBBF0A3F0FFFEFDFC9C
:1089A000900A7F127CB1750F02028A7B900CBCE0AA
:1089B00004F07006900CBBE004F0900CBBE0640186
:1089C0007004A3E064F46003028A7B900CBBF0A304
:1089D000F07F0112CE70300C05C20C12A6DA750FB2
:1089E00003028A7B900CBCE004F07006900CBBE0A4
:1089F00004F0900A7FE0F8A3E0F9A3E0FAA3E0FB1B
:108A0000C000C001C002C003900BB0E0FEA3E0FFB5
:108A1000EE3395E0FDFC12B667D003D002D001D052
:108A200000EB2FFFEA3EFEE93DFDE83CFC900A7FAB
:108A3000127CB1300C05C20C12A6DA900CBBE0B46B
:108A40000339A3E0B4E834900A7FE0FCA3E0FDA37F
:108A5000E0FEA3E0FFE47BE87A03F9F8127B69907B
:108A60000A7F127CB1300C05C20C12A6DAE4FF12A8
:108A7000CE70E4900CBBF0A3F0F50F300C05C20CE7
:108A800012A6DAE510147003028B30147003028B07
:108A90004F147003028B87147003028C77240460D8
:108AA00003028C7E900BB2E0FEA3E0FFEE3395E074
:108AB000FDFC12B8D88F268E258D248C23780A12BF
:108AC0007C64900A83E0F8A3E0F9A3E0FAA3E0FB5A
:108AD000127B698F268E258D248C23300C05C20CC9
:108AE00012A6DAE4FFFEFDFCAB26AA25A924A823E2
:108AF000C3127C16500BE4F526F525F524F52380EA
:108B00001EE4FF7E04FDFCAB26AA25A924A823D3DE
:108B1000127C16400AE4F526752504F524F523AFEA
:108B200026AE25AD24AC23900BD0127CB1028C7EF6
:108B3000E4900CBDF0A3F0FFFEFDFC900A83127CD4
:108B4000B1300C05C20C12A6DA751004028C7E90AE
:108B50000CBEE004F07006900CBDE004F0900CBD7B
:108B6000E064017004A3E064F46003028C7E900C66
:108B7000BDF0A3F07F0112CE70300C05C20C12A61E
