:1026000002C8C0008F828E83E0540100000070F881
:102610002278FFE4F6D8FD02C94E900002EEF0A346
:10262000EFF078047C007D017BFF7A4C79DE7E0739
:102630007F6D1289519007717407F0A3746DF07863
:10264000787C077D017BFF7A54794B7E007F0F12E7
:10265000895178877C077D017BFF7A54795A7E0007
:102660007F1C12895178A37C077D017BFF7A547906
:10267000767E007F1B12895178BE7C077D017BFF2F
:102680007A5479917E007F1C12895178DA7C077D1B
:10269000017BFF7A5479AD7E007F2212895178FC4C
:1026A0007C077D017BFF7A5479CF7E007F271289DA
:1026B0005178237C087D017BFF7A5479F67E007F78
:1026C0001112895178347C087D017BFF7A55790796
:1026D0007E007F19128951784D7C087D017BFF7A3D
:1026E0005579207E007F11128951785E7C087D012A
:1026F0007BFF7A5579317E007F1C128951787A7C74
:10270000087D017BFF7A55794D7E007F1D1289512E
:1027100078977C087D017BFF7A55796A7E007F1B64
:1027200012895178B27C087D017BFF7A5579857ECC
:10273000007F1412895178C67C087D017BFF7A5591
:1027400079997E007F2512895178EB7C087D017B89
:10275000FF7A5579BE7E007F1512895178007C0979
:102760007D017BFF7A5579D37E007F1512895178E0
:10277000157C097D017BFF7A5579E87E007F141274
:10278000895178297C097D017BFF7A5579FC7E008F
:102790007F24128951784D7C097D017BFF7A56791F
:1027A000207E007F1912895178667C097D017BFFAC
:1027B0007A5679397E007F18128951787E7C097D9E
:1027C000017BFF7A5679517E007F141289517892ED
:1027D0007C097D017BFF7A5679657E007F24128912
:1027E0005178B67C097D017BFF7A5679897E007F1E
:1027F0002312895178D97C097D017BFF7A5679AC07
:102800007E007F1512895178EE7C097D017BFF7A6D
:102810005679C17E007F1D128951780B7C0A7D019B
:102820007BFF7A5679DE7E007F1812895178237CEF
:102830000A7D017BFF7A5679F67E007F1912895155
:10284000783C7C0A7D017BFF7A57790F7E007F25DB
:1028500012895178617C0A7D017BFF7A5779347E39
:10286000007F6312895178C47C0A7D017BFF7A570F
:1028700079977E007F4012895178047C0B7D017B23
:10288000FF7A5779D77E007F2A1289517B017A0718
:10289000797812EE2D8F2C7B017A07798712EE2D35
:1028A0008F2D7B017A0779A312EE2D8F2E7B017A73
:1028B00008792312EE2D8F2F7B017A08793412EEDE
:1028C0002D8F307B017A08794D12EE2D8F317B01EF
:1028D0007A08797A12EE2D8F327B017A0879971275
:1028E000EE2D8F337B017A0879B212EE2D8F347B77
:1028F000017A0879EB12EE2D8F357B017A09790088
:1029000012EE2D8F367B017A09791512EE2D8F3755
:102910007B017A09794D12EE2D8F387B017A097986
:10292000D912EE2D8F397B017A0A796112EE2D8F43
:102930003A7B017A0A79C412EE2D8F3B7B017A0B28
:10294000790412EE2D8F3C7B017A09797E12EE2DEF
:102950008F3D7B017A09799212EE2D8F3E7B017AB1
:102960000979B612EE2D8F3F7B017A0A793C12EE7F
:102970002D8F40900004740CF0A3741CF0900002A2
:10298000E0FEA3E0FFEE6003023FC8EFB41D00408D
:1029900003023FC890299BF82828730229F20239C4
:1029A000FC023A05023B01023BCE023BE1023BEA5C
:1029B000023BF3023C1E023C9C023CD9023CE20278
:1029C0003DB8023E3E023E4E023E57023E76023E79
:1029D0009F023EA8023EBF023EC8023ED1023F0314
:1029E000023F41023F56023F90023F99023FA2023E
:1029F0003FB09000067402F0A314F0900B38E09002
:102A00000008F0852C2AE52A6032FFC3E52C9FFFE1
:102A1000E49400FE74782FF58274073EF583E0FF9E
:102A2000E52AFDE52CC39DFDE49400FC74092DF519
:102A30008274003CF583EFF0152A80CA9000387448
:102A400007F0A37403F0900B6BE064036068900BD5
:102A500039E0FCA3E0FDA3E0FEA3E0FFEC1282D985
:102A6000E4FBFA798078471281C390003A1287F22A
:102A7000900B3DE0FCA3E0FDA3E0FEA3E0FFEC1221
:102A800082D9E4FBFA798078471281C390003E1224
:102A900087F2900B41E0FCA3E0FDA3E0FEA3E0FF82
:102AA000EC1282D9E4FBFA798078471281C3900056
:102AB000421287F28063900B51E0FCA3E0FDA3E09B
:102AC000FEA3E0FFEC1282D9E4FBFAF9784612810A
:102AD000C390003A1287F2900B55E0FCA3E0FDA3EF
:102AE000E0FEA3E0FFEC1282D9E4FBFAF97846128B
:102AF00081C390003E1287F2900B59E0FCA3E0FDE9
:102B0000A3E0FEA3E0FFEC1282D9E4FBFAF97846D9
:102B10001281C39000421287F2852D2AE52A603285
:102B2000FFC3E52D9FFFE49400FE74872FF58274A8
:102B3000073EF583E0FFE52AFDE52DC39DFDE49406
:102B400000FC74462DF58274003CF583EFF0152AE5
:102B500080CA90006A7407F0A37403F0900B6BE0D6
:102B600064036068900B45E0FCA3E0FDA3E0FEA3D6
:102B7000E0FFEC1282D9E4FBFA798078471281C336
:102B800090006C1287F2900B49E0FCA3E0FDA3E0FB
:102B9000FEA3E0FFEC1282D9E4FBFA7980784712B9
:102BA00081C39000701287F2900B4DE0FCA3E0FD12
:102BB000A3E0FEA3E0FFEC1282D9E4FBFA7980786F
:102BC000471281C39000741287F28063900B5DE01E
:102BD000FCA3E0FDA3E0FEA3E0FFEC1282D9E4FB3E
:102BE000FAF978461281C390006C1287F2900B615B
:102BF000E0FCA3E0FDA3E0FEA3E0FFEC1282D9E439
:102C0000FBFAF978461281C39000701287F2900B9C
:102C100065E0FCA3E0FDA3E0FEA3E0FFEC1282D997
:102C2000E4FBFAF978461281C39000741287F285AA
:102C30002E2AE52A6032FFC3E52E9FFFE49400FEB2
:102C400074A32FF58274073EF583E0FFE52AFDE5C6
:102C50002EC39DFDE49400FC74782DF58274003C35
:102C6000F583EFF0152A80CAE490009CF0A304F0ED
:102C7000900B69E090009EF0900B69601C900B3106
:102C800074FFF0A3743FF0A374C9F07B017A077955
:102C9000BE12E045752B1C801A900B3174FFF0A317
:102CA000743FF0A374CFF07B017A0779BE12E04540
:102CB000752B1B852B2AE52A6032FFC3E52B9FFF6E
:102CC000E49400FE74BE2FF58274073EF583E0FFA6
:102CD000E52AFDE52BC39DFDE49400FC749F2DF5D2
:102CE0008274003CF583EFF0152A80CA749F252B6F
:102CF000F582E43400F5837403F0E49000CEF0A391
:102D000004F0900B6AE09000D0F0900B6A146033EE
:102D100014604C14606514607E147003022DB3249B
:102D2000056003022DCD900B3174FFF0A3743FF0CA
:102D3000A374D4F07B017A0779DA12E045752B147D
:102D4000022DCD900B3174FFF0A3743FF0A374DA21
:102D5000F07B017A0779DA12E045752B17806E90C7
:102D60000B3174FFF0A3743FF0A374E3F07B017A9E
:102D70000779DA12E045752B218052900B3174FFF0
:102D8000F0A3743FF0A374F6F07B017A0779DA12AE
:102D9000E045752B1D8036900B3174FFF0A3744015
:102DA000F0A37405F07B017A0779DA12E045752B00
:102DB00019801A900B3174FFF0A37440F0A37410C3
:102DC000F07B017A0779DA12E045752B22852B2AF0
:102DD000E52A6032FFC3E52B9FFFE49400FE74DA1E
:102DE0002FF58274073EF583E0FFE52AFDE52BC34E
:102DF0009DFDE49400FC74D12DF58274003CF583B4
:102E0000EFF0152A80CA74D1252BF582E43400F541
:102E1000837401F0E4900100F0A304F0900B6BE0E8
:102E2000900102F0900B6B14602614603F14605800
:102E30002403706E900B3174FFF0A37440F0A37400
:102E400024F07B017A0779FC12E045752B1B805238
:102E5000900B3174FFF0A37440F0A3742FF07B014A
:102E60007A0779FC12E045752B168036900B317489
:102E7000FFF0A37440F0A37435F07B017A0779FC6E
:102E800012E045752B1A801A900B3174FFF0A37471
:102E900040F0A3743FF07B017A0779FC12E045759E
:102EA0002B27852B2AE52A6032FFC3E52B9FFFE401
:102EB0009400FE74FC2FF58274073EF583E0FFE575
:102EC0002AFDE52BC39DFDE49400FC74032DF582DF
:102ED00074013CF583EFF0152A80CA7403252BF5A5
:102EE00082E43401F5837402F0900132F0A304F01F
:102EF000E4F52AE52AC39403501E746C252AF58252
:102F0000E4340BF583E0FF7434252AF582E43401C0
:102F1000F583EFF0052A80DB852F2AE52A6032FF52
:102F2000C3E52F9FFFE49400FE74232FF5827408FD
:102F30003EF583E0FFE52AFDE52FC39DFDE4940007
:102F4000FC74372DF58274013CF583EFF0152A806F
:102F5000CA9001647403F0A3F0E4F52AE52AC3944F
:102F6000035044E52A25E025E0246FF582E4340B84
:102F7000F583E0FCA3E0FDA3E0FEA3E0FF746C2575
:102F80002AF582E4340BF583E0F9F812879175F0A5
:102F900002E52AA42466F582E5F03401F583EEF01B
:102FA000A3EFF0052A80B585302AE52A6032FFC3F9
:102FB000E5309FFFE49400FE74342FF58274083EE0
:102FC000F583E0FFE52AFDE530C39DFDE49400FCB8
:102FD000746C2DF58274013CF583EFF0152A80CADC
:102FE0009001967407F0A37403F0E4F52AE52AC370
:102FF00094035031E52A25E025E0247BF582E43472
:103000000BF583E0FCA3E0FDA3E0FEA3E0FF75F079
:1030100004E52AA42498F582E5F03401F5831287AB
:10302000F2052A80C885312AE52A6032FFC3E531DE
:103030009FFFE49400FE744D2FF58274083EF583E3
:10304000E0FFE52AFDE531C39DFDE49400FC74A496
:103050002DF58274013CF583EFF0152A80CAE490C7
:1030600001C8F0A304F0900B87E09001CAF0900B28
:1030700087601C900B3174FFF0A3743FF0A374C9F8
:10308000F07B017A08795E12E045752B1C801A905E
:103090000B3174FFF0A3743FF0A374CFF07B017A7F
:1030A00008795E12E045752B1B852B2AE52A6032D4
:1030B000FFC3E52B9FFFE49400FE745E2FF582743E
:1030C000083EF583E0FFE52AFDE52BC39DFDE49472
:1030D00000FC74CB2DF58274013CF583EFF0152ACA
:1030E00080CA74CB252BF582E43401F5837403F098
:1030F0009001FA7405F0A37402F0E4F52AE52AC3FE
:1031000094014003023188E52A25E025E02488F572
:1031100082E4340BF583E0FCA3E0FDA3E0FEA3E032
:10312000FF746C252AF582E4340BF583E0F9F8127C
:10313000879175F008E52AA424FCF582E5F03401B6
:10314000F5831287F2E52A25E025E02490F582E454
:10315000340BF583E0FCA3E0FDA3E0FEA3E0FF74E5
:103160006C252AF582E4340BF583E0F9F812879197
:1031700075F008E52AA42400F582E5F03402F58311
:103180001287F2052A0230FD85322AE52A6032FFD5
:10319000C3E5329FFFE49400FE747A2FF582740831
:1031A0003EF583E0FFE52AFDE532C39DFDE4940092
:1031B000FC74042DF58274023CF583EFF0152A802F
:1031C000CA90022C7405F0A37402F0900B9CE0FCF2
:1031D000A3E0FDA3E0FEA3E0FF90022E1287F29091
:1031E0000B98E0FCA3E0FDA3E0FEA3E0FF90023219
:1031F0001287F285332AE52A6032FFC3E5339FFF49
:10320000E49400FE74972FF58274083EF583E0FF86
:10321000E52AFDE533C39DFDE49400FC74362DF5ED
:103220008274023CF583EFF0152A80CA90025E7426
:1032300003F0A37401F0900BA0E0FFA3E090026004
:10324000CFF0A3EFF085342AE52A6032FFC3E534DE
:103250009FFFE49400FE74B22FF58274083EF5835C
:10326000E0FFE52AFDE534C39DFDE49400FC7462B3
:103270002DF58274023CF583EFF0152A80CAE490A4
:103280000290F0A304F0900BA6E0900292F0900B55
:10329000A6601C900B3174FFF0A3743FF0A374C9B7
:1032A000F07B017A0879C612E045752B25801A90CB
:1032B0000B3174FFF0A3743FF0A374CFF07B017A5D
:1032C0000879C612E045752B24852B2AE52A603241
:1032D000FFC3E52B9FFFE49400FE74C62FF58274B4
:1032E000083EF583E0FFE52AFDE52BC39DFDE49450
:1032F00000FC74932DF58274023CF583EFF0152ADF
:1033000080CA7493252BF582E43402F5837403F0AC
:103310009002C204F0A37402F0900BA2E0FFA3E0BD
:103320009002C4CFF0A3EFF0900BA4E0FFA3E090D5
:1033300002C6CFF0A3EFF085352AE52A6032FFC33D
:10334000E5359FFFE49400FE74EB2FF58274083E90
:10335000F583E0FFE52AFDE535C39DFDE49400FC1F
:1033600074C82DF58274023CF583EFF0152A80CAEB
:103370009002F47406F0A37402F0900BA7E0FCA393
:10338000E0FDA3E0FEA3E0FF9002F61287F2900BAF
:10339000ABE0FCA3E0FDA3E0FEA3E0FF9002FA1285
:1033A00087F285362AE52A6032FFC3E5369FFFE4BF
:1033B0009400FE74002FF58274093EF583E0FFE56A
:1033C0002AFDE536C39DFDE49400FC74FE2DF582D4
:1033D00074023CF583EFF0152A80CA90032674022C
:1033E000F0A314F0900BAFE0900328F085372AE5A6
:1033F0002A6032FFC3E5379FFFE49400FE74152F67
:10340000F58274093EF583E0FFE52AFDE537C39DAB
:10341000FDE49400FC74292DF58274033CF583EFE0
:10342000F0152A80CAE4900358F0A304F0900BB082
:10343000E090035AF0900BB0601C900B3174FFF0D9
:10344000A3743FF0A374C9F07B017A09792912E0D3
:1034500045752B24801A900B3174FFF0A3743FF054
:10346000A374CFF07B017A09792912E045752B23EB
:10347000852B2AE52A6032FFC3E52B9FFFE49400E9
:10348000FE74292FF58274093EF583E0FFE52AFDDD
:10349000E52BC39DFDE49400FC745B2DF582740361
:1034A0003CF583EFF0152A80CA745B252BF582E486
:1034B0003403F5837403F090038A7401F0A3F09051
:1034C0000BB1E090038CF085382AE52A6032FFC307
:1034D000E5389FFFE49400FE744D2FF58274093E99
:1034E000F583E0FFE52AFDE538C39DFDE49400FC8B
:1034F000748D2DF58274033CF583EFF0152A80CA94
:10350000E49003BCF0A304F0900BB2E09003BEF093
:10351000900BB2601C900B3174FFF0A3743FF0A3CA
:1035200074C9F07B017A09796612E045752B188021
:103530001A900B3174FFF0A3743FF0A374CFF07BAB
:10354000017A09796612E045752B17852B2AE52A41
:103550006032FFC3E52B9FFFE49400FE74662FF5F5
:103560008274093EF583E0FFE52AFDE52BC39DFD4E
:10357000E49400FC74BF2DF58274033CF583EFF0F6
:10358000152A80CA74BF252BF582E43403F58374B1
:1035900003F09003EE7405F0A37401F0900BCDE0FE
:1035A000FCA3E0FDA3E0FEA3E0FF900B6CE0F9F8C4
:1035B0001287919003F01287F2853D2AE52A603246
:1035C000FFC3E53D9FFFE49400FE747E2FF58274F7
:1035D000093EF583E0FFE52AFDE53DC39DFDE4944A
:1035E00000FC74F42DF58274033CF583EFF0152A8A
:1035F00080CA9004207405F0A37401F0900BD1E010
:10360000FCA3E0FDA3E0FEA3E0FF9004221287F2FA
:10361000853E2AE52A6032FFC3E53E9FFFE4940021
:10362000FE74922FF58274093EF583E0FFE52AFDD2
:10363000E53EC39DFDE49400FC74262DF5827404E0
:103640003CF583EFF0152A80CA9004527405F0A36C
:103650007401F0900BD5E0FCA3E0FDA3E0FEA3E035
:10366000FF9004541287F2853F2AE52A6032FFC397
:10367000E53F9FFFE49400FE74B62FF58274093E87
:10368000F583E0FFE52AFDE53FC39DFDE49400FCE2
:1036900074582DF58274043CF583EFF0152A80CA26
:1036A0009004847407F0A314F0E4F52AE52AC39487
:1036B000065031E52A25E025E024B3F582E4340BF9
:1036C000F583E0FCA3E0FDA3E0FEA3E0FF75F004BA
:1036D000E52AA42486F582E5F03404F5831287F206
:1036E000052A80C885392AE52A6032FFC3E5399F5B
:1036F000FFE49400FE74D92FF58274093EF583E04F
:10370000FFE52AFDE539C39DFDE49400FC749E2D80
:10371000F58274043CF583EFF0152A80CAE4900426
:10372000B6F0A304F0900BDDE09004B8F0900BDD50
:10373000601C900B3174FFF0A3743FF0A374C9F0C8
:103740007B017A0979EE12E045752B1D801A900BEA
:103750003174FFF0A3743FF0A374CFF07B017A09BA
:1037600079EE12E045752B1C852B2AE52A6032FF85
:10377000C3E52B9FFFE49400FE74EE2FF5827409DD
:103780003EF583E0FFE52AFDE52BC39DFDE49400B3
:10379000FC74B92DF58274043CF583EFF0152A8092
:1037A000CA74B9252BF582E43404F5837403F0E47C
:1037B0009004E8F0A304F0900BDCE09004EAF090B1
:1037C0000BDC601C900B3174FFF0A3743FF0A3740A
:1037D000C9F07B017A0A790B12E045752B18801A23
:1037E000900B3174FFF0A3743FF0A374CFF07B0112
:1037F0007A0A790B12E045752B17852B2AE52A608A
:1038000032FFC3E52B9FFFE49400FE740B2FF5827B
:10381000740A3EF583E0FFE52AFDE52BC39DFDE438
:103820009400FC74EB2DF58274043CF583EFF015E5
:103830002A80CA74EB252BF582E43404F5837403E3
:10384000F0E490051AF0A304F0A3F0900B3174FF9C
:10385000F0A3743FF0A374CFF07B017A0A792312AE
:10386000E045752B18852B2AE52A6032FFC3E52B2E
:103870009FFFE49400FE74232FF582740A3EF583C3
:10388000E0FFE52AFDE52BC39DFDE49400FC741DDB
:103890002DF58274053CF583EFF0152A80CA741D5E
:1038A000252BF582E43405F5837403F090054C1460
:1038B000F0A304F0900BD9E0FF744E252AF582E4C2
:1038C0003405F583EFF0900BDAE0FF744F252AF50D
:1038D00082E43405F583EFF0900BDBE0FF745025B4
:1038E0002AF582E43405F583EFF085402AE52A6065
:1038F00032FFC3E5409FFFE49400FE743C2FF58245
:10390000740A3EF583E0FFE52AFDE540C39DFDE432
:103910009400FC74512DF58274053CF583EFF0158D
:103920002A80CA853A2AE52A6032FFC3E53A9FFF1A
:10393000E49400FE74612FF582740A3EF583E0FF83
:10394000E52AFDE53AC39DFDE49400FC747E2DF567
:103950008274053CF583EFF0152A80CA853B2AE581
:103960002A6032FFC3E53B9FFFE49400FE74C42F3E
:10397000F582740A3EF583E0FFE52AFDE53BC39D31
:10398000FDE49400FC74142DF58274063CF583EF7D
:10399000F0152A80CA853C2AE52A6032FFC3E53C3F
:1039A0009FFFE49400FE74042FF582740B3EF583B0
:1039B000E0FFE52AFDE53CC39DFDE49400FC74AA0C
:1039C0002DF58274063CF583EFF0152A80CA7B0141
:1039D0007A007904900771E0A3E014FD12E9AC903D
:1039E0000771E0FCA3E0FD2403F58274003CF5833D
:1039F000EFF07B017A00790412D49A22900DB9E09D
:103A0000900C55F022900B6BE064036064E4FFFEC1
:103A10007D807C47900DB9E0F8A3E0F9A3E0FAA31C
:103A2000E0FB1280BA128317900C561287F2E4FF63
:103A3000FE7D807C47900DBDE0F8A3E0F9A3E0FA9D
:103A4000A3E0FB1280BA128317900C5A1287F2E49B
:103A5000FFFE7D807C47900DC1E0F8A3E0F9A3E074
:103A6000FAA3E0FB1280BA128317900C5E1287F261
:103A700022E4FFFEFD7C46900DB9E0F8A3E0F9A337
:103A8000E0FAA3E0FB1280BA128317900C6E128743
:103A9000F2E4FFFEFD7C46900DBDE0F8A3E0F9A343
:103AA000E0FAA3E0FB1280BA128317900C7212871F
:103AB000F2E4FFFEFD7C46900DC1E0F8A3E0F9A31F
:103AC000E0FAA3E0FB1280BA128317900C761287FB
:103AD000F2900C6EE0FCA3E0FDA3E0FEA3E0FFEC9F
:103AE0001282D97B9A7A997999784512826040033B
:103AF000023FC8E47F337E13FDFC900C6E1287F208
:103B000022900B6BE064036064E4FFFE7D807C47E1
:103B1000900DB9E0F8A3E0F9A3E0FAA3E0FB12806E
:103B2000BA128317900C621287F2E4FFFE7D807C4C
:103B300047900DBDE0F8A3E0F9A3E0FAA3E0FB1283
:103B400080BA128317900C661287F2E4FFFE7D8024
:103B50007C47900DC1E0F8A3E0F9A3E0FAA3E0FBF5
:103B60001280BA128317900C6A1287F222E4FFFEC9
:103B7000FD7C46900DB9E0F8A3E0F9A3E0FAA3E0DC
:103B8000FB1280BA128317900C7A1287F2E4FFFEC0
:103B9000FD7C46900DBDE0F8A3E0F9A3E0FAA3E0B8
:103BA000FB1280BA128317900C7E1287F2E4FFFE9C
:103BB000FD7C46900DC1E0F8A3E0F9A3E0FAA3E094
:103BC000FB1280BA128317900C821287F222900D9A
:103BD000B9E06007900C867403F022E4900C86F044
:103BE00022900DB9E0900C87F022900DB9E0900C76
:103BF00088F022E4F52AE52AC394034003023FC873
:103C000074B9252AF582E4340DF583E0FF74892523
:103C10002AF582E4340CF583EFF0052A80D8E4F528
:103C20002AE52AC394035071E52A25E024B9F582D8
:103C3000E4340DF583E0FEA3E0FFEE3395E0FDFCF8
:103C4000E52A25E025E0248CF582E4340CF5831286
:103C500087F2E52A25E025E0248CF582E4340CF592
:103C600083C083C082E0FCA3E0FDA3E0FEA3E0FFED
:103C70007489252AF582E4340CF583E0F9F812877B
:103C8000A5D082D0831287F27489252AF582E43484
:103C90000EF583E4F0052A8088D20B22E4F52AE5AC
:103CA0002AC394034003023FC8E52A25E025E02407
:103CB000B9F582E4340DF583E0FCA3E0FDA3E0FE5A
:103CC000A3E0FFE52A25E025E02498F582E4340C02
:103CD000F5831287F2052A80C6900DB9E0900CA4F6
:103CE000F022E4F52AE52AC394024003023FC8E526
:103CF0002A75F008A424B9F582E4340DF583E0FCBC
:103D0000A3E0FDA3E0FEA3E0FFE52A25E025E024F3
:103D1000A5F582E4340CF5831287F2E52A75F008E4
:103D2000A424BDF582E4340DF583E0FCA3E0FDA3FB
:103D3000E0FEA3E0FFE52A25E025E024ADF582E4DE
:103D4000340CF5831287F2E52A25E025E024A5F559
:103D500082E4340CF583C083C082E0FCA3E0FDA3C1
:103D6000E0FEA3E0FF7489252AF582E4340CF58394
:103D7000E0F9F81287A5D082D0831287F2E52A25D0
:103D8000E025E024ADF582E4340CF583C083C082E5
:103D9000E0FCA3E0FDA3E0FEA3E0FF7489252AF583
:103DA00082E4340CF583E0F9F81287A5D082D08341
:103DB0001287F2052A023CE5900DB9E0FCA3E0FD74
:103DC000A3E0FEA3E0FF9007731287F2E4FFFEFD7D
:103DD000FC900773E0F8A3E0F9A3E0FAA3E0FBD3BB
:103DE0001287575014900773E0FCA3E0FDA3E0FE98
:103DF000A3E0FF900CB91287F2900DBDE0FCA3E0A8
:103E0000FDA3E0FEA3E0FF9007731287F2E4FFFE3C
:103E1000FDFC900773E0F8A3E0F9A3E0FAA3E0FB50
:103E2000C31287575003023FC8900773E0FCA3E01A
:103E3000FDA3E0FEA3E0FF900CB51287F222900DE7
:103E4000B9E0FFA3E0900CBDCFF0A3EFF022900DFE
:103E5000B9E0900CC3F022900DB9E0FFA3E0900C04
:103E6000BFCFF0A3EFF0900DBBE0FFA3E0900CC13B
:103E7000CFF0A3EFF022900DB9E0FCA3E0FDA3E0AA
:103E8000FEA3E0FF900CC41287F2900DBDE0FCA3EE
:103E9000E0FDA3E0FEA3E0FF900CC81287F22290A1
:103EA0000DB9E0900CCCF022900DB9E0900777F0BE
:103EB0006007900CCD7401F022E4900CCDF02290BC
:103EC0000DB9E0900CCEF022900DB9E0900CCFF03F
:103ED00022900DB9E0FCA3E0FDA3E0FEA3E0FF907B
:103EE0000CEA1287F2900CEAE0FCA3E0FDA3E0FEEE
:103EF000A3E0FF900C89E0F9F81287A5900CEA1274
:103F000087F222900DB9E0FCA3E0FDA3E0FEA3E060
:103F1000FF900CEE1287F2E47F0AFEFDFC900CEE9F
:103F2000E0F8A3E0F9A3E0FAA3E0FBC3128757404F
:103F300003023FC8E47F0AFEFDFC900CEE1287F2FC
:103F400022900DB9E0FCA3E0FDA3E0FEA3E0FF900A
:103F50000CF21287F222E4F52AE52AC3940650688F
:103F6000E52A25E025E024B9F582E4340DF583E067
:103F7000FCA3E0FDA3E0FEA3E0FFE52A25E025E0A9
:103F800024D0F582E4340CF5831287F2052A80C927
:103F9000900DB9E0900CFAF022900DB9E0900CF978
:103FA000F022900DB9E0900777F0601C12D74822FC
:103FB000900DB9E0900CF6F0900DBAE0900CF7F08F
:103FC000900DBBE0900CF8F02220594553000020E2
:103FD0004E4F00002055736200002048616E646CF3
:103FE00065000020454D472070726F706F727469D4
:103FF0006F6E616C000020454D4720696E746567E7
:1040000072616C000020454D472046434653000036
:1040100020454D47204643465320416476616E63F8
:104020006564000020506F736974696F6E00002032
:1040300050574D00002043757272656E7400002069
:10404000506F736974696F6E20616E64204375727E
:1040500072656E740000000D0A004669726D77612A
:1040600072652076657273696F6E3A200053482D31
:1040700050524F2076362E312E372043656E7472A3
:104080006F205069616767696F2031332E30362E9B
:1040900032303138002E0D0A0D0A0044455649438E
:1040A0004520494E464F0D0A0049443A2025640DEB
:1040B0000A0050574D2072657363616C696E67200A
:1040C00061637469766174696F6E3A200059455373
:1040D0000A004E4F0A0050574D204C696D69743AE2
:1040E0002025640D0A004D4F544F5220494E464F33
:1040F0000D0A004D6F746F72207265666572656E91
:10410000636500202D2043757272656E74733A20CA
:1041100000202D2050776D3A2000202D20506F7305
:104120006974696F6E3A2000256420004D6F746FCA
:104130007220656E61626C65643A20005945530DCA
:104140000A004E4F0D0A000D0A4D45415355524588
:104150004D454E545320494E464F0D0A0053656E4F
:10416000736F722076616C75653A0D0A00256420C4
:104170002D3E202564004261747465727920566F6B
:104180006C7461676520286D56293A20256C64009F
:1041900046756C6C2063686172676520706F776527
:1041A000722074656E73696F6E20286D56293A20EF
:1041B000256C640043757272656E7420286D412908
:1041C0003A20256C64000D0A444556494345205069
:1041D0004152414D45544552530D0A005049442027
:1041E000436F6E74726F6C6C65723A0D0A005020EA
:1041F0002D3E20256620200049202D3E20256620CA
:10420000200044202D3E2025660D0A004375727261
:10421000656E742050494420436F6E74726F6C6CED
:1042200065723A0D0A00537461727475702061638F
:104230007469766174696F6E3A205945530D0A00AE
:104240005374617274757020616374697661746906
:104250006F6E3A204E4F0D0A00496E707574206DD6
:104260006F64653A205553420D0A00496E707574AB
:10427000206D6F64653A2048616E646C650D0A00BC
:10428000496E707574206D6F64653A20454D472006
:1042900070726F706F7274696F6E616C0D0A004995
:1042A0006E707574206D6F64653A20454D472069C6
:1042B0006E74656772616C0D0A00496E70757420CA
:1042C0006D6F64653A20454D4720464346530D0ABD
:1042D00000496E707574206D6F64653A20454D47D6
:1042E0002046434653204144560D0A00436F6E74E6
:1042F000726F6C206D6F64653A20506F73697469DA
:104300006F6E0D0A00436F6E74726F6C206D6F6478
:10431000653A2050574D0D0A00436F6E74726F6CF2
:10432000206D6F64653A2043757272656E740D0A74
:1043300000436F6E74726F6C206D6F64653A20502D
:104340006F736974696F6E20616E64204375727259
:10435000656E740D0A004162736F6C75746520653B
:104360006E636F64657220706F736974696F6E3A03
:10437000205945530D0A004162736F6C75746520B6
:10438000656E636F64657220706F736974696F6EB8
:104390003A204E4F0D0A004D6F746F722D48616EBA
:1043A000646C6520526174696F3A2025640D0A00BF
:1043B00053656E736F72207265736F6C7574696F7D
:1043C0006E3A0D0A004D6561737572656D656E74A8
:1043D000204F66667365743A0D0A002564202D3EF1
:1043E00020256C64004D6561737572656D656E7432
:1043F000204D756C7469706C6965723A0D0A002500
:1044000064202D3E2025660043757272656E74200F
:104410006C6F6F6B7570207461626C653A0D0A0089
:10442000705B305D202D20705B325D3A2025662C5C
:104430002025662C2025660A00705B335D202D2028
:10444000705B355D3A2025662C2025662C2025667C
:104450000A00506F736974696F6E206C696D6974BE
:10446000206163746976653A20256400506F736932
:1044700074696F6E206C696D6974206D6F746F72F2
:104480002025643A20696E66202D3E20256C64202C
:104490002000737570202D3E20256C640D0A004DA0
:1044A0006178207374657020706F7320616E642072
:1044B0006E65673A20256420256400437572726535
:1044C0006E74206C696D69743A20256400454D470F
:1044D000207468726573686F6C6473205B30202D84
:1044E00020313032345D3A2025752C202575004569
:1044F0004D47206D61782076616C756573205B3067
:10450000202D20343039365D3A20256C752C20253D
:104510006C750043616C6962726174696F6E2065CD
:104520006E61626C65643A205945530D0A0043611F
:104530006C6962726174696F6E20656E61626C6530
:10454000643A204E4F0D0A00454D47206D6178209A
:1045500073706565643A2025640052657374207435
:10456000696D652064656C617920286D73293A2036
:10457000256400526573742076656C6F6369747985
:1045800020636C6F7375726520287469636B732F79
:10459000736563293A202564005265737420706F37
:1045A000736974696F6E3A2025640064656275678B
:1045B0003A20256C64000D0A555341474520535459
:1045C00041544953544943530D0A004461746520D2
:1045D0006F66206D61696E74656E616E63653A2009
:1045E00025642F25642F323025640D0A00506F7327
:1045F0006974696F6E7320686973746F6772616D37
:1046000020287469636B73293A0D0A0042696E2091
:104610002564205B25642D25645D3A20256C750D8D
:104620000A0043757272656E7420686973746F67EF
:1046300072616D20286D41293A0D0A005468726537
:1046400073686F6C64202564205B25642D25645D90
:104650003A20256C750D0A00454D47206163746949
:10466000766174696F6E7320636F756E7465723AEC
:1046700020256C752C20256C750052657374207094
:104680006F736974696F6E206F6363757272656EA4
:104690006365733A20256C7500416E676C65207404
:1046A0006F74616C20646973706C6163656D656EB5
:1046B0007420287469636B73293A20256C75005443
:1046C0006F74616C20706F776572206F6E207469F3
:1046D0006D652028736563293A20256C7500546F39
:1046E00074616C207265737420706F736974696F84
:1046F0006E2074696D652028736563293A20256CE6
:104700007500000000000000000000000000000034
:104710000000000000000000000000000000000099
:104720000000000000000000000000000000000089
:104730000000000000000000000000000000000079
:104740000000000000000000000000000000000069
:10544000000000000000000000000031202D20447A
:1054500065766963652049443A0032202D20506FFB
:10546000736974696F6E20504944205B502C204949
:105470002C20445D3A0033202D2043757272656EF6
:105480007420504944205B502C20492C20445D3A24
:105490000034202D20537461727475702041637440
:1054A00069766174696F6E3A000000000035202D46
:1054B00020496E707574206D6F64653A00000000BD
:1054C00000000000000000000000000000000036A6
:1054D000202D20436F6E74726F6C206D6F64653A7F
:1054E00000000000000000000000000000000000BC
:1054F00000000000000037202D205265736F6C758E
:1055000074696F6E733A0038202D204D6561737594
:1055100072656D656E74204F6666736574733A00CC
:1055200039202D204D756C7469706C696572733A01
:10553000003130202D20506F732E206C696D6974FE
:10554000206163746976653A000000000031312003
:105550002D20506F732E206C696D697473205B6908
:105560006E662C207375705D3A003132202D204D0F
:105570006178207374657073205B6E65672C207092
:105580006F735D3A003133202D2043757272656E62
:1055900074206C696D69743A003134202D20454DBA
:1055A000472063616C6962726174696F6E206F6E0F
:1055B00020737461727475703A0000000000313518
:1055C000202D20454D47207468726573686F6C64A8
:1055D000733A003136202D20454D47206D617820EB
:1055E00076616C7565733A003137202D20454D4743
:1055F000206D61782073706565643A003138202D24
:10560000204162736F6C75746520656E636F6465AD
:105610007220706F736974696F6E3A000000000049
:105620003139202D204D6F746F722068616E646C6B
:105630006520726174696F3A003230202D20505716
:105640004D2072657363616C696E673A00000000FB
:10565000003231202D205265737420706F7369748D
:10566000696F6E3A003232202D20526573742070BB
:105670006F736974696F6E2074696D652064656C01
:10568000617920286D73293A003233202D2052652C
:1056900073742076656C20636C6F73757265202857
:1056A0007469636B732F736563293A003234202D5C
:1056B0002043757272656E74206C6F6F6B75703AF3
:1056C000003235202D205265737420706F73697419
:1056D000696F6E20666C61673A0000000000323628
:1056E000202D20454D4720696E76657273696F6E77
:1056F0003A00000000003237202D20526573657497
:1057000020636F756E746572733A0000000000329A
:1057100038202D2044617465206F66206D61696EAC
:1057200074656E616E6365205B44442F4D4D2F5947
:10573000595D3A0030202D3E205573620A31202DEC
:105740003E2048616E646C650A32202D3E20454D36
:10575000472070726F706F7274696F6E616C0A337C
:10576000202D3E20454D4720496E74656772616C5F
:105770000A34202D3E20454D4720464346530A35E6
:10578000202D3E20454D4720464346532041647618
:10579000616E6365640A0030202D3E20506F73698E
:1057A00074696F6E0A31202D3E2050574D0A322009
:1057B0002D3E2043757272656E740A33202D3E2093
:1057C000506F736974696F6E20616E6420437572E7
:1057D00072656E740A000030202D3E2044656163BE
:1057E000746976617465205B4E4F5D0A31202D3EF1
:1057F000204163746976617465205B5945535D0A85
:10580000009005E0EBF0A3EAF0A3E9F0900B38E09C
:1058100064FA7003026E369005E0E0FBA3E0FAA3A1
:10582000E0F8AC02AD037BFF7A407956128A2F90E4
:105830000B3174FFF0A37440F0A37457F09005E0AF
:10584000E0FBA3E0FAA3E0F912E045900B3174FF0E
:10585000F0A37440F0A3745AF09005E0E0FBA3E0DD
:10586000FAA3E0F912E045900B3174FFF0A3744005
:10587000F0A3746DF09005E0E0FBA3E0FAA3E0F97B
:1058800012E045900B3174FFF0A37440F0A37495BF
:10589000F09005E0E0FBA3E0FAA3E0F912E0459008
:1058A0000B3174FFF0A37440F0A3749BF09005E0FB
:1058B000E0FBA3E0FAA3E0F912E04590064E74FF86
:1058C000F0A37440F0A374A9F0900B38E0FF9006A9
:1058D00051E4F0A3EFF07B017A0579E512A4E190A1
:1058E0000B317401F0A37405F0A374E5F09005E0AA
:1058F000E0FBA3E0FAA3E0F912E045900B3174FF5E
:10590000F0A37440F0A374B2F09005E0E0FBA3E0D4
:10591000FAA3E0F912E045900BB2E0B4011E900B3F
:105920003174FFF0A37440F0A374CDF09005E0E073
:10593000FBA3E0FAA3E0F912E045801C900B317460
:10594000FFF0A37440F0A374D2F09005E0E0FBA355
:10595000E0FAA3E0F912E04590064E74FFF0A3745C
:1059600040F0A374D6F0900EADE0FF900651E4F045
:10597000A3EFF07B017A0579E512A4E1900B317475
:1059800001F0A37405F0A374E5F09005E0E0FBA33B
:10599000E0FAA3E0F912E045900B3174FFF0A37434
:1059A00040F0A37457F09005E0E0FBA3E0FAA3E019
:1059B000F912E045900B3174FFF0A37440F0A3742A
:1059C000E6F09005E0E0FBA3E0FAA3E0F912E04581
:1059D000900B3174FFF0A37440F0A374F3F09005C2
:1059E000E0E0FBA3E0FAA3E0F912E045900C88E0C8
:1059F000B4021E900B3174FFF0A37441F0A3740342
:105A0000F09005E0E0FBA3E0FAA3E0F912E04580A6
:105A100041900C88E0B4011E900B3174FFF0A37428
:105A200041F0A37411F09005E0E0FBA3E0FAA3E0DD
:105A3000F912E045801C900B3174FFF0A37441F023
:105A4000A3741AF09005E0E0FBA3E0FAA3E0F912DA
:105A5000E045E49005E3F0A3F0C39005E4E0940290
:105A60009005E3E0648094804003025BBD900C8865
:105A7000E06402705F90064E74FFF0A37441F0A3DF
:105A80007428F09005E3E0FEA3E07802C333CE3340
:105A9000CED8F9243FF582740C3EF583E0A3E0A351
:105AA000E0FFA3E0900651CFF0A3EFF07B017A0571
:105AB00079E512A4E1900B317401F0A37405F0A311
:105AC00074E5F09005E0E0FBA3E0FAA3E0F912E052
:105AD00045025BAC900C88E06401705E90064E74E9
:105AE000FFF0A37441F0A37428F09005E3E0FEA357
:105AF000E07802C333CE33CED8F92447F582740C54
:105B00003EF583E0A3E0A3E0FFA3E0900651CFF0D1
:105B1000A3EFF07B017A0579E512A4E1900B3174D3
:105B200001F0A37405F0A374E5F09005E0E0FBA399
:105B3000E0FAA3E0F912E045807290064E74FFF09F
:105B4000A37441F0A37428F09005E3E0FAA3E0FB0E
:105B5000AE027802C333CE33CED8F92437F582743F
:105B60000C3EF583E0FCA3E0FDA3E0FEA3E0FF74A0
:105B70006C2BF582740B3AF583E0F9F8128791905B
:105B80000651EEF0A3EFF07B017A0579E512A4E16E
:105B9000900B317401F0A37405F0A374E5F0900547
:105BA000E0E0FBA3E0FAA3E0F912E0459005E4E0B1
:105BB00004F070069005E3E004F0025A59900B31AE
:105BC00074FFF0A37440F0A37457F09005E0E0FB7D
:105BD000A3E0FAA3E0F912E045900B3174FFF0A3C3
:105BE0007440F0A37457F09005E0E0FBA3E0FAA343
:105BF000E0F912E04590064E74FFF0A37441F0A363
:105C0000742CF07B017A0579E512A4E1900C4FE049
:105C100054036019900B3174FFF0A37441F0A37426
:105C20003CF07B017A0579E512E0458017900B3155
:105C300074FFF0A37441F0A37442F07B017A0579FC
:105C4000E512E045900B317401F0A37405F0A374E4
:105C5000E5F09005E0E0FBA3E0FAA3E0F912E045EF
:105C6000900B3174FFF0A37441F0A37447F09005DA
:105C7000E0E0FBA3E0FAA3E0F912E045900B3174F9
:105C8000FFF0A37441F0A3745DF09005E0E0FBA386
:105C9000E0FAA3E0F912E045E49005E3F0A3F0C3D5
:105CA0009005E4E094039005E3E064809480400371
:105CB000025D6590064E74FFF0A37441F0A3746D0D
:105CC000F09005E3E0FCA3E0FD2401FEE43C900637
:105CD00051F0A3CEF0EDAE047802C333CE33CED86C
:105CE000F92475F582740E3EF583E0FCA3E0FDA374
:105CF000E0FEA3E0FF9005E3E0FAA3E0246CF58268
:105D0000740B3AF583E0F9F8128791900653EEF0A0
:105D1000A3EFF07B017A0579E512A4E1900B3174D1
:105D200001F0A37405F0A374E5F09005E0E0FBA397
:105D3000E0FAA3E0F912E045900B3174FFF0A37490
:105D400040F0A37457F09005E0E0FBA3E0FAA3E075
:105D5000F912E0459005E4E004F070069005E3E0F8
:105D600004F0025C9F90064E74FFF0A37441F0A310
:105D70007476F0900D95E0FCA3E0FDA3E0FEA3E0B7
:105D8000FF9006511287F27B017A0579E512A4E1B2
:105D9000900B317401F0A37405F0A374E5F0900545
:105DA000E0E0FBA3E0FAA3E0F912E045900B3174C8
:105DB000FFF0A37440F0A37457F09005E0E0FBA35C
:105DC000E0FAA3E0F912E04590064E74FFF0A374E8
:105DD00041F0A37490F0900E5CE0FCA3E0FDA3E022
:105DE000FEA3E0FF9006511287F27B017A0579E568
:105DF00012A4E1900B317401F0A37405F0A374E5D3
:105E0000F09005E0E0FBA3E0FAA3E0F912E0459092
:105E10000B3174FFF0A37440F0A37457F09005E0C9
:105E2000E0FBA3E0FAA3E0F912E04590064E74FF10
:105E3000F0A37441F0A374B4F0900E81E0FCA3E0F1
:105E4000FDA3E0FEA3E0FF9006511287F27B017AEA
:105E50000579E512A4E1900B317401F0A37405F00B
:105E6000A374E5F09005E0E0FBA3E0FAA3E0F912EB
:105E7000E045900B3174FFF0A37440F0A37457F029
:105E80009005E0E0FBA3E0FAA3E0F912E045900BF7
:105E90003174FFF0A37441F0A374C6F09005E0E004
:105EA000FBA3E0FAA3E0F912E045900B3174FFF098
:105EB000A37441F0A374DCF09005E0E0FBA3E0FAEA
:105EC000A3E0F912E045900B6BE064037003025FFE
:105ED000D390064E74FFF0A37441F0A374EEF090DB
:105EE0000B39E0FCA3E0FDA3E0FEA3E0FFEC12828F
:105EF000D9E4FBFA798078471281C3900651128762
:105F0000F27B017A0579E512A4E1900B317401F07E
:105F1000A37405F0A374E5F09005E0E0FBA3E0FABC
:105F2000A3E0F912E04590064E74FFF0A37441F02F
:105F3000A374F8F0900B3DE0FCA3E0FDA3E0FEA30A
:105F4000E0FFEC1282D9E4FBFA798078471281C332
:105F50009006511287F27B017A0579E512A4E1904F
:105F60000B317401F0A37405F0A374E5F09005E023
:105F7000E0FBA3E0FAA3E0F912E04590064E74FFBF
:105F8000F0A37442F0A37402F0900B41E0FCA3E094
:105F9000FDA3E0FEA3E0FFEC1282D9E4FBFA7980D6
:105FA00078471281C39006511287F27B017A0579F6
:105FB000E512A4E1900B317401F0A37405F0A37411
:105FC000E5F09005E0E0FBA3E0FAA3E0F912E0457C
:105FD0000260CF90064E74FFF0A37441F0A374EEFC
:105FE000F0900B51E0FCA3E0FDA3E0FEA3E0FFEC8A
:105FF0001282D9E4FBFAF978461281C39006511255
:1060000087F27B017A0579E512A4E1900B317401E6
:10601000F0A37405F0A374E5F09005E0E0FBA3E0C5
:10602000FAA3E0F912E04590064E74FFF0A3744124
:10603000F0A374F8F0900B55E0FCA3E0FDA3E0FEA4
:10604000A3E0FFEC1282D9E4FBFAF978461281C38F
:106050009006511287F27B017A0579E512A4E1904E
:106060000B317401F0A37405F0A374E5F09005E022
:10607000E0FBA3E0FAA3E0F912E04590064E74FFBE
:10608000F0A37442F0A37402F0900B59E0FCA3E07B
:10609000FDA3E0FEA3E0FFEC1282D9E4FBFAF9785D
:1060A000461281C39006511287F27B017A0579E589
:1060B00012A4E1900B317401F0A37405F0A374E510
:1060C000F09005E0E0FBA3E0FAA3E0F912E04590D0
:1060D0000B3174FFF0A37442F0A3740CF09005E050
:1060E000E0FBA3E0FAA3E0F912E045900B6BE0645B
:1060F0000370030261F890064E74FFF0A37441F040
:10610000A374EEF0900B45E0FCA3E0FDA3E0FEA33A
:10611000E0FFEC1282D9E4FBFA798078471281C360
:106120009006511287F27B017A0579E512A4E1907D
:106130000B317401F0A37405F0A374E5F09005E051
:10614000E0FBA3E0FAA3E0F912E04590064E74FFED
:10615000F0A37441F0A374F8F0900B49E0FCA3E0C5
:10616000FDA3E0FEA3E0FFEC1282D9E4FBFA798004
:1061700078471281C39006511287F27B017A057924
:10618000E512A4E1900B317401F0A37405F0A3743F
:10619000E5F09005E0E0FBA3E0FAA3E0F912E045AA
:1061A00090064E74FFF0A37442F0A37402F0900BBB
:1061B0004DE0FCA3E0FDA3E0FEA3E0FFEC1282D9DA
:1061C000E4FBFA798078471281C39006511287F276
:1061D0007B017A0579E512A4E1900B317401F0A3FB
:1061E0007405F0A374E5F09005E0E0FBA3E0FAA3EA
:1061F000E0F912E0450262F490064E74FFF0A374D9
:1062000041F0A374EEF0900B5DE0FCA3E0FDA3E091
:10621000FEA3E0FFEC1282D9E4FBFAF97846128182
:10622000C39006511287F27B017A0579E512A4E149
:10623000900B317401F0A37405F0A374E5F09005A0
:10624000E0E0FBA3E0FAA3E0F912E04590064E740B
:10625000FFF0A37441F0A374F8F0900B61E0FCA38D
:10626000E0FDA3E0FEA3E0FFEC1282D9E4FBFAF923
:1062700078461281C39006511287F27B017A057924
:10628000E512A4E1900B317401F0A37405F0A3743E
:10629000E5F09005E0E0FBA3E0FAA3E0F912E045A9
:1062A00090064E74FFF0A37442F0A37402F0900BBA
:1062B00065E0FCA3E0FDA3E0FEA3E0FFEC1282D9C1
:1062C000E4FBFAF978461281C39006511287F27BFB
:1062D000017A0579E512A4E1900B317401F0A37401
:1062E00005F0A374E5F09005E0E0FBA3E0FAA3E07D
:1062F000F912E045900B3174FFF0A37440F0A374E1
:1063000057F09005E0E0FBA3E0FAA3E0F912E045C6
:10631000900B69E0B4031E900B3174FFF0A374423C
:10632000F0A37426F09005E0E0FBA3E0FAA3E0F907
:1063300012E045801C900B3174FFF0A37442F0A36F
:106340007440F09005E0E0FBA3E0FAA3E0F912E06E
:1063500045900B6AE014603814605314606E14703A
:10636000030263EA147003026408240560030264F4
:1063700024900B3174FFF0A37442F0A37459F09091
:1063800005E0E0FBA3E0FAA3E0F912E04502642493
:10639000900B3174FFF0A37442F0A3746BF090057E
:1063A000E0E0FBA3E0FAA3E0F912E0458076900B71
:1063B0003174FFF0A37442F0A37480F09005E0E024
:1063C000FBA3E0FAA3E0F912E0458058900B31748A
:1063D000FFF0A37442F0A3749FF09005E0E0FBA3EC
:1063E000E0FAA3E0F912E045803A900B3174FFF037
:1063F000A37442F0A374BAF09005E0E0FBA3E0FAC6
:10640000A3E0F912E045801C900B3174FFF0A374F7
:1064100042F0A374D1F09005E0E0FBA3E0FAA3E022
:10642000F912E045900B6BE014602814604314608F
:106430005E24037076900B3174FFF0A37442F0A3D6
:1064400074ECF09005E0E0FBA3E0FAA3E0F912E0C1
:10645000458058900B3174FFF0A37443F0A374058A
:10646000F09005E0E0FBA3E0FAA3E0F912E045803C
:106470003A900B3174FFF0A37443F0A37419F090B9
:1064800005E0E0FBA3E0FAA3E0F912E045801C90F0
:106490000B3174FFF0A37443F0A37431F09005E066
:1064A000E0FBA3E0FAA3E0F912E045900BB0E06056
:1064B0001E900B3174FFF0A37443F0A37456F09058
:1064C00005E0E0FBA3E0FAA3E0F912E045801C90B0
:1064D0000B3174FFF0A37443F0A37477F09005E0E0
:1064E000E0FBA3E0FAA3E0F912E04590064E74FF4A
:1064F000F0A37443F0A37497F0900BB1E0FE3395D2
:10650000E0900651F0A3CEF07B017A0579E512A464
:10651000E1900B317401F0A37405F0A374E5F090E1
:1065200005E0E0FBA3E0FAA3E0F912E045900B31AF
:1065300074FFF0A37443F0A374B0F09005E0E0FBA7
:10654000A3E0FAA3E0F912E045E49005E3F0A3F03C
:10655000C39005E4E094039005E3E06480948040F8
:10656000030265EC90064E74FFF0A37441F0A3742F
:106570006DF09005E3E0FCA3E0FD2401FEE43C9017
:106580000651F0A3CEF0746C2DF582740B3CF583AC
:10659000E0FF900653E4F0A3EFF07B017A0579E584
:1065A00012A4E1900B317401F0A37405F0A374E51B
:1065B000F09005E0E0FBA3E0FAA3E0F912E04590DB
:1065C0000B3174FFF0A37440F0A37457F09005E012
:1065D000E0FBA3E0FAA3E0F912E0459005E4E00453
:1065E000F070069005E3E004F0026550900B317402
:1065F000FFF0A37443F0A374C5F09005E0E0FBA3A3
:10660000E0FAA3E0F912E045E49005E3F0A3F0C35B
:106610009005E4E094039005E3E0648094804003F7
:106620000266D390064E74FFF0A37443F0A374DBAC
:10663000F09005E3E0FCA3E0FD2401FEE43C9006BD
:1066400051F0A3CEF0EDAE047802C333CE33CED8F2
:10665000F9246FF582740B3EF583E0FCA3E0FDA303
:10666000E0FEA3E0FF9005E3E0FAA3E0246CF582EE
:10667000740B3AF583E0F9F812879190065312876C
:10668000F27B017A0579E512A4E1900B317401F0F7
:10669000A37405F0A374E5F09005E0E0FBA3E0FA35
:1066A000A3E0F912E045900B3174FFF0A37440F0C1
:1066B000A37457F09005E0E0FBA3E0FAA3E0F91221
:1066C000E0459005E4E004F070069005E3E004F096
:1066D00002660F900B3174FFF0A37443F0A374E5CE
:1066E000F09005E0E0FBA3E0FAA3E0F912E045E456
:1066F0009005E3F0A3F0C39005E4E094039005E374
:10670000E06480948040030267A490064E74FFF01A
:10671000A37443F0A374FFF09005E3E0FCA3E0FD55
:106720002401FEE43C900651F0A3CEF0EDAE0478D7
:1067300002C333CE33CED8F9247BF582740B3EF5F9
:1067400083E0FCA3E0FDA3E0FEA3E0FF900653126C
:1067500087F27B017A0579E512A4E1900B3174018F
:10676000F0A37405F0A374E5F09005E0E0FBA3E06E
:10677000FAA3E0F912E045900B3174FFF0A37440E6
:10678000F0A37457F09005E0E0FBA3E0FAA3E0F972
:1067900012E0459005E4E004F070069005E3E004A3
:1067A000F00266F6900B3174FFF0A37444F0A3740A
:1067B00008F09005E0E0FBA3E0FAA3E0F912E04561
:1067C00090064E74FFF0A37444F0A37420F0900B75
:1067D000B3E0FCA3E0FDA3E0FEA3E0FF90065112AE
:1067E00087F2900BB7E0FCA3E0FDA3E0FEA3E0FF7F
:1067F0009006551287F2900BBBE0FCA3E0FDA3E0EE
:10680000FEA3E0FF9006591287F27B017A0579E535
:1068100012A4E1900B317401F0A37405F0A374E5A8
:10682000F09005E0E0FBA3E0FAA3E0F912E0459068
:10683000064E74FFF0A37444F0A37439F0900BBFBC
:10684000E0FCA3E0FDA3E0FEA3E0FF900651128769
:10685000F2900BC3E0FCA3E0FDA3E0FEA3E0FF90F9
:1068600006551287F2900BC7E0FCA3E0FDA3E0FE03
:10687000A3E0FF9006591287F27B017A0579E512B1
:10688000A4E1900B317401F0A37405F0A374E5F05A
:106890009005E0E0FBA3E0FAA3E0F912E045900BDD
:1068A0003174FFF0A37440F0A37457F09005E0E05A
:1068B000FBA3E0FAA3E0F912E04590064E74FFF066
:1068C000A37444F0A37452F0900CA4E0FF9006511E
:1068D000E4F0A3EFF07B017A0579E512A4E1900BD7
:1068E000317401F0A37405F0A374E5F09005E0E0C5
:1068F000FBA3E0FAA3E0F912E045900B3174FFF03E
:10690000A37440F0A37457F09005E0E0FBA3E0FA15
:10691000A3E0F912E045E49005E3F0A3F0C390058D
:10692000E4E094019005E3E0648094804003026A0F
:106930003590064E74FFF0A37444F0A3746CF0908D
:1069400005E3E0FCA3E0FD2401FEE43C900651F0E9
:10695000A3CEF0EDAE047802C333CE33CED8F92403
:10696000A5F582740C3EF583E0FCA3E0FDA3E0FEF8
:10697000A3E0FF9005E3E0FAA3E02489F582740C1C
:106980003AF583E0F9F81287919006531287F27B6B
:10699000017A0579E512A4E1900B317401F0A3743A
:1069A00005F0A374E5F09005E0E0FBA3E0FAA3E0B6
:1069B000F912E04590064E74FFF0A37444F0A374FE
:1069C00092F09005E3E0FAA3E0FBAE027802C33355
:1069D000CE33CED8F924ADF582740C3EF583E0FCBD
:1069E000A3E0FDA3E0FEA3E0FF74892BF582740C05
:1069F0003AF583E0F9F81287919006511287F27BFD
:106A0000017A0579E512A4E1900B317401F0A374C9
:106A100005F0A374E5F09005E0E0FBA3E0FAA3E045
:106A2000F912E0459005E4E004F070069005E3E01B
:106A300004F002691D90064E74FFF0A37444F0A3A5
:106A4000749FF0900CB5E0A3E0A3E0FFA3E09006F4
:106A500051CFF0A3EFF0900CB9E0A3E0A3E0FFA3C7
:106A6000E0900653CFF0A3EFF07B017A0579E512B1
:106A7000A4E1900B317401F0A37405F0A374E5F068
:106A80009005E0E0FBA3E0FAA3E0F912E045900BEB
:106A90003174FFF0A37440F0A37457F09005E0E068
:106AA000FBA3E0FAA3E0F912E04590064E74FFF074
:106AB000A37444F0A374BBF0900CBDE0FFA3E0907E
:106AC0000651CFF0A3EFF07B017A0579E512A4E13E
:106AD000900B317401F0A37405F0A374E5F09005F8
:106AE000E0E0FBA3E0FAA3E0F912E045900B31747B
:106AF000FFF0A37440F0A37457F09005E0E0FBA30F
:106B0000E0FAA3E0F912E04590064E74FFF0A3749A
:106B100044F0A374CDF0900CBFE0FFA3E0900651C9
:106B2000CFF0A3EFF0900CC1E0FFA3E0900653CFAD
:106B3000F0A3EFF07B017A0579E512A4E1900B3127
:106B40007401F0A37405F0A374E5F09005E0E0FB98
:106B5000A3E0FAA3E0F912E045900B3174FFF0A333
:106B60007440F0A37457F09005E0E0FBA3E0FAA3B3
:106B7000E0F912E04590064E74FFF0A37444F0A3D0
:106B800074EFF0900CC4E0FCA3E0FDA3E0FEA3E0F2
:106B9000FF9006511287F2900CC8E0FCA3E0FDA321
:106BA000E0FEA3E0FF9006551287F27B017A05799B
:106BB000E512A4E1900B317401F0A37405F0A37405
:106BC000E5F09005E0E0FBA3E0FAA3E0F912E04570
:106BD000900B3174FFF0A37440F0A37457F090054C
:106BE000E0E0FBA3E0FAA3E0F912E045900CC3E07B
:106BF000601E900B3174FFF0A37445F0A37413F082
:106C00009005E0E0FBA3E0FAA3E0F912E045801C68
:106C1000900B3174FFF0A37445F0A3742EF090052F
:106C2000E0E0FBA3E0FAA3E0F912E04590064E7421
:106C3000FFF0A37445F0A37448F0900CCCE0FF90F3
:106C40000651E4F0A3EFF07B017A0579E512A4E1A7
:106C5000900B317401F0A37405F0A374E5F0900576
:106C6000E0E0FBA3E0FAA3E0F912E045900B3174F9
:106C7000FFF0A37440F0A37457F09005E0E0FBA38D
:106C8000E0FAA3E0F912E04590064E74FFF0A37419
:106C900045F0A3745AF0900CEEE0A3E0A3E0FFA34C
:106CA000E0900651CFF0A3EFF07B017A0579E51271
:106CB000A4E1900B317401F0A37405F0A374E5F026
:106CC0009005E0E0FBA3E0FAA3E0F912E045900BA9
:106CD0003174FFF0A37440F0A37457F09005E0E026
:106CE000FBA3E0FAA3E0F912E04590064E74FFF032
:106CF000A37445F0A37473F0900CF2E0A3E0A3E05A
:106D0000FFA3E0900651CFF0A3EFF07B017A057965
:106D1000E512A4E1900B317401F0A37405F0A374A3
:106D2000E5F09005E0E0FBA3E0FAA3E0F912E0450E
:106D3000900B3174FFF0A37440F0A37457F09005EA
:106D4000E0E0FBA3E0FAA3E0F912E04590064E7400
:106D5000FFF0A37445F0A37499F0900CEAE0FCA353
:106D6000E0FDA3E0FEA3E0FF900B6CE0F9F81287D2
:106D700091900651EEF0A3EFF07B017A0579E512D0
:106D8000A4E1900B317401F0A37405F0A374E5F055
:106D90009005E0E0FBA3E0FAA3E0F912E045900BD8
:106DA0003174FFF0A37440F0A37457F09005E0E055
:106DB000FBA3E0FAA3E0F912E04590064E74FFF061
:106DC000A37445F0A374ABF0900D91E0F8A3E0F943
:106DD000A3E0FAA3E0FB900E60E0FCA3E0FDA3E0DB
:106DE000FEA3E0C39BFFEE9AFEED99FDEC98FC90AC
:106DF00006511287F27B017A0579E512A4E1900B26
:106E0000317401F0A37405F0A374E5F09005E0E09F
:106E1000FBA3E0FAA3E0F912E045900B3174FFF018
:106E2000A37440F0A37457F09005E0E0FBA3E0FAF0
:106E3000A3E0F912E04522E4F526F525F524F52333
:106E4000900B39E0FCA3E0FDA3E0FEA3E0F5428E49
:106E5000418D408C3FA3E0FCA3E0FDA3E0FEA3E056
:106E6000F5468E458D448C43A3E0FCA3E0FDA3E0F2
:106E7000FEA3E0F54A8E498D488C47A3E0FCA3E0D1
:106E8000FDA3E0FEA3E0F54E8E4D8D4C8C4BA3E0B0
:106E9000FCA3E0FDA3E0FEA3E0F5528E518D508CE3
:106EA0004FA3E0FCA3E0FDA3E0FEA3E0F5568E5562
:106EB0008D548C53A3E0FCA3E0FDA3E0FEA3E0F51A
:106EC0005A8E598D588C57A3E0FCA3E0FDA3E0FE39
:106ED000A3E0F55E8E5D8D5C8C5BA3E0FCA3E0FD22
:106EE000A3E0FEA3E0F5628E618D608C5F900BA045
:106EF000E0FEA3E0FFEE3395E0FDFC780D1287A5E0
:106F0000AB5AAA59A958A85712E5788F668E658D95
:106F1000648C63900B5DE0FCA3E0FDA3E0FEA3E0C6
:106F2000F56A8E698D688C67A3E0FCA3E0FDA3E0A1
:106F3000FEA3E0F56E8E6D8D6C8C6BA3E0FCA3E080
:106F4000FDA3E0FEA3E0F5728E718D708C6F900B47
:106F5000A2E0FEA3E0FFFBAA06E4900E8CE0FCA3F7
:106F6000E0FDA3E0FEA3E0C39BF53AEE9AF539ED10
:106F70009400F538EC9400F537900BA4E0FEA3E004
:106F8000FFFBAA06E4900E90E0FCA3E0FDA3E0FE68
:106F9000A3E0C39BF53EEE9AF53DED9400F53CEC85
:106FA0009400F53B900B6AE024FE70030271141408
:106FB000700302717214700302726714700302731B
:106FC000CA24046003027561900BB0E06024A3E062
:106FD000FF3395E0FEFDFC900E7DE0F8A3E0F9A301
:106FE000E0FAA3E0FB12861F8F368E358D348C338A
:106FF0008024900BB1E0FF3395E0FEFDFC900E790C
:10700000E0F8A3E0F9A3E0FAA3E0FB12861F8F36B5
:107010008E358D348C33900C37E0F8A3E0F9A3E083
:10702000FAA3E0FBC3E5369BFFE5359AFEE534990C
:10703000FDE53398FC900B98E0F8A3E0F9A3E0FAA3
:10704000A3E0FBC31287575044E4FFFEFDFC900B06
:1070500098E0F8A3E0A3E0A3E0C3128757602E9066
:107060000C37E0FCA3E0FDA3E0FEA3E0FF900B984B
:10707000E0F8A3E0A3E0A3E0EF2BFFEE3AFEED394A
:10708000FDEC38FC900C371287F2027561900C37DA
:10709000E0F8A3E0F9A3E0FAA3E0FBC3E5369BFF29
:1070A000E5359AFEE53499FDE53398FC900B9CE0BC
:1070B000F8A3E0F9A3E0FAA3E0FBD312875740431B
:1070C000E4FFFEFDFC900B9CE0F8A3E0A3E0A3E04E
:1070D000128757602E900C37E0FCA3E0FDA3E0FE82
:1070E000A3E0FF900B9CE0F8A3E0A3E0A3E0EF2B6C
:1070F000FFEE3AFEED39FDEC38FC900C371287F2CA
:10710000027561AF36AE35AD34AC33900C371287B3
:10711000F2027561E4FFFEFDFCAB3AAA39A938A87A
:1071200037D3128757403D900CADE0FCA3E0FDA3A0
:10713000E0FEA3E0FFA83712861FC006C007900B31
:10714000A2E0FEA3E0FFC3E49FFF74049EFEAB0732
:10715000FAE4F9F8D007D00612E578900C371287D8
:10716000F2027561E4FFFEFDFC900C371287F2021B
:107170007561900D99E0FCA3E0FDA3E0FEA3E0FFA4
:10718000900C371287F2E4FFFEFDFCAB3AAA39A956
:1071900038A837D31287574056900CCCE0FFE4FC58
:1071A000FDFEA83712861FE47B02FAF9F812861F4B
:1071B000C006C007900BA2E0FEA3E0FFC3E49FFF60
:1071C00074049EFEAB07FAE4F9F8D007D00612E586
:1071D00078900D99E0F8A3E0F9A3E0FAA3E02FFF7F
:1071E000EA3EFEE93DFDE83CFC900C371287F2E4F4
:1071F000FFFEFDFCAB3EAA3DA93CA83BD31287573E
:107200005003027561900CCCE0FFE4FCFDFEA83B4E
:1072100012861FE47B02FAF9F812861FC006C00727
:10722000900BA4E0FEA3E0FFC3E49FFF74049EFE66
:10723000AB07FAE4F9F8D007D00612E578A804A95C
:1072400005AA06AB07900D99E0FCA3E0FDA3E0FEC4
:10725000A3E0C39BFFEE9AFEED99FDEC98FC900C29
:10726000371287F2027561900D99E0FCA3E0FDA34F
:10727000E0FEA3E0FF900C371287F2900F46E01477
:10728000604814700302734424026003027561E4D1
:10729000FFFEFDFCAB3AAA39A938A837D3128757AD
:1072A0004009900F467401F0027561E4FFFEFDFC99
:1072B000AB3EAA3DA93CA83BD312875750030275A9
:1072C00061900F467402F0027561E4FFFEFDFCABB5
:1072D0003AAA39A938A837C31287575008E4900F43
:1072E00046F0027561900CCCE0FFE4FCFDFEAB3A89
:1072F000AA39A938A83712861FE47B02FAF9F812D6
:10730000861FC006C007900BA2E0FEA3E0FFC3E407
:107310009FFF74049EFEAB07FAE4F9F8D007D0068D
:1073200012E578900D99E0F8A3E0F9A3E0FAA3E064
:107330002FFFEA3EFEE93DFDE83CFC900C3712874A
:10734000F2027561E4FFFEFDFCAB3EAA3DA93CA83C
:107350003BC31287575008E4900F46F002756190C6
:107360000CCCE0FFE4FCFDFEAB3EAA3DA93CA83BF3
:1073700012861FE47B02FAF9F812861FC006C007C6
:10738000900BA4E0FEA3E0FFC3E49FFF74049EFE05
:10739000AB07FAE4F9F8D007D00612E578A804A9FB
:1073A00005AA06AB07900D99E0FCA3E0FDA3E0FE63
:1073B000A3E0C39BFFEE9AFEED99FDEC98FC900CC8
:1073C000371287F2027561027561900D99E0FCA396
:1073D000E0FDA3E0FEA3E0FF900C371287F2900FD0
:1073E00046E01460481470030274C624026003026D
:1073F0007561E4FFFEFDFCAB3AAA39A938A837D382
:107400001287574009900F467401F0027561E4FF3E
:10741000FEFDFCAB3EAA3DA93CA83BD312875750CA
:1074200003027561900F467402F0027561E4FFFE7D
:10743000FDFCAB3AAA39A938A837C3128757501BAD
:10744000E4FFFEFDFCAB3EAA3DA93CA83BC312876E
:10745000575008E4900F46F0027561E4FFFEFDFC12
:10746000AB3AAA39A938A837D31287575003027507
:1074700061900CCCE0FFE4FCFDFEA83712861F787B
:10748000021287A5C006C007900BA2E0FEA3E0FF92
:10749000C3E49FFF74049EFEAB07FAE4F9F8D0073B
:1074A000D00612E578900D99E0F8A3E0F9A3E0FA90
:1074B000A3E02FFFEA3EFEE93DFDE83CFC900C37DF
:1074C0001287F2027561E4FFFEFDFCAB3AAA39A90E
:1074D00038A837C3128757501AE4FFFEFDFCAB3EB5
:1074E000AA3DA93CA83BC31287575007E4900F461A
:1074F000F0806EE4FFFEFDFCAB3EAA3DA93CA83B3C
:10750000D3128757405B900BAFE0FFE4FCFDFEA871
:107510003B12861F78021287A5C006C007900BA4F5
:10752000E0FEA3E0FFC3E49FFF74049EFEAB07FAF6
:10753000E4F9F8D007D00612E578A804A905AA0650
:10754000AB07900D99E0FCA3E0FDA3E0FEA3E0C330
:107550009BFFEE9AFEED99FDEC98FC900C3712879C
:10756000F2900B87E0606AA3E0FCA3E0FDA3E0FEDD
:10757000A3E0FF900C37E0F8A3E0F9A3E0FAA3E062
:10758000FBC31287575014900B88E0FCA3E0FDA3C7
:10759000E0FEA3E0FF900C371287F2900B90E0FC26
:1075A000A3E0FDA3E0FEA3E0FF900C37E0F8A3E02A
:1075B000F9A3E0FAA3E0FBD31287574014900B9095
:1075C000E0FCA3E0FDA3E0FEA3E0FF900C371287F0
:1075D000F2900BDDE06401600302768A900EACE06D
:1075E000B40114900E58E0FCA3E0FDA3E0FEA3E07C
:1075F000FF900C371287F2900D54E0640160030293
:10760000768AFFFEFDFCAB3EAA3DA93CA83BD31207
:107610008757405D900CEAE0FCA3E0FDA3E0FEA3E9
:10762000E0FFA83B12861FC006C007900BA4E0FE37
:10763000A3E0FFC3E49FFF74049EFEAB07FAE4F9E6
:10764000F8D007D00612E578A804A905AA06AB076A
:10765000900CEAE0FCA3E0FDA3E0FEA3E0C39BFFE7
:10766000EE9AFEED99FDEC98FC900C371287F280B3
:1076700019900CEAE0FCA3E0FDA3E0FEA3E0FF907C
:107680000C371287F2E4900D54F0900B6BE070030E
:10769000027AE5147003027E9F147003027C731457
:1076A0006003027F0D900E75E0F8A3E0F9A3E0FA05
:1076B000A3E0FB900C37E0FCA3E0FDA3E0FEA3E019
:1076C000C39BF52AEE9AF529ED99F528EC98F52754
:1076D000900F36E0FCA3E0FDA3E0FEA3E0252AFF27
:1076E000EE3529FEED3528FDEC3527FC900F3612DE
:1076F00087F2AF66AE65AD64AC63AB2AAA29A92850
:10770000A827D3128757400E85662A856529856488
:1077100028856327802CAF66AE65AD64AC631287A5
:1077200049AB2AAA29A928A827C31287575013AF03
:1077300066AE65AD64AC631287498F2A8E298D28A9
:107740008C277F807EF07DFA7C02900F36E0F8A3D4
:10775000E0F9A3E0FAA3E0FBD312875740107F8043
:107760007EF07DFA7C02900F361287F2802A7F80AD
:107770007E0F7D057CFD900F36E0F8A3E0F9A3E0D5
:10778000FAA3E0FBC3128757500E7F807E0F7D0562
:107790007CFD900F361287F2E4F532F531F530F5C5
:1077A0002FFFFEFDFCAB5AAA59A958A857C3128750
:1077B000576026AF2AAE29AD28AC27A85712861FDE
:1077C000780D128791E5322FF532E5313EF531E53E
:1077D000303DF530E52F3CF52FE4FFFEFDFCAB5EC0
:1077E000AA5DA95CA85BC3128757602C900F36E096
:1077F000FCA3E0FDA3E0FEA3E0FFA85B12861F78D8
:107800000D128791E5322FF532E5313EF531E53045
:107810003DF530E52F3CF52FE4FFFEFDFCAB62AA01
:1078200061A960A85FC31287576043900F3EE0F8DC
:10783000A3E0F9A3E0FAA3E0FBC3E52A9BFFE52957
:107840009AFEE52899FDE52798FCAB62AA61A9603C
:10785000A85F12861F780D128791E5322FF532E569
:10786000313EF531E5303DF530E52F3CF52FAF2ABF
:10787000AE29AD28AC27900F3E1287F2900C50E055
:10788000FCA3E0FDA3E0FEA3E02532F532EE3531A6
:10789000F531ED3530F530EC352FF52FE4FFFEFDF9
:1078A000FCAB32AA31A930A82FC31287574004D2AB
:1078B000118002C211900BA0E0FEA3E0FFEE339511
:1078C000E0FDFCAB32AA31A930A82FD31287574074
:1078D00016900BA0E0FEA3E0FFEE3395E08F328E12
:1078E00031F530F52F803C900BA0E0FEA3E0FFC304
:1078F000E49FFFE49EFE3395E0FDFCAB32AA31A984
:1079000030A82FC3128757501A900BA0E0FEA3E0B7
:10791000FFC3E49FFFE49EFE3395E08F328E31F586
:1079200030F52F900E81E0F8A3E0F9A3E0FAA3E090
:10793000FBC3E5329BF52EE5319AF52DE53099F53F
:107940002CE52F98F52B900F3AE0FCA3E0FDA3E087
:10795000FEA3E0252EFFEE352DFEED352CFDEC359A
:107960002BFC900F3A1287F27FA07E867D017C006F
:10797000900F3AE0F8A3E0F9A3E0FAA3E0FBD312FA
:10798000875740107FA07E867D017C00900F3A12C1
:1079900087F2802A7F607E797DFE7CFF900F3AE03F
:1079A000F8A3E0F9A3E0FAA3E0FBC3128757500E57
:1079B0007F607E797DFE7CFF900F3A1287F2E4F5BE
:1079C00026F525F524F523FFFEFDFCAB6AAA69A97F
:1079D00068A867C31287576026AF2EAE2DAD2CACBA
:1079E0002BA86712861F780D128791E5262FF526A2
:1079F000E5253EF525E5243DF524E5233CF523E486
:107A0000FFFEFDFCAB6EAA6DA96CA86BC312875775
:107A1000602C900F3AE0FCA3E0FDA3E0FEA3E0FFA2
:107A2000A86B12861F780D128791E5262FF526E5A3
:107A3000253EF525E5243DF524E5233CF523E4FF2B
:107A4000FEFDFCAB72AA71A970A86FC312875760C4
:107A500043900F42E0F8A3E0F9A3E0FAA3E0FBC3F0
:107A6000E52E9BFFE52D9AFEE52C99FDE52B98FC74
:107A7000AB72AA71A970A86F12861F780D12879138
:107A8000E5262FF526E5253EF525E5243DF524E5FB
:107A9000233CF52374FF7F9CFEFDFCAB26AA25A9A1
:107AA00024A823C3128757500D74FF75269CF52513
:107AB000F524F523801EE47F64FEFDFCAB26AA2599
:107AC000A924A823D3128757400AE4752664F52514
:107AD000F524F523AF2EAE2DAD2CAC2B900F42121A
:107AE00087F2027F0D900E75E0F8A3E0F9A3E0FAAB
:107AF000A3E0FB900C37E0FCA3E0FDA3E0FEA3E0D5
:107B0000C39BF52AEE9AF529ED99F528EC98F5270F
:107B1000900F36E0FCA3E0FDA3E0FEA3E0252AFFE2
:107B2000EE3529FEED3528FDEC3527FC900F361299
:107B300087F2E47FE87E03FDFC900F36E0F8A3E0D7
:107B4000F9A3E0FAA3E0FBD3128757400FE47FE8E4
:107B50007E03FDFC900F361287F2802A7F187EFC90
:107B60007DFF7CFF900F36E0F8A3E0F9A3E0FAA3D5
:107B7000E0FBC3128757500E7F187EFC7DFF7CFF11
:107B8000900F361287F2E4FFFEFDFCAB42AA41A93A
:107B900040A83FC3128757601AAF2AAE29AD28AC60
:107BA00027A83F12861F78101287918F268E258D69
:107BB000248C23E4FFFEFDFCAB46AA45A944A84360
:107BC000C3128757602C900F36E0FCA3E0FDA3E0C2
:107BD000FEA3E0FFA84312861F7810128791E526C6
:107BE0002FF526E5253EF525E5243DF524E5233C46
:107BF000F523E4FFFEFDFCAB4AAA49A948A847C308
:107C00001287576043900F3EE0F8A3E0F9A3E0FA33
:107C1000A3E0FBC3E52A9BFFE5299AFEE52899FD31
:107C2000E52798FCAB4AAA49A948A84712861F78BD
:107C300010128791E5262FF526E5253EF525E5244A
:107C40003DF524E5233CF523AF2AAE29AD28AC272A
:107C5000900F3E1287F2E4FFFEFDFCAB26AA25A999
:107C600024A823D31287574005D211027F0DC211D9
:107C7000027F0D900C4FE07003027F0D2010030275
:107C80007F0D900C3FE0FCA3E0FDA3E0FEA3E0F538
:107C9000328E318D308C2F900BA0E0FEA3E0FFEEF2
:107CA0003395E0FDFCAB32AA31A930A82FD312875F
:107CB000574016900BA0E0FEA3E0FFEE3395E08F57
:107CC000328E31F530F52F803C900BA0E0FEA3E022
:107CD000FFC3E49FFFE49EFE3395E0FDFCAB32AAB8
:107CE00031A930A82FC3128757501A900BA0E0FE7D
:107CF000A3E0FFC3E49FFFE49EFE3395E08F328E46
:107D000031F530F52F900E81E0F8A3E0F9A3E0FA09
:107D1000A3E0FBC3E5329BF52EE5319AF52DE53066
:107D200099F52CE52F98F52B900F3AE0FCA3E0FD98
:107D3000A3E0FEA3E0252EFFEE352DFEED352CFD54
:107D4000EC352BFC900F3A1287F27FA07E867D01E6
:107D50007C00900F3AE0F8A3E0F9A3E0FAA3E0FB7F
:107D6000D312875740107FA07E867D017C00900F44
:107D70003A1287F2802A7F607E797DFE7CFF900F29
:107D80003AE0F8A3E0F9A3E0FAA3E0FBC3128757B7
:107D9000500E7F607E797DFE7CFF900F3A1287F255
:107DA000E4F526F525F524F523FFFEFDFCAB4EAAF0
:107DB0004DA94CA84BC31287576026AF2EAE2DADF0
:107DC0002CAC2BA84B12861F7810128791E5262F1A
:107DD000F526E5253EF525E5243DF524E5233CF58E
:107DE00023E4FFFEFDFCAB52AA51A950A84FC312D9
:107DF0008757602C900F3AE0FCA3E0FDA3E0FEA3C0
:107E0000E0FFA84F12861F7810128791E5262FF504
:107E100026E5253EF525E5243DF524E5233CF5231F
:107E2000E4FFFEFDFCAB56AA55A954A853C3128724
:107E3000576043900F42E0F8A3E0F9A3E0FAA3E013
:107E4000FBC3E52E9BFFE52D9AFEE52C99FDE52B66
:107E500098FCAB56AA55A954A85312861F78101245
:107E60008791E5262FF526E5253EF525E5243DF508
:107E700024E5233CF523AF2EAE2DAD2CAC2B900F7B
:107E8000421287F2E4FFFEFDFCAB26AA25A924A836
:107E900023C31287574004D2118072C211806E90A2
:107EA0000C47E0FCA3E0FDA3E0FEA3E0F5268E2551
:107EB0008D248C23E4FFFEFDFCAB26AA25A924A873
:107EC00023D31287574004D2118002C21174FF7F5E
:107ED0009CFEFDFCAB26AA25A924A823C312875724
:107EE000500D74FF75269CF525F524F523801EE4BE
:107EF0007F64FEFDFCAB26AA25A924A823D3128704
:107F000057400AE4752664F525F524F523E47F64DB
:107F1000FEFDFCAB26AA25A924A823D3128757402F
:107F20000AE4752664F525F524F52374FF7F9CFE8D
:107F3000FDFCAB26AA25A924A823C3128757500B02
:107F400074FF75269CF525F524F523900B6BE064F2
:107F5000016037AF26AE25AD24AC23780A1287A581
:107F6000E47B64FAF9F812E578A804A905AA06AB3F
:107F700007900EADE0FFE4FCFDFE12861F780A12AA
:107F800087918F268E258D248C23E4FFFEFDFCAB8C
:107F900026AA25A924A823C312875740047F01805D
:107FA000027FFF900E70EFF03011077F0112F24355
:107FB0008005E4FF12F243AE25AF2612F0ED12F277
:107FC0002B22028383E86480F8E933E833601104EC
:107FD00060F0ED33EC337009E8FCE9FDEAFEEBFFFD
:107FE000220460DED3EB9FEA9EE99DE8C2E78CF0B5
:107FF000C2F795F0400CE8CCF8E9CDF9EACEFAEBFF
:10800000CFFB12834E85D0F05804700320D5B3E81F
:108010000470075002B2D502838D92D5EC0460F74C
:10802000E4CCC0E0C398F8603B94186008400DD0E1
:10803000E0FB028365E4FBFAC9FC8028E830E40633
:10804000E4C9FBE4CAFCE830E305E4C9CACBFCE8B8
:1080500054076010F8C3E913F9EA13FAEB13FBECC9
:1080600013FCD8F130F52FC3E49CFCEF9BFFEE9A94
:10807000FEED99FDD0E0FBEF4E4D4C701222DB037C
:1080800002838AEC2CFCEF33FFEE33FEED33FDED83
:1080900030E7EB028365EF2BFFEE3AFEED39FDD0C2
:1080A000E0FB50130BBB000302838DED13FDEE13B9
:1080B000FEEF13FFEC13FC028365EC4D6011E84901
:1080C0007017ED33EC3304600DE4FCFFFEFD22E994
:1080D00033E8330470F802838312834E5804600936
:1080E000E4CC2481500628500902838D28400302E5
:1080F000838AC0E0EB4A7044B98006D0E0FB02837B
:1081000079EF4E701CBD8008EBFFEAFEE9FD80EBC5
:10811000E98DF0A4FEE5F00281A3E9CDF9EAFEEBDA
:10812000FFEF89F0A4FCE5F0CE89F0A42EFFE43542
:10813000F0CD89F0A42DFEE435F08067EF4E700598
:10814000BD80D780C3EF8BF0A4ACF0EE8BF0A42CF5
:10815000FCE435F0F8EF8AF0A42CE5F038FCE433C9
:10816000CB8DF0A42CFCE5F03BF8EE8AF0A42CFCBF
:10817000E5F038F8E433CF89F0A42CFCE5F038CFF3
:108180003400CE89F0A42FFFE5F03EFEE433C98D24
:10819000F0A42EFEE5F039CD8AF0A42FFFE5F03EE5
:1081A000FEE43DFD33D0E0FB50070BBB000F028324
:1081B0008DEC2CFCEF33FFEE33FEED33FD028365D7
:1081C00002838DEC5D046005E8590470030283832B
:1081D00012834E580460F6EC4860F2EC7004FDFE29
:1081E000FF22C860DB2481C85009C3986002500692
:1081F00002838A9850CAF582E9294B4A7005AB82FE
:1082000002837975F0007C1A7880C3EF9BEE9AEDBB
:1082100099400DC3EF9BFFEE9AFEED99FDE842F009
:10822000DC23ACF0D0E0FFD0E0FED0E0FDAB82205C
:10823000E7101BEB60BAEC2CFCEF33FFEE33FEEDE6
:1082400033FD028365E803F830E705C0F075F00000
:10825000EF2FFFEE33FEED33FD40B830E7C280AACA
:1082600074F8CC6480CCC86480C8F58204604FC3C5
:10827000EB9FF5F0EA9E42F0E99D42F0E89C45F064
:10828000603C501DE5825FFFE582D313CB5BCBF4EE
:108290002B5582FB50280ABA002409B90020088017
:1082A0001DE5825BFBE582D313CF5FCFF4C3132FB1
:1082B0005582FF50090EBE00050DBD00010CC3EB39
:1082C0009FF5F0EA9E42F0E99D42F0E89C45F0609F
:1082D00007CC4820E701B3EC2275F020800E75F042
:1082E00010800575F0087D007E007F003392D53048
:1082F000D503128749EC334010EF33FFEE33FEED28
:1083000033FDEC33FCD5F0ED22E5F0247EA2D5134D
:10831000CC92E7CDCEFF22EDD2E7CD33EC3392D530
:1083200024814006E4FFFEFDFC22FCE4CFCECDCC50
:1083300024E0501174FF80EDC3CC13CCCD13CDCE0F
:1083400013CECF13CF0470F030D5DE028749E9D2C7
:10835000E7C933E833F892D5EDD2E7CD33EC33FCFF
:108360005002B2D522EC30E7100FBF000C0EBE0059
:10837000080DBD00040BEB6014A2D5EB13FCED92CD
:10838000E7FD2274FFFCFDFEFF22E480F8A2D57415
:10839000FF13FC7D80E480EFF920E73624F95003D9
:1083A0007907E4F42402FBE582158270021583DB71
:1083B000F6E024FB501BE96014E4F0E582158270BE
:1083C000021583E004F0B40A08E4F0D9EE7401F079
:1083D0000A22C2D522ED33EC3392D5FA602AB4FFDB
:1083E00033EDC2E77BFF60067A8379FAE4227A8470
:1083F000790320D5047A8379FE224E614E002B4901
:108400004E46002D494E4600E47A08F0A3DAFC7B84
:1084100000740722C083C082ECC0E0EDC0E0EEC073
:10842000E0EFC0E0EA75F010A4CAABF075F04DA41F
:108430002BFBE435F0FCEA2410FAEB34C5FBEC34FA
:10844000D9FCEDC2E7FF75F056A4F42411C5F0F491
:1084500034C58FF0A42AE5F03BE43CF020E7141289
:10846000850AD0E0FFD0E0FED0E0FDD0E0FC128134
:10847000C38014F40412850AD0E0FFD0E0FED0E0FF
:10848000FDD0E0FC1280BAD082D083E0FAEDD2E7D2
:10849000CD33EC332482FBE4C3CF33CFCE33CECD08
:1084A00033CD33DBF37B0775F00A846004F0A31B44
:1084B0000AE5F0F0A38FF0740AA4FFACF08EF0741C
:1084C0000AA42CFEACF050010C8DF0740AA42CFD13
:1084D000E435F0F0A3DBDE7407223F80000041208A
:1084E000000042C80000447A0000461C400047C318
:1084F0005000497424004B1896804CBEBC205A0E84
:108500001BCA6753C21C749DC5AEFB60065407604E
:108510001C2323128538EB543860091285241285F8
:10852000331280BAECF8EDF9EEFAEFCB22EB1285BC
:108530003380F1543803241C9084DAFE93FC0EEE51
:1085400093FD0EEE930ECE93FF22BB010689828A25
:1085500083E0225002E722BBFE02E32289828A8363
:10856000E49322BB010CE58229F582E5833AF58389
:10857000E0225006E92582F8E622BBFE06E92582C4
:10858000F8E222E58229F582E5833AF583E4932235
:10859000BB010689828A83F0225002F722BBFE01CA
:1085A000F322EF8DF0A4A8F0CF8CF0A428CE8DF0AC
:1085B000A42EFE22C2D5EC30E709B2D5E4C39DFD5E
:1085C000E49CFCEE30E715B2D5E4C39FFFE49EFEC9
:1085D000128A4CC3E49DFDE49CFC8003128A4C305B
:1085E000D507C3E49FFFE49EFE22C5F0F8A3E02870
:1085F000F0C5F0F8E582158270021583E038F022AC
:10860000BB010A89828A83F0E5F0A3F0225006F7C5
:1086100009A7F01922BBFE06F3E5F009F31922E8D9
:108620008FF0A4CC8BF0A42CFCE98EF0A42CFC8A57
:10863000F0EDA42CFCEA8EF0A4CDA8F08BF0A42DD4
:10864000CC3825F0FDE98FF0A42CCD35F0FCEB8E75
:10865000F0A4FEA9F0EB8FF0A4CFC5F02ECD39FE2B
:10866000E43CFCEAA42DCE35F0FDE43CFC2275F0A0
:1086700008758200EF2FFFEE33FECD33CDCC33CC27
:10868000C58233C5829BED9AEC99E58298400CF542
:1086900082EE9BFEED9AFDEC99FC0FD5F0D6E4CE70
:1086A000FBE4CDFAE4CCF9A88222B800C1B90059A4
:1086B000BA002DEC8BF084CFCECDFCE5F0CBF97871
:1086C00018EF2FFFEE33FEED33FDEC33FCEB33FB05
:1086D00010D703994004EB99FB0FD8E5E4F9FA228F
:1086E0007818EF2FFFEE33FEED33FDEC33FCC9338A
:1086F000C910D7059BE99A4007EC9BFCE99AF90F52
:10870000D8E0E4C9FAE4CCFB2275F010EF2FFFEEBD
:1087100033FEED33FDCC33CCC833C810D7079BEC08
:108720009AE899400AED9BFDEC9AFCE899F80FD580
:10873000F0DAE4CDFBE4CCFAE4C8F922CFF4CFCEF2
:10874000F4CECDF4CDCCF4CC22C3E49FFFE49EFE66
:10875000E49DFDE49CFC22EB9FF5F0EA9E42F0E9EB
:108760009D42F0EC6480C864809845F022EB9FF550
:10877000F0EA9E42F0E99D42F0E89C45F022E86074
:108780000FECC313FCED13FDEE13FEEF13FFD8F156
:1087900022E86010ECA2E713FCED13FDEE13FEEFF0
:1087A00013FFD8F022E8600FEFC333FFEE33FEED86
:1087B00033FDEC33FCD8F122BB010789828A8302A6
:1087C0008AC35005E9F8028AB7BBFE05E9F8028AB8
:1087D000CF89828A83028ADBBB010789828A83026E
:1087E00087F25005E9F8028AEBBBFE05E9F8028A38
:1087F000F722ECF0A3EDF0A3EEF0A3EFF022F8E007
:10880000FBA3A3E0F925F0F0E58215827002158341
:10881000E0FA38F022EBF0A3EAF0A3E9F022D083EB
:10882000D082F8E4937012740193700DA3A393F8AF
:10883000740193F5828883E4737402936860EFA3F4
:10884000A3A380DFE5122582F582E5113583F58348
:10885000B511048582122210AF06858212F511220D
:10886000858212F511D2AF22EC8EF0A4CCC5F0CCEB
:10887000CDF8EFA4CEC5F02DFDE43CFCE8A42EC855
:10888000C5F03DFDE43CFCEFA4FFE5F028FEE43D2F
:10889000FDE43CFC22E709F608DFFA8046E709F22E
:1088A00008DFFA803E88828C83E709F0A3DFFA8034
:1088B00032E309F608DFFA806EE309F208DFFA8096
:1088C0006688828C83E309F0A3DFFA805A89828A62
:1088D00083E0A3F608DFFA804E89828A83E0A3F260
:1088E00008DFFA804280D280FA80C680D48055802A
:1088F000F28029801080A680EA809A80A880DA80A1
:10890000E280CA802988848C8589828A83E493A343
:108910000586F0A30586DFF5DEF3800B89828A8366
:10892000E493A3F608DFF9ECFAA9F0EDFB228884C2
:108930008C8589828A83E0A30586F0A30586DFF60D
:10894000DEF480E389828A83E493A3F208DFF9806E
:10895000D688F0EF60010E4E60CD88F0ED2402B4B1
:10896000040050C3F582EB2402B4040050B9232361
:108970004582239088E573E709F60870FA8046E798
:1089800009F20870FA803E88828C83E709F0A370B0
:10899000FA8074E309F60870FA806CE309F2087053
:1089A000FA806488828C83E309F0A370FA80588986
:1089B000828A83E0A3F60870FA804C89828A83E079
:1089C000A3F20870FA804080D280FA80C680D480FA
:1089D0005180F28027801080A680EA809A80A8804B
:1089E000DA80E280CA802788848C8589828A83E441
:1089F00093A30586F0A3058670F5800B89828A8390
:108A0000E493A3F60870F9ECFAA9F0EDFB22888450
:108A10008C8589828A83E0A30586F0A3058670F69B
:108A200080E589828A83E493A3F20870F980D8886C
:108A3000F0ED2402B4040050CEF582EB2402B4041D
:108A40000050C423234582239089C773BC000BBE0A
:108A50000029EF8DF084FFADF022E4CCF875F0082A
:108A6000EF2FFFEE33FEEC33FCEE9DEC984005FC5F
:108A7000EE9DFE0FD5F0E9E4CEFD22EDF8F5F0EE27
:108A80008420D21CFEADF075F008EF2FFFED33FD12
:108A90004007985006D5F0F222C398FD0FD5F0EAB2
:108AA00022A3F8E0C5F025F0F0E5821582700215EA
:108AB00083E0C838F0E822E6FC08E6FD08E6FE0898
:108AC000E6FF22E0FCA3E0FDA3E0FEA3E0FF22E23C
:108AD000FC08E2FD08E2FE08E2FF22E493FC7401D8
:108AE00093FD740293FE740393FF22ECF608EDF6F7
:108AF00008EEF608EFF622ECF208EDF208EEF208C6
:108B0000EFF22212F2AFEF700A300FF7C20F12C766
:108B10009980F0900E69E0249AFF900E68E034F995
:108B2000FE3395E0FDFCE47BA07A07F9F812861F7E
:108B30007807128791900D951287F2300F05C20FBA
:108B400012C799900F7FE07003028BD320100302AD
:108B50008BD3900F85E004F07006900F84E004F052
:108B6000900F84E064037004A3E064E870657F28DC
:108B70007E23FDFC900D95E0F8A3E0F9A3E0FAA3B5
:108B8000E0FBC3128757500FE47F407E1FFDFC902F
:108B90000F801287F28037E47FC87E32FDFC900D93
:108BA00095E0F8A3E0F9A3E0FAA3E0FBC31287572E
:108BB000500FE47FE07E2EFDFC900F801287F28044
:108BC0000DE47FC07E5DFDFC900F801287F2E49083
:108BD0000F7FF0E47F587E1BFDFC900D95E0F8A31D
:108BE000E0F9A3E0FAA3E0FBD31287575003029207
:108BF0000BE47FE87E03FDFC900F86E0F8A3E0F92C
:108C0000A3E0FAA3E0FB12876D7004D210803690C7
:108C10000F86E0FCA3E0FDA3E0FEA3E02401FFE457
:108C20003EFEE43DFDE43CFC900F861287F2900D81
:108C300095E0FCA3E0FDA3E0FEA3E0FF12DBC690FD
:108C40000E711287F2900CCFE0600312D527900EC0
:108C50006BE0249AFF900E6AE034F9FE3395E0FD54
:108C6000FCE47BAB7A64F9F812861F780D128791C9
:108C7000900E70E0FD3395E0FC1285A2EE3395E096
:108C8000FDFC12D955900E811287F2900E75E0FC12
:108C9000A3E0FDA3E0FEA3E0FF900C89E0F9F81249
:108CA0008791C004C005C006C007900E94E0FCA3E5
:108CB000E0FDA3E0FEA3E0FF900C89E0F8128791AD
:108CC0009000061287F2900C37E0FCA3E0FDA3E0D1
:108CD000FEA3E0FFA80112879190000A1287F2D04C
:108CE00007D006D005D00412AD64A804A905AA06D1
:108CF000AB07900E81E0FCA3E0FDA3E0FEA3E0C380
:108D00009BFFEE9AFEED99FDEC98FC12DB49EE33E9
:108D100095E0FDFC900E851287F2300F05C20F1210
:108D2000C799900CC3E07004F50FF510E50F1470AF
:108D300003028E14147003028E2B147003028E68CB
:108D400024036003028F3E900CF9E025E0246CF5CB
:108D500082E4340EF583E0FEA3E0FFEE3395E08F6E
:108D6000268E25F524F523E4FFFEFDFCAB26AA257F
:108D7000A924A823C31287575009E4F526F525F541
:108D800024F523AF26AE25AD24AC2312D0018F26C7
:108D90008E258D248C23780A1287A5900CC4E0F8C8
:108DA000A3E0F9A3E0FAA3E0FB1286AA8F268E25A2
:108DB0008D248C23300F05C20F12C799E4FFFEFDEE
:108DC000FCAB26AA25A924A823C3128757500BE47D
