:1026000002B4E3008F828E83E0540100000070F872
:102610002278FFE4F6D8FD02B571900002EEF0A337
:10262000EFF078047C007D017BFF7A4979CE7E074C
:102630007F3B12876190073F7407F0A3743BF078EB
:10264000457C077D017BFF7A5179097E007F0F125F
:10265000876178547C077D017BFF7A5179187E0071
:102660007F1C12876178707C077D017BFF7A51792E
:10267000347E007F1B128761788B7C077D017BFF96
:102680007A51794F7E007F1C12876178A77C077D85
:10269000017BFF7A51796B7E007F2212876178C9B6
:1026A0007C077D017BFF7A51798D7E007F27128721
:1026B0006178F07C077D017BFF7A5179B47E007FE1
:1026C0001112876178017C087D017BFF7A5179C501
:1026D0007E007F19128761781A7C087D017BFF7A62
:1026E0005179DE7E007F11128761782B7C087D0195
:1026F0007BFF7A5179EF7E007F1C12876178477CDF
:10270000087D017BFF7A52790B7E007F1D12876165
:1027100078647C087D017BFF7A5279287E007F1BDC
:10272000128761787F7C087D017BFF7A5279437E36
:10273000007F1412876178937C087D017BFF7A52B9
:1027400079577E007F2512876178B87C087D017BF0
:10275000FF7A52797C7E007F1512876178CD7C08E4
:102760007D017BFF7A5279917E007F151287617817
:10277000E27C087D017BFF7A5279A67E007F1412ED
:10278000876178F67C087D017BFF7A5279BA7E00FA
:102790007F24128761781A7C097D017BFF7A527948
:1027A000DE7E007F1912876178337C097D017BFF13
:1027B0007A5279F77E007F18128761784B7C097D09
:1027C000017BFF7A53790F7E007F1F128761786A41
:1027D0007C097D017BFF7A53792E7E007F29128749
:1027E0006178937C097D017BFF7A5379577E007F66
:1027F0003012876178C37C097D017BFF7A5379872A
:102800007E007F2312876178E67C097D017BFF7A59
:102810005379AA7E007F1512876178FB7C097D01C0
:102820007BFF7A5379BF7E007F1E12876178197C07
:102830000A7D017BFF7A5379DD7E007F2612876156
:10284000783F7C0A7D017BFF7A5479037E007F63A9
:1028500012876178A27C0A7D017BFF7A5479667EBB
:10286000007F5512876178F77C0A7D017BFF7A54DF
:1028700079BB7E007F2A1287617B017A0779451236
:10288000DACE8F2C7B017A07795412DACE8F2D7B2A
:10289000017A07797012DACE8F2E7B017A0779F0F0
:1028A00012DACE8F2F7B017A08790112DACE8F30BF
:1028B0007B017A08791A12DACE8F317B017A087996
:1028C0004712DACE8F327B017A08796412DACE8F22
:1028D000337B017A08797F12DACE8F347B017A0854
:1028E00079B812DACE8F357B017A0879CD12DACE3B
:1028F0008F367B017A0879E212DACE8F377B017A44
:1029000009791A12DACE8F387B017A0979E612DA60
:10291000CE8F397B017A0A793F12DACE8F3A7B016A
:102920007A0A79A212DACE8F3B7B017A0A79F71202
:10293000DACE8F3C7B017A09794B12DACE8F3D7B60
:10294000017A09796A12DACE8F3E7B017A0979938E
:1029500012DACE8F3F7B017A0979C312DACE8F402B
:102960007B017A0979FB12DACE8F417B017A0A79F1
:102970001912DACE8F42900004740CF0A3741BF08D
:10298000900002E0FEA3E0FFEE6003023EC0EFB461
:102990001C004003023EC090299EF828287302299B
:1029A000F202392B023934023A04023AD4023AE7ED
:1029B000023AF0023AF9023B24023BA2023BDF0258
:1029C0003BE8023CBE023D44023D54023D5D023DF7
:1029D0007C023DA5023DAE023DC2023DCB023DD48C
:1029E000023E06023E1B023E4F023E5D023E970241
:1029F0003EAC9000067402F0A314F0900B2BE09014
:102A00000008F0852C2AE52A6032FFC3E52C9FFFE1
:102A1000E49400FE74452FF58274073EF583E0FFD1
:102A2000E52AFDE52CC39DFDE49400FC74092DF519
:102A30008274003CF583EFF0152A80CA9000387448
:102A400007F0A37403F0900B5EE064036068900BE2
:102A50002CE0FCA3E0FDA3E0FEA3E0FFEC1280600D
:102A6000E4FBFA79807847127F4A90003A1285D1C8
:102A7000900B30E0FCA3E0FDA3E0FEA3E0FFEC122E
:102A80008060E4FBFA79807847127F4A90003E121A
:102A900085D1900B34E0FCA3E0FDA3E0FEA3E0FFB2
:102AA000EC128060E4FBFA79807847127F4A90004C
:102AB000421285D18066900B44E0FCA3E0FDA3E0C8
:102AC000FEA3E0FFEC128060E4FBFA798078471205
:102AD0007F4A90003A1285D1900B48E0FCA3E0FDBC
:102AE000A3E0FEA3E0FFEC128060E4FBFA798078BB
:102AF00047127F4A90003E1285D1900B4CE0FCA318
:102B0000E0FDA3E0FEA3E0FFEC128060E4FBFA79B5
:102B1000807847127F4A9000421285D1852D2AE5A0
:102B20002A6032FFC3E52D9FFFE49400FE74542F0A
:102B3000F58274073EF583E0FFE52AFDE52DC39D90
:102B4000FDE49400FC74462DF58274003CF583EF9F
:102B5000F0152A80CA90006A7407F0A37403F090FD
:102B60000B5EE064036068900B38E0FCA3E0FDA31B
:102B7000E0FEA3E0FFEC128060E4FBFA7980784786
:102B8000127F4A90006C1285D1900B3CE0FCA3E0D0
:102B9000FDA3E0FEA3E0FFEC128060E4FBFA798085
:102BA0007847127F4A9000701285D1900B40E0FC6C
:102BB000A3E0FDA3E0FEA3E0FFEC128060E4FBFADB
:102BC00079807847127F4A9000741285D180669090
:102BD0000B50E0FCA3E0FDA3E0FEA3E0FFEC1280BD
:102BE00060E4FBFA79807847127F4A90006C128586
:102BF000D1900B54E0FCA3E0FDA3E0FEA3E0FFECCA
:102C0000128060E4FBFA79807847127F4A90007066
:102C10001285D1900B58E0FCA3E0FDA3E0FEA3E0F9
:102C2000FFEC128060E4FBFA79807847127F4A90CB
:102C300000741285D1852E2AE52A6032FFC3E52E65
:102C40009FFFE49400FE74702FF58274073EF583B5
:102C5000E0FFE52AFDE52EC39DFDE49400FC7478B9
:102C60002DF58274003CF583EFF0152A80CAE490BC
:102C7000009CF0A304F0900B5CE090009EF0900BA1
:102C80005C601C900B2474FFF0A3743EF0A374C12D
:102C9000F07B017A07798B12CD9C752B1C801A90E2
:102CA0000B2474FFF0A3743EF0A374C7F07B017A89
:102CB00007798B12CD9C752B1B852B2AE52A603258
:102CC000FFC3E52B9FFFE49400FE748B2FF5827405
:102CD000073EF583E0FFE52AFDE52BC39DFDE49467
:102CE00000FC749F2DF58274003CF583EFF0152AEB
:102CF00080CA749F252BF582E43400F5837403F0B9
:102D0000E49000CEF0A304F0900B5DE09000D0F0D2
:102D1000900B5D14603314604C14606514607E1475
:102D20007003022DB924056003022DD3900B247487
:102D3000FFF0A3743EF0A374CCF07B017A0779A76F
:102D400012CD9C752B14022DD3900B2474FFF0A38D
:102D5000743EF0A374D2F07B017A0779A712CD9C60
:102D6000752B17806E900B2474FFF0A3743EF0A3B4
:102D700074DBF07B017A0779A712CD9C752B21803B
:102D800052900B2474FFF0A3743EF0A374EEF07B1A
:102D9000017A0779A712CD9C752B1D8036900B24E4
:102DA00074FFF0A3743EF0A374FDF07B017A077901
:102DB000A712CD9C752B19801A900B2474FFF0A3D9
:102DC000743FF0A37408F07B017A0779A712CD9CB9
:102DD000752B22852B2AE52A6032FFC3E52B9FFF46
:102DE000E49400FE74A72FF58274073EF583E0FF9C
:102DF000E52AFDE52BC39DFDE49400FC74D12DF57F
:102E00008274003CF583EFF0152A80CA74D1252B1B
:102E1000F582E43400F5837401F0E4900100F0A33E
:102E200004F0900B5EE0900102F0900B5E14602CB9
:102E300014604514605E14607724046003022ECA97
:102E4000900B2474FFF0A3743FF0A3741CF07B017B
:102E50007A0779C912CD9C752B1B806E900B247458
:102E6000FFF0A3743FF0A37427F07B017A0779C9C0
:102E700012CD9C752B168052900B2474FFF0A37416
:102E80003FF0A3742DF07B017A0779C912CD9C75B0
:102E90002B1A8036900B2474FFF0A3743FF0A374B8
:102EA00037F07B017A0779C912CD9C752B27801AE0
:102EB000900B2474FFF0A3743FF0A3744EF07B01D9
:102EC0007A0779C912CD9C752B23852B2AE52A60B8
:102ED00032FFC3E52B9FFFE49400FE74C92FF582F7
:102EE00074073EF583E0FFE52AFDE52BC39DFDE475
:102EF0009400FC74032DF58274013CF583EFF0150A
:102F00002A80CA7403252BF582E43401F583740208
:102F1000F0900132F0A304F0E4F52AE52AC394030B
:102F2000501E745F252AF582E4340BF583E0FF74AC
:102F300034252AF582E43401F583EFF0052A80DB9D
:102F4000852F2AE52A6032FFC3E52F9FFFE4940016
:102F5000FE74F02FF58274073EF583E0FFE52AFD4D
:102F6000E52FC39DFDE49400FC74372DF5827401B8
:102F70003CF583EFF0152A80CA9001647403F0A336
:102F8000F0E4F52AE52AC394035044E52A25E02518
:102F9000E02462F582E4340BF583E0FCA3E0FDA3BA
:102FA000E0FEA3E0FF745F252AF582E4340BF5838D
:102FB000E0F9F812854475F002E52AA42466F5824A
:102FC000E5F03401F583EEF0A3EFF0052A80B58536
:102FD000302AE52A6032FFC3E5309FFFE49400FE0B
:102FE00074012FF58274083EF583E0FFE52AFDE5C4
:102FF00030C39DFDE49400FC746C2DF58274013C9B
:10300000F583EFF0152A80CA9001967407F0A37437
:1030100003F0E4F52AE52AC394035031E52A25E0BC
:1030200025E0246EF582E4340BF583E0FCA3E0FD9B
:10303000A3E0FEA3E0FF75F004E52AA42498F5823E
:10304000E5F03401F5831285D1052A80C885312A3F
:10305000E52A6032FFC3E5319FFFE49400FE741A55
:103060002FF58274083EF583E0FFE52AFDE531C3C4
:103070009DFDE49400FC74A42DF58274013CF5835D
:10308000EFF0152A80CAE49001C8F0A304F0900B79
:103090007AE09001CAF0900B7A601C900B2474FFC8
:1030A000F0A3743EF0A374C1F07B017A08792B126F
:1030B000CD9C752B1C801A900B2474FFF0A3743EDA
:1030C000F0A374C7F07B017A08792B12CD9C752B85
:1030D0001B852B2AE52A6032FFC3E52B9FFFE49472
:1030E00000FE742B2FF58274083EF583E0FFE52A7D
:1030F000FDE52BC39DFDE49400FC74CB2DF582749B
:10310000013CF583EFF0152A80CA74CB252BF5829C
:10311000E43401F5837403F09001FA7405F0A374AC
:1031200002F0E4F52AE52AC3940140030231B0E538
:103130002A25E025E0247BF582E4340BF583E0FCCE
:10314000A3E0FDA3E0FEA3E0FF745F252AF582E47F
:10315000340BF583E0F9F812854475F008E52AA4EC
:1031600024FCF582E5F03401F5831285D1E52A25AA
:10317000E025E02483F582E4340BF583E0FCA3E052
:10318000FDA3E0FEA3E0FF745F252AF582E4340B83
:10319000F583E0F9F812854475F008E52AA42400C7
:1031A000F582E5F03402F5831285D1052A02312536
:1031B00085322AE52A6032FFC3E5329FFFE494009E
:1031C000FE74472FF58274083EF583E0FFE52AFD83
:1031D000E532C39DFDE49400FC74042DF582740275
:1031E0003CF583EFF0152A80CA90022C7405F0A3F9
:1031F0007402F0900B8FE0FCA3E0FDA3E0FEA3E0DF
:10320000FF90022E1285D1900B8BE0FCA3E0FDA372
:10321000E0FEA3E0FF9002321285D185332AE52A31
:103220006032FFC3E5339FFFE49400FE74642FF522
:103230008274083EF583E0FFE52AFDE533C39DFD7A
:10324000E49400FC74362DF58274023CF583EFF0B3
:10325000152A80CA90025E7403F0A37401F0900BEB
:1032600093E0FFA3E0900260CFF0A3EFF085342A53
:10327000E52A6032FFC3E5349FFFE49400FE747FCB
:103280002FF58274083EF583E0FFE52AFDE534C39F
:103290009DFDE49400FC74622DF58274023CF5837C
:1032A000EFF0152A80CAE4900290F0A304F0900B8E
:1032B00099E0900292F0900B99601C900B2474FF9F
:1032C000F0A3743EF0A374C1F07B017A08799312E5
:1032D000CD9C752B25801A900B2474FFF0A3743EAF
:1032E000F0A374C7F07B017A08799312CD9C752BFB
:1032F00024852B2AE52A6032FFC3E52B9FFFE49447
:1033000000FE74932FF58274083EF583E0FFE52AF2
:10331000FDE52BC39DFDE49400FC74932DF58274B0
:10332000023CF583EFF0152A80CA7493252BF582B1
:10333000E43402F5837403F09002C204F0A3740233
:10334000F0900B95E0FFA3E09002C4CFF0A3EFF064
:10335000900B97E0FFA3E09002C6CFF0A3EFF085BB
:10336000352AE52A6032FFC3E5359FFFE49400FE6D
:1033700074B82FF58274083EF583E0FFE52AFDE579
:1033800035C39DFDE49400FC74C82DF58274023CA5
:10339000F583EFF0152A80CA9002F47406F0A37446
:1033A00002F0900B9AE0FCA3E0FDA3E0FEA3E0FF97
:1033B0009002F61285D1900B9EE0FCA3E0FDA3E005
:1033C000FEA3E0FF9002FA1285D185362AE52A6035
:1033D00032FFC3E5369FFFE49400FE74CD2FF582E3
:1033E00074083EF583E0FFE52AFDE536C39DFDE464
:1033F0009400FC74FE2DF58274023CF583EFF01509
:103400002A80CA9003267402F0A314F0900BA2E065
:10341000900328F085372AE52A6032FFC3E5379FFD
:10342000FFE49400FE74E22FF58274083EF583E019
:10343000FFE52AFDE537C39DFDE49400FC74292DCA
:10344000F58274033CF583EFF0152A80CAE49003FB
:1034500058F0A304F0900BA3E090035AF0900BA354
:10346000601C900B2474FFF0A3743EF0A374C1F0B1
:103470007B017A0879F612CD9C752B24801A900B6B
:103480002474FFF0A3743EF0A374C7F07B017A08A4
:1034900079F612CD9C752B23852B2AE52A6032FF05
:1034A000C3E52B9FFFE49400FE74F62FF5827408A9
:1034B0003EF583E0FFE52AFDE52BC39DFDE4940086
:1034C000FC745B2DF58274033CF583EFF0152A80C4
:1034D000CA745B252BF582E43403F5837403F09002
:1034E000038A7401F0A3F0900BA4E090038CF085A4
:1034F000382AE52A6032FFC3E5389FFFE49400FED6
:10350000741A2FF58274093EF583E0FFE52AFDE584
:1035100038C39DFDE49400FC748D2DF58274033C4A
:10352000F583EFF0152A80CAE49003BCF0A304F001
:10353000900BA5E09003BEF0900BA5601C900B24AF
:1035400074FFF0A3743EF0A374C1F07B017A097993
:103550003312CD9C752B18801A900B2474FFF0A3A6
:10356000743EF0A374C7F07B017A09793312CD9CC5
:10357000752B17852B2AE52A6032FFC3E52B9FFFA9
:10358000E49400FE74332FF58274093EF583E0FF66
:10359000E52AFDE52BC39DFDE49400FC74BF2DF5E9
:1035A0008274033CF583EFF0152A80CA74BF252B83
:1035B000F582E43403F5837403F09003EE7405F0B0
:1035C000A37401F0900CBCE0FCA3E0FDA3E0FEA31B
:1035D000E0FF745F252AF582E4340BF583E0F9F807
:1035E0001285449003F01285D1853D2AE52A603288
:1035F000FFC3E53D9FFFE49400FE744B2FF58274FA
:10360000093EF583E0FFE52AFDE53DC39DFDE49419
:1036100000FC74F42DF58274033CF583EFF0152A59
:1036200080CA9004207407F0A37401F0900D84E028
:10363000FCA3E0FDA3E0FEA3E0FF9004221285D1ED
:10364000853E2AE52A6032FFC3E53E9FFFE49400F1
:10365000FE746A2FF58274093EF583E0FFE52AFDCA
:10366000E53EC39DFDE49400FC74262DF5827404B0
:103670003CF583EFF0152A80CA9004527406F0A33B
:103680007401F07B407A42790F7800900D80E0FC65
:10369000A3E0FDA3E0FEA3E0FF12845D90045412BA
:1036A00085D1853F2AE52A6032FFC3E53F9FFFE4CD
:1036B0009400FE74932FF58274093EF583E0FFE5D4
:1036C0002AFDE53FC39DFDE49400FC74582DF5826E
:1036D00074043CF583EFF0152A80CA9004847402C8
:1036E000F0A314F0900C83E0A3E0900486F08540F2
:1036F0002AE52A6032FFC3E5409FFFE49400FE7490
:10370000C32FF58274093EF583E0FFE52AFDE5400D
:10371000C39DFDE49400FC74872DF58274043CF590
:1037200083EFF0152A80CA9004B67407F0A314F052
:10373000E4F52AE52AC394065031E52A25E025E080
:1037400024A6F582E4340BF583E0FCA3E0FDA3E0BE
:10375000FEA3E0FF75F004E52AA424B8F582E5F0A5
:103760003404F5831285D1052A80C885392AE52AD3
:103770006032FFC3E5399FFFE49400FE74E62FF545
:103780008274093EF583E0FFE52AFDE539C39DFD1E
:10379000E49400FC74D02DF58274043CF583EFF0C2
:1037A000152A80CA9004E87407F0A37401F0900B06
:1037B000C0E0FCA3E0FDA3E0FEA3E0FF9004EA125A
:1037C00085D185412AE52A6032FFC3E5419FFFE4A8
:1037D0009400FE74FB2FF58274093EF583E0FFE54B
:1037E0002AFDE541C39DFDE49400FC74EE2DF582B5
:1037F00074043CF583EFF0152A80CA90051A74060C
:10380000F0A37401F0900BC4E0FCA3E0FDA3E0FE84
:10381000A3E0FF90051C1285D185422AE52A60327B
:10382000FFC3E5429FFFE49400FE74192FF58274F4
:103830000A3EF583E0FFE52AFDE542C39DFDE494E1
:1038400000FC74202DF58274053CF583EFF0152AF9
:1038500080CA853A2AE52A6032FFC3E53A9FFFE431
:103860009400FE743F2FF582740A3EF583E0FFE575
:103870002AFDE53AC39DFDE49400FC744C2DF582CD
:1038800074053CF583EFF0152A80CA853B2AE52AAA
:103890006032FFC3E53B9FFFE49400FE74A22FF566
:1038A00082740A3EF583E0FFE52AFDE53BC39DFDFA
:1038B000E49400FC74E22DF58274053CF583EFF08E
:1038C000152A80CA853C2AE52A6032FFC3E53C9F61
:1038D000FFE49400FE74F72FF582740A3EF583E04E
:1038E000FFE52AFDE53CC39DFDE49400FC74782DC2
:1038F000F58274063CF583EFF0152A80CA7B017AC5
:1039000000790490073FE0A3E014FD12D64390072E
:103910003FE0FCA3E0FD2403F58274003CF583EF57
:10392000F07B017A00790412C06622900CE5E090E9
:103930000BE2F022900B5EE064036064E4FFFE7D26
:10394000807C47900CE5E0F8A3E0F9A3E0FAA3E05F
:10395000FB127E4112809E900BE31285D1E4FFFEA4
:103960007D807C47900CE9E0F8A3E0F9A3E0FAA39E
:10397000E0FB127E4112809E900BE71285D1E4FF9E
:10398000FE7D807C47900CEDE0F8A3E0F9A3E0FA1F
:10399000A3E0FB127E4112809E900BEB1285D12298
:1039A000E4FFFE7D807C47900CE5E0F8A3E0F9A3FE
:1039B000E0FAA3E0FB127E4112809E900BFB128581
:1039C000D1E4FFFE7D807C47900CE9E0F8A3E0F9AC
:1039D000A3E0FAA3E0FB127E4112809E900BFF123F
:1039E00085D1E4FFFE7D807C47900CEDE0F8A3E0FC
:1039F000F9A3E0FAA3E0FB127E4112809E900C0333
:103A00001285D122900B5EE064036064E4FFFE7DCA
:103A1000807C47900CE5E0F8A3E0F9A3E0FAA3E08E
:103A2000FB127E4112809E900BEF1285D1E4FFFEC7
:103A30007D807C47900CE9E0F8A3E0F9A3E0FAA3CD
:103A4000E0FB127E4112809E900BF31285D1E4FFC1
:103A5000FE7D807C47900CEDE0F8A3E0F9A3E0FA4E
:103A6000A3E0FB127E4112809E900BF71285D122BB
:103A7000E4FFFE7D807C47900CE5E0F8A3E0F9A32D
:103A8000E0FAA3E0FB127E4112809E900C071285A3
:103A9000D1E4FFFE7D807C47900CE9E0F8A3E0F9DB
:103AA000A3E0FAA3E0FB127E4112809E900C0B1261
:103AB00085D1E4FFFE7D807C47900CEDE0F8A3E02B
:103AC000F9A3E0FAA3E0FB127E4112809E900C0F56
:103AD0001285D122900CE5E06007900C137403F07E
:103AE00022E4900C13F022900CE5E0900C14F022EC
:103AF000900CE5E0900C15F022E4F52AE52AC39439
:103B0000034003023EC074E5252AF582E4340CF537
:103B100083E0FF7416252AF582E4340CF583EFF078
:103B2000052A80D8E4F52AE52AC394035071E52AD2
:103B300025E024E5F582E4340CF583E0FEA3E0FF04
:103B4000EE3395E0FDFCE52A25E025E02419F58219
:103B5000E4340CF5831285D1E52A25E025E024190B
:103B6000F582E4340CF583C083C082E0FCA3E0FD61
:103B7000A3E0FEA3E0FF7416252AF582E4340CF5D9
:103B800083E0F9F8128558D082D0831285D174B7BA
:103B9000252AF582E4340DF583E4F0052A8088D2E5
:103BA0000A22E4F52AE52AC394034003023EC0E555
:103BB0002A25E025E024E5F582E4340CF583E0FCD9
:103BC000A3E0FDA3E0FEA3E0FFE52A25E025E02435
:103BD00025F582E4340CF5831285D1052A80C69040
:103BE0000CE5E0900C31F022E4F52AE52AC39402BA
:103BF0004003023EC0E52A75F008A424E5F582E4FE
:103C0000340CF583E0FCA3E0FDA3E0FEA3E0FFE5B8
:103C10002A25E025E02432F582E4340CF583128570
:103C2000D1E52A75F008A424E9F582E4340CF58383
:103C3000E0FCA3E0FDA3E0FEA3E0FFE52A25E025EC
:103C4000E0243AF582E4340CF5831285D1E52A2587
:103C5000E025E02432F582E4340CF583C083C08291
:103C6000E0FCA3E0FDA3E0FEA3E0FF7416252AF527
:103C700082E4340CF583E0F9F8128558D082D083C1
:103C80001285D1E52A25E025E0243AF582E4340CBA
:103C9000F583C083C082E0FCA3E0FDA3E0FEA3E0C7
:103CA000FF7416252AF582E4340CF583E0F9F81246
:103CB0008558D082D0831285D1052A023BEB900C27
:103CC000E5E0FCA3E0FDA3E0FEA3E0FF90074112C6
:103CD00085D1E4FFFEFDFC900741E0F8A3E0F9A3E5
:103CE000E0FAA3E0FBD312850A5014900741E0FCF0
:103CF000A3E0FDA3E0FEA3E0FF900C461285D19067
:103D00000CE9E0FCA3E0FDA3E0FEA3E0FF90074187
:103D10001285D1E4FFFEFDFC900741E0F8A3E0F935
:103D2000A3E0FAA3E0FBC312850A5003023EC09051
:103D30000741E0FCA3E0FDA3E0FEA3E0FF900C42FE
:103D40001285D122900CE5E0FFA3E0900C4ACFF061
:103D5000A3EFF022900CE5E0900C50F022900CE5DF
:103D6000E0FFA3E0900C4CCFF0A3EFF0900CE7E065
:103D7000FFA3E0900C4ECFF0A3EFF022900CE5E013
:103D8000FCA3E0FDA3E0FEA3E0FF900C511285D15F
:103D9000900CE9E0FCA3E0FDA3E0FEA3E0FF900CA3
:103DA000551285D122900CE5E0900C59F022900C30
:103DB000E5E0FF6007900C5A7401F022E4900C5A81
:103DC000F022900CE5E0900C5BF022900CE5E09086
:103DD0000C5CF022900CE5E0FCA3E0FDA3E0FEA368
:103DE000E0FF900CBC1285D1900CBCE0FCA3E0FD80
:103DF000A3E0FEA3E0FF900C16E0F9F812855890BE
:103E00000CBC1285D122900CE5E0FCA3E0FDA3E000
:103E1000FEA3E0FF900D841285D122900CE5E0FC1A
:103E2000A3E0FDA3E0FEA3E0FF900D801285D190FA
:103E30000D80E0FCA3E0FDA3E0FEA3E0FF7B407A61
:103E400042790F78001283D2900D801285D1229092
:103E50000CE5E0FF900C83E4F0A3EFF022E4F52AF8
:103E6000E52AC394065059E52A25E025E024E5F526
:103E700082E4340CF583E0FCA3E0FDA3E0FEA3E0C4
:103E8000FFE52A25E025E0245DF582E4340CF58386
:103E90001285D1052A80C9900CE5E0FCA3E0FDA3C2
:103EA000E0FEA3E0FF900C771285D122900CE5E0B4
:103EB000FCA3E0FDA3E0FEA3E0FF900C7B1285D104
:103EC00022205945530000204E4F000020557362B8
:103ED00000002048616E646C65000020454D47205D
:103EE00070726F706F7274696F6E616C0000204544
:103EF0004D4720696E74656772616C000020454D06
:103F0000472046434653000020454D472046434640
:103F10005320416476616E636564000020506F73C6
:103F20006974696F6E00002050574D000020437582
:103F30007272656E74000020506F736974696F6EE1
:103F400020616E642043757272656E7400002048B3
:103F5000616E6420436F6D7061726169736F6E0092
:103F600000000D0A004669726D7761726520766502
:103F70007273696F6E3A200053482D50524F20766D
:103F8000362E312E30206D6F642E2048414E442055
:103F9000434F4D5041524149534F4E202B204841F1
:103FA0004E444C45002E0D0A0D0A00444556494327
:103FB0004520494E464F0D0A0049443A2025640DDC
:103FC0000A0050574D2072657363616C696E6720FB
:103FD00061637469766174696F6E3A200059455364
:103FE0000A004E4F0A0050574D204C696D69743AD3
:103FF0002025640D0A004D4F544F5220494E464F24
:104000000D0A004D6F746F72207265666572656E81
:10401000636500202D2043757272656E74733A20BB
:1040200000202D2050776D3A2000202D20506F73F6
:104030006974696F6E3A2000256420004D6F746FBB
:104040007220656E61626C65643A20005945530DBB
:104050000A004E4F0D0A000D0A4D45415355524579
:104060004D454E545320494E464F0D0A0053656E40
:10407000736F722076616C75653A0D0A00256420B5
:104080002D3E20256400566F6C7461676520286D95
:1040900056293A20256C640043757272656E74204F
:1040A000286D41293A20256C64000D0A4445564983
:1040B000434520504152414D45544552530D0A004D
:1040C00050494420436F6E74726F6C6C65723A0D88
:1040D0000A0050202D3E20256620200049202D3E3C
:1040E00020256620200044202D3E2025660D0A0054
:1040F00043757272656E742050494420436F6E742C
:10410000726F6C6C65723A0D0A005374617274754B
:10411000702061637469766174696F6E3A205945E5
:10412000530D0A0053746172747570206163746971
:10413000766174696F6E3A204E4F0D0A00496E70B9
:104140007574206D6F64653A205553420D0A00491D
:104150006E707574206D6F64653A2048616E646C92
:10416000650D0A00496E707574206D6F64653A20A4
:10417000454D472070726F706F7274696F6E616C1D
:104180000D0A00496E707574206D6F64653A2045A4
:104190004D4720696E74656772616C0D0A00496E47
:1041A000707574206D6F64653A20454D4720464315
:1041B00046530D0A00496E707574206D6F64653A40
:1041C00020454D472046434653204144560D0A00A2
:1041D000436F6E74726F6C206D6F64653A20506F20
:1041E000736974696F6E0D0A00436F6E74726F6C41
:1041F000206D6F64653A2050574D0D0A00436F6E75
:1042000074726F6C206D6F64653A204375727265CD
:104210006E740D0A00436F6E74726F6C206D6F6464
:10422000653A20506F736974696F6E20616E642007
:1042300043757272656E740D0A00436F6E74726F0F
:104240006C206D6F64653A2048616E6420436F6D29
:104250007061726169736F6E0D0A004162736F6CF9
:1042600075746520656E636F64657220706F736925
:1042700074696F6E3A205945530D0A004162736F9D
:104280006C75746520656E636F64657220706F7302
:104290006974696F6E3A204E4F0D0A004D6F746F4E
:1042A000722D48616E646C6520526174696F3A20AA
:1042B00025640D0A0053656E736F72207265736F0B
:1042C0006C7574696F6E3A0D0A004D656173757295
:1042D000656D656E74204F66667365743A0D0A00ED
:1042E0002564202D3E20256C64004D656173757238
:1042F000656D656E74204D756C7469706C6965725E
:104300003A0D0A002564202D3E2025660043757273
:1043100072656E74206C6F6F6B7570207461626C67
:10432000653A0D0A00705B305D202D20705B325DB8
:104330003A2025662C2025662C2025660A00705B15
:10434000335D202D20705B355D3A2025662C2025BD
:10435000662C2025660A00506F736974696F6E20A1
:104360006C696D6974206163746976653A202564AF
:1043700000506F736974696F6E206C696D69742089
:104380006D6F746F722025643A20696E66202D3E31
:1043900020256C64202000737570202D3E20256C34
:1043A000640D0A004D6178207374657020706F731E
:1043B00020616E64206E65673A20256420256400C4
:1043C00043757272656E74206C696D69743A20254C
:1043D0006400454D47207468726573686F6C647340
:1043E000205B30202D20313032345D3A2025752C71
:1043F00020257500454D47206D61782076616C75EC
:104400006573205B30202D20343039365D3A20250D
:104410006C752C20256C750043616C696272617447
:10442000696F6E20656E61626C65643A2059455310
:104430000D0A0043616C6962726174696F6E206578
:104440006E61626C65643A204E4F0D0A00454D471F
:10445000206D61782073706565643A20256400647E
:10446000656275673A20256C640068616E6420633C
:104470006F6D702074696D657220696E69743A2081
:10448000256C640068616E6420636F6D70207469D0
:104490006D65722061637475616C3A20256C6400EF
:1044A00068616E6420636F6D702074696D65722041
:1044B000646966663A20256C640000000000000014
:1044C00000000000000000000000000000000000EC
:1044D00000000000000000000000000000000000DC
:1044E00000000000000000000000000000000000CC
:1044F00000000000000000000000000000000000BC
:1051000000000000000000000031202D20446576E2
:105110006963652049443A0032202D20506F73693D
:1051200074696F6E20504944205B502C20492C201C
:10513000445D3A0033202D2043757272656E7420F1
:10514000504944205B502C20492C20445D3A0034C7
:10515000202D2053746172747570204163746976D8
:105160006174696F6E3A000000000035202D2049FF
:105170006E707574206D6F64653A00000000000069
:105180000000000000000000000000000036202D9C
:1051900020436F6E74726F6C206D6F64653A00000F
:1051A00000000000000000000000000000000000FF
:1051B0000000000037202D205265736F6C757469F4
:1051C0006F6E733A0038202D204D656173757265DE
:1051D0006D656E74204F6666736574733A0039208E
:1051E0002D204D756C7469706C696572733A00316D
:1051F00030202D20506F732E206C696D69742061F2
:1052000063746976653A00000000003131202D207A
:10521000506F732E206C696D697473205B696E66C4
:105220002C207375705D3A003132202D204D61784D
:10523000207374657073205B6E65672C20706F73CC
:105240005D3A003133202D2043757272656E7420F3
:105250006C696D69743A003134202D20454D47202A
:1052600063616C6962726174696F6E206F6E207326
:105270007461727475703A00000000003135202DA1
:1052800020454D47207468726573686F6C64733A8B
:10529000003136202D20454D47206D617820766104
:1052A0006C7565733A003137202D20454D47206DD0
:1052B00061782073706565643A003138202D204193
:1052C00062736F6C75746520656E636F64657220C0
:1052D000706F736974696F6E3A00000000003139B5
:1052E000202D204D6F746F722068616E646C652094
:1052F000726174696F3A003230202D2050574D2072
:1053000072657363616C696E673A00000000003279
:1053100031202D2048616E6420436F6D7061726191
:1053200069736F6E20436C6F737572653A00323229
:10533000202D2048616E6420436F6D70617261732F
:10534000696F6E20436C6F73757265205468726567
:1053500073686F6C643A003233202D2048616E64AC
:1053600020436F6D7061726169736F6E2052656169
:1053700063746976616374696F6E2054696D65202A
:105380005B7365635D3A003234202D2048616E64A2
:1053900020436F6D7061726169736F6E205265702A
:1053A00065746974696F6E733A003235202D20433D
:1053B000757272656E74206C6F6F6B75703A003227
:1053C00036202D2048616E646C65204772617370D1
:1053D0002054696D65205B7365635D3A0032372048
:1053E0002D2048616E646C65204772617370205493
:1053F00068726573686F6C6473205B7469636B7348
:105400005D3A0030202D3E205573620A31202D3E3A
:105410002048616E646C650A32202D3E20454D4760
:105420002070726F706F7274696F6E616C0A3320D6
:105430002D3E20454D4720496E74656772616C0AA8
:1054400034202D3E20454D4720464346530A352003
:105450002D3E20454D47204643465320416476610A
:105460006E6365640A0030202D3E20506F736974AE
:10547000696F6E0A31202D3E2050574D0A32202D83
:105480003E2043757272656E740A33202D3E2050A3
:105490006F736974696F6E20616E642043757272F8
:1054A000656E740A34202D3E2048616E6420436F7F
:1054B0006D7061726169736F6E0A0030202D3E203D
:1054C00044656163746976617465205B4E4F5D0A63
:1054D00031202D3E204163746976617465205B59EB
:1054E00045535D0A00900518EBF0A3EAF0A3E9F03C
:1054F000900B2BE064FA7003026AF1900518E0FB50
:10550000A3E0FAA3E0F8AC02AD037BFF7A3F796138
:1055100012883F900B2474FFF0A3743FF0A37462D1
:10552000F0900518E0FBA3E0FAA3E0F912CD9C90FF
:105530000B2474FFF0A3743FF0A37465F09005187A
:10554000E0FBA3E0FAA3E0F912CD9C900B2474FFDA
:10555000F0A3743FF0A37478F0900518E0FBA3E08B
:10556000FAA3E0F912CD9C900B2474FFF0A3743FD2
:10557000F0A374A5F0900518E0FBA3E0FAA3E0F90E
:1055800012CD9C900B2474FFF0A3743FF0A374AB76
:10559000F0900518E0FBA3E0FAA3E0F912CD9C908F
:1055A000058474FFF0A3743FF0A374B9F0900B2B43
:1055B000E0FF900587E4F0A3EFF07B017A05791D09
:1055C000129656900B247401F0A37405F0A3741D79
:1055D000F0900518E0FBA3E0FAA3E0F912CD9C904F
:1055E0000B2474FFF0A3743FF0A374C2F09005186D
:1055F000E0FBA3E0FAA3E0F912CD9C900BA5E0B488
:10560000011E900B2474FFF0A3743FF0A374DDF02F
:10561000900518E0FBA3E0FAA3E0F912CD9C801CF2
:10562000900B2474FFF0A3743FF0A374E2F0900594
:1056300018E0FBA3E0FAA3E0F912CD9C9005847476
:10564000FFF0A3743FF0A374E6F0900DDAE0FF9052
:105650000587E4F0A3EFF07B017A05791D129656D9
:10566000900B247401F0A37405F0A3741DF0900551
:1056700018E0FBA3E0FAA3E0F912CD9C900B247490
:10568000FFF0A3743FF0A37462F0900518E0FBA351
:10569000E0FAA3E0F912CD9C900B2474FFF0A37400
:1056A0003FF0A374F6F0900518E0FBA3E0FAA3E046
:1056B000F912CD9C900B2474FFF0A37440F0A374F6
:1056C00003F0900518E0FBA3E0FAA3E0F912CD9CEB
:1056D000900C15E0B4021E900B2474FFF0A37440EC
:1056E000F0A37413F0900518E0FBA3E0FAA3E0F92F
:1056F00012CD9C8041900C15E0B4011E900B2474D7
:10570000FFF0A37440F0A37421F0900518E0FBA310
:10571000E0FAA3E0F912CD9C801C900B2474FFF0FA
:10572000A37440F0A3742AF0900518E0FBA3E0FAFC
:10573000A3E0F912CD9CE490051BF0A3F0C3900503
:105740001CE0940290051BE06480948040030258A2
:10575000A1900C15E06402705F90058474FFF0A3C3
:105760007440F0A37438F090051BE0FEA3E07802CB
:10577000C333CE33CED8F924D0F582740B3EF583F3
:10578000E0A3E0A3E0FFA3E0900587CFF0A3EFF054
:105790007B017A05791D129656900B247401F0A3B3
:1057A0007405F0A3741DF0900518E0FBA3E0FAA3C4
:1057B000E0F912CD9C025890900C15E06401705EE7
:1057C00090058474FFF0A37440F0A37438F0900542
:1057D0001BE0FEA3E07802C333CE33CED8F924D841
:1057E000F582740B3EF583E0A3E0A3E0FFA3E09015
:1057F0000587CFF0A3EFF07B017A05791D1296564D
:10580000900B247401F0A37405F0A3741DF09005AF
:1058100018E0FBA3E0FAA3E0F912CD9C807290059A
:105820008474FFF0A37440F0A37438F090051BE07B
:10583000FAA3E0FBAE027802C333CE33CED8F9240C
:10584000C8F582740B3EF583E0FCA3E0FDA3E0FE07
:10585000A3E0FF745F2BF582740B3AF583E0F9F84F
:10586000128544900587EEF0A3EFF07B017A05796D
:105870001D129656900B247401F0A37405F0A374C6
:105880001DF0900518E0FBA3E0FAA3E0F912CD9C0F
:1058900090051CE004F0700690051BE004F0025730
:1058A0003D900B2474FFF0A3743FF0A37462F0905A
:1058B0000518E0FBA3E0FAA3E0F912CD9C900B24BD
:1058C00074FFF0A3743FF0A37462F0900518E0FB3E
:1058D000A3E0FAA3E0F912CD9C90058474FFF0A335
:1058E0007440F0A3743CF07B017A05791D12965642
:1058F000900BE0E054036019900B2474FFF0A37444
:1059000040F0A3744CF07B017A05791D12CD9C8088
:1059100017900B2474FFF0A37440F0A37452F07B33
:10592000017A05791D12CD9C900B247401F0A374AB
:1059300005F0A3741DF0900518E0FBA3E0FAA3E0C6
:10594000F912CD9C900B2474FFF0A37440F0A37463
:1059500057F0900518E0FBA3E0FAA3E0F912CD9C04
:10596000900B2474FFF0A37440F0A3746DF09005C5
:1059700018E0FBA3E0FAA3E0F912CD9CE490051B2C
:10598000F0A3F0C390051CE0940390051BE0648035
:1059900094804003025A4990058474FFF0A3744038
:1059A000F0A3747DF090051BE0FCA3E0FD2401FE54
:1059B000E43C900587F0A3CEF0EDAE047802C3334B
:1059C000CE33CED8F924A3F582740D3EF583E0FCE6
:1059D000A3E0FDA3E0FEA3E0FF90051BE0FAA3E037
:1059E000245FF582740B3AF583E0F9F81285449050
:1059F0000589EEF0A3EFF07B017A05791D1296562A
:105A0000900B247401F0A37405F0A3741DF09005AD
:105A100018E0FBA3E0FAA3E0F912CD9C900B2474EC
:105A2000FFF0A3743FF0A37462F0900518E0FBA3AD
:105A3000E0FAA3E0F912CD9C90051CE004F070069A
:105A400090051BE004F002598390058474FFF0A3D5
:105A50007440F0A37486F0900CC5E0FCA3E0FDA3B5
:105A6000E0FEA3E0FF9005871285D17B017A0579DE
:105A70001D129656900B247401F0A37405F0A374C4
:105A80001DF0900518E0FBA3E0FAA3E0F912CD9C0D
:105A9000900B2474FFF0A3743FF0A37462F09005A0
:105AA00018E0FBA3E0FAA3E0F912CD9C9005847402
:105AB000FFF0A37440F0A37498F0900DAFE0FCA346
:105AC000E0FDA3E0FEA3E0FF9005871285D17B01F6
:105AD0007A05791D129656900B247401F0A3740573
:105AE000F0A3741DF0900518E0FBA3E0FAA3E0F921
:105AF00012CD9C900B2474FFF0A3743FF0A374624A
:105B0000F0900518E0FBA3E0FAA3E0F912CD9C9019
:105B10000B2474FFF0A37440F0A374AAF09005184E
:105B2000E0FBA3E0FAA3E0F912CD9C900B2474FFF4
:105B3000F0A37440F0A374C0F0900518E0FBA3E05C
:105B4000FAA3E0F912CD9C900B5EE06403700302AF
:105B50005C5490058474FFF0A37440F0A374D2F0F9
:105B6000900B2CE0FCA3E0FDA3E0FEA3E0FFEC1211
:105B70008060E4FBFA79807847127F4A90058712AB
:105B800085D17B017A05791D129656900B247401FC
:105B9000F0A37405F0A3741DF0900518E0FBA3E0DA
:105BA000FAA3E0F912CD9C90058474FFF0A3744031
:105BB000F0A374DCF0900B30E0FCA3E0FDA3E0FE6A
:105BC000A3E0FFEC128060E4FBFA79807847127F53
:105BD0004A9005871285D17B017A05791D12965668
:105BE000900B247401F0A37405F0A3741DF09005CC
:105BF00018E0FBA3E0FAA3E0F912CD9C90058474B1
:105C0000FFF0A37440F0A374E6F0900B34E0FCA323
:105C1000E0FDA3E0FEA3E0FFEC128060E4FBFA7974
:105C2000807847127F4A9005871285D17B017A05DB
:105C3000791D129656900B247401F0A37405F0A3FD
:105C4000741DF0900518E0FBA3E0FAA3E0F912CD73
:105C50009C025D5390058474FFF0A37440F0A3741C
:105C6000D2F0900B44E0FCA3E0FDA3E0FEA3E0FF34
:105C7000EC128060E4FBFA79807847127F4A900545
:105C8000871285D17B017A05791D129656900B24D7
:105C90007401F0A37405F0A3741DF0900518E0FBE7
:105CA000A3E0FAA3E0F912CD9C90058474FFF0A361
:105CB0007440F0A374DCF0900B48E0FCA3E0FDA37B
:105CC000E0FEA3E0FFEC128060E4FBFA7980784705
:105CD000127F4A9005871285D17B017A05791D12C2
:105CE0009656900B247401F0A37405F0A3741DF074
:105CF000900518E0FBA3E0FAA3E0F912CD9C900513
:105D00008474FFF0A37440F0A374E6F0900B4CE0B1
:105D1000FCA3E0FDA3E0FEA3E0FFEC128060E4FB47
:105D2000FA79807847127F4A9005871285D17B01E6
:105D30007A05791D129656900B247401F0A3740510
:105D4000F0A3741DF0900518E0FBA3E0FAA3E0F9BE
:105D500012CD9C900B2474FFF0A37440F0A374F058
:105D6000F0900518E0FBA3E0FAA3E0F912CD9C90B7
:105D70000B5EE064037003025E7C90058474FFF0A8
:105D8000A37440F0A374D2F0900B38E0FCA3E0FDC4
:105D9000A3E0FEA3E0FFEC128060E4FBFA798078D8
:105DA00047127F4A9005871285D17B017A05791DBC
:105DB000129656900B247401F0A37405F0A3741D81
:105DC000F0900518E0FBA3E0FAA3E0F912CD9C9057
:105DD000058474FFF0A37440F0A374DCF0900B3CD6
:105DE000E0FCA3E0FDA3E0FEA3E0FFEC128060E492
:105DF000FBFA79807847127F4A9005871285D17B1C
:105E0000017A05791D129656900B247401F0A37443
:105E100005F0A3741DF0900518E0FBA3E0FAA3E0E1
:105E2000F912CD9C90058474FFF0A37440F0A37424
:105E3000E6F0900B40E0FCA3E0FDA3E0FEA3E0FF52
:105E4000EC128060E4FBFA79807847127F4A900573
:105E5000871285D17B017A05791D129656900B2405
:105E60007401F0A37405F0A3741DF0900518E0FB15
:105E7000A3E0FAA3E0F912CD9C025F7B9005847445
:105E8000FFF0A37440F0A374D2F0900B50E0FCA399
:105E9000E0FDA3E0FEA3E0FFEC128060E4FBFA79F2
:105EA000807847127F4A9005871285D17B017A0559
:105EB000791D129656900B247401F0A37405F0A37B
:105EC000741DF0900518E0FBA3E0FAA3E0F912CDF1
:105ED0009C90058474FFF0A37440F0A374DCF090F0
:105EE0000B54E0FCA3E0FDA3E0FEA3E0FFEC128076
:105EF00060E4FBFA79807847127F4A900587128523
:105F0000D17B017A05791D129656900B247401F00D
:105F1000A37405F0A3741DF0900518E0FBA3E0FA4C
:105F2000A3E0F912CD9C90058474FFF0A37440F0B7
:105F3000A374E6F0900B58E0FCA3E0FDA3E0FEA301
:105F4000E0FFEC128060E4FBFA79807847127F4A28
:105F50009005871285D17B017A05791D129656909E
:105F60000B247401F0A37405F0A3741DF0900518C0
:105F7000E0FBA3E0FAA3E0F912CD9C900B2474FFA0
:105F8000F0A3743FF0A37462F0900518E0FBA3E067
:105F9000FAA3E0F912CD9C900B5CE0B4031E900BC9
:105FA0002474FFF0A37441F0A3740AF0900518E084
:105FB000FBA3E0FAA3E0F912CD9C801C900B2474A3
:105FC000FFF0A37441F0A37424F0900518E0FBA344
:105FD000E0FAA3E0F912CD9C900B5DE01460381458
:105FE000605314606E1470030260711470030260D9
:105FF0008F240560030260AB900B2474FFF0A37440
:1060000041F0A3743DF0900518E0FBA3E0FAA3E093
:10601000F912CD9C0260AB900B2474FFF0A3744185
:10602000F0A3744FF0900518E0FBA3E0FAA3E0F9A9
:1060300012CD9C8076900B2474FFF0A37441F0A3E2
:106040007464F0900518E0FBA3E0FAA3E0F912CD28
:106050009C8058900B2474FFF0A37441F0A37483C8
:10606000F0900518E0FBA3E0FAA3E0F912CD9C80C4
:106070003A900B2474FFF0A37441F0A3749EF09047
:106080000518E0FBA3E0FAA3E0F912CD9C801C9078
:106090000B2474FFF0A37441F0A374B5F0900518BD
:1060A000E0FBA3E0FAA3E0F912CD9C900B5EE014B4
:1060B000602E14604914606414607F24046003023D
:1060C0006156900B2474FFF0A37441F0A374D0F0D8
:1060D000900518E0FBA3E0FAA3E0F912CD9C8076CE
:1060E000900B2474FFF0A37441F0A374E9F09005C1
:1060F00018E0FBA3E0FAA3E0F912CD9C8058900BC6
:106100002474FFF0A37441F0A374FDF0900518E02F
:10611000FBA3E0FAA3E0F912CD9C803A900B247423
:10612000FFF0A37442F0A37415F0900518E0FBA3F0
:10613000E0FAA3E0F912CD9C801C900B2474FFF0D0
:10614000A37442F0A3743AF0900518E0FBA3E0FAC0
:10615000A3E0F912CD9C900BA3E0601E900B247479
:10616000FFF0A37442F0A3745BF0900518E0FBA36A
:10617000E0FAA3E0F912CD9C801C900B2474FFF090
:10618000A37442F0A3747CF0900518E0FBA3E0FA3E
:10619000A3E0F912CD9C90058474FFF0A37442F043
:1061A000A3749CF0900BA4E0FE3395E0900587F07B
:1061B000A3CEF07B017A05791D129656900B2474BC
:1061C00001F0A37405F0A3741DF0900518E0FBA383
:1061D000E0FAA3E0F912CD9C900B2474FFF0A374B5
:1061E00042F0A374B5F0900518E0FBA3E0FAA3E039
:1061F000F912CD9CE490051BF0A3F0C390051CE0C0
:10620000940390051BE064809480400302629790A1
:10621000058474FFF0A37440F0A3747DF090051B17
:10622000E0FCA3E0FD2401FEE43C900587F0A3CE52
:10623000F0745F2DF582740B3CF583E0FF900589C7
:10624000E4F0A3EFF07B017A05791D129656900BCE
:10625000247401F0A37405F0A3741DF0900518E0F8
:10626000FBA3E0FAA3E0F912CD9C900B2474FFF09D
:10627000A3743FF0A37462F0900518E0FBA3E0FA6A
:10628000A3E0F912CD9C90051CE004F07006900587
:106290001BE004F00261FB900B2474FFF0A3744236
:1062A000F0A374CAF0900518E0FBA3E0FAA3E0F9AC
:1062B00012CD9CE490051BF0A3F0C390051CE09464
:1062C0000390051BE064809480400302637E900588
:1062D0008474FFF0A37442F0A374E0F090051BE017
:1062E000FCA3E0FD2401FEE43C900587F0A3CEF082
:1062F000EDAE047802C333CE33CED8F92462F582F2
:10630000740B3EF583E0FCA3E0FDA3E0FEA3E0FFF9
:1063100090051BE0FAA3E0245FF582740B3AF58345
:10632000E0F9F81285449005891285D17B017A0540
:10633000791D129656900B247401F0A37405F0A3F6
:10634000741DF0900518E0FBA3E0FAA3E0F912CD6C
:106350009C900B2474FFF0A3743FF0A37462F09040
:106360000518E0FBA3E0FAA3E0F912CD9C90051C10
:10637000E004F0700690051BE004F00262BA900B96
:106380002474FFF0A37442F0A374EAF0900518E0BF
:10639000FBA3E0FAA3E0F912CD9CE490051BF0A367
:1063A000F0C390051CE0940390051BE0648094808A
:1063B000400302644F90058474FFF0A37443F0A37C
:1063C0007404F090051BE0FCA3E0FD2401FEE43C16
:1063D000900587F0A3CEF0EDAE047802C333CE3340
:1063E000CED8F9246EF582740B3EF583E0FCA3E071
:1063F000FDA3E0FEA3E0FF9005891285D17B017A21
:1064000005791D129656900B247401F0A37405F0C3
:10641000A3741DF0900518E0FBA3E0FAA3E0F912C5
:10642000CD9C900B2474FFF0A3743FF0A37462F032
:10643000900518E0FBA3E0FAA3E0F912CD9C9005CB
:106440001CE004F0700690051BE004F00263A190CC
:106450000B2474FFF0A37443F0A3740DF09005189F
:10646000E0FBA3E0FAA3E0F912CD9C90058474FF51
:10647000F0A37443F0A37425F0900BA6E0FCA3E016
:10648000FDA3E0FEA3E0FF9005871285D1900BAA43
:10649000E0FCA3E0FDA3E0FEA3E0FF90058B1285E6
:1064A000D1900BAEE0FCA3E0FDA3E0FEA3E0FF90E3
:1064B000058F1285D17B017A05791D129656900BB6
:1064C000247401F0A37405F0A3741DF0900518E086
:1064D000FBA3E0FAA3E0F912CD9C90058474FFF0D1
:1064E000A37443F0A3743EF0900BB2E0FCA3E0FD74
:1064F000A3E0FEA3E0FF9005871285D1900BB6E0E4
:10650000FCA3E0FDA3E0FEA3E0FF90058B1285D184
:10651000900BBAE0FCA3E0FDA3E0FEA3E0FF900532
:106520008F1285D17B017A05791D129656900B2426
:106530007401F0A37405F0A3741DF0900518E0FB3E
:10654000A3E0FAA3E0F912CD9C900B2474FFF0A312
:10655000743FF0A37462F0900518E0FBA3E0FAA387
:10656000E0F912CD9C90058474FFF0A37443F0A36E
:106570007457F0900C31E0FF900587E4F0A3EFF042
:106580007B017A05791D129656900B247401F0A3B5
:106590007405F0A3741DF0900518E0FBA3E0FAA3C6
:1065A000E0F912CD9C900B2474FFF0A3743FF0A38C
:1065B0007462F0900518E0FBA3E0FAA3E0F912CDB5
:1065C0009CE490051BF0A3F0C390051CE09401909F
:1065D000051BE06480948040030266E090058474AB
:1065E000FFF0A37443F0A37471F090051BE0FCA3CB
:1065F000E0FD2401FEE43C900587F0A3CEF0EDAE73
:10660000047802C333CE33CED8F92432F582740C29
:106610003EF583E0FCA3E0FDA3E0FEA3E0FF9005D0
:106620001BE0FAA3E02416F582740C3AF583E0F936
:10663000F81285449005891285D17B017A05791D70
:10664000129656900B247401F0A37405F0A3741DE8
:10665000F0900518E0FBA3E0FAA3E0F912CD9C90BE
:10666000058474FFF0A37443F0A37497F090051BA6
:10667000E0FAA3E0FBAE027802C333CE33CED8F902
:10668000243AF582740C3EF583E0FCA3E0FDA3E020
:10669000FEA3E0FF74162BF582740C3AF583E0F943
:1066A000F81285449005871285D17B017A05791D02
:1066B000129656900B247401F0A37405F0A3741D78
:1066C000F0900518E0FBA3E0FAA3E0F912CD9C904E
:1066D000051CE004F0700690051BE004F00265C89C
:1066E00090058474FFF0A37443F0A374A4F0900C9D
:1066F00042E0A3E0A3E0FFA3E0900587CFF0A3EF83
:10670000F0900C46E0A3E0A3E0FFA3E0900589CF62
:10671000F0A3EFF07B017A05791D129656900B24B9
:106720007401F0A37405F0A3741DF0900518E0FB4C
:10673000A3E0FAA3E0F912CD9C900B2474FFF0A320
:10674000743FF0A37462F0900518E0FBA3E0FAA395
:10675000E0F912CD9C90058474FFF0A37443F0A37C
:1067600074C0F0900C4AE0FFA3E0900587CFF0A33F
:10677000EFF07B017A05791D129656900B24740177
:10678000F0A37405F0A3741DF0900518E0FBA3E0DE
:10679000FAA3E0F912CD9C900B2474FFF0A3743F90
:1067A000F0A37462F0900518E0FBA3E0FAA3E0F90F
:1067B00012CD9C90058474FFF0A37443F0A374D2AF
:1067C000F0900C4CE0FFA3E0900587CFF0A3EFF032
:1067D000900C4EE0FFA3E0900589CFF0A3EFF07B93
:1067E000017A05791D129656900B247401F0A3745A
:1067F00005F0A3741DF0900518E0FBA3E0FAA3E0F8
:10680000F912CD9C900B2474FFF0A3743FF0A37495
:1068100062F0900518E0FBA3E0FAA3E0F912CD9C2A
:1068200090058474FFF0A37443F0A374F4F0900C0B
:1068300051E0FCA3E0FDA3E0FEA3E0FF900587127A
:1068400085D1900C55E0FCA3E0FDA3E0FEA3E0FFA2
:1068500090058B1285D17B017A05791D1296569091
:106860000B247401F0A37405F0A3741DF0900518B7
:10687000E0FBA3E0FAA3E0F912CD9C900B2474FF97
:10688000F0A3743FF0A37462F0900518E0FBA3E05E
:10689000FAA3E0F912CD9C900C50E0601E900B24FE
:1068A00074FFF0A37444F0A37418F0900518E0FB93
:1068B000A3E0FAA3E0F912CD9C801C900B2474FF96
:1068C000F0A37444F0A37433F0900518E0FBA3E048
:1068D000FAA3E0F912CD9C90058474FFF0A37444F0
:1068E000F0A3744DF0900C59E0FF900587E4F0A3FD
:1068F000EFF07B017A05791D129656900B247401F6
:10690000F0A37405F0A3741DF0900518E0FBA3E05C
:10691000FAA3E0F912CD9C900B2474FFF0A3743F0E
:10692000F0A37462F0900518E0FBA3E0FAA3E0F98D
:1069300012CD9C90058474FFF0A37444F0A3745F9F
:10694000F0900CC1E0F8A3E0F9A3E0FAA3E0FB901B
:106950000D8CE0FCA3E0FDA3E0FEA3E0C39BFFEEF3
:106960009AFEED99FDEC98FC9005871285D17B018C
:106970007A05791D129656900B247401F0A37405C4
:10698000F0A3741DF0900518E0FBA3E0FAA3E0F972
:1069900012CD9C900B2474FFF0A3743FF0A374629B
:1069A000F0900518E0FBA3E0FAA3E0F912CD9C906B
:1069B000058474FFF0A37444F0A3746AF0900D96FC
:1069C000E0FCA3E0FDA3E0FEA3E0FF9005871285B5
:1069D000D17B017A05791D129656900B247401F033
:1069E000A37405F0A3741DF0900518E0FBA3E0FA72
:1069F000A3E0F912CD9C900B2474FFF0A3743FF038
:106A0000A37462F0900518E0FBA3E0FAA3E0F9128A
:106A1000CD9C90058474FFF0A37444F0A37484F0BB
:106A2000900D88E0FCA3E0FDA3E0FEA3E0FF90054D
:106A3000871285D17B017A05791D129656900B2419
:106A40007401F0A37405F0A3741DF0900518E0FB29
:106A5000A3E0FAA3E0F912CD9C900B2474FFF0A3FD
:106A6000743FF0A37462F0900518E0FBA3E0FAA372
:106A7000E0F912CD9C90058474FFF0A37444F0A358
:106A800074A0F0900D88E0F8A3E0F9A3E0FAA3E089
:106A9000FB900D96E0FCA3E0FDA3E0FEA3E0C39B0A
:106AA000FFEE9AFEED99FDEC98FC9005871285D1DA
:106AB0007B017A05791D129656900B247401F0A380
:106AC0007405F0A3741DF0900518E0FBA3E0FAA391
:106AD000E0F912CD9C900B2474FFF0A3743FF0A357
:106AE0007462F0900518E0FBA3E0FAA3E0F912CD80
:106AF0009C22E4F526F525F524F523900B2CE0FCEB
:106B0000A3E0FDA3E0FEA3E0F5428E418D408C3F63
:106B1000A3E0FCA3E0FDA3E0FEA3E0F5468E458DD7
:106B2000448C43A3E0FCA3E0FDA3E0FEA3E0F54A10
:106B30008E498D488C47A3E0FCA3E0FDA3E0FEA3B3
:106B4000E0F54E8E4D8D4C8C4BA3E0FCA3E0FDA3F5
:106B5000E0FEA3E0F5528E518D508C4FA3E0FCA3D4
:106B6000E0FDA3E0FEA3E0F5568E558D548C53A3B3
:106B7000E0FCA3E0FDA3E0FEA3E0F55A8E598D589A
:106B80008C57A3E0FCA3E0FDA3E0FEA3E0F55E8E3E
:106B90005D8D5C8C5BA3E0FCA3E0FDA3E0FEA3E0C5
:106BA000F5628E618D608C5FA3E0FCA3E0FDA3E045
:106BB000FEA3E0F5668E658D648C63A3E0FCA3E024
:106BC000FDA3E0FEA3E0F56A8E698D688C67A3E003
:106BD000FCA3E0FDA3E0FEA3E0F56E8E6D8D6C8C52
:106BE0006B900B95E0FEA3E0FFFBAA06E4900DBAC4
:106BF000E0FCA3E0FDA3E0FEA3E0C39BF53AEE9A20
:106C0000F539ED9400F538EC9400F537900B97E0EA
:106C1000FEA3E0FFFBAA06E4900DBEE0FCA3E0FDAE
:106C2000A3E0FEA3E0C39BF53EEE9AF53DED940094
:106C3000F53CEC9400F53B900B5DE024FE70030204
:106C40006DA7147003026E05147003026EFA1470BF
:106C50000302705D240460030271F4900BA3E060F2
:106C600024A3E0FF3395E0FEFDFC900DABE0F8A31C
:106C7000E0F9A3E0FAA3E0FB1283D28F368E358DC4
:106C8000348C338024900BA4E0FF3395E0FEFDFCB0
:106C9000900DA7E0F8A3E0F9A3E0FAA3E0FB1283CC
:106CA000D28F368E358D348C33900BC8E0F8A3E04C
:106CB000F9A3E0FAA3E0FBC3E5369BFFE5359AFEB6
:106CC000E53499FDE53398FC900B8BE0F8A3E0F9EF
:106CD000A3E0FAA3E0FBC312850A5044E4FFFEFDE3
:106CE000FC900B8BE0F8A3E0A3E0A3E0C312850ABD
:106CF000602E900BC8E0FCA3E0FDA3E0FEA3E0FF44
:106D0000900B8BE0F8A3E0A3E0A3E0EF2BFFEE3ABB
:106D1000FEED39FDEC38FC900BC81285D10271F400
:106D2000900BC8E0F8A3E0F9A3E0FAA3E0FBC3E509
:106D3000369BFFE5359AFEE53499FDE53398FC90E6
:106D40000B8FE0F8A3E0F9A3E0FAA3E0FBD31285F0
:106D50000A4043E4FFFEFDFC900B8FE0F8A3E0A3A4
:106D6000E0A3E012850A602E900BC8E0FCA3E0FDD2
:106D7000A3E0FEA3E0FF900B8FE0F8A3E0A3E0A365
:106D8000E0EF2BFFEE3AFEED39FDEC38FC900BC83E
:106D90001285D10271F4AF36AE35AD34AC33900B01
:106DA000C81285D10271F4E4FFFEFDFCAB3AAA39AA
:106DB000A938A837D312850A403D900C3AE0FCA3CD
:106DC000E0FDA3E0FEA3E0FFA8371283D2C006C017
:106DD00007900B95E0FEA3E0FFC3E49FFF74049EC1
:106DE000FEAB07FAE4F9F8D007D00612D2D7900B21
:106DF000C81285D10271F4E4FFFEFDFC900BC812AD
:106E000085D10271F4900CC9E0FCA3E0FDA3E0FE83
:106E1000A3E0FF900BC81285D1E4FFFEFDFCAB3A66
:106E2000AA39A938A837D312850A4056900C59E0E0
:106E3000FFE4FCFDFEA8371283D2E47B02FAF9F8E6
:106E40001283D2C006C007900B95E0FEA3E0FFC3FB
:106E5000E49FFF74049EFEAB07FAE4F9F8D007D074
:106E60000612D2D7900CC9E0F8A3E0F9A3E0FAA388
:106E7000E02FFFEA3EFEE93DFDE83CFC900BC81226
:106E800085D1E4FFFEFDFCAB3EAA3DA93CA83BD367
:106E900012850A50030271F4900C59E0FFE4FCFDE6
:106EA000FEA83B1283D2E47B02FAF9F81283D2C027
:106EB00006C007900B97E0FEA3E0FFC3E49FFF74BA
:106EC000049EFEAB07FAE4F9F8D007D00612D2D739
:106ED000A804A905AA06AB07900CC9E0FCA3E0FD35
:106EE000A3E0FEA3E0C39BFFEE9AFEED99FDEC98B4
:106EF000FC900BC81285D10271F4900CC9E0FCA380
:106F0000E0FDA3E0FEA3E0FF900BC81285D1900E38
:106F100073E0146048147003026FD7240260030208
:106F200071F4E4FFFEFDFCAB3AAA39A938A837D3C7
:106F300012850A4009900E737401F00271F4E4FFA7
:106F4000FEFDFCAB3EAA3DA93CA83BD312850A50EE
:106F5000030271F4900E737402F00271F4E4FFFE08
:106F6000FDFCAB3AAA39A938A837C312850A5008E4
:106F7000E4900E73F00271F4900C59E0FFE4FCFD14
:106F8000FEAB3AAA39A938A8371283D2E47B02FAB9
:106F9000F9F81283D2C006C007900B95E0FEA3E07B
:106FA000FFC3E49FFF74049EFEAB07FAE4F9F8D038
:106FB00007D00612D2D7900CC9E0F8A3E0F9A3E0FD
:106FC000FAA3E02FFFEA3EFEE93DFDE83CFC900B12
:106FD000C81285D10271F4E4FFFEFDFCAB3EAA3D70
:106FE000A93CA83BC312850A5008E4900E73F00236
:106FF00071F4900C59E0FFE4FCFDFEAB3EAA3DA904
:107000003CA83B1283D2E47B02FAF9F81283D2C087
:1070100006C007900B97E0FEA3E0FFC3E49FFF7458
:10702000049EFEAB07FAE4F9F8D007D00612D2D7D7
:10703000A804A905AA06AB07900CC9E0FCA3E0FDD3
:10704000A3E0FEA3E0C39BFFEE9AFEED99FDEC9852
:10705000FC900BC81285D10271F40271F4900CC936
:10706000E0FCA3E0FDA3E0FEA3E0FF900BC81285C7
:10707000D1900E73E0146048147003027159240219
:1070800060030271F4E4FFFEFDFCAB3AAA39A938B3
:10709000A837D312850A4009900E737401F002716B
:1070A000F4E4FFFEFDFCAB3EAA3DA93CA83BD31295
:1070B000850A50030271F4900E737402F00271F4A9
:1070C000E4FFFEFDFCAB3AAA39A938A837C3128504
:1070D0000A501BE4FFFEFDFCAB3EAA3DA93CA83BC9
:1070E000C312850A5008E4900E73F00271F4E4FFB5
:1070F000FEFDFCAB3AAA39A938A837D312850A504D
:10710000030271F4900C59E0FFE4FCFDFEA8371275
:1071100083D27802128558C006C007900B95E0FE16
:10712000A3E0FFC3E49FFF74049EFEAB07FAE4F9FB
:10713000F8D007D00612D2D7900CC9E0F8A3E0F936
:10714000A3E0FAA3E02FFFEA3EFEE93DFDE83CFCA8
:10715000900BC81285D10271F4E4FFFEFDFCAB3A3E
:10716000AA39A938A837C312850A501AE4FFFEFDD0
:10717000FCAB3EAA3DA93CA83BC312850A5007E4DC
:10718000900E73F0806EE4FFFEFDFCAB3EAA3DA9BD
:107190003CA83BD312850A405B900BA2E0FFE4FCC5
:1071A000FDFEA83B1283D27802128558C006C007A4
:1071B000900B97E0FEA3E0FFC3E49FFF74049EFEE4
:1071C000AB07FAE4F9F8D007D00612D2D7A804A981
:1071D00005AA06AB07900CC9E0FCA3E0FDA3E0FE06
:1071E000A3E0C39BFFEE9AFEED99FDEC98FC900B9B
:1071F000C81285D1900B7AE0606AA3E0FCA3E0FDA1
:10720000A3E0FEA3E0FF900BC8E0F8A3E0F9A3E041
:10721000FAA3E0FBC312850A5014900B7BE0FCA399
:10722000E0FDA3E0FEA3E0FF900BC81285D1900B18
:1072300083E0FCA3E0FDA3E0FEA3E0FF900BC8E029
:10724000F8A3E0F9A3E0FAA3E0FBD312850A401407
:10725000900B83E0FCA3E0FDA3E0FEA3E0FF900B16
:10726000C81285D1900B5EE070030276561470034D
:10727000027A121470030277E424FE7003027A8704
:10728000046003027C8A900DA3E0F8A3E0F9A3E078
:10729000FAA3E0FB900BC8E0FCA3E0FDA3E0FEA393
:1072A000E0C39BF52AEE9AF529ED99F528EC98F5BF
:1072B00027900E63E0FCA3E0FDA3E0FEA3E0252AF7
:1072C000FFEE3529FEED3528FDEC3527FC900E63E9
:1072D0001285D17F807EF07DFA7C02900E63E0F80B
:1072E000A3E0F9A3E0FAA3E0FBD312850A40107FE4
:1072F000807EF07DFA7C02900E631285D1802A7F19
:10730000807E0F7D057CFD900E63E0F8A3E0F9A37D
:10731000E0FAA3E0FBC312850A500E7F807E0F7D4A
:10732000057CFD900E631285D1E4F532F531F53020
:10733000F52FFFFEFDFCAB5AAA59A958A857C31256
:10734000850A6026AF2AAE29AD28AC27A85712833C
:10735000D27810128544E5322FF532E5313EF53111
:10736000E5303DF530E52F3CF52FE4FFFEFDFCABAD
:107370005EAA5DA95CA85BC312850A602C900E63AF
:10738000E0FCA3E0FDA3E0FEA3E0FFA85B1283D234
:107390007810128544E5322FF532E5313EF531E5BE
:1073A000303DF530E52F3CF52FE4FFFEFDFCAB62F0
:1073B000AA61A960A85FC312850A6043900E6BE0C2
:1073C000F8A3E0F9A3E0FAA3E0FBC3E52A9BFFE5FD
:1073D000299AFEE52899FDE52798FCAB62AA61A9E8
:1073E00060A85F1283D27810128544E5322FF532FF
:1073F000E5313EF531E5303DF530E52F3CF52FAF79
:107400002AAE29AD28AC27900E6B1285D1E4FFFE81
:10741000FDFCAB32AA31A930A82FC312850A400463
:10742000D20E8002C20E900B93E0FEA3E0FFEE337B
:1074300095E0FDFCAB32AA31A930A82FD312850A02
:107440004016900B93E0FEA3E0FFEE3395E08F3201
:107450008E31F530F52F803C900B93E0FEA3E0FFDA
:10746000C3E49FFFE49EFE3395E0FDFCAB32AA31FE
:10747000A930A82FC312850A501A900B93E0FEA3DF
:10748000E0FFC3E49FFFE49EFE3395E08F328E3130
:10749000F530F52F900DAFE0F8A3E0F9A3E0FAA3E3
:1074A000E0FBC3E5329BF52EE5319AF52DE53099E9
:1074B000F52CE52F98F52B900E67E0FCA3E0FDA3DB
:1074C000E0FEA3E0252EFFEE352DFEED352CFDEC84
:1074D000352BFC900E671285D17FA07E867D017CC6
:1074E00000900E67E0F8A3E0F9A3E0FAA3E0FBD375
:1074F00012850A40107FA07E867D017C00900E6779
:107500001285D1802A7F607E797DFE7CFF900E6798
:10751000E0F8A3E0F9A3E0FAA3E0FBC312850A5068
:107520000E7F607E797DFE7CFF900E671285D1E430
:10753000F526F525F524F523FFFEFDFCAB66AA65CF
:10754000A964A863C312850A6026AF2EAE2DAD2CA8
:10755000AC2BA8631283D27810128544E5262FF550
:1075600026E5253EF525E5243DF524E5233CF523D8
:10757000E4FFFEFDFCAB6AAA69A968A867C312858F
:107580000A602C900E67E0FCA3E0FDA3E0FEA3E000
:10759000FFA8671283D27810128544E5262FF526BE
:1075A000E5253EF525E5243DF524E5233CF523E4DA
:1075B000FFFEFDFCAB6EAA6DA96CA86BC312850A19
:1075C0006043900E6FE0F8A3E0F9A3E0FAA3E0FBBC
:1075D000C3E52E9BFFE52D9AFEE52C99FDE52B9842
:1075E000FCAB6EAA6DA96CA86B1283D278101285C1
:1075F00044E5262FF526E5253EF525E5243DF52431
:10760000E5233CF52374FF7F9CFEFDFCAB26AA25F9
:10761000A924A823C312850A500D74FF75269CF572
:1076200025F524F523801EE47F64FEFDFCAB26AA2D
:1076300025A924A823D312850A400AE4752664F5F7
:1076400025F524F523AF2EAE2DAD2CAC2B900E6F6F
:107650001285D1027C8A900DA3E0F8A3E0F9A3E0A3
:10766000FAA3E0FB900BC8E0FCA3E0FDA3E0FEA3BF
:10767000E0C39BF52AEE9AF529ED99F528EC98F5EB
:1076800027900E63E0FCA3E0FDA3E0FEA3E0252A23
:10769000FFEE3529FEED3528FDEC3527FC900E6315
:1076A0001285D1E47FE87E03FDFC900E63E0F8A331
:1076B000E0F9A3E0FAA3E0FBD312850A400FE47FD0
:1076C000E87E03FDFC900E631285D1802A7F187E30
:1076D000FC7DFF7CFF900E63E0F8A3E0F9A3E0FAE5
:1076E000A3E0FBC312850A500E7F187EFC7DFF7C51
:1076F000FF900E631285D1E4FFFEFDFCAB42AA4170
:10770000A940A83FC312850A601AAF2AAE29AD2846
:10771000AC27A83F1283D278101285448F268E257D
:107720008D248C23E4FFFEFDFCAB46AA45A944A8AA
:1077300043C312850A602C900E63E0FCA3E0FDA316
:10774000E0FEA3E0FFA8431283D27810128544E53F
:10775000262FF526E5253EF525E5243DF524E523F0
:107760003CF523E4FFFEFDFCAB4AAA49A948A84723
:10777000C312850A6043900E6BE0F8A3E0F9A3E022
:10778000FAA3E0FBC3E52A9BFFE5299AFEE52899C9
:10779000FDE52798FCAB4AAA49A948A8471283D21D
:1077A0007810128544E5262FF526E5253EF525E5DA
:1077B000243DF524E5233CF523AF2AAE29AD28ACC2
:1077C00027900E6B1285D1E4FFFEFDFCAB26AA25A7
:1077D000A924A823D312850A4005D20E027C8AC2AE
:1077E0000E027C8A900BE0E07003027C8A200D037D
:1077F000027C8A900BD0E0FCA3E0FDA3E0FEA3E0B6
:10780000F5328E318D308C2F900B93E0FEA3E0FF8C
:10781000EE3395E0FDFCAB32AA31A930A82FD3128C
:10782000850A4016900B93E0FEA3E0FFEE3395E04F
:107830008F328E31F530F52F803C900B93E0FEA314
:10784000E0FFC3E49FFFE49EFE3395E0FDFCAB3216
:10785000AA31A930A82FC312850A501A900B93E0C1
:10786000FEA3E0FFC3E49FFFE49EFE3395E08F326A
:107870008E31F530F52F900DAFE0F8A3E0F9A3E0DD
:10788000FAA3E0FBC3E5329BF52EE5319AF52DE531
:107890003099F52CE52F98F52B900E67E0FCA3E0CE
:1078A000FDA3E0FEA3E0252EFFEE352DFEED352CE9
:1078B000FDEC352BFC900E671285D17FA07E867D76
:1078C000017C00900E67E0F8A3E0F9A3E0FAA3E0E2
:1078D000FBD312850A40107FA07E867D017C00903C
:1078E0000E671285D1802A7F607E797DFE7CFF90B5
:1078F0000E67E0F8A3E0F9A3E0FAA3E0FBC312856A
:107900000A500E7F607E797DFE7CFF900E671285A7
:10791000D1E4F526F525F524F523FFFEFDFCAB4E5D
:10792000AA4DA94CA84BC312850A6026AF2EAE2DD6
:10793000AD2CAC2BA84B1283D27810128544E526CF
:107940002FF526E5253EF525E5243DF524E5233CE8
:10795000F523E4FFFEFDFCAB52AA51A950A84FC38A
:1079600012850A602C900E67E0FCA3E0FDA3E0FE08
:10797000A3E0FFA84F1283D27810128544E5262F8A
:10798000F526E5253EF525E5243DF524E5233CF5E2
:1079900023E4FFFEFDFCAB56AA55A954A853C3121D
:1079A000850A6043900E6FE0F8A3E0F9A3E0FAA324
:1079B000E0FBC3E52E9BFFE52D9AFEE52C99FDE546
:1079C0002B98FCAB56AA55A954A8531283D2781011
:1079D000128544E5262FF526E5253EF525E5243DCF
:1079E000F524E5233CF523AF2EAE2DAD2CAC2B902A
:1079F0000E6F1285D1E4FFFEFDFCAB26AA25A9245B
:107A0000A823C312850A4005D20E027C8AC20E0248
:107A10007C8A900BD8E0FCA3E0FDA3E0FEA3E0F598
:107A2000268E258D248C23E4FFFEFDFCAB26AA25A3
:107A3000A924A823D312850A4004D20E8002C20EC4
:107A400074FF7F9CFEFDFCAB26AA25A924A823C3B6
:107A500012850A500E74FF75269CF525F524F52332
:107A6000027C8AE47F64FEFDFCAB26AA25A924A83B
:107A700023D312850A5003027C8AE4752664F52517
:107A8000F524F523027C8A900CC0E06003027C1C84
:107A9000900DA3E0F8A3E0F9A3E0FAA3E0FB900BBC
:107AA000C8E0FCA3E0FDA3E0FEA3E0C39BF52AEE43
:107AB0009AF529ED99F528EC98F527900E63E0FCEE
:107AC000A3E0FDA3E0FEA3E0252AFFEE3529FEEDAD
:107AD0003528FDEC3527FC900E631285D1E47FE854
:107AE0007E03FDFC900E63E0F8A3E0F9A3E0FAA3A7
:107AF000E0FBD312850A400FE47FE87E03FDFC9093
:107B00000E631285D1802A7F187EFC7DFF7CFF905A
:107B10000E63E0F8A3E0F9A3E0FAA3E0FBC312854B
:107B20000A500E7F187EFC7DFF7CFF900E6312854D
:107B3000D1E4FFFEFDFCAB42AA41A940A83FC3121D
:107B4000850A601AAF2AAE29AD28AC27A83F128358
:107B5000D278101285448F268E258D248C23E4FF45
:107B6000FEFDFCAB46AA45A944A843C312850A60A2
:107B70002C900E63E0FCA3E0FDA3E0FEA3E0FFA8D1
:107B8000431283D27810128544E5262FF526E52589
:107B90003EF525E5243DF524E5233CF523E4FFFEF1
:107BA000FDFCAB4AAA49A948A847C312850A60430D
:107BB000900E6BE0F8A3E0F9A3E0FAA3E0FBC3E5C5
:107BC0002A9BFFE5299AFEE52899FDE52798FCAB5D
:107BD0004AAA49A948A8471283D27810128544E5D9
:107BE000262FF526E5253EF525E5243DF524E5235C
:107BF0003CF523AF2AAE29AD28AC27900E6B128539
:107C0000D1E4FFFEFDFCAB26AA25A924A823D312AC
:107C1000850A4004D20E8072C20E806E900BD8E0AE
:107C2000FCA3E0FDA3E0FEA3E0F5268E258D248CC9
:107C300023E4FFFEFDFCAB26AA25A924A823D3122A
:107C4000850A4004D20E8002C20E74FF7F9CFEFDA6
:107C5000FCAB26AA25A924A823C312850A500D74BB
:107C6000FF75269CF525F524F523801EE47F64FE30
:107C7000FDFCAB26AA25A924A823D312850A400A15
:107C8000E4752664F525F524F523E47F64FEFDFC08
:107C9000AB26AA25A924A823D312850A400AE47595
:107CA0002664F525F524F52374FF7F9CFEFDFCABCF
:107CB00026AA25A924A823C312850A500B74FF7590
:107CC000269CF525F524F523900B5EE064016037D2
:107CD000AF26AE25AD24AC23780A128558E47B6428
:107CE000FAF9F812D2D7A804A905AA06AB07900D95
:107CF000DAE0FFE4FCFDFE1283D2780A1285448F9D
:107D0000268E258D248C23E4FFFEFDFCAB26AA25C0
:107D1000A924A823C312850A40047F0180027FFFA3
:107D2000900DA2EFF0300E077F0112DE8C8005E48B
:107D3000FF12DE8CAE25AF2612DD4212DE74900DEE
:107D400090E525F0A3E526F02202810AE86480F898
:107D5000E933E83360110460F0ED33EC337009E887
:107D6000FCE9FDEAFEEBFF220460DED3EB9FEA9E16
:107D7000E99DE8C2E78CF0C2F795F0400CE8CCF83A
:107D8000E9CDF9EACEFAEBCFFB1280D585D0F058D9
:107D900004700320D5B3E80470075002B2D5028105
:107DA0001492D5EC0460F7E4CCC0E0C398F8603BD3
:107DB00094186008400DD0E0FB0280ECE4FBFAC9A7
:107DC000FC8028E830E406E4C9FBE4CAFCE830E3C0
:107DD00005E4C9CACBFCE854076010F8C3E913F9FD
:107DE000EA13FAEB13FBEC13FCD8F130F52FC3E4E4
:107DF0009CFCEF9BFFEE9AFEED99FDD0E0FBEF4E71
:107E00004D4C701222DB03028111EC2CFCEF33FF8E
:107E1000EE33FEED33FDED30E7EB0280ECEF2BFFB0
:107E2000EE3AFEED39FDD0E0FB50130BBB00030230
:107E30008114ED13FDEE13FEEF13FFEC13FC028033
:107E4000ECEC4D6011E8497017ED33EC3304600D34
:107E5000E4FCFFFEFD22E933E8330470F802810AF6
:107E60001280D558046009E4CC24815006285009BA
:107E7000028114284003028111C0E0EB4A7044B92A
:107E80008006D0E0FB028100EF4E701CBD8008EB45
:107E9000FFEAFEE9FD80EBE98DF0A4FEE5F0027F4C
:107EA0002AE9CDF9EAFEEBFFEF89F0A4FCE5F0CE7C
:107EB00089F0A42EFFE435F0CD89F0A42DFEE43541
:107EC000F08067EF4E7005BD80D780C3EF8BF0A4C4
:107ED000ACF0EE8BF0A42CFCE435F0F8EF8AF0A4C3
:107EE0002CE5F038FCE433CB8DF0A42CFCE5F03B22
:107EF000F8EE8AF0A42CFCE5F038F8E433CF89F0F2
:107F0000A42CFCE5F038CF3400CE89F0A42FFFE597
:107F1000F03EFEE433C98DF0A42EFEE5F039CD8AA3
:107F2000F0A42FFFE5F03EFEE43DFD33D0E0FB5032
:107F3000070BBB000F028114EC2CFCEF33FFEE3378
:107F4000FEED33FD0280EC028114EC5D046005E877
:107F50005904700302810A1280D5580460F6EC4877
:107F600060F2EC7004FDFEFF22C860DB2481C85083
:107F700009C398600250060281119850CAF582E93F
:107F8000294B4A7005AB8202810075F0007C1A789B
:107F900080C3EF9BEE9AED99400DC3EF9BFFEE9AE5
:107FA000FEED99FDE842F0DC23ACF0D0E0FFD0E03C
:107FB000FED0E0FDAB8220E7101BEB60BAEC2CFC9E
:107FC000EF33FFEE33FEED33FD0280ECE803F830D3
:107FD000E705C0F075F000EF2FFFEE33FEED33FD47
:107FE00040B830E7C280AA74F8CC6480CCC8648002
:107FF000C8F58204604FC3EB9FF5F0EA9E42F0E9BA
:108000009D42F0E89C45F0603C501DE5825FFFE535
:1080100082D313CB5BCBF42B5582FB50280ABA00DA
:108020002409B9002008801DE5825BFBE582D3139B
:10803000CF5FCFF4C3132F5582FF50090EBE00054A
:108040000DBD00010CC3EB9FF5F0EA9E42F0E99DE7
:1080500042F0E89C45F06007CC4820E701B3EC22F1
:1080600075F020800E75F010800575F0087D007E9B
:10807000007F003392D530D5031284FCEC334010DE
:10808000EF33FFEE33FEED33FDEC33FCD5F0ED22A4
:10809000E5F0247EA2D513CC92E7CDCEFF22EDD21F
:1080A000E7CD33EC3392D524814006E4FFFEFDFC9E
:1080B00022FCE4CFCECDCC24E0501174FF80EDC380
:1080C000CC13CCCD13CDCE13CECF13CF0470F03064
:1080D000D5DE0284FCE9D2E7C933E833F892D5ED66
:1080E000D2E7CD33EC33FC5002B2D522EC30E710AE
:1080F0000FBF000C0EBE00080DBD00040BEB60149A
:10810000A2D5EB13FCED92E7FD2274FFFCFDFEFF10
:1081100022E480F8A2D574FF13FC7D80E480EFEDAB
:1081200033EC33601004700FED547F7005740292CD
:10813000E0227404220422E422ED33EC33600A04CA
:108140007003BD8004ECB2E7FC22F920E73624F985
:1081500050037907E4F42402FBE5821582700215CE
:1081600083DBF6E024FB501BE96014E4F0E58215A4
:108170008270021583E004F0B40A08E4F0D9EE74CA
:1081800001F00A22C2D522ED33EC3392D5FA602AEF
:10819000B4FF33EDC2E77BFF60067A8179ACE4225D
:1081A0007A8179B520D5047A8179B0224E614E006A
:1081B0002B494E46002D494E4600E47A08F0A3DADA
:1081C000FC7B00740722C083C082ECC0E0EDC0E0FD
:1081D000EEC0E0EFC0E0EA75F010A4CAABF075F0B5
:1081E0004DA42BFBE435F0FCEA2410FAEB34C5FB7C
:1081F000EC34D9FCEDC2E7FF75F056A4F42411C5A8
:10820000F0F434C58FF0A42AE5F03BE43CF020E71D
:10821000141282BCD0E0FFD0E0FED0E0FDD0E0FC44
:10822000127F4A8014F4041282BCD0E0FFD0E0FE3A
:10823000D0E0FDD0E0FC127E41D082D083E0FAEDA8
:10824000D2E7CD33EC332482FBE4C3CF33CFCE333C
:10825000CECD33CD33DBF37B0775F00A846004F0B9
:10826000A31B0AE5F0F0A38FF0740AA4FFACF08E14
:10827000F0740AA42CFEACF050010C8DF0740AA42A
:108280002CFDE435F0F0A3DBDE7407223F80000014
:108290004120000042C80000447A0000461C400013
:1082A00047C35000497424004B1896804CBEBC2034
:1082B0005A0E1BCA6753C21C749DC5AEFB600654A0
:1082C00007601C23231282EAEB543860091282D61D
:1082D0001282E5127E41ECF8EDF9EEFAEFCB22EBDB
:1082E0001282E580F1543803241C90828CFE93FCAA
:1082F0000EEE93FD0EEE930ECE93FF22C0E0EFFB49
:10830000EEFAEDF9ECF8127E41D0E0F5F0EFFBEE7D
:10831000FAEDF9ECF81285A5A3A3A3A3E8C0E0E960
:10832000C0E0EAC0E0EBC0E0C0F0127E411285C1BF
:10833000A3A3A3A3127D50D0F0D0E0FBD0E0FAD0ED
:10834000E0F9D0E0F8D5F0D422BB010689828A8317
:10835000E0225002E722BBFE02E32289828A83E404
:108360009322BB010CE58229F582E5833AF583E08F
:10837000225006E92582F8E622BBFE06E92582F8AE
:10838000E222E58229F582E5833AF583E49322BB74
:10839000010689828A83F0225002F722BBFE01F394
:1083A00022EF8DF0A4A8F0CF8CF0A428CE8DF0A4FD
:1083B0002EFE22BB010A89828A83F0E5F0A3F02217
:1083C0005006F709A7F01922BBFE06F3E5F009F302
:1083D0001922E88FF0A4CC8BF0A42CFCE98EF0A439
:1083E0002CFC8AF0EDA42CFCEA8EF0A4CDA8F08B36
:1083F000F0A42DCC3825F0FDE98FF0A42CCD35F07C
:10840000FCEB8EF0A4FEA9F0EB8FF0A4CFC5F02E0C
:10841000CD39FEE43CFCEAA42DCE35F0FDE43CFC75
:108420002275F008758200EF2FFFEE33FECD33CDBD
:10843000CC33CCC58233C5829BED9AEC99E582980A
:10844000400CF582EE9BFEED9AFDEC99FC0FD5F009
:10845000D6E4CEFBE4CDFAE4CCF9A88222B800C180
:10846000B90059BA002DEC8BF084CFCECDFCE5F0ED
:10847000CBF97818EF2FFFEE33FEED33FDEC33FC34
:10848000EB33FB10D703994004EB99FB0FD8E5E4DD
:10849000F9FA227818EF2FFFEE33FEED33FDEC33BF
:1084A000FCC933C910D7059BE99A4007EC9BFCE94E
:1084B0009AF90FD8E0E4C9FAE4CCFB2275F010EF8A
:1084C0002FFFEE33FEED33FDCC33CCC833C810D7CD
:1084D000079BEC9AE899400AED9BFDEC9AFCE89921
:1084E000F80FD5F0DAE4CDFBE4CCFAE4C8F922CFFA
:1084F000F4CFCEF4CECDF4CDCCF4CC22C3E49FFFA8
:10850000E49EFEE49DFDE49CFC22EB9FF5F0EA9ED8
:1085100042F0E99D42F0EC6480C864809845F02206
:10852000EB9FF5F0EA9E42F0E99D42F0E89C45F0B1
:1085300022E8600FECC313FCED13FDEE13FEEF1306
:10854000FFD8F122E86010ECA2E713FCED13FDEE7A
:1085500013FEEF13FFD8F022E8600FEFC333FFEEF6
:1085600033FEED33FDEC33FCD8F122BB01078982E9
:108570008A830288945005E9F8028888BBFE05E9E1
:10858000F80288A089828A830285A5BB01078982B7
:108590008A830285D15005E9F80288ACBBFE05E963
:1085A000F80288B822E493FC740193FD740293FEF0
:1085B000740393FF22E0F8A3E0F9A3E0FAA3E0FB41
:1085C00022E493F8740193F9740293FA740393FB11
:1085D00022ECF0A3EDF0A3EEF0A3EFF022A8828549
:1085E00083F0D083D0821285F41285F41285F412C0
:1085F00085F4E473E493A3C583C5F0C583C8C5823D
:10860000C8F0A3C583C5F0C583C8C582C822F8E0F9
:10861000FBA3A3E0F925F0F0E58215827002158333
:10862000E0FA38F022EBF0A3EAF0A3E9F022D083DD
:10863000D082F8E4937012740193700DA3A393F8A1
:10864000740193F5828883E4737402936860EFA3E6
:10865000A3A380DFE5112582F582E5103583F5833C
:10866000B510048582112210AF06858211F5102203
:10867000858211F510D2AF22EC8EF0A4CCC5F0CCDF
:10868000CDF8EFA4CEC5F02DFDE43CFCE8A42EC847
:10869000C5F03DFDE43CFCEFA4FFE5F028FEE43D21
:1086A000FDE43CFC22E709F608DFFA8046E709F220
:1086B00008DFFA803E88828C83E709F0A3DFFA8026
:1086C00032E309F608DFFA806EE309F208DFFA8088
:1086D0006688828C83E309F0A3DFFA805A89828A54
:1086E00083E0A3F608DFFA804E89828A83E0A3F252
:1086F00008DFFA804280D280FA80C680D48055801C
:10870000F28029801080A680EA809A80A880DA8092
:10871000E280CA802988848C8589828A83E493A335
:108720000586F0A30586DFF5DEF3800B89828A8358
:10873000E493A3F608DFF9ECFAA9F0EDFB228884B4
:108740008C8589828A83E0A30586F0A30586DFF6FF
:10875000DEF480E389828A83E493A3F208DFF98060
:10876000D688F0EF60010E4E60CD88F0ED2402B4A3
:10877000040050C3F582EB2402B4040050B9232353
:108780004582239086F573E709F60870FA8046E77C
:1087900009F20870FA803E88828C83E709F0A370A2
:1087A000FA8074E309F60870FA806CE309F2087045
:1087B000FA806488828C83E309F0A370FA80588978
:1087C000828A83E0A3F60870FA804C89828A83E06B
:1087D000A3F20870FA804080D280FA80C680D480EC
:1087E0005180F28027801080A680EA809A80A8803D
:1087F000DA80E280CA802788848C8589828A83E433
:1088000093A30586F0A3058670F5800B89828A8381
:10881000E493A3F60870F9ECFAA9F0EDFB22888442
:108820008C8589828A83E0A30586F0A3058670F68D
:1088300080E589828A83E493A3F20870F980D8885E
:10884000F0ED2402B4040050CEF582EB2402B4040F
:108850000050C423234582239087D773C5F0F8A323
:10886000E028F0C5F0F8E582158270021583E03843
:10887000F022A3F8E0C5F025F0F0E5821582700241
:108880001583E0C838F0E822E6FC08E6FD08E6FEBD
:1088900008E6FF22E0FCA3E0FDA3E0FEA3E0FF2248
:1088A000E2FC08E2FD08E2FE08E2FF22ECF608ED39
:1088B000F608EEF608EFF622ECF208EDF208EEF21A
:1088C00008EFF2228F23E523C3940340030291357E
:1088D000300A227B03AF031BEF6018E4FFFEFDFCB0
:1088E000EB25E025E02474F582E4340EF58312854F
:1088F000D180E2C20AE523701812DDBF780112852B
:1089000031EFEEED5403FDE4FC9000021285D180BE
:1089100033E523B4011812DD8D7801128531EFEEB5
:10892000ED5403FDE4FC9000021285D1801612DDA7
:10893000837801128531EFEEED5403FDE4FC9000E5
:10894000021285D17B017A00790212CD31400302F7
:108950008B86900002E0FCA3E0FDA3E0FEA3E054C0
:10896000C0FFEEED5403FDE42FFFE43EFEED34FEC8
:10897000FDE434FFFC7802128531EE3395E0FDFC16
:10898000E52325E025E02419F582E4340CF583E0A5
:10899000F8A3E0F9A3E0FAA3E02FFFEA3EFEE93DE9
:1089A000FDE83CFC9000061285D1300F27900006B0
:1089B000E0FCA3E0FDA3E0FEA3E0FFE52325E02526
:1089C000E02474F582E4340EF5831285D1E523B4F6
:1089D0000202C20FE52325E025E02474F582E43489
:1089E0000EF583E0F8A3E0F9A3E0FAA3E0FB900022
:1089F00006E0FCA3E0FDA3E0FEA3E0C39BFFEE9A2C
:108A0000FEED99FDEC98FC9000121285D1E4FF7EFA
:108A1000C0FDFC900012E0F8A3E0F9A3E0FAA3E0A7
:108A2000FBD312850A401074B72523F582E4340D78
:108A3000F583E014F080687F007E407DFF7CFF902E
:108A40000012E0F8A3E0F9A3E0FAA3E0FBC312856B
:108A50000A501074B72523F582E4340DF583E00441
:108A6000F0803C900012E0A3E0A3E0FEA3E0FF1240
:108A7000DD42D3EF9400EE648094C04022748025E0
:108A800023F582E4340EF583E004F074802523F5A9
:108A900082E4340EF583E0C3940A500302913574E6
:108AA000802523F582E4340EF583E4F0900006E09F
:108AB000FCA3E0FDA3E0FEA3E0FFE52325E025E025
:108AC0002474F582E4340EF5831285D1900006E01B
:108AD000F8A3E0F9A3E0FAA3E0FBC00074B72523F4
:108AE000F582E4340DF583E0FF3395E0FEFDFC787C
:108AF00010128558D000EB2FFFEA3EFEE93DFDE85D
:108B00003CFC9000061285D1E52325E025E0246E8B
:108B1000F582E4340BF583E0FCA3E0FDA3E0FEA3C3
:108B2000E0FFE4FBFA7980783F127FE7603890003D
:108B300006E0FCA3E0FDA3E0FEA3E0FFEC128060F2
:108B4000E52325E025E0246EF582E4340BF583E08F
:108B5000F8A3E0F9A3E0FAA3E0FB127E4112809EA5
:108B60009000061285D1900006E0FCA3E0FDA3E092
:108B7000FEA3E0FFE52325E025E024A3F582E4340D
:108B80000DF5831285D1E523147003028C3C14701B
:108B900003028CDD24026003028D7BE47F03FEFD73
:108BA000FC900006E0F8A3E0F9A3E0FAA3E0FB12D2
:108BB00083D2900E84E0F8A3E0F9A3E0FAA3E02FBB
:108BC000FFEA3EFEE93DFDE83CFC900E90E0F8A394
:108BD000E0F9A3E0FAA3E0FBC3EF9BFFEE9AFEED02
:108BE00099FDEC98FCC004C005C006C007E47F03F3
:108BF000FEFDFC900E9CE0F8A3E0F9A3E0FAA3E0F0
:108C0000FB1283D2A804A905AA06AB07D007D00699
:108C1000D005D004C3EF9BFFEE9AFEED99FDEC98D2
:108C2000FCE47B0AFAF9F81283D212C49CEE339565
:108C3000E0FDFC90000A1285D1028D7BE47F03FEEB
:108C4000FDFC900006E0F8A3E0F9A3E0FAA3E0FB46
:108C50001283D2900E88E0F8A3E0F9A3E0FAA3E033
:108C60002FFFEA3EFEE93DFDE83CFC900E94E0F863
:108C7000A3E0F9A3E0FAA3E0FBC3EF9BFFEE9AFEAB
:108C8000ED99FDEC98FCC004C005C006C007E47F68
:108C900003FEFDFC900EA0E0F8A3E0F9A3E0FAA328
:108CA000E0FB1283D2A804A905AA06AB07D007D01F
:108CB00006D005D004C3EF9BFFEE9AFEED99FDECC4
:108CC00098FCE47B0AFAF9F81283D212C51FEE333E
:108CD00095E0FDFC90000A1285D1028D7BE47F03B4
