:1026000002B6D1008F828E83E0540100000070F882
:102610002278FFE4F6D8FD02B75F900002EEF0A347
:10262000EFF078047C007D017BFF7A6079867E067E
:102630007FD71286929006DB7406F0A374D7F078E9
:10264000E17C067D017BFF7A67795D7E007F0F125A
:10265000869278F07C067D017BFF7A67796C7E003C
:102660007F1C128692780C7C077D017BFF7A67794C
:10267000887E007F1B12869278277C077D017BFF76
:102680007A6779A37E007F1C12869278437C077D4F
:10269000017BFF7A6779BF7E007F22128692786580
:1026A0007C077D017BFF7A6779E17E007F271286B8
:1026B00092788C7C077D017BFF7A6879087E007FA9
:1026C00011128692789D7C077D017BFF7A687919CB
:1026D0007E007F1912869278B67C077D017BFF7A97
:1026E0006879327E007F1112869278C77C077D015F
:1026F0007BFF7A6879437E007F1C12869278E37CA8
:10270000077D017BFF7A68795F7E007F1D128692CC
:1027100078007C087D017BFF7A68797C7E007F1BD6
:10272000128692781B7C087D017BFF7A6879977E00
:10273000007F14128692782F7C087D017BFF7A68D7
:1027400079AB7E007F2512869278547C087D017BD0
:10275000FF7A6879D07E007F1512869278697C08AE
:102760007D017BFF7A6879E57E007F15128692787D
:102770007E7C087D017BFF7A6879FA7E007F1412E7
:10278000869278927C087D017BFF7A69790E7E00C3
:102790007F2412869278B67C087D017BFF7A697966
:1027A000327E007F1912869278CF7C087D017BFFF4
:1027B0007A69794B7E007F1812869278E77C087DD3
:1027C000017BFF7A6979637E007F1412869278FB21
:1027D0007C087D017BFF7A6979777E007F241286F1
:1027E00092781F7C097D017BFF7A69799B7E007F4F
:1027F0002312869278427C097D017BFF7A6979BE3B
:102800007E007F1112869278537C097D017BFF7ACE
:102810006979CF7E007F1512869278687C097D01E8
:102820007BFF7A6979E47E007F6312869278CB7CA5
:10283000097D017BFF7A6A79477E007F5C12869270
:1028400078277C0A7D017BFF7A6A79A37E007F2A44
:102850001286927B017A0679E112D92D8F2C7B01A9
:102860007A0679F012D92D8F2D7B017A07790C1217
:10287000D92D8F2E7B017A07798C12D92D8F2F7B42
:10288000017A07799D12D92D8F307B017A0779B6AD
:1028900012D92D8F317B017A0779E312D92D8F322E
:1028A0007B017A08790012D92D8F337B017A087960
:1028B0001B12D92D8F347B017A08795412D92D8FB0
:1028C000357B017A08796912D92D8F367B017A0818
:1028D000797E12D92D8F377B017A0879B612D92DDE
:1028E0008F387B017A09795312D92D8F397B017A80
:1028F00009796812D92D8F3A7B017A0979CB12D9DF
:102900002D8F3B7B017A0A792712D92D8F3C7B01D1
:102910007A0879E712D92D8F3D7B017A0879FB126D
:10292000D92D8F3E7B017A09791F12D92D8F3F7BDC
:10293000017A09794212D92D8F40900004740CF06D
:10294000A37419F0900002E0FEA3E0FFEE60030222
:102950003DAFEFB41A004003023DAF902962F82862
:1029600028730229B002383D02384602391602396E
:10297000E60239F9023A02023A0B023A36023AB456
:10298000023AF1023AFA023BD0023C56023C66029D
:102990003C6F023C8E023CB7023CC0023CD4023C7D
:1029A000DD023CE6023D18023D2D023D60023D7510
:1029B0009000067402F0A314F0900A5BE090000807
:1029C000F0852C2AE52A6032FFC3E52C9FFFE494B2
:1029D00000FE74E12FF58274063EF583E0FFE52AE0
:1029E000FDE52CC39DFDE49400FC74092DF5827473
:1029F000003CF583EFF0152A80CA9000387407F088
:102A0000A37403F0900A8EE064036068900A5CE0AF
:102A1000FCA3E0FDA3E0FEA3E0FFEC128066E4FB74
:102A2000FA79807847127F5090003A128533900AE5
:102A300060E0FCA3E0FDA3E0FEA3E0FFEC128066F3
:102A4000E4FBFA79807847127F5090003E1285337C
:102A5000900A64E0FCA3E0FDA3E0FEA3E0FFEC121B
:102A60008066E4FBFA79807847127F50900042122A
:102A700085338066900A74E0FCA3E0FDA3E0FEA32A
:102A8000E0FFEC128066E4FBFA79807847127F5011
:102A900090003A128533900A78E0FCA3E0FDA3E0B1
:102AA000FEA3E0FFEC128066E4FBFA79807847121F
:102AB0007F5090003E128533900A7CE0FCA3E0FD3D
:102AC000A3E0FEA3E0FFEC128066E4FBFA798078D5
:102AD00047127F50900042128533852D2AE52A60E7
:102AE00032FFC3E52D9FFFE49400FE74F02FF582C2
:102AF00074063EF583E0FFE52AFDE52DC39DFDE468
:102B00009400FC74462DF58274003CF583EFF015BB
:102B10002A80CA90006A7407F0A37403F0900A8EAA
:102B2000E064036068900A68E0FCA3E0FDA3E0FEB7
:102B3000A3E0FFEC128066E4FBFA79807847127F0D
:102B40005090006C128533900A6CE0FCA3E0FDA36A
:102B5000E0FEA3E0FFEC128066E4FBFA79807847A0
:102B6000127F50900070128533900A70E0FCA3E051
:102B7000FDA3E0FEA3E0FFEC128066E4FBFA79809F
:102B80007847127F509000741285338066900A80D7
:102B9000E0FCA3E0FDA3E0FEA3E0FFEC128066E40E
:102BA000FBFA79807847127F5090006C1285339041
:102BB0000A84E0FCA3E0FDA3E0FEA3E0FFEC1280AA
:102BC00066E4FBFA79807847127F50900070128596
:102BD00033900A88E0FCA3E0FDA3E0FEA3E0FFEC55
:102BE000128066E4FBFA79807847127F5090007477
:102BF000128533852E2AE52A6032FFC3E52E9FFF1A
:102C0000E49400FE740C2FF58274073EF583E0FF18
:102C1000E52AFDE52EC39DFDE49400FC74782DF5B6
:102C20008274003CF583EFF0152A80CAE490009C82
:102C3000F0A304F0900A8CE090009EF0900A8C6063
:102C40001C900A5474FFF0A37454F0A37490F07BAA
:102C5000017A07792712CC0B752B1C801A900A5425
:102C600074FFF0A37454F0A37496F07B017A077993
:102C70002712CC0B752B1B852B2AE52A6032FFC34C
:102C8000E52B9FFFE49400FE74272FF58274073E26
:102C9000F583E0FFE52AFDE52BC39DFDE49400FCF0
:102CA000749F2DF58274003CF583EFF0152A80CADD
:102CB000749F252BF582E43400F5837403F0E490CF
:102CC00000CEF0A304F0900A8DE09000D0F0900ABE
:102CD0008D14603314604C14606514607E147003AE
:102CE000022D7724056003022D91900A5474FFF0A1
:102CF000A37454F0A3749BF07B017A07794312CC40
:102D00000B752B14022D91900A5474FFF0A3745488
:102D1000F0A374A1F07B017A07794312CC0B752BD9
:102D200017806E900A5474FFF0A37454F0A374AA31
:102D3000F07B017A07794312CC0B752B21805290DE
:102D40000A5474FFF0A37454F0A374BDF07B017AAD
:102D500007794312CC0B752B1D8036900A5474FFF3
:102D6000F0A37454F0A374CCF07B017A077943127A
:102D7000CC0B752B19801A900A5474FFF0A374546D
:102D8000F0A374D7F07B017A07794312CC0B752B33
:102D900022852B2AE52A6032FFC3E52B9FFFE494AE
:102DA00000FE74432FF58274073EF583E0FFE52AA9
:102DB000FDE52BC39DFDE49400FC74D12DF58274D8
:102DC000003CF583EFF0152A80CA74D1252BF582DB
:102DD000E43400F5837401F0E4900100F0A304F002
:102DE000900A8EE0900102F0900A8E14602C14601C
:102DF0004514605E14607724046003022E88900AF4
:102E00005474FFF0A37454F0A374EBF07B017A07C1
:102E1000796512CC0B752B1B806E900A5474FFF0F1
:102E2000A37454F0A374F6F07B017A07796512CC91
:102E30000B752B168052900A5474FFF0A37454F053
:102E4000A374FCF07B017A07796512CC0B752B1A01
:102E50008036900A5474FFF0A37455F0A37406F002
:102E60007B017A07796512CC0B752B27801A900AA3
:102E70005474FFF0A37455F0A3741DF07B017A071E
:102E8000796512CC0B752B24852B2AE52A6032FF3D
:102E9000C3E52B9FFFE49400FE74652FF582740751
:102EA0003EF583E0FFE52AFDE52BC39DFDE494009C
:102EB000FC74032DF58274013CF583EFF0152A8034
:102EC000CA7403252BF582E43401F5837402F09073
:102ED0000132F0A304F0E4F52AE52AC39403501E5E
:102EE000748F252AF582E4340AF583E0FF743425D3
:102EF0002AF582E43401F583EFF0052A80DB852F83
:102F00002AE52A6032FFC3E52F9FFFE49400FE7498
:102F10008C2FF58274073EF583E0FFE52AFDE52F4F
:102F2000C39DFDE49400FC74372DF58274013CF5DB
:102F300083EFF0152A80CA9001647403F0A3F0E4D3
:102F4000F52AE52AC394035044E52A25E025E02428
:102F500092F582E4340AF583E0FCA3E0FDA3E0FEF1
:102F6000A3E0FF748F252AF582E4340AF583E0F9A3
:102F7000F81284D275F002E52AA42466F582E5F001
:102F80003401F583EEF0A3EFF0052A80B585302AF1
:102F9000E52A6032FFC3E5309FFFE49400FE749D94
:102FA0002FF58274073EF583E0FFE52AFDE530C387
:102FB0009DFDE49400FC746C2DF58274013CF58356
:102FC000EFF0152A80CA9001967407F0A37403F0FD
:102FD000E4F52AE52AC394035031E52A25E025E0EB
:102FE000249EF582E4340AF583E0FCA3E0FDA3E02F
:102FF000FEA3E0FF75F004E52AA42498F582E5F02D
:103000003401F583128533052A80C885312AE52AE3
:103010006032FFC3E5319FFFE49400FE74B62FF5E4
:103020008274073EF583E0FFE52AFDE531C39DFD8F
:10303000E49400FC74A42DF58274013CF583EFF058
:10304000152A80CAE49001C8F0A304F0900AAAE00F
:103050009001CAF0900AAA601C900A5474FFF0A371
:103060007454F0A37490F07B017A0779C712CC0BEB
:10307000752B1C801A900A5474FFF0A37454F0A3AB
:103080007496F07B017A0779C712CC0B752B1B85E0
:103090002B2AE52A6032FFC3E52B9FFFE49400FE54
:1030A00074C72FF58274073EF583E0FFE52AFDE53E
:1030B0002BC39DFDE49400FC74CB2DF58274013C80
:1030C000F583EFF0152A80CA74CB252BF582E43402
:1030D00001F5837403F09001FA7405F0A37402F013
:1030E000E4F52AE52AC39401400302316EE52A255E
:1030F000E025E024ABF582E4340AF583E0FCA3E0AC
:10310000FDA3E0FEA3E0FF748F252AF582E4340AD4
:10311000F583E0F9F81284D275F008E52AA424FCBE
:10312000F582E5F03401F583128533E52A25E025A3
:10313000E024B3F582E4340AF583E0FCA3E0FDA3C8
:10314000E0FEA3E0FF748F252AF582E4340AF583BC
:10315000E0F9F81284D275F008E52AA42400F5827B
:10316000E5F03402F583128533052A0230E3853217
:103170002AE52A6032FFC3E5329FFFE49400FE7423
:10318000E32FF58274073EF583E0FFE52AFDE53283
:10319000C39DFDE49400FC74042DF58274023CF59B
:1031A00083EFF0152A80CA90022C7405F0A37402F4
:1031B000F0900ABFE0FCA3E0FDA3E0FEA3E0FF90D7
:1031C000022E128533900ABBE0FCA3E0FDA3E0FED3
:1031D000A3E0FF90023212853385332AE52A60325C
:1031E000FFC3E5339FFFE49400FE74002FF5827463
:1031F000083EF583E0FFE52AFDE533C39DFDE49439
:1032000000FC74362DF58274023CF583EFF0152A2C
:1032100080CA90025E7403F0A37401F0900AC3E0C8
:10322000FFA3E0900260CFF0A3EFF085342AE52AF7
:103230006032FFC3E5349FFFE49400FE741B2FF55A
:103240008274083EF583E0FFE52AFDE534C39DFD69
:10325000E49400FC74622DF58274023CF583EFF077
:10326000152A80CAE4900290F0A304F0900AC9E005
:10327000900292F0900AC9601C900A5474FFF0A367
:103280007454F0A37490F07B017A08792F12CC0B60
:10329000752B25801A900A5474FFF0A37454F0A380
:1032A0007496F07B017A08792F12CC0B752B24854C
:1032B0002B2AE52A6032FFC3E52B9FFFE49400FE32
:1032C000742F2FF58274083EF583E0FFE52AFDE5B3
:1032D0002BC39DFDE49400FC74932DF58274023C95
:1032E000F583EFF0152A80CA7493252BF582E43418
:1032F00002F5837403F09002C204F0A37402F0900C
:103300000AC5E0FFA3E09002C4CFF0A3EFF0900A5B
:10331000C7E0FFA3E09002C6CFF0A3EFF085352A07
:10332000E52A6032FFC3E5359FFFE49400FE745444
:103330002FF58274083EF583E0FFE52AFDE535C3ED
:103340009DFDE49400FC74C82DF58274023CF58365
:10335000EFF0152A80CA9002F47406F0A37402F00C
:10336000900ACAE0FCA3E0FDA3E0FEA3E0FF900208
:10337000F6128533900ACEE0FCA3E0FDA3E0FEA3A5
:10338000E0FF9002FA12853385362AE52A6032FF83
:10339000C3E5369FFFE49400FE74692FF58274083C
:1033A0003EF583E0FFE52AFDE536C39DFDE494008C
:1033B000FC74FE2DF58274023CF583EFF0152A8033
:1033C000CA9003267402F0A314F0900AD2E090038E
:1033D00028F085372AE52A6032FFC3E5379FFFE4EE
:1033E0009400FE747E2FF58274083EF583E0FFE5BD
:1033F0002AFDE537C39DFDE49400FC74292DF58278
:1034000074033CF583EFF0152A80CAE4900358F06A
:10341000A304F0900AD3E090035AF0900AD3601C02
:10342000900A5474FFF0A37454F0A37490F07B01DD
:103430007A08799212CC0B752B24801A900A547456
:10344000FFF0A37454F0A37496F07B017A0879928C
:1034500012CC0B752B23852B2AE52A6032FFC3E59E
:103460002B9FFFE49400FE74922FF58274083EF5C2
:1034700083E0FFE52AFDE52BC39DFDE49400FC7489
:103480005B2DF58274033CF583EFF0152A80CA7436
:103490005B252BF582E43403F5837403F090038AF3
:1034A0007401F0A3F0900AD4E090038CF085382AE0
:1034B000E52A6032FFC3E5389FFFE49400FE74B64E
:1034C0002FF58274083EF583E0FFE52AFDE538C359
:1034D0009DFDE49400FC748D2DF58274033CF5830E
:1034E000EFF0152A80CAE49003BCF0A304F0900A20
:1034F000D5E09003BEF0900AD5601C900A5474FF8A
:10350000F0A37454F0A37490F07B017A0879CF1281
:10351000CC0B752B18801A900A5474FFF0A37454C6
:10352000F0A37496F07B017A0879CF12CC0B752B3F
:1035300017852B2AE52A6032FFC3E52B9FFFE49411
:1035400000FE74CF2FF58274083EF583E0FFE52A74
:10355000FDE52BC39DFDE49400FC74BF2DF5827442
:10356000033CF583EFF0152A80CA74BF252BF58242
:10357000E43403F5837403F09003EE7405F0A37450
:1035800001F0900AF0E0FCA3E0FDA3E0FEA3E0FF61
:10359000900A8FE0F9F81284D29003F012853385F7
:1035A0003D2AE52A6032FFC3E53D9FFFE49400FE1B
:1035B00074E72FF58274083EF583E0FFE52AFDE508
:1035C0003DC39DFDE49400FC74F42DF58274033C2E
:1035D000F583EFF0152A80CA9004207407F0A374D5
:1035E00001F0900AF4E0FCA3E0FDA3E0FEA3E0FFFD
:1035F000900422128533853E2AE52A6032FFC3E516
:103600003E9FFFE49400FE74FB2FF58274083EF5A4
:1036100083E0FFE52AFDE53EC39DFDE49400FC74D4
:10362000262DF58274043CF583EFF0152A80CA90AC
:1036300004527407F0A37401F0E4FFFE7D7A7C4429
:10364000900AF8E0F8A3E0F9A3E0FAA3E0FB127E09
:1036500047900454128533853F2AE52A6032FFC320
:10366000E53F9FFFE49400FE741F2FF58274093E2E
:10367000F583E0FFE52AFDE53FC39DFDE49400FCF2
:1036800074582DF58274043CF583EFF0152A80CA36
:103690009004847407F0A37401F0900AFCE0FCA38A
:1036A000E0FDA3E0FEA3E0FF900486128533854091
:1036B0002AE52A6032FFC3E5409FFFE49400FE74D0
:1036C000422FF58274093EF583E0FFE52AFDE540CF
:1036D000C39DFDE49400FC748A2DF58274043CF5CE
:1036E00083EFF0152A80CA9004B67407F0A314F093
:1036F000E4F52AE52AC394065031E52A25E025E0C1
:1037000024D6F582E4340AF583E0FCA3E0FDA3E0CF
:10371000FEA3E0FF75F004E52AA424B8F582E5F0E5
:103720003404F583128533052A80C885392AE52AB1
:103730006032FFC3E5399FFFE49400FE74532FF518
:103740008274093EF583E0FFE52AFDE539C39DFD5E
:10375000E49400FC74D02DF58274043CF583EFF002
:10376000152A80CA853A2AE52A6032FFC3E53A9FC6
:10377000FFE49400FE74682FF58274093EF583E03F
:10378000FFE52AFDE53AC39DFDE49400FC74E82DB5
:10379000F58274043CF583EFF0152A80CA853B2A34
:1037A000E52A6032FFC3E53B9FFFE49400FE74CB43
:1037B0002FF58274093EF583E0FFE52AFDE53BC362
:1037C0009DFDE49400FC747E2DF58274053CF58328
:1037D000EFF0152A80CA853C2AE52A6032FFC3E54E
:1037E0003C9FFFE49400FE74272FF582740A3EF597
:1037F00083E0FFE52AFDE53CC39DFDE49400FC74F5
:10380000142DF58274063CF583EFF0152A80CA7BEF
:10381000017A0079049006DBE0A3E014FD12D4D60F
:103820009006DBE0FCA3E0FD2403F58274003CF588
:1038300083EFF07B017A00790412C17622900C208C
:10384000E0900B1AF022900A8EE064036064E4FFBB
:10385000FE7D807C47900C20E0F8A3E0F9A3E0FA1D
:10386000A3E0FB127E471280A4900B1B128533E469
:10387000FFFE7D807C47900C24E0F8A3E0F9A3E0F4
:10388000FAA3E0FB127E471280A4900B1F1285332F
:10389000E4FFFE7D807C47900C28E0F8A3E0F9A3CC
:1038A000E0FAA3E0FB127E471280A4900B2312855E
:1038B0003322E4FFFE7D807C47900C20E0F8A3E0FB
:1038C000F9A3E0FAA3E0FB127E471280A4900B3329
:1038D000128533E4FFFE7D807C47900C24E0F8A342
:1038E000E0F9A3E0FAA3E0FB127E471280A4900B5C
:1038F00037128533E4FFFE7D807C47900C28E0F88A
:10390000A3E0F9A3E0FAA3E0FB127E471280A490A3
:103910000B3B12853322900A8EE064036064E4FF5F
:10392000FE7D807C47900C20E0F8A3E0F9A3E0FA4C
:10393000A3E0FB127E471280A4900B27128533E48C
:10394000FFFE7D807C47900C24E0F8A3E0F9A3E023
:10395000FAA3E0FB127E471280A4900B2B12853352
:10396000E4FFFE7D807C47900C28E0F8A3E0F9A3FB
:10397000E0FAA3E0FB127E471280A4900B2F128581
:103980003322E4FFFE7D807C47900C20E0F8A3E02A
:10399000F9A3E0FAA3E0FB127E471280A4900B3F4C
:1039A000128533E4FFFE7D807C47900C24E0F8A371
:1039B000E0F9A3E0FAA3E0FB127E471280A4900B8B
:1039C00043128533E4FFFE7D807C47900C28E0F8AD
:1039D000A3E0F9A3E0FAA3E0FB127E471280A490D3
:1039E0000B4712853322900C20E06007900B4B743C
:1039F00003F022E4900B4BF022900C20E0900B4C53
:103A0000F022900C20E0900B4DF022E4F52AE52AFC
:103A1000C394034003023DAF7420252AF582E434A9
:103A20000CF583E0FF744E252AF582E4340BF58310
:103A3000EFF0052A80D8E4F52AE52AC394035071F3
:103A4000E52A25E02420F582E4340CF583E0FEA38A
:103A5000E0FFEE3395E0FDFCE52A25E025E024516A
:103A6000F582E4340BF583128533E52A25E025E061
:103A70002451F582E4340BF583C083C082E0FCA3BB
:103A8000E0FDA3E0FEA3E0FF744E252AF582E434B6
:103A90000BF583E0F9F81284E6D082D083128533E7
:103AA00074E4252AF582E4340CF583E4F0052A80D9
:103AB00088D20A22E4F52AE52AC394034003023D92
:103AC000AFE52A25E025E02420F582E4340CF583D7
:103AD000E0FCA3E0FDA3E0FEA3E0FFE52A25E0254E
:103AE000E0245DF582E4340BF583128533052A80EA
:103AF000C6900C20E0900B69F022E4F52AE52AC379
:103B000094024003023DAFE52A75F008A42420F595
:103B100082E4340CF583E0FCA3E0FDA3E0FEA3E027
:103B2000FFE52A25E025E0246AF582E4340BF583DD
:103B3000128533E52A75F008A42424F582E4340CB8
:103B4000F583E0FCA3E0FDA3E0FEA3E0FFE52A256A
:103B5000E025E02472F582E4340BF583128533E529
:103B60002A25E025E0246AF582E4340BF583C0833E
:103B7000C082E0FCA3E0FDA3E0FEA3E0FF744E25BD
:103B80002AF582E4340BF583E0F9F81284E6D0825A
:103B9000D083128533E52A25E025E02472F582E4FE
:103BA000340BF583C083C082E0FCA3E0FDA3E0FEFC
:103BB000A3E0FF744E252AF582E4340BF583E0F987
:103BC000F81284E6D082D083128533052A023AFDAA
:103BD000900C20E0FCA3E0FDA3E0FEA3E0FF900634
:103BE000DD128533E4FFFEFDFC9006DDE0F8A3E086
:103BF000F9A3E0FAA3E0FBD312849850149006DDF9
:103C0000E0FCA3E0FDA3E0FEA3E0FF900B7E1285A5
:103C100033900C24E0FCA3E0FDA3E0FEA3E0FF90C2
:103C200006DD128533E4FFFEFDFC9006DDE0F8A31F
:103C3000E0F9A3E0FAA3E0FBC31284985003023D2D
:103C4000AF9006DDE0FCA3E0FDA3E0FEA3E0FF9063
:103C50000B7A12853322900C20E0FFA3E0900B82B8
:103C6000CFF0A3EFF022900C20E0900B88F0229090
:103C70000C20E0FFA3E0900B84CFF0A3EFF0900CBA
:103C800022E0FFA3E0900B86CFF0A3EFF022900C90
:103C900020E0FCA3E0FDA3E0FEA3E0FF900B89126F
:103CA0008533900C24E0FCA3E0FDA3E0FEA3E0FF3D
:103CB000900B8D12853322900C20E0900B91F02216
:103CC000900C20E0FF6007900B927401F022E490CA
:103CD0000B92F022900C20E0900B93F022900C209D
:103CE000E0900B94F022900C20E0FCA3E0FDA3E018
:103CF000FEA3E0FF900BAF128533900BAFE0FCA367
:103D0000E0FDA3E0FEA3E0FF900B4EE0F9F8128483
:103D1000E6900BAF12853322900C20E0FCA3E0FD6F
:103D2000A3E0FEA3E0FF900BB312853322900C209A
:103D3000E0FCA3E0FDA3E0FEA3E0FF900BB712853B
:103D400033900BB7E0FCA3E0FDA3E0FEA3E0FFE4AB
:103D5000FBFA797A7844127F50900BB712853322A0
:103D6000900C20E0FCA3E0FDA3E0FEA3E0FF900B9D
:103D7000BB12853322E4F52AE52AC394065030E5C8
:103D80002A25E025E02420F582E4340CF583E0FCCC
:103D9000A3E0FDA3E0FEA3E0FFE52A25E025E02463
:103DA00095F582E4340BF583128533052A80C92208
:103DB0009005E0EBF0A3EAF0A3E9F0900A5BE06481
:103DC000FA700302548F9005E0E0FBA3E0FAA3E051
:103DD000F8AC02AD037BFF7A557931128770900AF7
:103DE0005474FFF0A37455F0A37432F09005E0E032
:103DF000FBA3E0FAA3E0F912CC0B900A5474FFF095
:103E0000A37455F0A37435F09005E0E0FBA3E0FA4D
:103E1000A3E0F912CC0B900A5474FFF0A37455F090
:103E2000A37448F09005E0E0FBA3E0FAA3E0F912E8
:103E3000CC0B900A5474FFF0A37455F0A3746FF088
:103E40009005E0E0FBA3E0FAA3E0F912CC0B900AA6
:103E50005474FFF0A37455F0A37475F09005E0E07E
:103E6000FBA3E0FAA3E0F912CC0B90064C74FFF030
:103E7000A37455F0A37483F0900A5BE0FF90064FA3
:103E8000E4F0A3EFF07B017A0579E5129A72900ACB
:103E9000547401F0A37405F0A374E5F09005E0E01C
:103EA000FBA3E0FAA3E0F912CC0B900A5474FFF0E4
:103EB000A37455F0A3748CF09005E0E0FBA3E0FA46
:103EC000A3E0F912CC0B900AD5E0B4011E900A547D
:103ED00074FFF0A37455F0A374A7F09005E0E0FB25
:103EE000A3E0FAA3E0F912CC0B801C900A5474FFF3
:103EF000F0A37455F0A374ACF09005E0E0FBA3E0F0
:103F0000FAA3E0F912CC0B90064C74FFF0A37455A1
:103F1000F0A374B0F0900D08E0FF90064FE4F0A31A
:103F2000EFF07B017A0579E5129A72900A547401D8
:103F3000F0A37405F0A374E5F09005E0E0FBA3E0C6
:103F4000FAA3E0F912CC0B900A5474FFF0A3745555
:103F5000F0A37432F09005E0E0FBA3E0FAA3E0F9EF
:103F600012CC0B900A5474FFF0A37455F0A374C0E4
:103F7000F09005E0E0FBA3E0FAA3E0F912CC0B908F
:103F80000A5474FFF0A37455F0A374CDF09005E0CB
:103F9000E0FBA3E0FAA3E0F912CC0B900B4DE0B4E8
:103FA000021E900A5474FFF0A37455F0A374DDF060
:103FB0009005E0E0FBA3E0FAA3E0F912CC0B80410E
:103FC000900B4DE0B4011E900A5474FFF0A3745599
:103FD000F0A374EBF09005E0E0FBA3E0FAA3E0F9B6
:103FE00012CC0B801C900A5474FFF0A37455F0A3FC
:103FF00074F4F09005E0E0FBA3E0FAA3E0F912CC42
:104000000BE49005E3F0A3F0C39005E4E094029084
:1040100005E3E064809480400302416C900B4DE026
:104020006402705F90064C74FFF0A37456F0A374A2
:1040300002F09005E3E0FEA3E07802C333CE33CE76
:10404000D8F92408F582740B3EF583E0A3E0A3E0E1
:10405000FFA3E090064FCFF0A3EFF07B017A057944
:10406000E5129A72900A547401F0A37405F0A374D7
:10407000E5F09005E0E0FBA3E0FAA3E0F912CC0B39
:1040800002415B900B4DE06401705E90064C74FF42
:10409000F0A37456F0A37402F09005E3E0FEA3E0F1
:1040A0007802C333CE33CED8F92410F582740B3E98
:1040B000F583E0A3E0A3E0FFA3E090064FCFF0A3D9
:1040C000EFF07B017A0579E5129A72900A54740137
:1040D000F0A37405F0A374E5F09005E0E0FBA3E025
:1040E000FAA3E0F912CC0B807290064C74FFF0A397
:1040F0007456F0A37402F09005E3E0FAA3E0FBAE7F
:10410000027802C333CE33CED8F92400F582740B83
:104110003EF583E0FCA3E0FDA3E0FEA3E0FF748F87
:104120002BF582740A3AF583E0F9F81284D29006EE
:104130004FEEF0A3EFF07B017A0579E5129A7290C9
:104140000A547401F0A37405F0A374E5F09005E03F
:10415000E0FBA3E0FAA3E0F912CC0B9005E4E00445
:10416000F070069005E3E004F0024008900A5474F1
:10417000FFF0A37455F0A37432F09005E0E0FBA3C8
:10418000E0FAA3E0F912CC0B900A5474FFF0A37488
:1041900055F0A37432F09005E0E0FBA3E0FAA3E051
:1041A000F912CC0B90064C74FFF0A37456F0A37474
:1041B00006F07B017A0579E5129A72900B18E054AB
:1041C000036019900A5474FFF0A37456F0A3741698
:1041D000F07B017A0579E512CC0B8017900A5474B4
:1041E000FFF0A37456F0A3741CF07B017A0579E507
:1041F00012CC0B900A547401F0A37405F0A374E57B
:10420000F09005E0E0FBA3E0FAA3E0F912CC0B90FC
:104210000A5474FFF0A37456F0A37421F09005E0E3
:10422000E0FBA3E0FAA3E0F912CC0B900A5474FF70
:10423000F0A37456F0A37437F09005E0E0FBA3E020
:10424000FAA3E0F912CC0BE49005E3F0A3F0C390DD
:1042500005E4E094039005E3E06480948040030269
:10426000431490064C74FFF0A37456F0A37447F007
:104270009005E3E0FCA3E0FD2401FEE43C90064F42
:10428000F0A3CEF0EDAE047802C333CE33CED8F92E
:1042900024D0F582740C3EF583E0FCA3E0FDA3E09E
:1042A000FEA3E0FF9005E3E0FAA3E0248FF582741B
:1042B0000A3AF583E0F9F81284D2900651EEF0A3A1
:1042C000EFF07B017A0579E5129A72900A54740135
:1042D000F0A37405F0A374E5F09005E0E0FBA3E023
:1042E000FAA3E0F912CC0B900A5474FFF0A37455B2
:1042F000F0A37432F09005E0E0FBA3E0FAA3E0F94C
:1043000012CC0B9005E4E004F070069005E3E004A5
:10431000F002424E90064C74FFF0A37456F0A37462
:1043200050F0900C00E0FCA3E0FDA3E0FEA3E0FF52
:1043300090064F1285337B017A0579E5129A7290C7
:104340000A547401F0A37405F0A374E5F09005E03D
:10435000E0FBA3E0FAA3E0F912CC0B900A5474FF3F
:10436000F0A37455F0A37432F09005E0E0FBA3E0F5
:10437000FAA3E0F912CC0B90064C74FFF0A374562C
:10438000F0A37462F0900CDCE0FCA3E0FDA3E0FE7F
:10439000A3E0FF90064F1285337B017A0579E51281
:1043A0009A72900A547401F0A37405F0A374E5F0B6
:1043B0009005E0E0FBA3E0FAA3E0F912CC0B900A31
:1043C0005474FFF0A37455F0A37432F09005E0E04C
:1043D000FBA3E0FAA3E0F912CC0B900A5474FFF0AF
:1043E000A37456F0A37474F09005E0E0FBA3E0FA28
:1043F000A3E0F912CC0B900A5474FFF0A37456F0AA
:10440000A3748AF09005E0E0FBA3E0FAA3E0F912C0
:10441000CC0B900A8EE06403700302451F90064C9B
:1044200074FFF0A37456F0A3749CF0900A5CE0FC57
:10443000A3E0FDA3E0FEA3E0FFEC128066E4FBFA3C
:1044400079807847127F5090064F1285337B017A2E
:104450000579E5129A72900A547401F0A37405F07C
:10446000A374E5F09005E0E0FBA3E0FAA3E0F91205
:10447000CC0B90064C74FFF0A37456F0A374A6F016
:10448000900A60E0FCA3E0FDA3E0FEA3E0FFEC12D5
:104490008066E4FBFA79807847127F5090064F12CD
:1044A00085337B017A0579E5129A72900A5474017A
:1044B000F0A37405F0A374E5F09005E0E0FBA3E041
:1044C000FAA3E0F912CC0B90064C74FFF0A37456DB
:1044D000F0A374B0F0900A64E0FCA3E0FDA3E0FE5A
:1044E000A3E0FFEC128066E4FBFA79807847127F44
:1044F0005090064F1285337B017A0579E5129A7246
:10450000900A547401F0A37405F0A374E5F09005CB
:10451000E0E0FBA3E0FAA3E0F912CC0B02461E9008
:10452000064C74FFF0A37456F0A3749CF0900A74C8
:10453000E0FCA3E0FDA3E0FEA3E0FFEC128066E454
:10454000FBFA79807847127F5090064F1285337BB3
:10455000017A0579E5129A72900A547401F0A374F5
:1045600005F0A374E5F09005E0E0FBA3E0FAA3E01A
:10457000F912CC0B90064C74FFF0A37456F0A374A0
:10458000A6F0900A78E0FCA3E0FDA3E0FEA3E0FF24
:10459000EC128066E4FBFA79807847127F5090062F
:1045A0004F1285337B017A0579E5129A72900A548D
:1045B0007401F0A37405F0A374E5F09005E0E0FB4E
:1045C000A3E0FAA3E0F912CC0B90064C74FFF0A321
:1045D0007456F0A374B0F0900A7CE0FCA3E0FDA355
:1045E000E0FEA3E0FFEC128066E4FBFA79807847F6
:1045F000127F5090064F1285337B017A0579E512C0
:104600009A72900A547401F0A37405F0A374E5F053
:104610009005E0E0FBA3E0FAA3E0F912CC0B900ACE
:104620005474FFF0A37456F0A374BAF09005E0E060
:10463000FBA3E0FAA3E0F912CC0B900A8EE064032E
:10464000700302474790064C74FFF0A37456F0A322
:10465000749CF0900A68E0FCA3E0FDA3E0FEA3E0F8
:10466000FFEC128066E4FBFA79807847127F509065
:10467000064F1285337B017A0579E5129A72900A0A
:10468000547401F0A37405F0A374E5F09005E0E024
:10469000FBA3E0FAA3E0F912CC0B90064C74FFF0F8
:1046A000A37456F0A374A6F0900A6CE0FCA3E0FD9E
:1046B000A3E0FEA3E0FFEC128066E4FBFA798078C9
:1046C00047127F5090064F1285337B017A0579E5BA
:1046D000129A72900A547401F0A37405F0A374E561
:1046E000F09005E0E0FBA3E0FAA3E0F912CC0B9018
:1046F000064C74FFF0A37456F0A374B0F0900A70E7
:10470000E0FCA3E0FDA3E0FEA3E0FFEC128066E482
:10471000FBFA79807847127F5090064F1285337BE1
:10472000017A0579E5129A72900A547401F0A37423
:1047300005F0A374E5F09005E0E0FBA3E0FAA3E048
:10474000F912CC0B02484690064C74FFF0A3745645
:10475000F0A3749CF0900A80E0FCA3E0FDA3E0FECF
:10476000A3E0FFEC128066E4FBFA79807847127FC1
:104770005090064F1285337B017A0579E5129A72C3
:10478000900A547401F0A37405F0A374E5F0900549
:10479000E0E0FBA3E0FAA3E0F912CC0B90064C7426
:1047A000FFF0A37456F0A374A6F0900A84E0FCA373
:1047B000E0FDA3E0FEA3E0FFEC128066E4FBFA79E3
:1047C000807847127F5090064F1285337B017A051F
:1047D00079E5129A72900A547401F0A37405F0A35B
:1047E00074E5F09005E0E0FBA3E0FAA3E0F912CC59
:1047F0000B90064C74FFF0A37456F0A374B0F090C5
:104800000A88E0FCA3E0FDA3E0FEA3E0FFEC128039
:1048100066E4FBFA79807847127F5090064F128544
:10482000337B017A0579E5129A72900A547401F08B
:10483000A37405F0A374E5F09005E0E0FBA3E0FAB3
:10484000A3E0F912CC0B900A5474FFF0A37455F056
:10485000A37432F09005E0E0FBA3E0FAA3E0F912C4
:10486000CC0B900A8CE0B4031E900A5474FFF0A3A2
:104870007456F0A374D4F09005E0E0FBA3E0FAA333
:10488000E0F912CC0B801C900A5474FFF0A374560C
:10489000F0A374EEF09005E0E0FBA3E0FAA3E0F9EA
:1048A00012CC0B900A8DE014603814605314606EC3
:1048B00014700302493C14700302495A2405600332
:1048C000024976900A5474FFF0A37457F0A374075A
:1048D000F09005E0E0FBA3E0FAA3E0F912CC0B02B4
:1048E0004976900A5474FFF0A37457F0A37419F03A
:1048F0009005E0E0FBA3E0FAA3E0F912CC0B807690
:10490000900A5474FFF0A37457F0A3742EF090052E
:10491000E0E0FBA3E0FAA3E0F912CC0B8058900A88
:104920005474FFF0A37457F0A3744DF09005E0E0C9
:10493000FBA3E0FAA3E0F912CC0B803A900A54747E
:10494000FFF0A37457F0A37468F09005E0E0FBA3B8
:10495000E0FAA3E0F912CC0B801C900A5474FFF02B
:10496000A37457F0A3747FF09005E0E0FBA3E0FA96
:10497000A3E0F912CC0B900A8EE014602E1460496B
:1049800014606414607F24046003024A21900A5476
:1049900074FFF0A37457F0A3749AF09005E0E0FB65
:1049A000A3E0FAA3E0F912CC0B8076900A5474FFCE
:1049B000F0A37457F0A374B3F09005E0E0FBA3E01C
:1049C000FAA3E0F912CC0B8058900A5474FFF0A3BC
:1049D0007457F0A374C7F09005E0E0FBA3E0FAA3DE
:1049E000E0F912CC0B803A900A5474FFF0A374578C
:1049F000F0A374DFF09005E0E0FBA3E0FAA3E0F998
:104A000012CC0B801C900A5474FFF0A37458F0A3CE
:104A10007404F09005E0E0FBA3E0FAA3E0F912CC07
:104A20000B900AD3E0601E900A5474FFF0A37458F0
:104A3000F0A3742CF09005E0E0FBA3E0FAA3E0F90A
:104A400012CC0B801C900A5474FFF0A37458F0A38E
:104A5000744DF09005E0E0FBA3E0FAA3E0F912CC7E
:104A60000B90064C74FFF0A37458F0A3746DF09093
:104A70000AD4E0FE3395E090064FF0A3CEF07B0120
:104A80007A0579E5129A72900A547401F0A37405BC
:104A9000F0A374E5F09005E0E0FBA3E0FAA3E0F9F1
:104AA00012CC0B900A5474FFF0A37458F0A37486D0
:104AB000F09005E0E0FBA3E0FAA3E0F912CC0BE4F0
:104AC0009005E3F0A3F0C39005E4E094039005E3C0
:104AD000E0648094804003024B6290064C74FFF0C7
:104AE000A37456F0A37447F09005E3E0FCA3E0FD47
:104AF0002401FEE43C90064FF0A3CEF0748F2DF518
:104B000082740A3CF583E0FF900651E4F0A3EFF0D5
:104B10007B017A0579E5129A72900A547401F0A328
:104B20007405F0A374E5F09005E0E0FBA3E0FAA3C0
:104B3000E0F912CC0B900A5474FFF0A37455F0A363
:104B40007432F09005E0E0FBA3E0FAA3E0F912CCA8
:104B50000B9005E4E004F070069005E3E004F00239
:104B60004AC6900A5474FFF0A37458F0A3749BF0E3
:104B70009005E0E0FBA3E0FAA3E0F912CC0BE4908F
:104B800005E3F0A3F0C39005E4E094039005E3E0AF
:104B9000648094804003024C4990064C74FFF0A35B
:104BA0007458F0A374B1F09005E3E0FCA3E0FD2499
:104BB00001FEE43C90064FF0A3CEF0EDAE04780287
:104BC000C333CE33CED8F92492F582740A3EF583EE
:104BD000E0FCA3E0FDA3E0FEA3E0FF9005E3E0FA24
:104BE000A3E0248FF582740A3AF583E0F9F8128481
:104BF000D29006511285337B017A0579E5129A72BB
:104C0000900A547401F0A37405F0A374E5F09005C4
:104C1000E0E0FBA3E0FAA3E0F912CC0B900A547495
:104C2000FFF0A37455F0A37432F09005E0E0FBA30D
:104C3000E0FAA3E0F912CC0B9005E4E004F0700672
:104C40009005E3E004F0024B85900A5474FFF0A352
:104C50007458F0A374BBF09005E0E0FBA3E0FAA366
:104C6000E0F912CC0BE49005E3F0A3F0C39005E467
:104C7000E094039005E3E0648094804003024D1AC1
:104C800090064C74FFF0A37458F0A374D5F090050F
:104C9000E3E0FCA3E0FD2401FEE43C90064FF0A31A
:104CA000CEF0EDAE047802C333CE33CED8F9249ED5
:104CB000F582740A3EF583E0FCA3E0FDA3E0FEA3C9
:104CC000E0FF9006511285337B017A0579E5129A4F
:104CD00072900A547401F0A37405F0A374E5F09087
:104CE00005E0E0FBA3E0FAA3E0F912CC0B900A5434
:104CF00074FFF0A37455F0A37432F09005E0E0FB6C
:104D0000A3E0FAA3E0F912CC0B9005E4E004F07004
:104D1000069005E3E004F0024C6C900A5474FFF036
:104D2000A37458F0A374DEF09005E0E0FBA3E0FA72
:104D3000A3E0F912CC0B90064C74FFF0A37458F06A
:104D4000A374F6F0900AD6E0FCA3E0FDA3E0FEA376
:104D5000E0FF90064F128533900ADAE0FCA3E0FDF5
:104D6000A3E0FEA3E0FF900653128533900ADEE035
:104D7000FCA3E0FDA3E0FEA3E0FF900657128533FD
:104D80007B017A0579E5129A72900A547401F0A3B6
:104D90007405F0A374E5F09005E0E0FBA3E0FAA34E
:104DA000E0F912CC0B90064C74FFF0A37459F0A3F9
:104DB000740FF0900AE2E0FCA3E0FDA3E0FEA3E0A4
:104DC000FF90064F128533900AE6E0FCA3E0FDA3B6
:104DD000E0FEA3E0FF900653128533900AEAE0FC60
:104DE000A3E0FDA3E0FEA3E0FF9006571285337B0E
:104DF000017A0579E5129A72900A547401F0A3744D
:104E000005F0A374E5F09005E0E0FBA3E0FAA3E071
:104E1000F912CC0B900A5474FFF0A37455F0A374EC
:104E200032F09005E0E0FBA3E0FAA3E0F912CC0B2E
:104E300090064C74FFF0A37459F0A37428F0900B03
:104E400069E0FF90064FE4F0A3EFF07B017A05796B
:104E5000E5129A72900A547401F0A37405F0A374D9
:104E6000E5F09005E0E0FBA3E0FAA3E0F912CC0B3B
:104E7000900A5474FFF0A37455F0A37432F09005B7
:104E8000E0E0FBA3E0FAA3E0F912CC0BE49005E329
:104E9000F0A3F0C39005E4E094019005E3E06480A2
:104EA00094804003024FAB90064C74FFF0A37459FA
:104EB000F0A37442F09005E3E0FCA3E0FD2401FEC2
:104EC000E43C90064FF0A3CEF0EDAE047802C3337D
:104ED000CE33CED8F9246AF582740B3EF583E0FC1C
:104EE000A3E0FDA3E0FEA3E0FF9005E3E0FAA3E06A
:104EF000244EF582740B3AF583E0F9F81284D290CF
:104F000006511285337B017A0579E5129A72900A6F
:104F1000547401F0A37405F0A374E5F09005E0E08B
:104F2000FBA3E0FAA3E0F912CC0B90064C74FFF05F
:104F3000A37459F0A37468F09005E3E0FAA3E0FBD2
:104F4000AE027802C333CE33CED8F92472F5827420
:104F50000B3EF583E0FCA3E0FDA3E0FEA3E0FF74BD
:104F60004E2BF582740B3AF583E0F9F81284D29057
:104F7000064F1285337B017A0579E5129A72900A01
:104F8000547401F0A37405F0A374E5F09005E0E01B
:104F9000FBA3E0FAA3E0F912CC0B9005E4E004F0E7
:104FA00070069005E3E004F0024E9390064C74FF07
:104FB000F0A37459F0A37475F0900B7AE0A3E0A30A
:104FC000E0FFA3E090064FCFF0A3EFF0900B7EE060
:104FD000A3E0A3E0FFA3E0900651CFF0A3EFF07BA6
:104FE000017A0579E5129A72900A547401F0A3745B
:104FF00005F0A374E5F09005E0E0FBA3E0FAA3E080
:10500000F912CC0B900A5474FFF0A37455F0A374FA
:1050100032F09005E0E0FBA3E0FAA3E0F912CC0B3C
:1050200090064C74FFF0A37459F0A37491F0900BA8
:1050300082E0FFA3E090064FCFF0A3EFF07B017A70
:105040000579E5129A72900A547401F0A37405F080
:10505000A374E5F09005E0E0FBA3E0FAA3E0F91209
:10506000CC0B900A5474FFF0A37455F0A37432F083
:105070009005E0E0FBA3E0FAA3E0F912CC0B900668
:105080004C74FFF0A37459F0A374A3F0900B84E068
:10509000FFA3E090064FCFF0A3EFF0900B86E0FF68
:1050A000A3E0900651CFF0A3EFF07B017A0579E5FC
:1050B000129A72900A547401F0A37405F0A374E577
:1050C000F09005E0E0FBA3E0FAA3E0F912CC0B902E
:1050D0000A5474FFF0A37455F0A37432F09005E005
:1050E000E0FBA3E0FAA3E0F912CC0B90064C74FFAE
:1050F000F0A37459F0A374C5F0900B89E0FCA3E011
:10510000FDA3E0FEA3E0FF90064F128533900B8DC8
:10511000E0FCA3E0FDA3E0FEA3E0FF9006531285B0
:10512000337B017A0579E5129A72900A547401F082
:10513000A37405F0A374E5F09005E0E0FBA3E0FAAA
:10514000A3E0F912CC0B900A5474FFF0A37455F04D
:10515000A37432F09005E0E0FBA3E0FAA3E0F912BB
:10516000CC0B900B88E0601E900A5474FFF0A3747F
:1051700059F0A374E9F09005E0E0FBA3E0FAA3E0A6
:10518000F912CC0B801C900A5474FFF0A3745AF0EF
:10519000A37404F09005E0E0FBA3E0FAA3E0F912A9
:1051A000CC0B90064C74FFF0A3745AF0A3741EF05D
:1051B000900B91E0FF90064FE4F0A3EFF07B017AB3
:1051C0000579E5129A72900A547401F0A37405F0FF
:1051D000A374E5F09005E0E0FBA3E0FAA3E0F91288
:1051E000CC0B900A5474FFF0A37455F0A37432F002
:1051F0009005E0E0FBA3E0FAA3E0F912CC0B9006E7
:105200004C74FFF0A3745AF0A37430F07B017A055C
:1052100079E5129A72900A547401F0A37405F0A310
:1052200074E5F09005E0E0FBA3E0FAA3E0F912CC0E
:105230000B900D07E0B4011E900A5474FFF0A374A4
:1052400056F0A37416F09005E0E0FBA3E0FAA3E0AB
:10525000F912CC0B801C900A5474FFF0A37456F022
:10526000A3741CF09005E0E0FBA3E0FAA3E0F912C0
:10527000CC0B90064C74FFF0A3745AF0A3743FF06B
:10528000900BB3E0FCA3E0FDA3E0FEA3E0FF9006DB
:105290004F1285337B017A0579E5129A72900A5490
:1052A0007401F0A37405F0A374E5F09005E0E0FB51
:1052B000A3E0FAA3E0F912CC0B900A5474FFF0A318
:1052C0007455F0A37432F09005E0E0FBA3E0FAA37C
:1052D000E0F912CC0B90064C74FFF0A3745AF0A3C3
:1052E0007458F0E4FFFE7D7A7C44900BB7E0F8A39D
:1052F000E0F9A3E0FAA3E0FB127E4790064F128587
:10530000337B017A0579E5129A72900A547401F0A0
:10531000A37405F0A374E5F09005E0E0FBA3E0FAC8
:10532000A3E0F912CC0B900A5474FFF0A37455F06B
:10533000A37432F09005E0E0FBA3E0FAA3E0F912D9
:10534000CC0B90064C74FFF0A3745AF0A3747EF05B
:10535000900BAFE0FCA3E0FDA3E0FEA3E0FF900A0A
:105360008FE0F9F81284D290064FEEF0A3EFF07BB5
:10537000017A0579E5129A72900A547401F0A374C7
:1053800005F0A374E5F09005E0E0FBA3E0FAA3E0EC
:10539000F912CC0B900A5474FFF0A37455F0A37467
:1053A00032F09005E0E0FBA3E0FAA3E0F912CC0BA9
:1053B00090064C74FFF0A3745AF0A37490F0900B15
:1053C000BBE0FCA3E0FDA3E0FEA3E0FF90064F12CC
:1053D00085337B017A0579E5129A72900A5474013B
:1053E000F0A37405F0A374E5F09005E0E0FBA3E002
:1053F000FAA3E0F912CC0B900A5474FFF0A3745591
:10540000F0A37432F09005E0E0FBA3E0FAA3E0F92A
:1054100012CC0B90064C74FFF0A3745AF0A3749F47
:10542000F0900BFCE0F8A3E0F9A3E0FAA3E0FB9016
:105430000CBFE0FCA3E0FDA3E0FEA3E0C39BFFEEF6
:105440009AFEED99FDEC98FC90064F1285337B0196
:105450007A0579E5129A72900A547401F0A37405E2
:10546000F0A374E5F09005E0E0FBA3E0FAA3E0F917
:1054700012CC0B900A5474FFF0A37455F0A374324D
:10548000F09005E0E0FBA3E0FAA3E0F912CC0B22D8
:10549000205945530000204E4F00002055736200F4
:1054A000002048616E646C65000020454D47207007
:1054B000726F706F7274696F6E616C000020454D81
:1054C0004720696E74656772616C000020454D4726
:1054D0002046434653000020454D4720464346534F
:1054E00020416476616E636564000020506F7369CB
:1054F00074696F6E00002050574D00002043757294
:1055000072656E74000020506F736974696F6E204D
:10551000616E642043757272656E74000020506F76
:10552000736974696F6E20616E64205265737400D4
:1055300000000D0A004669726D776172652076651C
:105540007273696F6E3A200053482D50524F207687
:10555000362E312E352028536F636B657420772FDC
:105560005265737420706F736974696F6E29002EB1
:105570000D0A0D0A0044455649434520494E464F01
:105580000D0A0049443A2025640D0A0050574D2069
:1055900072657363616C696E6720616374697661BB
:1055A00074696F6E3A20005945530A004E4F0A0045
:1055B00050574D204C696D69743A2025640D0A00DE
:1055C0004D4F544F5220494E464F0D0A004D6F74B7
:1055D0006F72207265666572656E636500202D20AE
:1055E00043757272656E74733A2000202D205077D7
:1055F0006D3A2000202D20506F736974696F6E3AE8
:105600002000256420004D6F746F7220656E61620A
:105610006C65643A20005945530D0A004E4F0D0A3F
:10562000000D0A4D4541535552454D454E545320AA
:10563000494E464F0D0A0053656E736F72207661B6
:105640006C75653A0D0A002564202D3E2025640006
:10565000566F6C7461676520286D56293A20256C59
:10566000640043757272656E7420286D41293A207A
:10567000256C64000D0A444556494345205041526B
:10568000414D45544552530D0A0050494420436F43
:105690006E74726F6C6C65723A0D0A0050202D3E6C
:1056A00020256620200049202D3E20256620200050
:1056B00044202D3E2025660D0A0043757272656EEA
:1056C000742050494420436F6E74726F6C6C657225
:1056D0003A0D0A00537461727475702061637469C5
:1056E000766174696F6E3A205945530D0A00537400
:1056F00061727475702061637469766174696F6E2C
:105700003A204E4F0D0A00496E707574206D6F641B
:10571000653A205553420D0A00496E707574206D2C
:105720006F64653A2048616E646C650D0A00496ECD
:10573000707574206D6F64653A20454D4720707216
:105740006F706F7274696F6E616C0D0A00496E70D4
:105750007574206D6F64653A20454D4720696E74FD
:10576000656772616C0D0A00496E707574206D6F0B
:1057700064653A20454D4720464346530D0A00498B
:105780006E707574206D6F64653A20454D472046F4
:10579000434653204144560D0A00436F6E74726FA6
:1057A0006C206D6F64653A20506F736974696F6E19
:1057B0000D0A00436F6E74726F6C206D6F64653AF2
:1057C0002050574D0D0A00436F6E74726F6C206D40
:1057D0006F64653A2043757272656E740D0A0043FA
:1057E0006F6E74726F6C206D6F64653A20506F73CA
:1057F0006974696F6E20616E642043757272656EA4
:10580000740D0A00436F6E74726F6C206D6F646567
:105810003A20506F736974696F6E20616E64205214
:1058200065737420636865636B0D0A004162736F72
:105830006C75746520656E636F64657220706F733C
:105840006974696F6E3A205945530D0A00416273BD
:105850006F6C75746520656E636F64657220706F20
:10586000736974696F6E3A204E4F0D0A004D6F7464
:105870006F722D48616E646C6520526174696F3A75
:105880002025640D0A0053656E736F722072657374
:105890006F6C7574696F6E3A0D0A004D65617375B2
:1058A00072656D656E74204F66667365743A0D0A95
:1058B000002564202D3E20256C64004D65617375C4
:1058C00072656D656E74204D756C7469706C696578
:1058D000723A0D0A002564202D3E2025660043758E
:1058E0007272656E74206C6F6F6B7570207461627C
:1058F0006C653A0D0A00705B305D202D20705B32C4
:105900005D3A2025662C2025662C2025660A00702D
:105910005B335D202D20705B355D3A2025662C20A1
:1059200025662C2025660A00506F736974696F6EB6
:10593000206C696D6974206163746976653A20250D
:105940006400506F736974696F6E206C696D69745F
:10595000206D6F746F722025643A20696E66202D69
:105960003E20256C64202000737570202D3E20257C
:105970006C640D0A004D6178207374657020706F3F
:105980007320616E64206E65673A2025642025646B
:105990000043757272656E74206C696D69743A208B
:1059A000256400454D47207468726573686F6C64A8
:1059B00073205B30202D20313032345D3A20257544
:1059C0002C20257500454D47206D61782076616C4F
:1059D000756573205B30202D20343039365D3A20D8
:1059E000256C752C20256C750043616C69627261B1
:1059F00074696F6E20656E61626C65643A2059450A
:105A0000530D0A0043616C6962726174696F6E20A4
:105A1000656E61626C65643A204E4F0D0A00454D1B
:105A200047206D61782073706565643A20256400B5
:105A30005265737420656E61626C65643A20005231
:105A40006573742074696D652064656C61792028C4
:105A50006D73293A20256600526573742076656C53
:105A60006F6369747920636C6F7375726520287435
:105A700069636B732F736563293A2025660052654D
:105A8000737420706F736974696F6E3A20256400B7
:105A90005265737420726174696F3A2025660064E0
:105AA000656275673A20256C640000000000000004
:105AB00000000000000000000000000000000000E6
:105AC00000000000000000000000000000000000D6
:105AD00000000000000000000000000000000000C6
:105AE00000000000000000000000000000000000B6
:106750000000000000000000000000000031202DBB
:10676000204465766963652049443A0032202D2033
:10677000506F736974696F6E20504944205B502CD0
:1067800020492C20445D3A0033202D20437572723D
:10679000656E7420504944205B502C20492C2044C5
:1067A0005D3A0034202D205374617274757020415D
:1067B000637469766174696F6E3A00000000003599
:1067C000202D20496E707574206D6F64653A00004D
:1067D00000000000000000000000000000000000B9
:1067E0000036202D20436F6E74726F6C206D6F64C5
:1067F000653A0000000000000000000000000000FA
:10680000000000000000000037202D205265736F4B
:106810006C7574696F6E733A0038202D204D656178
:10682000737572656D656E74204F666673657473FB
:106830003A0039202D204D756C7469706C69657251
:10684000733A003130202D20506F732E206C696D0B
:106850006974206163746976653A00000000003154
:1068600031202D20506F732E206C696D6974732058
:106870005B696E662C207375705D3A003132202D95
:10688000204D6178207374657073205B6E65672C92
:1068900020706F735D3A003133202D204375727282
:1068A000656E74206C696D69743A003134202D2056
:1068B000454D472063616C6962726174696F6E2037
:1068C0006F6E20737461727475703A00000000007E
:1068D0003135202D20454D47207468726573686FEF
:1068E0006C64733A003136202D20454D47206D6190
:1068F000782076616C7565733A003137202D20451C
:106900004D47206D61782073706565643A003138B9
:10691000202D204162736F6C75746520656E636F06
:1069200064657220706F736974696F6E3A0000005D
:1069300000003139202D204D6F746F722068616E18
:10694000646C6520726174696F3A003230202D20CA
:1069500050574D2072657363616C696E673A000031
:106960000000003231202D205265737420706F7347
:106970006974696F6E3A003232202D20526573744B
:1069800020706F736974696F6E2074696D6520641F
:10699000656C617920286D73293A003233202D20EF
:1069A000526573742076656C20636C6F73757265C5
:1069B00020287469636B732F736563293A0032343E
:1069C000202D205265737420726174696F3A003211
:1069D00035202D2043757272656E74206C6F6F6B5D
:1069E00075703A0030202D3E205573620A31202DFB
:1069F0003E2048616E646C650A32202D3E20454D74
:106A0000472070726F706F7274696F6E616C0A33B9
:106A1000202D3E20454D4720496E74656772616C9C
:106A20000A34202D3E20454D4720464346530A3523
:106A3000202D3E20454D4720464346532041647655
:106A4000616E6365640A0030202D3E20506F7369CB
:106A500074696F6E0A31202D3E2050574D0A322046
:106A60002D3E2043757272656E740A33202D3E20D0
:106A7000506F736974696F6E20616E642043757224
:106A800072656E740A34202D3E20506F73697469EC
:106A90006F6E20772E207265737420636865636B58
:106AA0000A000030202D3E204465616374697661E0
:106AB0007465205B4E4F5D0A31202D3E204163748A
:106AC0006976617465205B5945535D0A00E4F526DB
:106AD000F525F524F523900A5CE0FCA3E0FDA3E096
:106AE000FEA3E0F5428E418D408C3FA3E0FCA3E085
:106AF000FDA3E0FEA3E0F5468E458D448C43A3E064
:106B0000FCA3E0FDA3E0FEA3E0F54A8E498D488C8E
:106B100047A3E0FCA3E0FDA3E0FEA3E0F54E8E4D0D
:106B20008D4C8C4BA3E0FCA3E0FDA3E0FEA3E0F5BD
:106B3000528E518D508C4FA3E0FCA3E0FDA3E0FEEC
:106B4000A3E0F5568E558D548C53A3E0FCA3E0FDD5
:106B5000A3E0FEA3E0F55A8E598D588C57A3E0FCB4
:106B6000A3E0FDA3E0FEA3E0F55E8E5D8D5C8C5B93
:106B7000A3E0FCA3E0FDA3E0FEA3E0F5628E618D3F
:106B8000608C5FA3E0FCA3E0FDA3E0FEA3E0F5665C
:106B90008E658D648C63A3E0FCA3E0FDA3E0FEA3FF
:106BA000E0F56A8E698D688C67A3E0FCA3E0FDA325
:106BB000E0FEA3E0F56E8E6D8D6C8C6B900AC5E0E7
:106BC000FEA3E0FFFBAA06E4900CE7E0FCA3E0FDD7
:106BD000A3E0FEA3E0C39BF53AEE9AF539ED9400ED
:106BE000F538EC9400F537900AC7E0FEA3E0FFFB10
:106BF000AA06E4900CEBE0FCA3E0FDA3E0FEA3E01A
:106C0000C39BF53EEE9AF53DED9400F53CEC940007
:106C1000F53B900A8DE024FE7003026D8214700330
:106C2000026DE0147003026ED514700302703824F4
:106C30000460030271CF900AD3E06024A3E0FF3325
:106C400095E0FEFDFC900CD8E0F8A3E0F9A3E0FA93
:106C5000A3E0FB1283608F368E358D348C33802415
:106C6000900AD4E0FF3395E0FEFDFC900CD4E0F8F0
:106C7000A3E0F9A3E0FAA3E0FB1283608F368E3520
:106C80008D348C33900B00E0F8A3E0F9A3E0FAA375
:106C9000E0FBC3E5369BFFE5359AFEE53499FDE55B
:106CA0003398FC900ABBE0F8A3E0F9A3E0FAA3E074
:106CB000FBC31284985044E4FFFEFDFC900ABBE045
:106CC000F8A3E0A3E0A3E0C3128498602E900B0029
:106CD000E0FCA3E0FDA3E0FEA3E0FF900ABBE0F828
:106CE000A3E0A3E0A3E0EF2BFFEE3AFEED39FDECCD
:106CF00038FC900B001285330271CF900B00E0F846
:106D0000A3E0F9A3E0FAA3E0FBC3E5369BFFE5357A
:106D10009AFEE53499FDE53398FC900ABFE0F8A3AC
:106D2000E0F9A3E0FAA3E0FBD31284984043E4FF28
:106D3000FEFDFC900ABFE0F8A3E0A3E0A3E012840C
:106D400098602E900B00E0FCA3E0FDA3E0FEA3E022
:106D5000FF900ABFE0F8A3E0A3E0A3E0EF2BFFEE73
:106D60003AFEED39FDEC38FC900B001285330271D0
:106D7000CFAF36AE35AD34AC33900B001285330255
:106D800071CFE4FFFEFDFCAB3AAA39A938A837D38E
:106D9000128498403D900B72E0FCA3E0FDA3E0FE5E
:106DA000A3E0FFA837128360C006C007900AC5E0C1
:106DB000FEA3E0FFC3E49FFF74049EFEAB07FAE46A
:106DC000F9F8D007D00612D0EA900B0012853302F2
:106DD00071CFE4FFFEFDFC900B001285330271CFF2
:106DE000900C04E0FCA3E0FDA3E0FEA3E0FF900B09
:106DF00000128533E4FFFEFDFCAB3AAA39A938A89E
:106E000037D31284984056900B91E0FFE4FCFDFECE
:106E1000A837128360E47B02FAF9F8128360C00697
:106E2000C007900AC5E0FEA3E0FFC3E49FFF74041F
:106E30009EFEAB07FAE4F9F8D007D00612D0EA902C
:106E40000C04E0F8A3E0F9A3E0FAA3E02FFFEA3E88
:106E5000FEE93DFDE83CFC900B00128533E4FFFEAB
:106E6000FDFCAB3EAA3DA93CA83BD312849850033D
:106E70000271CF900B91E0FFE4FCFDFEA83B128372
:106E800060E47B02FAF9F8128360C006C007900A3A
:106E9000C7E0FEA3E0FFC3E49FFF74049EFEAB07C0
:106EA000FAE4F9F8D007D00612D0EAA804A905AA96
:106EB00006AB07900C04E0FCA3E0FDA3E0FEA3E01A
:106EC000C39BFFEE9AFEED99FDEC98FC900B00122F
:106ED00085330271CF900C04E0FCA3E0FDA3E0FE3B
:106EE000A3E0FF900B00128533900DA1E0146048E1
:106EF000147003026FB2240260030271CFE4FFFE3C
:106F0000FDFCAB3AAA39A938A837D31284984009B6
:106F1000900DA17401F00271CFE4FFFEFDFCAB3EC9
:106F2000AA3DA93CA83BD312849850030271CF908C
:106F30000DA17402F00271CFE4FFFEFDFCAB3AAA92
:106F400039A938A837C31284985008E4900DA1F0ED
:106F50000271CF900B91E0FFE4FCFDFEAB3AAA3941
:106F6000A938A837128360E47B02FAF9F81283602B
:106F7000C006C007900AC5E0FEA3E0FFC3E49FFF80
:106F800074049EFEAB07FAE4F9F8D007D00612D0DD
:106F9000EA900C04E0F8A3E0F9A3E0FAA3E02FFFE5
:106FA000EA3EFEE93DFDE83CFC900B001285330211
:106FB00071CFE4FFFEFDFCAB3EAA3DA93CA83BC35C
:106FC0001284985008E4900DA1F00271CF900B91BB
:106FD000E0FFE4FCFDFEAB3EAA3DA93CA83B1283CA
:106FE00060E47B02FAF9F8128360C006C007900AD9
:106FF000C7E0FEA3E0FFC3E49FFF74049EFEAB075F
:10700000FAE4F9F8D007D00612D0EAA804A905AA34
:1070100006AB07900C04E0FCA3E0FDA3E0FEA3E0B8
:10702000C39BFFEE9AFEED99FDEC98FC900B0012CD
:1070300085330271CF0271CF900C04E0FCA3E0FD18
:10704000A3E0FEA3E0FF900B00128533900DA1E0BA
:10705000146048147003027134240260030271CF7B
:10706000E4FFFEFDFCAB3AAA39A938A837D3128455
:10707000984009900DA17401F00271CFE4FFFEFD6C
:10708000FCAB3EAA3DA93CA83BD312849850030216
:1070900071CF900DA17402F00271CFE4FFFEFDFCF0
:1070A000AB3AAA39A938A837C3128498501BE4FF19
:1070B000FEFDFCAB3EAA3DA93CA83BC31284985000
:1070C00008E4900DA1F00271CFE4FFFEFDFCAB3AA5
:1070D000AA39A938A837D312849850030271CF90E7
:1070E0000B91E0FFE4FCFDFEA837128360780212EA
:1070F00084E6C006C007900AC5E0FEA3E0FFC3E433
:107100009FFF74049EFEAB07FAE4F9F8D007D0069F
:1071100012D0EA900C04E0F8A3E0F9A3E0FAA3E0AF
:107120002FFFEA3EFEE93DFDE83CFC900B00128596
:10713000330271CFE4FFFEFDFCAB3AAA39A938A8AF
:1071400037C3128498501AE4FFFEFDFCAB3EAA3D03
:10715000A93CA83BC31284985007E4900DA1F0808D
:107160006EE4FFFEFDFCAB3EAA3DA93CA83BD3125A
:107170008498405B900AD2E0FFE4FCFDFEA83B123D
:10718000836078021284E6C006C007900AC7E0FE5A
:10719000A3E0FFC3E49FFF74049EFEAB07FAE4F98B
:1071A000F8D007D00612D0EAA804A905AA06AB07B2
:1071B000900C04E0FCA3E0FDA3E0FEA3E0C39BFF72
:1071C000EE9AFEED99FDEC98FC900B001285339041
:1071D0000AAAE0606AA3E0FCA3E0FDA3E0FEA3E04E
:1071E000FF900B00E0F8A3E0F9A3E0FAA3E0FBC3F3
:1071F0001284985014900AABE0FCA3E0FDA3E0FEDB
:10720000A3E0FF900B00128533900AB3E0FCA3E0EB
:10721000FDA3E0FEA3E0FF900B00E0F8A3E0F9A3DC
:10722000E0FAA3E0FBD31284984014900AB3E0FC88
:10723000A3E0FDA3E0FEA3E0FF900B0012853390D6
:107240000A8EE070030276311470030279ED147037
:10725000030277BF24FE7003027A62046003027C9B
:107260009A900CD0E0F8A3E0F9A3E0FAA3E0FB9039
:107270000B00E0FCA3E0FDA3E0FEA3E0C39BF52A26
:10728000EE9AF529ED99F528EC98F527900D91E007
:10729000FCA3E0FDA3E0FEA3E0252AFFEE3529FED6
:1072A000ED3528FDEC3527FC900D911285337F805C
:1072B0007EF07DFA7C02900D91E0F8A3E0F9A3E066
:1072C000FAA3E0FBD312849840107F807EF07DFA11
:1072D0007C02900D91128533802A7F807E0F7D0580
:1072E0007CFD900D91E0F8A3E0F9A3E0FAA3E0FBA8
:1072F000C3128498500E7F807E0F7D057CFD900D1B
:1073000091128533E4F532F531F530F52FFFFEFDAE
:10731000FCAB5AAA59A958A857C31284986026AF43
:107320002AAE29AD28AC27A85712836078101284A2
:10733000D2E5322FF532E5313EF531E5303DF5301D
:10734000E52F3CF52FE4FFFEFDFCAB5EAA5DA95CDA
:10735000A85BC3128498602C900D91E0FCA3E0FD23
:10736000A3E0FEA3E0FFA85B12836078101284D232
:10737000E5322FF532E5313EF531E5303DF530E5CA
:107380002F3CF52FE4FFFEFDFCAB62AA61A960A8CB
:107390005FC31284986043900D99E0F8A3E0F9A3CD
:1073A000E0FAA3E0FBC3E52A9BFFE5299AFEE52866
:1073B00099FDE52798FCAB62AA61A960A85F1283DA
:1073C0006078101284D2E5322FF532E5313EF53186
:1073D000E5303DF530E52F3CF52FAF2AAE29AD283D
:1073E000AC27900D99128533E4FFFEFDFCAB32AA69
:1073F00031A930A82FC31284984004D20E8002C253
:107400000E900AC3E0FEA3E0FFEE3395E0FDFCAB77
:1074100032AA31A930A82FD31284984016900AC3FB
:10742000E0FEA3E0FFEE3395E08F328E31F530F5CC
:107430002F803C900AC3E0FEA3E0FFC3E49FFFE47B
:107440009EFE3395E0FDFCAB32AA31A930A82FC3D4
:10745000128498501A900AC3E0FEA3E0FFC3E49F91
:10746000FFE49EFE3395E08F328E31F530F52F909C
:107470000CDCE0F8A3E0F9A3E0FAA3E0FBC3E532FB
:107480009BF52EE5319AF52DE53099F52CE52F98F1
:10749000F52B900D95E0FCA3E0FDA3E0FEA3E02515
:1074A0002EFFEE352DFEED352CFDEC352BFC900D31
:1074B000951285337FA07E867D017C00900D95E03E
:1074C000F8A3E0F9A3E0FAA3E0FBD31284984010FC
:1074D0007FA07E867D017C00900D95128533802AE9
:1074E0007F607E797DFE7CFF900D95E0F8A3E0F94A
:1074F000A3E0FAA3E0FBC3128498500E7F607E796C
:107500007DFE7CFF900D95128533E4F526F525F57B
:1075100024F523FFFEFDFCAB66AA65A964A863C33E
:107520001284986026AF2EAE2DAD2CAC2BA8631222
:10753000836078101284D2E5262FF526E5253EF5E6
:1075400025E5243DF524E5233CF523E4FFFEFDFC81
:10755000AB6AAA69A968A867C3128498602C900DC9
:1075600095E0FCA3E0FDA3E0FEA3E0FFA867128383
:107570006078101284D2E5262FF526E5253EF52504
:10758000E5243DF524E5233CF523E4FFFEFDFCABBB
:107590006EAA6DA96CA86BC31284986043900D9D70
:1075A000E0F8A3E0F9A3E0FAA3E0FBC3E52E9BFF1C
:1075B000E52D9AFEE52C99FDE52B98FCAB6EAA6DA6
:1075C000A96CA86B12836078101284D2E5262FF57F
:1075D00026E5253EF525E5243DF524E5233CF52368
:1075E00074FF7F9CFEFDFCAB26AA25A924A823C31B
:1075F000128498500D74FF75269CF525F524F5230B
:10760000801EE47F64FEFDFCAB26AA25A924A823E6
:10761000D3128498400AE4752664F525F524F523F1
:10762000AF2EAE2DAD2CAC2B900D9D128533027C70
:107630009A900CD0E0F8A3E0F9A3E0FAA3E0FB9065
:107640000B00E0FCA3E0FDA3E0FEA3E0C39BF52A52
:10765000EE9AF529ED99F528EC98F527900D91E033
:10766000FCA3E0FDA3E0FEA3E0252AFFEE3529FE02
:10767000ED3528FDEC3527FC900D91128533E47F24
:10768000E87E03FDFC900D91E0F8A3E0F9A3E0FA99
:10769000A3E0FBD3128498400FE47FE87E03FDFC57
:1076A000900D91128533802A7F187EFC7DFF7CFF30
:1076B000900D91E0F8A3E0F9A3E0FAA3E0FBC31278
:1076C0008498500E7F187EFC7DFF7CFF900D9112F8
:1076D0008533E4FFFEFDFCAB42AA41A940A83FC3AD
:1076E000128498601AAF2AAE29AD28AC27A83F12A1
:1076F000836078101284D28F268E258D248C23E40B
:10770000FFFEFDFCAB46AA45A944A843C3128498DA
:10771000602C900D91E0FCA3E0FDA3E0FEA3E0FF50
:10772000A84312836078101284D2E5262FF526E54F
:10773000253EF525E5243DF524E5233CF523E4FF2E
:10774000FEFDFCAB4AAA49A948A847C31284986029
:1077500043900D99E0F8A3E0F9A3E0FAA3E0FBC39E
:10776000E52A9BFFE5299AFEE52899FDE52798FC87
:10777000AB4AAA49A948A84712836078101284D25C
:10778000E5262FF526E5253EF525E5243DF524E5FE
:10779000233CF523AF2AAE29AD28AC27900D9912D2
:1077A0008533E4FFFEFDFCAB26AA25A924A823D33C
:1077B0001284984005D20E027C9AC20E027C9A90E6
:1077C0000B18E07003027C9A200D03027C9A900B48
:1077D00008E0FCA3E0FDA3E0FEA3E0F5328E318DCE
:1077E000308C2F900AC3E0FEA3E0FFEE3395E0FD5E
:1077F000FCAB32AA31A930A82FD31284984016903E
:107800000AC3E0FEA3E0FFEE3395E08F328E31F540
:1078100030F52F803C900AC3E0FEA3E0FFC3E49F55
:10782000FFE49EFE3395E0FDFCAB32AA31A930A8FF
:107830002FC3128498501A900AC3E0FEA3E0FFC33E
:10784000E49FFFE49EFE3395E08F328E31F530F5F4
:107850002F900CDCE0F8A3E0F9A3E0FAA3E0FBC36F
:10786000E5329BF52EE5319AF52DE53099F52CE5BD
:107870002F98F52B900D95E0FCA3E0FDA3E0FEA36F
:10788000E0252EFFEE352DFEED352CFDEC352BFCE5
:10789000900D951285337FA07E867D017C00900D32
:1078A00095E0F8A3E0F9A3E0FAA3E0FBD3128498F3
:1078B00040107FA07E867D017C00900D951285335F
:1078C000802A7F607E797DFE7CFF900D95E0F8A395
:1078D000E0F9A3E0FAA3E0FBC3128498500E7F60A6
:1078E0007E797DFE7CFF900D95128533E4F526F5BB
:1078F00025F524F523FFFEFDFCAB4EAA4DA94CA8AF
:107900004BC31284986026AF2EAE2DAD2CAC2BA8A5
:107910004B12836078101284D2E5262FF526E525D8
:107920003EF525E5243DF524E5233CF523E4FFFE63
:10793000FDFCAB52AA51A950A84FC3128498602CE9
:10794000900D95E0FCA3E0FDA3E0FEA3E0FFA84FAF
:1079500012836078101284D2E5262FF526E5253EA5
:10796000F525E5243DF524E5233CF523E4FFFEFD64
:10797000FCAB56AA55A954A853C3128498604390EF
:107980000D9DE0F8A3E0F9A3E0FAA3E0FBC3E52E28
:107990009BFFE52D9AFEE52C99FDE52B98FCAB5657
:1079A000AA55A954A85312836078101284D2E526F0
:1079B0002FF526E5253EF525E5243DF524E5233C78
:1079C000F523AF2EAE2DAD2CAC2B900D9D12853333
:1079D000E4FFFEFDFCAB26AA25A924A823C312843C
:1079E000984005D20E027C9AC20E027C9A900B102F
:1079F000E0FCA3E0FDA3E0FEA3E0F5268E258D24A8
:107A00008C23E4FFFEFDFCAB26AA25A924A823D3E2
:107A10001284984004D20E8002C20E74FF7F9CFE36
:107A2000FDFCAB26AA25A924A823C3128498500ED6
:107A300074FF75269CF525F524F523027C9AE47FD6
:107A400064FEFDFCAB26AA25A924A823D3128498A2
:107A50005003027C9AE4752664F525F524F523028B
:107A60007C9A900D07E0B40114900CBBE0FCA3E0FD
:107A7000FDA3E0FEA3E0FF900B00128533900BBF47
:107A8000E064016003027B10FFFEFDFCAB3EAA3DFB
:107A9000A93CA83BD3128498405D900BAFE0FCA3B7
:107AA000E0FDA3E0FEA3E0FFA83B128360C006C098
:107AB00007900AC7E0FEA3E0FFC3E49FFF74049EA3
:107AC000FEAB07FAE4F9F8D007D00612D0EAA80412
:107AD000A905AA06AB07900BAFE0FCA3E0FDA3E06D
:107AE000FEA3E0C39BFFEE9AFEED99FDEC98FC909F
:107AF0000B001285338019900BAFE0FCA3E0FDA3CF
:107B0000E0FEA3E0FF900B00128533E4900BBFF082
:107B1000900CD0E0F8A3E0F9A3E0FAA3E0FB900B0F
:107B200000E0FCA3E0FDA3E0FEA3E0C39BF52AEE8A
:107B30009AF529ED99F528EC98F527900D91E0FC40
:107B4000A3E0FDA3E0FEA3E0252AFFEE3529FEED2C
:107B50003528FDEC3527FC900D91128533E47FE844
:107B60007E03FDFC900D91E0F8A3E0F9A3E0FAA3F9
:107B7000E0FBD3128498400FE47FE87E03FDFC9085
:107B80000D91128533802A7F187EFC7DFF7CFF904B
:107B90000D91E0F8A3E0F9A3E0FAA3E0FBC312849F
:107BA00098500E7F187EFC7DFF7CFF900D91128512
:107BB00033E4FFFEFDFCAB42AA41A940A83FC3123B
:107BC0008498601AAF2AAE29AD28AC27A83F12834B
:107BD0006078101284D28F268E258D248C23E4FFAA
:107BE000FEFDFCAB46AA45A944A843C31284986095
:107BF0002C900D91E0FCA3E0FDA3E0FEA3E0FFA824
:107C00004312836078101284D2E5262FF526E525ED
:107C10003EF525E5243DF524E5233CF523E4FFFE70
:107C2000FDFCAB4AAA49A948A847C31284986043FF
:107C3000900D99E0F8A3E0F9A3E0FAA3E0FBC3E517
:107C40002A9BFFE5299AFEE52899FDE52798FCABDC
:107C50004AAA49A948A84712836078101284D2E53D
:107C6000262FF526E5253EF525E5243DF524E523DB
:107C70003CF523AF2AAE29AD28AC27900D9912858B
:107C800033E4FFFEFDFCAB26AA25A924A823D312CA
:107C900084984004D20E8002C20EE47F64FEFDFC94
:107CA000AB26AA25A924A823D3128498400AE475F8
:107CB0002664F525F524F52374FF7F9CFEFDFCABBF
:107CC00026AA25A924A823C3128498500B74FF75F3
:107CD000269CF525F524F523900A8EE06401603793
:107CE000AF26AE25AD24AC23780A1284E6E47B648B
:107CF000FAF9F812D0EAA804A905AA06AB07900D74
:107D000008E0FFE4FCFDFE128360780A1284D28F43
:107D1000268E258D248C23E4FFFEFDFCAB26AA25B0
:107D2000A924A823C312849840047F0180027FFF06
:107D3000900CCFEFF0300E077F0112DCB88005E425
:107D4000FF12DCB8AE25AF2612DB9412DCA02202B3
:107D50008110E86480F8E933E83360110460F0EDE5
:107D600033EC337009E8FCE9FDEAFEEBFF22046026
:107D7000DED3EB9FEA9EE99DE8C2E78CF0C2F7955F
:107D8000F0400CE8CCF8E9CDF9EACEFAEBCFFB12E3
:107D900080DB85D0F05804700320D5B3E804700769
:107DA0005002B2D502811A92D5EC0460F7E4CCC03F
:107DB000E0C398F8603B94186008400DD0E0FB02E7
:107DC00080F2E4FBFAC9FC8028E830E406E4C9FB51
:107DD000E4CAFCE830E305E4C9CACBFCE854076018
:107DE00010F8C3E913F9EA13FAEB13FBEC13FCD810
:107DF000F130F52FC3E49CFCEF9BFFEE9AFEED996A
:107E0000FDD0E0FBEF4E4D4C701222DB03028117D8
:107E1000EC2CFCEF33FFEE33FEED33FDED30E7EB02
:107E20000280F2EF2BFFEE3AFEED39FDD0E0FB5081
:107E3000130BBB000302811AED13FDEE13FEEF13CB
:107E4000FFEC13FC0280F2EC4D6011E8497017ED75
:107E500033EC3304600DE4FCFFFEFD22E933E8332C
:107E60000470F80281101280DB58046009E4CC240D
:107E700081500628500902811A284003028117C048
:107E8000E0EB4A7044B98006D0E0FB028106EF4E79
:107E9000701CBD8008EBFFEAFEE9FD80EBE98DF088
:107EA000A4FEE5F0027F30E9CDF9EAFEEBFFEF89B1
:107EB000F0A4FCE5F0CE89F0A42EFFE435F0CD89E6
:107EC000F0A42DFEE435F08067EF4E7005BD80D73D
:107ED00080C3EF8BF0A4ACF0EE8BF0A42CFCE43567
:107EE000F0F8EF8AF0A42CE5F038FCE433CB8DF009
:107EF000A42CFCE5F03BF8EE8AF0A42CFCE5F0386D
:107F0000F8E433CF89F0A42CFCE5F038CF3400CE70
:107F100089F0A42FFFE5F03EFEE433C98DF0A42ED6
:107F2000FEE5F039CD8AF0A42FFFE5F03EFEE43DFA
:107F3000FD33D0E0FB50070BBB000F02811AEC2C85
:107F4000FCEF33FFEE33FEED33FD0280F202811AC7
:107F5000EC5D046005E8590470030281101280DBB7
:107F6000580460F6EC4860F2EC7004FDFEFF22C895
:107F700060DB2481C85009C3986002500602811753
:107F80009850CAF582E9294B4A7005AB82028106F6
:107F900075F0007C1A7880C3EF9BEE9AED99400D46
:107FA000C3EF9BFFEE9AFEED99FDE842F0DC23ACB7
:107FB000F0D0E0FFD0E0FED0E0FDAB8220E7101B68
:107FC000EB60BAEC2CFCEF33FFEE33FEED33FD0239
:107FD00080F2E803F830E705C0F075F000EF2FFFFE
:107FE000EE33FEED33FD40B830E7C280AA74F8CC22
:107FF0006480CCC86480C8F58204604FC3EB9FF5F1
:10800000F0EA9E42F0E99D42F0E89C45F0603C5069
:108010001DE5825FFFE582D313CB5BCBF42B55824A
:10802000FB50280ABA002409B9002008801DE58207
:108030005BFBE582D313CF5FCFF4C3132F5582FFD1
:1080400050090EBE00050DBD00010CC3EB9FF5F0FD
:10805000EA9E42F0E99D42F0E89C45F06007CC487A
:1080600020E701B3EC2275F020800E75F01080053A
:1080700075F0087D007E007F003392D530D5031265
:10808000848AEC334010EF33FFEE33FEED33FDEC2A
:1080900033FCD5F0ED22E5F0247EA2D513CC92E797
:1080A000CDCEFF22EDD2E7CD33EC3392D524814003
:1080B00006E4FFFEFDFC22FCE4CFCECDCC24E05054
:1080C0001174FF80EDC3CC13CCCD13CDCE13CECF26
:1080D00013CF0470F030D5DE02848AE9D2E7C933C9
:1080E000E833F892D5EDD2E7CD33EC33FC5002B251
:1080F000D522EC30E7100FBF000C0EBE00080DBDFE
:1081000000040BEB6014A2D5EB13FCED92E7FD220B
:1081100074FFFCFDFEFF22E480F8A2D574FF13FC7F
:108120007D80E480EFF920E73624F950037907E4F5
:10813000F42402FBE582158270021583DBF6E0244D
:10814000FB501BE96014E4F0E58215827002158390
:10815000E004F0B40A08E4F0D9EE7401F00A22C297
:10816000D522ED33EC3392D5FA602AB4FF33EDC259
:10817000E77BFF60067A817987E4227A8179902013
:10818000D5047A81798B224E614E002B494E4600F0
:108190002D494E4600E47A08F0A3DAFC7B00740710
:1081A00022C083C082ECC0E0EDC0E0EEC0E0EFC0D2
:1081B000E0EA75F010A4CAABF075F04DA42BFBE417
:1081C00035F0FCEA2410FAEB34C5FBEC34D9FCEDB5
:1081D000C2E7FF75F056A4F42411C5F0F434C58F3E
:1081E000F0A42AE5F03BE43CF020E714128297D09B
:1081F000E0FFD0E0FED0E0FDD0E0FC127F50801424
:10820000F404128297D0E0FFD0E0FED0E0FDD0E091
:10821000FC127E47D082D083E0FAEDD2E7CD33EC7A
:10822000332482FBE4C3CF33CFCE33CECD33CD3333
:10823000DBF37B0775F00A846004F0A31B0AE5F00A
:10824000F0A38FF0740AA4FFACF08EF0740AA42C93
:10825000FEACF050010C8DF0740AA42CFDE435F056
:10826000F0A3DBDE7407223F8000004120000042C3
:10827000C80000447A0000461C400047C350004933
:108280007424004B1896804CBEBC205A0E1BCA6743
:1082900053C21C749DC5AEFB60065407601C2323AB
:1082A0001282C5EB543860091282B11282C0127E6C
:1082B00047ECF8EDF9EEFAEFCB22EB1282C080F139
:1082C000543803241C908267FE93FC0EEE93FD0E3F
:1082D000EE930ECE93FF22BB010689828A83E022B1
:1082E0005002E722BBFE02E32289828A83E49322C2
:1082F000BB010CE58229F582E5833AF583E0225043
:1083000006E92582F8E622BBFE06E92582F8E2228C
:10831000E58229F582E5833AF583E49322BB0106E1
:1083200089828A83F0225002F722BBFE01F322EFFA
:108330008DF0A4A8F0CF8CF0A428CE8DF0A42EFE52
:1083400022BB010A89828A83F0E5F0A3F02250065D
:10835000F709A7F01922BBFE06F3E5F009F319228D
:10836000E88FF0A4CC8BF0A42CFCE98EF0A42CFCBC
:108370008AF0EDA42CFCEA8EF0A4CDA8F08BF0A43A
:108380002DCC3825F0FDE98FF0A42CCD35F0FCEB99
:108390008EF0A4FEA9F0EB8FF0A4CFC5F02ECD395E
:1083A000FEE43CFCEAA42DCE35F0FDE43CFC227555
:1083B000F008758200EF2FFFEE33FECD33CDCC33C6
:1083C000CCC58233C5829BED9AEC99E58298400C2E
:1083D000F582EE9BFEED9AFDEC99FC0FD5F0D6E40C
:1083E000CEFBE4CDFAE4CCF9A88222B800C1B900F2
:1083F00059BA002DEC8BF084CFCECDFCE5F0CBF953
:108400007818EF2FFFEE33FEED33FDEC33FCEB334A
:10841000FB10D703994004EB99FB0FD8E5E4F9FA78
:10842000227818EF2FFFEE33FEED33FDEC33FCC95D
:1084300033C910D7059BE99A4007EC9BFCE99AF9F0
:108440000FD8E0E4C9FAE4CCFB2275F010EF2FFF5F
:10845000EE33FEED33FDCC33CCC833C810D7079BC9
:10846000EC9AE899400AED9BFDEC9AFCE899F80F2C
:10847000D5F0DAE4CDFBE4CCFAE4C8F922CFF4CFAE
:10848000CEF4CECDF4CDCCF4CC22C3E49FFFE49E59
:10849000FEE49DFDE49CFC22EB9FF5F0EA9E42F099
:1084A000E99D42F0EC6480C864809845F022EB9F1F
:1084B000F5F0EA9E42F0E99D42F0E89C45F022E8A2
:1084C000600FECC313FCED13FDEE13FEEF13FFD8AA
:1084D000F122E86010ECA2E713FCED13FDEE13FEB1
:1084E000EF13FFD8F022E8600FEFC333FFEE33FE47
:1084F000ED33FDEC33FCD8F122BB010789828A837E
:108500000287C55005E9F80287B9BBFE05E9F80204
:1085100087D189828A830287DDBB010789828A83AA
:108520000285335005E9F80287EDBBFE05E9F80244
:1085300087F922ECF0A3EDF0A3EEF0A3EFF022F820
:10854000E0FBA3A3E0F925F0F0E5821582700215A7
:1085500083E0FA38F022EBF0A3EAF0A3E9F022D0AE
:1085600083D082F8E4937012740193700DA3A393E7
:10857000F8740193F5828883E4737402936860EF62
:10858000A3A3A380DFE5112582F582E5103583F5ED
:1085900083B510048582112210AF06858211F51073
:1085A00022858211F510D2AF22EC8EF0A4CCC5F05A
:1085B000CCCDF8EFA4CEC5F02DFDE43CFCE8A42E14
:1085C000C8C5F03DFDE43CFCEFA4FFE5F028FEE467
:1085D0003DFDE43CFC22E709F608DFFA8046E709A6
:1085E000F208DFFA803E88828C83E709F0A3DFFA85
:1085F0008032E309F608DFFA806EE309F208DFFA59
:10860000806688828C83E309F0A3DFFA805A89822E
:108610008A83E0A3F608DFFA804E89828A83E0A38A
:10862000F208DFFA804280D280FA80C680D480557A
:1086300080F28029801080A680EA809A80A880DA63
:1086400080E280CA802988848C8589828A83E49329
:10865000A30586F0A30586DFF5DEF3800B89828A09
:1086600083E493A3F608DFF9ECFAA9F0EDFB228886
:10867000848C8589828A83E0A30586F0A30586DF42
:10868000F6DEF480E389828A83E493A3F208DFF9BB
:1086900080D688F0EF60010E4E60CD88F0ED2402A8
:1086A000B4040050C3F582EB2402B4040050B92393
:1086B0002345822390862673E709F60870FA8046E0
:1086C000E709F20870FA803E88828C83E709F0A3FC
:1086D00070FA8074E309F60870FA806CE309F20816
:1086E00070FA806488828C83E309F0A370FA805862
:1086F00089828A83E0A3F60870FA804C89828A8393
:10870000E0A3F20870FA804080D280FA80C680D45C
:10871000805180F28027801080A680EA809A80A80D
:1087200080DA80E280CA802788848C8589828A8367
:10873000E493A30586F0A3058670F5800B89828AF1
:1087400083E493A3F60870F9ECFAA9F0EDFB228814
:10875000848C8589828A83E0A30586F0A3058670D0
:10876000F680E589828A83E493A3F20870F980D8C1
:1087700088F0ED2402B4040050CEF582EB2402B45C
:10878000040050C4232345822390870873C5F0F862
:10879000A3E028F0C5F0F8E582158270021583E0A9
:1087A00038F022A3F8E0C5F025F0F0E582158270DC
:1087B000021583E0C838F0E822E6FC08E6FD08E68A
:1087C000FE08E6FF22E0FCA3E0FDA3E0FEA3E0FF3D
:1087D00022E2FC08E2FD08E2FE08E2FF22E493FC4C
:1087E000740193FD740293FE740393FF22ECF60868
:1087F000EDF608EEF608EFF622ECF208EDF208EEE0
:10880000F208EFF2228F23E523C394034003028E84
:10881000B0300A227B03AF031BEF6018E4FFFEFDBC
:10882000FCEB25E025E024A2F582E4340DF583126B
:10883000853380E2C20AE523701812DC1178011238
:1088400084BFEFEEED5403FDE4FC9000021285338B
:108850008033E523B4011812DBDF78011284BFEF07
:10886000EEED5403FDE4FC900002128533801612F5
:10887000DBD578011284BFEFEEED5403FDE4FC90EC
:1088800000021285337B017A00790212CBA04003EB
:10889000028AC7900002E0FCA3E0FDA3E0FEA3E093
:1088A00054C0FFEEED5403FDE42FFFE43EFEED3433
:1088B000FEFDE434FFFC78021284BFEE3395E0FD48
:1088C000FCE52325E025E02451F582E4340BF58313
:1088D000E0F8A3E0F9A3E0FAA3E02FFFEA3EFEE907
:1088E0003DFDE83CFC900006128533300F279000D8
:1088F00006E0FCA3E0FDA3E0FEA3E0FFE52325E006
:1089000025E024A2F582E4340DF583128533E523B6
:10891000B40202C20FE52325E025E024A2F582E49B
:10892000340DF583E0F8A3E0F9A3E0FAA3E0FB90AF
:108930000006E0FCA3E0FDA3E0FEA3E0C39BFFEE86
:108940009AFEED99FDEC98FC90000E128533E4FF41
:108950007EC0FDFC90000EE0F8A3E0F9A3E0FAA3CE
:10896000E0FBD3128498401074E42523F582E434AC
:108970000CF583E014F080687F007E407DFF7CFF73
:1089800090000EE0F8A3E0F9A3E0FAA3E0FBC31225
:108990008498501074E42523F582E4340CF583E0C8
:1089A00004F0803C90000EE0A3E0A3E0FEA3E0FF13
:1089B00012DB94D3EF9400EE648094C0402274AE36
:1089C0002523F582E4340DF583E004F074AE25230D
:1089D000F582E4340DF583E0C3940A5003028EB0AF
:1089E00074AE2523F582E4340DF583E4F09000069F
:1089F000E0FCA3E0FDA3E0FEA3E0FFE52325E025E6
:108A0000E024A2F582E4340DF5831285339000064C
:108A1000E0F8A3E0F9A3E0FAA3E0FBC00074E425CA
:108A200023F582E4340CF583E0FF3395E0FEFDFC92
:108A300078101284E6D000EB2FFFEA3EFEE93DFD00
:108A4000E83CFC900006128533E52325E025E02470
:108A50009EF582E4340AF583E0FCA3E0FDA3E0FE8A
:108A6000A3E0FFE4FBFA7980783F127FED60389055
:108A70000006E0FCA3E0FDA3E0FEA3E0FFEC128013
:108A800066E52325E025E0249EF582E4340AF5839B
:108A9000E0F8A3E0F9A3E0FAA3E0FB127E4712801E
:108AA000A4900006128533900006E0FCA3E0FDA32D
:108AB000E0FEA3E0FFE52325E025E024D0F582E4F5
:108AC000340CF583128533E523147003028BA8144C
:108AD0007003028C7424026003028D3DE47F12FE59
:108AE000FDFC900DB2E0F8A3E0F9A3E0FAA3E0FBEF
:108AF000128360C004C005C006C007E47F0BFEFD02
:108B0000FC900006E0F8A3E0F9A3E0FAA3E0FB1272
:108B10008360D003D002D001D000C3EF9BFFEE9A58
:108B2000FEED99FDEC98FCC004C005C006C007E44A
:108B30007F09FEFDFC900DBEE0F8A3E0F9A3E0FA8A
:108B4000A3E0FB128360D003D002D001D000EF2B52
:108B5000FFEE3AFEED39FDEC38FCC004C005C0065E
:108B6000C007E47F02FEFDFC900DCAE0F8A3E0F927
:108B7000A3E0FAA3E0FB128360A804A905AA06AB50
:108B800007D007D006D005D004C3EF9BFFEE9AFEB6
:108B9000ED99FDEC98FC12C59FEE3395E0FDFC903D
:108BA000000A128533028D3DE47F12FEFDFC900D1C
:108BB000B6E0F8A3E0F9A3E0FAA3E0FB128360C0FB
:108BC00004C005C006C007E47F0BFEFDFC90000654
:108BD000E0F8A3E0F9A3E0FAA3E0FB128360D0037E
:108BE000D002D001D000C3EF9BFFEE9AFEED99FDBD
:108BF000EC98FCC004C005C006C007E47F09FEFD78
:108C0000FC900DC2E0F8A3E0F9A3E0FAA3E0FB12A8
:108C10008360D003D002D001D000EF2BFFEE3AFEEC
:108C2000ED39FDEC38FCC004C005C006C007E47F88
:108C300002FEFDFC900DCEE0F8A3E0F9A3E0FAA35C
:108C4000E0FB128360A804A905AA06AB07D007D0F1
:108C500006D005D004C3EF9BFFEE9AFEED99FDEC24
:108C600098FC12C61CEE3395E0FDFC90000A1285BC
:108C700033028D3DE47F12FEFDFC900DBAE0F8A3B7
:108C8000E0F9A3E0FAA3E0FB128360C004C005C0D2
:108C900006C007E47F0BFEFDFC900006E0F8A3E0B1
:108CA000F9A3E0FAA3E0FB128360D003D002D00165
:108CB000D000C3EF9BFFEE9AFEED99FDEC98FCC04F
:108CC00004C005C006C007E47F09FEFDFC900DC688
:108CD000E0F8A3E0F9A3E0FAA3E0FB128360D0037D
:108CE000D002D001D000EF2BFFEE3AFEED39FDECC3
:108CF00038FCC004C005C006C007E47F02FEFDFCCE
:108D0000900DD2E0F8A3E0F9A3E0FAA3E0FB128310
:108D100060A804A905AA06AB07D007D006D005D0E5
:108D200004C3EF9BFFEE9AFEED99FDEC98FC12C692
:108D300099EE3395E0FDFC90000A128533E4FFFEC6
